{
	"compilerInput": "{\"language\":\"Solidity\",\"sources\":{\"contracts/1_Storage.sol\":{\"content\":\"// SPDX-License-Identifier: MIT\\npragma solidity >=0.7.0 <0.9.0;\\n\\ncontract Storage {\\n    uint256 counter;\\n\\n    function count() public {\\n        counter += 1;\\n    }\\n\\n    function get() public view returns (uint256){\\n        return counter;\\n    }\\n}\"}},\"settings\":{\"optimizer\":{\"enabled\":false,\"runs\":200},\"outputSelection\":{\"*\":{\"\":[\"ast\"],\"*\":[\"abi\",\"metadata\",\"devdoc\",\"userdoc\",\"storageLayout\",\"evm.legacyAssembly\",\"evm.bytecode\",\"evm.deployedBytecode\",\"evm.methodIdentifiers\",\"evm.gasEstimates\",\"evm.assembly\"]}},\"remappings\":[]}}",
	"name": "Storage",
	"bytecode": {
		"linkReferences": {},
		"object": "6080604052348015600e575f80fd5b506101498061001c5f395ff3fe608060405234801561000f575f80fd5b5060043610610034575f3560e01c806306661abd146100385780636d4ce63c14610042575b5f80fd5b610040610060565b005b61004a61007a565b604051610057919061009a565b60405180910390f35b60015f8082825461007191906100e0565b92505081905550565b5f8054905090565b5f819050919050565b61009481610082565b82525050565b5f6020820190506100ad5f83018461008b565b92915050565b7f4e487b71000000000000000000000000000000000000000000000000000000005f52601160045260245ffd5b5f6100ea82610082565b91506100f583610082565b925082820190508082111561010d5761010c6100b3565b5b9291505056fea26469706673582212202ce7c81b4dd5d761c0d914e3b72f35a792d72acef057d18d5e8cc4db3e2dcf2864736f6c634300081a0033",
		"opcodes": "PUSH1 0x80 PUSH1 0x40 MSTORE CALLVALUE DUP1 ISZERO PUSH1 0xE JUMPI PUSH0 DUP1 REVERT JUMPDEST POP PUSH2 0x149 DUP1 PUSH2 0x1C PUSH0 CODECOPY PUSH0 RETURN INVALID PUSH1 0x80 PUSH1 0x40 MSTORE CALLVALUE DUP1 ISZERO PUSH2 0xF JUMPI PUSH0 DUP1 REVERT JUMPDEST POP PUSH1 0x4 CALLDATASIZE LT PUSH2 0x34 JUMPI PUSH0 CALLDATALOAD PUSH1 0xE0 SHR DUP1 PUSH4 0x6661ABD EQ PUSH2 0x38 JUMPI DUP1 PUSH4 0x6D4CE63C EQ PUSH2 0x42 JUMPI JUMPDEST PUSH0 DUP1 REVERT JUMPDEST PUSH2 0x40 PUSH2 0x60 JUMP JUMPDEST STOP JUMPDEST PUSH2 0x4A PUSH2 0x7A JUMP JUMPDEST PUSH1 0x40 MLOAD PUSH2 0x57 SWAP2 SWAP1 PUSH2 0x9A JUMP JUMPDEST PUSH1 0x40 MLOAD DUP1 SWAP2 SUB SWAP1 RETURN JUMPDEST PUSH1 0x1 PUSH0 DUP1 DUP3 DUP3 SLOAD PUSH2 0x71 SWAP2 SWAP1 PUSH2 0xE0 JUMP JUMPDEST SWAP3 POP POP DUP2 SWAP1 SSTORE POP JUMP JUMPDEST PUSH0 DUP1 SLOAD SWAP1 POP SWAP1 JUMP JUMPDEST PUSH0 DUP2 SWAP1 POP SWAP2 SWAP1 POP JUMP JUMPDEST PUSH2 0x94 DUP2 PUSH2 0x82 JUMP JUMPDEST DUP3 MSTORE POP POP JUMP JUMPDEST PUSH0 PUSH1 0x20 DUP3 ADD SWAP1 POP PUSH2 0xAD PUSH0 DUP4 ADD DUP5 PUSH2 0x8B JUMP JUMPDEST SWAP3 SWAP2 POP POP JUMP JUMPDEST PUSH32 0x4E487B7100000000000000000000000000000000000000000000000000000000 PUSH0 MSTORE PUSH1 0x11 PUSH1 0x4 MSTORE PUSH1 0x24 PUSH0 REVERT JUMPDEST PUSH0 PUSH2 0xEA DUP3 PUSH2 0x82 JUMP JUMPDEST SWAP2 POP PUSH2 0xF5 DUP4 PUSH2 0x82 JUMP JUMPDEST SWAP3 POP DUP3 DUP3 ADD SWAP1 POP DUP1 DUP3 GT ISZERO PUSH2 0x10D JUMPI PUSH2 0x10C PUSH2 0xB3 JUMP JUMPDEST JUMPDEST SWAP3 SWAP2 POP POP JUMP INVALID LOG2 PUSH5 0x6970667358 0x22 SLT KECCAK256 0x2C 0xE7 0xC8 SHL 0x4D 0xD5 0xD7 PUSH2 0xC0D9 EQ 0xE3 0xB7 0x2F CALLDATALOAD 0xA7 SWAP3 0xD7 0x2A 0xCE CREATE JUMPI 0xD1 DUP14 MCOPY DUP13 0xC4 0xDB RETURNDATACOPY 0x2D 0xCF 0x28 PUSH5 0x736F6C6343 STOP ADDMOD BYTE STOP CALLER "
	},
	"abi": [
		{
			"inputs": [],
			"name": "count",
			"outputs": [],
			"stateMutability": "nonpayable",
			"type": "function"
		},
		{
			"inputs": [],
			"name": "get",
			"outputs": [
				{
					"internalType": "uint256",
					"name": "",
					"type": "uint256"
				}
			],
			"stateMutability": "view",
			"type": "function"
		}
	],
	"storageLayout": {
		"storage": [
			{
				"astId": 3,
				"contract": "contracts/1_Storage.sol:Storage",
				"label": "counter",
				"offset": 0,
				"slot": "0",
				"type": "t_uint256"
			}
		],
		"types": {
			"t_uint256": {
				"encoding": "inplace",
				"label": "uint256",
				"numberOfBytes": "32"
			}
		}
	},
	"web3Deploy": "var storageContract = new web3.eth.Contract([{\"inputs\":[],\"name\":\"count\",\"outputs\":[],\"stateMutability\":\"nonpayable\",\"type\":\"function\"},{\"inputs\":[],\"name\":\"get\",\"outputs\":[{\"internalType\":\"uint256\",\"name\":\"\",\"type\":\"uint256\"}],\"stateMutability\":\"view\",\"type\":\"function\"}]);\nvar storage = storageContract.deploy({\n     data: '0x6080604052348015600e575f80fd5b506101498061001c5f395ff3fe608060405234801561000f575f80fd5b5060043610610034575f3560e01c806306661abd146100385780636d4ce63c14610042575b5f80fd5b610040610060565b005b61004a61007a565b604051610057919061009a565b60405180910390f35b60015f8082825461007191906100e0565b92505081905550565b5f8054905090565b5f819050919050565b61009481610082565b82525050565b5f6020820190506100ad5f83018461008b565b92915050565b7f4e487b71000000000000000000000000000000000000000000000000000000005f52601160045260245ffd5b5f6100ea82610082565b91506100f583610082565b925082820190508082111561010d5761010c6100b3565b5b9291505056fea26469706673582212202ce7c81b4dd5d761c0d914e3b72f35a792d72acef057d18d5e8cc4db3e2dcf2864736f6c634300081a0033', \n     arguments: [\n     ]\n}).send({\n     from: web3.eth.accounts[0], \n     gas: '4700000'\n   }, function (e, contract){\n    console.log(e, contract);\n    if (typeof contract.address !== 'undefined') {\n         console.log('Contract mined! address: ' + contract.address + ' transactionHash: ' + contract.transactionHash);\n    }\n })",
	"functionHashes": {
		"06661abd": "count()",
		"6d4ce63c": "get()"
	},
	"gasEstimates": {
		"Creation": {
			"codeDepositCost": "65800",
			"executionCost": "115",
			"totalCost": "65915"
		},
		"External": {
			"count()": "infinite",
			"get()": "2432"
		}
	},
	"devdoc": {
		"kind": "dev",
		"methods": {},
		"version": 1
	},
	"userdoc": {
		"kind": "user",
		"methods": {},
		"version": 1
	},
	"Runtime Bytecode": {
		"immutableReferences": {},
		"linkReferences": {},
		"object": "608060405234801561000f575f80fd5b5060043610610034575f3560e01c806306661abd146100385780636d4ce63c14610042575b5f80fd5b610040610060565b005b61004a61007a565b604051610057919061009a565b60405180910390f35b60015f8082825461007191906100e0565b92505081905550565b5f8054905090565b5f819050919050565b61009481610082565b82525050565b5f6020820190506100ad5f83018461008b565b92915050565b7f4e487b71000000000000000000000000000000000000000000000000000000005f52601160045260245ffd5b5f6100ea82610082565b91506100f583610082565b925082820190508082111561010d5761010c6100b3565b5b9291505056fea26469706673582212202ce7c81b4dd5d761c0d914e3b72f35a792d72acef057d18d5e8cc4db3e2dcf2864736f6c634300081a0033",
		"opcodes": "PUSH1 0x80 PUSH1 0x40 MSTORE CALLVALUE DUP1 ISZERO PUSH2 0xF JUMPI PUSH0 DUP1 REVERT JUMPDEST POP PUSH1 0x4 CALLDATASIZE LT PUSH2 0x34 JUMPI PUSH0 CALLDATALOAD PUSH1 0xE0 SHR DUP1 PUSH4 0x6661ABD EQ PUSH2 0x38 JUMPI DUP1 PUSH4 0x6D4CE63C EQ PUSH2 0x42 JUMPI JUMPDEST PUSH0 DUP1 REVERT JUMPDEST PUSH2 0x40 PUSH2 0x60 JUMP JUMPDEST STOP JUMPDEST PUSH2 0x4A PUSH2 0x7A JUMP JUMPDEST PUSH1 0x40 MLOAD PUSH2 0x57 SWAP2 SWAP1 PUSH2 0x9A JUMP JUMPDEST PUSH1 0x40 MLOAD DUP1 SWAP2 SUB SWAP1 RETURN JUMPDEST PUSH1 0x1 PUSH0 DUP1 DUP3 DUP3 SLOAD PUSH2 0x71 SWAP2 SWAP1 PUSH2 0xE0 JUMP JUMPDEST SWAP3 POP POP DUP2 SWAP1 SSTORE POP JUMP JUMPDEST PUSH0 DUP1 SLOAD SWAP1 POP SWAP1 JUMP JUMPDEST PUSH0 DUP2 SWAP1 POP SWAP2 SWAP1 POP JUMP JUMPDEST PUSH2 0x94 DUP2 PUSH2 0x82 JUMP JUMPDEST DUP3 MSTORE POP POP JUMP JUMPDEST PUSH0 PUSH1 0x20 DUP3 ADD SWAP1 POP PUSH2 0xAD PUSH0 DUP4 ADD DUP5 PUSH2 0x8B JUMP JUMPDEST SWAP3 SWAP2 POP POP JUMP JUMPDEST PUSH32 0x4E487B7100000000000000000000000000000000000000000000000000000000 PUSH0 MSTORE PUSH1 0x11 PUSH1 0x4 MSTORE PUSH1 0x24 PUSH0 REVERT JUMPDEST PUSH0 PUSH2 0xEA DUP3 PUSH2 0x82 JUMP JUMPDEST SWAP2 POP PUSH2 0xF5 DUP4 PUSH2 0x82 JUMP JUMPDEST SWAP3 POP DUP3 DUP3 ADD SWAP1 POP DUP1 DUP3 GT ISZERO PUSH2 0x10D JUMPI PUSH2 0x10C PUSH2 0xB3 JUMP JUMPDEST JUMPDEST SWAP3 SWAP2 POP POP JUMP INVALID LOG2 PUSH5 0x6970667358 0x22 SLT KECCAK256 0x2C 0xE7 0xC8 SHL 0x4D 0xD5 0xD7 PUSH2 0xC0D9 EQ 0xE3 0xB7 0x2F CALLDATALOAD 0xA7 SWAP3 0xD7 0x2A 0xCE CREATE JUMPI 0xD1 DUP14 MCOPY DUP13 0xC4 0xDB RETURNDATACOPY 0x2D 0xCF 0x28 PUSH5 0x736F6C6343 STOP ADDMOD BYTE STOP CALLER "
	},
	"Assembly": ".code\n  PUSH 80\t\t\tcontract Storage {\\n    uint25...\n  PUSH 40\t\t\tcontract Storage {\\n    uint25...\n  MSTORE \t\t\tcontract Storage {\\n    uint25...\n  CALLVALUE \t\t\tcontract Storage {\\n    uint25...\n  DUP1 \t\t\tcontract Storage {\\n    uint25...\n  ISZERO \t\t\tcontract Storage {\\n    uint25...\n  PUSH [tag] 1\t\t\tcontract Storage {\\n    uint25...\n  JUMPI \t\t\tcontract Storage {\\n    uint25...\n  PUSH 0\t\t\tcontract Storage {\\n    uint25...\n  DUP1 \t\t\tcontract Storage {\\n    uint25...\n  REVERT \t\t\tcontract Storage {\\n    uint25...\ntag 1\t\t\tcontract Storage {\\n    uint25...\n  JUMPDEST \t\t\tcontract Storage {\\n    uint25...\n  POP \t\t\tcontract Storage {\\n    uint25...\n  PUSH #[$] 0000000000000000000000000000000000000000000000000000000000000000\t\t\tcontract Storage {\\n    uint25...\n  DUP1 \t\t\tcontract Storage {\\n    uint25...\n  PUSH [$] 0000000000000000000000000000000000000000000000000000000000000000\t\t\tcontract Storage {\\n    uint25...\n  PUSH 0\t\t\tcontract Storage {\\n    uint25...\n  CODECOPY \t\t\tcontract Storage {\\n    uint25...\n  PUSH 0\t\t\tcontract Storage {\\n    uint25...\n  RETURN \t\t\tcontract Storage {\\n    uint25...\n.data\n  0:\n    .code\n      PUSH 80\t\t\tcontract Storage {\\n    uint25...\n      PUSH 40\t\t\tcontract Storage {\\n    uint25...\n      MSTORE \t\t\tcontract Storage {\\n    uint25...\n      CALLVALUE \t\t\tcontract Storage {\\n    uint25...\n      DUP1 \t\t\tcontract Storage {\\n    uint25...\n      ISZERO \t\t\tcontract Storage {\\n    uint25...\n      PUSH [tag] 1\t\t\tcontract Storage {\\n    uint25...\n      JUMPI \t\t\tcontract Storage {\\n    uint25...\n      PUSH 0\t\t\tcontract Storage {\\n    uint25...\n      DUP1 \t\t\tcontract Storage {\\n    uint25...\n      REVERT \t\t\tcontract Storage {\\n    uint25...\n    tag 1\t\t\tcontract Storage {\\n    uint25...\n      JUMPDEST \t\t\tcontract Storage {\\n    uint25...\n      POP \t\t\tcontract Storage {\\n    uint25...\n      PUSH 4\t\t\tcontract Storage {\\n    uint25...\n      CALLDATASIZE \t\t\tcontract Storage {\\n    uint25...\n      LT \t\t\tcontract Storage {\\n    uint25...\n      PUSH [tag] 2\t\t\tcontract Storage {\\n    uint25...\n      JUMPI \t\t\tcontract Storage {\\n    uint25...\n      PUSH 0\t\t\tcontract Storage {\\n    uint25...\n      CALLDATALOAD \t\t\tcontract Storage {\\n    uint25...\n      PUSH E0\t\t\tcontract Storage {\\n    uint25...\n      SHR \t\t\tcontract Storage {\\n    uint25...\n      DUP1 \t\t\tcontract Storage {\\n    uint25...\n      PUSH 6661ABD\t\t\tcontract Storage {\\n    uint25...\n      EQ \t\t\tcontract Storage {\\n    uint25...\n      PUSH [tag] 3\t\t\tcontract Storage {\\n    uint25...\n      JUMPI \t\t\tcontract Storage {\\n    uint25...\n      DUP1 \t\t\tcontract Storage {\\n    uint25...\n      PUSH 6D4CE63C\t\t\tcontract Storage {\\n    uint25...\n      EQ \t\t\tcontract Storage {\\n    uint25...\n      PUSH [tag] 4\t\t\tcontract Storage {\\n    uint25...\n      JUMPI \t\t\tcontract Storage {\\n    uint25...\n    tag 2\t\t\tcontract Storage {\\n    uint25...\n      JUMPDEST \t\t\tcontract Storage {\\n    uint25...\n      PUSH 0\t\t\tcontract Storage {\\n    uint25...\n      DUP1 \t\t\tcontract Storage {\\n    uint25...\n      REVERT \t\t\tcontract Storage {\\n    uint25...\n    tag 3\t\t\tfunction count() public {\\n   ...\n      JUMPDEST \t\t\tfunction count() public {\\n   ...\n      PUSH [tag] 5\t\t\tfunction count() public {\\n   ...\n      PUSH [tag] 6\t\t\tfunction count() public {\\n   ...\n      JUMP \t\t\tfunction count() public {\\n   ...\n    tag 5\t\t\tfunction count() public {\\n   ...\n      JUMPDEST \t\t\tfunction count() public {\\n   ...\n      STOP \t\t\tfunction count() public {\\n   ...\n    tag 4\t\t\tfunction get() public view ret...\n      JUMPDEST \t\t\tfunction get() public view ret...\n      PUSH [tag] 7\t\t\tfunction get() public view ret...\n      PUSH [tag] 8\t\t\tfunction get() public view ret...\n      JUMP \t\t\tfunction get() public view ret...\n    tag 7\t\t\tfunction get() public view ret...\n      JUMPDEST \t\t\tfunction get() public view ret...\n      PUSH 40\t\t\tfunction get() public view ret...\n      MLOAD \t\t\tfunction get() public view ret...\n      PUSH [tag] 9\t\t\tfunction get() public view ret...\n      SWAP2 \t\t\tfunction get() public view ret...\n      SWAP1 \t\t\tfunction get() public view ret...\n      PUSH [tag] 10\t\t\tfunction get() public view ret...\n      JUMP \t\t\tfunction get() public view ret...\n    tag 9\t\t\tfunction get() public view ret...\n      JUMPDEST \t\t\tfunction get() public view ret...\n      PUSH 40\t\t\tfunction get() public view ret...\n      MLOAD \t\t\tfunction get() public view ret...\n      DUP1 \t\t\tfunction get() public view ret...\n      SWAP2 \t\t\tfunction get() public view ret...\n      SUB \t\t\tfunction get() public view ret...\n      SWAP1 \t\t\tfunction get() public view ret...\n      RETURN \t\t\tfunction get() public view ret...\n    tag 6\t\t\tfunction count() public {\\n   ...\n      JUMPDEST \t\t\tfunction count() public {\\n   ...\n      PUSH 1\t\t\t1\n      PUSH 0\t\t\tcounter\n      DUP1 \t\t\tcounter\n      DUP3 \t\t\tcounter += 1\n      DUP3 \t\t\tcounter += 1\n      SLOAD \t\t\tcounter += 1\n      PUSH [tag] 12\t\t\tcounter += 1\n      SWAP2 \t\t\tcounter += 1\n      SWAP1 \t\t\tcounter += 1\n      PUSH [tag] 13\t\t\tcounter += 1\n      JUMP \t\t\tcounter += 1\n    tag 12\t\t\tcounter += 1\n      JUMPDEST \t\t\tcounter += 1\n      SWAP3 \t\t\tcounter += 1\n      POP \t\t\tcounter += 1\n      POP \t\t\tcounter += 1\n      DUP2 \t\t\tcounter += 1\n      SWAP1 \t\t\tcounter += 1\n      SSTORE \t\t\tcounter += 1\n      POP \t\t\tcounter += 1\n      JUMP \t\t\tfunction count() public {\\n   ...\n    tag 8\t\t\tfunction get() public view ret...\n      JUMPDEST \t\t\tfunction get() public view ret...\n      PUSH 0\t\t\tuint256\n      DUP1 \t\t\tcounter\n      SLOAD \t\t\tcounter\n      SWAP1 \t\t\treturn counter\n      POP \t\t\treturn counter\n      SWAP1 \t\t\tfunction get() public view ret...\n      JUMP \t\t\tfunction get() public view ret...\n    tag 15\t\t\t-License-Identifier: MIT\\nprag...\n      JUMPDEST \t\t\t-License-Identifier: MIT\\nprag...\n      PUSH 0\t\t\tity >=0\n      DUP2 \t\t\t Stor\n      SWAP1 \t\t\t;\\n\\ncontract Stor\n      POP \t\t\t;\\n\\ncontract Stor\n      SWAP2 \t\t\t-License-Identifier: MIT\\nprag...\n      SWAP1 \t\t\t-License-Identifier: MIT\\nprag...\n      POP \t\t\t-License-Identifier: MIT\\nprag...\n      JUMP \t\t\t-License-Identifier: MIT\\nprag...\n    tag 16\t\t\tnt256 counter;\\n\\n    function...\n      JUMPDEST \t\t\tnt256 counter;\\n\\n    function...\n      PUSH [tag] 21\t\t\t get() public view retur\n      DUP2 \t\t\t retu\n      PUSH [tag] 15\t\t\t get() public view retur\n      JUMP \t\t\t get() public view retur\n    tag 21\t\t\t get() public view retur\n      JUMPDEST \t\t\t get() public view retur\n      DUP3 \t\t\tcti\n      MSTORE \t\t\t    function get() public view...\n      POP \t\t\tnt256 counter;\\n\\n    function...\n      POP \t\t\tnt256 counter;\\n\\n    function...\n      JUMP \t\t\tnt256 counter;\\n\\n    function...\n    tag 10\t\t\t\\n        return counter;\\n   ...\n      JUMPDEST \t\t\t\\n        return counter;\\n   ...\n      PUSH 0\t\t\t\n      PUSH 20\t\t\t\n      DUP3 \t\t\t\n      ADD \t\t\t\n      SWAP1 \t\t\t\n      POP \t\t\t\n      PUSH [tag] 23\t\t\t\n      PUSH 0\t\t\t\n      DUP4 \t\t\t\n      ADD \t\t\t\n      DUP5 \t\t\t\n      PUSH [tag] 16\t\t\t\n      JUMP \t\t\t\n    tag 23\t\t\t\n      JUMPDEST \t\t\t\n      SWAP3 \t\t\t\\n        return counter;\\n   ...\n      SWAP2 \t\t\t\\n        return counter;\\n   ...\n      POP \t\t\t\\n        return counter;\\n   ...\n      POP \t\t\t\\n        return counter;\\n   ...\n      JUMP \t\t\t\\n        return counter;\\n   ...\n    tag 17\t\t\t\n      JUMPDEST \t\t\t\n      PUSH 4E487B7100000000000000000000000000000000000000000000000000000000\t\t\t\n      PUSH 0\t\t\t\n      MSTORE \t\t\t\n      PUSH 11\t\t\t\n      PUSH 4\t\t\t\n      MSTORE \t\t\t\n      PUSH 24\t\t\t\n      PUSH 0\t\t\t\n      REVERT \t\t\t\n    tag 13\t\t\t\n      JUMPDEST \t\t\t\n      PUSH 0\t\t\t\n      PUSH [tag] 26\t\t\t\n      DUP3 \t\t\t\n      PUSH [tag] 15\t\t\t\n      JUMP \t\t\t\n    tag 26\t\t\t\n      JUMPDEST \t\t\t\n      SWAP2 \t\t\t\n      POP \t\t\t\n      PUSH [tag] 27\t\t\t\n      DUP4 \t\t\t\n      PUSH [tag] 15\t\t\t\n      JUMP \t\t\t\n    tag 27\t\t\t\n      JUMPDEST \t\t\t\n      SWAP3 \t\t\t\n      POP \t\t\t\n      DUP3 \t\t\t\n      DUP3 \t\t\t\n      ADD \t\t\t\n      SWAP1 \t\t\t\n      POP \t\t\t\n      DUP1 \t\t\t\n      DUP3 \t\t\t\n      GT \t\t\t\n      ISZERO \t\t\t\n      PUSH [tag] 28\t\t\t\n      JUMPI \t\t\t\n      PUSH [tag] 29\t\t\t\n      PUSH [tag] 17\t\t\t\n      JUMP \t\t\t\n    tag 29\t\t\t\n      JUMPDEST \t\t\t\n    tag 28\t\t\t\n      JUMPDEST \t\t\t\n      SWAP3 \t\t\t\n      SWAP2 \t\t\t\n      POP \t\t\t\n      POP \t\t\t\n      JUMP \t\t\t\n    .data\n"
}