{
	"compilerInput": "{\"language\":\"Solidity\",\"sources\":{\"contracts/1_Storage.sol\":{\"content\":\"// SPDX-License-Identifier: MIT\\npragma solidity >=0.7.0 <0.9.0;\\n\\ncontract Storage {\\n    uint256 counter;\\n\\n    function add(uint256 amount) public {\\n        counter += amount;\\n    }\\n\\n    function get() public view returns (uint256){\\n        return counter;\\n    }\\n}\"}},\"settings\":{\"optimizer\":{\"enabled\":false,\"runs\":200},\"outputSelection\":{\"*\":{\"\":[\"ast\"],\"*\":[\"abi\",\"metadata\",\"devdoc\",\"userdoc\",\"storageLayout\",\"evm.legacyAssembly\",\"evm.bytecode\",\"evm.deployedBytecode\",\"evm.methodIdentifiers\",\"evm.gasEstimates\",\"evm.assembly\"]}},\"remappings\":[]}}",
	"name": "Storage",
	"bytecode": {
		"linkReferences": {},
		"object": "6080604052348015600e575f80fd5b506101b48061001c5f395ff3fe608060405234801561000f575f80fd5b5060043610610034575f3560e01c80631003e2d2146100385780636d4ce63c14610054575b5f80fd5b610052600480360381019061004d91906100cb565b610072565b005b61005c61008c565b6040516100699190610105565b60405180910390f35b805f80828254610082919061014b565b9250508190555050565b5f8054905090565b5f80fd5b5f819050919050565b6100aa81610098565b81146100b4575f80fd5b50565b5f813590506100c5816100a1565b92915050565b5f602082840312156100e0576100df610094565b5b5f6100ed848285016100b7565b91505092915050565b6100ff81610098565b82525050565b5f6020820190506101185f8301846100f6565b92915050565b7f4e487b71000000000000000000000000000000000000000000000000000000005f52601160045260245ffd5b5f61015582610098565b915061016083610098565b92508282019050808211156101785761017761011e565b5b9291505056fea26469706673582212209470cf6162544b0fc6a33fb1a217159e66134b165ce7759edba8c3a41d6c8f2e64736f6c634300081a0033",
		"opcodes": "PUSH1 0x80 PUSH1 0x40 MSTORE CALLVALUE DUP1 ISZERO PUSH1 0xE JUMPI PUSH0 DUP1 REVERT JUMPDEST POP PUSH2 0x1B4 DUP1 PUSH2 0x1C PUSH0 CODECOPY PUSH0 RETURN INVALID PUSH1 0x80 PUSH1 0x40 MSTORE CALLVALUE DUP1 ISZERO PUSH2 0xF JUMPI PUSH0 DUP1 REVERT JUMPDEST POP PUSH1 0x4 CALLDATASIZE LT PUSH2 0x34 JUMPI PUSH0 CALLDATALOAD PUSH1 0xE0 SHR DUP1 PUSH4 0x1003E2D2 EQ PUSH2 0x38 JUMPI DUP1 PUSH4 0x6D4CE63C EQ PUSH2 0x54 JUMPI JUMPDEST PUSH0 DUP1 REVERT JUMPDEST PUSH2 0x52 PUSH1 0x4 DUP1 CALLDATASIZE SUB DUP2 ADD SWAP1 PUSH2 0x4D SWAP2 SWAP1 PUSH2 0xCB JUMP JUMPDEST PUSH2 0x72 JUMP JUMPDEST STOP JUMPDEST PUSH2 0x5C PUSH2 0x8C JUMP JUMPDEST PUSH1 0x40 MLOAD PUSH2 0x69 SWAP2 SWAP1 PUSH2 0x105 JUMP JUMPDEST PUSH1 0x40 MLOAD DUP1 SWAP2 SUB SWAP1 RETURN JUMPDEST DUP1 PUSH0 DUP1 DUP3 DUP3 SLOAD PUSH2 0x82 SWAP2 SWAP1 PUSH2 0x14B JUMP JUMPDEST SWAP3 POP POP DUP2 SWAP1 SSTORE POP POP JUMP JUMPDEST PUSH0 DUP1 SLOAD SWAP1 POP SWAP1 JUMP JUMPDEST PUSH0 DUP1 REVERT JUMPDEST PUSH0 DUP2 SWAP1 POP SWAP2 SWAP1 POP JUMP JUMPDEST PUSH2 0xAA DUP2 PUSH2 0x98 JUMP JUMPDEST DUP2 EQ PUSH2 0xB4 JUMPI PUSH0 DUP1 REVERT JUMPDEST POP JUMP JUMPDEST PUSH0 DUP2 CALLDATALOAD SWAP1 POP PUSH2 0xC5 DUP2 PUSH2 0xA1 JUMP JUMPDEST SWAP3 SWAP2 POP POP JUMP JUMPDEST PUSH0 PUSH1 0x20 DUP3 DUP5 SUB SLT ISZERO PUSH2 0xE0 JUMPI PUSH2 0xDF PUSH2 0x94 JUMP JUMPDEST JUMPDEST PUSH0 PUSH2 0xED DUP5 DUP3 DUP6 ADD PUSH2 0xB7 JUMP JUMPDEST SWAP2 POP POP SWAP3 SWAP2 POP POP JUMP JUMPDEST PUSH2 0xFF DUP2 PUSH2 0x98 JUMP JUMPDEST DUP3 MSTORE POP POP JUMP JUMPDEST PUSH0 PUSH1 0x20 DUP3 ADD SWAP1 POP PUSH2 0x118 PUSH0 DUP4 ADD DUP5 PUSH2 0xF6 JUMP JUMPDEST SWAP3 SWAP2 POP POP JUMP JUMPDEST PUSH32 0x4E487B7100000000000000000000000000000000000000000000000000000000 PUSH0 MSTORE PUSH1 0x11 PUSH1 0x4 MSTORE PUSH1 0x24 PUSH0 REVERT JUMPDEST PUSH0 PUSH2 0x155 DUP3 PUSH2 0x98 JUMP JUMPDEST SWAP2 POP PUSH2 0x160 DUP4 PUSH2 0x98 JUMP JUMPDEST SWAP3 POP DUP3 DUP3 ADD SWAP1 POP DUP1 DUP3 GT ISZERO PUSH2 0x178 JUMPI PUSH2 0x177 PUSH2 0x11E JUMP JUMPDEST JUMPDEST SWAP3 SWAP2 POP POP JUMP INVALID LOG2 PUSH5 0x6970667358 0x22 SLT KECCAK256 SWAP5 PUSH17 0xCF6162544B0FC6A33FB1A217159E66134B AND TLOAD 0xE7 PUSH22 0x9EDBA8C3A41D6C8F2E64736F6C634300081A00330000 "
	},
	"abi": [
		{
			"inputs": [
				{
					"internalType": "uint256",
					"name": "amount",
					"type": "uint256"
				}
			],
			"name": "add",
			"outputs": [],
			"stateMutability": "nonpayable",
			"type": "function"
		},
		{
			"inputs": [],
			"name": "get",
			"outputs": [
				{
					"internalType": "uint256",
					"name": "",
					"type": "uint256"
				}
			],
			"stateMutability": "view",
			"type": "function"
		}
	],
	"storageLayout": {
		"storage": [
			{
				"astId": 3,
				"contract": "contracts/1_Storage.sol:Storage",
				"label": "counter",
				"offset": 0,
				"slot": "0",
				"type": "t_uint256"
			}
		],
		"types": {
			"t_uint256": {
				"encoding": "inplace",
				"label": "uint256",
				"numberOfBytes": "32"
			}
		}
	},
	"web3Deploy": "var storageContract = new web3.eth.Contract([{\"inputs\":[{\"internalType\":\"uint256\",\"name\":\"amount\",\"type\":\"uint256\"}],\"name\":\"add\",\"outputs\":[],\"stateMutability\":\"nonpayable\",\"type\":\"function\"},{\"inputs\":[],\"name\":\"get\",\"outputs\":[{\"internalType\":\"uint256\",\"name\":\"\",\"type\":\"uint256\"}],\"stateMutability\":\"view\",\"type\":\"function\"}]);\nvar storage = storageContract.deploy({\n     data: '0x6080604052348015600e575f80fd5b506101b48061001c5f395ff3fe608060405234801561000f575f80fd5b5060043610610034575f3560e01c80631003e2d2146100385780636d4ce63c14610054575b5f80fd5b610052600480360381019061004d91906100cb565b610072565b005b61005c61008c565b6040516100699190610105565b60405180910390f35b805f80828254610082919061014b565b9250508190555050565b5f8054905090565b5f80fd5b5f819050919050565b6100aa81610098565b81146100b4575f80fd5b50565b5f813590506100c5816100a1565b92915050565b5f602082840312156100e0576100df610094565b5b5f6100ed848285016100b7565b91505092915050565b6100ff81610098565b82525050565b5f6020820190506101185f8301846100f6565b92915050565b7f4e487b71000000000000000000000000000000000000000000000000000000005f52601160045260245ffd5b5f61015582610098565b915061016083610098565b92508282019050808211156101785761017761011e565b5b9291505056fea26469706673582212209470cf6162544b0fc6a33fb1a217159e66134b165ce7759edba8c3a41d6c8f2e64736f6c634300081a0033', \n     arguments: [\n     ]\n}).send({\n     from: web3.eth.accounts[0], \n     gas: '4700000'\n   }, function (e, contract){\n    console.log(e, contract);\n    if (typeof contract.address !== 'undefined') {\n         console.log('Contract mined! address: ' + contract.address + ' transactionHash: ' + contract.transactionHash);\n    }\n })",
	"functionHashes": {
		"1003e2d2": "add(uint256)",
		"6d4ce63c": "get()"
	},
	"gasEstimates": {
		"Creation": {
			"codeDepositCost": "87200",
			"executionCost": "133",
			"totalCost": "87333"
		},
		"External": {
			"add(uint256)": "infinite",
			"get()": "2432"
		}
	},
	"devdoc": {
		"kind": "dev",
		"methods": {},
		"version": 1
	},
	"userdoc": {
		"kind": "user",
		"methods": {},
		"version": 1
	},
	"Runtime Bytecode": {
		"immutableReferences": {},
		"linkReferences": {},
		"object": "608060405234801561000f575f80fd5b5060043610610034575f3560e01c80631003e2d2146100385780636d4ce63c14610054575b5f80fd5b610052600480360381019061004d91906100cb565b610072565b005b61005c61008c565b6040516100699190610105565b60405180910390f35b805f80828254610082919061014b565b9250508190555050565b5f8054905090565b5f80fd5b5f819050919050565b6100aa81610098565b81146100b4575f80fd5b50565b5f813590506100c5816100a1565b92915050565b5f602082840312156100e0576100df610094565b5b5f6100ed848285016100b7565b91505092915050565b6100ff81610098565b82525050565b5f6020820190506101185f8301846100f6565b92915050565b7f4e487b71000000000000000000000000000000000000000000000000000000005f52601160045260245ffd5b5f61015582610098565b915061016083610098565b92508282019050808211156101785761017761011e565b5b9291505056fea26469706673582212209470cf6162544b0fc6a33fb1a217159e66134b165ce7759edba8c3a41d6c8f2e64736f6c634300081a0033",
		"opcodes": "PUSH1 0x80 PUSH1 0x40 MSTORE CALLVALUE DUP1 ISZERO PUSH2 0xF JUMPI PUSH0 DUP1 REVERT JUMPDEST POP PUSH1 0x4 CALLDATASIZE LT PUSH2 0x34 JUMPI PUSH0 CALLDATALOAD PUSH1 0xE0 SHR DUP1 PUSH4 0x1003E2D2 EQ PUSH2 0x38 JUMPI DUP1 PUSH4 0x6D4CE63C EQ PUSH2 0x54 JUMPI JUMPDEST PUSH0 DUP1 REVERT JUMPDEST PUSH2 0x52 PUSH1 0x4 DUP1 CALLDATASIZE SUB DUP2 ADD SWAP1 PUSH2 0x4D SWAP2 SWAP1 PUSH2 0xCB JUMP JUMPDEST PUSH2 0x72 JUMP JUMPDEST STOP JUMPDEST PUSH2 0x5C PUSH2 0x8C JUMP JUMPDEST PUSH1 0x40 MLOAD PUSH2 0x69 SWAP2 SWAP1 PUSH2 0x105 JUMP JUMPDEST PUSH1 0x40 MLOAD DUP1 SWAP2 SUB SWAP1 RETURN JUMPDEST DUP1 PUSH0 DUP1 DUP3 DUP3 SLOAD PUSH2 0x82 SWAP2 SWAP1 PUSH2 0x14B JUMP JUMPDEST SWAP3 POP POP DUP2 SWAP1 SSTORE POP POP JUMP JUMPDEST PUSH0 DUP1 SLOAD SWAP1 POP SWAP1 JUMP JUMPDEST PUSH0 DUP1 REVERT JUMPDEST PUSH0 DUP2 SWAP1 POP SWAP2 SWAP1 POP JUMP JUMPDEST PUSH2 0xAA DUP2 PUSH2 0x98 JUMP JUMPDEST DUP2 EQ PUSH2 0xB4 JUMPI PUSH0 DUP1 REVERT JUMPDEST POP JUMP JUMPDEST PUSH0 DUP2 CALLDATALOAD SWAP1 POP PUSH2 0xC5 DUP2 PUSH2 0xA1 JUMP JUMPDEST SWAP3 SWAP2 POP POP JUMP JUMPDEST PUSH0 PUSH1 0x20 DUP3 DUP5 SUB SLT ISZERO PUSH2 0xE0 JUMPI PUSH2 0xDF PUSH2 0x94 JUMP JUMPDEST JUMPDEST PUSH0 PUSH2 0xED DUP5 DUP3 DUP6 ADD PUSH2 0xB7 JUMP JUMPDEST SWAP2 POP POP SWAP3 SWAP2 POP POP JUMP JUMPDEST PUSH2 0xFF DUP2 PUSH2 0x98 JUMP JUMPDEST DUP3 MSTORE POP POP JUMP JUMPDEST PUSH0 PUSH1 0x20 DUP3 ADD SWAP1 POP PUSH2 0x118 PUSH0 DUP4 ADD DUP5 PUSH2 0xF6 JUMP JUMPDEST SWAP3 SWAP2 POP POP JUMP JUMPDEST PUSH32 0x4E487B7100000000000000000000000000000000000000000000000000000000 PUSH0 MSTORE PUSH1 0x11 PUSH1 0x4 MSTORE PUSH1 0x24 PUSH0 REVERT JUMPDEST PUSH0 PUSH2 0x155 DUP3 PUSH2 0x98 JUMP JUMPDEST SWAP2 POP PUSH2 0x160 DUP4 PUSH2 0x98 JUMP JUMPDEST SWAP3 POP DUP3 DUP3 ADD SWAP1 POP DUP1 DUP3 GT ISZERO PUSH2 0x178 JUMPI PUSH2 0x177 PUSH2 0x11E JUMP JUMPDEST JUMPDEST SWAP3 SWAP2 POP POP JUMP INVALID LOG2 PUSH5 0x6970667358 0x22 SLT KECCAK256 SWAP5 PUSH17 0xCF6162544B0FC6A33FB1A217159E66134B AND TLOAD 0xE7 PUSH22 0x9EDBA8C3A41D6C8F2E64736F6C634300081A00330000 "
	},
	"Assembly": ".code\n  PUSH 80\t\t\tcontract Storage {\\n    uint25...\n  PUSH 40\t\t\tcontract Storage {\\n    uint25...\n  MSTORE \t\t\tcontract Storage {\\n    uint25...\n  CALLVALUE \t\t\tcontract Storage {\\n    uint25...\n  DUP1 \t\t\tcontract Storage {\\n    uint25...\n  ISZERO \t\t\tcontract Storage {\\n    uint25...\n  PUSH [tag] 1\t\t\tcontract Storage {\\n    uint25...\n  JUMPI \t\t\tcontract Storage {\\n    uint25...\n  PUSH 0\t\t\tcontract Storage {\\n    uint25...\n  DUP1 \t\t\tcontract Storage {\\n    uint25...\n  REVERT \t\t\tcontract Storage {\\n    uint25...\ntag 1\t\t\tcontract Storage {\\n    uint25...\n  JUMPDEST \t\t\tcontract Storage {\\n    uint25...\n  POP \t\t\tcontract Storage {\\n    uint25...\n  PUSH #[$] 0000000000000000000000000000000000000000000000000000000000000000\t\t\tcontract Storage {\\n    uint25...\n  DUP1 \t\t\tcontract Storage {\\n    uint25...\n  PUSH [$] 0000000000000000000000000000000000000000000000000000000000000000\t\t\tcontract Storage {\\n    uint25...\n  PUSH 0\t\t\tcontract Storage {\\n    uint25...\n  CODECOPY \t\t\tcontract Storage {\\n    uint25...\n  PUSH 0\t\t\tcontract Storage {\\n    uint25...\n  RETURN \t\t\tcontract Storage {\\n    uint25...\n.data\n  0:\n    .code\n      PUSH 80\t\t\tcontract Storage {\\n    uint25...\n      PUSH 40\t\t\tcontract Storage {\\n    uint25...\n      MSTORE \t\t\tcontract Storage {\\n    uint25...\n      CALLVALUE \t\t\tcontract Storage {\\n    uint25...\n      DUP1 \t\t\tcontract Storage {\\n    uint25...\n      ISZERO \t\t\tcontract Storage {\\n    uint25...\n      PUSH [tag] 1\t\t\tcontract Storage {\\n    uint25...\n      JUMPI \t\t\tcontract Storage {\\n    uint25...\n      PUSH 0\t\t\tcontract Storage {\\n    uint25...\n      DUP1 \t\t\tcontract Storage {\\n    uint25...\n      REVERT \t\t\tcontract Storage {\\n    uint25...\n    tag 1\t\t\tcontract Storage {\\n    uint25...\n      JUMPDEST \t\t\tcontract Storage {\\n    uint25...\n      POP \t\t\tcontract Storage {\\n    uint25...\n      PUSH 4\t\t\tcontract Storage {\\n    uint25...\n      CALLDATASIZE \t\t\tcontract Storage {\\n    uint25...\n      LT \t\t\tcontract Storage {\\n    uint25...\n      PUSH [tag] 2\t\t\tcontract Storage {\\n    uint25...\n      JUMPI \t\t\tcontract Storage {\\n    uint25...\n      PUSH 0\t\t\tcontract Storage {\\n    uint25...\n      CALLDATALOAD \t\t\tcontract Storage {\\n    uint25...\n      PUSH E0\t\t\tcontract Storage {\\n    uint25...\n      SHR \t\t\tcontract Storage {\\n    uint25...\n      DUP1 \t\t\tcontract Storage {\\n    uint25...\n      PUSH 1003E2D2\t\t\tcontract Storage {\\n    uint25...\n      EQ \t\t\tcontract Storage {\\n    uint25...\n      PUSH [tag] 3\t\t\tcontract Storage {\\n    uint25...\n      JUMPI \t\t\tcontract Storage {\\n    uint25...\n      DUP1 \t\t\tcontract Storage {\\n    uint25...\n      PUSH 6D4CE63C\t\t\tcontract Storage {\\n    uint25...\n      EQ \t\t\tcontract Storage {\\n    uint25...\n      PUSH [tag] 4\t\t\tcontract Storage {\\n    uint25...\n      JUMPI \t\t\tcontract Storage {\\n    uint25...\n    tag 2\t\t\tcontract Storage {\\n    uint25...\n      JUMPDEST \t\t\tcontract Storage {\\n    uint25...\n      PUSH 0\t\t\tcontract Storage {\\n    uint25...\n      DUP1 \t\t\tcontract Storage {\\n    uint25...\n      REVERT \t\t\tcontract Storage {\\n    uint25...\n    tag 3\t\t\tfunction add(uint256 amount) p...\n      JUMPDEST \t\t\tfunction add(uint256 amount) p...\n      PUSH [tag] 5\t\t\tfunction add(uint256 amount) p...\n      PUSH 4\t\t\tfunction add(uint256 amount) p...\n      DUP1 \t\t\tfunction add(uint256 amount) p...\n      CALLDATASIZE \t\t\tfunction add(uint256 amount) p...\n      SUB \t\t\tfunction add(uint256 amount) p...\n      DUP2 \t\t\tfunction add(uint256 amount) p...\n      ADD \t\t\tfunction add(uint256 amount) p...\n      SWAP1 \t\t\tfunction add(uint256 amount) p...\n      PUSH [tag] 6\t\t\tfunction add(uint256 amount) p...\n      SWAP2 \t\t\tfunction add(uint256 amount) p...\n      SWAP1 \t\t\tfunction add(uint256 amount) p...\n      PUSH [tag] 7\t\t\tfunction add(uint256 amount) p...\n      JUMP \t\t\tfunction add(uint256 amount) p...\n    tag 6\t\t\tfunction add(uint256 amount) p...\n      JUMPDEST \t\t\tfunction add(uint256 amount) p...\n      PUSH [tag] 8\t\t\tfunction add(uint256 amount) p...\n      JUMP \t\t\tfunction add(uint256 amount) p...\n    tag 5\t\t\tfunction add(uint256 amount) p...\n      JUMPDEST \t\t\tfunction add(uint256 amount) p...\n      STOP \t\t\tfunction add(uint256 amount) p...\n    tag 4\t\t\tfunction get() public view ret...\n      JUMPDEST \t\t\tfunction get() public view ret...\n      PUSH [tag] 9\t\t\tfunction get() public view ret...\n      PUSH [tag] 10\t\t\tfunction get() public view ret...\n      JUMP \t\t\tfunction get() public view ret...\n    tag 9\t\t\tfunction get() public view ret...\n      JUMPDEST \t\t\tfunction get() public view ret...\n      PUSH 40\t\t\tfunction get() public view ret...\n      MLOAD \t\t\tfunction get() public view ret...\n      PUSH [tag] 11\t\t\tfunction get() public view ret...\n      SWAP2 \t\t\tfunction get() public view ret...\n      SWAP1 \t\t\tfunction get() public view ret...\n      PUSH [tag] 12\t\t\tfunction get() public view ret...\n      JUMP \t\t\tfunction get() public view ret...\n    tag 11\t\t\tfunction get() public view ret...\n      JUMPDEST \t\t\tfunction get() public view ret...\n      PUSH 40\t\t\tfunction get() public view ret...\n      MLOAD \t\t\tfunction get() public view ret...\n      DUP1 \t\t\tfunction get() public view ret...\n      SWAP2 \t\t\tfunction get() public view ret...\n      SUB \t\t\tfunction get() public view ret...\n      SWAP1 \t\t\tfunction get() public view ret...\n      RETURN \t\t\tfunction get() public view ret...\n    tag 8\t\t\tfunction add(uint256 amount) p...\n      JUMPDEST \t\t\tfunction add(uint256 amount) p...\n      DUP1 \t\t\tamount\n      PUSH 0\t\t\tcounter\n      DUP1 \t\t\tcounter\n      DUP3 \t\t\tcounter += amount\n      DUP3 \t\t\tcounter += amount\n      SLOAD \t\t\tcounter += amount\n      PUSH [tag] 14\t\t\tcounter += amount\n      SWAP2 \t\t\tcounter += amount\n      SWAP1 \t\t\tcounter += amount\n      PUSH [tag] 15\t\t\tcounter += amount\n      JUMP \t\t\tcounter += amount\n    tag 14\t\t\tcounter += amount\n      JUMPDEST \t\t\tcounter += amount\n      SWAP3 \t\t\tcounter += amount\n      POP \t\t\tcounter += amount\n      POP \t\t\tcounter += amount\n      DUP2 \t\t\tcounter += amount\n      SWAP1 \t\t\tcounter += amount\n      SSTORE \t\t\tcounter += amount\n      POP \t\t\tcounter += amount\n      POP \t\t\tfunction add(uint256 amount) p...\n      JUMP \t\t\tfunction add(uint256 amount) p...\n    tag 10\t\t\tfunction get() public view ret...\n      JUMPDEST \t\t\tfunction get() public view ret...\n      PUSH 0\t\t\tuint256\n      DUP1 \t\t\tcounter\n      SLOAD \t\t\tcounter\n      SWAP1 \t\t\treturn counter\n      POP \t\t\treturn counter\n      SWAP1 \t\t\tfunction get() public view ret...\n      JUMP \t\t\tfunction get() public view ret...\n    tag 18\t\t\tuint256 counter;\\n\\n    functi...\n      JUMPDEST \t\t\tuint256 counter;\\n\\n    functi...\n      PUSH 0\t\t\tt\n      DUP1 \t\t\t \n      REVERT \t\t\tunction get(\n    tag 20\t\t\t\n      JUMPDEST \t\t\t\n      PUSH 0\t\t\t\n      DUP2 \t\t\t\n      SWAP1 \t\t\t\n      POP \t\t\t\n      SWAP2 \t\t\t\n      SWAP1 \t\t\t\n      POP \t\t\t\n      JUMP \t\t\t\n    tag 21\t\t\t\n      JUMPDEST \t\t\t\n      PUSH [tag] 31\t\t\t\n      DUP2 \t\t\t\n      PUSH [tag] 20\t\t\t\n      JUMP \t\t\t\n    tag 31\t\t\t\n      JUMPDEST \t\t\t\n      DUP2 \t\t\t\n      EQ \t\t\t\n      PUSH [tag] 32\t\t\t\n      JUMPI \t\t\t\n      PUSH 0\t\t\t\n      DUP1 \t\t\t\n      REVERT \t\t\t\n    tag 32\t\t\t\n      JUMPDEST \t\t\t\n      POP \t\t\t\n      JUMP \t\t\t\n    tag 22\t\t\t\n      JUMPDEST \t\t\t\n      PUSH 0\t\t\t\n      DUP2 \t\t\t\n      CALLDATALOAD \t\t\t\n      SWAP1 \t\t\t\n      POP \t\t\t\n      PUSH [tag] 34\t\t\t\n      DUP2 \t\t\t\n      PUSH [tag] 21\t\t\t\n      JUMP \t\t\t\n    tag 34\t\t\t\n      JUMPDEST \t\t\t\n      SWAP3 \t\t\t\n      SWAP2 \t\t\t\n      POP \t\t\t\n      POP \t\t\t\n      JUMP \t\t\t\n    tag 7\t\t\t\n      JUMPDEST \t\t\t\n      PUSH 0\t\t\t\n      PUSH 20\t\t\t\n      DUP3 \t\t\t\n      DUP5 \t\t\t\n      SUB \t\t\t\n      SLT \t\t\t\n      ISZERO \t\t\t\n      PUSH [tag] 36\t\t\t\n      JUMPI \t\t\t\n      PUSH [tag] 37\t\t\t\n      PUSH [tag] 18\t\t\t\n      JUMP \t\t\t\n    tag 37\t\t\t\n      JUMPDEST \t\t\t\n    tag 36\t\t\t\n      JUMPDEST \t\t\t\n      PUSH 0\t\t\t\n      PUSH [tag] 38\t\t\t\n      DUP5 \t\t\t\n      DUP3 \t\t\t\n      DUP6 \t\t\t\n      ADD \t\t\t\n      PUSH [tag] 22\t\t\t\n      JUMP \t\t\t\n    tag 38\t\t\t\n      JUMPDEST \t\t\t\n      SWAP2 \t\t\t\n      POP \t\t\t\n      POP \t\t\t\n      SWAP3 \t\t\t\n      SWAP2 \t\t\t\n      POP \t\t\t\n      POP \t\t\t\n      JUMP \t\t\t\n    tag 23\t\t\t\n      JUMPDEST \t\t\t\n      PUSH [tag] 40\t\t\t\n      DUP2 \t\t\t\n      PUSH [tag] 20\t\t\t\n      JUMP \t\t\t\n    tag 40\t\t\t\n      JUMPDEST \t\t\t\n      DUP3 \t\t\t\n      MSTORE \t\t\t\n      POP \t\t\t\n      POP \t\t\t\n      JUMP \t\t\t\n    tag 12\t\t\t\n      JUMPDEST \t\t\t\n      PUSH 0\t\t\t\n      PUSH 20\t\t\t\n      DUP3 \t\t\t\n      ADD \t\t\t\n      SWAP1 \t\t\t\n      POP \t\t\t\n      PUSH [tag] 42\t\t\t\n      PUSH 0\t\t\t\n      DUP4 \t\t\t\n      ADD \t\t\t\n      DUP5 \t\t\t\n      PUSH [tag] 23\t\t\t\n      JUMP \t\t\t\n    tag 42\t\t\t\n      JUMPDEST \t\t\t\n      SWAP3 \t\t\t\n      SWAP2 \t\t\t\n      POP \t\t\t\n      POP \t\t\t\n      JUMP \t\t\t\n    tag 24\t\t\t\n      JUMPDEST \t\t\t\n      PUSH 4E487B7100000000000000000000000000000000000000000000000000000000\t\t\t\n      PUSH 0\t\t\t\n      MSTORE \t\t\t\n      PUSH 11\t\t\t\n      PUSH 4\t\t\t\n      MSTORE \t\t\t\n      PUSH 24\t\t\t\n      PUSH 0\t\t\t\n      REVERT \t\t\t\n    tag 15\t\t\t\n      JUMPDEST \t\t\t\n      PUSH 0\t\t\t\n      PUSH [tag] 45\t\t\t\n      DUP3 \t\t\t\n      PUSH [tag] 20\t\t\t\n      JUMP \t\t\t\n    tag 45\t\t\t\n      JUMPDEST \t\t\t\n      SWAP2 \t\t\t\n      POP \t\t\t\n      PUSH [tag] 46\t\t\t\n      DUP4 \t\t\t\n      PUSH [tag] 20\t\t\t\n      JUMP \t\t\t\n    tag 46\t\t\t\n      JUMPDEST \t\t\t\n      SWAP3 \t\t\t\n      POP \t\t\t\n      DUP3 \t\t\t\n      DUP3 \t\t\t\n      ADD \t\t\t\n      SWAP1 \t\t\t\n      POP \t\t\t\n      DUP1 \t\t\t\n      DUP3 \t\t\t\n      GT \t\t\t\n      ISZERO \t\t\t\n      PUSH [tag] 47\t\t\t\n      JUMPI \t\t\t\n      PUSH [tag] 48\t\t\t\n      PUSH [tag] 24\t\t\t\n      JUMP \t\t\t\n    tag 48\t\t\t\n      JUMPDEST \t\t\t\n    tag 47\t\t\t\n      JUMPDEST \t\t\t\n      SWAP3 \t\t\t\n      SWAP2 \t\t\t\n      POP \t\t\t\n      POP \t\t\t\n      JUMP \t\t\t\n    .data\n"
}