{
	"compilerInput": "{\"language\":\"Solidity\",\"sources\":{\"contracts/4_Storage.sol\":{\"content\":\"// SPDX-License-Identifier: GPL-3.0\\n\\npragma solidity >=0.7.0 <0.9.0;\\n\\ncontract SvmSetter {\\n    struct InstructionAccount {\\n        uint32 id_index;       // id_index\\n        uint32 caller_index;   // caller_index\\n        uint32 callee_index;   // callee_index\\n        bool is_signer;        // is_signer\\n        bool is_writable;      // is_writable\\n    }\\n\\n    // Struct for Instruction\\n    struct Instruction {\\n        uint32[] program_index;       \\n        InstructionAccount[] accounts;\\n        bytes data;\\n    }\\n\\n    // Struct for MsgTransaction\\n    struct MsgTransaction {\\n        string[] signers;          // signers (repeated string)\\n        string[] accounts;         // accounts (repeated string)\\n        Instruction[] instructions; // instructions (repeated Instruction)\\n        uint64 compute_budget;      // compute_budget (uint64)\\n    }\\n\\n    string public evmString;\\n\\n    function set(string memory _evmString) public {\\n        evmString = _evmString;\\n    }\\n\\n    // TODO: Temporarily leave the svm fee payer here, we should let contract be a fee payer\\n    function setSvm(string memory svmFeePayer, string memory _svmString) public returns (bytes memory result) {\\n        address svmProxy = address(0xaB6B4d064C968eCa87F775d2493a222987052BC0);\\n        MsgTransaction memory transaction;\\n        transaction.accounts = new string[](4);\\n        transaction.accounts[0] = \\\"83zfZYacFrGq5eBnnp6EQPxapcpjpxdjAKpLavqtSJ32\\\";\\n        transaction.accounts[1] = \\\"22z6H6DeW4ULByQKLERtHjSoDeFiuCii8v3NuLSAf2db\\\";\\n        transaction.accounts[2] = svmFeePayer;\\n        transaction.accounts[3] = \\\"11111111111111111111111111111111\\\";\\n        transaction.compute_budget = 1000000;\\n\\n        // build instruction\\n        Instruction memory instruction;\\n        instruction.program_index = new uint32[](1);\\n        instruction.program_index[0] = 0;\\n        instruction.accounts = new InstructionAccount[](3);\\n        instruction.accounts[0] = InstructionAccount({\\n            id_index: 1,\\n            caller_index: 1,\\n            callee_index: 0,\\n            is_signer: false,\\n            is_writable: true\\n        });\\n        instruction.accounts[1] = InstructionAccount({\\n            id_index: 2,\\n            caller_index: 2,\\n            callee_index: 1,\\n            is_signer: true,\\n            is_writable: true\\n        });\\n        instruction.accounts[2] = InstructionAccount({\\n            id_index: 3,\\n            caller_index: 3,\\n            callee_index: 2,\\n            is_signer: false,\\n            is_writable: false\\n        });\\n        bytes memory discriminator = hex\\\"df725b88c54e9999\\\";\\n        bytes4 stringLen = this.getStringLengthLE(_svmString);\\n        instruction.data = bytes.concat(discriminator, stringLen, bytes(_svmString));\\n        transaction.instructions = new Instruction[](1);\\n        transaction.instructions[0] = instruction;\\n\\n        (bool ok, bytes memory r) = svmProxy.call(abi.encode(transaction));\\n        require(ok, \\\"call must succeed\\\");\\n        return r;\\n    }\\n\\n    function conditionalSetSvm(string memory svmFeePayer) public returns (bytes memory result) {\\n        if (keccak256(bytes(getSvm())) == keccak256(\\\"svm\\\")) {\\n            return setSvm(svmFeePayer, \\\"evm\\\");\\n        } \\n        return setSvm(svmFeePayer, \\\"svm\\\");\\n    }\\n\\n    // substring for `memory` does not natively supported by solidity, use for loop as example now\\n    function parseSvmResponse(bytes memory data) internal pure returns (string memory) {\\n        bytes memory res = new bytes(data.length - 4);\\n        for(uint256 i = 4; i<data.length; i++) {\\n            res[i-4] = data[i];\\n        }\\n\\n        return string(res);\\n    }\\n\\n    function getSvm() public view returns (string memory) {\\n        address svmProxy = address(0xaB6B4d064C968eCa87F775d2493a222987052BC0);\\n        MsgTransaction memory transaction;\\n        transaction.accounts = new string[](2);\\n        transaction.accounts[0] = \\\"83zfZYacFrGq5eBnnp6EQPxapcpjpxdjAKpLavqtSJ32\\\";\\n        transaction.accounts[1] = \\\"22z6H6DeW4ULByQKLERtHjSoDeFiuCii8v3NuLSAf2db\\\";\\n        transaction.compute_budget = 1000000;\\n         Instruction memory instruction;\\n        instruction.program_index = new uint32[](1);\\n        instruction.program_index[0] = 0;\\n        instruction.accounts = new InstructionAccount[](1);\\n        instruction.accounts[0] = InstructionAccount({\\n            id_index: 1,\\n            caller_index: 1,\\n            callee_index: 0,\\n            is_signer: false,\\n            is_writable: false\\n        });\\n        bytes memory discriminator = hex\\\"dc8bfd5f8098939f\\\";\\n        instruction.data = discriminator;\\n        transaction.instructions = new Instruction[](1);\\n        transaction.instructions[0] = instruction;\\n        (bool ok, bytes memory r) = svmProxy.staticcall(abi.encode(transaction));\\n        require(ok, \\\"call must succeed\\\");\\n\\n        \\n        return parseSvmResponse(r);\\n    }\\n\\n    function getStringLengthLE(string memory str) public pure returns (bytes4) {\\n        uint256 len = bytes(str).length;\\n        return toLittleEndian(len);\\n    }\\n\\n    function toLittleEndian(uint256 value) public pure returns (bytes4 result) {\\n        // Extract last 4 bytes\\n        bytes32 last4 = bytes32(value);\\n        // Reverse the bytes\\n        return bytes4(\\n            (uint32(uint8(last4[31])) << 24) |\\n            (uint32(uint8(last4[30])) << 16) |\\n            (uint32(uint8(last4[29])) << 8) |\\n            (uint32(uint8(last4[28])))\\n        );\\n    }\\n}\\n\"}},\"settings\":{\"optimizer\":{\"enabled\":false,\"runs\":200},\"outputSelection\":{\"*\":{\"\":[\"ast\"],\"*\":[\"abi\",\"metadata\",\"devdoc\",\"userdoc\",\"storageLayout\",\"evm.legacyAssembly\",\"evm.bytecode\",\"evm.deployedBytecode\",\"evm.methodIdentifiers\",\"evm.gasEstimates\",\"evm.assembly\"]}},\"remappings\":[]}}",
	"name": "SvmSetter",
	"bytecode": {
		"linkReferences": {},
		"object": "6080604052348015600e575f80fd5b50611d008061001c5f395ff3fe608060405234801561000f575f80fd5b506004361061007b575f3560e01c80636b3d63de116100595780636b3d63de146100e9578063ac97779314610107578063c732d64f14610137578063db21155e146101675761007b565b80632642a1291461007f5780633163d265146100af5780634ed3885e146100cd575b5f80fd5b6100996004803603810190610094919061105c565b610197565b6040516100a69190611132565b60405180910390f35b6100b7610771565b6040516100c491906111a4565b60405180910390f35b6100e760048036038101906100e291906111c4565b6107fc565b005b6100f161080e565b6040516100fe91906111a4565b60405180910390f35b610121600480360381019061011c91906111c4565b610c07565b60405161012e9190611245565b60405180910390f35b610151600480360381019061014c9190611291565b610c1e565b60405161015e9190611245565b60405180910390f35b610181600480360381019061017c91906111c4565b610cc9565b60405161018e9190611132565b60405180910390f35b60605f73ab6b4d064c968eca87f775d2493a222987052bc090506101b9610e7d565b600467ffffffffffffffff8111156101d4576101d3610f38565b5b60405190808252806020026020018201604052801561020757816020015b60608152602001906001900390816101f25790505b5081602001819052506040518060600160405280602c8152602001611c73602c913981602001515f815181106102405761023f6112bc565b5b60200260200101819052506040518060600160405280602c8152602001611c9f602c9139816020015160018151811061027c5761027b6112bc565b5b60200260200101819052508481602001516002815181106102a05761029f6112bc565b5b60200260200101819052506040518060400160405280602081526020017f313131313131313131313131313131313131313131313131313131313131313181525081602001516003815181106102f9576102f86112bc565b5b6020026020010181905250620f4240816060019067ffffffffffffffff16908167ffffffffffffffff168152505061032f610eae565b600167ffffffffffffffff81111561034a57610349610f38565b5b6040519080825280602002602001820160405280156103785781602001602082028036833780820191505090505b50815f01819052505f815f01515f81518110610397576103966112bc565b5b602002602001019063ffffffff16908163ffffffff1681525050600367ffffffffffffffff8111156103cc576103cb610f38565b5b60405190808252806020026020018201604052801561040557816020015b6103f2610ecf565b8152602001906001900390816103ea5790505b5081602001819052506040518060a00160405280600163ffffffff168152602001600163ffffffff1681526020015f63ffffffff1681526020015f151581526020016001151581525081602001515f81518110610465576104646112bc565b5b60200260200101819052506040518060a00160405280600263ffffffff168152602001600263ffffffff168152602001600163ffffffff1681526020016001151581526020016001151581525081602001516001815181106104ca576104c96112bc565b5b60200260200101819052506040518060a00160405280600363ffffffff168152602001600363ffffffff168152602001600263ffffffff1681526020015f151581526020015f1515815250816020015160028151811061052d5761052c6112bc565b5b60200260200101819052505f6040518060400160405280600881526020017fdf725b88c54e999900000000000000000000000000000000000000000000000081525090505f3073ffffffffffffffffffffffffffffffffffffffff1663ac977793886040518263ffffffff1660e01b81526004016105ab91906111a4565b602060405180830381865afa1580156105c6573d5f803e3d5ffd5b505050506040513d601f19601f820116820180604052508101906105ea9190611313565b905081818860405160200161060193929190611398565b6040516020818303038152906040528360400181905250600167ffffffffffffffff81111561063357610632610f38565b5b60405190808252806020026020018201604052801561066c57816020015b610659610eae565b8152602001906001900390816106515790505b5084604001819052508284604001515f8151811061068d5761068c6112bc565b5b60200260200101819052505f808673ffffffffffffffffffffffffffffffffffffffff16866040516020016106c291906118ab565b6040516020818303038152906040526040516106de91906118cb565b5f604051808303815f865af19150503d805f8114610717576040519150601f19603f3d011682016040523d82523d5f602084013e61071c565b606091505b509150915081610761576040517f08c379a00000000000000000000000000000000000000000000000000000000081526004016107589061192b565b60405180910390fd5b8097505050505050505092915050565b5f805461077d90611976565b80601f01602080910402602001604051908101604052809291908181526020018280546107a990611976565b80156107f45780601f106107cb576101008083540402835291602001916107f4565b820191905f5260205f20905b8154815290600101906020018083116107d757829003601f168201915b505050505081565b805f908161080a9190611b43565b5050565b60605f73ab6b4d064c968eca87f775d2493a222987052bc09050610830610e7d565b600267ffffffffffffffff81111561084b5761084a610f38565b5b60405190808252806020026020018201604052801561087e57816020015b60608152602001906001900390816108695790505b5081602001819052506040518060600160405280602c8152602001611c73602c913981602001515f815181106108b7576108b66112bc565b5b60200260200101819052506040518060600160405280602c8152602001611c9f602c913981602001516001815181106108f3576108f26112bc565b5b6020026020010181905250620f4240816060019067ffffffffffffffff16908167ffffffffffffffff1681525050610929610eae565b600167ffffffffffffffff81111561094457610943610f38565b5b6040519080825280602002602001820160405280156109725781602001602082028036833780820191505090505b50815f01819052505f815f01515f81518110610991576109906112bc565b5b602002602001019063ffffffff16908163ffffffff1681525050600167ffffffffffffffff8111156109c6576109c5610f38565b5b6040519080825280602002602001820160405280156109ff57816020015b6109ec610ecf565b8152602001906001900390816109e45790505b5081602001819052506040518060a00160405280600163ffffffff168152602001600163ffffffff1681526020015f63ffffffff1681526020015f151581526020015f151581525081602001515f81518110610a5e57610a5d6112bc565b5b60200260200101819052505f6040518060400160405280600881526020017fdc8bfd5f8098939f0000000000000000000000000000000000000000000000008152509050808260400181905250600167ffffffffffffffff811115610ac657610ac5610f38565b5b604051908082528060200260200182016040528015610aff57816020015b610aec610eae565b815260200190600190039081610ae45790505b5083604001819052508183604001515f81518110610b2057610b1f6112bc565b5b60200260200101819052505f808573ffffffffffffffffffffffffffffffffffffffff1685604051602001610b5591906118ab565b604051602081830303815290604052604051610b7191906118cb565b5f60405180830381855afa9150503d805f8114610ba9576040519150601f19603f3d011682016040523d82523d5f602084013e610bae565b606091505b509150915081610bf3576040517f08c379a0000000000000000000000000000000000000000000000000000000008152600401610bea9061192b565b60405180910390fd5b610bfc81610d8d565b965050505050505090565b5f8082519050610c1681610c1e565b915050919050565b5f80825f1b905080601c60208110610c3957610c386112bc565b5b1a60f81b60f81c60ff16600882601d60208110610c5957610c586112bc565b5b1a60f81b60f81c60ff1663ffffffff16901b601083601e60208110610c8157610c806112bc565b5b1a60f81b60f81c60ff1663ffffffff16901b601884601f60208110610ca957610ca86112bc565b5b1a60f81b60f81c60ff1663ffffffff16901b17171760e01b915050919050565b60607ff8251662139e6d88d3b6f2a5aa0f6fa9f87ec5bbe2e7f41da6c2ee0f71e0ebbc610cf461080e565b8051906020012003610d4657610d3f826040518060400160405280600381526020017f65766d0000000000000000000000000000000000000000000000000000000000815250610197565b9050610d88565b610d85826040518060400160405280600381526020017f73766d0000000000000000000000000000000000000000000000000000000000815250610197565b90505b919050565b60605f60048351610d9e9190611c3f565b67ffffffffffffffff811115610db757610db6610f38565b5b6040519080825280601f01601f191660200182016040528015610de95781602001600182028036833780820191505090505b5090505f600490505b8351811015610e7357838181518110610e0e57610e0d6112bc565b5b602001015160f81c60f81b82600483610e279190611c3f565b81518110610e3857610e376112bc565b5b60200101907effffffffffffffffffffffffffffffffffffffffffffffffffffffffffffff191690815f1a9053508080600101915050610df2565b5080915050919050565b60405180608001604052806060815260200160608152602001606081526020015f67ffffffffffffffff1681525090565b60405180606001604052806060815260200160608152602001606081525090565b6040518060a001604052805f63ffffffff1681526020015f63ffffffff1681526020015f63ffffffff1681526020015f151581526020015f151581525090565b5f604051905090565b5f80fd5b5f80fd5b5f80fd5b5f80fd5b5f601f19601f8301169050919050565b7f4e487b71000000000000000000000000000000000000000000000000000000005f52604160045260245ffd5b610f6e82610f28565b810181811067ffffffffffffffff82111715610f8d57610f8c610f38565b5b80604052505050565b5f610f9f610f0f565b9050610fab8282610f65565b919050565b5f67ffffffffffffffff821115610fca57610fc9610f38565b5b610fd382610f28565b9050602081019050919050565b828183375f83830152505050565b5f611000610ffb84610fb0565b610f96565b90508281526020810184848401111561101c5761101b610f24565b5b611027848285610fe0565b509392505050565b5f82601f83011261104357611042610f20565b5b8135611053848260208601610fee565b91505092915050565b5f806040838503121561107257611071610f18565b5b5f83013567ffffffffffffffff81111561108f5761108e610f1c565b5b61109b8582860161102f565b925050602083013567ffffffffffffffff8111156110bc576110bb610f1c565b5b6110c88582860161102f565b9150509250929050565b5f81519050919050565b5f82825260208201905092915050565b8281835e5f83830152505050565b5f611104826110d2565b61110e81856110dc565b935061111e8185602086016110ec565b61112781610f28565b840191505092915050565b5f6020820190508181035f83015261114a81846110fa565b905092915050565b5f81519050919050565b5f82825260208201905092915050565b5f61117682611152565b611180818561115c565b93506111908185602086016110ec565b61119981610f28565b840191505092915050565b5f6020820190508181035f8301526111bc818461116c565b905092915050565b5f602082840312156111d9576111d8610f18565b5b5f82013567ffffffffffffffff8111156111f6576111f5610f1c565b5b6112028482850161102f565b91505092915050565b5f7fffffffff0000000000000000000000000000000000000000000000000000000082169050919050565b61123f8161120b565b82525050565b5f6020820190506112585f830184611236565b92915050565b5f819050919050565b6112708161125e565b811461127a575f80fd5b50565b5f8135905061128b81611267565b92915050565b5f602082840312156112a6576112a5610f18565b5b5f6112b38482850161127d565b91505092915050565b7f4e487b71000000000000000000000000000000000000000000000000000000005f52603260045260245ffd5b6112f28161120b565b81146112fc575f80fd5b50565b5f8151905061130d816112e9565b92915050565b5f6020828403121561132857611327610f18565b5b5f611335848285016112ff565b91505092915050565b5f81905092915050565b5f611352826110d2565b61135c818561133e565b935061136c8185602086016110ec565b80840191505092915050565b5f819050919050565b61139261138d8261120b565b611378565b82525050565b5f6113a38286611348565b91506113af8285611381565b6004820191506113bf8284611348565b9150819050949350505050565b5f81519050919050565b5f82825260208201905092915050565b5f819050602082019050919050565b5f82825260208201905092915050565b5f61140f82611152565b61141981856113f5565b93506114298185602086016110ec565b61143281610f28565b840191505092915050565b5f6114488383611405565b905092915050565b5f602082019050919050565b5f611466826113cc565b61147081856113d6565b935083602082028501611482856113e6565b805f5b858110156114bd578484038952815161149e858261143d565b94506114a983611450565b925060208a01995050600181019050611485565b50829750879550505050505092915050565b5f81519050919050565b5f82825260208201905092915050565b5f819050602082019050919050565b5f81519050919050565b5f82825260208201905092915050565b5f819050602082019050919050565b5f63ffffffff82169050919050565b61153981611521565b82525050565b5f61154a8383611530565b60208301905092915050565b5f602082019050919050565b5f61156c826114f8565b6115768185611502565b935061158183611512565b805f5b838110156115b1578151611598888261153f565b97506115a383611556565b925050600181019050611584565b5085935050505092915050565b5f81519050919050565b5f82825260208201905092915050565b5f819050602082019050919050565b5f8115159050919050565b6115fb816115e7565b82525050565b60a082015f8201516116155f850182611530565b5060208201516116286020850182611530565b50604082015161163b6040850182611530565b50606082015161164e60608501826115f2565b50608082015161166160808501826115f2565b50505050565b5f6116728383611601565b60a08301905092915050565b5f602082019050919050565b5f611694826115be565b61169e81856115c8565b93506116a9836115d8565b805f5b838110156116d95781516116c08882611667565b97506116cb8361167e565b9250506001810190506116ac565b5085935050505092915050565b5f82825260208201905092915050565b5f611700826110d2565b61170a81856116e6565b935061171a8185602086016110ec565b61172381610f28565b840191505092915050565b5f606083015f8301518482035f8601526117488282611562565b91505060208301518482036020860152611762828261168a565b9150506040830151848203604086015261177c82826116f6565b9150508091505092915050565b5f611794838361172e565b905092915050565b5f602082019050919050565b5f6117b2826114cf565b6117bc81856114d9565b9350836020820285016117ce856114e9565b805f5b8581101561180957848403895281516117ea8582611789565b94506117f58361179c565b925060208a019950506001810190506117d1565b50829750879550505050505092915050565b5f67ffffffffffffffff82169050919050565b6118378161181b565b82525050565b5f608083015f8301518482035f860152611857828261145c565b91505060208301518482036020860152611871828261145c565b9150506040830151848203604086015261188b82826117a8565b91505060608301516118a0606086018261182e565b508091505092915050565b5f6020820190508181035f8301526118c3818461183d565b905092915050565b5f6118d68284611348565b915081905092915050565b7f63616c6c206d75737420737563636565640000000000000000000000000000005f82015250565b5f61191560118361115c565b9150611920826118e1565b602082019050919050565b5f6020820190508181035f83015261194281611909565b9050919050565b7f4e487b71000000000000000000000000000000000000000000000000000000005f52602260045260245ffd5b5f600282049050600182168061198d57607f821691505b6020821081036119a05761199f611949565b5b50919050565b5f819050815f5260205f209050919050565b5f6020601f8301049050919050565b5f82821b905092915050565b5f60088302611a027fffffffffffffffffffffffffffffffffffffffffffffffffffffffffffffffff826119c7565b611a0c86836119c7565b95508019841693508086168417925050509392505050565b5f819050919050565b5f611a47611a42611a3d8461125e565b611a24565b61125e565b9050919050565b5f819050919050565b611a6083611a2d565b611a74611a6c82611a4e565b8484546119d3565b825550505050565b5f90565b611a88611a7c565b611a93818484611a57565b505050565b5b81811015611ab657611aab5f82611a80565b600181019050611a99565b5050565b601f821115611afb57611acc816119a6565b611ad5846119b8565b81016020851015611ae4578190505b611af8611af0856119b8565b830182611a98565b50505b505050565b5f82821c905092915050565b5f611b1b5f1984600802611b00565b1980831691505092915050565b5f611b338383611b0c565b9150826002028217905092915050565b611b4c82611152565b67ffffffffffffffff811115611b6557611b64610f38565b5b611b6f8254611976565b611b7a828285611aba565b5f60209050601f831160018114611bab575f8415611b99578287015190505b611ba38582611b28565b865550611c0a565b601f198416611bb9866119a6565b5f5b82811015611be057848901518255600182019150602085019450602081019050611bbb565b86831015611bfd5784890151611bf9601f891682611b0c565b8355505b6001600288020188555050505b505050505050565b7f4e487b71000000000000000000000000000000000000000000000000000000005f52601160045260245ffd5b5f611c498261125e565b9150611c548361125e565b9250828203905081811115611c6c57611c6b611c12565b5b9291505056fe38337a665a596163467247713565426e6e703645515078617063706a7078646a414b704c61767174534a333232327a36483644655734554c4279514b4c455274486a536f44654669754369693876334e754c534166326462a26469706673582212203c43659d8edb530bc9bd19e1c3c036162b63ef38659f5759e0cfae3d7dff230164736f6c634300081a0033",
		"opcodes": "PUSH1 0x80 PUSH1 0x40 MSTORE CALLVALUE DUP1 ISZERO PUSH1 0xE JUMPI PUSH0 DUP1 REVERT JUMPDEST POP PUSH2 0x1D00 DUP1 PUSH2 0x1C PUSH0 CODECOPY PUSH0 RETURN INVALID PUSH1 0x80 PUSH1 0x40 MSTORE CALLVALUE DUP1 ISZERO PUSH2 0xF JUMPI PUSH0 DUP1 REVERT JUMPDEST POP PUSH1 0x4 CALLDATASIZE LT PUSH2 0x7B JUMPI PUSH0 CALLDATALOAD PUSH1 0xE0 SHR DUP1 PUSH4 0x6B3D63DE GT PUSH2 0x59 JUMPI DUP1 PUSH4 0x6B3D63DE EQ PUSH2 0xE9 JUMPI DUP1 PUSH4 0xAC977793 EQ PUSH2 0x107 JUMPI DUP1 PUSH4 0xC732D64F EQ PUSH2 0x137 JUMPI DUP1 PUSH4 0xDB21155E EQ PUSH2 0x167 JUMPI PUSH2 0x7B JUMP JUMPDEST DUP1 PUSH4 0x2642A129 EQ PUSH2 0x7F JUMPI DUP1 PUSH4 0x3163D265 EQ PUSH2 0xAF JUMPI DUP1 PUSH4 0x4ED3885E EQ PUSH2 0xCD JUMPI JUMPDEST PUSH0 DUP1 REVERT JUMPDEST PUSH2 0x99 PUSH1 0x4 DUP1 CALLDATASIZE SUB DUP2 ADD SWAP1 PUSH2 0x94 SWAP2 SWAP1 PUSH2 0x105C JUMP JUMPDEST PUSH2 0x197 JUMP JUMPDEST PUSH1 0x40 MLOAD PUSH2 0xA6 SWAP2 SWAP1 PUSH2 0x1132 JUMP JUMPDEST PUSH1 0x40 MLOAD DUP1 SWAP2 SUB SWAP1 RETURN JUMPDEST PUSH2 0xB7 PUSH2 0x771 JUMP JUMPDEST PUSH1 0x40 MLOAD PUSH2 0xC4 SWAP2 SWAP1 PUSH2 0x11A4 JUMP JUMPDEST PUSH1 0x40 MLOAD DUP1 SWAP2 SUB SWAP1 RETURN JUMPDEST PUSH2 0xE7 PUSH1 0x4 DUP1 CALLDATASIZE SUB DUP2 ADD SWAP1 PUSH2 0xE2 SWAP2 SWAP1 PUSH2 0x11C4 JUMP JUMPDEST PUSH2 0x7FC JUMP JUMPDEST STOP JUMPDEST PUSH2 0xF1 PUSH2 0x80E JUMP JUMPDEST PUSH1 0x40 MLOAD PUSH2 0xFE SWAP2 SWAP1 PUSH2 0x11A4 JUMP JUMPDEST PUSH1 0x40 MLOAD DUP1 SWAP2 SUB SWAP1 RETURN JUMPDEST PUSH2 0x121 PUSH1 0x4 DUP1 CALLDATASIZE SUB DUP2 ADD SWAP1 PUSH2 0x11C SWAP2 SWAP1 PUSH2 0x11C4 JUMP JUMPDEST PUSH2 0xC07 JUMP JUMPDEST PUSH1 0x40 MLOAD PUSH2 0x12E SWAP2 SWAP1 PUSH2 0x1245 JUMP JUMPDEST PUSH1 0x40 MLOAD DUP1 SWAP2 SUB SWAP1 RETURN JUMPDEST PUSH2 0x151 PUSH1 0x4 DUP1 CALLDATASIZE SUB DUP2 ADD SWAP1 PUSH2 0x14C SWAP2 SWAP1 PUSH2 0x1291 JUMP JUMPDEST PUSH2 0xC1E JUMP JUMPDEST PUSH1 0x40 MLOAD PUSH2 0x15E SWAP2 SWAP1 PUSH2 0x1245 JUMP JUMPDEST PUSH1 0x40 MLOAD DUP1 SWAP2 SUB SWAP1 RETURN JUMPDEST PUSH2 0x181 PUSH1 0x4 DUP1 CALLDATASIZE SUB DUP2 ADD SWAP1 PUSH2 0x17C SWAP2 SWAP1 PUSH2 0x11C4 JUMP JUMPDEST PUSH2 0xCC9 JUMP JUMPDEST PUSH1 0x40 MLOAD PUSH2 0x18E SWAP2 SWAP1 PUSH2 0x1132 JUMP JUMPDEST PUSH1 0x40 MLOAD DUP1 SWAP2 SUB SWAP1 RETURN JUMPDEST PUSH1 0x60 PUSH0 PUSH20 0xAB6B4D064C968ECA87F775D2493A222987052BC0 SWAP1 POP PUSH2 0x1B9 PUSH2 0xE7D JUMP JUMPDEST PUSH1 0x4 PUSH8 0xFFFFFFFFFFFFFFFF DUP2 GT ISZERO PUSH2 0x1D4 JUMPI PUSH2 0x1D3 PUSH2 0xF38 JUMP JUMPDEST JUMPDEST PUSH1 0x40 MLOAD SWAP1 DUP1 DUP3 MSTORE DUP1 PUSH1 0x20 MUL PUSH1 0x20 ADD DUP3 ADD PUSH1 0x40 MSTORE DUP1 ISZERO PUSH2 0x207 JUMPI DUP2 PUSH1 0x20 ADD JUMPDEST PUSH1 0x60 DUP2 MSTORE PUSH1 0x20 ADD SWAP1 PUSH1 0x1 SWAP1 SUB SWAP1 DUP2 PUSH2 0x1F2 JUMPI SWAP1 POP JUMPDEST POP DUP2 PUSH1 0x20 ADD DUP2 SWAP1 MSTORE POP PUSH1 0x40 MLOAD DUP1 PUSH1 0x60 ADD PUSH1 0x40 MSTORE DUP1 PUSH1 0x2C DUP2 MSTORE PUSH1 0x20 ADD PUSH2 0x1C73 PUSH1 0x2C SWAP2 CODECOPY DUP2 PUSH1 0x20 ADD MLOAD PUSH0 DUP2 MLOAD DUP2 LT PUSH2 0x240 JUMPI PUSH2 0x23F PUSH2 0x12BC JUMP JUMPDEST JUMPDEST PUSH1 0x20 MUL PUSH1 0x20 ADD ADD DUP2 SWAP1 MSTORE POP PUSH1 0x40 MLOAD DUP1 PUSH1 0x60 ADD PUSH1 0x40 MSTORE DUP1 PUSH1 0x2C DUP2 MSTORE PUSH1 0x20 ADD PUSH2 0x1C9F PUSH1 0x2C SWAP2 CODECOPY DUP2 PUSH1 0x20 ADD MLOAD PUSH1 0x1 DUP2 MLOAD DUP2 LT PUSH2 0x27C JUMPI PUSH2 0x27B PUSH2 0x12BC JUMP JUMPDEST JUMPDEST PUSH1 0x20 MUL PUSH1 0x20 ADD ADD DUP2 SWAP1 MSTORE POP DUP5 DUP2 PUSH1 0x20 ADD MLOAD PUSH1 0x2 DUP2 MLOAD DUP2 LT PUSH2 0x2A0 JUMPI PUSH2 0x29F PUSH2 0x12BC JUMP JUMPDEST JUMPDEST PUSH1 0x20 MUL PUSH1 0x20 ADD ADD DUP2 SWAP1 MSTORE POP PUSH1 0x40 MLOAD DUP1 PUSH1 0x40 ADD PUSH1 0x40 MSTORE DUP1 PUSH1 0x20 DUP2 MSTORE PUSH1 0x20 ADD PUSH32 0x3131313131313131313131313131313131313131313131313131313131313131 DUP2 MSTORE POP DUP2 PUSH1 0x20 ADD MLOAD PUSH1 0x3 DUP2 MLOAD DUP2 LT PUSH2 0x2F9 JUMPI PUSH2 0x2F8 PUSH2 0x12BC JUMP JUMPDEST JUMPDEST PUSH1 0x20 MUL PUSH1 0x20 ADD ADD DUP2 SWAP1 MSTORE POP PUSH3 0xF4240 DUP2 PUSH1 0x60 ADD SWAP1 PUSH8 0xFFFFFFFFFFFFFFFF AND SWAP1 DUP2 PUSH8 0xFFFFFFFFFFFFFFFF AND DUP2 MSTORE POP POP PUSH2 0x32F PUSH2 0xEAE JUMP JUMPDEST PUSH1 0x1 PUSH8 0xFFFFFFFFFFFFFFFF DUP2 GT ISZERO PUSH2 0x34A JUMPI PUSH2 0x349 PUSH2 0xF38 JUMP JUMPDEST JUMPDEST PUSH1 0x40 MLOAD SWAP1 DUP1 DUP3 MSTORE DUP1 PUSH1 0x20 MUL PUSH1 0x20 ADD DUP3 ADD PUSH1 0x40 MSTORE DUP1 ISZERO PUSH2 0x378 JUMPI DUP2 PUSH1 0x20 ADD PUSH1 0x20 DUP3 MUL DUP1 CALLDATASIZE DUP4 CALLDATACOPY DUP1 DUP3 ADD SWAP2 POP POP SWAP1 POP JUMPDEST POP DUP2 PUSH0 ADD DUP2 SWAP1 MSTORE POP PUSH0 DUP2 PUSH0 ADD MLOAD PUSH0 DUP2 MLOAD DUP2 LT PUSH2 0x397 JUMPI PUSH2 0x396 PUSH2 0x12BC JUMP JUMPDEST JUMPDEST PUSH1 0x20 MUL PUSH1 0x20 ADD ADD SWAP1 PUSH4 0xFFFFFFFF AND SWAP1 DUP2 PUSH4 0xFFFFFFFF AND DUP2 MSTORE POP POP PUSH1 0x3 PUSH8 0xFFFFFFFFFFFFFFFF DUP2 GT ISZERO PUSH2 0x3CC JUMPI PUSH2 0x3CB PUSH2 0xF38 JUMP JUMPDEST JUMPDEST PUSH1 0x40 MLOAD SWAP1 DUP1 DUP3 MSTORE DUP1 PUSH1 0x20 MUL PUSH1 0x20 ADD DUP3 ADD PUSH1 0x40 MSTORE DUP1 ISZERO PUSH2 0x405 JUMPI DUP2 PUSH1 0x20 ADD JUMPDEST PUSH2 0x3F2 PUSH2 0xECF JUMP JUMPDEST DUP2 MSTORE PUSH1 0x20 ADD SWAP1 PUSH1 0x1 SWAP1 SUB SWAP1 DUP2 PUSH2 0x3EA JUMPI SWAP1 POP JUMPDEST POP DUP2 PUSH1 0x20 ADD DUP2 SWAP1 MSTORE POP PUSH1 0x40 MLOAD DUP1 PUSH1 0xA0 ADD PUSH1 0x40 MSTORE DUP1 PUSH1 0x1 PUSH4 0xFFFFFFFF AND DUP2 MSTORE PUSH1 0x20 ADD PUSH1 0x1 PUSH4 0xFFFFFFFF AND DUP2 MSTORE PUSH1 0x20 ADD PUSH0 PUSH4 0xFFFFFFFF AND DUP2 MSTORE PUSH1 0x20 ADD PUSH0 ISZERO ISZERO DUP2 MSTORE PUSH1 0x20 ADD PUSH1 0x1 ISZERO ISZERO DUP2 MSTORE POP DUP2 PUSH1 0x20 ADD MLOAD PUSH0 DUP2 MLOAD DUP2 LT PUSH2 0x465 JUMPI PUSH2 0x464 PUSH2 0x12BC JUMP JUMPDEST JUMPDEST PUSH1 0x20 MUL PUSH1 0x20 ADD ADD DUP2 SWAP1 MSTORE POP PUSH1 0x40 MLOAD DUP1 PUSH1 0xA0 ADD PUSH1 0x40 MSTORE DUP1 PUSH1 0x2 PUSH4 0xFFFFFFFF AND DUP2 MSTORE PUSH1 0x20 ADD PUSH1 0x2 PUSH4 0xFFFFFFFF AND DUP2 MSTORE PUSH1 0x20 ADD PUSH1 0x1 PUSH4 0xFFFFFFFF AND DUP2 MSTORE PUSH1 0x20 ADD PUSH1 0x1 ISZERO ISZERO DUP2 MSTORE PUSH1 0x20 ADD PUSH1 0x1 ISZERO ISZERO DUP2 MSTORE POP DUP2 PUSH1 0x20 ADD MLOAD PUSH1 0x1 DUP2 MLOAD DUP2 LT PUSH2 0x4CA JUMPI PUSH2 0x4C9 PUSH2 0x12BC JUMP JUMPDEST JUMPDEST PUSH1 0x20 MUL PUSH1 0x20 ADD ADD DUP2 SWAP1 MSTORE POP PUSH1 0x40 MLOAD DUP1 PUSH1 0xA0 ADD PUSH1 0x40 MSTORE DUP1 PUSH1 0x3 PUSH4 0xFFFFFFFF AND DUP2 MSTORE PUSH1 0x20 ADD PUSH1 0x3 PUSH4 0xFFFFFFFF AND DUP2 MSTORE PUSH1 0x20 ADD PUSH1 0x2 PUSH4 0xFFFFFFFF AND DUP2 MSTORE PUSH1 0x20 ADD PUSH0 ISZERO ISZERO DUP2 MSTORE PUSH1 0x20 ADD PUSH0 ISZERO ISZERO DUP2 MSTORE POP DUP2 PUSH1 0x20 ADD MLOAD PUSH1 0x2 DUP2 MLOAD DUP2 LT PUSH2 0x52D JUMPI PUSH2 0x52C PUSH2 0x12BC JUMP JUMPDEST JUMPDEST PUSH1 0x20 MUL PUSH1 0x20 ADD ADD DUP2 SWAP1 MSTORE POP PUSH0 PUSH1 0x40 MLOAD DUP1 PUSH1 0x40 ADD PUSH1 0x40 MSTORE DUP1 PUSH1 0x8 DUP2 MSTORE PUSH1 0x20 ADD PUSH32 0xDF725B88C54E9999000000000000000000000000000000000000000000000000 DUP2 MSTORE POP SWAP1 POP PUSH0 ADDRESS PUSH20 0xFFFFFFFFFFFFFFFFFFFFFFFFFFFFFFFFFFFFFFFF AND PUSH4 0xAC977793 DUP9 PUSH1 0x40 MLOAD DUP3 PUSH4 0xFFFFFFFF AND PUSH1 0xE0 SHL DUP2 MSTORE PUSH1 0x4 ADD PUSH2 0x5AB SWAP2 SWAP1 PUSH2 0x11A4 JUMP JUMPDEST PUSH1 0x20 PUSH1 0x40 MLOAD DUP1 DUP4 SUB DUP2 DUP7 GAS STATICCALL ISZERO DUP1 ISZERO PUSH2 0x5C6 JUMPI RETURNDATASIZE PUSH0 DUP1 RETURNDATACOPY RETURNDATASIZE PUSH0 REVERT JUMPDEST POP POP POP POP PUSH1 0x40 MLOAD RETURNDATASIZE PUSH1 0x1F NOT PUSH1 0x1F DUP3 ADD AND DUP3 ADD DUP1 PUSH1 0x40 MSTORE POP DUP2 ADD SWAP1 PUSH2 0x5EA SWAP2 SWAP1 PUSH2 0x1313 JUMP JUMPDEST SWAP1 POP DUP2 DUP2 DUP9 PUSH1 0x40 MLOAD PUSH1 0x20 ADD PUSH2 0x601 SWAP4 SWAP3 SWAP2 SWAP1 PUSH2 0x1398 JUMP JUMPDEST PUSH1 0x40 MLOAD PUSH1 0x20 DUP2 DUP4 SUB SUB DUP2 MSTORE SWAP1 PUSH1 0x40 MSTORE DUP4 PUSH1 0x40 ADD DUP2 SWAP1 MSTORE POP PUSH1 0x1 PUSH8 0xFFFFFFFFFFFFFFFF DUP2 GT ISZERO PUSH2 0x633 JUMPI PUSH2 0x632 PUSH2 0xF38 JUMP JUMPDEST JUMPDEST PUSH1 0x40 MLOAD SWAP1 DUP1 DUP3 MSTORE DUP1 PUSH1 0x20 MUL PUSH1 0x20 ADD DUP3 ADD PUSH1 0x40 MSTORE DUP1 ISZERO PUSH2 0x66C JUMPI DUP2 PUSH1 0x20 ADD JUMPDEST PUSH2 0x659 PUSH2 0xEAE JUMP JUMPDEST DUP2 MSTORE PUSH1 0x20 ADD SWAP1 PUSH1 0x1 SWAP1 SUB SWAP1 DUP2 PUSH2 0x651 JUMPI SWAP1 POP JUMPDEST POP DUP5 PUSH1 0x40 ADD DUP2 SWAP1 MSTORE POP DUP3 DUP5 PUSH1 0x40 ADD MLOAD PUSH0 DUP2 MLOAD DUP2 LT PUSH2 0x68D JUMPI PUSH2 0x68C PUSH2 0x12BC JUMP JUMPDEST JUMPDEST PUSH1 0x20 MUL PUSH1 0x20 ADD ADD DUP2 SWAP1 MSTORE POP PUSH0 DUP1 DUP7 PUSH20 0xFFFFFFFFFFFFFFFFFFFFFFFFFFFFFFFFFFFFFFFF AND DUP7 PUSH1 0x40 MLOAD PUSH1 0x20 ADD PUSH2 0x6C2 SWAP2 SWAP1 PUSH2 0x18AB JUMP JUMPDEST PUSH1 0x40 MLOAD PUSH1 0x20 DUP2 DUP4 SUB SUB DUP2 MSTORE SWAP1 PUSH1 0x40 MSTORE PUSH1 0x40 MLOAD PUSH2 0x6DE SWAP2 SWAP1 PUSH2 0x18CB JUMP JUMPDEST PUSH0 PUSH1 0x40 MLOAD DUP1 DUP4 SUB DUP2 PUSH0 DUP7 GAS CALL SWAP2 POP POP RETURNDATASIZE DUP1 PUSH0 DUP2 EQ PUSH2 0x717 JUMPI PUSH1 0x40 MLOAD SWAP2 POP PUSH1 0x1F NOT PUSH1 0x3F RETURNDATASIZE ADD AND DUP3 ADD PUSH1 0x40 MSTORE RETURNDATASIZE DUP3 MSTORE RETURNDATASIZE PUSH0 PUSH1 0x20 DUP5 ADD RETURNDATACOPY PUSH2 0x71C JUMP JUMPDEST PUSH1 0x60 SWAP2 POP JUMPDEST POP SWAP2 POP SWAP2 POP DUP2 PUSH2 0x761 JUMPI PUSH1 0x40 MLOAD PUSH32 0x8C379A000000000000000000000000000000000000000000000000000000000 DUP2 MSTORE PUSH1 0x4 ADD PUSH2 0x758 SWAP1 PUSH2 0x192B JUMP JUMPDEST PUSH1 0x40 MLOAD DUP1 SWAP2 SUB SWAP1 REVERT JUMPDEST DUP1 SWAP8 POP POP POP POP POP POP POP POP SWAP3 SWAP2 POP POP JUMP JUMPDEST PUSH0 DUP1 SLOAD PUSH2 0x77D SWAP1 PUSH2 0x1976 JUMP JUMPDEST DUP1 PUSH1 0x1F ADD PUSH1 0x20 DUP1 SWAP2 DIV MUL PUSH1 0x20 ADD PUSH1 0x40 MLOAD SWAP1 DUP2 ADD PUSH1 0x40 MSTORE DUP1 SWAP3 SWAP2 SWAP1 DUP2 DUP2 MSTORE PUSH1 0x20 ADD DUP3 DUP1 SLOAD PUSH2 0x7A9 SWAP1 PUSH2 0x1976 JUMP JUMPDEST DUP1 ISZERO PUSH2 0x7F4 JUMPI DUP1 PUSH1 0x1F LT PUSH2 0x7CB JUMPI PUSH2 0x100 DUP1 DUP4 SLOAD DIV MUL DUP4 MSTORE SWAP2 PUSH1 0x20 ADD SWAP2 PUSH2 0x7F4 JUMP JUMPDEST DUP3 ADD SWAP2 SWAP1 PUSH0 MSTORE PUSH1 0x20 PUSH0 KECCAK256 SWAP1 JUMPDEST DUP2 SLOAD DUP2 MSTORE SWAP1 PUSH1 0x1 ADD SWAP1 PUSH1 0x20 ADD DUP1 DUP4 GT PUSH2 0x7D7 JUMPI DUP3 SWAP1 SUB PUSH1 0x1F AND DUP3 ADD SWAP2 JUMPDEST POP POP POP POP POP DUP2 JUMP JUMPDEST DUP1 PUSH0 SWAP1 DUP2 PUSH2 0x80A SWAP2 SWAP1 PUSH2 0x1B43 JUMP JUMPDEST POP POP JUMP JUMPDEST PUSH1 0x60 PUSH0 PUSH20 0xAB6B4D064C968ECA87F775D2493A222987052BC0 SWAP1 POP PUSH2 0x830 PUSH2 0xE7D JUMP JUMPDEST PUSH1 0x2 PUSH8 0xFFFFFFFFFFFFFFFF DUP2 GT ISZERO PUSH2 0x84B JUMPI PUSH2 0x84A PUSH2 0xF38 JUMP JUMPDEST JUMPDEST PUSH1 0x40 MLOAD SWAP1 DUP1 DUP3 MSTORE DUP1 PUSH1 0x20 MUL PUSH1 0x20 ADD DUP3 ADD PUSH1 0x40 MSTORE DUP1 ISZERO PUSH2 0x87E JUMPI DUP2 PUSH1 0x20 ADD JUMPDEST PUSH1 0x60 DUP2 MSTORE PUSH1 0x20 ADD SWAP1 PUSH1 0x1 SWAP1 SUB SWAP1 DUP2 PUSH2 0x869 JUMPI SWAP1 POP JUMPDEST POP DUP2 PUSH1 0x20 ADD DUP2 SWAP1 MSTORE POP PUSH1 0x40 MLOAD DUP1 PUSH1 0x60 ADD PUSH1 0x40 MSTORE DUP1 PUSH1 0x2C DUP2 MSTORE PUSH1 0x20 ADD PUSH2 0x1C73 PUSH1 0x2C SWAP2 CODECOPY DUP2 PUSH1 0x20 ADD MLOAD PUSH0 DUP2 MLOAD DUP2 LT PUSH2 0x8B7 JUMPI PUSH2 0x8B6 PUSH2 0x12BC JUMP JUMPDEST JUMPDEST PUSH1 0x20 MUL PUSH1 0x20 ADD ADD DUP2 SWAP1 MSTORE POP PUSH1 0x40 MLOAD DUP1 PUSH1 0x60 ADD PUSH1 0x40 MSTORE DUP1 PUSH1 0x2C DUP2 MSTORE PUSH1 0x20 ADD PUSH2 0x1C9F PUSH1 0x2C SWAP2 CODECOPY DUP2 PUSH1 0x20 ADD MLOAD PUSH1 0x1 DUP2 MLOAD DUP2 LT PUSH2 0x8F3 JUMPI PUSH2 0x8F2 PUSH2 0x12BC JUMP JUMPDEST JUMPDEST PUSH1 0x20 MUL PUSH1 0x20 ADD ADD DUP2 SWAP1 MSTORE POP PUSH3 0xF4240 DUP2 PUSH1 0x60 ADD SWAP1 PUSH8 0xFFFFFFFFFFFFFFFF AND SWAP1 DUP2 PUSH8 0xFFFFFFFFFFFFFFFF AND DUP2 MSTORE POP POP PUSH2 0x929 PUSH2 0xEAE JUMP JUMPDEST PUSH1 0x1 PUSH8 0xFFFFFFFFFFFFFFFF DUP2 GT ISZERO PUSH2 0x944 JUMPI PUSH2 0x943 PUSH2 0xF38 JUMP JUMPDEST JUMPDEST PUSH1 0x40 MLOAD SWAP1 DUP1 DUP3 MSTORE DUP1 PUSH1 0x20 MUL PUSH1 0x20 ADD DUP3 ADD PUSH1 0x40 MSTORE DUP1 ISZERO PUSH2 0x972 JUMPI DUP2 PUSH1 0x20 ADD PUSH1 0x20 DUP3 MUL DUP1 CALLDATASIZE DUP4 CALLDATACOPY DUP1 DUP3 ADD SWAP2 POP POP SWAP1 POP JUMPDEST POP DUP2 PUSH0 ADD DUP2 SWAP1 MSTORE POP PUSH0 DUP2 PUSH0 ADD MLOAD PUSH0 DUP2 MLOAD DUP2 LT PUSH2 0x991 JUMPI PUSH2 0x990 PUSH2 0x12BC JUMP JUMPDEST JUMPDEST PUSH1 0x20 MUL PUSH1 0x20 ADD ADD SWAP1 PUSH4 0xFFFFFFFF AND SWAP1 DUP2 PUSH4 0xFFFFFFFF AND DUP2 MSTORE POP POP PUSH1 0x1 PUSH8 0xFFFFFFFFFFFFFFFF DUP2 GT ISZERO PUSH2 0x9C6 JUMPI PUSH2 0x9C5 PUSH2 0xF38 JUMP JUMPDEST JUMPDEST PUSH1 0x40 MLOAD SWAP1 DUP1 DUP3 MSTORE DUP1 PUSH1 0x20 MUL PUSH1 0x20 ADD DUP3 ADD PUSH1 0x40 MSTORE DUP1 ISZERO PUSH2 0x9FF JUMPI DUP2 PUSH1 0x20 ADD JUMPDEST PUSH2 0x9EC PUSH2 0xECF JUMP JUMPDEST DUP2 MSTORE PUSH1 0x20 ADD SWAP1 PUSH1 0x1 SWAP1 SUB SWAP1 DUP2 PUSH2 0x9E4 JUMPI SWAP1 POP JUMPDEST POP DUP2 PUSH1 0x20 ADD DUP2 SWAP1 MSTORE POP PUSH1 0x40 MLOAD DUP1 PUSH1 0xA0 ADD PUSH1 0x40 MSTORE DUP1 PUSH1 0x1 PUSH4 0xFFFFFFFF AND DUP2 MSTORE PUSH1 0x20 ADD PUSH1 0x1 PUSH4 0xFFFFFFFF AND DUP2 MSTORE PUSH1 0x20 ADD PUSH0 PUSH4 0xFFFFFFFF AND DUP2 MSTORE PUSH1 0x20 ADD PUSH0 ISZERO ISZERO DUP2 MSTORE PUSH1 0x20 ADD PUSH0 ISZERO ISZERO DUP2 MSTORE POP DUP2 PUSH1 0x20 ADD MLOAD PUSH0 DUP2 MLOAD DUP2 LT PUSH2 0xA5E JUMPI PUSH2 0xA5D PUSH2 0x12BC JUMP JUMPDEST JUMPDEST PUSH1 0x20 MUL PUSH1 0x20 ADD ADD DUP2 SWAP1 MSTORE POP PUSH0 PUSH1 0x40 MLOAD DUP1 PUSH1 0x40 ADD PUSH1 0x40 MSTORE DUP1 PUSH1 0x8 DUP2 MSTORE PUSH1 0x20 ADD PUSH32 0xDC8BFD5F8098939F000000000000000000000000000000000000000000000000 DUP2 MSTORE POP SWAP1 POP DUP1 DUP3 PUSH1 0x40 ADD DUP2 SWAP1 MSTORE POP PUSH1 0x1 PUSH8 0xFFFFFFFFFFFFFFFF DUP2 GT ISZERO PUSH2 0xAC6 JUMPI PUSH2 0xAC5 PUSH2 0xF38 JUMP JUMPDEST JUMPDEST PUSH1 0x40 MLOAD SWAP1 DUP1 DUP3 MSTORE DUP1 PUSH1 0x20 MUL PUSH1 0x20 ADD DUP3 ADD PUSH1 0x40 MSTORE DUP1 ISZERO PUSH2 0xAFF JUMPI DUP2 PUSH1 0x20 ADD JUMPDEST PUSH2 0xAEC PUSH2 0xEAE JUMP JUMPDEST DUP2 MSTORE PUSH1 0x20 ADD SWAP1 PUSH1 0x1 SWAP1 SUB SWAP1 DUP2 PUSH2 0xAE4 JUMPI SWAP1 POP JUMPDEST POP DUP4 PUSH1 0x40 ADD DUP2 SWAP1 MSTORE POP DUP2 DUP4 PUSH1 0x40 ADD MLOAD PUSH0 DUP2 MLOAD DUP2 LT PUSH2 0xB20 JUMPI PUSH2 0xB1F PUSH2 0x12BC JUMP JUMPDEST JUMPDEST PUSH1 0x20 MUL PUSH1 0x20 ADD ADD DUP2 SWAP1 MSTORE POP PUSH0 DUP1 DUP6 PUSH20 0xFFFFFFFFFFFFFFFFFFFFFFFFFFFFFFFFFFFFFFFF AND DUP6 PUSH1 0x40 MLOAD PUSH1 0x20 ADD PUSH2 0xB55 SWAP2 SWAP1 PUSH2 0x18AB JUMP JUMPDEST PUSH1 0x40 MLOAD PUSH1 0x20 DUP2 DUP4 SUB SUB DUP2 MSTORE SWAP1 PUSH1 0x40 MSTORE PUSH1 0x40 MLOAD PUSH2 0xB71 SWAP2 SWAP1 PUSH2 0x18CB JUMP JUMPDEST PUSH0 PUSH1 0x40 MLOAD DUP1 DUP4 SUB DUP2 DUP6 GAS STATICCALL SWAP2 POP POP RETURNDATASIZE DUP1 PUSH0 DUP2 EQ PUSH2 0xBA9 JUMPI PUSH1 0x40 MLOAD SWAP2 POP PUSH1 0x1F NOT PUSH1 0x3F RETURNDATASIZE ADD AND DUP3 ADD PUSH1 0x40 MSTORE RETURNDATASIZE DUP3 MSTORE RETURNDATASIZE PUSH0 PUSH1 0x20 DUP5 ADD RETURNDATACOPY PUSH2 0xBAE JUMP JUMPDEST PUSH1 0x60 SWAP2 POP JUMPDEST POP SWAP2 POP SWAP2 POP DUP2 PUSH2 0xBF3 JUMPI PUSH1 0x40 MLOAD PUSH32 0x8C379A000000000000000000000000000000000000000000000000000000000 DUP2 MSTORE PUSH1 0x4 ADD PUSH2 0xBEA SWAP1 PUSH2 0x192B JUMP JUMPDEST PUSH1 0x40 MLOAD DUP1 SWAP2 SUB SWAP1 REVERT JUMPDEST PUSH2 0xBFC DUP2 PUSH2 0xD8D JUMP JUMPDEST SWAP7 POP POP POP POP POP POP POP SWAP1 JUMP JUMPDEST PUSH0 DUP1 DUP3 MLOAD SWAP1 POP PUSH2 0xC16 DUP2 PUSH2 0xC1E JUMP JUMPDEST SWAP2 POP POP SWAP2 SWAP1 POP JUMP JUMPDEST PUSH0 DUP1 DUP3 PUSH0 SHL SWAP1 POP DUP1 PUSH1 0x1C PUSH1 0x20 DUP2 LT PUSH2 0xC39 JUMPI PUSH2 0xC38 PUSH2 0x12BC JUMP JUMPDEST JUMPDEST BYTE PUSH1 0xF8 SHL PUSH1 0xF8 SHR PUSH1 0xFF AND PUSH1 0x8 DUP3 PUSH1 0x1D PUSH1 0x20 DUP2 LT PUSH2 0xC59 JUMPI PUSH2 0xC58 PUSH2 0x12BC JUMP JUMPDEST JUMPDEST BYTE PUSH1 0xF8 SHL PUSH1 0xF8 SHR PUSH1 0xFF AND PUSH4 0xFFFFFFFF AND SWAP1 SHL PUSH1 0x10 DUP4 PUSH1 0x1E PUSH1 0x20 DUP2 LT PUSH2 0xC81 JUMPI PUSH2 0xC80 PUSH2 0x12BC JUMP JUMPDEST JUMPDEST BYTE PUSH1 0xF8 SHL PUSH1 0xF8 SHR PUSH1 0xFF AND PUSH4 0xFFFFFFFF AND SWAP1 SHL PUSH1 0x18 DUP5 PUSH1 0x1F PUSH1 0x20 DUP2 LT PUSH2 0xCA9 JUMPI PUSH2 0xCA8 PUSH2 0x12BC JUMP JUMPDEST JUMPDEST BYTE PUSH1 0xF8 SHL PUSH1 0xF8 SHR PUSH1 0xFF AND PUSH4 0xFFFFFFFF AND SWAP1 SHL OR OR OR PUSH1 0xE0 SHL SWAP2 POP POP SWAP2 SWAP1 POP JUMP JUMPDEST PUSH1 0x60 PUSH32 0xF8251662139E6D88D3B6F2A5AA0F6FA9F87EC5BBE2E7F41DA6C2EE0F71E0EBBC PUSH2 0xCF4 PUSH2 0x80E JUMP JUMPDEST DUP1 MLOAD SWAP1 PUSH1 0x20 ADD KECCAK256 SUB PUSH2 0xD46 JUMPI PUSH2 0xD3F DUP3 PUSH1 0x40 MLOAD DUP1 PUSH1 0x40 ADD PUSH1 0x40 MSTORE DUP1 PUSH1 0x3 DUP2 MSTORE PUSH1 0x20 ADD PUSH32 0x65766D0000000000000000000000000000000000000000000000000000000000 DUP2 MSTORE POP PUSH2 0x197 JUMP JUMPDEST SWAP1 POP PUSH2 0xD88 JUMP JUMPDEST PUSH2 0xD85 DUP3 PUSH1 0x40 MLOAD DUP1 PUSH1 0x40 ADD PUSH1 0x40 MSTORE DUP1 PUSH1 0x3 DUP2 MSTORE PUSH1 0x20 ADD PUSH32 0x73766D0000000000000000000000000000000000000000000000000000000000 DUP2 MSTORE POP PUSH2 0x197 JUMP JUMPDEST SWAP1 POP JUMPDEST SWAP2 SWAP1 POP JUMP JUMPDEST PUSH1 0x60 PUSH0 PUSH1 0x4 DUP4 MLOAD PUSH2 0xD9E SWAP2 SWAP1 PUSH2 0x1C3F JUMP JUMPDEST PUSH8 0xFFFFFFFFFFFFFFFF DUP2 GT ISZERO PUSH2 0xDB7 JUMPI PUSH2 0xDB6 PUSH2 0xF38 JUMP JUMPDEST JUMPDEST PUSH1 0x40 MLOAD SWAP1 DUP1 DUP3 MSTORE DUP1 PUSH1 0x1F ADD PUSH1 0x1F NOT AND PUSH1 0x20 ADD DUP3 ADD PUSH1 0x40 MSTORE DUP1 ISZERO PUSH2 0xDE9 JUMPI DUP2 PUSH1 0x20 ADD PUSH1 0x1 DUP3 MUL DUP1 CALLDATASIZE DUP4 CALLDATACOPY DUP1 DUP3 ADD SWAP2 POP POP SWAP1 POP JUMPDEST POP SWAP1 POP PUSH0 PUSH1 0x4 SWAP1 POP JUMPDEST DUP4 MLOAD DUP2 LT ISZERO PUSH2 0xE73 JUMPI DUP4 DUP2 DUP2 MLOAD DUP2 LT PUSH2 0xE0E JUMPI PUSH2 0xE0D PUSH2 0x12BC JUMP JUMPDEST JUMPDEST PUSH1 0x20 ADD ADD MLOAD PUSH1 0xF8 SHR PUSH1 0xF8 SHL DUP3 PUSH1 0x4 DUP4 PUSH2 0xE27 SWAP2 SWAP1 PUSH2 0x1C3F JUMP JUMPDEST DUP2 MLOAD DUP2 LT PUSH2 0xE38 JUMPI PUSH2 0xE37 PUSH2 0x12BC JUMP JUMPDEST JUMPDEST PUSH1 0x20 ADD ADD SWAP1 PUSH31 0xFFFFFFFFFFFFFFFFFFFFFFFFFFFFFFFFFFFFFFFFFFFFFFFFFFFFFFFFFFFFFF NOT AND SWAP1 DUP2 PUSH0 BYTE SWAP1 MSTORE8 POP DUP1 DUP1 PUSH1 0x1 ADD SWAP2 POP POP PUSH2 0xDF2 JUMP JUMPDEST POP DUP1 SWAP2 POP POP SWAP2 SWAP1 POP JUMP JUMPDEST PUSH1 0x40 MLOAD DUP1 PUSH1 0x80 ADD PUSH1 0x40 MSTORE DUP1 PUSH1 0x60 DUP2 MSTORE PUSH1 0x20 ADD PUSH1 0x60 DUP2 MSTORE PUSH1 0x20 ADD PUSH1 0x60 DUP2 MSTORE PUSH1 0x20 ADD PUSH0 PUSH8 0xFFFFFFFFFFFFFFFF AND DUP2 MSTORE POP SWAP1 JUMP JUMPDEST PUSH1 0x40 MLOAD DUP1 PUSH1 0x60 ADD PUSH1 0x40 MSTORE DUP1 PUSH1 0x60 DUP2 MSTORE PUSH1 0x20 ADD PUSH1 0x60 DUP2 MSTORE PUSH1 0x20 ADD PUSH1 0x60 DUP2 MSTORE POP SWAP1 JUMP JUMPDEST PUSH1 0x40 MLOAD DUP1 PUSH1 0xA0 ADD PUSH1 0x40 MSTORE DUP1 PUSH0 PUSH4 0xFFFFFFFF AND DUP2 MSTORE PUSH1 0x20 ADD PUSH0 PUSH4 0xFFFFFFFF AND DUP2 MSTORE PUSH1 0x20 ADD PUSH0 PUSH4 0xFFFFFFFF AND DUP2 MSTORE PUSH1 0x20 ADD PUSH0 ISZERO ISZERO DUP2 MSTORE PUSH1 0x20 ADD PUSH0 ISZERO ISZERO DUP2 MSTORE POP SWAP1 JUMP JUMPDEST PUSH0 PUSH1 0x40 MLOAD SWAP1 POP SWAP1 JUMP JUMPDEST PUSH0 DUP1 REVERT JUMPDEST PUSH0 DUP1 REVERT JUMPDEST PUSH0 DUP1 REVERT JUMPDEST PUSH0 DUP1 REVERT JUMPDEST PUSH0 PUSH1 0x1F NOT PUSH1 0x1F DUP4 ADD AND SWAP1 POP SWAP2 SWAP1 POP JUMP JUMPDEST PUSH32 0x4E487B7100000000000000000000000000000000000000000000000000000000 PUSH0 MSTORE PUSH1 0x41 PUSH1 0x4 MSTORE PUSH1 0x24 PUSH0 REVERT JUMPDEST PUSH2 0xF6E DUP3 PUSH2 0xF28 JUMP JUMPDEST DUP2 ADD DUP2 DUP2 LT PUSH8 0xFFFFFFFFFFFFFFFF DUP3 GT OR ISZERO PUSH2 0xF8D JUMPI PUSH2 0xF8C PUSH2 0xF38 JUMP JUMPDEST JUMPDEST DUP1 PUSH1 0x40 MSTORE POP POP POP JUMP JUMPDEST PUSH0 PUSH2 0xF9F PUSH2 0xF0F JUMP JUMPDEST SWAP1 POP PUSH2 0xFAB DUP3 DUP3 PUSH2 0xF65 JUMP JUMPDEST SWAP2 SWAP1 POP JUMP JUMPDEST PUSH0 PUSH8 0xFFFFFFFFFFFFFFFF DUP3 GT ISZERO PUSH2 0xFCA JUMPI PUSH2 0xFC9 PUSH2 0xF38 JUMP JUMPDEST JUMPDEST PUSH2 0xFD3 DUP3 PUSH2 0xF28 JUMP JUMPDEST SWAP1 POP PUSH1 0x20 DUP2 ADD SWAP1 POP SWAP2 SWAP1 POP JUMP JUMPDEST DUP3 DUP2 DUP4 CALLDATACOPY PUSH0 DUP4 DUP4 ADD MSTORE POP POP POP JUMP JUMPDEST PUSH0 PUSH2 0x1000 PUSH2 0xFFB DUP5 PUSH2 0xFB0 JUMP JUMPDEST PUSH2 0xF96 JUMP JUMPDEST SWAP1 POP DUP3 DUP2 MSTORE PUSH1 0x20 DUP2 ADD DUP5 DUP5 DUP5 ADD GT ISZERO PUSH2 0x101C JUMPI PUSH2 0x101B PUSH2 0xF24 JUMP JUMPDEST JUMPDEST PUSH2 0x1027 DUP5 DUP3 DUP6 PUSH2 0xFE0 JUMP JUMPDEST POP SWAP4 SWAP3 POP POP POP JUMP JUMPDEST PUSH0 DUP3 PUSH1 0x1F DUP4 ADD SLT PUSH2 0x1043 JUMPI PUSH2 0x1042 PUSH2 0xF20 JUMP JUMPDEST JUMPDEST DUP2 CALLDATALOAD PUSH2 0x1053 DUP5 DUP3 PUSH1 0x20 DUP7 ADD PUSH2 0xFEE JUMP JUMPDEST SWAP2 POP POP SWAP3 SWAP2 POP POP JUMP JUMPDEST PUSH0 DUP1 PUSH1 0x40 DUP4 DUP6 SUB SLT ISZERO PUSH2 0x1072 JUMPI PUSH2 0x1071 PUSH2 0xF18 JUMP JUMPDEST JUMPDEST PUSH0 DUP4 ADD CALLDATALOAD PUSH8 0xFFFFFFFFFFFFFFFF DUP2 GT ISZERO PUSH2 0x108F JUMPI PUSH2 0x108E PUSH2 0xF1C JUMP JUMPDEST JUMPDEST PUSH2 0x109B DUP6 DUP3 DUP7 ADD PUSH2 0x102F JUMP JUMPDEST SWAP3 POP POP PUSH1 0x20 DUP4 ADD CALLDATALOAD PUSH8 0xFFFFFFFFFFFFFFFF DUP2 GT ISZERO PUSH2 0x10BC JUMPI PUSH2 0x10BB PUSH2 0xF1C JUMP JUMPDEST JUMPDEST PUSH2 0x10C8 DUP6 DUP3 DUP7 ADD PUSH2 0x102F JUMP JUMPDEST SWAP2 POP POP SWAP3 POP SWAP3 SWAP1 POP JUMP JUMPDEST PUSH0 DUP2 MLOAD SWAP1 POP SWAP2 SWAP1 POP JUMP JUMPDEST PUSH0 DUP3 DUP3 MSTORE PUSH1 0x20 DUP3 ADD SWAP1 POP SWAP3 SWAP2 POP POP JUMP JUMPDEST DUP3 DUP2 DUP4 MCOPY PUSH0 DUP4 DUP4 ADD MSTORE POP POP POP JUMP JUMPDEST PUSH0 PUSH2 0x1104 DUP3 PUSH2 0x10D2 JUMP JUMPDEST PUSH2 0x110E DUP2 DUP6 PUSH2 0x10DC JUMP JUMPDEST SWAP4 POP PUSH2 0x111E DUP2 DUP6 PUSH1 0x20 DUP7 ADD PUSH2 0x10EC JUMP JUMPDEST PUSH2 0x1127 DUP2 PUSH2 0xF28 JUMP JUMPDEST DUP5 ADD SWAP2 POP POP SWAP3 SWAP2 POP POP JUMP JUMPDEST PUSH0 PUSH1 0x20 DUP3 ADD SWAP1 POP DUP2 DUP2 SUB PUSH0 DUP4 ADD MSTORE PUSH2 0x114A DUP2 DUP5 PUSH2 0x10FA JUMP JUMPDEST SWAP1 POP SWAP3 SWAP2 POP POP JUMP JUMPDEST PUSH0 DUP2 MLOAD SWAP1 POP SWAP2 SWAP1 POP JUMP JUMPDEST PUSH0 DUP3 DUP3 MSTORE PUSH1 0x20 DUP3 ADD SWAP1 POP SWAP3 SWAP2 POP POP JUMP JUMPDEST PUSH0 PUSH2 0x1176 DUP3 PUSH2 0x1152 JUMP JUMPDEST PUSH2 0x1180 DUP2 DUP6 PUSH2 0x115C JUMP JUMPDEST SWAP4 POP PUSH2 0x1190 DUP2 DUP6 PUSH1 0x20 DUP7 ADD PUSH2 0x10EC JUMP JUMPDEST PUSH2 0x1199 DUP2 PUSH2 0xF28 JUMP JUMPDEST DUP5 ADD SWAP2 POP POP SWAP3 SWAP2 POP POP JUMP JUMPDEST PUSH0 PUSH1 0x20 DUP3 ADD SWAP1 POP DUP2 DUP2 SUB PUSH0 DUP4 ADD MSTORE PUSH2 0x11BC DUP2 DUP5 PUSH2 0x116C JUMP JUMPDEST SWAP1 POP SWAP3 SWAP2 POP POP JUMP JUMPDEST PUSH0 PUSH1 0x20 DUP3 DUP5 SUB SLT ISZERO PUSH2 0x11D9 JUMPI PUSH2 0x11D8 PUSH2 0xF18 JUMP JUMPDEST JUMPDEST PUSH0 DUP3 ADD CALLDATALOAD PUSH8 0xFFFFFFFFFFFFFFFF DUP2 GT ISZERO PUSH2 0x11F6 JUMPI PUSH2 0x11F5 PUSH2 0xF1C JUMP JUMPDEST JUMPDEST PUSH2 0x1202 DUP5 DUP3 DUP6 ADD PUSH2 0x102F JUMP JUMPDEST SWAP2 POP POP SWAP3 SWAP2 POP POP JUMP JUMPDEST PUSH0 PUSH32 0xFFFFFFFF00000000000000000000000000000000000000000000000000000000 DUP3 AND SWAP1 POP SWAP2 SWAP1 POP JUMP JUMPDEST PUSH2 0x123F DUP2 PUSH2 0x120B JUMP JUMPDEST DUP3 MSTORE POP POP JUMP JUMPDEST PUSH0 PUSH1 0x20 DUP3 ADD SWAP1 POP PUSH2 0x1258 PUSH0 DUP4 ADD DUP5 PUSH2 0x1236 JUMP JUMPDEST SWAP3 SWAP2 POP POP JUMP JUMPDEST PUSH0 DUP2 SWAP1 POP SWAP2 SWAP1 POP JUMP JUMPDEST PUSH2 0x1270 DUP2 PUSH2 0x125E JUMP JUMPDEST DUP2 EQ PUSH2 0x127A JUMPI PUSH0 DUP1 REVERT JUMPDEST POP JUMP JUMPDEST PUSH0 DUP2 CALLDATALOAD SWAP1 POP PUSH2 0x128B DUP2 PUSH2 0x1267 JUMP JUMPDEST SWAP3 SWAP2 POP POP JUMP JUMPDEST PUSH0 PUSH1 0x20 DUP3 DUP5 SUB SLT ISZERO PUSH2 0x12A6 JUMPI PUSH2 0x12A5 PUSH2 0xF18 JUMP JUMPDEST JUMPDEST PUSH0 PUSH2 0x12B3 DUP5 DUP3 DUP6 ADD PUSH2 0x127D JUMP JUMPDEST SWAP2 POP POP SWAP3 SWAP2 POP POP JUMP JUMPDEST PUSH32 0x4E487B7100000000000000000000000000000000000000000000000000000000 PUSH0 MSTORE PUSH1 0x32 PUSH1 0x4 MSTORE PUSH1 0x24 PUSH0 REVERT JUMPDEST PUSH2 0x12F2 DUP2 PUSH2 0x120B JUMP JUMPDEST DUP2 EQ PUSH2 0x12FC JUMPI PUSH0 DUP1 REVERT JUMPDEST POP JUMP JUMPDEST PUSH0 DUP2 MLOAD SWAP1 POP PUSH2 0x130D DUP2 PUSH2 0x12E9 JUMP JUMPDEST SWAP3 SWAP2 POP POP JUMP JUMPDEST PUSH0 PUSH1 0x20 DUP3 DUP5 SUB SLT ISZERO PUSH2 0x1328 JUMPI PUSH2 0x1327 PUSH2 0xF18 JUMP JUMPDEST JUMPDEST PUSH0 PUSH2 0x1335 DUP5 DUP3 DUP6 ADD PUSH2 0x12FF JUMP JUMPDEST SWAP2 POP POP SWAP3 SWAP2 POP POP JUMP JUMPDEST PUSH0 DUP2 SWAP1 POP SWAP3 SWAP2 POP POP JUMP JUMPDEST PUSH0 PUSH2 0x1352 DUP3 PUSH2 0x10D2 JUMP JUMPDEST PUSH2 0x135C DUP2 DUP6 PUSH2 0x133E JUMP JUMPDEST SWAP4 POP PUSH2 0x136C DUP2 DUP6 PUSH1 0x20 DUP7 ADD PUSH2 0x10EC JUMP JUMPDEST DUP1 DUP5 ADD SWAP2 POP POP SWAP3 SWAP2 POP POP JUMP JUMPDEST PUSH0 DUP2 SWAP1 POP SWAP2 SWAP1 POP JUMP JUMPDEST PUSH2 0x1392 PUSH2 0x138D DUP3 PUSH2 0x120B JUMP JUMPDEST PUSH2 0x1378 JUMP JUMPDEST DUP3 MSTORE POP POP JUMP JUMPDEST PUSH0 PUSH2 0x13A3 DUP3 DUP7 PUSH2 0x1348 JUMP JUMPDEST SWAP2 POP PUSH2 0x13AF DUP3 DUP6 PUSH2 0x1381 JUMP JUMPDEST PUSH1 0x4 DUP3 ADD SWAP2 POP PUSH2 0x13BF DUP3 DUP5 PUSH2 0x1348 JUMP JUMPDEST SWAP2 POP DUP2 SWAP1 POP SWAP5 SWAP4 POP POP POP POP JUMP JUMPDEST PUSH0 DUP2 MLOAD SWAP1 POP SWAP2 SWAP1 POP JUMP JUMPDEST PUSH0 DUP3 DUP3 MSTORE PUSH1 0x20 DUP3 ADD SWAP1 POP SWAP3 SWAP2 POP POP JUMP JUMPDEST PUSH0 DUP2 SWAP1 POP PUSH1 0x20 DUP3 ADD SWAP1 POP SWAP2 SWAP1 POP JUMP JUMPDEST PUSH0 DUP3 DUP3 MSTORE PUSH1 0x20 DUP3 ADD SWAP1 POP SWAP3 SWAP2 POP POP JUMP JUMPDEST PUSH0 PUSH2 0x140F DUP3 PUSH2 0x1152 JUMP JUMPDEST PUSH2 0x1419 DUP2 DUP6 PUSH2 0x13F5 JUMP JUMPDEST SWAP4 POP PUSH2 0x1429 DUP2 DUP6 PUSH1 0x20 DUP7 ADD PUSH2 0x10EC JUMP JUMPDEST PUSH2 0x1432 DUP2 PUSH2 0xF28 JUMP JUMPDEST DUP5 ADD SWAP2 POP POP SWAP3 SWAP2 POP POP JUMP JUMPDEST PUSH0 PUSH2 0x1448 DUP4 DUP4 PUSH2 0x1405 JUMP JUMPDEST SWAP1 POP SWAP3 SWAP2 POP POP JUMP JUMPDEST PUSH0 PUSH1 0x20 DUP3 ADD SWAP1 POP SWAP2 SWAP1 POP JUMP JUMPDEST PUSH0 PUSH2 0x1466 DUP3 PUSH2 0x13CC JUMP JUMPDEST PUSH2 0x1470 DUP2 DUP6 PUSH2 0x13D6 JUMP JUMPDEST SWAP4 POP DUP4 PUSH1 0x20 DUP3 MUL DUP6 ADD PUSH2 0x1482 DUP6 PUSH2 0x13E6 JUMP JUMPDEST DUP1 PUSH0 JUMPDEST DUP6 DUP2 LT ISZERO PUSH2 0x14BD JUMPI DUP5 DUP5 SUB DUP10 MSTORE DUP2 MLOAD PUSH2 0x149E DUP6 DUP3 PUSH2 0x143D JUMP JUMPDEST SWAP5 POP PUSH2 0x14A9 DUP4 PUSH2 0x1450 JUMP JUMPDEST SWAP3 POP PUSH1 0x20 DUP11 ADD SWAP10 POP POP PUSH1 0x1 DUP2 ADD SWAP1 POP PUSH2 0x1485 JUMP JUMPDEST POP DUP3 SWAP8 POP DUP8 SWAP6 POP POP POP POP POP POP SWAP3 SWAP2 POP POP JUMP JUMPDEST PUSH0 DUP2 MLOAD SWAP1 POP SWAP2 SWAP1 POP JUMP JUMPDEST PUSH0 DUP3 DUP3 MSTORE PUSH1 0x20 DUP3 ADD SWAP1 POP SWAP3 SWAP2 POP POP JUMP JUMPDEST PUSH0 DUP2 SWAP1 POP PUSH1 0x20 DUP3 ADD SWAP1 POP SWAP2 SWAP1 POP JUMP JUMPDEST PUSH0 DUP2 MLOAD SWAP1 POP SWAP2 SWAP1 POP JUMP JUMPDEST PUSH0 DUP3 DUP3 MSTORE PUSH1 0x20 DUP3 ADD SWAP1 POP SWAP3 SWAP2 POP POP JUMP JUMPDEST PUSH0 DUP2 SWAP1 POP PUSH1 0x20 DUP3 ADD SWAP1 POP SWAP2 SWAP1 POP JUMP JUMPDEST PUSH0 PUSH4 0xFFFFFFFF DUP3 AND SWAP1 POP SWAP2 SWAP1 POP JUMP JUMPDEST PUSH2 0x1539 DUP2 PUSH2 0x1521 JUMP JUMPDEST DUP3 MSTORE POP POP JUMP JUMPDEST PUSH0 PUSH2 0x154A DUP4 DUP4 PUSH2 0x1530 JUMP JUMPDEST PUSH1 0x20 DUP4 ADD SWAP1 POP SWAP3 SWAP2 POP POP JUMP JUMPDEST PUSH0 PUSH1 0x20 DUP3 ADD SWAP1 POP SWAP2 SWAP1 POP JUMP JUMPDEST PUSH0 PUSH2 0x156C DUP3 PUSH2 0x14F8 JUMP JUMPDEST PUSH2 0x1576 DUP2 DUP6 PUSH2 0x1502 JUMP JUMPDEST SWAP4 POP PUSH2 0x1581 DUP4 PUSH2 0x1512 JUMP JUMPDEST DUP1 PUSH0 JUMPDEST DUP4 DUP2 LT ISZERO PUSH2 0x15B1 JUMPI DUP2 MLOAD PUSH2 0x1598 DUP9 DUP3 PUSH2 0x153F JUMP JUMPDEST SWAP8 POP PUSH2 0x15A3 DUP4 PUSH2 0x1556 JUMP JUMPDEST SWAP3 POP POP PUSH1 0x1 DUP2 ADD SWAP1 POP PUSH2 0x1584 JUMP JUMPDEST POP DUP6 SWAP4 POP POP POP POP SWAP3 SWAP2 POP POP JUMP JUMPDEST PUSH0 DUP2 MLOAD SWAP1 POP SWAP2 SWAP1 POP JUMP JUMPDEST PUSH0 DUP3 DUP3 MSTORE PUSH1 0x20 DUP3 ADD SWAP1 POP SWAP3 SWAP2 POP POP JUMP JUMPDEST PUSH0 DUP2 SWAP1 POP PUSH1 0x20 DUP3 ADD SWAP1 POP SWAP2 SWAP1 POP JUMP JUMPDEST PUSH0 DUP2 ISZERO ISZERO SWAP1 POP SWAP2 SWAP1 POP JUMP JUMPDEST PUSH2 0x15FB DUP2 PUSH2 0x15E7 JUMP JUMPDEST DUP3 MSTORE POP POP JUMP JUMPDEST PUSH1 0xA0 DUP3 ADD PUSH0 DUP3 ADD MLOAD PUSH2 0x1615 PUSH0 DUP6 ADD DUP3 PUSH2 0x1530 JUMP JUMPDEST POP PUSH1 0x20 DUP3 ADD MLOAD PUSH2 0x1628 PUSH1 0x20 DUP6 ADD DUP3 PUSH2 0x1530 JUMP JUMPDEST POP PUSH1 0x40 DUP3 ADD MLOAD PUSH2 0x163B PUSH1 0x40 DUP6 ADD DUP3 PUSH2 0x1530 JUMP JUMPDEST POP PUSH1 0x60 DUP3 ADD MLOAD PUSH2 0x164E PUSH1 0x60 DUP6 ADD DUP3 PUSH2 0x15F2 JUMP JUMPDEST POP PUSH1 0x80 DUP3 ADD MLOAD PUSH2 0x1661 PUSH1 0x80 DUP6 ADD DUP3 PUSH2 0x15F2 JUMP JUMPDEST POP POP POP POP JUMP JUMPDEST PUSH0 PUSH2 0x1672 DUP4 DUP4 PUSH2 0x1601 JUMP JUMPDEST PUSH1 0xA0 DUP4 ADD SWAP1 POP SWAP3 SWAP2 POP POP JUMP JUMPDEST PUSH0 PUSH1 0x20 DUP3 ADD SWAP1 POP SWAP2 SWAP1 POP JUMP JUMPDEST PUSH0 PUSH2 0x1694 DUP3 PUSH2 0x15BE JUMP JUMPDEST PUSH2 0x169E DUP2 DUP6 PUSH2 0x15C8 JUMP JUMPDEST SWAP4 POP PUSH2 0x16A9 DUP4 PUSH2 0x15D8 JUMP JUMPDEST DUP1 PUSH0 JUMPDEST DUP4 DUP2 LT ISZERO PUSH2 0x16D9 JUMPI DUP2 MLOAD PUSH2 0x16C0 DUP9 DUP3 PUSH2 0x1667 JUMP JUMPDEST SWAP8 POP PUSH2 0x16CB DUP4 PUSH2 0x167E JUMP JUMPDEST SWAP3 POP POP PUSH1 0x1 DUP2 ADD SWAP1 POP PUSH2 0x16AC JUMP JUMPDEST POP DUP6 SWAP4 POP POP POP POP SWAP3 SWAP2 POP POP JUMP JUMPDEST PUSH0 DUP3 DUP3 MSTORE PUSH1 0x20 DUP3 ADD SWAP1 POP SWAP3 SWAP2 POP POP JUMP JUMPDEST PUSH0 PUSH2 0x1700 DUP3 PUSH2 0x10D2 JUMP JUMPDEST PUSH2 0x170A DUP2 DUP6 PUSH2 0x16E6 JUMP JUMPDEST SWAP4 POP PUSH2 0x171A DUP2 DUP6 PUSH1 0x20 DUP7 ADD PUSH2 0x10EC JUMP JUMPDEST PUSH2 0x1723 DUP2 PUSH2 0xF28 JUMP JUMPDEST DUP5 ADD SWAP2 POP POP SWAP3 SWAP2 POP POP JUMP JUMPDEST PUSH0 PUSH1 0x60 DUP4 ADD PUSH0 DUP4 ADD MLOAD DUP5 DUP3 SUB PUSH0 DUP7 ADD MSTORE PUSH2 0x1748 DUP3 DUP3 PUSH2 0x1562 JUMP JUMPDEST SWAP2 POP POP PUSH1 0x20 DUP4 ADD MLOAD DUP5 DUP3 SUB PUSH1 0x20 DUP7 ADD MSTORE PUSH2 0x1762 DUP3 DUP3 PUSH2 0x168A JUMP JUMPDEST SWAP2 POP POP PUSH1 0x40 DUP4 ADD MLOAD DUP5 DUP3 SUB PUSH1 0x40 DUP7 ADD MSTORE PUSH2 0x177C DUP3 DUP3 PUSH2 0x16F6 JUMP JUMPDEST SWAP2 POP POP DUP1 SWAP2 POP POP SWAP3 SWAP2 POP POP JUMP JUMPDEST PUSH0 PUSH2 0x1794 DUP4 DUP4 PUSH2 0x172E JUMP JUMPDEST SWAP1 POP SWAP3 SWAP2 POP POP JUMP JUMPDEST PUSH0 PUSH1 0x20 DUP3 ADD SWAP1 POP SWAP2 SWAP1 POP JUMP JUMPDEST PUSH0 PUSH2 0x17B2 DUP3 PUSH2 0x14CF JUMP JUMPDEST PUSH2 0x17BC DUP2 DUP6 PUSH2 0x14D9 JUMP JUMPDEST SWAP4 POP DUP4 PUSH1 0x20 DUP3 MUL DUP6 ADD PUSH2 0x17CE DUP6 PUSH2 0x14E9 JUMP JUMPDEST DUP1 PUSH0 JUMPDEST DUP6 DUP2 LT ISZERO PUSH2 0x1809 JUMPI DUP5 DUP5 SUB DUP10 MSTORE DUP2 MLOAD PUSH2 0x17EA DUP6 DUP3 PUSH2 0x1789 JUMP JUMPDEST SWAP5 POP PUSH2 0x17F5 DUP4 PUSH2 0x179C JUMP JUMPDEST SWAP3 POP PUSH1 0x20 DUP11 ADD SWAP10 POP POP PUSH1 0x1 DUP2 ADD SWAP1 POP PUSH2 0x17D1 JUMP JUMPDEST POP DUP3 SWAP8 POP DUP8 SWAP6 POP POP POP POP POP POP SWAP3 SWAP2 POP POP JUMP JUMPDEST PUSH0 PUSH8 0xFFFFFFFFFFFFFFFF DUP3 AND SWAP1 POP SWAP2 SWAP1 POP JUMP JUMPDEST PUSH2 0x1837 DUP2 PUSH2 0x181B JUMP JUMPDEST DUP3 MSTORE POP POP JUMP JUMPDEST PUSH0 PUSH1 0x80 DUP4 ADD PUSH0 DUP4 ADD MLOAD DUP5 DUP3 SUB PUSH0 DUP7 ADD MSTORE PUSH2 0x1857 DUP3 DUP3 PUSH2 0x145C JUMP JUMPDEST SWAP2 POP POP PUSH1 0x20 DUP4 ADD MLOAD DUP5 DUP3 SUB PUSH1 0x20 DUP7 ADD MSTORE PUSH2 0x1871 DUP3 DUP3 PUSH2 0x145C JUMP JUMPDEST SWAP2 POP POP PUSH1 0x40 DUP4 ADD MLOAD DUP5 DUP3 SUB PUSH1 0x40 DUP7 ADD MSTORE PUSH2 0x188B DUP3 DUP3 PUSH2 0x17A8 JUMP JUMPDEST SWAP2 POP POP PUSH1 0x60 DUP4 ADD MLOAD PUSH2 0x18A0 PUSH1 0x60 DUP7 ADD DUP3 PUSH2 0x182E JUMP JUMPDEST POP DUP1 SWAP2 POP POP SWAP3 SWAP2 POP POP JUMP JUMPDEST PUSH0 PUSH1 0x20 DUP3 ADD SWAP1 POP DUP2 DUP2 SUB PUSH0 DUP4 ADD MSTORE PUSH2 0x18C3 DUP2 DUP5 PUSH2 0x183D JUMP JUMPDEST SWAP1 POP SWAP3 SWAP2 POP POP JUMP JUMPDEST PUSH0 PUSH2 0x18D6 DUP3 DUP5 PUSH2 0x1348 JUMP JUMPDEST SWAP2 POP DUP2 SWAP1 POP SWAP3 SWAP2 POP POP JUMP JUMPDEST PUSH32 0x63616C6C206D7573742073756363656564000000000000000000000000000000 PUSH0 DUP3 ADD MSTORE POP JUMP JUMPDEST PUSH0 PUSH2 0x1915 PUSH1 0x11 DUP4 PUSH2 0x115C JUMP JUMPDEST SWAP2 POP PUSH2 0x1920 DUP3 PUSH2 0x18E1 JUMP JUMPDEST PUSH1 0x20 DUP3 ADD SWAP1 POP SWAP2 SWAP1 POP JUMP JUMPDEST PUSH0 PUSH1 0x20 DUP3 ADD SWAP1 POP DUP2 DUP2 SUB PUSH0 DUP4 ADD MSTORE PUSH2 0x1942 DUP2 PUSH2 0x1909 JUMP JUMPDEST SWAP1 POP SWAP2 SWAP1 POP JUMP JUMPDEST PUSH32 0x4E487B7100000000000000000000000000000000000000000000000000000000 PUSH0 MSTORE PUSH1 0x22 PUSH1 0x4 MSTORE PUSH1 0x24 PUSH0 REVERT JUMPDEST PUSH0 PUSH1 0x2 DUP3 DIV SWAP1 POP PUSH1 0x1 DUP3 AND DUP1 PUSH2 0x198D JUMPI PUSH1 0x7F DUP3 AND SWAP2 POP JUMPDEST PUSH1 0x20 DUP3 LT DUP2 SUB PUSH2 0x19A0 JUMPI PUSH2 0x199F PUSH2 0x1949 JUMP JUMPDEST JUMPDEST POP SWAP2 SWAP1 POP JUMP JUMPDEST PUSH0 DUP2 SWAP1 POP DUP2 PUSH0 MSTORE PUSH1 0x20 PUSH0 KECCAK256 SWAP1 POP SWAP2 SWAP1 POP JUMP JUMPDEST PUSH0 PUSH1 0x20 PUSH1 0x1F DUP4 ADD DIV SWAP1 POP SWAP2 SWAP1 POP JUMP JUMPDEST PUSH0 DUP3 DUP3 SHL SWAP1 POP SWAP3 SWAP2 POP POP JUMP JUMPDEST PUSH0 PUSH1 0x8 DUP4 MUL PUSH2 0x1A02 PUSH32 0xFFFFFFFFFFFFFFFFFFFFFFFFFFFFFFFFFFFFFFFFFFFFFFFFFFFFFFFFFFFFFFFF DUP3 PUSH2 0x19C7 JUMP JUMPDEST PUSH2 0x1A0C DUP7 DUP4 PUSH2 0x19C7 JUMP JUMPDEST SWAP6 POP DUP1 NOT DUP5 AND SWAP4 POP DUP1 DUP7 AND DUP5 OR SWAP3 POP POP POP SWAP4 SWAP3 POP POP POP JUMP JUMPDEST PUSH0 DUP2 SWAP1 POP SWAP2 SWAP1 POP JUMP JUMPDEST PUSH0 PUSH2 0x1A47 PUSH2 0x1A42 PUSH2 0x1A3D DUP5 PUSH2 0x125E JUMP JUMPDEST PUSH2 0x1A24 JUMP JUMPDEST PUSH2 0x125E JUMP JUMPDEST SWAP1 POP SWAP2 SWAP1 POP JUMP JUMPDEST PUSH0 DUP2 SWAP1 POP SWAP2 SWAP1 POP JUMP JUMPDEST PUSH2 0x1A60 DUP4 PUSH2 0x1A2D JUMP JUMPDEST PUSH2 0x1A74 PUSH2 0x1A6C DUP3 PUSH2 0x1A4E JUMP JUMPDEST DUP5 DUP5 SLOAD PUSH2 0x19D3 JUMP JUMPDEST DUP3 SSTORE POP POP POP POP JUMP JUMPDEST PUSH0 SWAP1 JUMP JUMPDEST PUSH2 0x1A88 PUSH2 0x1A7C JUMP JUMPDEST PUSH2 0x1A93 DUP2 DUP5 DUP5 PUSH2 0x1A57 JUMP JUMPDEST POP POP POP JUMP JUMPDEST JUMPDEST DUP2 DUP2 LT ISZERO PUSH2 0x1AB6 JUMPI PUSH2 0x1AAB PUSH0 DUP3 PUSH2 0x1A80 JUMP JUMPDEST PUSH1 0x1 DUP2 ADD SWAP1 POP PUSH2 0x1A99 JUMP JUMPDEST POP POP JUMP JUMPDEST PUSH1 0x1F DUP3 GT ISZERO PUSH2 0x1AFB JUMPI PUSH2 0x1ACC DUP2 PUSH2 0x19A6 JUMP JUMPDEST PUSH2 0x1AD5 DUP5 PUSH2 0x19B8 JUMP JUMPDEST DUP2 ADD PUSH1 0x20 DUP6 LT ISZERO PUSH2 0x1AE4 JUMPI DUP2 SWAP1 POP JUMPDEST PUSH2 0x1AF8 PUSH2 0x1AF0 DUP6 PUSH2 0x19B8 JUMP JUMPDEST DUP4 ADD DUP3 PUSH2 0x1A98 JUMP JUMPDEST POP POP JUMPDEST POP POP POP JUMP JUMPDEST PUSH0 DUP3 DUP3 SHR SWAP1 POP SWAP3 SWAP2 POP POP JUMP JUMPDEST PUSH0 PUSH2 0x1B1B PUSH0 NOT DUP5 PUSH1 0x8 MUL PUSH2 0x1B00 JUMP JUMPDEST NOT DUP1 DUP4 AND SWAP2 POP POP SWAP3 SWAP2 POP POP JUMP JUMPDEST PUSH0 PUSH2 0x1B33 DUP4 DUP4 PUSH2 0x1B0C JUMP JUMPDEST SWAP2 POP DUP3 PUSH1 0x2 MUL DUP3 OR SWAP1 POP SWAP3 SWAP2 POP POP JUMP JUMPDEST PUSH2 0x1B4C DUP3 PUSH2 0x1152 JUMP JUMPDEST PUSH8 0xFFFFFFFFFFFFFFFF DUP2 GT ISZERO PUSH2 0x1B65 JUMPI PUSH2 0x1B64 PUSH2 0xF38 JUMP JUMPDEST JUMPDEST PUSH2 0x1B6F DUP3 SLOAD PUSH2 0x1976 JUMP JUMPDEST PUSH2 0x1B7A DUP3 DUP3 DUP6 PUSH2 0x1ABA JUMP JUMPDEST PUSH0 PUSH1 0x20 SWAP1 POP PUSH1 0x1F DUP4 GT PUSH1 0x1 DUP2 EQ PUSH2 0x1BAB JUMPI PUSH0 DUP5 ISZERO PUSH2 0x1B99 JUMPI DUP3 DUP8 ADD MLOAD SWAP1 POP JUMPDEST PUSH2 0x1BA3 DUP6 DUP3 PUSH2 0x1B28 JUMP JUMPDEST DUP7 SSTORE POP PUSH2 0x1C0A JUMP JUMPDEST PUSH1 0x1F NOT DUP5 AND PUSH2 0x1BB9 DUP7 PUSH2 0x19A6 JUMP JUMPDEST PUSH0 JUMPDEST DUP3 DUP2 LT ISZERO PUSH2 0x1BE0 JUMPI DUP5 DUP10 ADD MLOAD DUP3 SSTORE PUSH1 0x1 DUP3 ADD SWAP2 POP PUSH1 0x20 DUP6 ADD SWAP5 POP PUSH1 0x20 DUP2 ADD SWAP1 POP PUSH2 0x1BBB JUMP JUMPDEST DUP7 DUP4 LT ISZERO PUSH2 0x1BFD JUMPI DUP5 DUP10 ADD MLOAD PUSH2 0x1BF9 PUSH1 0x1F DUP10 AND DUP3 PUSH2 0x1B0C JUMP JUMPDEST DUP4 SSTORE POP JUMPDEST PUSH1 0x1 PUSH1 0x2 DUP9 MUL ADD DUP9 SSTORE POP POP POP JUMPDEST POP POP POP POP POP POP JUMP JUMPDEST PUSH32 0x4E487B7100000000000000000000000000000000000000000000000000000000 PUSH0 MSTORE PUSH1 0x11 PUSH1 0x4 MSTORE PUSH1 0x24 PUSH0 REVERT JUMPDEST PUSH0 PUSH2 0x1C49 DUP3 PUSH2 0x125E JUMP JUMPDEST SWAP2 POP PUSH2 0x1C54 DUP4 PUSH2 0x125E JUMP JUMPDEST SWAP3 POP DUP3 DUP3 SUB SWAP1 POP DUP2 DUP2 GT ISZERO PUSH2 0x1C6C JUMPI PUSH2 0x1C6B PUSH2 0x1C12 JUMP JUMPDEST JUMPDEST SWAP3 SWAP2 POP POP JUMP INVALID CODESIZE CALLER PUSH27 0x665A596163467247713565426E6E703645515078617063706A7078 PUSH5 0x6A414B704C PUSH2 0x7671 PUSH21 0x534A333232327A36483644655734554C4279514B4C GASLIMIT MSTORE PUSH21 0x486A536F44654669754369693876334E754C534166 ORIGIN PUSH5 0x62A2646970 PUSH7 0x73582212203C43 PUSH6 0x9D8EDB530BC9 0xBD NOT 0xE1 0xC3 0xC0 CALLDATASIZE AND 0x2B PUSH4 0xEF38659F JUMPI MSIZE 0xE0 0xCF 0xAE RETURNDATASIZE PUSH30 0xFF230164736F6C634300081A003300000000000000000000000000000000 "
	},
	"abi": [
		{
			"inputs": [
				{
					"internalType": "string",
					"name": "svmFeePayer",
					"type": "string"
				}
			],
			"name": "conditionalSetSvm",
			"outputs": [
				{
					"internalType": "bytes",
					"name": "result",
					"type": "bytes"
				}
			],
			"stateMutability": "nonpayable",
			"type": "function"
		},
		{
			"inputs": [],
			"name": "evmString",
			"outputs": [
				{
					"internalType": "string",
					"name": "",
					"type": "string"
				}
			],
			"stateMutability": "view",
			"type": "function"
		},
		{
			"inputs": [
				{
					"internalType": "string",
					"name": "str",
					"type": "string"
				}
			],
			"name": "getStringLengthLE",
			"outputs": [
				{
					"internalType": "bytes4",
					"name": "",
					"type": "bytes4"
				}
			],
			"stateMutability": "pure",
			"type": "function"
		},
		{
			"inputs": [],
			"name": "getSvm",
			"outputs": [
				{
					"internalType": "string",
					"name": "",
					"type": "string"
				}
			],
			"stateMutability": "view",
			"type": "function"
		},
		{
			"inputs": [
				{
					"internalType": "string",
					"name": "_evmString",
					"type": "string"
				}
			],
			"name": "set",
			"outputs": [],
			"stateMutability": "nonpayable",
			"type": "function"
		},
		{
			"inputs": [
				{
					"internalType": "string",
					"name": "svmFeePayer",
					"type": "string"
				},
				{
					"internalType": "string",
					"name": "_svmString",
					"type": "string"
				}
			],
			"name": "setSvm",
			"outputs": [
				{
					"internalType": "bytes",
					"name": "result",
					"type": "bytes"
				}
			],
			"stateMutability": "nonpayable",
			"type": "function"
		},
		{
			"inputs": [
				{
					"internalType": "uint256",
					"name": "value",
					"type": "uint256"
				}
			],
			"name": "toLittleEndian",
			"outputs": [
				{
					"internalType": "bytes4",
					"name": "result",
					"type": "bytes4"
				}
			],
			"stateMutability": "pure",
			"type": "function"
		}
	],
	"storageLayout": {
		"storage": [
			{
				"astId": 37,
				"contract": "contracts/4_Storage.sol:SvmSetter",
				"label": "evmString",
				"offset": 0,
				"slot": "0",
				"type": "t_string_storage"
			}
		],
		"types": {
			"t_string_storage": {
				"encoding": "bytes",
				"label": "string",
				"numberOfBytes": "32"
			}
		}
	},
	"web3Deploy": "var svmsetterContract = new web3.eth.Contract([{\"inputs\":[{\"internalType\":\"string\",\"name\":\"svmFeePayer\",\"type\":\"string\"}],\"name\":\"conditionalSetSvm\",\"outputs\":[{\"internalType\":\"bytes\",\"name\":\"result\",\"type\":\"bytes\"}],\"stateMutability\":\"nonpayable\",\"type\":\"function\"},{\"inputs\":[],\"name\":\"evmString\",\"outputs\":[{\"internalType\":\"string\",\"name\":\"\",\"type\":\"string\"}],\"stateMutability\":\"view\",\"type\":\"function\"},{\"inputs\":[{\"internalType\":\"string\",\"name\":\"str\",\"type\":\"string\"}],\"name\":\"getStringLengthLE\",\"outputs\":[{\"internalType\":\"bytes4\",\"name\":\"\",\"type\":\"bytes4\"}],\"stateMutability\":\"pure\",\"type\":\"function\"},{\"inputs\":[],\"name\":\"getSvm\",\"outputs\":[{\"internalType\":\"string\",\"name\":\"\",\"type\":\"string\"}],\"stateMutability\":\"view\",\"type\":\"function\"},{\"inputs\":[{\"internalType\":\"string\",\"name\":\"_evmString\",\"type\":\"string\"}],\"name\":\"set\",\"outputs\":[],\"stateMutability\":\"nonpayable\",\"type\":\"function\"},{\"inputs\":[{\"internalType\":\"string\",\"name\":\"svmFeePayer\",\"type\":\"string\"},{\"internalType\":\"string\",\"name\":\"_svmString\",\"type\":\"string\"}],\"name\":\"setSvm\",\"outputs\":[{\"internalType\":\"bytes\",\"name\":\"result\",\"type\":\"bytes\"}],\"stateMutability\":\"nonpayable\",\"type\":\"function\"},{\"inputs\":[{\"internalType\":\"uint256\",\"name\":\"value\",\"type\":\"uint256\"}],\"name\":\"toLittleEndian\",\"outputs\":[{\"internalType\":\"bytes4\",\"name\":\"result\",\"type\":\"bytes4\"}],\"stateMutability\":\"pure\",\"type\":\"function\"}]);\nvar svmsetter = svmsetterContract.deploy({\n     data: '0x6080604052348015600e575f80fd5b50611d008061001c5f395ff3fe608060405234801561000f575f80fd5b506004361061007b575f3560e01c80636b3d63de116100595780636b3d63de146100e9578063ac97779314610107578063c732d64f14610137578063db21155e146101675761007b565b80632642a1291461007f5780633163d265146100af5780634ed3885e146100cd575b5f80fd5b6100996004803603810190610094919061105c565b610197565b6040516100a69190611132565b60405180910390f35b6100b7610771565b6040516100c491906111a4565b60405180910390f35b6100e760048036038101906100e291906111c4565b6107fc565b005b6100f161080e565b6040516100fe91906111a4565b60405180910390f35b610121600480360381019061011c91906111c4565b610c07565b60405161012e9190611245565b60405180910390f35b610151600480360381019061014c9190611291565b610c1e565b60405161015e9190611245565b60405180910390f35b610181600480360381019061017c91906111c4565b610cc9565b60405161018e9190611132565b60405180910390f35b60605f73ab6b4d064c968eca87f775d2493a222987052bc090506101b9610e7d565b600467ffffffffffffffff8111156101d4576101d3610f38565b5b60405190808252806020026020018201604052801561020757816020015b60608152602001906001900390816101f25790505b5081602001819052506040518060600160405280602c8152602001611c73602c913981602001515f815181106102405761023f6112bc565b5b60200260200101819052506040518060600160405280602c8152602001611c9f602c9139816020015160018151811061027c5761027b6112bc565b5b60200260200101819052508481602001516002815181106102a05761029f6112bc565b5b60200260200101819052506040518060400160405280602081526020017f313131313131313131313131313131313131313131313131313131313131313181525081602001516003815181106102f9576102f86112bc565b5b6020026020010181905250620f4240816060019067ffffffffffffffff16908167ffffffffffffffff168152505061032f610eae565b600167ffffffffffffffff81111561034a57610349610f38565b5b6040519080825280602002602001820160405280156103785781602001602082028036833780820191505090505b50815f01819052505f815f01515f81518110610397576103966112bc565b5b602002602001019063ffffffff16908163ffffffff1681525050600367ffffffffffffffff8111156103cc576103cb610f38565b5b60405190808252806020026020018201604052801561040557816020015b6103f2610ecf565b8152602001906001900390816103ea5790505b5081602001819052506040518060a00160405280600163ffffffff168152602001600163ffffffff1681526020015f63ffffffff1681526020015f151581526020016001151581525081602001515f81518110610465576104646112bc565b5b60200260200101819052506040518060a00160405280600263ffffffff168152602001600263ffffffff168152602001600163ffffffff1681526020016001151581526020016001151581525081602001516001815181106104ca576104c96112bc565b5b60200260200101819052506040518060a00160405280600363ffffffff168152602001600363ffffffff168152602001600263ffffffff1681526020015f151581526020015f1515815250816020015160028151811061052d5761052c6112bc565b5b60200260200101819052505f6040518060400160405280600881526020017fdf725b88c54e999900000000000000000000000000000000000000000000000081525090505f3073ffffffffffffffffffffffffffffffffffffffff1663ac977793886040518263ffffffff1660e01b81526004016105ab91906111a4565b602060405180830381865afa1580156105c6573d5f803e3d5ffd5b505050506040513d601f19601f820116820180604052508101906105ea9190611313565b905081818860405160200161060193929190611398565b6040516020818303038152906040528360400181905250600167ffffffffffffffff81111561063357610632610f38565b5b60405190808252806020026020018201604052801561066c57816020015b610659610eae565b8152602001906001900390816106515790505b5084604001819052508284604001515f8151811061068d5761068c6112bc565b5b60200260200101819052505f808673ffffffffffffffffffffffffffffffffffffffff16866040516020016106c291906118ab565b6040516020818303038152906040526040516106de91906118cb565b5f604051808303815f865af19150503d805f8114610717576040519150601f19603f3d011682016040523d82523d5f602084013e61071c565b606091505b509150915081610761576040517f08c379a00000000000000000000000000000000000000000000000000000000081526004016107589061192b565b60405180910390fd5b8097505050505050505092915050565b5f805461077d90611976565b80601f01602080910402602001604051908101604052809291908181526020018280546107a990611976565b80156107f45780601f106107cb576101008083540402835291602001916107f4565b820191905f5260205f20905b8154815290600101906020018083116107d757829003601f168201915b505050505081565b805f908161080a9190611b43565b5050565b60605f73ab6b4d064c968eca87f775d2493a222987052bc09050610830610e7d565b600267ffffffffffffffff81111561084b5761084a610f38565b5b60405190808252806020026020018201604052801561087e57816020015b60608152602001906001900390816108695790505b5081602001819052506040518060600160405280602c8152602001611c73602c913981602001515f815181106108b7576108b66112bc565b5b60200260200101819052506040518060600160405280602c8152602001611c9f602c913981602001516001815181106108f3576108f26112bc565b5b6020026020010181905250620f4240816060019067ffffffffffffffff16908167ffffffffffffffff1681525050610929610eae565b600167ffffffffffffffff81111561094457610943610f38565b5b6040519080825280602002602001820160405280156109725781602001602082028036833780820191505090505b50815f01819052505f815f01515f81518110610991576109906112bc565b5b602002602001019063ffffffff16908163ffffffff1681525050600167ffffffffffffffff8111156109c6576109c5610f38565b5b6040519080825280602002602001820160405280156109ff57816020015b6109ec610ecf565b8152602001906001900390816109e45790505b5081602001819052506040518060a00160405280600163ffffffff168152602001600163ffffffff1681526020015f63ffffffff1681526020015f151581526020015f151581525081602001515f81518110610a5e57610a5d6112bc565b5b60200260200101819052505f6040518060400160405280600881526020017fdc8bfd5f8098939f0000000000000000000000000000000000000000000000008152509050808260400181905250600167ffffffffffffffff811115610ac657610ac5610f38565b5b604051908082528060200260200182016040528015610aff57816020015b610aec610eae565b815260200190600190039081610ae45790505b5083604001819052508183604001515f81518110610b2057610b1f6112bc565b5b60200260200101819052505f808573ffffffffffffffffffffffffffffffffffffffff1685604051602001610b5591906118ab565b604051602081830303815290604052604051610b7191906118cb565b5f60405180830381855afa9150503d805f8114610ba9576040519150601f19603f3d011682016040523d82523d5f602084013e610bae565b606091505b509150915081610bf3576040517f08c379a0000000000000000000000000000000000000000000000000000000008152600401610bea9061192b565b60405180910390fd5b610bfc81610d8d565b965050505050505090565b5f8082519050610c1681610c1e565b915050919050565b5f80825f1b905080601c60208110610c3957610c386112bc565b5b1a60f81b60f81c60ff16600882601d60208110610c5957610c586112bc565b5b1a60f81b60f81c60ff1663ffffffff16901b601083601e60208110610c8157610c806112bc565b5b1a60f81b60f81c60ff1663ffffffff16901b601884601f60208110610ca957610ca86112bc565b5b1a60f81b60f81c60ff1663ffffffff16901b17171760e01b915050919050565b60607ff8251662139e6d88d3b6f2a5aa0f6fa9f87ec5bbe2e7f41da6c2ee0f71e0ebbc610cf461080e565b8051906020012003610d4657610d3f826040518060400160405280600381526020017f65766d0000000000000000000000000000000000000000000000000000000000815250610197565b9050610d88565b610d85826040518060400160405280600381526020017f73766d0000000000000000000000000000000000000000000000000000000000815250610197565b90505b919050565b60605f60048351610d9e9190611c3f565b67ffffffffffffffff811115610db757610db6610f38565b5b6040519080825280601f01601f191660200182016040528015610de95781602001600182028036833780820191505090505b5090505f600490505b8351811015610e7357838181518110610e0e57610e0d6112bc565b5b602001015160f81c60f81b82600483610e279190611c3f565b81518110610e3857610e376112bc565b5b60200101907effffffffffffffffffffffffffffffffffffffffffffffffffffffffffffff191690815f1a9053508080600101915050610df2565b5080915050919050565b60405180608001604052806060815260200160608152602001606081526020015f67ffffffffffffffff1681525090565b60405180606001604052806060815260200160608152602001606081525090565b6040518060a001604052805f63ffffffff1681526020015f63ffffffff1681526020015f63ffffffff1681526020015f151581526020015f151581525090565b5f604051905090565b5f80fd5b5f80fd5b5f80fd5b5f80fd5b5f601f19601f8301169050919050565b7f4e487b71000000000000000000000000000000000000000000000000000000005f52604160045260245ffd5b610f6e82610f28565b810181811067ffffffffffffffff82111715610f8d57610f8c610f38565b5b80604052505050565b5f610f9f610f0f565b9050610fab8282610f65565b919050565b5f67ffffffffffffffff821115610fca57610fc9610f38565b5b610fd382610f28565b9050602081019050919050565b828183375f83830152505050565b5f611000610ffb84610fb0565b610f96565b90508281526020810184848401111561101c5761101b610f24565b5b611027848285610fe0565b509392505050565b5f82601f83011261104357611042610f20565b5b8135611053848260208601610fee565b91505092915050565b5f806040838503121561107257611071610f18565b5b5f83013567ffffffffffffffff81111561108f5761108e610f1c565b5b61109b8582860161102f565b925050602083013567ffffffffffffffff8111156110bc576110bb610f1c565b5b6110c88582860161102f565b9150509250929050565b5f81519050919050565b5f82825260208201905092915050565b8281835e5f83830152505050565b5f611104826110d2565b61110e81856110dc565b935061111e8185602086016110ec565b61112781610f28565b840191505092915050565b5f6020820190508181035f83015261114a81846110fa565b905092915050565b5f81519050919050565b5f82825260208201905092915050565b5f61117682611152565b611180818561115c565b93506111908185602086016110ec565b61119981610f28565b840191505092915050565b5f6020820190508181035f8301526111bc818461116c565b905092915050565b5f602082840312156111d9576111d8610f18565b5b5f82013567ffffffffffffffff8111156111f6576111f5610f1c565b5b6112028482850161102f565b91505092915050565b5f7fffffffff0000000000000000000000000000000000000000000000000000000082169050919050565b61123f8161120b565b82525050565b5f6020820190506112585f830184611236565b92915050565b5f819050919050565b6112708161125e565b811461127a575f80fd5b50565b5f8135905061128b81611267565b92915050565b5f602082840312156112a6576112a5610f18565b5b5f6112b38482850161127d565b91505092915050565b7f4e487b71000000000000000000000000000000000000000000000000000000005f52603260045260245ffd5b6112f28161120b565b81146112fc575f80fd5b50565b5f8151905061130d816112e9565b92915050565b5f6020828403121561132857611327610f18565b5b5f611335848285016112ff565b91505092915050565b5f81905092915050565b5f611352826110d2565b61135c818561133e565b935061136c8185602086016110ec565b80840191505092915050565b5f819050919050565b61139261138d8261120b565b611378565b82525050565b5f6113a38286611348565b91506113af8285611381565b6004820191506113bf8284611348565b9150819050949350505050565b5f81519050919050565b5f82825260208201905092915050565b5f819050602082019050919050565b5f82825260208201905092915050565b5f61140f82611152565b61141981856113f5565b93506114298185602086016110ec565b61143281610f28565b840191505092915050565b5f6114488383611405565b905092915050565b5f602082019050919050565b5f611466826113cc565b61147081856113d6565b935083602082028501611482856113e6565b805f5b858110156114bd578484038952815161149e858261143d565b94506114a983611450565b925060208a01995050600181019050611485565b50829750879550505050505092915050565b5f81519050919050565b5f82825260208201905092915050565b5f819050602082019050919050565b5f81519050919050565b5f82825260208201905092915050565b5f819050602082019050919050565b5f63ffffffff82169050919050565b61153981611521565b82525050565b5f61154a8383611530565b60208301905092915050565b5f602082019050919050565b5f61156c826114f8565b6115768185611502565b935061158183611512565b805f5b838110156115b1578151611598888261153f565b97506115a383611556565b925050600181019050611584565b5085935050505092915050565b5f81519050919050565b5f82825260208201905092915050565b5f819050602082019050919050565b5f8115159050919050565b6115fb816115e7565b82525050565b60a082015f8201516116155f850182611530565b5060208201516116286020850182611530565b50604082015161163b6040850182611530565b50606082015161164e60608501826115f2565b50608082015161166160808501826115f2565b50505050565b5f6116728383611601565b60a08301905092915050565b5f602082019050919050565b5f611694826115be565b61169e81856115c8565b93506116a9836115d8565b805f5b838110156116d95781516116c08882611667565b97506116cb8361167e565b9250506001810190506116ac565b5085935050505092915050565b5f82825260208201905092915050565b5f611700826110d2565b61170a81856116e6565b935061171a8185602086016110ec565b61172381610f28565b840191505092915050565b5f606083015f8301518482035f8601526117488282611562565b91505060208301518482036020860152611762828261168a565b9150506040830151848203604086015261177c82826116f6565b9150508091505092915050565b5f611794838361172e565b905092915050565b5f602082019050919050565b5f6117b2826114cf565b6117bc81856114d9565b9350836020820285016117ce856114e9565b805f5b8581101561180957848403895281516117ea8582611789565b94506117f58361179c565b925060208a019950506001810190506117d1565b50829750879550505050505092915050565b5f67ffffffffffffffff82169050919050565b6118378161181b565b82525050565b5f608083015f8301518482035f860152611857828261145c565b91505060208301518482036020860152611871828261145c565b9150506040830151848203604086015261188b82826117a8565b91505060608301516118a0606086018261182e565b508091505092915050565b5f6020820190508181035f8301526118c3818461183d565b905092915050565b5f6118d68284611348565b915081905092915050565b7f63616c6c206d75737420737563636565640000000000000000000000000000005f82015250565b5f61191560118361115c565b9150611920826118e1565b602082019050919050565b5f6020820190508181035f83015261194281611909565b9050919050565b7f4e487b71000000000000000000000000000000000000000000000000000000005f52602260045260245ffd5b5f600282049050600182168061198d57607f821691505b6020821081036119a05761199f611949565b5b50919050565b5f819050815f5260205f209050919050565b5f6020601f8301049050919050565b5f82821b905092915050565b5f60088302611a027fffffffffffffffffffffffffffffffffffffffffffffffffffffffffffffffff826119c7565b611a0c86836119c7565b95508019841693508086168417925050509392505050565b5f819050919050565b5f611a47611a42611a3d8461125e565b611a24565b61125e565b9050919050565b5f819050919050565b611a6083611a2d565b611a74611a6c82611a4e565b8484546119d3565b825550505050565b5f90565b611a88611a7c565b611a93818484611a57565b505050565b5b81811015611ab657611aab5f82611a80565b600181019050611a99565b5050565b601f821115611afb57611acc816119a6565b611ad5846119b8565b81016020851015611ae4578190505b611af8611af0856119b8565b830182611a98565b50505b505050565b5f82821c905092915050565b5f611b1b5f1984600802611b00565b1980831691505092915050565b5f611b338383611b0c565b9150826002028217905092915050565b611b4c82611152565b67ffffffffffffffff811115611b6557611b64610f38565b5b611b6f8254611976565b611b7a828285611aba565b5f60209050601f831160018114611bab575f8415611b99578287015190505b611ba38582611b28565b865550611c0a565b601f198416611bb9866119a6565b5f5b82811015611be057848901518255600182019150602085019450602081019050611bbb565b86831015611bfd5784890151611bf9601f891682611b0c565b8355505b6001600288020188555050505b505050505050565b7f4e487b71000000000000000000000000000000000000000000000000000000005f52601160045260245ffd5b5f611c498261125e565b9150611c548361125e565b9250828203905081811115611c6c57611c6b611c12565b5b9291505056fe38337a665a596163467247713565426e6e703645515078617063706a7078646a414b704c61767174534a333232327a36483644655734554c4279514b4c455274486a536f44654669754369693876334e754c534166326462a26469706673582212203c43659d8edb530bc9bd19e1c3c036162b63ef38659f5759e0cfae3d7dff230164736f6c634300081a0033', \n     arguments: [\n     ]\n}).send({\n     from: web3.eth.accounts[0], \n     gas: '4700000'\n   }, function (e, contract){\n    console.log(e, contract);\n    if (typeof contract.address !== 'undefined') {\n         console.log('Contract mined! address: ' + contract.address + ' transactionHash: ' + contract.transactionHash);\n    }\n })",
	"functionHashes": {
		"db21155e": "conditionalSetSvm(string)",
		"3163d265": "evmString()",
		"ac977793": "getStringLengthLE(string)",
		"6b3d63de": "getSvm()",
		"4ed3885e": "set(string)",
		"2642a129": "setSvm(string,string)",
		"c732d64f": "toLittleEndian(uint256)"
	},
	"gasEstimates": {
		"Creation": {
			"codeDepositCost": "1484800",
			"executionCost": "1546",
			"totalCost": "1486346"
		},
		"External": {
			"conditionalSetSvm(string)": "infinite",
			"evmString()": "infinite",
			"getStringLengthLE(string)": "infinite",
			"getSvm()": "infinite",
			"set(string)": "infinite",
			"setSvm(string,string)": "infinite",
			"toLittleEndian(uint256)": "918"
		},
		"Internal": {
			"parseSvmResponse(bytes memory)": "infinite"
		}
	},
	"devdoc": {
		"kind": "dev",
		"methods": {},
		"version": 1
	},
	"userdoc": {
		"kind": "user",
		"methods": {},
		"version": 1
	},
	"Runtime Bytecode": {
		"immutableReferences": {},
		"linkReferences": {},
		"object": "608060405234801561000f575f80fd5b506004361061007b575f3560e01c80636b3d63de116100595780636b3d63de146100e9578063ac97779314610107578063c732d64f14610137578063db21155e146101675761007b565b80632642a1291461007f5780633163d265146100af5780634ed3885e146100cd575b5f80fd5b6100996004803603810190610094919061105c565b610197565b6040516100a69190611132565b60405180910390f35b6100b7610771565b6040516100c491906111a4565b60405180910390f35b6100e760048036038101906100e291906111c4565b6107fc565b005b6100f161080e565b6040516100fe91906111a4565b60405180910390f35b610121600480360381019061011c91906111c4565b610c07565b60405161012e9190611245565b60405180910390f35b610151600480360381019061014c9190611291565b610c1e565b60405161015e9190611245565b60405180910390f35b610181600480360381019061017c91906111c4565b610cc9565b60405161018e9190611132565b60405180910390f35b60605f73ab6b4d064c968eca87f775d2493a222987052bc090506101b9610e7d565b600467ffffffffffffffff8111156101d4576101d3610f38565b5b60405190808252806020026020018201604052801561020757816020015b60608152602001906001900390816101f25790505b5081602001819052506040518060600160405280602c8152602001611c73602c913981602001515f815181106102405761023f6112bc565b5b60200260200101819052506040518060600160405280602c8152602001611c9f602c9139816020015160018151811061027c5761027b6112bc565b5b60200260200101819052508481602001516002815181106102a05761029f6112bc565b5b60200260200101819052506040518060400160405280602081526020017f313131313131313131313131313131313131313131313131313131313131313181525081602001516003815181106102f9576102f86112bc565b5b6020026020010181905250620f4240816060019067ffffffffffffffff16908167ffffffffffffffff168152505061032f610eae565b600167ffffffffffffffff81111561034a57610349610f38565b5b6040519080825280602002602001820160405280156103785781602001602082028036833780820191505090505b50815f01819052505f815f01515f81518110610397576103966112bc565b5b602002602001019063ffffffff16908163ffffffff1681525050600367ffffffffffffffff8111156103cc576103cb610f38565b5b60405190808252806020026020018201604052801561040557816020015b6103f2610ecf565b8152602001906001900390816103ea5790505b5081602001819052506040518060a00160405280600163ffffffff168152602001600163ffffffff1681526020015f63ffffffff1681526020015f151581526020016001151581525081602001515f81518110610465576104646112bc565b5b60200260200101819052506040518060a00160405280600263ffffffff168152602001600263ffffffff168152602001600163ffffffff1681526020016001151581526020016001151581525081602001516001815181106104ca576104c96112bc565b5b60200260200101819052506040518060a00160405280600363ffffffff168152602001600363ffffffff168152602001600263ffffffff1681526020015f151581526020015f1515815250816020015160028151811061052d5761052c6112bc565b5b60200260200101819052505f6040518060400160405280600881526020017fdf725b88c54e999900000000000000000000000000000000000000000000000081525090505f3073ffffffffffffffffffffffffffffffffffffffff1663ac977793886040518263ffffffff1660e01b81526004016105ab91906111a4565b602060405180830381865afa1580156105c6573d5f803e3d5ffd5b505050506040513d601f19601f820116820180604052508101906105ea9190611313565b905081818860405160200161060193929190611398565b6040516020818303038152906040528360400181905250600167ffffffffffffffff81111561063357610632610f38565b5b60405190808252806020026020018201604052801561066c57816020015b610659610eae565b8152602001906001900390816106515790505b5084604001819052508284604001515f8151811061068d5761068c6112bc565b5b60200260200101819052505f808673ffffffffffffffffffffffffffffffffffffffff16866040516020016106c291906118ab565b6040516020818303038152906040526040516106de91906118cb565b5f604051808303815f865af19150503d805f8114610717576040519150601f19603f3d011682016040523d82523d5f602084013e61071c565b606091505b509150915081610761576040517f08c379a00000000000000000000000000000000000000000000000000000000081526004016107589061192b565b60405180910390fd5b8097505050505050505092915050565b5f805461077d90611976565b80601f01602080910402602001604051908101604052809291908181526020018280546107a990611976565b80156107f45780601f106107cb576101008083540402835291602001916107f4565b820191905f5260205f20905b8154815290600101906020018083116107d757829003601f168201915b505050505081565b805f908161080a9190611b43565b5050565b60605f73ab6b4d064c968eca87f775d2493a222987052bc09050610830610e7d565b600267ffffffffffffffff81111561084b5761084a610f38565b5b60405190808252806020026020018201604052801561087e57816020015b60608152602001906001900390816108695790505b5081602001819052506040518060600160405280602c8152602001611c73602c913981602001515f815181106108b7576108b66112bc565b5b60200260200101819052506040518060600160405280602c8152602001611c9f602c913981602001516001815181106108f3576108f26112bc565b5b6020026020010181905250620f4240816060019067ffffffffffffffff16908167ffffffffffffffff1681525050610929610eae565b600167ffffffffffffffff81111561094457610943610f38565b5b6040519080825280602002602001820160405280156109725781602001602082028036833780820191505090505b50815f01819052505f815f01515f81518110610991576109906112bc565b5b602002602001019063ffffffff16908163ffffffff1681525050600167ffffffffffffffff8111156109c6576109c5610f38565b5b6040519080825280602002602001820160405280156109ff57816020015b6109ec610ecf565b8152602001906001900390816109e45790505b5081602001819052506040518060a00160405280600163ffffffff168152602001600163ffffffff1681526020015f63ffffffff1681526020015f151581526020015f151581525081602001515f81518110610a5e57610a5d6112bc565b5b60200260200101819052505f6040518060400160405280600881526020017fdc8bfd5f8098939f0000000000000000000000000000000000000000000000008152509050808260400181905250600167ffffffffffffffff811115610ac657610ac5610f38565b5b604051908082528060200260200182016040528015610aff57816020015b610aec610eae565b815260200190600190039081610ae45790505b5083604001819052508183604001515f81518110610b2057610b1f6112bc565b5b60200260200101819052505f808573ffffffffffffffffffffffffffffffffffffffff1685604051602001610b5591906118ab565b604051602081830303815290604052604051610b7191906118cb565b5f60405180830381855afa9150503d805f8114610ba9576040519150601f19603f3d011682016040523d82523d5f602084013e610bae565b606091505b509150915081610bf3576040517f08c379a0000000000000000000000000000000000000000000000000000000008152600401610bea9061192b565b60405180910390fd5b610bfc81610d8d565b965050505050505090565b5f8082519050610c1681610c1e565b915050919050565b5f80825f1b905080601c60208110610c3957610c386112bc565b5b1a60f81b60f81c60ff16600882601d60208110610c5957610c586112bc565b5b1a60f81b60f81c60ff1663ffffffff16901b601083601e60208110610c8157610c806112bc565b5b1a60f81b60f81c60ff1663ffffffff16901b601884601f60208110610ca957610ca86112bc565b5b1a60f81b60f81c60ff1663ffffffff16901b17171760e01b915050919050565b60607ff8251662139e6d88d3b6f2a5aa0f6fa9f87ec5bbe2e7f41da6c2ee0f71e0ebbc610cf461080e565b8051906020012003610d4657610d3f826040518060400160405280600381526020017f65766d0000000000000000000000000000000000000000000000000000000000815250610197565b9050610d88565b610d85826040518060400160405280600381526020017f73766d0000000000000000000000000000000000000000000000000000000000815250610197565b90505b919050565b60605f60048351610d9e9190611c3f565b67ffffffffffffffff811115610db757610db6610f38565b5b6040519080825280601f01601f191660200182016040528015610de95781602001600182028036833780820191505090505b5090505f600490505b8351811015610e7357838181518110610e0e57610e0d6112bc565b5b602001015160f81c60f81b82600483610e279190611c3f565b81518110610e3857610e376112bc565b5b60200101907effffffffffffffffffffffffffffffffffffffffffffffffffffffffffffff191690815f1a9053508080600101915050610df2565b5080915050919050565b60405180608001604052806060815260200160608152602001606081526020015f67ffffffffffffffff1681525090565b60405180606001604052806060815260200160608152602001606081525090565b6040518060a001604052805f63ffffffff1681526020015f63ffffffff1681526020015f63ffffffff1681526020015f151581526020015f151581525090565b5f604051905090565b5f80fd5b5f80fd5b5f80fd5b5f80fd5b5f601f19601f8301169050919050565b7f4e487b71000000000000000000000000000000000000000000000000000000005f52604160045260245ffd5b610f6e82610f28565b810181811067ffffffffffffffff82111715610f8d57610f8c610f38565b5b80604052505050565b5f610f9f610f0f565b9050610fab8282610f65565b919050565b5f67ffffffffffffffff821115610fca57610fc9610f38565b5b610fd382610f28565b9050602081019050919050565b828183375f83830152505050565b5f611000610ffb84610fb0565b610f96565b90508281526020810184848401111561101c5761101b610f24565b5b611027848285610fe0565b509392505050565b5f82601f83011261104357611042610f20565b5b8135611053848260208601610fee565b91505092915050565b5f806040838503121561107257611071610f18565b5b5f83013567ffffffffffffffff81111561108f5761108e610f1c565b5b61109b8582860161102f565b925050602083013567ffffffffffffffff8111156110bc576110bb610f1c565b5b6110c88582860161102f565b9150509250929050565b5f81519050919050565b5f82825260208201905092915050565b8281835e5f83830152505050565b5f611104826110d2565b61110e81856110dc565b935061111e8185602086016110ec565b61112781610f28565b840191505092915050565b5f6020820190508181035f83015261114a81846110fa565b905092915050565b5f81519050919050565b5f82825260208201905092915050565b5f61117682611152565b611180818561115c565b93506111908185602086016110ec565b61119981610f28565b840191505092915050565b5f6020820190508181035f8301526111bc818461116c565b905092915050565b5f602082840312156111d9576111d8610f18565b5b5f82013567ffffffffffffffff8111156111f6576111f5610f1c565b5b6112028482850161102f565b91505092915050565b5f7fffffffff0000000000000000000000000000000000000000000000000000000082169050919050565b61123f8161120b565b82525050565b5f6020820190506112585f830184611236565b92915050565b5f819050919050565b6112708161125e565b811461127a575f80fd5b50565b5f8135905061128b81611267565b92915050565b5f602082840312156112a6576112a5610f18565b5b5f6112b38482850161127d565b91505092915050565b7f4e487b71000000000000000000000000000000000000000000000000000000005f52603260045260245ffd5b6112f28161120b565b81146112fc575f80fd5b50565b5f8151905061130d816112e9565b92915050565b5f6020828403121561132857611327610f18565b5b5f611335848285016112ff565b91505092915050565b5f81905092915050565b5f611352826110d2565b61135c818561133e565b935061136c8185602086016110ec565b80840191505092915050565b5f819050919050565b61139261138d8261120b565b611378565b82525050565b5f6113a38286611348565b91506113af8285611381565b6004820191506113bf8284611348565b9150819050949350505050565b5f81519050919050565b5f82825260208201905092915050565b5f819050602082019050919050565b5f82825260208201905092915050565b5f61140f82611152565b61141981856113f5565b93506114298185602086016110ec565b61143281610f28565b840191505092915050565b5f6114488383611405565b905092915050565b5f602082019050919050565b5f611466826113cc565b61147081856113d6565b935083602082028501611482856113e6565b805f5b858110156114bd578484038952815161149e858261143d565b94506114a983611450565b925060208a01995050600181019050611485565b50829750879550505050505092915050565b5f81519050919050565b5f82825260208201905092915050565b5f819050602082019050919050565b5f81519050919050565b5f82825260208201905092915050565b5f819050602082019050919050565b5f63ffffffff82169050919050565b61153981611521565b82525050565b5f61154a8383611530565b60208301905092915050565b5f602082019050919050565b5f61156c826114f8565b6115768185611502565b935061158183611512565b805f5b838110156115b1578151611598888261153f565b97506115a383611556565b925050600181019050611584565b5085935050505092915050565b5f81519050919050565b5f82825260208201905092915050565b5f819050602082019050919050565b5f8115159050919050565b6115fb816115e7565b82525050565b60a082015f8201516116155f850182611530565b5060208201516116286020850182611530565b50604082015161163b6040850182611530565b50606082015161164e60608501826115f2565b50608082015161166160808501826115f2565b50505050565b5f6116728383611601565b60a08301905092915050565b5f602082019050919050565b5f611694826115be565b61169e81856115c8565b93506116a9836115d8565b805f5b838110156116d95781516116c08882611667565b97506116cb8361167e565b9250506001810190506116ac565b5085935050505092915050565b5f82825260208201905092915050565b5f611700826110d2565b61170a81856116e6565b935061171a8185602086016110ec565b61172381610f28565b840191505092915050565b5f606083015f8301518482035f8601526117488282611562565b91505060208301518482036020860152611762828261168a565b9150506040830151848203604086015261177c82826116f6565b9150508091505092915050565b5f611794838361172e565b905092915050565b5f602082019050919050565b5f6117b2826114cf565b6117bc81856114d9565b9350836020820285016117ce856114e9565b805f5b8581101561180957848403895281516117ea8582611789565b94506117f58361179c565b925060208a019950506001810190506117d1565b50829750879550505050505092915050565b5f67ffffffffffffffff82169050919050565b6118378161181b565b82525050565b5f608083015f8301518482035f860152611857828261145c565b91505060208301518482036020860152611871828261145c565b9150506040830151848203604086015261188b82826117a8565b91505060608301516118a0606086018261182e565b508091505092915050565b5f6020820190508181035f8301526118c3818461183d565b905092915050565b5f6118d68284611348565b915081905092915050565b7f63616c6c206d75737420737563636565640000000000000000000000000000005f82015250565b5f61191560118361115c565b9150611920826118e1565b602082019050919050565b5f6020820190508181035f83015261194281611909565b9050919050565b7f4e487b71000000000000000000000000000000000000000000000000000000005f52602260045260245ffd5b5f600282049050600182168061198d57607f821691505b6020821081036119a05761199f611949565b5b50919050565b5f819050815f5260205f209050919050565b5f6020601f8301049050919050565b5f82821b905092915050565b5f60088302611a027fffffffffffffffffffffffffffffffffffffffffffffffffffffffffffffffff826119c7565b611a0c86836119c7565b95508019841693508086168417925050509392505050565b5f819050919050565b5f611a47611a42611a3d8461125e565b611a24565b61125e565b9050919050565b5f819050919050565b611a6083611a2d565b611a74611a6c82611a4e565b8484546119d3565b825550505050565b5f90565b611a88611a7c565b611a93818484611a57565b505050565b5b81811015611ab657611aab5f82611a80565b600181019050611a99565b5050565b601f821115611afb57611acc816119a6565b611ad5846119b8565b81016020851015611ae4578190505b611af8611af0856119b8565b830182611a98565b50505b505050565b5f82821c905092915050565b5f611b1b5f1984600802611b00565b1980831691505092915050565b5f611b338383611b0c565b9150826002028217905092915050565b611b4c82611152565b67ffffffffffffffff811115611b6557611b64610f38565b5b611b6f8254611976565b611b7a828285611aba565b5f60209050601f831160018114611bab575f8415611b99578287015190505b611ba38582611b28565b865550611c0a565b601f198416611bb9866119a6565b5f5b82811015611be057848901518255600182019150602085019450602081019050611bbb565b86831015611bfd5784890151611bf9601f891682611b0c565b8355505b6001600288020188555050505b505050505050565b7f4e487b71000000000000000000000000000000000000000000000000000000005f52601160045260245ffd5b5f611c498261125e565b9150611c548361125e565b9250828203905081811115611c6c57611c6b611c12565b5b9291505056fe38337a665a596163467247713565426e6e703645515078617063706a7078646a414b704c61767174534a333232327a36483644655734554c4279514b4c455274486a536f44654669754369693876334e754c534166326462a26469706673582212203c43659d8edb530bc9bd19e1c3c036162b63ef38659f5759e0cfae3d7dff230164736f6c634300081a0033",
		"opcodes": "PUSH1 0x80 PUSH1 0x40 MSTORE CALLVALUE DUP1 ISZERO PUSH2 0xF JUMPI PUSH0 DUP1 REVERT JUMPDEST POP PUSH1 0x4 CALLDATASIZE LT PUSH2 0x7B JUMPI PUSH0 CALLDATALOAD PUSH1 0xE0 SHR DUP1 PUSH4 0x6B3D63DE GT PUSH2 0x59 JUMPI DUP1 PUSH4 0x6B3D63DE EQ PUSH2 0xE9 JUMPI DUP1 PUSH4 0xAC977793 EQ PUSH2 0x107 JUMPI DUP1 PUSH4 0xC732D64F EQ PUSH2 0x137 JUMPI DUP1 PUSH4 0xDB21155E EQ PUSH2 0x167 JUMPI PUSH2 0x7B JUMP JUMPDEST DUP1 PUSH4 0x2642A129 EQ PUSH2 0x7F JUMPI DUP1 PUSH4 0x3163D265 EQ PUSH2 0xAF JUMPI DUP1 PUSH4 0x4ED3885E EQ PUSH2 0xCD JUMPI JUMPDEST PUSH0 DUP1 REVERT JUMPDEST PUSH2 0x99 PUSH1 0x4 DUP1 CALLDATASIZE SUB DUP2 ADD SWAP1 PUSH2 0x94 SWAP2 SWAP1 PUSH2 0x105C JUMP JUMPDEST PUSH2 0x197 JUMP JUMPDEST PUSH1 0x40 MLOAD PUSH2 0xA6 SWAP2 SWAP1 PUSH2 0x1132 JUMP JUMPDEST PUSH1 0x40 MLOAD DUP1 SWAP2 SUB SWAP1 RETURN JUMPDEST PUSH2 0xB7 PUSH2 0x771 JUMP JUMPDEST PUSH1 0x40 MLOAD PUSH2 0xC4 SWAP2 SWAP1 PUSH2 0x11A4 JUMP JUMPDEST PUSH1 0x40 MLOAD DUP1 SWAP2 SUB SWAP1 RETURN JUMPDEST PUSH2 0xE7 PUSH1 0x4 DUP1 CALLDATASIZE SUB DUP2 ADD SWAP1 PUSH2 0xE2 SWAP2 SWAP1 PUSH2 0x11C4 JUMP JUMPDEST PUSH2 0x7FC JUMP JUMPDEST STOP JUMPDEST PUSH2 0xF1 PUSH2 0x80E JUMP JUMPDEST PUSH1 0x40 MLOAD PUSH2 0xFE SWAP2 SWAP1 PUSH2 0x11A4 JUMP JUMPDEST PUSH1 0x40 MLOAD DUP1 SWAP2 SUB SWAP1 RETURN JUMPDEST PUSH2 0x121 PUSH1 0x4 DUP1 CALLDATASIZE SUB DUP2 ADD SWAP1 PUSH2 0x11C SWAP2 SWAP1 PUSH2 0x11C4 JUMP JUMPDEST PUSH2 0xC07 JUMP JUMPDEST PUSH1 0x40 MLOAD PUSH2 0x12E SWAP2 SWAP1 PUSH2 0x1245 JUMP JUMPDEST PUSH1 0x40 MLOAD DUP1 SWAP2 SUB SWAP1 RETURN JUMPDEST PUSH2 0x151 PUSH1 0x4 DUP1 CALLDATASIZE SUB DUP2 ADD SWAP1 PUSH2 0x14C SWAP2 SWAP1 PUSH2 0x1291 JUMP JUMPDEST PUSH2 0xC1E JUMP JUMPDEST PUSH1 0x40 MLOAD PUSH2 0x15E SWAP2 SWAP1 PUSH2 0x1245 JUMP JUMPDEST PUSH1 0x40 MLOAD DUP1 SWAP2 SUB SWAP1 RETURN JUMPDEST PUSH2 0x181 PUSH1 0x4 DUP1 CALLDATASIZE SUB DUP2 ADD SWAP1 PUSH2 0x17C SWAP2 SWAP1 PUSH2 0x11C4 JUMP JUMPDEST PUSH2 0xCC9 JUMP JUMPDEST PUSH1 0x40 MLOAD PUSH2 0x18E SWAP2 SWAP1 PUSH2 0x1132 JUMP JUMPDEST PUSH1 0x40 MLOAD DUP1 SWAP2 SUB SWAP1 RETURN JUMPDEST PUSH1 0x60 PUSH0 PUSH20 0xAB6B4D064C968ECA87F775D2493A222987052BC0 SWAP1 POP PUSH2 0x1B9 PUSH2 0xE7D JUMP JUMPDEST PUSH1 0x4 PUSH8 0xFFFFFFFFFFFFFFFF DUP2 GT ISZERO PUSH2 0x1D4 JUMPI PUSH2 0x1D3 PUSH2 0xF38 JUMP JUMPDEST JUMPDEST PUSH1 0x40 MLOAD SWAP1 DUP1 DUP3 MSTORE DUP1 PUSH1 0x20 MUL PUSH1 0x20 ADD DUP3 ADD PUSH1 0x40 MSTORE DUP1 ISZERO PUSH2 0x207 JUMPI DUP2 PUSH1 0x20 ADD JUMPDEST PUSH1 0x60 DUP2 MSTORE PUSH1 0x20 ADD SWAP1 PUSH1 0x1 SWAP1 SUB SWAP1 DUP2 PUSH2 0x1F2 JUMPI SWAP1 POP JUMPDEST POP DUP2 PUSH1 0x20 ADD DUP2 SWAP1 MSTORE POP PUSH1 0x40 MLOAD DUP1 PUSH1 0x60 ADD PUSH1 0x40 MSTORE DUP1 PUSH1 0x2C DUP2 MSTORE PUSH1 0x20 ADD PUSH2 0x1C73 PUSH1 0x2C SWAP2 CODECOPY DUP2 PUSH1 0x20 ADD MLOAD PUSH0 DUP2 MLOAD DUP2 LT PUSH2 0x240 JUMPI PUSH2 0x23F PUSH2 0x12BC JUMP JUMPDEST JUMPDEST PUSH1 0x20 MUL PUSH1 0x20 ADD ADD DUP2 SWAP1 MSTORE POP PUSH1 0x40 MLOAD DUP1 PUSH1 0x60 ADD PUSH1 0x40 MSTORE DUP1 PUSH1 0x2C DUP2 MSTORE PUSH1 0x20 ADD PUSH2 0x1C9F PUSH1 0x2C SWAP2 CODECOPY DUP2 PUSH1 0x20 ADD MLOAD PUSH1 0x1 DUP2 MLOAD DUP2 LT PUSH2 0x27C JUMPI PUSH2 0x27B PUSH2 0x12BC JUMP JUMPDEST JUMPDEST PUSH1 0x20 MUL PUSH1 0x20 ADD ADD DUP2 SWAP1 MSTORE POP DUP5 DUP2 PUSH1 0x20 ADD MLOAD PUSH1 0x2 DUP2 MLOAD DUP2 LT PUSH2 0x2A0 JUMPI PUSH2 0x29F PUSH2 0x12BC JUMP JUMPDEST JUMPDEST PUSH1 0x20 MUL PUSH1 0x20 ADD ADD DUP2 SWAP1 MSTORE POP PUSH1 0x40 MLOAD DUP1 PUSH1 0x40 ADD PUSH1 0x40 MSTORE DUP1 PUSH1 0x20 DUP2 MSTORE PUSH1 0x20 ADD PUSH32 0x3131313131313131313131313131313131313131313131313131313131313131 DUP2 MSTORE POP DUP2 PUSH1 0x20 ADD MLOAD PUSH1 0x3 DUP2 MLOAD DUP2 LT PUSH2 0x2F9 JUMPI PUSH2 0x2F8 PUSH2 0x12BC JUMP JUMPDEST JUMPDEST PUSH1 0x20 MUL PUSH1 0x20 ADD ADD DUP2 SWAP1 MSTORE POP PUSH3 0xF4240 DUP2 PUSH1 0x60 ADD SWAP1 PUSH8 0xFFFFFFFFFFFFFFFF AND SWAP1 DUP2 PUSH8 0xFFFFFFFFFFFFFFFF AND DUP2 MSTORE POP POP PUSH2 0x32F PUSH2 0xEAE JUMP JUMPDEST PUSH1 0x1 PUSH8 0xFFFFFFFFFFFFFFFF DUP2 GT ISZERO PUSH2 0x34A JUMPI PUSH2 0x349 PUSH2 0xF38 JUMP JUMPDEST JUMPDEST PUSH1 0x40 MLOAD SWAP1 DUP1 DUP3 MSTORE DUP1 PUSH1 0x20 MUL PUSH1 0x20 ADD DUP3 ADD PUSH1 0x40 MSTORE DUP1 ISZERO PUSH2 0x378 JUMPI DUP2 PUSH1 0x20 ADD PUSH1 0x20 DUP3 MUL DUP1 CALLDATASIZE DUP4 CALLDATACOPY DUP1 DUP3 ADD SWAP2 POP POP SWAP1 POP JUMPDEST POP DUP2 PUSH0 ADD DUP2 SWAP1 MSTORE POP PUSH0 DUP2 PUSH0 ADD MLOAD PUSH0 DUP2 MLOAD DUP2 LT PUSH2 0x397 JUMPI PUSH2 0x396 PUSH2 0x12BC JUMP JUMPDEST JUMPDEST PUSH1 0x20 MUL PUSH1 0x20 ADD ADD SWAP1 PUSH4 0xFFFFFFFF AND SWAP1 DUP2 PUSH4 0xFFFFFFFF AND DUP2 MSTORE POP POP PUSH1 0x3 PUSH8 0xFFFFFFFFFFFFFFFF DUP2 GT ISZERO PUSH2 0x3CC JUMPI PUSH2 0x3CB PUSH2 0xF38 JUMP JUMPDEST JUMPDEST PUSH1 0x40 MLOAD SWAP1 DUP1 DUP3 MSTORE DUP1 PUSH1 0x20 MUL PUSH1 0x20 ADD DUP3 ADD PUSH1 0x40 MSTORE DUP1 ISZERO PUSH2 0x405 JUMPI DUP2 PUSH1 0x20 ADD JUMPDEST PUSH2 0x3F2 PUSH2 0xECF JUMP JUMPDEST DUP2 MSTORE PUSH1 0x20 ADD SWAP1 PUSH1 0x1 SWAP1 SUB SWAP1 DUP2 PUSH2 0x3EA JUMPI SWAP1 POP JUMPDEST POP DUP2 PUSH1 0x20 ADD DUP2 SWAP1 MSTORE POP PUSH1 0x40 MLOAD DUP1 PUSH1 0xA0 ADD PUSH1 0x40 MSTORE DUP1 PUSH1 0x1 PUSH4 0xFFFFFFFF AND DUP2 MSTORE PUSH1 0x20 ADD PUSH1 0x1 PUSH4 0xFFFFFFFF AND DUP2 MSTORE PUSH1 0x20 ADD PUSH0 PUSH4 0xFFFFFFFF AND DUP2 MSTORE PUSH1 0x20 ADD PUSH0 ISZERO ISZERO DUP2 MSTORE PUSH1 0x20 ADD PUSH1 0x1 ISZERO ISZERO DUP2 MSTORE POP DUP2 PUSH1 0x20 ADD MLOAD PUSH0 DUP2 MLOAD DUP2 LT PUSH2 0x465 JUMPI PUSH2 0x464 PUSH2 0x12BC JUMP JUMPDEST JUMPDEST PUSH1 0x20 MUL PUSH1 0x20 ADD ADD DUP2 SWAP1 MSTORE POP PUSH1 0x40 MLOAD DUP1 PUSH1 0xA0 ADD PUSH1 0x40 MSTORE DUP1 PUSH1 0x2 PUSH4 0xFFFFFFFF AND DUP2 MSTORE PUSH1 0x20 ADD PUSH1 0x2 PUSH4 0xFFFFFFFF AND DUP2 MSTORE PUSH1 0x20 ADD PUSH1 0x1 PUSH4 0xFFFFFFFF AND DUP2 MSTORE PUSH1 0x20 ADD PUSH1 0x1 ISZERO ISZERO DUP2 MSTORE PUSH1 0x20 ADD PUSH1 0x1 ISZERO ISZERO DUP2 MSTORE POP DUP2 PUSH1 0x20 ADD MLOAD PUSH1 0x1 DUP2 MLOAD DUP2 LT PUSH2 0x4CA JUMPI PUSH2 0x4C9 PUSH2 0x12BC JUMP JUMPDEST JUMPDEST PUSH1 0x20 MUL PUSH1 0x20 ADD ADD DUP2 SWAP1 MSTORE POP PUSH1 0x40 MLOAD DUP1 PUSH1 0xA0 ADD PUSH1 0x40 MSTORE DUP1 PUSH1 0x3 PUSH4 0xFFFFFFFF AND DUP2 MSTORE PUSH1 0x20 ADD PUSH1 0x3 PUSH4 0xFFFFFFFF AND DUP2 MSTORE PUSH1 0x20 ADD PUSH1 0x2 PUSH4 0xFFFFFFFF AND DUP2 MSTORE PUSH1 0x20 ADD PUSH0 ISZERO ISZERO DUP2 MSTORE PUSH1 0x20 ADD PUSH0 ISZERO ISZERO DUP2 MSTORE POP DUP2 PUSH1 0x20 ADD MLOAD PUSH1 0x2 DUP2 MLOAD DUP2 LT PUSH2 0x52D JUMPI PUSH2 0x52C PUSH2 0x12BC JUMP JUMPDEST JUMPDEST PUSH1 0x20 MUL PUSH1 0x20 ADD ADD DUP2 SWAP1 MSTORE POP PUSH0 PUSH1 0x40 MLOAD DUP1 PUSH1 0x40 ADD PUSH1 0x40 MSTORE DUP1 PUSH1 0x8 DUP2 MSTORE PUSH1 0x20 ADD PUSH32 0xDF725B88C54E9999000000000000000000000000000000000000000000000000 DUP2 MSTORE POP SWAP1 POP PUSH0 ADDRESS PUSH20 0xFFFFFFFFFFFFFFFFFFFFFFFFFFFFFFFFFFFFFFFF AND PUSH4 0xAC977793 DUP9 PUSH1 0x40 MLOAD DUP3 PUSH4 0xFFFFFFFF AND PUSH1 0xE0 SHL DUP2 MSTORE PUSH1 0x4 ADD PUSH2 0x5AB SWAP2 SWAP1 PUSH2 0x11A4 JUMP JUMPDEST PUSH1 0x20 PUSH1 0x40 MLOAD DUP1 DUP4 SUB DUP2 DUP7 GAS STATICCALL ISZERO DUP1 ISZERO PUSH2 0x5C6 JUMPI RETURNDATASIZE PUSH0 DUP1 RETURNDATACOPY RETURNDATASIZE PUSH0 REVERT JUMPDEST POP POP POP POP PUSH1 0x40 MLOAD RETURNDATASIZE PUSH1 0x1F NOT PUSH1 0x1F DUP3 ADD AND DUP3 ADD DUP1 PUSH1 0x40 MSTORE POP DUP2 ADD SWAP1 PUSH2 0x5EA SWAP2 SWAP1 PUSH2 0x1313 JUMP JUMPDEST SWAP1 POP DUP2 DUP2 DUP9 PUSH1 0x40 MLOAD PUSH1 0x20 ADD PUSH2 0x601 SWAP4 SWAP3 SWAP2 SWAP1 PUSH2 0x1398 JUMP JUMPDEST PUSH1 0x40 MLOAD PUSH1 0x20 DUP2 DUP4 SUB SUB DUP2 MSTORE SWAP1 PUSH1 0x40 MSTORE DUP4 PUSH1 0x40 ADD DUP2 SWAP1 MSTORE POP PUSH1 0x1 PUSH8 0xFFFFFFFFFFFFFFFF DUP2 GT ISZERO PUSH2 0x633 JUMPI PUSH2 0x632 PUSH2 0xF38 JUMP JUMPDEST JUMPDEST PUSH1 0x40 MLOAD SWAP1 DUP1 DUP3 MSTORE DUP1 PUSH1 0x20 MUL PUSH1 0x20 ADD DUP3 ADD PUSH1 0x40 MSTORE DUP1 ISZERO PUSH2 0x66C JUMPI DUP2 PUSH1 0x20 ADD JUMPDEST PUSH2 0x659 PUSH2 0xEAE JUMP JUMPDEST DUP2 MSTORE PUSH1 0x20 ADD SWAP1 PUSH1 0x1 SWAP1 SUB SWAP1 DUP2 PUSH2 0x651 JUMPI SWAP1 POP JUMPDEST POP DUP5 PUSH1 0x40 ADD DUP2 SWAP1 MSTORE POP DUP3 DUP5 PUSH1 0x40 ADD MLOAD PUSH0 DUP2 MLOAD DUP2 LT PUSH2 0x68D JUMPI PUSH2 0x68C PUSH2 0x12BC JUMP JUMPDEST JUMPDEST PUSH1 0x20 MUL PUSH1 0x20 ADD ADD DUP2 SWAP1 MSTORE POP PUSH0 DUP1 DUP7 PUSH20 0xFFFFFFFFFFFFFFFFFFFFFFFFFFFFFFFFFFFFFFFF AND DUP7 PUSH1 0x40 MLOAD PUSH1 0x20 ADD PUSH2 0x6C2 SWAP2 SWAP1 PUSH2 0x18AB JUMP JUMPDEST PUSH1 0x40 MLOAD PUSH1 0x20 DUP2 DUP4 SUB SUB DUP2 MSTORE SWAP1 PUSH1 0x40 MSTORE PUSH1 0x40 MLOAD PUSH2 0x6DE SWAP2 SWAP1 PUSH2 0x18CB JUMP JUMPDEST PUSH0 PUSH1 0x40 MLOAD DUP1 DUP4 SUB DUP2 PUSH0 DUP7 GAS CALL SWAP2 POP POP RETURNDATASIZE DUP1 PUSH0 DUP2 EQ PUSH2 0x717 JUMPI PUSH1 0x40 MLOAD SWAP2 POP PUSH1 0x1F NOT PUSH1 0x3F RETURNDATASIZE ADD AND DUP3 ADD PUSH1 0x40 MSTORE RETURNDATASIZE DUP3 MSTORE RETURNDATASIZE PUSH0 PUSH1 0x20 DUP5 ADD RETURNDATACOPY PUSH2 0x71C JUMP JUMPDEST PUSH1 0x60 SWAP2 POP JUMPDEST POP SWAP2 POP SWAP2 POP DUP2 PUSH2 0x761 JUMPI PUSH1 0x40 MLOAD PUSH32 0x8C379A000000000000000000000000000000000000000000000000000000000 DUP2 MSTORE PUSH1 0x4 ADD PUSH2 0x758 SWAP1 PUSH2 0x192B JUMP JUMPDEST PUSH1 0x40 MLOAD DUP1 SWAP2 SUB SWAP1 REVERT JUMPDEST DUP1 SWAP8 POP POP POP POP POP POP POP POP SWAP3 SWAP2 POP POP JUMP JUMPDEST PUSH0 DUP1 SLOAD PUSH2 0x77D SWAP1 PUSH2 0x1976 JUMP JUMPDEST DUP1 PUSH1 0x1F ADD PUSH1 0x20 DUP1 SWAP2 DIV MUL PUSH1 0x20 ADD PUSH1 0x40 MLOAD SWAP1 DUP2 ADD PUSH1 0x40 MSTORE DUP1 SWAP3 SWAP2 SWAP1 DUP2 DUP2 MSTORE PUSH1 0x20 ADD DUP3 DUP1 SLOAD PUSH2 0x7A9 SWAP1 PUSH2 0x1976 JUMP JUMPDEST DUP1 ISZERO PUSH2 0x7F4 JUMPI DUP1 PUSH1 0x1F LT PUSH2 0x7CB JUMPI PUSH2 0x100 DUP1 DUP4 SLOAD DIV MUL DUP4 MSTORE SWAP2 PUSH1 0x20 ADD SWAP2 PUSH2 0x7F4 JUMP JUMPDEST DUP3 ADD SWAP2 SWAP1 PUSH0 MSTORE PUSH1 0x20 PUSH0 KECCAK256 SWAP1 JUMPDEST DUP2 SLOAD DUP2 MSTORE SWAP1 PUSH1 0x1 ADD SWAP1 PUSH1 0x20 ADD DUP1 DUP4 GT PUSH2 0x7D7 JUMPI DUP3 SWAP1 SUB PUSH1 0x1F AND DUP3 ADD SWAP2 JUMPDEST POP POP POP POP POP DUP2 JUMP JUMPDEST DUP1 PUSH0 SWAP1 DUP2 PUSH2 0x80A SWAP2 SWAP1 PUSH2 0x1B43 JUMP JUMPDEST POP POP JUMP JUMPDEST PUSH1 0x60 PUSH0 PUSH20 0xAB6B4D064C968ECA87F775D2493A222987052BC0 SWAP1 POP PUSH2 0x830 PUSH2 0xE7D JUMP JUMPDEST PUSH1 0x2 PUSH8 0xFFFFFFFFFFFFFFFF DUP2 GT ISZERO PUSH2 0x84B JUMPI PUSH2 0x84A PUSH2 0xF38 JUMP JUMPDEST JUMPDEST PUSH1 0x40 MLOAD SWAP1 DUP1 DUP3 MSTORE DUP1 PUSH1 0x20 MUL PUSH1 0x20 ADD DUP3 ADD PUSH1 0x40 MSTORE DUP1 ISZERO PUSH2 0x87E JUMPI DUP2 PUSH1 0x20 ADD JUMPDEST PUSH1 0x60 DUP2 MSTORE PUSH1 0x20 ADD SWAP1 PUSH1 0x1 SWAP1 SUB SWAP1 DUP2 PUSH2 0x869 JUMPI SWAP1 POP JUMPDEST POP DUP2 PUSH1 0x20 ADD DUP2 SWAP1 MSTORE POP PUSH1 0x40 MLOAD DUP1 PUSH1 0x60 ADD PUSH1 0x40 MSTORE DUP1 PUSH1 0x2C DUP2 MSTORE PUSH1 0x20 ADD PUSH2 0x1C73 PUSH1 0x2C SWAP2 CODECOPY DUP2 PUSH1 0x20 ADD MLOAD PUSH0 DUP2 MLOAD DUP2 LT PUSH2 0x8B7 JUMPI PUSH2 0x8B6 PUSH2 0x12BC JUMP JUMPDEST JUMPDEST PUSH1 0x20 MUL PUSH1 0x20 ADD ADD DUP2 SWAP1 MSTORE POP PUSH1 0x40 MLOAD DUP1 PUSH1 0x60 ADD PUSH1 0x40 MSTORE DUP1 PUSH1 0x2C DUP2 MSTORE PUSH1 0x20 ADD PUSH2 0x1C9F PUSH1 0x2C SWAP2 CODECOPY DUP2 PUSH1 0x20 ADD MLOAD PUSH1 0x1 DUP2 MLOAD DUP2 LT PUSH2 0x8F3 JUMPI PUSH2 0x8F2 PUSH2 0x12BC JUMP JUMPDEST JUMPDEST PUSH1 0x20 MUL PUSH1 0x20 ADD ADD DUP2 SWAP1 MSTORE POP PUSH3 0xF4240 DUP2 PUSH1 0x60 ADD SWAP1 PUSH8 0xFFFFFFFFFFFFFFFF AND SWAP1 DUP2 PUSH8 0xFFFFFFFFFFFFFFFF AND DUP2 MSTORE POP POP PUSH2 0x929 PUSH2 0xEAE JUMP JUMPDEST PUSH1 0x1 PUSH8 0xFFFFFFFFFFFFFFFF DUP2 GT ISZERO PUSH2 0x944 JUMPI PUSH2 0x943 PUSH2 0xF38 JUMP JUMPDEST JUMPDEST PUSH1 0x40 MLOAD SWAP1 DUP1 DUP3 MSTORE DUP1 PUSH1 0x20 MUL PUSH1 0x20 ADD DUP3 ADD PUSH1 0x40 MSTORE DUP1 ISZERO PUSH2 0x972 JUMPI DUP2 PUSH1 0x20 ADD PUSH1 0x20 DUP3 MUL DUP1 CALLDATASIZE DUP4 CALLDATACOPY DUP1 DUP3 ADD SWAP2 POP POP SWAP1 POP JUMPDEST POP DUP2 PUSH0 ADD DUP2 SWAP1 MSTORE POP PUSH0 DUP2 PUSH0 ADD MLOAD PUSH0 DUP2 MLOAD DUP2 LT PUSH2 0x991 JUMPI PUSH2 0x990 PUSH2 0x12BC JUMP JUMPDEST JUMPDEST PUSH1 0x20 MUL PUSH1 0x20 ADD ADD SWAP1 PUSH4 0xFFFFFFFF AND SWAP1 DUP2 PUSH4 0xFFFFFFFF AND DUP2 MSTORE POP POP PUSH1 0x1 PUSH8 0xFFFFFFFFFFFFFFFF DUP2 GT ISZERO PUSH2 0x9C6 JUMPI PUSH2 0x9C5 PUSH2 0xF38 JUMP JUMPDEST JUMPDEST PUSH1 0x40 MLOAD SWAP1 DUP1 DUP3 MSTORE DUP1 PUSH1 0x20 MUL PUSH1 0x20 ADD DUP3 ADD PUSH1 0x40 MSTORE DUP1 ISZERO PUSH2 0x9FF JUMPI DUP2 PUSH1 0x20 ADD JUMPDEST PUSH2 0x9EC PUSH2 0xECF JUMP JUMPDEST DUP2 MSTORE PUSH1 0x20 ADD SWAP1 PUSH1 0x1 SWAP1 SUB SWAP1 DUP2 PUSH2 0x9E4 JUMPI SWAP1 POP JUMPDEST POP DUP2 PUSH1 0x20 ADD DUP2 SWAP1 MSTORE POP PUSH1 0x40 MLOAD DUP1 PUSH1 0xA0 ADD PUSH1 0x40 MSTORE DUP1 PUSH1 0x1 PUSH4 0xFFFFFFFF AND DUP2 MSTORE PUSH1 0x20 ADD PUSH1 0x1 PUSH4 0xFFFFFFFF AND DUP2 MSTORE PUSH1 0x20 ADD PUSH0 PUSH4 0xFFFFFFFF AND DUP2 MSTORE PUSH1 0x20 ADD PUSH0 ISZERO ISZERO DUP2 MSTORE PUSH1 0x20 ADD PUSH0 ISZERO ISZERO DUP2 MSTORE POP DUP2 PUSH1 0x20 ADD MLOAD PUSH0 DUP2 MLOAD DUP2 LT PUSH2 0xA5E JUMPI PUSH2 0xA5D PUSH2 0x12BC JUMP JUMPDEST JUMPDEST PUSH1 0x20 MUL PUSH1 0x20 ADD ADD DUP2 SWAP1 MSTORE POP PUSH0 PUSH1 0x40 MLOAD DUP1 PUSH1 0x40 ADD PUSH1 0x40 MSTORE DUP1 PUSH1 0x8 DUP2 MSTORE PUSH1 0x20 ADD PUSH32 0xDC8BFD5F8098939F000000000000000000000000000000000000000000000000 DUP2 MSTORE POP SWAP1 POP DUP1 DUP3 PUSH1 0x40 ADD DUP2 SWAP1 MSTORE POP PUSH1 0x1 PUSH8 0xFFFFFFFFFFFFFFFF DUP2 GT ISZERO PUSH2 0xAC6 JUMPI PUSH2 0xAC5 PUSH2 0xF38 JUMP JUMPDEST JUMPDEST PUSH1 0x40 MLOAD SWAP1 DUP1 DUP3 MSTORE DUP1 PUSH1 0x20 MUL PUSH1 0x20 ADD DUP3 ADD PUSH1 0x40 MSTORE DUP1 ISZERO PUSH2 0xAFF JUMPI DUP2 PUSH1 0x20 ADD JUMPDEST PUSH2 0xAEC PUSH2 0xEAE JUMP JUMPDEST DUP2 MSTORE PUSH1 0x20 ADD SWAP1 PUSH1 0x1 SWAP1 SUB SWAP1 DUP2 PUSH2 0xAE4 JUMPI SWAP1 POP JUMPDEST POP DUP4 PUSH1 0x40 ADD DUP2 SWAP1 MSTORE POP DUP2 DUP4 PUSH1 0x40 ADD MLOAD PUSH0 DUP2 MLOAD DUP2 LT PUSH2 0xB20 JUMPI PUSH2 0xB1F PUSH2 0x12BC JUMP JUMPDEST JUMPDEST PUSH1 0x20 MUL PUSH1 0x20 ADD ADD DUP2 SWAP1 MSTORE POP PUSH0 DUP1 DUP6 PUSH20 0xFFFFFFFFFFFFFFFFFFFFFFFFFFFFFFFFFFFFFFFF AND DUP6 PUSH1 0x40 MLOAD PUSH1 0x20 ADD PUSH2 0xB55 SWAP2 SWAP1 PUSH2 0x18AB JUMP JUMPDEST PUSH1 0x40 MLOAD PUSH1 0x20 DUP2 DUP4 SUB SUB DUP2 MSTORE SWAP1 PUSH1 0x40 MSTORE PUSH1 0x40 MLOAD PUSH2 0xB71 SWAP2 SWAP1 PUSH2 0x18CB JUMP JUMPDEST PUSH0 PUSH1 0x40 MLOAD DUP1 DUP4 SUB DUP2 DUP6 GAS STATICCALL SWAP2 POP POP RETURNDATASIZE DUP1 PUSH0 DUP2 EQ PUSH2 0xBA9 JUMPI PUSH1 0x40 MLOAD SWAP2 POP PUSH1 0x1F NOT PUSH1 0x3F RETURNDATASIZE ADD AND DUP3 ADD PUSH1 0x40 MSTORE RETURNDATASIZE DUP3 MSTORE RETURNDATASIZE PUSH0 PUSH1 0x20 DUP5 ADD RETURNDATACOPY PUSH2 0xBAE JUMP JUMPDEST PUSH1 0x60 SWAP2 POP JUMPDEST POP SWAP2 POP SWAP2 POP DUP2 PUSH2 0xBF3 JUMPI PUSH1 0x40 MLOAD PUSH32 0x8C379A000000000000000000000000000000000000000000000000000000000 DUP2 MSTORE PUSH1 0x4 ADD PUSH2 0xBEA SWAP1 PUSH2 0x192B JUMP JUMPDEST PUSH1 0x40 MLOAD DUP1 SWAP2 SUB SWAP1 REVERT JUMPDEST PUSH2 0xBFC DUP2 PUSH2 0xD8D JUMP JUMPDEST SWAP7 POP POP POP POP POP POP POP SWAP1 JUMP JUMPDEST PUSH0 DUP1 DUP3 MLOAD SWAP1 POP PUSH2 0xC16 DUP2 PUSH2 0xC1E JUMP JUMPDEST SWAP2 POP POP SWAP2 SWAP1 POP JUMP JUMPDEST PUSH0 DUP1 DUP3 PUSH0 SHL SWAP1 POP DUP1 PUSH1 0x1C PUSH1 0x20 DUP2 LT PUSH2 0xC39 JUMPI PUSH2 0xC38 PUSH2 0x12BC JUMP JUMPDEST JUMPDEST BYTE PUSH1 0xF8 SHL PUSH1 0xF8 SHR PUSH1 0xFF AND PUSH1 0x8 DUP3 PUSH1 0x1D PUSH1 0x20 DUP2 LT PUSH2 0xC59 JUMPI PUSH2 0xC58 PUSH2 0x12BC JUMP JUMPDEST JUMPDEST BYTE PUSH1 0xF8 SHL PUSH1 0xF8 SHR PUSH1 0xFF AND PUSH4 0xFFFFFFFF AND SWAP1 SHL PUSH1 0x10 DUP4 PUSH1 0x1E PUSH1 0x20 DUP2 LT PUSH2 0xC81 JUMPI PUSH2 0xC80 PUSH2 0x12BC JUMP JUMPDEST JUMPDEST BYTE PUSH1 0xF8 SHL PUSH1 0xF8 SHR PUSH1 0xFF AND PUSH4 0xFFFFFFFF AND SWAP1 SHL PUSH1 0x18 DUP5 PUSH1 0x1F PUSH1 0x20 DUP2 LT PUSH2 0xCA9 JUMPI PUSH2 0xCA8 PUSH2 0x12BC JUMP JUMPDEST JUMPDEST BYTE PUSH1 0xF8 SHL PUSH1 0xF8 SHR PUSH1 0xFF AND PUSH4 0xFFFFFFFF AND SWAP1 SHL OR OR OR PUSH1 0xE0 SHL SWAP2 POP POP SWAP2 SWAP1 POP JUMP JUMPDEST PUSH1 0x60 PUSH32 0xF8251662139E6D88D3B6F2A5AA0F6FA9F87EC5BBE2E7F41DA6C2EE0F71E0EBBC PUSH2 0xCF4 PUSH2 0x80E JUMP JUMPDEST DUP1 MLOAD SWAP1 PUSH1 0x20 ADD KECCAK256 SUB PUSH2 0xD46 JUMPI PUSH2 0xD3F DUP3 PUSH1 0x40 MLOAD DUP1 PUSH1 0x40 ADD PUSH1 0x40 MSTORE DUP1 PUSH1 0x3 DUP2 MSTORE PUSH1 0x20 ADD PUSH32 0x65766D0000000000000000000000000000000000000000000000000000000000 DUP2 MSTORE POP PUSH2 0x197 JUMP JUMPDEST SWAP1 POP PUSH2 0xD88 JUMP JUMPDEST PUSH2 0xD85 DUP3 PUSH1 0x40 MLOAD DUP1 PUSH1 0x40 ADD PUSH1 0x40 MSTORE DUP1 PUSH1 0x3 DUP2 MSTORE PUSH1 0x20 ADD PUSH32 0x73766D0000000000000000000000000000000000000000000000000000000000 DUP2 MSTORE POP PUSH2 0x197 JUMP JUMPDEST SWAP1 POP JUMPDEST SWAP2 SWAP1 POP JUMP JUMPDEST PUSH1 0x60 PUSH0 PUSH1 0x4 DUP4 MLOAD PUSH2 0xD9E SWAP2 SWAP1 PUSH2 0x1C3F JUMP JUMPDEST PUSH8 0xFFFFFFFFFFFFFFFF DUP2 GT ISZERO PUSH2 0xDB7 JUMPI PUSH2 0xDB6 PUSH2 0xF38 JUMP JUMPDEST JUMPDEST PUSH1 0x40 MLOAD SWAP1 DUP1 DUP3 MSTORE DUP1 PUSH1 0x1F ADD PUSH1 0x1F NOT AND PUSH1 0x20 ADD DUP3 ADD PUSH1 0x40 MSTORE DUP1 ISZERO PUSH2 0xDE9 JUMPI DUP2 PUSH1 0x20 ADD PUSH1 0x1 DUP3 MUL DUP1 CALLDATASIZE DUP4 CALLDATACOPY DUP1 DUP3 ADD SWAP2 POP POP SWAP1 POP JUMPDEST POP SWAP1 POP PUSH0 PUSH1 0x4 SWAP1 POP JUMPDEST DUP4 MLOAD DUP2 LT ISZERO PUSH2 0xE73 JUMPI DUP4 DUP2 DUP2 MLOAD DUP2 LT PUSH2 0xE0E JUMPI PUSH2 0xE0D PUSH2 0x12BC JUMP JUMPDEST JUMPDEST PUSH1 0x20 ADD ADD MLOAD PUSH1 0xF8 SHR PUSH1 0xF8 SHL DUP3 PUSH1 0x4 DUP4 PUSH2 0xE27 SWAP2 SWAP1 PUSH2 0x1C3F JUMP JUMPDEST DUP2 MLOAD DUP2 LT PUSH2 0xE38 JUMPI PUSH2 0xE37 PUSH2 0x12BC JUMP JUMPDEST JUMPDEST PUSH1 0x20 ADD ADD SWAP1 PUSH31 0xFFFFFFFFFFFFFFFFFFFFFFFFFFFFFFFFFFFFFFFFFFFFFFFFFFFFFFFFFFFFFF NOT AND SWAP1 DUP2 PUSH0 BYTE SWAP1 MSTORE8 POP DUP1 DUP1 PUSH1 0x1 ADD SWAP2 POP POP PUSH2 0xDF2 JUMP JUMPDEST POP DUP1 SWAP2 POP POP SWAP2 SWAP1 POP JUMP JUMPDEST PUSH1 0x40 MLOAD DUP1 PUSH1 0x80 ADD PUSH1 0x40 MSTORE DUP1 PUSH1 0x60 DUP2 MSTORE PUSH1 0x20 ADD PUSH1 0x60 DUP2 MSTORE PUSH1 0x20 ADD PUSH1 0x60 DUP2 MSTORE PUSH1 0x20 ADD PUSH0 PUSH8 0xFFFFFFFFFFFFFFFF AND DUP2 MSTORE POP SWAP1 JUMP JUMPDEST PUSH1 0x40 MLOAD DUP1 PUSH1 0x60 ADD PUSH1 0x40 MSTORE DUP1 PUSH1 0x60 DUP2 MSTORE PUSH1 0x20 ADD PUSH1 0x60 DUP2 MSTORE PUSH1 0x20 ADD PUSH1 0x60 DUP2 MSTORE POP SWAP1 JUMP JUMPDEST PUSH1 0x40 MLOAD DUP1 PUSH1 0xA0 ADD PUSH1 0x40 MSTORE DUP1 PUSH0 PUSH4 0xFFFFFFFF AND DUP2 MSTORE PUSH1 0x20 ADD PUSH0 PUSH4 0xFFFFFFFF AND DUP2 MSTORE PUSH1 0x20 ADD PUSH0 PUSH4 0xFFFFFFFF AND DUP2 MSTORE PUSH1 0x20 ADD PUSH0 ISZERO ISZERO DUP2 MSTORE PUSH1 0x20 ADD PUSH0 ISZERO ISZERO DUP2 MSTORE POP SWAP1 JUMP JUMPDEST PUSH0 PUSH1 0x40 MLOAD SWAP1 POP SWAP1 JUMP JUMPDEST PUSH0 DUP1 REVERT JUMPDEST PUSH0 DUP1 REVERT JUMPDEST PUSH0 DUP1 REVERT JUMPDEST PUSH0 DUP1 REVERT JUMPDEST PUSH0 PUSH1 0x1F NOT PUSH1 0x1F DUP4 ADD AND SWAP1 POP SWAP2 SWAP1 POP JUMP JUMPDEST PUSH32 0x4E487B7100000000000000000000000000000000000000000000000000000000 PUSH0 MSTORE PUSH1 0x41 PUSH1 0x4 MSTORE PUSH1 0x24 PUSH0 REVERT JUMPDEST PUSH2 0xF6E DUP3 PUSH2 0xF28 JUMP JUMPDEST DUP2 ADD DUP2 DUP2 LT PUSH8 0xFFFFFFFFFFFFFFFF DUP3 GT OR ISZERO PUSH2 0xF8D JUMPI PUSH2 0xF8C PUSH2 0xF38 JUMP JUMPDEST JUMPDEST DUP1 PUSH1 0x40 MSTORE POP POP POP JUMP JUMPDEST PUSH0 PUSH2 0xF9F PUSH2 0xF0F JUMP JUMPDEST SWAP1 POP PUSH2 0xFAB DUP3 DUP3 PUSH2 0xF65 JUMP JUMPDEST SWAP2 SWAP1 POP JUMP JUMPDEST PUSH0 PUSH8 0xFFFFFFFFFFFFFFFF DUP3 GT ISZERO PUSH2 0xFCA JUMPI PUSH2 0xFC9 PUSH2 0xF38 JUMP JUMPDEST JUMPDEST PUSH2 0xFD3 DUP3 PUSH2 0xF28 JUMP JUMPDEST SWAP1 POP PUSH1 0x20 DUP2 ADD SWAP1 POP SWAP2 SWAP1 POP JUMP JUMPDEST DUP3 DUP2 DUP4 CALLDATACOPY PUSH0 DUP4 DUP4 ADD MSTORE POP POP POP JUMP JUMPDEST PUSH0 PUSH2 0x1000 PUSH2 0xFFB DUP5 PUSH2 0xFB0 JUMP JUMPDEST PUSH2 0xF96 JUMP JUMPDEST SWAP1 POP DUP3 DUP2 MSTORE PUSH1 0x20 DUP2 ADD DUP5 DUP5 DUP5 ADD GT ISZERO PUSH2 0x101C JUMPI PUSH2 0x101B PUSH2 0xF24 JUMP JUMPDEST JUMPDEST PUSH2 0x1027 DUP5 DUP3 DUP6 PUSH2 0xFE0 JUMP JUMPDEST POP SWAP4 SWAP3 POP POP POP JUMP JUMPDEST PUSH0 DUP3 PUSH1 0x1F DUP4 ADD SLT PUSH2 0x1043 JUMPI PUSH2 0x1042 PUSH2 0xF20 JUMP JUMPDEST JUMPDEST DUP2 CALLDATALOAD PUSH2 0x1053 DUP5 DUP3 PUSH1 0x20 DUP7 ADD PUSH2 0xFEE JUMP JUMPDEST SWAP2 POP POP SWAP3 SWAP2 POP POP JUMP JUMPDEST PUSH0 DUP1 PUSH1 0x40 DUP4 DUP6 SUB SLT ISZERO PUSH2 0x1072 JUMPI PUSH2 0x1071 PUSH2 0xF18 JUMP JUMPDEST JUMPDEST PUSH0 DUP4 ADD CALLDATALOAD PUSH8 0xFFFFFFFFFFFFFFFF DUP2 GT ISZERO PUSH2 0x108F JUMPI PUSH2 0x108E PUSH2 0xF1C JUMP JUMPDEST JUMPDEST PUSH2 0x109B DUP6 DUP3 DUP7 ADD PUSH2 0x102F JUMP JUMPDEST SWAP3 POP POP PUSH1 0x20 DUP4 ADD CALLDATALOAD PUSH8 0xFFFFFFFFFFFFFFFF DUP2 GT ISZERO PUSH2 0x10BC JUMPI PUSH2 0x10BB PUSH2 0xF1C JUMP JUMPDEST JUMPDEST PUSH2 0x10C8 DUP6 DUP3 DUP7 ADD PUSH2 0x102F JUMP JUMPDEST SWAP2 POP POP SWAP3 POP SWAP3 SWAP1 POP JUMP JUMPDEST PUSH0 DUP2 MLOAD SWAP1 POP SWAP2 SWAP1 POP JUMP JUMPDEST PUSH0 DUP3 DUP3 MSTORE PUSH1 0x20 DUP3 ADD SWAP1 POP SWAP3 SWAP2 POP POP JUMP JUMPDEST DUP3 DUP2 DUP4 MCOPY PUSH0 DUP4 DUP4 ADD MSTORE POP POP POP JUMP JUMPDEST PUSH0 PUSH2 0x1104 DUP3 PUSH2 0x10D2 JUMP JUMPDEST PUSH2 0x110E DUP2 DUP6 PUSH2 0x10DC JUMP JUMPDEST SWAP4 POP PUSH2 0x111E DUP2 DUP6 PUSH1 0x20 DUP7 ADD PUSH2 0x10EC JUMP JUMPDEST PUSH2 0x1127 DUP2 PUSH2 0xF28 JUMP JUMPDEST DUP5 ADD SWAP2 POP POP SWAP3 SWAP2 POP POP JUMP JUMPDEST PUSH0 PUSH1 0x20 DUP3 ADD SWAP1 POP DUP2 DUP2 SUB PUSH0 DUP4 ADD MSTORE PUSH2 0x114A DUP2 DUP5 PUSH2 0x10FA JUMP JUMPDEST SWAP1 POP SWAP3 SWAP2 POP POP JUMP JUMPDEST PUSH0 DUP2 MLOAD SWAP1 POP SWAP2 SWAP1 POP JUMP JUMPDEST PUSH0 DUP3 DUP3 MSTORE PUSH1 0x20 DUP3 ADD SWAP1 POP SWAP3 SWAP2 POP POP JUMP JUMPDEST PUSH0 PUSH2 0x1176 DUP3 PUSH2 0x1152 JUMP JUMPDEST PUSH2 0x1180 DUP2 DUP6 PUSH2 0x115C JUMP JUMPDEST SWAP4 POP PUSH2 0x1190 DUP2 DUP6 PUSH1 0x20 DUP7 ADD PUSH2 0x10EC JUMP JUMPDEST PUSH2 0x1199 DUP2 PUSH2 0xF28 JUMP JUMPDEST DUP5 ADD SWAP2 POP POP SWAP3 SWAP2 POP POP JUMP JUMPDEST PUSH0 PUSH1 0x20 DUP3 ADD SWAP1 POP DUP2 DUP2 SUB PUSH0 DUP4 ADD MSTORE PUSH2 0x11BC DUP2 DUP5 PUSH2 0x116C JUMP JUMPDEST SWAP1 POP SWAP3 SWAP2 POP POP JUMP JUMPDEST PUSH0 PUSH1 0x20 DUP3 DUP5 SUB SLT ISZERO PUSH2 0x11D9 JUMPI PUSH2 0x11D8 PUSH2 0xF18 JUMP JUMPDEST JUMPDEST PUSH0 DUP3 ADD CALLDATALOAD PUSH8 0xFFFFFFFFFFFFFFFF DUP2 GT ISZERO PUSH2 0x11F6 JUMPI PUSH2 0x11F5 PUSH2 0xF1C JUMP JUMPDEST JUMPDEST PUSH2 0x1202 DUP5 DUP3 DUP6 ADD PUSH2 0x102F JUMP JUMPDEST SWAP2 POP POP SWAP3 SWAP2 POP POP JUMP JUMPDEST PUSH0 PUSH32 0xFFFFFFFF00000000000000000000000000000000000000000000000000000000 DUP3 AND SWAP1 POP SWAP2 SWAP1 POP JUMP JUMPDEST PUSH2 0x123F DUP2 PUSH2 0x120B JUMP JUMPDEST DUP3 MSTORE POP POP JUMP JUMPDEST PUSH0 PUSH1 0x20 DUP3 ADD SWAP1 POP PUSH2 0x1258 PUSH0 DUP4 ADD DUP5 PUSH2 0x1236 JUMP JUMPDEST SWAP3 SWAP2 POP POP JUMP JUMPDEST PUSH0 DUP2 SWAP1 POP SWAP2 SWAP1 POP JUMP JUMPDEST PUSH2 0x1270 DUP2 PUSH2 0x125E JUMP JUMPDEST DUP2 EQ PUSH2 0x127A JUMPI PUSH0 DUP1 REVERT JUMPDEST POP JUMP JUMPDEST PUSH0 DUP2 CALLDATALOAD SWAP1 POP PUSH2 0x128B DUP2 PUSH2 0x1267 JUMP JUMPDEST SWAP3 SWAP2 POP POP JUMP JUMPDEST PUSH0 PUSH1 0x20 DUP3 DUP5 SUB SLT ISZERO PUSH2 0x12A6 JUMPI PUSH2 0x12A5 PUSH2 0xF18 JUMP JUMPDEST JUMPDEST PUSH0 PUSH2 0x12B3 DUP5 DUP3 DUP6 ADD PUSH2 0x127D JUMP JUMPDEST SWAP2 POP POP SWAP3 SWAP2 POP POP JUMP JUMPDEST PUSH32 0x4E487B7100000000000000000000000000000000000000000000000000000000 PUSH0 MSTORE PUSH1 0x32 PUSH1 0x4 MSTORE PUSH1 0x24 PUSH0 REVERT JUMPDEST PUSH2 0x12F2 DUP2 PUSH2 0x120B JUMP JUMPDEST DUP2 EQ PUSH2 0x12FC JUMPI PUSH0 DUP1 REVERT JUMPDEST POP JUMP JUMPDEST PUSH0 DUP2 MLOAD SWAP1 POP PUSH2 0x130D DUP2 PUSH2 0x12E9 JUMP JUMPDEST SWAP3 SWAP2 POP POP JUMP JUMPDEST PUSH0 PUSH1 0x20 DUP3 DUP5 SUB SLT ISZERO PUSH2 0x1328 JUMPI PUSH2 0x1327 PUSH2 0xF18 JUMP JUMPDEST JUMPDEST PUSH0 PUSH2 0x1335 DUP5 DUP3 DUP6 ADD PUSH2 0x12FF JUMP JUMPDEST SWAP2 POP POP SWAP3 SWAP2 POP POP JUMP JUMPDEST PUSH0 DUP2 SWAP1 POP SWAP3 SWAP2 POP POP JUMP JUMPDEST PUSH0 PUSH2 0x1352 DUP3 PUSH2 0x10D2 JUMP JUMPDEST PUSH2 0x135C DUP2 DUP6 PUSH2 0x133E JUMP JUMPDEST SWAP4 POP PUSH2 0x136C DUP2 DUP6 PUSH1 0x20 DUP7 ADD PUSH2 0x10EC JUMP JUMPDEST DUP1 DUP5 ADD SWAP2 POP POP SWAP3 SWAP2 POP POP JUMP JUMPDEST PUSH0 DUP2 SWAP1 POP SWAP2 SWAP1 POP JUMP JUMPDEST PUSH2 0x1392 PUSH2 0x138D DUP3 PUSH2 0x120B JUMP JUMPDEST PUSH2 0x1378 JUMP JUMPDEST DUP3 MSTORE POP POP JUMP JUMPDEST PUSH0 PUSH2 0x13A3 DUP3 DUP7 PUSH2 0x1348 JUMP JUMPDEST SWAP2 POP PUSH2 0x13AF DUP3 DUP6 PUSH2 0x1381 JUMP JUMPDEST PUSH1 0x4 DUP3 ADD SWAP2 POP PUSH2 0x13BF DUP3 DUP5 PUSH2 0x1348 JUMP JUMPDEST SWAP2 POP DUP2 SWAP1 POP SWAP5 SWAP4 POP POP POP POP JUMP JUMPDEST PUSH0 DUP2 MLOAD SWAP1 POP SWAP2 SWAP1 POP JUMP JUMPDEST PUSH0 DUP3 DUP3 MSTORE PUSH1 0x20 DUP3 ADD SWAP1 POP SWAP3 SWAP2 POP POP JUMP JUMPDEST PUSH0 DUP2 SWAP1 POP PUSH1 0x20 DUP3 ADD SWAP1 POP SWAP2 SWAP1 POP JUMP JUMPDEST PUSH0 DUP3 DUP3 MSTORE PUSH1 0x20 DUP3 ADD SWAP1 POP SWAP3 SWAP2 POP POP JUMP JUMPDEST PUSH0 PUSH2 0x140F DUP3 PUSH2 0x1152 JUMP JUMPDEST PUSH2 0x1419 DUP2 DUP6 PUSH2 0x13F5 JUMP JUMPDEST SWAP4 POP PUSH2 0x1429 DUP2 DUP6 PUSH1 0x20 DUP7 ADD PUSH2 0x10EC JUMP JUMPDEST PUSH2 0x1432 DUP2 PUSH2 0xF28 JUMP JUMPDEST DUP5 ADD SWAP2 POP POP SWAP3 SWAP2 POP POP JUMP JUMPDEST PUSH0 PUSH2 0x1448 DUP4 DUP4 PUSH2 0x1405 JUMP JUMPDEST SWAP1 POP SWAP3 SWAP2 POP POP JUMP JUMPDEST PUSH0 PUSH1 0x20 DUP3 ADD SWAP1 POP SWAP2 SWAP1 POP JUMP JUMPDEST PUSH0 PUSH2 0x1466 DUP3 PUSH2 0x13CC JUMP JUMPDEST PUSH2 0x1470 DUP2 DUP6 PUSH2 0x13D6 JUMP JUMPDEST SWAP4 POP DUP4 PUSH1 0x20 DUP3 MUL DUP6 ADD PUSH2 0x1482 DUP6 PUSH2 0x13E6 JUMP JUMPDEST DUP1 PUSH0 JUMPDEST DUP6 DUP2 LT ISZERO PUSH2 0x14BD JUMPI DUP5 DUP5 SUB DUP10 MSTORE DUP2 MLOAD PUSH2 0x149E DUP6 DUP3 PUSH2 0x143D JUMP JUMPDEST SWAP5 POP PUSH2 0x14A9 DUP4 PUSH2 0x1450 JUMP JUMPDEST SWAP3 POP PUSH1 0x20 DUP11 ADD SWAP10 POP POP PUSH1 0x1 DUP2 ADD SWAP1 POP PUSH2 0x1485 JUMP JUMPDEST POP DUP3 SWAP8 POP DUP8 SWAP6 POP POP POP POP POP POP SWAP3 SWAP2 POP POP JUMP JUMPDEST PUSH0 DUP2 MLOAD SWAP1 POP SWAP2 SWAP1 POP JUMP JUMPDEST PUSH0 DUP3 DUP3 MSTORE PUSH1 0x20 DUP3 ADD SWAP1 POP SWAP3 SWAP2 POP POP JUMP JUMPDEST PUSH0 DUP2 SWAP1 POP PUSH1 0x20 DUP3 ADD SWAP1 POP SWAP2 SWAP1 POP JUMP JUMPDEST PUSH0 DUP2 MLOAD SWAP1 POP SWAP2 SWAP1 POP JUMP JUMPDEST PUSH0 DUP3 DUP3 MSTORE PUSH1 0x20 DUP3 ADD SWAP1 POP SWAP3 SWAP2 POP POP JUMP JUMPDEST PUSH0 DUP2 SWAP1 POP PUSH1 0x20 DUP3 ADD SWAP1 POP SWAP2 SWAP1 POP JUMP JUMPDEST PUSH0 PUSH4 0xFFFFFFFF DUP3 AND SWAP1 POP SWAP2 SWAP1 POP JUMP JUMPDEST PUSH2 0x1539 DUP2 PUSH2 0x1521 JUMP JUMPDEST DUP3 MSTORE POP POP JUMP JUMPDEST PUSH0 PUSH2 0x154A DUP4 DUP4 PUSH2 0x1530 JUMP JUMPDEST PUSH1 0x20 DUP4 ADD SWAP1 POP SWAP3 SWAP2 POP POP JUMP JUMPDEST PUSH0 PUSH1 0x20 DUP3 ADD SWAP1 POP SWAP2 SWAP1 POP JUMP JUMPDEST PUSH0 PUSH2 0x156C DUP3 PUSH2 0x14F8 JUMP JUMPDEST PUSH2 0x1576 DUP2 DUP6 PUSH2 0x1502 JUMP JUMPDEST SWAP4 POP PUSH2 0x1581 DUP4 PUSH2 0x1512 JUMP JUMPDEST DUP1 PUSH0 JUMPDEST DUP4 DUP2 LT ISZERO PUSH2 0x15B1 JUMPI DUP2 MLOAD PUSH2 0x1598 DUP9 DUP3 PUSH2 0x153F JUMP JUMPDEST SWAP8 POP PUSH2 0x15A3 DUP4 PUSH2 0x1556 JUMP JUMPDEST SWAP3 POP POP PUSH1 0x1 DUP2 ADD SWAP1 POP PUSH2 0x1584 JUMP JUMPDEST POP DUP6 SWAP4 POP POP POP POP SWAP3 SWAP2 POP POP JUMP JUMPDEST PUSH0 DUP2 MLOAD SWAP1 POP SWAP2 SWAP1 POP JUMP JUMPDEST PUSH0 DUP3 DUP3 MSTORE PUSH1 0x20 DUP3 ADD SWAP1 POP SWAP3 SWAP2 POP POP JUMP JUMPDEST PUSH0 DUP2 SWAP1 POP PUSH1 0x20 DUP3 ADD SWAP1 POP SWAP2 SWAP1 POP JUMP JUMPDEST PUSH0 DUP2 ISZERO ISZERO SWAP1 POP SWAP2 SWAP1 POP JUMP JUMPDEST PUSH2 0x15FB DUP2 PUSH2 0x15E7 JUMP JUMPDEST DUP3 MSTORE POP POP JUMP JUMPDEST PUSH1 0xA0 DUP3 ADD PUSH0 DUP3 ADD MLOAD PUSH2 0x1615 PUSH0 DUP6 ADD DUP3 PUSH2 0x1530 JUMP JUMPDEST POP PUSH1 0x20 DUP3 ADD MLOAD PUSH2 0x1628 PUSH1 0x20 DUP6 ADD DUP3 PUSH2 0x1530 JUMP JUMPDEST POP PUSH1 0x40 DUP3 ADD MLOAD PUSH2 0x163B PUSH1 0x40 DUP6 ADD DUP3 PUSH2 0x1530 JUMP JUMPDEST POP PUSH1 0x60 DUP3 ADD MLOAD PUSH2 0x164E PUSH1 0x60 DUP6 ADD DUP3 PUSH2 0x15F2 JUMP JUMPDEST POP PUSH1 0x80 DUP3 ADD MLOAD PUSH2 0x1661 PUSH1 0x80 DUP6 ADD DUP3 PUSH2 0x15F2 JUMP JUMPDEST POP POP POP POP JUMP JUMPDEST PUSH0 PUSH2 0x1672 DUP4 DUP4 PUSH2 0x1601 JUMP JUMPDEST PUSH1 0xA0 DUP4 ADD SWAP1 POP SWAP3 SWAP2 POP POP JUMP JUMPDEST PUSH0 PUSH1 0x20 DUP3 ADD SWAP1 POP SWAP2 SWAP1 POP JUMP JUMPDEST PUSH0 PUSH2 0x1694 DUP3 PUSH2 0x15BE JUMP JUMPDEST PUSH2 0x169E DUP2 DUP6 PUSH2 0x15C8 JUMP JUMPDEST SWAP4 POP PUSH2 0x16A9 DUP4 PUSH2 0x15D8 JUMP JUMPDEST DUP1 PUSH0 JUMPDEST DUP4 DUP2 LT ISZERO PUSH2 0x16D9 JUMPI DUP2 MLOAD PUSH2 0x16C0 DUP9 DUP3 PUSH2 0x1667 JUMP JUMPDEST SWAP8 POP PUSH2 0x16CB DUP4 PUSH2 0x167E JUMP JUMPDEST SWAP3 POP POP PUSH1 0x1 DUP2 ADD SWAP1 POP PUSH2 0x16AC JUMP JUMPDEST POP DUP6 SWAP4 POP POP POP POP SWAP3 SWAP2 POP POP JUMP JUMPDEST PUSH0 DUP3 DUP3 MSTORE PUSH1 0x20 DUP3 ADD SWAP1 POP SWAP3 SWAP2 POP POP JUMP JUMPDEST PUSH0 PUSH2 0x1700 DUP3 PUSH2 0x10D2 JUMP JUMPDEST PUSH2 0x170A DUP2 DUP6 PUSH2 0x16E6 JUMP JUMPDEST SWAP4 POP PUSH2 0x171A DUP2 DUP6 PUSH1 0x20 DUP7 ADD PUSH2 0x10EC JUMP JUMPDEST PUSH2 0x1723 DUP2 PUSH2 0xF28 JUMP JUMPDEST DUP5 ADD SWAP2 POP POP SWAP3 SWAP2 POP POP JUMP JUMPDEST PUSH0 PUSH1 0x60 DUP4 ADD PUSH0 DUP4 ADD MLOAD DUP5 DUP3 SUB PUSH0 DUP7 ADD MSTORE PUSH2 0x1748 DUP3 DUP3 PUSH2 0x1562 JUMP JUMPDEST SWAP2 POP POP PUSH1 0x20 DUP4 ADD MLOAD DUP5 DUP3 SUB PUSH1 0x20 DUP7 ADD MSTORE PUSH2 0x1762 DUP3 DUP3 PUSH2 0x168A JUMP JUMPDEST SWAP2 POP POP PUSH1 0x40 DUP4 ADD MLOAD DUP5 DUP3 SUB PUSH1 0x40 DUP7 ADD MSTORE PUSH2 0x177C DUP3 DUP3 PUSH2 0x16F6 JUMP JUMPDEST SWAP2 POP POP DUP1 SWAP2 POP POP SWAP3 SWAP2 POP POP JUMP JUMPDEST PUSH0 PUSH2 0x1794 DUP4 DUP4 PUSH2 0x172E JUMP JUMPDEST SWAP1 POP SWAP3 SWAP2 POP POP JUMP JUMPDEST PUSH0 PUSH1 0x20 DUP3 ADD SWAP1 POP SWAP2 SWAP1 POP JUMP JUMPDEST PUSH0 PUSH2 0x17B2 DUP3 PUSH2 0x14CF JUMP JUMPDEST PUSH2 0x17BC DUP2 DUP6 PUSH2 0x14D9 JUMP JUMPDEST SWAP4 POP DUP4 PUSH1 0x20 DUP3 MUL DUP6 ADD PUSH2 0x17CE DUP6 PUSH2 0x14E9 JUMP JUMPDEST DUP1 PUSH0 JUMPDEST DUP6 DUP2 LT ISZERO PUSH2 0x1809 JUMPI DUP5 DUP5 SUB DUP10 MSTORE DUP2 MLOAD PUSH2 0x17EA DUP6 DUP3 PUSH2 0x1789 JUMP JUMPDEST SWAP5 POP PUSH2 0x17F5 DUP4 PUSH2 0x179C JUMP JUMPDEST SWAP3 POP PUSH1 0x20 DUP11 ADD SWAP10 POP POP PUSH1 0x1 DUP2 ADD SWAP1 POP PUSH2 0x17D1 JUMP JUMPDEST POP DUP3 SWAP8 POP DUP8 SWAP6 POP POP POP POP POP POP SWAP3 SWAP2 POP POP JUMP JUMPDEST PUSH0 PUSH8 0xFFFFFFFFFFFFFFFF DUP3 AND SWAP1 POP SWAP2 SWAP1 POP JUMP JUMPDEST PUSH2 0x1837 DUP2 PUSH2 0x181B JUMP JUMPDEST DUP3 MSTORE POP POP JUMP JUMPDEST PUSH0 PUSH1 0x80 DUP4 ADD PUSH0 DUP4 ADD MLOAD DUP5 DUP3 SUB PUSH0 DUP7 ADD MSTORE PUSH2 0x1857 DUP3 DUP3 PUSH2 0x145C JUMP JUMPDEST SWAP2 POP POP PUSH1 0x20 DUP4 ADD MLOAD DUP5 DUP3 SUB PUSH1 0x20 DUP7 ADD MSTORE PUSH2 0x1871 DUP3 DUP3 PUSH2 0x145C JUMP JUMPDEST SWAP2 POP POP PUSH1 0x40 DUP4 ADD MLOAD DUP5 DUP3 SUB PUSH1 0x40 DUP7 ADD MSTORE PUSH2 0x188B DUP3 DUP3 PUSH2 0x17A8 JUMP JUMPDEST SWAP2 POP POP PUSH1 0x60 DUP4 ADD MLOAD PUSH2 0x18A0 PUSH1 0x60 DUP7 ADD DUP3 PUSH2 0x182E JUMP JUMPDEST POP DUP1 SWAP2 POP POP SWAP3 SWAP2 POP POP JUMP JUMPDEST PUSH0 PUSH1 0x20 DUP3 ADD SWAP1 POP DUP2 DUP2 SUB PUSH0 DUP4 ADD MSTORE PUSH2 0x18C3 DUP2 DUP5 PUSH2 0x183D JUMP JUMPDEST SWAP1 POP SWAP3 SWAP2 POP POP JUMP JUMPDEST PUSH0 PUSH2 0x18D6 DUP3 DUP5 PUSH2 0x1348 JUMP JUMPDEST SWAP2 POP DUP2 SWAP1 POP SWAP3 SWAP2 POP POP JUMP JUMPDEST PUSH32 0x63616C6C206D7573742073756363656564000000000000000000000000000000 PUSH0 DUP3 ADD MSTORE POP JUMP JUMPDEST PUSH0 PUSH2 0x1915 PUSH1 0x11 DUP4 PUSH2 0x115C JUMP JUMPDEST SWAP2 POP PUSH2 0x1920 DUP3 PUSH2 0x18E1 JUMP JUMPDEST PUSH1 0x20 DUP3 ADD SWAP1 POP SWAP2 SWAP1 POP JUMP JUMPDEST PUSH0 PUSH1 0x20 DUP3 ADD SWAP1 POP DUP2 DUP2 SUB PUSH0 DUP4 ADD MSTORE PUSH2 0x1942 DUP2 PUSH2 0x1909 JUMP JUMPDEST SWAP1 POP SWAP2 SWAP1 POP JUMP JUMPDEST PUSH32 0x4E487B7100000000000000000000000000000000000000000000000000000000 PUSH0 MSTORE PUSH1 0x22 PUSH1 0x4 MSTORE PUSH1 0x24 PUSH0 REVERT JUMPDEST PUSH0 PUSH1 0x2 DUP3 DIV SWAP1 POP PUSH1 0x1 DUP3 AND DUP1 PUSH2 0x198D JUMPI PUSH1 0x7F DUP3 AND SWAP2 POP JUMPDEST PUSH1 0x20 DUP3 LT DUP2 SUB PUSH2 0x19A0 JUMPI PUSH2 0x199F PUSH2 0x1949 JUMP JUMPDEST JUMPDEST POP SWAP2 SWAP1 POP JUMP JUMPDEST PUSH0 DUP2 SWAP1 POP DUP2 PUSH0 MSTORE PUSH1 0x20 PUSH0 KECCAK256 SWAP1 POP SWAP2 SWAP1 POP JUMP JUMPDEST PUSH0 PUSH1 0x20 PUSH1 0x1F DUP4 ADD DIV SWAP1 POP SWAP2 SWAP1 POP JUMP JUMPDEST PUSH0 DUP3 DUP3 SHL SWAP1 POP SWAP3 SWAP2 POP POP JUMP JUMPDEST PUSH0 PUSH1 0x8 DUP4 MUL PUSH2 0x1A02 PUSH32 0xFFFFFFFFFFFFFFFFFFFFFFFFFFFFFFFFFFFFFFFFFFFFFFFFFFFFFFFFFFFFFFFF DUP3 PUSH2 0x19C7 JUMP JUMPDEST PUSH2 0x1A0C DUP7 DUP4 PUSH2 0x19C7 JUMP JUMPDEST SWAP6 POP DUP1 NOT DUP5 AND SWAP4 POP DUP1 DUP7 AND DUP5 OR SWAP3 POP POP POP SWAP4 SWAP3 POP POP POP JUMP JUMPDEST PUSH0 DUP2 SWAP1 POP SWAP2 SWAP1 POP JUMP JUMPDEST PUSH0 PUSH2 0x1A47 PUSH2 0x1A42 PUSH2 0x1A3D DUP5 PUSH2 0x125E JUMP JUMPDEST PUSH2 0x1A24 JUMP JUMPDEST PUSH2 0x125E JUMP JUMPDEST SWAP1 POP SWAP2 SWAP1 POP JUMP JUMPDEST PUSH0 DUP2 SWAP1 POP SWAP2 SWAP1 POP JUMP JUMPDEST PUSH2 0x1A60 DUP4 PUSH2 0x1A2D JUMP JUMPDEST PUSH2 0x1A74 PUSH2 0x1A6C DUP3 PUSH2 0x1A4E JUMP JUMPDEST DUP5 DUP5 SLOAD PUSH2 0x19D3 JUMP JUMPDEST DUP3 SSTORE POP POP POP POP JUMP JUMPDEST PUSH0 SWAP1 JUMP JUMPDEST PUSH2 0x1A88 PUSH2 0x1A7C JUMP JUMPDEST PUSH2 0x1A93 DUP2 DUP5 DUP5 PUSH2 0x1A57 JUMP JUMPDEST POP POP POP JUMP JUMPDEST JUMPDEST DUP2 DUP2 LT ISZERO PUSH2 0x1AB6 JUMPI PUSH2 0x1AAB PUSH0 DUP3 PUSH2 0x1A80 JUMP JUMPDEST PUSH1 0x1 DUP2 ADD SWAP1 POP PUSH2 0x1A99 JUMP JUMPDEST POP POP JUMP JUMPDEST PUSH1 0x1F DUP3 GT ISZERO PUSH2 0x1AFB JUMPI PUSH2 0x1ACC DUP2 PUSH2 0x19A6 JUMP JUMPDEST PUSH2 0x1AD5 DUP5 PUSH2 0x19B8 JUMP JUMPDEST DUP2 ADD PUSH1 0x20 DUP6 LT ISZERO PUSH2 0x1AE4 JUMPI DUP2 SWAP1 POP JUMPDEST PUSH2 0x1AF8 PUSH2 0x1AF0 DUP6 PUSH2 0x19B8 JUMP JUMPDEST DUP4 ADD DUP3 PUSH2 0x1A98 JUMP JUMPDEST POP POP JUMPDEST POP POP POP JUMP JUMPDEST PUSH0 DUP3 DUP3 SHR SWAP1 POP SWAP3 SWAP2 POP POP JUMP JUMPDEST PUSH0 PUSH2 0x1B1B PUSH0 NOT DUP5 PUSH1 0x8 MUL PUSH2 0x1B00 JUMP JUMPDEST NOT DUP1 DUP4 AND SWAP2 POP POP SWAP3 SWAP2 POP POP JUMP JUMPDEST PUSH0 PUSH2 0x1B33 DUP4 DUP4 PUSH2 0x1B0C JUMP JUMPDEST SWAP2 POP DUP3 PUSH1 0x2 MUL DUP3 OR SWAP1 POP SWAP3 SWAP2 POP POP JUMP JUMPDEST PUSH2 0x1B4C DUP3 PUSH2 0x1152 JUMP JUMPDEST PUSH8 0xFFFFFFFFFFFFFFFF DUP2 GT ISZERO PUSH2 0x1B65 JUMPI PUSH2 0x1B64 PUSH2 0xF38 JUMP JUMPDEST JUMPDEST PUSH2 0x1B6F DUP3 SLOAD PUSH2 0x1976 JUMP JUMPDEST PUSH2 0x1B7A DUP3 DUP3 DUP6 PUSH2 0x1ABA JUMP JUMPDEST PUSH0 PUSH1 0x20 SWAP1 POP PUSH1 0x1F DUP4 GT PUSH1 0x1 DUP2 EQ PUSH2 0x1BAB JUMPI PUSH0 DUP5 ISZERO PUSH2 0x1B99 JUMPI DUP3 DUP8 ADD MLOAD SWAP1 POP JUMPDEST PUSH2 0x1BA3 DUP6 DUP3 PUSH2 0x1B28 JUMP JUMPDEST DUP7 SSTORE POP PUSH2 0x1C0A JUMP JUMPDEST PUSH1 0x1F NOT DUP5 AND PUSH2 0x1BB9 DUP7 PUSH2 0x19A6 JUMP JUMPDEST PUSH0 JUMPDEST DUP3 DUP2 LT ISZERO PUSH2 0x1BE0 JUMPI DUP5 DUP10 ADD MLOAD DUP3 SSTORE PUSH1 0x1 DUP3 ADD SWAP2 POP PUSH1 0x20 DUP6 ADD SWAP5 POP PUSH1 0x20 DUP2 ADD SWAP1 POP PUSH2 0x1BBB JUMP JUMPDEST DUP7 DUP4 LT ISZERO PUSH2 0x1BFD JUMPI DUP5 DUP10 ADD MLOAD PUSH2 0x1BF9 PUSH1 0x1F DUP10 AND DUP3 PUSH2 0x1B0C JUMP JUMPDEST DUP4 SSTORE POP JUMPDEST PUSH1 0x1 PUSH1 0x2 DUP9 MUL ADD DUP9 SSTORE POP POP POP JUMPDEST POP POP POP POP POP POP JUMP JUMPDEST PUSH32 0x4E487B7100000000000000000000000000000000000000000000000000000000 PUSH0 MSTORE PUSH1 0x11 PUSH1 0x4 MSTORE PUSH1 0x24 PUSH0 REVERT JUMPDEST PUSH0 PUSH2 0x1C49 DUP3 PUSH2 0x125E JUMP JUMPDEST SWAP2 POP PUSH2 0x1C54 DUP4 PUSH2 0x125E JUMP JUMPDEST SWAP3 POP DUP3 DUP3 SUB SWAP1 POP DUP2 DUP2 GT ISZERO PUSH2 0x1C6C JUMPI PUSH2 0x1C6B PUSH2 0x1C12 JUMP JUMPDEST JUMPDEST SWAP3 SWAP2 POP POP JUMP INVALID CODESIZE CALLER PUSH27 0x665A596163467247713565426E6E703645515078617063706A7078 PUSH5 0x6A414B704C PUSH2 0x7671 PUSH21 0x534A333232327A36483644655734554C4279514B4C GASLIMIT MSTORE PUSH21 0x486A536F44654669754369693876334E754C534166 ORIGIN PUSH5 0x62A2646970 PUSH7 0x73582212203C43 PUSH6 0x9D8EDB530BC9 0xBD NOT 0xE1 0xC3 0xC0 CALLDATASIZE AND 0x2B PUSH4 0xEF38659F JUMPI MSIZE 0xE0 0xCF 0xAE RETURNDATASIZE PUSH30 0xFF230164736F6C634300081A003300000000000000000000000000000000 "
	},
	"Assembly": ".code\n  PUSH 80\t\t\tcontract SvmSetter {\\n    stru...\n  PUSH 40\t\t\tcontract SvmSetter {\\n    stru...\n  MSTORE \t\t\tcontract SvmSetter {\\n    stru...\n  CALLVALUE \t\t\tcontract SvmSetter {\\n    stru...\n  DUP1 \t\t\tcontract SvmSetter {\\n    stru...\n  ISZERO \t\t\tcontract SvmSetter {\\n    stru...\n  PUSH [tag] 1\t\t\tcontract SvmSetter {\\n    stru...\n  JUMPI \t\t\tcontract SvmSetter {\\n    stru...\n  PUSH 0\t\t\tcontract SvmSetter {\\n    stru...\n  DUP1 \t\t\tcontract SvmSetter {\\n    stru...\n  REVERT \t\t\tcontract SvmSetter {\\n    stru...\ntag 1\t\t\tcontract SvmSetter {\\n    stru...\n  JUMPDEST \t\t\tcontract SvmSetter {\\n    stru...\n  POP \t\t\tcontract SvmSetter {\\n    stru...\n  PUSH #[$] 0000000000000000000000000000000000000000000000000000000000000000\t\t\tcontract SvmSetter {\\n    stru...\n  DUP1 \t\t\tcontract SvmSetter {\\n    stru...\n  PUSH [$] 0000000000000000000000000000000000000000000000000000000000000000\t\t\tcontract SvmSetter {\\n    stru...\n  PUSH 0\t\t\tcontract SvmSetter {\\n    stru...\n  CODECOPY \t\t\tcontract SvmSetter {\\n    stru...\n  PUSH 0\t\t\tcontract SvmSetter {\\n    stru...\n  RETURN \t\t\tcontract SvmSetter {\\n    stru...\n.data\n  0:\n    .code\n      PUSH 80\t\t\tcontract SvmSetter {\\n    stru...\n      PUSH 40\t\t\tcontract SvmSetter {\\n    stru...\n      MSTORE \t\t\tcontract SvmSetter {\\n    stru...\n      CALLVALUE \t\t\tcontract SvmSetter {\\n    stru...\n      DUP1 \t\t\tcontract SvmSetter {\\n    stru...\n      ISZERO \t\t\tcontract SvmSetter {\\n    stru...\n      PUSH [tag] 1\t\t\tcontract SvmSetter {\\n    stru...\n      JUMPI \t\t\tcontract SvmSetter {\\n    stru...\n      PUSH 0\t\t\tcontract SvmSetter {\\n    stru...\n      DUP1 \t\t\tcontract SvmSetter {\\n    stru...\n      REVERT \t\t\tcontract SvmSetter {\\n    stru...\n    tag 1\t\t\tcontract SvmSetter {\\n    stru...\n      JUMPDEST \t\t\tcontract SvmSetter {\\n    stru...\n      POP \t\t\tcontract SvmSetter {\\n    stru...\n      PUSH 4\t\t\tcontract SvmSetter {\\n    stru...\n      CALLDATASIZE \t\t\tcontract SvmSetter {\\n    stru...\n      LT \t\t\tcontract SvmSetter {\\n    stru...\n      PUSH [tag] 2\t\t\tcontract SvmSetter {\\n    stru...\n      JUMPI \t\t\tcontract SvmSetter {\\n    stru...\n      PUSH 0\t\t\tcontract SvmSetter {\\n    stru...\n      CALLDATALOAD \t\t\tcontract SvmSetter {\\n    stru...\n      PUSH E0\t\t\tcontract SvmSetter {\\n    stru...\n      SHR \t\t\tcontract SvmSetter {\\n    stru...\n      DUP1 \t\t\tcontract SvmSetter {\\n    stru...\n      PUSH 6B3D63DE\t\t\tcontract SvmSetter {\\n    stru...\n      GT \t\t\tcontract SvmSetter {\\n    stru...\n      PUSH [tag] 10\t\t\tcontract SvmSetter {\\n    stru...\n      JUMPI \t\t\tcontract SvmSetter {\\n    stru...\n      DUP1 \t\t\tcontract SvmSetter {\\n    stru...\n      PUSH 6B3D63DE\t\t\tcontract SvmSetter {\\n    stru...\n      EQ \t\t\tcontract SvmSetter {\\n    stru...\n      PUSH [tag] 6\t\t\tcontract SvmSetter {\\n    stru...\n      JUMPI \t\t\tcontract SvmSetter {\\n    stru...\n      DUP1 \t\t\tcontract SvmSetter {\\n    stru...\n      PUSH AC977793\t\t\tcontract SvmSetter {\\n    stru...\n      EQ \t\t\tcontract SvmSetter {\\n    stru...\n      PUSH [tag] 7\t\t\tcontract SvmSetter {\\n    stru...\n      JUMPI \t\t\tcontract SvmSetter {\\n    stru...\n      DUP1 \t\t\tcontract SvmSetter {\\n    stru...\n      PUSH C732D64F\t\t\tcontract SvmSetter {\\n    stru...\n      EQ \t\t\tcontract SvmSetter {\\n    stru...\n      PUSH [tag] 8\t\t\tcontract SvmSetter {\\n    stru...\n      JUMPI \t\t\tcontract SvmSetter {\\n    stru...\n      DUP1 \t\t\tcontract SvmSetter {\\n    stru...\n      PUSH DB21155E\t\t\tcontract SvmSetter {\\n    stru...\n      EQ \t\t\tcontract SvmSetter {\\n    stru...\n      PUSH [tag] 9\t\t\tcontract SvmSetter {\\n    stru...\n      JUMPI \t\t\tcontract SvmSetter {\\n    stru...\n      PUSH [tag] 2\t\t\tcontract SvmSetter {\\n    stru...\n      JUMP \t\t\tcontract SvmSetter {\\n    stru...\n    tag 10\t\t\tcontract SvmSetter {\\n    stru...\n      JUMPDEST \t\t\tcontract SvmSetter {\\n    stru...\n      DUP1 \t\t\tcontract SvmSetter {\\n    stru...\n      PUSH 2642A129\t\t\tcontract SvmSetter {\\n    stru...\n      EQ \t\t\tcontract SvmSetter {\\n    stru...\n      PUSH [tag] 3\t\t\tcontract SvmSetter {\\n    stru...\n      JUMPI \t\t\tcontract SvmSetter {\\n    stru...\n      DUP1 \t\t\tcontract SvmSetter {\\n    stru...\n      PUSH 3163D265\t\t\tcontract SvmSetter {\\n    stru...\n      EQ \t\t\tcontract SvmSetter {\\n    stru...\n      PUSH [tag] 4\t\t\tcontract SvmSetter {\\n    stru...\n      JUMPI \t\t\tcontract SvmSetter {\\n    stru...\n      DUP1 \t\t\tcontract SvmSetter {\\n    stru...\n      PUSH 4ED3885E\t\t\tcontract SvmSetter {\\n    stru...\n      EQ \t\t\tcontract SvmSetter {\\n    stru...\n      PUSH [tag] 5\t\t\tcontract SvmSetter {\\n    stru...\n      JUMPI \t\t\tcontract SvmSetter {\\n    stru...\n    tag 2\t\t\tcontract SvmSetter {\\n    stru...\n      JUMPDEST \t\t\tcontract SvmSetter {\\n    stru...\n      PUSH 0\t\t\tcontract SvmSetter {\\n    stru...\n      DUP1 \t\t\tcontract SvmSetter {\\n    stru...\n      REVERT \t\t\tcontract SvmSetter {\\n    stru...\n    tag 3\t\t\tfunction setSvm(string memory ...\n      JUMPDEST \t\t\tfunction setSvm(string memory ...\n      PUSH [tag] 11\t\t\tfunction setSvm(string memory ...\n      PUSH 4\t\t\tfunction setSvm(string memory ...\n      DUP1 \t\t\tfunction setSvm(string memory ...\n      CALLDATASIZE \t\t\tfunction setSvm(string memory ...\n      SUB \t\t\tfunction setSvm(string memory ...\n      DUP2 \t\t\tfunction setSvm(string memory ...\n      ADD \t\t\tfunction setSvm(string memory ...\n      SWAP1 \t\t\tfunction setSvm(string memory ...\n      PUSH [tag] 12\t\t\tfunction setSvm(string memory ...\n      SWAP2 \t\t\tfunction setSvm(string memory ...\n      SWAP1 \t\t\tfunction setSvm(string memory ...\n      PUSH [tag] 13\t\t\tfunction setSvm(string memory ...\n      JUMP \t\t\tfunction setSvm(string memory ...\n    tag 12\t\t\tfunction setSvm(string memory ...\n      JUMPDEST \t\t\tfunction setSvm(string memory ...\n      PUSH [tag] 14\t\t\tfunction setSvm(string memory ...\n      JUMP \t\t\tfunction setSvm(string memory ...\n    tag 11\t\t\tfunction setSvm(string memory ...\n      JUMPDEST \t\t\tfunction setSvm(string memory ...\n      PUSH 40\t\t\tfunction setSvm(string memory ...\n      MLOAD \t\t\tfunction setSvm(string memory ...\n      PUSH [tag] 15\t\t\tfunction setSvm(string memory ...\n      SWAP2 \t\t\tfunction setSvm(string memory ...\n      SWAP1 \t\t\tfunction setSvm(string memory ...\n      PUSH [tag] 16\t\t\tfunction setSvm(string memory ...\n      JUMP \t\t\tfunction setSvm(string memory ...\n    tag 15\t\t\tfunction setSvm(string memory ...\n      JUMPDEST \t\t\tfunction setSvm(string memory ...\n      PUSH 40\t\t\tfunction setSvm(string memory ...\n      MLOAD \t\t\tfunction setSvm(string memory ...\n      DUP1 \t\t\tfunction setSvm(string memory ...\n      SWAP2 \t\t\tfunction setSvm(string memory ...\n      SUB \t\t\tfunction setSvm(string memory ...\n      SWAP1 \t\t\tfunction setSvm(string memory ...\n      RETURN \t\t\tfunction setSvm(string memory ...\n    tag 4\t\t\tstring public evmString\n      JUMPDEST \t\t\tstring public evmString\n      PUSH [tag] 17\t\t\tstring public evmString\n      PUSH [tag] 18\t\t\tstring public evmString\n      JUMP \t\t\tstring public evmString\n    tag 17\t\t\tstring public evmString\n      JUMPDEST \t\t\tstring public evmString\n      PUSH 40\t\t\tstring public evmString\n      MLOAD \t\t\tstring public evmString\n      PUSH [tag] 19\t\t\tstring public evmString\n      SWAP2 \t\t\tstring public evmString\n      SWAP1 \t\t\tstring public evmString\n      PUSH [tag] 20\t\t\tstring public evmString\n      JUMP \t\t\tstring public evmString\n    tag 19\t\t\tstring public evmString\n      JUMPDEST \t\t\tstring public evmString\n      PUSH 40\t\t\tstring public evmString\n      MLOAD \t\t\tstring public evmString\n      DUP1 \t\t\tstring public evmString\n      SWAP2 \t\t\tstring public evmString\n      SUB \t\t\tstring public evmString\n      SWAP1 \t\t\tstring public evmString\n      RETURN \t\t\tstring public evmString\n    tag 5\t\t\tfunction set(string memory _ev...\n      JUMPDEST \t\t\tfunction set(string memory _ev...\n      PUSH [tag] 21\t\t\tfunction set(string memory _ev...\n      PUSH 4\t\t\tfunction set(string memory _ev...\n      DUP1 \t\t\tfunction set(string memory _ev...\n      CALLDATASIZE \t\t\tfunction set(string memory _ev...\n      SUB \t\t\tfunction set(string memory _ev...\n      DUP2 \t\t\tfunction set(string memory _ev...\n      ADD \t\t\tfunction set(string memory _ev...\n      SWAP1 \t\t\tfunction set(string memory _ev...\n      PUSH [tag] 22\t\t\tfunction set(string memory _ev...\n      SWAP2 \t\t\tfunction set(string memory _ev...\n      SWAP1 \t\t\tfunction set(string memory _ev...\n      PUSH [tag] 23\t\t\tfunction set(string memory _ev...\n      JUMP \t\t\tfunction set(string memory _ev...\n    tag 22\t\t\tfunction set(string memory _ev...\n      JUMPDEST \t\t\tfunction set(string memory _ev...\n      PUSH [tag] 24\t\t\tfunction set(string memory _ev...\n      JUMP \t\t\tfunction set(string memory _ev...\n    tag 21\t\t\tfunction set(string memory _ev...\n      JUMPDEST \t\t\tfunction set(string memory _ev...\n      STOP \t\t\tfunction set(string memory _ev...\n    tag 6\t\t\tfunction getSvm() public view ...\n      JUMPDEST \t\t\tfunction getSvm() public view ...\n      PUSH [tag] 25\t\t\tfunction getSvm() public view ...\n      PUSH [tag] 26\t\t\tfunction getSvm() public view ...\n      JUMP \t\t\tfunction getSvm() public view ...\n    tag 25\t\t\tfunction getSvm() public view ...\n      JUMPDEST \t\t\tfunction getSvm() public view ...\n      PUSH 40\t\t\tfunction getSvm() public view ...\n      MLOAD \t\t\tfunction getSvm() public view ...\n      PUSH [tag] 27\t\t\tfunction getSvm() public view ...\n      SWAP2 \t\t\tfunction getSvm() public view ...\n      SWAP1 \t\t\tfunction getSvm() public view ...\n      PUSH [tag] 20\t\t\tfunction getSvm() public view ...\n      JUMP \t\t\tfunction getSvm() public view ...\n    tag 27\t\t\tfunction getSvm() public view ...\n      JUMPDEST \t\t\tfunction getSvm() public view ...\n      PUSH 40\t\t\tfunction getSvm() public view ...\n      MLOAD \t\t\tfunction getSvm() public view ...\n      DUP1 \t\t\tfunction getSvm() public view ...\n      SWAP2 \t\t\tfunction getSvm() public view ...\n      SUB \t\t\tfunction getSvm() public view ...\n      SWAP1 \t\t\tfunction getSvm() public view ...\n      RETURN \t\t\tfunction getSvm() public view ...\n    tag 7\t\t\tfunction getStringLengthLE(str...\n      JUMPDEST \t\t\tfunction getStringLengthLE(str...\n      PUSH [tag] 28\t\t\tfunction getStringLengthLE(str...\n      PUSH 4\t\t\tfunction getStringLengthLE(str...\n      DUP1 \t\t\tfunction getStringLengthLE(str...\n      CALLDATASIZE \t\t\tfunction getStringLengthLE(str...\n      SUB \t\t\tfunction getStringLengthLE(str...\n      DUP2 \t\t\tfunction getStringLengthLE(str...\n      ADD \t\t\tfunction getStringLengthLE(str...\n      SWAP1 \t\t\tfunction getStringLengthLE(str...\n      PUSH [tag] 29\t\t\tfunction getStringLengthLE(str...\n      SWAP2 \t\t\tfunction getStringLengthLE(str...\n      SWAP1 \t\t\tfunction getStringLengthLE(str...\n      PUSH [tag] 23\t\t\tfunction getStringLengthLE(str...\n      JUMP \t\t\tfunction getStringLengthLE(str...\n    tag 29\t\t\tfunction getStringLengthLE(str...\n      JUMPDEST \t\t\tfunction getStringLengthLE(str...\n      PUSH [tag] 30\t\t\tfunction getStringLengthLE(str...\n      JUMP \t\t\tfunction getStringLengthLE(str...\n    tag 28\t\t\tfunction getStringLengthLE(str...\n      JUMPDEST \t\t\tfunction getStringLengthLE(str...\n      PUSH 40\t\t\tfunction getStringLengthLE(str...\n      MLOAD \t\t\tfunction getStringLengthLE(str...\n      PUSH [tag] 31\t\t\tfunction getStringLengthLE(str...\n      SWAP2 \t\t\tfunction getStringLengthLE(str...\n      SWAP1 \t\t\tfunction getStringLengthLE(str...\n      PUSH [tag] 32\t\t\tfunction getStringLengthLE(str...\n      JUMP \t\t\tfunction getStringLengthLE(str...\n    tag 31\t\t\tfunction getStringLengthLE(str...\n      JUMPDEST \t\t\tfunction getStringLengthLE(str...\n      PUSH 40\t\t\tfunction getStringLengthLE(str...\n      MLOAD \t\t\tfunction getStringLengthLE(str...\n      DUP1 \t\t\tfunction getStringLengthLE(str...\n      SWAP2 \t\t\tfunction getStringLengthLE(str...\n      SUB \t\t\tfunction getStringLengthLE(str...\n      SWAP1 \t\t\tfunction getStringLengthLE(str...\n      RETURN \t\t\tfunction getStringLengthLE(str...\n    tag 8\t\t\tfunction toLittleEndian(uint25...\n      JUMPDEST \t\t\tfunction toLittleEndian(uint25...\n      PUSH [tag] 33\t\t\tfunction toLittleEndian(uint25...\n      PUSH 4\t\t\tfunction toLittleEndian(uint25...\n      DUP1 \t\t\tfunction toLittleEndian(uint25...\n      CALLDATASIZE \t\t\tfunction toLittleEndian(uint25...\n      SUB \t\t\tfunction toLittleEndian(uint25...\n      DUP2 \t\t\tfunction toLittleEndian(uint25...\n      ADD \t\t\tfunction toLittleEndian(uint25...\n      SWAP1 \t\t\tfunction toLittleEndian(uint25...\n      PUSH [tag] 34\t\t\tfunction toLittleEndian(uint25...\n      SWAP2 \t\t\tfunction toLittleEndian(uint25...\n      SWAP1 \t\t\tfunction toLittleEndian(uint25...\n      PUSH [tag] 35\t\t\tfunction toLittleEndian(uint25...\n      JUMP \t\t\tfunction toLittleEndian(uint25...\n    tag 34\t\t\tfunction toLittleEndian(uint25...\n      JUMPDEST \t\t\tfunction toLittleEndian(uint25...\n      PUSH [tag] 36\t\t\tfunction toLittleEndian(uint25...\n      JUMP \t\t\tfunction toLittleEndian(uint25...\n    tag 33\t\t\tfunction toLittleEndian(uint25...\n      JUMPDEST \t\t\tfunction toLittleEndian(uint25...\n      PUSH 40\t\t\tfunction toLittleEndian(uint25...\n      MLOAD \t\t\tfunction toLittleEndian(uint25...\n      PUSH [tag] 37\t\t\tfunction toLittleEndian(uint25...\n      SWAP2 \t\t\tfunction toLittleEndian(uint25...\n      SWAP1 \t\t\tfunction toLittleEndian(uint25...\n      PUSH [tag] 32\t\t\tfunction toLittleEndian(uint25...\n      JUMP \t\t\tfunction toLittleEndian(uint25...\n    tag 37\t\t\tfunction toLittleEndian(uint25...\n      JUMPDEST \t\t\tfunction toLittleEndian(uint25...\n      PUSH 40\t\t\tfunction toLittleEndian(uint25...\n      MLOAD \t\t\tfunction toLittleEndian(uint25...\n      DUP1 \t\t\tfunction toLittleEndian(uint25...\n      SWAP2 \t\t\tfunction toLittleEndian(uint25...\n      SUB \t\t\tfunction toLittleEndian(uint25...\n      SWAP1 \t\t\tfunction toLittleEndian(uint25...\n      RETURN \t\t\tfunction toLittleEndian(uint25...\n    tag 9\t\t\tfunction conditionalSetSvm(str...\n      JUMPDEST \t\t\tfunction conditionalSetSvm(str...\n      PUSH [tag] 38\t\t\tfunction conditionalSetSvm(str...\n      PUSH 4\t\t\tfunction conditionalSetSvm(str...\n      DUP1 \t\t\tfunction conditionalSetSvm(str...\n      CALLDATASIZE \t\t\tfunction conditionalSetSvm(str...\n      SUB \t\t\tfunction conditionalSetSvm(str...\n      DUP2 \t\t\tfunction conditionalSetSvm(str...\n      ADD \t\t\tfunction conditionalSetSvm(str...\n      SWAP1 \t\t\tfunction conditionalSetSvm(str...\n      PUSH [tag] 39\t\t\tfunction conditionalSetSvm(str...\n      SWAP2 \t\t\tfunction conditionalSetSvm(str...\n      SWAP1 \t\t\tfunction conditionalSetSvm(str...\n      PUSH [tag] 23\t\t\tfunction conditionalSetSvm(str...\n      JUMP \t\t\tfunction conditionalSetSvm(str...\n    tag 39\t\t\tfunction conditionalSetSvm(str...\n      JUMPDEST \t\t\tfunction conditionalSetSvm(str...\n      PUSH [tag] 40\t\t\tfunction conditionalSetSvm(str...\n      JUMP \t\t\tfunction conditionalSetSvm(str...\n    tag 38\t\t\tfunction conditionalSetSvm(str...\n      JUMPDEST \t\t\tfunction conditionalSetSvm(str...\n      PUSH 40\t\t\tfunction conditionalSetSvm(str...\n      MLOAD \t\t\tfunction conditionalSetSvm(str...\n      PUSH [tag] 41\t\t\tfunction conditionalSetSvm(str...\n      SWAP2 \t\t\tfunction conditionalSetSvm(str...\n      SWAP1 \t\t\tfunction conditionalSetSvm(str...\n      PUSH [tag] 16\t\t\tfunction conditionalSetSvm(str...\n      JUMP \t\t\tfunction conditionalSetSvm(str...\n    tag 41\t\t\tfunction conditionalSetSvm(str...\n      JUMPDEST \t\t\tfunction conditionalSetSvm(str...\n      PUSH 40\t\t\tfunction conditionalSetSvm(str...\n      MLOAD \t\t\tfunction conditionalSetSvm(str...\n      DUP1 \t\t\tfunction conditionalSetSvm(str...\n      SWAP2 \t\t\tfunction conditionalSetSvm(str...\n      SUB \t\t\tfunction conditionalSetSvm(str...\n      SWAP1 \t\t\tfunction conditionalSetSvm(str...\n      RETURN \t\t\tfunction conditionalSetSvm(str...\n    tag 14\t\t\tfunction setSvm(string memory ...\n      JUMPDEST \t\t\tfunction setSvm(string memory ...\n      PUSH 60\t\t\tbytes memory result\n      PUSH 0\t\t\taddress svmProxy\n      PUSH AB6B4D064C968ECA87F775D2493A222987052BC0\t\t\t0xaB6B4d064C968eCa87F775d2493a...\n      SWAP1 \t\t\taddress svmProxy = address(0xa...\n      POP \t\t\taddress svmProxy = address(0xa...\n      PUSH [tag] 43\t\t\tMsgTransaction memory transact...\n      PUSH [tag] 44\t\t\tMsgTransaction memory transact...\n      JUMP \t\t\tMsgTransaction memory transact...\n    tag 43\t\t\tMsgTransaction memory transact...\n      JUMPDEST \t\t\tMsgTransaction memory transact...\n      PUSH 4\t\t\t4\n      PUSH FFFFFFFFFFFFFFFF\t\t\tnew string[](4)\n      DUP2 \t\t\tnew string[](4)\n      GT \t\t\tnew string[](4)\n      ISZERO \t\t\tnew string[](4)\n      PUSH [tag] 45\t\t\tnew string[](4)\n      JUMPI \t\t\tnew string[](4)\n      PUSH [tag] 46\t\t\tnew string[](4)\n      PUSH [tag] 47\t\t\tnew string[](4)\n      JUMP \t\t\tnew string[](4)\n    tag 46\t\t\tnew string[](4)\n      JUMPDEST \t\t\tnew string[](4)\n    tag 45\t\t\tnew string[](4)\n      JUMPDEST \t\t\tnew string[](4)\n      PUSH 40\t\t\tnew string[](4)\n      MLOAD \t\t\tnew string[](4)\n      SWAP1 \t\t\tnew string[](4)\n      DUP1 \t\t\tnew string[](4)\n      DUP3 \t\t\tnew string[](4)\n      MSTORE \t\t\tnew string[](4)\n      DUP1 \t\t\tnew string[](4)\n      PUSH 20\t\t\tnew string[](4)\n      MUL \t\t\tnew string[](4)\n      PUSH 20\t\t\tnew string[](4)\n      ADD \t\t\tnew string[](4)\n      DUP3 \t\t\tnew string[](4)\n      ADD \t\t\tnew string[](4)\n      PUSH 40\t\t\tnew string[](4)\n      MSTORE \t\t\tnew string[](4)\n      DUP1 \t\t\tnew string[](4)\n      ISZERO \t\t\tnew string[](4)\n      PUSH [tag] 48\t\t\tnew string[](4)\n      JUMPI \t\t\tnew string[](4)\n      DUP2 \t\t\tnew string[](4)\n      PUSH 20\t\t\tnew string[](4)\n      ADD \t\t\tnew string[](4)\n    tag 49\t\t\tnew string[](4)\n      JUMPDEST \t\t\tnew string[](4)\n      PUSH 60\t\t\tnew string[](4)\n      DUP2 \t\t\tnew string[](4)\n      MSTORE \t\t\tnew string[](4)\n      PUSH 20\t\t\tnew string[](4)\n      ADD \t\t\tnew string[](4)\n      SWAP1 \t\t\tnew string[](4)\n      PUSH 1\t\t\tnew string[](4)\n      SWAP1 \t\t\tnew string[](4)\n      SUB \t\t\tnew string[](4)\n      SWAP1 \t\t\tnew string[](4)\n      DUP2 \t\t\tnew string[](4)\n      PUSH [tag] 49\t\t\tnew string[](4)\n      JUMPI \t\t\tnew string[](4)\n      SWAP1 \t\t\tnew string[](4)\n      POP \t\t\tnew string[](4)\n    tag 48\t\t\tnew string[](4)\n      JUMPDEST \t\t\tnew string[](4)\n      POP \t\t\tnew string[](4)\n      DUP2 \t\t\ttransaction\n      PUSH 20\t\t\ttransaction.accounts\n      ADD \t\t\ttransaction.accounts\n      DUP2 \t\t\ttransaction.accounts = new str...\n      SWAP1 \t\t\ttransaction.accounts = new str...\n      MSTORE \t\t\ttransaction.accounts = new str...\n      POP \t\t\ttransaction.accounts = new str...\n      PUSH 40\t\t\ttransaction.accounts[0] = \"83z...\n      MLOAD \t\t\ttransaction.accounts[0] = \"83z...\n      DUP1 \t\t\ttransaction.accounts[0] = \"83z...\n      PUSH 60\t\t\ttransaction.accounts[0] = \"83z...\n      ADD \t\t\ttransaction.accounts[0] = \"83z...\n      PUSH 40\t\t\ttransaction.accounts[0] = \"83z...\n      MSTORE \t\t\ttransaction.accounts[0] = \"83z...\n      DUP1 \t\t\ttransaction.accounts[0] = \"83z...\n      PUSH 2C\t\t\ttransaction.accounts[0] = \"83z...\n      DUP2 \t\t\ttransaction.accounts[0] = \"83z...\n      MSTORE \t\t\ttransaction.accounts[0] = \"83z...\n      PUSH 20\t\t\ttransaction.accounts[0] = \"83z...\n      ADD \t\t\ttransaction.accounts[0] = \"83z...\n      PUSH data 5AD1B34C28D0DE49F8303D7C1424471BC7D1A6CFFDF5E570B681B7A033938E0F\t\t\ttransaction.accounts[0] = \"83z...\n      PUSH 2C\t\t\ttransaction.accounts[0] = \"83z...\n      SWAP2 \t\t\ttransaction.accounts[0] = \"83z...\n      CODECOPY \t\t\ttransaction.accounts[0] = \"83z...\n      DUP2 \t\t\ttransaction\n      PUSH 20\t\t\ttransaction.accounts\n      ADD \t\t\ttransaction.accounts\n      MLOAD \t\t\ttransaction.accounts\n      PUSH 0\t\t\t0\n      DUP2 \t\t\ttransaction.accounts[0]\n      MLOAD \t\t\ttransaction.accounts[0]\n      DUP2 \t\t\ttransaction.accounts[0]\n      LT \t\t\ttransaction.accounts[0]\n      PUSH [tag] 50\t\t\ttransaction.accounts[0]\n      JUMPI \t\t\ttransaction.accounts[0]\n      PUSH [tag] 51\t\t\ttransaction.accounts[0]\n      PUSH [tag] 52\t\t\ttransaction.accounts[0]\n      JUMP \t\t\ttransaction.accounts[0]\n    tag 51\t\t\ttransaction.accounts[0]\n      JUMPDEST \t\t\ttransaction.accounts[0]\n    tag 50\t\t\ttransaction.accounts[0]\n      JUMPDEST \t\t\ttransaction.accounts[0]\n      PUSH 20\t\t\ttransaction.accounts[0]\n      MUL \t\t\ttransaction.accounts[0]\n      PUSH 20\t\t\ttransaction.accounts[0]\n      ADD \t\t\ttransaction.accounts[0]\n      ADD \t\t\ttransaction.accounts[0]\n      DUP2 \t\t\ttransaction.accounts[0] = \"83z...\n      SWAP1 \t\t\ttransaction.accounts[0] = \"83z...\n      MSTORE \t\t\ttransaction.accounts[0] = \"83z...\n      POP \t\t\ttransaction.accounts[0] = \"83z...\n      PUSH 40\t\t\ttransaction.accounts[1] = \"22z...\n      MLOAD \t\t\ttransaction.accounts[1] = \"22z...\n      DUP1 \t\t\ttransaction.accounts[1] = \"22z...\n      PUSH 60\t\t\ttransaction.accounts[1] = \"22z...\n      ADD \t\t\ttransaction.accounts[1] = \"22z...\n      PUSH 40\t\t\ttransaction.accounts[1] = \"22z...\n      MSTORE \t\t\ttransaction.accounts[1] = \"22z...\n      DUP1 \t\t\ttransaction.accounts[1] = \"22z...\n      PUSH 2C\t\t\ttransaction.accounts[1] = \"22z...\n      DUP2 \t\t\ttransaction.accounts[1] = \"22z...\n      MSTORE \t\t\ttransaction.accounts[1] = \"22z...\n      PUSH 20\t\t\ttransaction.accounts[1] = \"22z...\n      ADD \t\t\ttransaction.accounts[1] = \"22z...\n      PUSH data DB7DC5A227104A7DC4106459D89C7370461570F3D01CED1AE79589AA9212598F\t\t\ttransaction.accounts[1] = \"22z...\n      PUSH 2C\t\t\ttransaction.accounts[1] = \"22z...\n      SWAP2 \t\t\ttransaction.accounts[1] = \"22z...\n      CODECOPY \t\t\ttransaction.accounts[1] = \"22z...\n      DUP2 \t\t\ttransaction\n      PUSH 20\t\t\ttransaction.accounts\n      ADD \t\t\ttransaction.accounts\n      MLOAD \t\t\ttransaction.accounts\n      PUSH 1\t\t\t1\n      DUP2 \t\t\ttransaction.accounts[1]\n      MLOAD \t\t\ttransaction.accounts[1]\n      DUP2 \t\t\ttransaction.accounts[1]\n      LT \t\t\ttransaction.accounts[1]\n      PUSH [tag] 53\t\t\ttransaction.accounts[1]\n      JUMPI \t\t\ttransaction.accounts[1]\n      PUSH [tag] 54\t\t\ttransaction.accounts[1]\n      PUSH [tag] 52\t\t\ttransaction.accounts[1]\n      JUMP \t\t\ttransaction.accounts[1]\n    tag 54\t\t\ttransaction.accounts[1]\n      JUMPDEST \t\t\ttransaction.accounts[1]\n    tag 53\t\t\ttransaction.accounts[1]\n      JUMPDEST \t\t\ttransaction.accounts[1]\n      PUSH 20\t\t\ttransaction.accounts[1]\n      MUL \t\t\ttransaction.accounts[1]\n      PUSH 20\t\t\ttransaction.accounts[1]\n      ADD \t\t\ttransaction.accounts[1]\n      ADD \t\t\ttransaction.accounts[1]\n      DUP2 \t\t\ttransaction.accounts[1] = \"22z...\n      SWAP1 \t\t\ttransaction.accounts[1] = \"22z...\n      MSTORE \t\t\ttransaction.accounts[1] = \"22z...\n      POP \t\t\ttransaction.accounts[1] = \"22z...\n      DUP5 \t\t\tsvmFeePayer\n      DUP2 \t\t\ttransaction\n      PUSH 20\t\t\ttransaction.accounts\n      ADD \t\t\ttransaction.accounts\n      MLOAD \t\t\ttransaction.accounts\n      PUSH 2\t\t\t2\n      DUP2 \t\t\ttransaction.accounts[2]\n      MLOAD \t\t\ttransaction.accounts[2]\n      DUP2 \t\t\ttransaction.accounts[2]\n      LT \t\t\ttransaction.accounts[2]\n      PUSH [tag] 55\t\t\ttransaction.accounts[2]\n      JUMPI \t\t\ttransaction.accounts[2]\n      PUSH [tag] 56\t\t\ttransaction.accounts[2]\n      PUSH [tag] 52\t\t\ttransaction.accounts[2]\n      JUMP \t\t\ttransaction.accounts[2]\n    tag 56\t\t\ttransaction.accounts[2]\n      JUMPDEST \t\t\ttransaction.accounts[2]\n    tag 55\t\t\ttransaction.accounts[2]\n      JUMPDEST \t\t\ttransaction.accounts[2]\n      PUSH 20\t\t\ttransaction.accounts[2]\n      MUL \t\t\ttransaction.accounts[2]\n      PUSH 20\t\t\ttransaction.accounts[2]\n      ADD \t\t\ttransaction.accounts[2]\n      ADD \t\t\ttransaction.accounts[2]\n      DUP2 \t\t\ttransaction.accounts[2] = svmF...\n      SWAP1 \t\t\ttransaction.accounts[2] = svmF...\n      MSTORE \t\t\ttransaction.accounts[2] = svmF...\n      POP \t\t\ttransaction.accounts[2] = svmF...\n      PUSH 40\t\t\ttransaction.accounts[3] = \"111...\n      MLOAD \t\t\ttransaction.accounts[3] = \"111...\n      DUP1 \t\t\ttransaction.accounts[3] = \"111...\n      PUSH 40\t\t\ttransaction.accounts[3] = \"111...\n      ADD \t\t\ttransaction.accounts[3] = \"111...\n      PUSH 40\t\t\ttransaction.accounts[3] = \"111...\n      MSTORE \t\t\ttransaction.accounts[3] = \"111...\n      DUP1 \t\t\ttransaction.accounts[3] = \"111...\n      PUSH 20\t\t\ttransaction.accounts[3] = \"111...\n      DUP2 \t\t\ttransaction.accounts[3] = \"111...\n      MSTORE \t\t\ttransaction.accounts[3] = \"111...\n      PUSH 20\t\t\ttransaction.accounts[3] = \"111...\n      ADD \t\t\ttransaction.accounts[3] = \"111...\n      PUSH 3131313131313131313131313131313131313131313131313131313131313131\t\t\ttransaction.accounts[3] = \"111...\n      DUP2 \t\t\ttransaction.accounts[3] = \"111...\n      MSTORE \t\t\ttransaction.accounts[3] = \"111...\n      POP \t\t\ttransaction.accounts[3] = \"111...\n      DUP2 \t\t\ttransaction\n      PUSH 20\t\t\ttransaction.accounts\n      ADD \t\t\ttransaction.accounts\n      MLOAD \t\t\ttransaction.accounts\n      PUSH 3\t\t\t3\n      DUP2 \t\t\ttransaction.accounts[3]\n      MLOAD \t\t\ttransaction.accounts[3]\n      DUP2 \t\t\ttransaction.accounts[3]\n      LT \t\t\ttransaction.accounts[3]\n      PUSH [tag] 57\t\t\ttransaction.accounts[3]\n      JUMPI \t\t\ttransaction.accounts[3]\n      PUSH [tag] 58\t\t\ttransaction.accounts[3]\n      PUSH [tag] 52\t\t\ttransaction.accounts[3]\n      JUMP \t\t\ttransaction.accounts[3]\n    tag 58\t\t\ttransaction.accounts[3]\n      JUMPDEST \t\t\ttransaction.accounts[3]\n    tag 57\t\t\ttransaction.accounts[3]\n      JUMPDEST \t\t\ttransaction.accounts[3]\n      PUSH 20\t\t\ttransaction.accounts[3]\n      MUL \t\t\ttransaction.accounts[3]\n      PUSH 20\t\t\ttransaction.accounts[3]\n      ADD \t\t\ttransaction.accounts[3]\n      ADD \t\t\ttransaction.accounts[3]\n      DUP2 \t\t\ttransaction.accounts[3] = \"111...\n      SWAP1 \t\t\ttransaction.accounts[3] = \"111...\n      MSTORE \t\t\ttransaction.accounts[3] = \"111...\n      POP \t\t\ttransaction.accounts[3] = \"111...\n      PUSH F4240\t\t\t1000000\n      DUP2 \t\t\ttransaction\n      PUSH 60\t\t\ttransaction.compute_budget\n      ADD \t\t\ttransaction.compute_budget\n      SWAP1 \t\t\ttransaction.compute_budget = 1...\n      PUSH FFFFFFFFFFFFFFFF\t\t\ttransaction.compute_budget = 1...\n      AND \t\t\ttransaction.compute_budget = 1...\n      SWAP1 \t\t\ttransaction.compute_budget = 1...\n      DUP2 \t\t\ttransaction.compute_budget = 1...\n      PUSH FFFFFFFFFFFFFFFF\t\t\ttransaction.compute_budget = 1...\n      AND \t\t\ttransaction.compute_budget = 1...\n      DUP2 \t\t\ttransaction.compute_budget = 1...\n      MSTORE \t\t\ttransaction.compute_budget = 1...\n      POP \t\t\ttransaction.compute_budget = 1...\n      POP \t\t\ttransaction.compute_budget = 1...\n      PUSH [tag] 59\t\t\tInstruction memory instruction\n      PUSH [tag] 60\t\t\tInstruction memory instruction\n      JUMP \t\t\tInstruction memory instruction\n    tag 59\t\t\tInstruction memory instruction\n      JUMPDEST \t\t\tInstruction memory instruction\n      PUSH 1\t\t\t1\n      PUSH FFFFFFFFFFFFFFFF\t\t\tnew uint32[](1)\n      DUP2 \t\t\tnew uint32[](1)\n      GT \t\t\tnew uint32[](1)\n      ISZERO \t\t\tnew uint32[](1)\n      PUSH [tag] 61\t\t\tnew uint32[](1)\n      JUMPI \t\t\tnew uint32[](1)\n      PUSH [tag] 62\t\t\tnew uint32[](1)\n      PUSH [tag] 47\t\t\tnew uint32[](1)\n      JUMP \t\t\tnew uint32[](1)\n    tag 62\t\t\tnew uint32[](1)\n      JUMPDEST \t\t\tnew uint32[](1)\n    tag 61\t\t\tnew uint32[](1)\n      JUMPDEST \t\t\tnew uint32[](1)\n      PUSH 40\t\t\tnew uint32[](1)\n      MLOAD \t\t\tnew uint32[](1)\n      SWAP1 \t\t\tnew uint32[](1)\n      DUP1 \t\t\tnew uint32[](1)\n      DUP3 \t\t\tnew uint32[](1)\n      MSTORE \t\t\tnew uint32[](1)\n      DUP1 \t\t\tnew uint32[](1)\n      PUSH 20\t\t\tnew uint32[](1)\n      MUL \t\t\tnew uint32[](1)\n      PUSH 20\t\t\tnew uint32[](1)\n      ADD \t\t\tnew uint32[](1)\n      DUP3 \t\t\tnew uint32[](1)\n      ADD \t\t\tnew uint32[](1)\n      PUSH 40\t\t\tnew uint32[](1)\n      MSTORE \t\t\tnew uint32[](1)\n      DUP1 \t\t\tnew uint32[](1)\n      ISZERO \t\t\tnew uint32[](1)\n      PUSH [tag] 63\t\t\tnew uint32[](1)\n      JUMPI \t\t\tnew uint32[](1)\n      DUP2 \t\t\tnew uint32[](1)\n      PUSH 20\t\t\tnew uint32[](1)\n      ADD \t\t\tnew uint32[](1)\n      PUSH 20\t\t\tnew uint32[](1)\n      DUP3 \t\t\tnew uint32[](1)\n      MUL \t\t\tnew uint32[](1)\n      DUP1 \t\t\tnew uint32[](1)\n      CALLDATASIZE \t\t\tnew uint32[](1)\n      DUP4 \t\t\tnew uint32[](1)\n      CALLDATACOPY \t\t\tnew uint32[](1)\n      DUP1 \t\t\tnew uint32[](1)\n      DUP3 \t\t\tnew uint32[](1)\n      ADD \t\t\tnew uint32[](1)\n      SWAP2 \t\t\tnew uint32[](1)\n      POP \t\t\tnew uint32[](1)\n      POP \t\t\tnew uint32[](1)\n      SWAP1 \t\t\tnew uint32[](1)\n      POP \t\t\tnew uint32[](1)\n    tag 63\t\t\tnew uint32[](1)\n      JUMPDEST \t\t\tnew uint32[](1)\n      POP \t\t\tnew uint32[](1)\n      DUP2 \t\t\tinstruction\n      PUSH 0\t\t\tinstruction.program_index\n      ADD \t\t\tinstruction.program_index\n      DUP2 \t\t\tinstruction.program_index = ne...\n      SWAP1 \t\t\tinstruction.program_index = ne...\n      MSTORE \t\t\tinstruction.program_index = ne...\n      POP \t\t\tinstruction.program_index = ne...\n      PUSH 0\t\t\t0\n      DUP2 \t\t\tinstruction\n      PUSH 0\t\t\tinstruction.program_index\n      ADD \t\t\tinstruction.program_index\n      MLOAD \t\t\tinstruction.program_index\n      PUSH 0\t\t\t0\n      DUP2 \t\t\tinstruction.program_index[0]\n      MLOAD \t\t\tinstruction.program_index[0]\n      DUP2 \t\t\tinstruction.program_index[0]\n      LT \t\t\tinstruction.program_index[0]\n      PUSH [tag] 64\t\t\tinstruction.program_index[0]\n      JUMPI \t\t\tinstruction.program_index[0]\n      PUSH [tag] 65\t\t\tinstruction.program_index[0]\n      PUSH [tag] 52\t\t\tinstruction.program_index[0]\n      JUMP \t\t\tinstruction.program_index[0]\n    tag 65\t\t\tinstruction.program_index[0]\n      JUMPDEST \t\t\tinstruction.program_index[0]\n    tag 64\t\t\tinstruction.program_index[0]\n      JUMPDEST \t\t\tinstruction.program_index[0]\n      PUSH 20\t\t\tinstruction.program_index[0]\n      MUL \t\t\tinstruction.program_index[0]\n      PUSH 20\t\t\tinstruction.program_index[0]\n      ADD \t\t\tinstruction.program_index[0]\n      ADD \t\t\tinstruction.program_index[0]\n      SWAP1 \t\t\tinstruction.program_index[0] =...\n      PUSH FFFFFFFF\t\t\tinstruction.program_index[0] =...\n      AND \t\t\tinstruction.program_index[0] =...\n      SWAP1 \t\t\tinstruction.program_index[0] =...\n      DUP2 \t\t\tinstruction.program_index[0] =...\n      PUSH FFFFFFFF\t\t\tinstruction.program_index[0] =...\n      AND \t\t\tinstruction.program_index[0] =...\n      DUP2 \t\t\tinstruction.program_index[0] =...\n      MSTORE \t\t\tinstruction.program_index[0] =...\n      POP \t\t\tinstruction.program_index[0] =...\n      POP \t\t\tinstruction.program_index[0] =...\n      PUSH 3\t\t\t3\n      PUSH FFFFFFFFFFFFFFFF\t\t\tnew InstructionAccount[](3)\n      DUP2 \t\t\tnew InstructionAccount[](3)\n      GT \t\t\tnew InstructionAccount[](3)\n      ISZERO \t\t\tnew InstructionAccount[](3)\n      PUSH [tag] 66\t\t\tnew InstructionAccount[](3)\n      JUMPI \t\t\tnew InstructionAccount[](3)\n      PUSH [tag] 67\t\t\tnew InstructionAccount[](3)\n      PUSH [tag] 47\t\t\tnew InstructionAccount[](3)\n      JUMP \t\t\tnew InstructionAccount[](3)\n    tag 67\t\t\tnew InstructionAccount[](3)\n      JUMPDEST \t\t\tnew InstructionAccount[](3)\n    tag 66\t\t\tnew InstructionAccount[](3)\n      JUMPDEST \t\t\tnew InstructionAccount[](3)\n      PUSH 40\t\t\tnew InstructionAccount[](3)\n      MLOAD \t\t\tnew InstructionAccount[](3)\n      SWAP1 \t\t\tnew InstructionAccount[](3)\n      DUP1 \t\t\tnew InstructionAccount[](3)\n      DUP3 \t\t\tnew InstructionAccount[](3)\n      MSTORE \t\t\tnew InstructionAccount[](3)\n      DUP1 \t\t\tnew InstructionAccount[](3)\n      PUSH 20\t\t\tnew InstructionAccount[](3)\n      MUL \t\t\tnew InstructionAccount[](3)\n      PUSH 20\t\t\tnew InstructionAccount[](3)\n      ADD \t\t\tnew InstructionAccount[](3)\n      DUP3 \t\t\tnew InstructionAccount[](3)\n      ADD \t\t\tnew InstructionAccount[](3)\n      PUSH 40\t\t\tnew InstructionAccount[](3)\n      MSTORE \t\t\tnew InstructionAccount[](3)\n      DUP1 \t\t\tnew InstructionAccount[](3)\n      ISZERO \t\t\tnew InstructionAccount[](3)\n      PUSH [tag] 68\t\t\tnew InstructionAccount[](3)\n      JUMPI \t\t\tnew InstructionAccount[](3)\n      DUP2 \t\t\tnew InstructionAccount[](3)\n      PUSH 20\t\t\tnew InstructionAccount[](3)\n      ADD \t\t\tnew InstructionAccount[](3)\n    tag 69\t\t\tnew InstructionAccount[](3)\n      JUMPDEST \t\t\tnew InstructionAccount[](3)\n      PUSH [tag] 70\t\t\tnew InstructionAccount[](3)\n      PUSH [tag] 71\t\t\tnew InstructionAccount[](3)\n      JUMP \t\t\tnew InstructionAccount[](3)\n    tag 70\t\t\tnew InstructionAccount[](3)\n      JUMPDEST \t\t\tnew InstructionAccount[](3)\n      DUP2 \t\t\tnew InstructionAccount[](3)\n      MSTORE \t\t\tnew InstructionAccount[](3)\n      PUSH 20\t\t\tnew InstructionAccount[](3)\n      ADD \t\t\tnew InstructionAccount[](3)\n      SWAP1 \t\t\tnew InstructionAccount[](3)\n      PUSH 1\t\t\tnew InstructionAccount[](3)\n      SWAP1 \t\t\tnew InstructionAccount[](3)\n      SUB \t\t\tnew InstructionAccount[](3)\n      SWAP1 \t\t\tnew InstructionAccount[](3)\n      DUP2 \t\t\tnew InstructionAccount[](3)\n      PUSH [tag] 69\t\t\tnew InstructionAccount[](3)\n      JUMPI \t\t\tnew InstructionAccount[](3)\n      SWAP1 \t\t\tnew InstructionAccount[](3)\n      POP \t\t\tnew InstructionAccount[](3)\n    tag 68\t\t\tnew InstructionAccount[](3)\n      JUMPDEST \t\t\tnew InstructionAccount[](3)\n      POP \t\t\tnew InstructionAccount[](3)\n      DUP2 \t\t\tinstruction\n      PUSH 20\t\t\tinstruction.accounts\n      ADD \t\t\tinstruction.accounts\n      DUP2 \t\t\tinstruction.accounts = new Ins...\n      SWAP1 \t\t\tinstruction.accounts = new Ins...\n      MSTORE \t\t\tinstruction.accounts = new Ins...\n      POP \t\t\tinstruction.accounts = new Ins...\n      PUSH 40\t\t\tInstructionAccount({\\n        ...\n      MLOAD \t\t\tInstructionAccount({\\n        ...\n      DUP1 \t\t\tInstructionAccount({\\n        ...\n      PUSH A0\t\t\tInstructionAccount({\\n        ...\n      ADD \t\t\tInstructionAccount({\\n        ...\n      PUSH 40\t\t\tInstructionAccount({\\n        ...\n      MSTORE \t\t\tInstructionAccount({\\n        ...\n      DUP1 \t\t\tInstructionAccount({\\n        ...\n      PUSH 1\t\t\t1\n      PUSH FFFFFFFF\t\t\tInstructionAccount({\\n        ...\n      AND \t\t\tInstructionAccount({\\n        ...\n      DUP2 \t\t\tInstructionAccount({\\n        ...\n      MSTORE \t\t\tInstructionAccount({\\n        ...\n      PUSH 20\t\t\tInstructionAccount({\\n        ...\n      ADD \t\t\tInstructionAccount({\\n        ...\n      PUSH 1\t\t\t1\n      PUSH FFFFFFFF\t\t\tInstructionAccount({\\n        ...\n      AND \t\t\tInstructionAccount({\\n        ...\n      DUP2 \t\t\tInstructionAccount({\\n        ...\n      MSTORE \t\t\tInstructionAccount({\\n        ...\n      PUSH 20\t\t\tInstructionAccount({\\n        ...\n      ADD \t\t\tInstructionAccount({\\n        ...\n      PUSH 0\t\t\t0\n      PUSH FFFFFFFF\t\t\tInstructionAccount({\\n        ...\n      AND \t\t\tInstructionAccount({\\n        ...\n      DUP2 \t\t\tInstructionAccount({\\n        ...\n      MSTORE \t\t\tInstructionAccount({\\n        ...\n      PUSH 20\t\t\tInstructionAccount({\\n        ...\n      ADD \t\t\tInstructionAccount({\\n        ...\n      PUSH 0\t\t\tfalse\n      ISZERO \t\t\tInstructionAccount({\\n        ...\n      ISZERO \t\t\tInstructionAccount({\\n        ...\n      DUP2 \t\t\tInstructionAccount({\\n        ...\n      MSTORE \t\t\tInstructionAccount({\\n        ...\n      PUSH 20\t\t\tInstructionAccount({\\n        ...\n      ADD \t\t\tInstructionAccount({\\n        ...\n      PUSH 1\t\t\ttrue\n      ISZERO \t\t\tInstructionAccount({\\n        ...\n      ISZERO \t\t\tInstructionAccount({\\n        ...\n      DUP2 \t\t\tInstructionAccount({\\n        ...\n      MSTORE \t\t\tInstructionAccount({\\n        ...\n      POP \t\t\tInstructionAccount({\\n        ...\n      DUP2 \t\t\tinstruction\n      PUSH 20\t\t\tinstruction.accounts\n      ADD \t\t\tinstruction.accounts\n      MLOAD \t\t\tinstruction.accounts\n      PUSH 0\t\t\t0\n      DUP2 \t\t\tinstruction.accounts[0]\n      MLOAD \t\t\tinstruction.accounts[0]\n      DUP2 \t\t\tinstruction.accounts[0]\n      LT \t\t\tinstruction.accounts[0]\n      PUSH [tag] 72\t\t\tinstruction.accounts[0]\n      JUMPI \t\t\tinstruction.accounts[0]\n      PUSH [tag] 73\t\t\tinstruction.accounts[0]\n      PUSH [tag] 52\t\t\tinstruction.accounts[0]\n      JUMP \t\t\tinstruction.accounts[0]\n    tag 73\t\t\tinstruction.accounts[0]\n      JUMPDEST \t\t\tinstruction.accounts[0]\n    tag 72\t\t\tinstruction.accounts[0]\n      JUMPDEST \t\t\tinstruction.accounts[0]\n      PUSH 20\t\t\tinstruction.accounts[0]\n      MUL \t\t\tinstruction.accounts[0]\n      PUSH 20\t\t\tinstruction.accounts[0]\n      ADD \t\t\tinstruction.accounts[0]\n      ADD \t\t\tinstruction.accounts[0]\n      DUP2 \t\t\tinstruction.accounts[0] = Inst...\n      SWAP1 \t\t\tinstruction.accounts[0] = Inst...\n      MSTORE \t\t\tinstruction.accounts[0] = Inst...\n      POP \t\t\tinstruction.accounts[0] = Inst...\n      PUSH 40\t\t\tInstructionAccount({\\n        ...\n      MLOAD \t\t\tInstructionAccount({\\n        ...\n      DUP1 \t\t\tInstructionAccount({\\n        ...\n      PUSH A0\t\t\tInstructionAccount({\\n        ...\n      ADD \t\t\tInstructionAccount({\\n        ...\n      PUSH 40\t\t\tInstructionAccount({\\n        ...\n      MSTORE \t\t\tInstructionAccount({\\n        ...\n      DUP1 \t\t\tInstructionAccount({\\n        ...\n      PUSH 2\t\t\t2\n      PUSH FFFFFFFF\t\t\tInstructionAccount({\\n        ...\n      AND \t\t\tInstructionAccount({\\n        ...\n      DUP2 \t\t\tInstructionAccount({\\n        ...\n      MSTORE \t\t\tInstructionAccount({\\n        ...\n      PUSH 20\t\t\tInstructionAccount({\\n        ...\n      ADD \t\t\tInstructionAccount({\\n        ...\n      PUSH 2\t\t\t2\n      PUSH FFFFFFFF\t\t\tInstructionAccount({\\n        ...\n      AND \t\t\tInstructionAccount({\\n        ...\n      DUP2 \t\t\tInstructionAccount({\\n        ...\n      MSTORE \t\t\tInstructionAccount({\\n        ...\n      PUSH 20\t\t\tInstructionAccount({\\n        ...\n      ADD \t\t\tInstructionAccount({\\n        ...\n      PUSH 1\t\t\t1\n      PUSH FFFFFFFF\t\t\tInstructionAccount({\\n        ...\n      AND \t\t\tInstructionAccount({\\n        ...\n      DUP2 \t\t\tInstructionAccount({\\n        ...\n      MSTORE \t\t\tInstructionAccount({\\n        ...\n      PUSH 20\t\t\tInstructionAccount({\\n        ...\n      ADD \t\t\tInstructionAccount({\\n        ...\n      PUSH 1\t\t\ttrue\n      ISZERO \t\t\tInstructionAccount({\\n        ...\n      ISZERO \t\t\tInstructionAccount({\\n        ...\n      DUP2 \t\t\tInstructionAccount({\\n        ...\n      MSTORE \t\t\tInstructionAccount({\\n        ...\n      PUSH 20\t\t\tInstructionAccount({\\n        ...\n      ADD \t\t\tInstructionAccount({\\n        ...\n      PUSH 1\t\t\ttrue\n      ISZERO \t\t\tInstructionAccount({\\n        ...\n      ISZERO \t\t\tInstructionAccount({\\n        ...\n      DUP2 \t\t\tInstructionAccount({\\n        ...\n      MSTORE \t\t\tInstructionAccount({\\n        ...\n      POP \t\t\tInstructionAccount({\\n        ...\n      DUP2 \t\t\tinstruction\n      PUSH 20\t\t\tinstruction.accounts\n      ADD \t\t\tinstruction.accounts\n      MLOAD \t\t\tinstruction.accounts\n      PUSH 1\t\t\t1\n      DUP2 \t\t\tinstruction.accounts[1]\n      MLOAD \t\t\tinstruction.accounts[1]\n      DUP2 \t\t\tinstruction.accounts[1]\n      LT \t\t\tinstruction.accounts[1]\n      PUSH [tag] 74\t\t\tinstruction.accounts[1]\n      JUMPI \t\t\tinstruction.accounts[1]\n      PUSH [tag] 75\t\t\tinstruction.accounts[1]\n      PUSH [tag] 52\t\t\tinstruction.accounts[1]\n      JUMP \t\t\tinstruction.accounts[1]\n    tag 75\t\t\tinstruction.accounts[1]\n      JUMPDEST \t\t\tinstruction.accounts[1]\n    tag 74\t\t\tinstruction.accounts[1]\n      JUMPDEST \t\t\tinstruction.accounts[1]\n      PUSH 20\t\t\tinstruction.accounts[1]\n      MUL \t\t\tinstruction.accounts[1]\n      PUSH 20\t\t\tinstruction.accounts[1]\n      ADD \t\t\tinstruction.accounts[1]\n      ADD \t\t\tinstruction.accounts[1]\n      DUP2 \t\t\tinstruction.accounts[1] = Inst...\n      SWAP1 \t\t\tinstruction.accounts[1] = Inst...\n      MSTORE \t\t\tinstruction.accounts[1] = Inst...\n      POP \t\t\tinstruction.accounts[1] = Inst...\n      PUSH 40\t\t\tInstructionAccount({\\n        ...\n      MLOAD \t\t\tInstructionAccount({\\n        ...\n      DUP1 \t\t\tInstructionAccount({\\n        ...\n      PUSH A0\t\t\tInstructionAccount({\\n        ...\n      ADD \t\t\tInstructionAccount({\\n        ...\n      PUSH 40\t\t\tInstructionAccount({\\n        ...\n      MSTORE \t\t\tInstructionAccount({\\n        ...\n      DUP1 \t\t\tInstructionAccount({\\n        ...\n      PUSH 3\t\t\t3\n      PUSH FFFFFFFF\t\t\tInstructionAccount({\\n        ...\n      AND \t\t\tInstructionAccount({\\n        ...\n      DUP2 \t\t\tInstructionAccount({\\n        ...\n      MSTORE \t\t\tInstructionAccount({\\n        ...\n      PUSH 20\t\t\tInstructionAccount({\\n        ...\n      ADD \t\t\tInstructionAccount({\\n        ...\n      PUSH 3\t\t\t3\n      PUSH FFFFFFFF\t\t\tInstructionAccount({\\n        ...\n      AND \t\t\tInstructionAccount({\\n        ...\n      DUP2 \t\t\tInstructionAccount({\\n        ...\n      MSTORE \t\t\tInstructionAccount({\\n        ...\n      PUSH 20\t\t\tInstructionAccount({\\n        ...\n      ADD \t\t\tInstructionAccount({\\n        ...\n      PUSH 2\t\t\t2\n      PUSH FFFFFFFF\t\t\tInstructionAccount({\\n        ...\n      AND \t\t\tInstructionAccount({\\n        ...\n      DUP2 \t\t\tInstructionAccount({\\n        ...\n      MSTORE \t\t\tInstructionAccount({\\n        ...\n      PUSH 20\t\t\tInstructionAccount({\\n        ...\n      ADD \t\t\tInstructionAccount({\\n        ...\n      PUSH 0\t\t\tfalse\n      ISZERO \t\t\tInstructionAccount({\\n        ...\n      ISZERO \t\t\tInstructionAccount({\\n        ...\n      DUP2 \t\t\tInstructionAccount({\\n        ...\n      MSTORE \t\t\tInstructionAccount({\\n        ...\n      PUSH 20\t\t\tInstructionAccount({\\n        ...\n      ADD \t\t\tInstructionAccount({\\n        ...\n      PUSH 0\t\t\tfalse\n      ISZERO \t\t\tInstructionAccount({\\n        ...\n      ISZERO \t\t\tInstructionAccount({\\n        ...\n      DUP2 \t\t\tInstructionAccount({\\n        ...\n      MSTORE \t\t\tInstructionAccount({\\n        ...\n      POP \t\t\tInstructionAccount({\\n        ...\n      DUP2 \t\t\tinstruction\n      PUSH 20\t\t\tinstruction.accounts\n      ADD \t\t\tinstruction.accounts\n      MLOAD \t\t\tinstruction.accounts\n      PUSH 2\t\t\t2\n      DUP2 \t\t\tinstruction.accounts[2]\n      MLOAD \t\t\tinstruction.accounts[2]\n      DUP2 \t\t\tinstruction.accounts[2]\n      LT \t\t\tinstruction.accounts[2]\n      PUSH [tag] 76\t\t\tinstruction.accounts[2]\n      JUMPI \t\t\tinstruction.accounts[2]\n      PUSH [tag] 77\t\t\tinstruction.accounts[2]\n      PUSH [tag] 52\t\t\tinstruction.accounts[2]\n      JUMP \t\t\tinstruction.accounts[2]\n    tag 77\t\t\tinstruction.accounts[2]\n      JUMPDEST \t\t\tinstruction.accounts[2]\n    tag 76\t\t\tinstruction.accounts[2]\n      JUMPDEST \t\t\tinstruction.accounts[2]\n      PUSH 20\t\t\tinstruction.accounts[2]\n      MUL \t\t\tinstruction.accounts[2]\n      PUSH 20\t\t\tinstruction.accounts[2]\n      ADD \t\t\tinstruction.accounts[2]\n      ADD \t\t\tinstruction.accounts[2]\n      DUP2 \t\t\tinstruction.accounts[2] = Inst...\n      SWAP1 \t\t\tinstruction.accounts[2] = Inst...\n      MSTORE \t\t\tinstruction.accounts[2] = Inst...\n      POP \t\t\tinstruction.accounts[2] = Inst...\n      PUSH 0\t\t\tbytes memory discriminator\n      PUSH 40\t\t\tbytes memory discriminator = h...\n      MLOAD \t\t\tbytes memory discriminator = h...\n      DUP1 \t\t\tbytes memory discriminator = h...\n      PUSH 40\t\t\tbytes memory discriminator = h...\n      ADD \t\t\tbytes memory discriminator = h...\n      PUSH 40\t\t\tbytes memory discriminator = h...\n      MSTORE \t\t\tbytes memory discriminator = h...\n      DUP1 \t\t\tbytes memory discriminator = h...\n      PUSH 8\t\t\tbytes memory discriminator = h...\n      DUP2 \t\t\tbytes memory discriminator = h...\n      MSTORE \t\t\tbytes memory discriminator = h...\n      PUSH 20\t\t\tbytes memory discriminator = h...\n      ADD \t\t\tbytes memory discriminator = h...\n      PUSH DF725B88C54E9999000000000000000000000000000000000000000000000000\t\t\tbytes memory discriminator = h...\n      DUP2 \t\t\tbytes memory discriminator = h...\n      MSTORE \t\t\tbytes memory discriminator = h...\n      POP \t\t\tbytes memory discriminator = h...\n      SWAP1 \t\t\tbytes memory discriminator = h...\n      POP \t\t\tbytes memory discriminator = h...\n      PUSH 0\t\t\tbytes4 stringLen\n      ADDRESS \t\t\tthis\n      PUSH FFFFFFFFFFFFFFFFFFFFFFFFFFFFFFFFFFFFFFFF\t\t\tthis.getStringLengthLE\n      AND \t\t\tthis.getStringLengthLE\n      PUSH AC977793\t\t\tthis.getStringLengthLE\n      DUP9 \t\t\t_svmString\n      PUSH 40\t\t\tthis.getStringLengthLE(_svmStr...\n      MLOAD \t\t\tthis.getStringLengthLE(_svmStr...\n      DUP3 \t\t\tthis.getStringLengthLE(_svmStr...\n      PUSH FFFFFFFF\t\t\tthis.getStringLengthLE(_svmStr...\n      AND \t\t\tthis.getStringLengthLE(_svmStr...\n      PUSH E0\t\t\tthis.getStringLengthLE(_svmStr...\n      SHL \t\t\tthis.getStringLengthLE(_svmStr...\n      DUP2 \t\t\tthis.getStringLengthLE(_svmStr...\n      MSTORE \t\t\tthis.getStringLengthLE(_svmStr...\n      PUSH 4\t\t\tthis.getStringLengthLE(_svmStr...\n      ADD \t\t\tthis.getStringLengthLE(_svmStr...\n      PUSH [tag] 78\t\t\tthis.getStringLengthLE(_svmStr...\n      SWAP2 \t\t\tthis.getStringLengthLE(_svmStr...\n      SWAP1 \t\t\tthis.getStringLengthLE(_svmStr...\n      PUSH [tag] 20\t\t\tthis.getStringLengthLE(_svmStr...\n      JUMP \t\t\tthis.getStringLengthLE(_svmStr...\n    tag 78\t\t\tthis.getStringLengthLE(_svmStr...\n      JUMPDEST \t\t\tthis.getStringLengthLE(_svmStr...\n      PUSH 20\t\t\tthis.getStringLengthLE(_svmStr...\n      PUSH 40\t\t\tthis.getStringLengthLE(_svmStr...\n      MLOAD \t\t\tthis.getStringLengthLE(_svmStr...\n      DUP1 \t\t\tthis.getStringLengthLE(_svmStr...\n      DUP4 \t\t\tthis.getStringLengthLE(_svmStr...\n      SUB \t\t\tthis.getStringLengthLE(_svmStr...\n      DUP2 \t\t\tthis.getStringLengthLE(_svmStr...\n      DUP7 \t\t\tthis.getStringLengthLE(_svmStr...\n      GAS \t\t\tthis.getStringLengthLE(_svmStr...\n      STATICCALL \t\t\tthis.getStringLengthLE(_svmStr...\n      ISZERO \t\t\tthis.getStringLengthLE(_svmStr...\n      DUP1 \t\t\tthis.getStringLengthLE(_svmStr...\n      ISZERO \t\t\tthis.getStringLengthLE(_svmStr...\n      PUSH [tag] 80\t\t\tthis.getStringLengthLE(_svmStr...\n      JUMPI \t\t\tthis.getStringLengthLE(_svmStr...\n      RETURNDATASIZE \t\t\tthis.getStringLengthLE(_svmStr...\n      PUSH 0\t\t\tthis.getStringLengthLE(_svmStr...\n      DUP1 \t\t\tthis.getStringLengthLE(_svmStr...\n      RETURNDATACOPY \t\t\tthis.getStringLengthLE(_svmStr...\n      RETURNDATASIZE \t\t\tthis.getStringLengthLE(_svmStr...\n      PUSH 0\t\t\tthis.getStringLengthLE(_svmStr...\n      REVERT \t\t\tthis.getStringLengthLE(_svmStr...\n    tag 80\t\t\tthis.getStringLengthLE(_svmStr...\n      JUMPDEST \t\t\tthis.getStringLengthLE(_svmStr...\n      POP \t\t\tthis.getStringLengthLE(_svmStr...\n      POP \t\t\tthis.getStringLengthLE(_svmStr...\n      POP \t\t\tthis.getStringLengthLE(_svmStr...\n      POP \t\t\tthis.getStringLengthLE(_svmStr...\n      PUSH 40\t\t\tthis.getStringLengthLE(_svmStr...\n      MLOAD \t\t\tthis.getStringLengthLE(_svmStr...\n      RETURNDATASIZE \t\t\tthis.getStringLengthLE(_svmStr...\n      PUSH 1F\t\t\tthis.getStringLengthLE(_svmStr...\n      NOT \t\t\tthis.getStringLengthLE(_svmStr...\n      PUSH 1F\t\t\tthis.getStringLengthLE(_svmStr...\n      DUP3 \t\t\tthis.getStringLengthLE(_svmStr...\n      ADD \t\t\tthis.getStringLengthLE(_svmStr...\n      AND \t\t\tthis.getStringLengthLE(_svmStr...\n      DUP3 \t\t\tthis.getStringLengthLE(_svmStr...\n      ADD \t\t\tthis.getStringLengthLE(_svmStr...\n      DUP1 \t\t\tthis.getStringLengthLE(_svmStr...\n      PUSH 40\t\t\tthis.getStringLengthLE(_svmStr...\n      MSTORE \t\t\tthis.getStringLengthLE(_svmStr...\n      POP \t\t\tthis.getStringLengthLE(_svmStr...\n      DUP2 \t\t\tthis.getStringLengthLE(_svmStr...\n      ADD \t\t\tthis.getStringLengthLE(_svmStr...\n      SWAP1 \t\t\tthis.getStringLengthLE(_svmStr...\n      PUSH [tag] 81\t\t\tthis.getStringLengthLE(_svmStr...\n      SWAP2 \t\t\tthis.getStringLengthLE(_svmStr...\n      SWAP1 \t\t\tthis.getStringLengthLE(_svmStr...\n      PUSH [tag] 82\t\t\tthis.getStringLengthLE(_svmStr...\n      JUMP \t\t\tthis.getStringLengthLE(_svmStr...\n    tag 81\t\t\tthis.getStringLengthLE(_svmStr...\n      JUMPDEST \t\t\tthis.getStringLengthLE(_svmStr...\n      SWAP1 \t\t\tbytes4 stringLen = this.getStr...\n      POP \t\t\tbytes4 stringLen = this.getStr...\n      DUP2 \t\t\tdiscriminator\n      DUP2 \t\t\tstringLen\n      DUP9 \t\t\t_svmString\n      PUSH 40\t\t\tbytes.concat(discriminator, st...\n      MLOAD \t\t\tbytes.concat(discriminator, st...\n      PUSH 20\t\t\tbytes.concat(discriminator, st...\n      ADD \t\t\tbytes.concat(discriminator, st...\n      PUSH [tag] 83\t\t\tbytes.concat(discriminator, st...\n      SWAP4 \t\t\tbytes.concat(discriminator, st...\n      SWAP3 \t\t\tbytes.concat(discriminator, st...\n      SWAP2 \t\t\tbytes.concat(discriminator, st...\n      SWAP1 \t\t\tbytes.concat(discriminator, st...\n      PUSH [tag] 84\t\t\tbytes.concat(discriminator, st...\n      JUMP \t\t\tbytes.concat(discriminator, st...\n    tag 83\t\t\tbytes.concat(discriminator, st...\n      JUMPDEST \t\t\tbytes.concat(discriminator, st...\n      PUSH 40\t\t\tbytes.concat(discriminator, st...\n      MLOAD \t\t\tbytes.concat(discriminator, st...\n      PUSH 20\t\t\tbytes.concat(discriminator, st...\n      DUP2 \t\t\tbytes.concat(discriminator, st...\n      DUP4 \t\t\tbytes.concat(discriminator, st...\n      SUB \t\t\tbytes.concat(discriminator, st...\n      SUB \t\t\tbytes.concat(discriminator, st...\n      DUP2 \t\t\tbytes.concat(discriminator, st...\n      MSTORE \t\t\tbytes.concat(discriminator, st...\n      SWAP1 \t\t\tbytes.concat(discriminator, st...\n      PUSH 40\t\t\tbytes.concat(discriminator, st...\n      MSTORE \t\t\tbytes.concat(discriminator, st...\n      DUP4 \t\t\tinstruction\n      PUSH 40\t\t\tinstruction.data\n      ADD \t\t\tinstruction.data\n      DUP2 \t\t\tinstruction.data = bytes.conca...\n      SWAP1 \t\t\tinstruction.data = bytes.conca...\n      MSTORE \t\t\tinstruction.data = bytes.conca...\n      POP \t\t\tinstruction.data = bytes.conca...\n      PUSH 1\t\t\t1\n      PUSH FFFFFFFFFFFFFFFF\t\t\tnew Instruction[](1)\n      DUP2 \t\t\tnew Instruction[](1)\n      GT \t\t\tnew Instruction[](1)\n      ISZERO \t\t\tnew Instruction[](1)\n      PUSH [tag] 85\t\t\tnew Instruction[](1)\n      JUMPI \t\t\tnew Instruction[](1)\n      PUSH [tag] 86\t\t\tnew Instruction[](1)\n      PUSH [tag] 47\t\t\tnew Instruction[](1)\n      JUMP \t\t\tnew Instruction[](1)\n    tag 86\t\t\tnew Instruction[](1)\n      JUMPDEST \t\t\tnew Instruction[](1)\n    tag 85\t\t\tnew Instruction[](1)\n      JUMPDEST \t\t\tnew Instruction[](1)\n      PUSH 40\t\t\tnew Instruction[](1)\n      MLOAD \t\t\tnew Instruction[](1)\n      SWAP1 \t\t\tnew Instruction[](1)\n      DUP1 \t\t\tnew Instruction[](1)\n      DUP3 \t\t\tnew Instruction[](1)\n      MSTORE \t\t\tnew Instruction[](1)\n      DUP1 \t\t\tnew Instruction[](1)\n      PUSH 20\t\t\tnew Instruction[](1)\n      MUL \t\t\tnew Instruction[](1)\n      PUSH 20\t\t\tnew Instruction[](1)\n      ADD \t\t\tnew Instruction[](1)\n      DUP3 \t\t\tnew Instruction[](1)\n      ADD \t\t\tnew Instruction[](1)\n      PUSH 40\t\t\tnew Instruction[](1)\n      MSTORE \t\t\tnew Instruction[](1)\n      DUP1 \t\t\tnew Instruction[](1)\n      ISZERO \t\t\tnew Instruction[](1)\n      PUSH [tag] 87\t\t\tnew Instruction[](1)\n      JUMPI \t\t\tnew Instruction[](1)\n      DUP2 \t\t\tnew Instruction[](1)\n      PUSH 20\t\t\tnew Instruction[](1)\n      ADD \t\t\tnew Instruction[](1)\n    tag 88\t\t\tnew Instruction[](1)\n      JUMPDEST \t\t\tnew Instruction[](1)\n      PUSH [tag] 89\t\t\tnew Instruction[](1)\n      PUSH [tag] 60\t\t\tnew Instruction[](1)\n      JUMP \t\t\tnew Instruction[](1)\n    tag 89\t\t\tnew Instruction[](1)\n      JUMPDEST \t\t\tnew Instruction[](1)\n      DUP2 \t\t\tnew Instruction[](1)\n      MSTORE \t\t\tnew Instruction[](1)\n      PUSH 20\t\t\tnew Instruction[](1)\n      ADD \t\t\tnew Instruction[](1)\n      SWAP1 \t\t\tnew Instruction[](1)\n      PUSH 1\t\t\tnew Instruction[](1)\n      SWAP1 \t\t\tnew Instruction[](1)\n      SUB \t\t\tnew Instruction[](1)\n      SWAP1 \t\t\tnew Instruction[](1)\n      DUP2 \t\t\tnew Instruction[](1)\n      PUSH [tag] 88\t\t\tnew Instruction[](1)\n      JUMPI \t\t\tnew Instruction[](1)\n      SWAP1 \t\t\tnew Instruction[](1)\n      POP \t\t\tnew Instruction[](1)\n    tag 87\t\t\tnew Instruction[](1)\n      JUMPDEST \t\t\tnew Instruction[](1)\n      POP \t\t\tnew Instruction[](1)\n      DUP5 \t\t\ttransaction\n      PUSH 40\t\t\ttransaction.instructions\n      ADD \t\t\ttransaction.instructions\n      DUP2 \t\t\ttransaction.instructions = new...\n      SWAP1 \t\t\ttransaction.instructions = new...\n      MSTORE \t\t\ttransaction.instructions = new...\n      POP \t\t\ttransaction.instructions = new...\n      DUP3 \t\t\tinstruction\n      DUP5 \t\t\ttransaction\n      PUSH 40\t\t\ttransaction.instructions\n      ADD \t\t\ttransaction.instructions\n      MLOAD \t\t\ttransaction.instructions\n      PUSH 0\t\t\t0\n      DUP2 \t\t\ttransaction.instructions[0]\n      MLOAD \t\t\ttransaction.instructions[0]\n      DUP2 \t\t\ttransaction.instructions[0]\n      LT \t\t\ttransaction.instructions[0]\n      PUSH [tag] 90\t\t\ttransaction.instructions[0]\n      JUMPI \t\t\ttransaction.instructions[0]\n      PUSH [tag] 91\t\t\ttransaction.instructions[0]\n      PUSH [tag] 52\t\t\ttransaction.instructions[0]\n      JUMP \t\t\ttransaction.instructions[0]\n    tag 91\t\t\ttransaction.instructions[0]\n      JUMPDEST \t\t\ttransaction.instructions[0]\n    tag 90\t\t\ttransaction.instructions[0]\n      JUMPDEST \t\t\ttransaction.instructions[0]\n      PUSH 20\t\t\ttransaction.instructions[0]\n      MUL \t\t\ttransaction.instructions[0]\n      PUSH 20\t\t\ttransaction.instructions[0]\n      ADD \t\t\ttransaction.instructions[0]\n      ADD \t\t\ttransaction.instructions[0]\n      DUP2 \t\t\ttransaction.instructions[0] = ...\n      SWAP1 \t\t\ttransaction.instructions[0] = ...\n      MSTORE \t\t\ttransaction.instructions[0] = ...\n      POP \t\t\ttransaction.instructions[0] = ...\n      PUSH 0\t\t\tbool ok\n      DUP1 \t\t\tbytes memory r\n      DUP7 \t\t\tsvmProxy\n      PUSH FFFFFFFFFFFFFFFFFFFFFFFFFFFFFFFFFFFFFFFF\t\t\tsvmProxy.call\n      AND \t\t\tsvmProxy.call\n      DUP7 \t\t\ttransaction\n      PUSH 40\t\t\tabi.encode(transaction)\n      MLOAD \t\t\tabi.encode(transaction)\n      PUSH 20\t\t\tabi.encode(transaction)\n      ADD \t\t\tabi.encode(transaction)\n      PUSH [tag] 92\t\t\tabi.encode(transaction)\n      SWAP2 \t\t\tabi.encode(transaction)\n      SWAP1 \t\t\tabi.encode(transaction)\n      PUSH [tag] 93\t\t\tabi.encode(transaction)\n      JUMP \t\t\tabi.encode(transaction)\n    tag 92\t\t\tabi.encode(transaction)\n      JUMPDEST \t\t\tabi.encode(transaction)\n      PUSH 40\t\t\tabi.encode(transaction)\n      MLOAD \t\t\tabi.encode(transaction)\n      PUSH 20\t\t\tabi.encode(transaction)\n      DUP2 \t\t\tabi.encode(transaction)\n      DUP4 \t\t\tabi.encode(transaction)\n      SUB \t\t\tabi.encode(transaction)\n      SUB \t\t\tabi.encode(transaction)\n      DUP2 \t\t\tabi.encode(transaction)\n      MSTORE \t\t\tabi.encode(transaction)\n      SWAP1 \t\t\tabi.encode(transaction)\n      PUSH 40\t\t\tabi.encode(transaction)\n      MSTORE \t\t\tabi.encode(transaction)\n      PUSH 40\t\t\tsvmProxy.call(abi.encode(trans...\n      MLOAD \t\t\tsvmProxy.call(abi.encode(trans...\n      PUSH [tag] 94\t\t\tsvmProxy.call(abi.encode(trans...\n      SWAP2 \t\t\tsvmProxy.call(abi.encode(trans...\n      SWAP1 \t\t\tsvmProxy.call(abi.encode(trans...\n      PUSH [tag] 95\t\t\tsvmProxy.call(abi.encode(trans...\n      JUMP \t\t\tsvmProxy.call(abi.encode(trans...\n    tag 94\t\t\tsvmProxy.call(abi.encode(trans...\n      JUMPDEST \t\t\tsvmProxy.call(abi.encode(trans...\n      PUSH 0\t\t\tsvmProxy.call(abi.encode(trans...\n      PUSH 40\t\t\tsvmProxy.call(abi.encode(trans...\n      MLOAD \t\t\tsvmProxy.call(abi.encode(trans...\n      DUP1 \t\t\tsvmProxy.call(abi.encode(trans...\n      DUP4 \t\t\tsvmProxy.call(abi.encode(trans...\n      SUB \t\t\tsvmProxy.call(abi.encode(trans...\n      DUP2 \t\t\tsvmProxy.call(abi.encode(trans...\n      PUSH 0\t\t\tsvmProxy.call(abi.encode(trans...\n      DUP7 \t\t\tsvmProxy.call(abi.encode(trans...\n      GAS \t\t\tsvmProxy.call(abi.encode(trans...\n      CALL \t\t\tsvmProxy.call(abi.encode(trans...\n      SWAP2 \t\t\tsvmProxy.call(abi.encode(trans...\n      POP \t\t\tsvmProxy.call(abi.encode(trans...\n      POP \t\t\tsvmProxy.call(abi.encode(trans...\n      RETURNDATASIZE \t\t\tsvmProxy.call(abi.encode(trans...\n      DUP1 \t\t\tsvmProxy.call(abi.encode(trans...\n      PUSH 0\t\t\tsvmProxy.call(abi.encode(trans...\n      DUP2 \t\t\tsvmProxy.call(abi.encode(trans...\n      EQ \t\t\tsvmProxy.call(abi.encode(trans...\n      PUSH [tag] 98\t\t\tsvmProxy.call(abi.encode(trans...\n      JUMPI \t\t\tsvmProxy.call(abi.encode(trans...\n      PUSH 40\t\t\tsvmProxy.call(abi.encode(trans...\n      MLOAD \t\t\tsvmProxy.call(abi.encode(trans...\n      SWAP2 \t\t\tsvmProxy.call(abi.encode(trans...\n      POP \t\t\tsvmProxy.call(abi.encode(trans...\n      PUSH 1F\t\t\tsvmProxy.call(abi.encode(trans...\n      NOT \t\t\tsvmProxy.call(abi.encode(trans...\n      PUSH 3F\t\t\tsvmProxy.call(abi.encode(trans...\n      RETURNDATASIZE \t\t\tsvmProxy.call(abi.encode(trans...\n      ADD \t\t\tsvmProxy.call(abi.encode(trans...\n      AND \t\t\tsvmProxy.call(abi.encode(trans...\n      DUP3 \t\t\tsvmProxy.call(abi.encode(trans...\n      ADD \t\t\tsvmProxy.call(abi.encode(trans...\n      PUSH 40\t\t\tsvmProxy.call(abi.encode(trans...\n      MSTORE \t\t\tsvmProxy.call(abi.encode(trans...\n      RETURNDATASIZE \t\t\tsvmProxy.call(abi.encode(trans...\n      DUP3 \t\t\tsvmProxy.call(abi.encode(trans...\n      MSTORE \t\t\tsvmProxy.call(abi.encode(trans...\n      RETURNDATASIZE \t\t\tsvmProxy.call(abi.encode(trans...\n      PUSH 0\t\t\tsvmProxy.call(abi.encode(trans...\n      PUSH 20\t\t\tsvmProxy.call(abi.encode(trans...\n      DUP5 \t\t\tsvmProxy.call(abi.encode(trans...\n      ADD \t\t\tsvmProxy.call(abi.encode(trans...\n      RETURNDATACOPY \t\t\tsvmProxy.call(abi.encode(trans...\n      PUSH [tag] 97\t\t\tsvmProxy.call(abi.encode(trans...\n      JUMP \t\t\tsvmProxy.call(abi.encode(trans...\n    tag 98\t\t\tsvmProxy.call(abi.encode(trans...\n      JUMPDEST \t\t\tsvmProxy.call(abi.encode(trans...\n      PUSH 60\t\t\tsvmProxy.call(abi.encode(trans...\n      SWAP2 \t\t\tsvmProxy.call(abi.encode(trans...\n      POP \t\t\tsvmProxy.call(abi.encode(trans...\n    tag 97\t\t\tsvmProxy.call(abi.encode(trans...\n      JUMPDEST \t\t\tsvmProxy.call(abi.encode(trans...\n      POP \t\t\tsvmProxy.call(abi.encode(trans...\n      SWAP2 \t\t\t(bool ok, bytes memory r) = sv...\n      POP \t\t\t(bool ok, bytes memory r) = sv...\n      SWAP2 \t\t\t(bool ok, bytes memory r) = sv...\n      POP \t\t\t(bool ok, bytes memory r) = sv...\n      DUP2 \t\t\tok\n      PUSH [tag] 99\t\t\trequire(ok, \"call must succeed...\n      JUMPI \t\t\trequire(ok, \"call must succeed...\n      PUSH 40\t\t\trequire(ok, \"call must succeed...\n      MLOAD \t\t\trequire(ok, \"call must succeed...\n      PUSH 8C379A000000000000000000000000000000000000000000000000000000000\t\t\trequire(ok, \"call must succeed...\n      DUP2 \t\t\trequire(ok, \"call must succeed...\n      MSTORE \t\t\trequire(ok, \"call must succeed...\n      PUSH 4\t\t\trequire(ok, \"call must succeed...\n      ADD \t\t\trequire(ok, \"call must succeed...\n      PUSH [tag] 100\t\t\trequire(ok, \"call must succeed...\n      SWAP1 \t\t\trequire(ok, \"call must succeed...\n      PUSH [tag] 101\t\t\trequire(ok, \"call must succeed...\n      JUMP \t\t\trequire(ok, \"call must succeed...\n    tag 100\t\t\trequire(ok, \"call must succeed...\n      JUMPDEST \t\t\trequire(ok, \"call must succeed...\n      PUSH 40\t\t\trequire(ok, \"call must succeed...\n      MLOAD \t\t\trequire(ok, \"call must succeed...\n      DUP1 \t\t\trequire(ok, \"call must succeed...\n      SWAP2 \t\t\trequire(ok, \"call must succeed...\n      SUB \t\t\trequire(ok, \"call must succeed...\n      SWAP1 \t\t\trequire(ok, \"call must succeed...\n      REVERT \t\t\trequire(ok, \"call must succeed...\n    tag 99\t\t\trequire(ok, \"call must succeed...\n      JUMPDEST \t\t\trequire(ok, \"call must succeed...\n      DUP1 \t\t\tr\n      SWAP8 \t\t\treturn r\n      POP \t\t\treturn r\n      POP \t\t\treturn r\n      POP \t\t\treturn r\n      POP \t\t\treturn r\n      POP \t\t\treturn r\n      POP \t\t\treturn r\n      POP \t\t\treturn r\n      POP \t\t\treturn r\n      SWAP3 \t\t\tfunction setSvm(string memory ...\n      SWAP2 \t\t\tfunction setSvm(string memory ...\n      POP \t\t\tfunction setSvm(string memory ...\n      POP \t\t\tfunction setSvm(string memory ...\n      JUMP \t\t\tfunction setSvm(string memory ...\n    tag 18\t\t\tstring public evmString\n      JUMPDEST \t\t\tstring public evmString\n      PUSH 0\t\t\tstring public evmString\n      DUP1 \t\t\tstring public evmString\n      SLOAD \t\t\tstring public evmString\n      PUSH [tag] 102\t\t\tstring public evmString\n      SWAP1 \t\t\tstring public evmString\n      PUSH [tag] 103\t\t\tstring public evmString\n      JUMP \t\t\tstring public evmString\n    tag 102\t\t\tstring public evmString\n      JUMPDEST \t\t\tstring public evmString\n      DUP1 \t\t\tstring public evmString\n      PUSH 1F\t\t\tstring public evmString\n      ADD \t\t\tstring public evmString\n      PUSH 20\t\t\tstring public evmString\n      DUP1 \t\t\tstring public evmString\n      SWAP2 \t\t\tstring public evmString\n      DIV \t\t\tstring public evmString\n      MUL \t\t\tstring public evmString\n      PUSH 20\t\t\tstring public evmString\n      ADD \t\t\tstring public evmString\n      PUSH 40\t\t\tstring public evmString\n      MLOAD \t\t\tstring public evmString\n      SWAP1 \t\t\tstring public evmString\n      DUP2 \t\t\tstring public evmString\n      ADD \t\t\tstring public evmString\n      PUSH 40\t\t\tstring public evmString\n      MSTORE \t\t\tstring public evmString\n      DUP1 \t\t\tstring public evmString\n      SWAP3 \t\t\tstring public evmString\n      SWAP2 \t\t\tstring public evmString\n      SWAP1 \t\t\tstring public evmString\n      DUP2 \t\t\tstring public evmString\n      DUP2 \t\t\tstring public evmString\n      MSTORE \t\t\tstring public evmString\n      PUSH 20\t\t\tstring public evmString\n      ADD \t\t\tstring public evmString\n      DUP3 \t\t\tstring public evmString\n      DUP1 \t\t\tstring public evmString\n      SLOAD \t\t\tstring public evmString\n      PUSH [tag] 104\t\t\tstring public evmString\n      SWAP1 \t\t\tstring public evmString\n      PUSH [tag] 103\t\t\tstring public evmString\n      JUMP \t\t\tstring public evmString\n    tag 104\t\t\tstring public evmString\n      JUMPDEST \t\t\tstring public evmString\n      DUP1 \t\t\tstring public evmString\n      ISZERO \t\t\tstring public evmString\n      PUSH [tag] 105\t\t\tstring public evmString\n      JUMPI \t\t\tstring public evmString\n      DUP1 \t\t\tstring public evmString\n      PUSH 1F\t\t\tstring public evmString\n      LT \t\t\tstring public evmString\n      PUSH [tag] 106\t\t\tstring public evmString\n      JUMPI \t\t\tstring public evmString\n      PUSH 100\t\t\tstring public evmString\n      DUP1 \t\t\tstring public evmString\n      DUP4 \t\t\tstring public evmString\n      SLOAD \t\t\tstring public evmString\n      DIV \t\t\tstring public evmString\n      MUL \t\t\tstring public evmString\n      DUP4 \t\t\tstring public evmString\n      MSTORE \t\t\tstring public evmString\n      SWAP2 \t\t\tstring public evmString\n      PUSH 20\t\t\tstring public evmString\n      ADD \t\t\tstring public evmString\n      SWAP2 \t\t\tstring public evmString\n      PUSH [tag] 105\t\t\tstring public evmString\n      JUMP \t\t\tstring public evmString\n    tag 106\t\t\tstring public evmString\n      JUMPDEST \t\t\tstring public evmString\n      DUP3 \t\t\tstring public evmString\n      ADD \t\t\tstring public evmString\n      SWAP2 \t\t\tstring public evmString\n      SWAP1 \t\t\tstring public evmString\n      PUSH 0\t\t\tstring public evmString\n      MSTORE \t\t\tstring public evmString\n      PUSH 20\t\t\tstring public evmString\n      PUSH 0\t\t\tstring public evmString\n      KECCAK256 \t\t\tstring public evmString\n      SWAP1 \t\t\tstring public evmString\n    tag 107\t\t\tstring public evmString\n      JUMPDEST \t\t\tstring public evmString\n      DUP2 \t\t\tstring public evmString\n      SLOAD \t\t\tstring public evmString\n      DUP2 \t\t\tstring public evmString\n      MSTORE \t\t\tstring public evmString\n      SWAP1 \t\t\tstring public evmString\n      PUSH 1\t\t\tstring public evmString\n      ADD \t\t\tstring public evmString\n      SWAP1 \t\t\tstring public evmString\n      PUSH 20\t\t\tstring public evmString\n      ADD \t\t\tstring public evmString\n      DUP1 \t\t\tstring public evmString\n      DUP4 \t\t\tstring public evmString\n      GT \t\t\tstring public evmString\n      PUSH [tag] 107\t\t\tstring public evmString\n      JUMPI \t\t\tstring public evmString\n      DUP3 \t\t\tstring public evmString\n      SWAP1 \t\t\tstring public evmString\n      SUB \t\t\tstring public evmString\n      PUSH 1F\t\t\tstring public evmString\n      AND \t\t\tstring public evmString\n      DUP3 \t\t\tstring public evmString\n      ADD \t\t\tstring public evmString\n      SWAP2 \t\t\tstring public evmString\n    tag 105\t\t\tstring public evmString\n      JUMPDEST \t\t\tstring public evmString\n      POP \t\t\tstring public evmString\n      POP \t\t\tstring public evmString\n      POP \t\t\tstring public evmString\n      POP \t\t\tstring public evmString\n      POP \t\t\tstring public evmString\n      DUP2 \t\t\tstring public evmString\n      JUMP \t\t\tstring public evmString\n    tag 24\t\t\tfunction set(string memory _ev...\n      JUMPDEST \t\t\tfunction set(string memory _ev...\n      DUP1 \t\t\t_evmString\n      PUSH 0\t\t\tevmString\n      SWAP1 \t\t\tevmString = _evmString\n      DUP2 \t\t\tevmString = _evmString\n      PUSH [tag] 109\t\t\tevmString = _evmString\n      SWAP2 \t\t\tevmString = _evmString\n      SWAP1 \t\t\tevmString = _evmString\n      PUSH [tag] 110\t\t\tevmString = _evmString\n      JUMP \t\t\tevmString = _evmString\n    tag 109\t\t\tevmString = _evmString\n      JUMPDEST \t\t\tevmString = _evmString\n      POP \t\t\tevmString = _evmString\n      POP \t\t\tfunction set(string memory _ev...\n      JUMP \t\t\tfunction set(string memory _ev...\n    tag 26\t\t\tfunction getSvm() public view ...\n      JUMPDEST \t\t\tfunction getSvm() public view ...\n      PUSH 60\t\t\tstring memory\n      PUSH 0\t\t\taddress svmProxy\n      PUSH AB6B4D064C968ECA87F775D2493A222987052BC0\t\t\t0xaB6B4d064C968eCa87F775d2493a...\n      SWAP1 \t\t\taddress svmProxy = address(0xa...\n      POP \t\t\taddress svmProxy = address(0xa...\n      PUSH [tag] 112\t\t\tMsgTransaction memory transact...\n      PUSH [tag] 44\t\t\tMsgTransaction memory transact...\n      JUMP \t\t\tMsgTransaction memory transact...\n    tag 112\t\t\tMsgTransaction memory transact...\n      JUMPDEST \t\t\tMsgTransaction memory transact...\n      PUSH 2\t\t\t2\n      PUSH FFFFFFFFFFFFFFFF\t\t\tnew string[](2)\n      DUP2 \t\t\tnew string[](2)\n      GT \t\t\tnew string[](2)\n      ISZERO \t\t\tnew string[](2)\n      PUSH [tag] 113\t\t\tnew string[](2)\n      JUMPI \t\t\tnew string[](2)\n      PUSH [tag] 114\t\t\tnew string[](2)\n      PUSH [tag] 47\t\t\tnew string[](2)\n      JUMP \t\t\tnew string[](2)\n    tag 114\t\t\tnew string[](2)\n      JUMPDEST \t\t\tnew string[](2)\n    tag 113\t\t\tnew string[](2)\n      JUMPDEST \t\t\tnew string[](2)\n      PUSH 40\t\t\tnew string[](2)\n      MLOAD \t\t\tnew string[](2)\n      SWAP1 \t\t\tnew string[](2)\n      DUP1 \t\t\tnew string[](2)\n      DUP3 \t\t\tnew string[](2)\n      MSTORE \t\t\tnew string[](2)\n      DUP1 \t\t\tnew string[](2)\n      PUSH 20\t\t\tnew string[](2)\n      MUL \t\t\tnew string[](2)\n      PUSH 20\t\t\tnew string[](2)\n      ADD \t\t\tnew string[](2)\n      DUP3 \t\t\tnew string[](2)\n      ADD \t\t\tnew string[](2)\n      PUSH 40\t\t\tnew string[](2)\n      MSTORE \t\t\tnew string[](2)\n      DUP1 \t\t\tnew string[](2)\n      ISZERO \t\t\tnew string[](2)\n      PUSH [tag] 115\t\t\tnew string[](2)\n      JUMPI \t\t\tnew string[](2)\n      DUP2 \t\t\tnew string[](2)\n      PUSH 20\t\t\tnew string[](2)\n      ADD \t\t\tnew string[](2)\n    tag 116\t\t\tnew string[](2)\n      JUMPDEST \t\t\tnew string[](2)\n      PUSH 60\t\t\tnew string[](2)\n      DUP2 \t\t\tnew string[](2)\n      MSTORE \t\t\tnew string[](2)\n      PUSH 20\t\t\tnew string[](2)\n      ADD \t\t\tnew string[](2)\n      SWAP1 \t\t\tnew string[](2)\n      PUSH 1\t\t\tnew string[](2)\n      SWAP1 \t\t\tnew string[](2)\n      SUB \t\t\tnew string[](2)\n      SWAP1 \t\t\tnew string[](2)\n      DUP2 \t\t\tnew string[](2)\n      PUSH [tag] 116\t\t\tnew string[](2)\n      JUMPI \t\t\tnew string[](2)\n      SWAP1 \t\t\tnew string[](2)\n      POP \t\t\tnew string[](2)\n    tag 115\t\t\tnew string[](2)\n      JUMPDEST \t\t\tnew string[](2)\n      POP \t\t\tnew string[](2)\n      DUP2 \t\t\ttransaction\n      PUSH 20\t\t\ttransaction.accounts\n      ADD \t\t\ttransaction.accounts\n      DUP2 \t\t\ttransaction.accounts = new str...\n      SWAP1 \t\t\ttransaction.accounts = new str...\n      MSTORE \t\t\ttransaction.accounts = new str...\n      POP \t\t\ttransaction.accounts = new str...\n      PUSH 40\t\t\ttransaction.accounts[0] = \"83z...\n      MLOAD \t\t\ttransaction.accounts[0] = \"83z...\n      DUP1 \t\t\ttransaction.accounts[0] = \"83z...\n      PUSH 60\t\t\ttransaction.accounts[0] = \"83z...\n      ADD \t\t\ttransaction.accounts[0] = \"83z...\n      PUSH 40\t\t\ttransaction.accounts[0] = \"83z...\n      MSTORE \t\t\ttransaction.accounts[0] = \"83z...\n      DUP1 \t\t\ttransaction.accounts[0] = \"83z...\n      PUSH 2C\t\t\ttransaction.accounts[0] = \"83z...\n      DUP2 \t\t\ttransaction.accounts[0] = \"83z...\n      MSTORE \t\t\ttransaction.accounts[0] = \"83z...\n      PUSH 20\t\t\ttransaction.accounts[0] = \"83z...\n      ADD \t\t\ttransaction.accounts[0] = \"83z...\n      PUSH data 5AD1B34C28D0DE49F8303D7C1424471BC7D1A6CFFDF5E570B681B7A033938E0F\t\t\ttransaction.accounts[0] = \"83z...\n      PUSH 2C\t\t\ttransaction.accounts[0] = \"83z...\n      SWAP2 \t\t\ttransaction.accounts[0] = \"83z...\n      CODECOPY \t\t\ttransaction.accounts[0] = \"83z...\n      DUP2 \t\t\ttransaction\n      PUSH 20\t\t\ttransaction.accounts\n      ADD \t\t\ttransaction.accounts\n      MLOAD \t\t\ttransaction.accounts\n      PUSH 0\t\t\t0\n      DUP2 \t\t\ttransaction.accounts[0]\n      MLOAD \t\t\ttransaction.accounts[0]\n      DUP2 \t\t\ttransaction.accounts[0]\n      LT \t\t\ttransaction.accounts[0]\n      PUSH [tag] 117\t\t\ttransaction.accounts[0]\n      JUMPI \t\t\ttransaction.accounts[0]\n      PUSH [tag] 118\t\t\ttransaction.accounts[0]\n      PUSH [tag] 52\t\t\ttransaction.accounts[0]\n      JUMP \t\t\ttransaction.accounts[0]\n    tag 118\t\t\ttransaction.accounts[0]\n      JUMPDEST \t\t\ttransaction.accounts[0]\n    tag 117\t\t\ttransaction.accounts[0]\n      JUMPDEST \t\t\ttransaction.accounts[0]\n      PUSH 20\t\t\ttransaction.accounts[0]\n      MUL \t\t\ttransaction.accounts[0]\n      PUSH 20\t\t\ttransaction.accounts[0]\n      ADD \t\t\ttransaction.accounts[0]\n      ADD \t\t\ttransaction.accounts[0]\n      DUP2 \t\t\ttransaction.accounts[0] = \"83z...\n      SWAP1 \t\t\ttransaction.accounts[0] = \"83z...\n      MSTORE \t\t\ttransaction.accounts[0] = \"83z...\n      POP \t\t\ttransaction.accounts[0] = \"83z...\n      PUSH 40\t\t\ttransaction.accounts[1] = \"22z...\n      MLOAD \t\t\ttransaction.accounts[1] = \"22z...\n      DUP1 \t\t\ttransaction.accounts[1] = \"22z...\n      PUSH 60\t\t\ttransaction.accounts[1] = \"22z...\n      ADD \t\t\ttransaction.accounts[1] = \"22z...\n      PUSH 40\t\t\ttransaction.accounts[1] = \"22z...\n      MSTORE \t\t\ttransaction.accounts[1] = \"22z...\n      DUP1 \t\t\ttransaction.accounts[1] = \"22z...\n      PUSH 2C\t\t\ttransaction.accounts[1] = \"22z...\n      DUP2 \t\t\ttransaction.accounts[1] = \"22z...\n      MSTORE \t\t\ttransaction.accounts[1] = \"22z...\n      PUSH 20\t\t\ttransaction.accounts[1] = \"22z...\n      ADD \t\t\ttransaction.accounts[1] = \"22z...\n      PUSH data DB7DC5A227104A7DC4106459D89C7370461570F3D01CED1AE79589AA9212598F\t\t\ttransaction.accounts[1] = \"22z...\n      PUSH 2C\t\t\ttransaction.accounts[1] = \"22z...\n      SWAP2 \t\t\ttransaction.accounts[1] = \"22z...\n      CODECOPY \t\t\ttransaction.accounts[1] = \"22z...\n      DUP2 \t\t\ttransaction\n      PUSH 20\t\t\ttransaction.accounts\n      ADD \t\t\ttransaction.accounts\n      MLOAD \t\t\ttransaction.accounts\n      PUSH 1\t\t\t1\n      DUP2 \t\t\ttransaction.accounts[1]\n      MLOAD \t\t\ttransaction.accounts[1]\n      DUP2 \t\t\ttransaction.accounts[1]\n      LT \t\t\ttransaction.accounts[1]\n      PUSH [tag] 119\t\t\ttransaction.accounts[1]\n      JUMPI \t\t\ttransaction.accounts[1]\n      PUSH [tag] 120\t\t\ttransaction.accounts[1]\n      PUSH [tag] 52\t\t\ttransaction.accounts[1]\n      JUMP \t\t\ttransaction.accounts[1]\n    tag 120\t\t\ttransaction.accounts[1]\n      JUMPDEST \t\t\ttransaction.accounts[1]\n    tag 119\t\t\ttransaction.accounts[1]\n      JUMPDEST \t\t\ttransaction.accounts[1]\n      PUSH 20\t\t\ttransaction.accounts[1]\n      MUL \t\t\ttransaction.accounts[1]\n      PUSH 20\t\t\ttransaction.accounts[1]\n      ADD \t\t\ttransaction.accounts[1]\n      ADD \t\t\ttransaction.accounts[1]\n      DUP2 \t\t\ttransaction.accounts[1] = \"22z...\n      SWAP1 \t\t\ttransaction.accounts[1] = \"22z...\n      MSTORE \t\t\ttransaction.accounts[1] = \"22z...\n      POP \t\t\ttransaction.accounts[1] = \"22z...\n      PUSH F4240\t\t\t1000000\n      DUP2 \t\t\ttransaction\n      PUSH 60\t\t\ttransaction.compute_budget\n      ADD \t\t\ttransaction.compute_budget\n      SWAP1 \t\t\ttransaction.compute_budget = 1...\n      PUSH FFFFFFFFFFFFFFFF\t\t\ttransaction.compute_budget = 1...\n      AND \t\t\ttransaction.compute_budget = 1...\n      SWAP1 \t\t\ttransaction.compute_budget = 1...\n      DUP2 \t\t\ttransaction.compute_budget = 1...\n      PUSH FFFFFFFFFFFFFFFF\t\t\ttransaction.compute_budget = 1...\n      AND \t\t\ttransaction.compute_budget = 1...\n      DUP2 \t\t\ttransaction.compute_budget = 1...\n      MSTORE \t\t\ttransaction.compute_budget = 1...\n      POP \t\t\ttransaction.compute_budget = 1...\n      POP \t\t\ttransaction.compute_budget = 1...\n      PUSH [tag] 121\t\t\tInstruction memory instruction\n      PUSH [tag] 60\t\t\tInstruction memory instruction\n      JUMP \t\t\tInstruction memory instruction\n    tag 121\t\t\tInstruction memory instruction\n      JUMPDEST \t\t\tInstruction memory instruction\n      PUSH 1\t\t\t1\n      PUSH FFFFFFFFFFFFFFFF\t\t\tnew uint32[](1)\n      DUP2 \t\t\tnew uint32[](1)\n      GT \t\t\tnew uint32[](1)\n      ISZERO \t\t\tnew uint32[](1)\n      PUSH [tag] 122\t\t\tnew uint32[](1)\n      JUMPI \t\t\tnew uint32[](1)\n      PUSH [tag] 123\t\t\tnew uint32[](1)\n      PUSH [tag] 47\t\t\tnew uint32[](1)\n      JUMP \t\t\tnew uint32[](1)\n    tag 123\t\t\tnew uint32[](1)\n      JUMPDEST \t\t\tnew uint32[](1)\n    tag 122\t\t\tnew uint32[](1)\n      JUMPDEST \t\t\tnew uint32[](1)\n      PUSH 40\t\t\tnew uint32[](1)\n      MLOAD \t\t\tnew uint32[](1)\n      SWAP1 \t\t\tnew uint32[](1)\n      DUP1 \t\t\tnew uint32[](1)\n      DUP3 \t\t\tnew uint32[](1)\n      MSTORE \t\t\tnew uint32[](1)\n      DUP1 \t\t\tnew uint32[](1)\n      PUSH 20\t\t\tnew uint32[](1)\n      MUL \t\t\tnew uint32[](1)\n      PUSH 20\t\t\tnew uint32[](1)\n      ADD \t\t\tnew uint32[](1)\n      DUP3 \t\t\tnew uint32[](1)\n      ADD \t\t\tnew uint32[](1)\n      PUSH 40\t\t\tnew uint32[](1)\n      MSTORE \t\t\tnew uint32[](1)\n      DUP1 \t\t\tnew uint32[](1)\n      ISZERO \t\t\tnew uint32[](1)\n      PUSH [tag] 124\t\t\tnew uint32[](1)\n      JUMPI \t\t\tnew uint32[](1)\n      DUP2 \t\t\tnew uint32[](1)\n      PUSH 20\t\t\tnew uint32[](1)\n      ADD \t\t\tnew uint32[](1)\n      PUSH 20\t\t\tnew uint32[](1)\n      DUP3 \t\t\tnew uint32[](1)\n      MUL \t\t\tnew uint32[](1)\n      DUP1 \t\t\tnew uint32[](1)\n      CALLDATASIZE \t\t\tnew uint32[](1)\n      DUP4 \t\t\tnew uint32[](1)\n      CALLDATACOPY \t\t\tnew uint32[](1)\n      DUP1 \t\t\tnew uint32[](1)\n      DUP3 \t\t\tnew uint32[](1)\n      ADD \t\t\tnew uint32[](1)\n      SWAP2 \t\t\tnew uint32[](1)\n      POP \t\t\tnew uint32[](1)\n      POP \t\t\tnew uint32[](1)\n      SWAP1 \t\t\tnew uint32[](1)\n      POP \t\t\tnew uint32[](1)\n    tag 124\t\t\tnew uint32[](1)\n      JUMPDEST \t\t\tnew uint32[](1)\n      POP \t\t\tnew uint32[](1)\n      DUP2 \t\t\tinstruction\n      PUSH 0\t\t\tinstruction.program_index\n      ADD \t\t\tinstruction.program_index\n      DUP2 \t\t\tinstruction.program_index = ne...\n      SWAP1 \t\t\tinstruction.program_index = ne...\n      MSTORE \t\t\tinstruction.program_index = ne...\n      POP \t\t\tinstruction.program_index = ne...\n      PUSH 0\t\t\t0\n      DUP2 \t\t\tinstruction\n      PUSH 0\t\t\tinstruction.program_index\n      ADD \t\t\tinstruction.program_index\n      MLOAD \t\t\tinstruction.program_index\n      PUSH 0\t\t\t0\n      DUP2 \t\t\tinstruction.program_index[0]\n      MLOAD \t\t\tinstruction.program_index[0]\n      DUP2 \t\t\tinstruction.program_index[0]\n      LT \t\t\tinstruction.program_index[0]\n      PUSH [tag] 125\t\t\tinstruction.program_index[0]\n      JUMPI \t\t\tinstruction.program_index[0]\n      PUSH [tag] 126\t\t\tinstruction.program_index[0]\n      PUSH [tag] 52\t\t\tinstruction.program_index[0]\n      JUMP \t\t\tinstruction.program_index[0]\n    tag 126\t\t\tinstruction.program_index[0]\n      JUMPDEST \t\t\tinstruction.program_index[0]\n    tag 125\t\t\tinstruction.program_index[0]\n      JUMPDEST \t\t\tinstruction.program_index[0]\n      PUSH 20\t\t\tinstruction.program_index[0]\n      MUL \t\t\tinstruction.program_index[0]\n      PUSH 20\t\t\tinstruction.program_index[0]\n      ADD \t\t\tinstruction.program_index[0]\n      ADD \t\t\tinstruction.program_index[0]\n      SWAP1 \t\t\tinstruction.program_index[0] =...\n      PUSH FFFFFFFF\t\t\tinstruction.program_index[0] =...\n      AND \t\t\tinstruction.program_index[0] =...\n      SWAP1 \t\t\tinstruction.program_index[0] =...\n      DUP2 \t\t\tinstruction.program_index[0] =...\n      PUSH FFFFFFFF\t\t\tinstruction.program_index[0] =...\n      AND \t\t\tinstruction.program_index[0] =...\n      DUP2 \t\t\tinstruction.program_index[0] =...\n      MSTORE \t\t\tinstruction.program_index[0] =...\n      POP \t\t\tinstruction.program_index[0] =...\n      POP \t\t\tinstruction.program_index[0] =...\n      PUSH 1\t\t\t1\n      PUSH FFFFFFFFFFFFFFFF\t\t\tnew InstructionAccount[](1)\n      DUP2 \t\t\tnew InstructionAccount[](1)\n      GT \t\t\tnew InstructionAccount[](1)\n      ISZERO \t\t\tnew InstructionAccount[](1)\n      PUSH [tag] 127\t\t\tnew InstructionAccount[](1)\n      JUMPI \t\t\tnew InstructionAccount[](1)\n      PUSH [tag] 128\t\t\tnew InstructionAccount[](1)\n      PUSH [tag] 47\t\t\tnew InstructionAccount[](1)\n      JUMP \t\t\tnew InstructionAccount[](1)\n    tag 128\t\t\tnew InstructionAccount[](1)\n      JUMPDEST \t\t\tnew InstructionAccount[](1)\n    tag 127\t\t\tnew InstructionAccount[](1)\n      JUMPDEST \t\t\tnew InstructionAccount[](1)\n      PUSH 40\t\t\tnew InstructionAccount[](1)\n      MLOAD \t\t\tnew InstructionAccount[](1)\n      SWAP1 \t\t\tnew InstructionAccount[](1)\n      DUP1 \t\t\tnew InstructionAccount[](1)\n      DUP3 \t\t\tnew InstructionAccount[](1)\n      MSTORE \t\t\tnew InstructionAccount[](1)\n      DUP1 \t\t\tnew InstructionAccount[](1)\n      PUSH 20\t\t\tnew InstructionAccount[](1)\n      MUL \t\t\tnew InstructionAccount[](1)\n      PUSH 20\t\t\tnew InstructionAccount[](1)\n      ADD \t\t\tnew InstructionAccount[](1)\n      DUP3 \t\t\tnew InstructionAccount[](1)\n      ADD \t\t\tnew InstructionAccount[](1)\n      PUSH 40\t\t\tnew InstructionAccount[](1)\n      MSTORE \t\t\tnew InstructionAccount[](1)\n      DUP1 \t\t\tnew InstructionAccount[](1)\n      ISZERO \t\t\tnew InstructionAccount[](1)\n      PUSH [tag] 129\t\t\tnew InstructionAccount[](1)\n      JUMPI \t\t\tnew InstructionAccount[](1)\n      DUP2 \t\t\tnew InstructionAccount[](1)\n      PUSH 20\t\t\tnew InstructionAccount[](1)\n      ADD \t\t\tnew InstructionAccount[](1)\n    tag 130\t\t\tnew InstructionAccount[](1)\n      JUMPDEST \t\t\tnew InstructionAccount[](1)\n      PUSH [tag] 131\t\t\tnew InstructionAccount[](1)\n      PUSH [tag] 71\t\t\tnew InstructionAccount[](1)\n      JUMP \t\t\tnew InstructionAccount[](1)\n    tag 131\t\t\tnew InstructionAccount[](1)\n      JUMPDEST \t\t\tnew InstructionAccount[](1)\n      DUP2 \t\t\tnew InstructionAccount[](1)\n      MSTORE \t\t\tnew InstructionAccount[](1)\n      PUSH 20\t\t\tnew InstructionAccount[](1)\n      ADD \t\t\tnew InstructionAccount[](1)\n      SWAP1 \t\t\tnew InstructionAccount[](1)\n      PUSH 1\t\t\tnew InstructionAccount[](1)\n      SWAP1 \t\t\tnew InstructionAccount[](1)\n      SUB \t\t\tnew InstructionAccount[](1)\n      SWAP1 \t\t\tnew InstructionAccount[](1)\n      DUP2 \t\t\tnew InstructionAccount[](1)\n      PUSH [tag] 130\t\t\tnew InstructionAccount[](1)\n      JUMPI \t\t\tnew InstructionAccount[](1)\n      SWAP1 \t\t\tnew InstructionAccount[](1)\n      POP \t\t\tnew InstructionAccount[](1)\n    tag 129\t\t\tnew InstructionAccount[](1)\n      JUMPDEST \t\t\tnew InstructionAccount[](1)\n      POP \t\t\tnew InstructionAccount[](1)\n      DUP2 \t\t\tinstruction\n      PUSH 20\t\t\tinstruction.accounts\n      ADD \t\t\tinstruction.accounts\n      DUP2 \t\t\tinstruction.accounts = new Ins...\n      SWAP1 \t\t\tinstruction.accounts = new Ins...\n      MSTORE \t\t\tinstruction.accounts = new Ins...\n      POP \t\t\tinstruction.accounts = new Ins...\n      PUSH 40\t\t\tInstructionAccount({\\n        ...\n      MLOAD \t\t\tInstructionAccount({\\n        ...\n      DUP1 \t\t\tInstructionAccount({\\n        ...\n      PUSH A0\t\t\tInstructionAccount({\\n        ...\n      ADD \t\t\tInstructionAccount({\\n        ...\n      PUSH 40\t\t\tInstructionAccount({\\n        ...\n      MSTORE \t\t\tInstructionAccount({\\n        ...\n      DUP1 \t\t\tInstructionAccount({\\n        ...\n      PUSH 1\t\t\t1\n      PUSH FFFFFFFF\t\t\tInstructionAccount({\\n        ...\n      AND \t\t\tInstructionAccount({\\n        ...\n      DUP2 \t\t\tInstructionAccount({\\n        ...\n      MSTORE \t\t\tInstructionAccount({\\n        ...\n      PUSH 20\t\t\tInstructionAccount({\\n        ...\n      ADD \t\t\tInstructionAccount({\\n        ...\n      PUSH 1\t\t\t1\n      PUSH FFFFFFFF\t\t\tInstructionAccount({\\n        ...\n      AND \t\t\tInstructionAccount({\\n        ...\n      DUP2 \t\t\tInstructionAccount({\\n        ...\n      MSTORE \t\t\tInstructionAccount({\\n        ...\n      PUSH 20\t\t\tInstructionAccount({\\n        ...\n      ADD \t\t\tInstructionAccount({\\n        ...\n      PUSH 0\t\t\t0\n      PUSH FFFFFFFF\t\t\tInstructionAccount({\\n        ...\n      AND \t\t\tInstructionAccount({\\n        ...\n      DUP2 \t\t\tInstructionAccount({\\n        ...\n      MSTORE \t\t\tInstructionAccount({\\n        ...\n      PUSH 20\t\t\tInstructionAccount({\\n        ...\n      ADD \t\t\tInstructionAccount({\\n        ...\n      PUSH 0\t\t\tfalse\n      ISZERO \t\t\tInstructionAccount({\\n        ...\n      ISZERO \t\t\tInstructionAccount({\\n        ...\n      DUP2 \t\t\tInstructionAccount({\\n        ...\n      MSTORE \t\t\tInstructionAccount({\\n        ...\n      PUSH 20\t\t\tInstructionAccount({\\n        ...\n      ADD \t\t\tInstructionAccount({\\n        ...\n      PUSH 0\t\t\tfalse\n      ISZERO \t\t\tInstructionAccount({\\n        ...\n      ISZERO \t\t\tInstructionAccount({\\n        ...\n      DUP2 \t\t\tInstructionAccount({\\n        ...\n      MSTORE \t\t\tInstructionAccount({\\n        ...\n      POP \t\t\tInstructionAccount({\\n        ...\n      DUP2 \t\t\tinstruction\n      PUSH 20\t\t\tinstruction.accounts\n      ADD \t\t\tinstruction.accounts\n      MLOAD \t\t\tinstruction.accounts\n      PUSH 0\t\t\t0\n      DUP2 \t\t\tinstruction.accounts[0]\n      MLOAD \t\t\tinstruction.accounts[0]\n      DUP2 \t\t\tinstruction.accounts[0]\n      LT \t\t\tinstruction.accounts[0]\n      PUSH [tag] 132\t\t\tinstruction.accounts[0]\n      JUMPI \t\t\tinstruction.accounts[0]\n      PUSH [tag] 133\t\t\tinstruction.accounts[0]\n      PUSH [tag] 52\t\t\tinstruction.accounts[0]\n      JUMP \t\t\tinstruction.accounts[0]\n    tag 133\t\t\tinstruction.accounts[0]\n      JUMPDEST \t\t\tinstruction.accounts[0]\n    tag 132\t\t\tinstruction.accounts[0]\n      JUMPDEST \t\t\tinstruction.accounts[0]\n      PUSH 20\t\t\tinstruction.accounts[0]\n      MUL \t\t\tinstruction.accounts[0]\n      PUSH 20\t\t\tinstruction.accounts[0]\n      ADD \t\t\tinstruction.accounts[0]\n      ADD \t\t\tinstruction.accounts[0]\n      DUP2 \t\t\tinstruction.accounts[0] = Inst...\n      SWAP1 \t\t\tinstruction.accounts[0] = Inst...\n      MSTORE \t\t\tinstruction.accounts[0] = Inst...\n      POP \t\t\tinstruction.accounts[0] = Inst...\n      PUSH 0\t\t\tbytes memory discriminator\n      PUSH 40\t\t\tbytes memory discriminator = h...\n      MLOAD \t\t\tbytes memory discriminator = h...\n      DUP1 \t\t\tbytes memory discriminator = h...\n      PUSH 40\t\t\tbytes memory discriminator = h...\n      ADD \t\t\tbytes memory discriminator = h...\n      PUSH 40\t\t\tbytes memory discriminator = h...\n      MSTORE \t\t\tbytes memory discriminator = h...\n      DUP1 \t\t\tbytes memory discriminator = h...\n      PUSH 8\t\t\tbytes memory discriminator = h...\n      DUP2 \t\t\tbytes memory discriminator = h...\n      MSTORE \t\t\tbytes memory discriminator = h...\n      PUSH 20\t\t\tbytes memory discriminator = h...\n      ADD \t\t\tbytes memory discriminator = h...\n      PUSH DC8BFD5F8098939F000000000000000000000000000000000000000000000000\t\t\tbytes memory discriminator = h...\n      DUP2 \t\t\tbytes memory discriminator = h...\n      MSTORE \t\t\tbytes memory discriminator = h...\n      POP \t\t\tbytes memory discriminator = h...\n      SWAP1 \t\t\tbytes memory discriminator = h...\n      POP \t\t\tbytes memory discriminator = h...\n      DUP1 \t\t\tdiscriminator\n      DUP3 \t\t\tinstruction\n      PUSH 40\t\t\tinstruction.data\n      ADD \t\t\tinstruction.data\n      DUP2 \t\t\tinstruction.data = discriminat...\n      SWAP1 \t\t\tinstruction.data = discriminat...\n      MSTORE \t\t\tinstruction.data = discriminat...\n      POP \t\t\tinstruction.data = discriminat...\n      PUSH 1\t\t\t1\n      PUSH FFFFFFFFFFFFFFFF\t\t\tnew Instruction[](1)\n      DUP2 \t\t\tnew Instruction[](1)\n      GT \t\t\tnew Instruction[](1)\n      ISZERO \t\t\tnew Instruction[](1)\n      PUSH [tag] 134\t\t\tnew Instruction[](1)\n      JUMPI \t\t\tnew Instruction[](1)\n      PUSH [tag] 135\t\t\tnew Instruction[](1)\n      PUSH [tag] 47\t\t\tnew Instruction[](1)\n      JUMP \t\t\tnew Instruction[](1)\n    tag 135\t\t\tnew Instruction[](1)\n      JUMPDEST \t\t\tnew Instruction[](1)\n    tag 134\t\t\tnew Instruction[](1)\n      JUMPDEST \t\t\tnew Instruction[](1)\n      PUSH 40\t\t\tnew Instruction[](1)\n      MLOAD \t\t\tnew Instruction[](1)\n      SWAP1 \t\t\tnew Instruction[](1)\n      DUP1 \t\t\tnew Instruction[](1)\n      DUP3 \t\t\tnew Instruction[](1)\n      MSTORE \t\t\tnew Instruction[](1)\n      DUP1 \t\t\tnew Instruction[](1)\n      PUSH 20\t\t\tnew Instruction[](1)\n      MUL \t\t\tnew Instruction[](1)\n      PUSH 20\t\t\tnew Instruction[](1)\n      ADD \t\t\tnew Instruction[](1)\n      DUP3 \t\t\tnew Instruction[](1)\n      ADD \t\t\tnew Instruction[](1)\n      PUSH 40\t\t\tnew Instruction[](1)\n      MSTORE \t\t\tnew Instruction[](1)\n      DUP1 \t\t\tnew Instruction[](1)\n      ISZERO \t\t\tnew Instruction[](1)\n      PUSH [tag] 136\t\t\tnew Instruction[](1)\n      JUMPI \t\t\tnew Instruction[](1)\n      DUP2 \t\t\tnew Instruction[](1)\n      PUSH 20\t\t\tnew Instruction[](1)\n      ADD \t\t\tnew Instruction[](1)\n    tag 137\t\t\tnew Instruction[](1)\n      JUMPDEST \t\t\tnew Instruction[](1)\n      PUSH [tag] 138\t\t\tnew Instruction[](1)\n      PUSH [tag] 60\t\t\tnew Instruction[](1)\n      JUMP \t\t\tnew Instruction[](1)\n    tag 138\t\t\tnew Instruction[](1)\n      JUMPDEST \t\t\tnew Instruction[](1)\n      DUP2 \t\t\tnew Instruction[](1)\n      MSTORE \t\t\tnew Instruction[](1)\n      PUSH 20\t\t\tnew Instruction[](1)\n      ADD \t\t\tnew Instruction[](1)\n      SWAP1 \t\t\tnew Instruction[](1)\n      PUSH 1\t\t\tnew Instruction[](1)\n      SWAP1 \t\t\tnew Instruction[](1)\n      SUB \t\t\tnew Instruction[](1)\n      SWAP1 \t\t\tnew Instruction[](1)\n      DUP2 \t\t\tnew Instruction[](1)\n      PUSH [tag] 137\t\t\tnew Instruction[](1)\n      JUMPI \t\t\tnew Instruction[](1)\n      SWAP1 \t\t\tnew Instruction[](1)\n      POP \t\t\tnew Instruction[](1)\n    tag 136\t\t\tnew Instruction[](1)\n      JUMPDEST \t\t\tnew Instruction[](1)\n      POP \t\t\tnew Instruction[](1)\n      DUP4 \t\t\ttransaction\n      PUSH 40\t\t\ttransaction.instructions\n      ADD \t\t\ttransaction.instructions\n      DUP2 \t\t\ttransaction.instructions = new...\n      SWAP1 \t\t\ttransaction.instructions = new...\n      MSTORE \t\t\ttransaction.instructions = new...\n      POP \t\t\ttransaction.instructions = new...\n      DUP2 \t\t\tinstruction\n      DUP4 \t\t\ttransaction\n      PUSH 40\t\t\ttransaction.instructions\n      ADD \t\t\ttransaction.instructions\n      MLOAD \t\t\ttransaction.instructions\n      PUSH 0\t\t\t0\n      DUP2 \t\t\ttransaction.instructions[0]\n      MLOAD \t\t\ttransaction.instructions[0]\n      DUP2 \t\t\ttransaction.instructions[0]\n      LT \t\t\ttransaction.instructions[0]\n      PUSH [tag] 139\t\t\ttransaction.instructions[0]\n      JUMPI \t\t\ttransaction.instructions[0]\n      PUSH [tag] 140\t\t\ttransaction.instructions[0]\n      PUSH [tag] 52\t\t\ttransaction.instructions[0]\n      JUMP \t\t\ttransaction.instructions[0]\n    tag 140\t\t\ttransaction.instructions[0]\n      JUMPDEST \t\t\ttransaction.instructions[0]\n    tag 139\t\t\ttransaction.instructions[0]\n      JUMPDEST \t\t\ttransaction.instructions[0]\n      PUSH 20\t\t\ttransaction.instructions[0]\n      MUL \t\t\ttransaction.instructions[0]\n      PUSH 20\t\t\ttransaction.instructions[0]\n      ADD \t\t\ttransaction.instructions[0]\n      ADD \t\t\ttransaction.instructions[0]\n      DUP2 \t\t\ttransaction.instructions[0] = ...\n      SWAP1 \t\t\ttransaction.instructions[0] = ...\n      MSTORE \t\t\ttransaction.instructions[0] = ...\n      POP \t\t\ttransaction.instructions[0] = ...\n      PUSH 0\t\t\tbool ok\n      DUP1 \t\t\tbytes memory r\n      DUP6 \t\t\tsvmProxy\n      PUSH FFFFFFFFFFFFFFFFFFFFFFFFFFFFFFFFFFFFFFFF\t\t\tsvmProxy.staticcall\n      AND \t\t\tsvmProxy.staticcall\n      DUP6 \t\t\ttransaction\n      PUSH 40\t\t\tabi.encode(transaction)\n      MLOAD \t\t\tabi.encode(transaction)\n      PUSH 20\t\t\tabi.encode(transaction)\n      ADD \t\t\tabi.encode(transaction)\n      PUSH [tag] 141\t\t\tabi.encode(transaction)\n      SWAP2 \t\t\tabi.encode(transaction)\n      SWAP1 \t\t\tabi.encode(transaction)\n      PUSH [tag] 93\t\t\tabi.encode(transaction)\n      JUMP \t\t\tabi.encode(transaction)\n    tag 141\t\t\tabi.encode(transaction)\n      JUMPDEST \t\t\tabi.encode(transaction)\n      PUSH 40\t\t\tabi.encode(transaction)\n      MLOAD \t\t\tabi.encode(transaction)\n      PUSH 20\t\t\tabi.encode(transaction)\n      DUP2 \t\t\tabi.encode(transaction)\n      DUP4 \t\t\tabi.encode(transaction)\n      SUB \t\t\tabi.encode(transaction)\n      SUB \t\t\tabi.encode(transaction)\n      DUP2 \t\t\tabi.encode(transaction)\n      MSTORE \t\t\tabi.encode(transaction)\n      SWAP1 \t\t\tabi.encode(transaction)\n      PUSH 40\t\t\tabi.encode(transaction)\n      MSTORE \t\t\tabi.encode(transaction)\n      PUSH 40\t\t\tsvmProxy.staticcall(abi.encode...\n      MLOAD \t\t\tsvmProxy.staticcall(abi.encode...\n      PUSH [tag] 142\t\t\tsvmProxy.staticcall(abi.encode...\n      SWAP2 \t\t\tsvmProxy.staticcall(abi.encode...\n      SWAP1 \t\t\tsvmProxy.staticcall(abi.encode...\n      PUSH [tag] 95\t\t\tsvmProxy.staticcall(abi.encode...\n      JUMP \t\t\tsvmProxy.staticcall(abi.encode...\n    tag 142\t\t\tsvmProxy.staticcall(abi.encode...\n      JUMPDEST \t\t\tsvmProxy.staticcall(abi.encode...\n      PUSH 0\t\t\tsvmProxy.staticcall(abi.encode...\n      PUSH 40\t\t\tsvmProxy.staticcall(abi.encode...\n      MLOAD \t\t\tsvmProxy.staticcall(abi.encode...\n      DUP1 \t\t\tsvmProxy.staticcall(abi.encode...\n      DUP4 \t\t\tsvmProxy.staticcall(abi.encode...\n      SUB \t\t\tsvmProxy.staticcall(abi.encode...\n      DUP2 \t\t\tsvmProxy.staticcall(abi.encode...\n      DUP6 \t\t\tsvmProxy.staticcall(abi.encode...\n      GAS \t\t\tsvmProxy.staticcall(abi.encode...\n      STATICCALL \t\t\tsvmProxy.staticcall(abi.encode...\n      SWAP2 \t\t\tsvmProxy.staticcall(abi.encode...\n      POP \t\t\tsvmProxy.staticcall(abi.encode...\n      POP \t\t\tsvmProxy.staticcall(abi.encode...\n      RETURNDATASIZE \t\t\tsvmProxy.staticcall(abi.encode...\n      DUP1 \t\t\tsvmProxy.staticcall(abi.encode...\n      PUSH 0\t\t\tsvmProxy.staticcall(abi.encode...\n      DUP2 \t\t\tsvmProxy.staticcall(abi.encode...\n      EQ \t\t\tsvmProxy.staticcall(abi.encode...\n      PUSH [tag] 145\t\t\tsvmProxy.staticcall(abi.encode...\n      JUMPI \t\t\tsvmProxy.staticcall(abi.encode...\n      PUSH 40\t\t\tsvmProxy.staticcall(abi.encode...\n      MLOAD \t\t\tsvmProxy.staticcall(abi.encode...\n      SWAP2 \t\t\tsvmProxy.staticcall(abi.encode...\n      POP \t\t\tsvmProxy.staticcall(abi.encode...\n      PUSH 1F\t\t\tsvmProxy.staticcall(abi.encode...\n      NOT \t\t\tsvmProxy.staticcall(abi.encode...\n      PUSH 3F\t\t\tsvmProxy.staticcall(abi.encode...\n      RETURNDATASIZE \t\t\tsvmProxy.staticcall(abi.encode...\n      ADD \t\t\tsvmProxy.staticcall(abi.encode...\n      AND \t\t\tsvmProxy.staticcall(abi.encode...\n      DUP3 \t\t\tsvmProxy.staticcall(abi.encode...\n      ADD \t\t\tsvmProxy.staticcall(abi.encode...\n      PUSH 40\t\t\tsvmProxy.staticcall(abi.encode...\n      MSTORE \t\t\tsvmProxy.staticcall(abi.encode...\n      RETURNDATASIZE \t\t\tsvmProxy.staticcall(abi.encode...\n      DUP3 \t\t\tsvmProxy.staticcall(abi.encode...\n      MSTORE \t\t\tsvmProxy.staticcall(abi.encode...\n      RETURNDATASIZE \t\t\tsvmProxy.staticcall(abi.encode...\n      PUSH 0\t\t\tsvmProxy.staticcall(abi.encode...\n      PUSH 20\t\t\tsvmProxy.staticcall(abi.encode...\n      DUP5 \t\t\tsvmProxy.staticcall(abi.encode...\n      ADD \t\t\tsvmProxy.staticcall(abi.encode...\n      RETURNDATACOPY \t\t\tsvmProxy.staticcall(abi.encode...\n      PUSH [tag] 144\t\t\tsvmProxy.staticcall(abi.encode...\n      JUMP \t\t\tsvmProxy.staticcall(abi.encode...\n    tag 145\t\t\tsvmProxy.staticcall(abi.encode...\n      JUMPDEST \t\t\tsvmProxy.staticcall(abi.encode...\n      PUSH 60\t\t\tsvmProxy.staticcall(abi.encode...\n      SWAP2 \t\t\tsvmProxy.staticcall(abi.encode...\n      POP \t\t\tsvmProxy.staticcall(abi.encode...\n    tag 144\t\t\tsvmProxy.staticcall(abi.encode...\n      JUMPDEST \t\t\tsvmProxy.staticcall(abi.encode...\n      POP \t\t\tsvmProxy.staticcall(abi.encode...\n      SWAP2 \t\t\t(bool ok, bytes memory r) = sv...\n      POP \t\t\t(bool ok, bytes memory r) = sv...\n      SWAP2 \t\t\t(bool ok, bytes memory r) = sv...\n      POP \t\t\t(bool ok, bytes memory r) = sv...\n      DUP2 \t\t\tok\n      PUSH [tag] 146\t\t\trequire(ok, \"call must succeed...\n      JUMPI \t\t\trequire(ok, \"call must succeed...\n      PUSH 40\t\t\trequire(ok, \"call must succeed...\n      MLOAD \t\t\trequire(ok, \"call must succeed...\n      PUSH 8C379A000000000000000000000000000000000000000000000000000000000\t\t\trequire(ok, \"call must succeed...\n      DUP2 \t\t\trequire(ok, \"call must succeed...\n      MSTORE \t\t\trequire(ok, \"call must succeed...\n      PUSH 4\t\t\trequire(ok, \"call must succeed...\n      ADD \t\t\trequire(ok, \"call must succeed...\n      PUSH [tag] 147\t\t\trequire(ok, \"call must succeed...\n      SWAP1 \t\t\trequire(ok, \"call must succeed...\n      PUSH [tag] 101\t\t\trequire(ok, \"call must succeed...\n      JUMP \t\t\trequire(ok, \"call must succeed...\n    tag 147\t\t\trequire(ok, \"call must succeed...\n      JUMPDEST \t\t\trequire(ok, \"call must succeed...\n      PUSH 40\t\t\trequire(ok, \"call must succeed...\n      MLOAD \t\t\trequire(ok, \"call must succeed...\n      DUP1 \t\t\trequire(ok, \"call must succeed...\n      SWAP2 \t\t\trequire(ok, \"call must succeed...\n      SUB \t\t\trequire(ok, \"call must succeed...\n      SWAP1 \t\t\trequire(ok, \"call must succeed...\n      REVERT \t\t\trequire(ok, \"call must succeed...\n    tag 146\t\t\trequire(ok, \"call must succeed...\n      JUMPDEST \t\t\trequire(ok, \"call must succeed...\n      PUSH [tag] 148\t\t\tparseSvmResponse(r)\n      DUP2 \t\t\tr\n      PUSH [tag] 149\t\t\tparseSvmResponse\n      JUMP \t\t\tparseSvmResponse(r)\n    tag 148\t\t\tparseSvmResponse(r)\n      JUMPDEST \t\t\tparseSvmResponse(r)\n      SWAP7 \t\t\treturn parseSvmResponse(r)\n      POP \t\t\treturn parseSvmResponse(r)\n      POP \t\t\treturn parseSvmResponse(r)\n      POP \t\t\treturn parseSvmResponse(r)\n      POP \t\t\treturn parseSvmResponse(r)\n      POP \t\t\treturn parseSvmResponse(r)\n      POP \t\t\treturn parseSvmResponse(r)\n      POP \t\t\treturn parseSvmResponse(r)\n      SWAP1 \t\t\tfunction getSvm() public view ...\n      JUMP \t\t\tfunction getSvm() public view ...\n    tag 30\t\t\tfunction getStringLengthLE(str...\n      JUMPDEST \t\t\tfunction getStringLengthLE(str...\n      PUSH 0\t\t\tbytes4\n      DUP1 \t\t\tuint256 len\n      DUP3 \t\t\tstr\n      MLOAD \t\t\tbytes(str).length\n      SWAP1 \t\t\tuint256 len = bytes(str).lengt...\n      POP \t\t\tuint256 len = bytes(str).lengt...\n      PUSH [tag] 151\t\t\ttoLittleEndian(len)\n      DUP2 \t\t\tlen\n      PUSH [tag] 36\t\t\ttoLittleEndian\n      JUMP \t\t\ttoLittleEndian(len)\n    tag 151\t\t\ttoLittleEndian(len)\n      JUMPDEST \t\t\ttoLittleEndian(len)\n      SWAP2 \t\t\treturn toLittleEndian(len)\n      POP \t\t\treturn toLittleEndian(len)\n      POP \t\t\treturn toLittleEndian(len)\n      SWAP2 \t\t\tfunction getStringLengthLE(str...\n      SWAP1 \t\t\tfunction getStringLengthLE(str...\n      POP \t\t\tfunction getStringLengthLE(str...\n      JUMP \t\t\tfunction getStringLengthLE(str...\n    tag 36\t\t\tfunction toLittleEndian(uint25...\n      JUMPDEST \t\t\tfunction toLittleEndian(uint25...\n      PUSH 0\t\t\tbytes4 result\n      DUP1 \t\t\tbytes32 last4\n      DUP3 \t\t\tvalue\n      PUSH 0\t\t\tbytes32(value)\n      SHL \t\t\tbytes32(value)\n      SWAP1 \t\t\tbytes32 last4 = bytes32(value)\n      POP \t\t\tbytes32 last4 = bytes32(value)\n      DUP1 \t\t\tlast4\n      PUSH 1C\t\t\t28\n      PUSH 20\t\t\tlast4[28]\n      DUP2 \t\t\tlast4[28]\n      LT \t\t\tlast4[28]\n      PUSH [tag] 153\t\t\tlast4[28]\n      JUMPI \t\t\tlast4[28]\n      PUSH [tag] 154\t\t\tlast4[28]\n      PUSH [tag] 52\t\t\tlast4[28]\n      JUMP \t\t\tlast4[28]\n    tag 154\t\t\tlast4[28]\n      JUMPDEST \t\t\tlast4[28]\n    tag 153\t\t\tlast4[28]\n      JUMPDEST \t\t\tlast4[28]\n      BYTE \t\t\tlast4[28]\n      PUSH F8\t\t\tlast4[28]\n      SHL \t\t\tlast4[28]\n      PUSH F8\t\t\tuint8(last4[28])\n      SHR \t\t\tuint8(last4[28])\n      PUSH FF\t\t\tuint32(uint8(last4[28]))\n      AND \t\t\tuint32(uint8(last4[28]))\n      PUSH 8\t\t\t8\n      DUP3 \t\t\tlast4\n      PUSH 1D\t\t\t29\n      PUSH 20\t\t\tlast4[29]\n      DUP2 \t\t\tlast4[29]\n      LT \t\t\tlast4[29]\n      PUSH [tag] 155\t\t\tlast4[29]\n      JUMPI \t\t\tlast4[29]\n      PUSH [tag] 156\t\t\tlast4[29]\n      PUSH [tag] 52\t\t\tlast4[29]\n      JUMP \t\t\tlast4[29]\n    tag 156\t\t\tlast4[29]\n      JUMPDEST \t\t\tlast4[29]\n    tag 155\t\t\tlast4[29]\n      JUMPDEST \t\t\tlast4[29]\n      BYTE \t\t\tlast4[29]\n      PUSH F8\t\t\tlast4[29]\n      SHL \t\t\tlast4[29]\n      PUSH F8\t\t\tuint8(last4[29])\n      SHR \t\t\tuint8(last4[29])\n      PUSH FF\t\t\tuint32(uint8(last4[29]))\n      AND \t\t\tuint32(uint8(last4[29]))\n      PUSH FFFFFFFF\t\t\tuint32(uint8(last4[29])) << 8\n      AND \t\t\tuint32(uint8(last4[29])) << 8\n      SWAP1 \t\t\tuint32(uint8(last4[29])) << 8\n      SHL \t\t\tuint32(uint8(last4[29])) << 8\n      PUSH 10\t\t\t16\n      DUP4 \t\t\tlast4\n      PUSH 1E\t\t\t30\n      PUSH 20\t\t\tlast4[30]\n      DUP2 \t\t\tlast4[30]\n      LT \t\t\tlast4[30]\n      PUSH [tag] 157\t\t\tlast4[30]\n      JUMPI \t\t\tlast4[30]\n      PUSH [tag] 158\t\t\tlast4[30]\n      PUSH [tag] 52\t\t\tlast4[30]\n      JUMP \t\t\tlast4[30]\n    tag 158\t\t\tlast4[30]\n      JUMPDEST \t\t\tlast4[30]\n    tag 157\t\t\tlast4[30]\n      JUMPDEST \t\t\tlast4[30]\n      BYTE \t\t\tlast4[30]\n      PUSH F8\t\t\tlast4[30]\n      SHL \t\t\tlast4[30]\n      PUSH F8\t\t\tuint8(last4[30])\n      SHR \t\t\tuint8(last4[30])\n      PUSH FF\t\t\tuint32(uint8(last4[30]))\n      AND \t\t\tuint32(uint8(last4[30]))\n      PUSH FFFFFFFF\t\t\tuint32(uint8(last4[30])) << 16\n      AND \t\t\tuint32(uint8(last4[30])) << 16\n      SWAP1 \t\t\tuint32(uint8(last4[30])) << 16\n      SHL \t\t\tuint32(uint8(last4[30])) << 16\n      PUSH 18\t\t\t24\n      DUP5 \t\t\tlast4\n      PUSH 1F\t\t\t31\n      PUSH 20\t\t\tlast4[31]\n      DUP2 \t\t\tlast4[31]\n      LT \t\t\tlast4[31]\n      PUSH [tag] 159\t\t\tlast4[31]\n      JUMPI \t\t\tlast4[31]\n      PUSH [tag] 160\t\t\tlast4[31]\n      PUSH [tag] 52\t\t\tlast4[31]\n      JUMP \t\t\tlast4[31]\n    tag 160\t\t\tlast4[31]\n      JUMPDEST \t\t\tlast4[31]\n    tag 159\t\t\tlast4[31]\n      JUMPDEST \t\t\tlast4[31]\n      BYTE \t\t\tlast4[31]\n      PUSH F8\t\t\tlast4[31]\n      SHL \t\t\tlast4[31]\n      PUSH F8\t\t\tuint8(last4[31])\n      SHR \t\t\tuint8(last4[31])\n      PUSH FF\t\t\tuint32(uint8(last4[31]))\n      AND \t\t\tuint32(uint8(last4[31]))\n      PUSH FFFFFFFF\t\t\tuint32(uint8(last4[31])) << 24\n      AND \t\t\tuint32(uint8(last4[31])) << 24\n      SWAP1 \t\t\tuint32(uint8(last4[31])) << 24\n      SHL \t\t\tuint32(uint8(last4[31])) << 24\n      OR \t\t\t(uint32(uint8(last4[31])) << 2...\n      OR \t\t\t(uint32(uint8(last4[31])) << 2...\n      OR \t\t\t(uint32(uint8(last4[31])) << 2...\n      PUSH E0\t\t\tbytes4(\\n            (uint32(u...\n      SHL \t\t\tbytes4(\\n            (uint32(u...\n      SWAP2 \t\t\treturn bytes4(\\n            (u...\n      POP \t\t\treturn bytes4(\\n            (u...\n      POP \t\t\treturn bytes4(\\n            (u...\n      SWAP2 \t\t\tfunction toLittleEndian(uint25...\n      SWAP1 \t\t\tfunction toLittleEndian(uint25...\n      POP \t\t\tfunction toLittleEndian(uint25...\n      JUMP \t\t\tfunction toLittleEndian(uint25...\n    tag 40\t\t\tfunction conditionalSetSvm(str...\n      JUMPDEST \t\t\tfunction conditionalSetSvm(str...\n      PUSH 60\t\t\tbytes memory result\n      PUSH F8251662139E6D88D3B6F2A5AA0F6FA9F87EC5BBE2E7F41DA6C2EE0F71E0EBBC\t\t\tkeccak256(\"svm\")\n      PUSH [tag] 162\t\t\tgetSvm()\n      PUSH [tag] 26\t\t\tgetSvm\n      JUMP \t\t\tgetSvm()\n    tag 162\t\t\tgetSvm()\n      JUMPDEST \t\t\tgetSvm()\n      DUP1 \t\t\tkeccak256(bytes(getSvm()))\n      MLOAD \t\t\tkeccak256(bytes(getSvm()))\n      SWAP1 \t\t\tkeccak256(bytes(getSvm()))\n      PUSH 20\t\t\tkeccak256(bytes(getSvm()))\n      ADD \t\t\tkeccak256(bytes(getSvm()))\n      KECCAK256 \t\t\tkeccak256(bytes(getSvm()))\n      SUB \t\t\tkeccak256(bytes(getSvm())) == ...\n      PUSH [tag] 163\t\t\tif (keccak256(bytes(getSvm()))...\n      JUMPI \t\t\tif (keccak256(bytes(getSvm()))...\n      PUSH [tag] 164\t\t\tsetSvm(svmFeePayer, \"evm\")\n      DUP3 \t\t\tsvmFeePayer\n      PUSH 40\t\t\tsetSvm(svmFeePayer, \"evm\")\n      MLOAD \t\t\tsetSvm(svmFeePayer, \"evm\")\n      DUP1 \t\t\tsetSvm(svmFeePayer, \"evm\")\n      PUSH 40\t\t\tsetSvm(svmFeePayer, \"evm\")\n      ADD \t\t\tsetSvm(svmFeePayer, \"evm\")\n      PUSH 40\t\t\tsetSvm(svmFeePayer, \"evm\")\n      MSTORE \t\t\tsetSvm(svmFeePayer, \"evm\")\n      DUP1 \t\t\tsetSvm(svmFeePayer, \"evm\")\n      PUSH 3\t\t\tsetSvm(svmFeePayer, \"evm\")\n      DUP2 \t\t\tsetSvm(svmFeePayer, \"evm\")\n      MSTORE \t\t\tsetSvm(svmFeePayer, \"evm\")\n      PUSH 20\t\t\tsetSvm(svmFeePayer, \"evm\")\n      ADD \t\t\tsetSvm(svmFeePayer, \"evm\")\n      PUSH 65766D0000000000000000000000000000000000000000000000000000000000\t\t\tsetSvm(svmFeePayer, \"evm\")\n      DUP2 \t\t\tsetSvm(svmFeePayer, \"evm\")\n      MSTORE \t\t\tsetSvm(svmFeePayer, \"evm\")\n      POP \t\t\tsetSvm(svmFeePayer, \"evm\")\n      PUSH [tag] 14\t\t\tsetSvm\n      JUMP \t\t\tsetSvm(svmFeePayer, \"evm\")\n    tag 164\t\t\tsetSvm(svmFeePayer, \"evm\")\n      JUMPDEST \t\t\tsetSvm(svmFeePayer, \"evm\")\n      SWAP1 \t\t\treturn setSvm(svmFeePayer, \"ev...\n      POP \t\t\treturn setSvm(svmFeePayer, \"ev...\n      PUSH [tag] 161\t\t\treturn setSvm(svmFeePayer, \"ev...\n      JUMP \t\t\treturn setSvm(svmFeePayer, \"ev...\n    tag 163\t\t\tif (keccak256(bytes(getSvm()))...\n      JUMPDEST \t\t\tif (keccak256(bytes(getSvm()))...\n      PUSH [tag] 165\t\t\tsetSvm(svmFeePayer, \"svm\")\n      DUP3 \t\t\tsvmFeePayer\n      PUSH 40\t\t\tsetSvm(svmFeePayer, \"svm\")\n      MLOAD \t\t\tsetSvm(svmFeePayer, \"svm\")\n      DUP1 \t\t\tsetSvm(svmFeePayer, \"svm\")\n      PUSH 40\t\t\tsetSvm(svmFeePayer, \"svm\")\n      ADD \t\t\tsetSvm(svmFeePayer, \"svm\")\n      PUSH 40\t\t\tsetSvm(svmFeePayer, \"svm\")\n      MSTORE \t\t\tsetSvm(svmFeePayer, \"svm\")\n      DUP1 \t\t\tsetSvm(svmFeePayer, \"svm\")\n      PUSH 3\t\t\tsetSvm(svmFeePayer, \"svm\")\n      DUP2 \t\t\tsetSvm(svmFeePayer, \"svm\")\n      MSTORE \t\t\tsetSvm(svmFeePayer, \"svm\")\n      PUSH 20\t\t\tsetSvm(svmFeePayer, \"svm\")\n      ADD \t\t\tsetSvm(svmFeePayer, \"svm\")\n      PUSH 73766D0000000000000000000000000000000000000000000000000000000000\t\t\tsetSvm(svmFeePayer, \"svm\")\n      DUP2 \t\t\tsetSvm(svmFeePayer, \"svm\")\n      MSTORE \t\t\tsetSvm(svmFeePayer, \"svm\")\n      POP \t\t\tsetSvm(svmFeePayer, \"svm\")\n      PUSH [tag] 14\t\t\tsetSvm\n      JUMP \t\t\tsetSvm(svmFeePayer, \"svm\")\n    tag 165\t\t\tsetSvm(svmFeePayer, \"svm\")\n      JUMPDEST \t\t\tsetSvm(svmFeePayer, \"svm\")\n      SWAP1 \t\t\treturn setSvm(svmFeePayer, \"sv...\n      POP \t\t\treturn setSvm(svmFeePayer, \"sv...\n    tag 161\t\t\tfunction conditionalSetSvm(str...\n      JUMPDEST \t\t\tfunction conditionalSetSvm(str...\n      SWAP2 \t\t\tfunction conditionalSetSvm(str...\n      SWAP1 \t\t\tfunction conditionalSetSvm(str...\n      POP \t\t\tfunction conditionalSetSvm(str...\n      JUMP \t\t\tfunction conditionalSetSvm(str...\n    tag 149\t\t\tfunction parseSvmResponse(byte...\n      JUMPDEST \t\t\tfunction parseSvmResponse(byte...\n      PUSH 60\t\t\tstring memory\n      PUSH 0\t\t\tbytes memory res\n      PUSH 4\t\t\t4\n      DUP4 \t\t\tdata\n      MLOAD \t\t\tdata.length\n      PUSH [tag] 167\t\t\tdata.length - 4\n      SWAP2 \t\t\tdata.length - 4\n      SWAP1 \t\t\tdata.length - 4\n      PUSH [tag] 168\t\t\tdata.length - 4\n      JUMP \t\t\tdata.length - 4\n    tag 167\t\t\tdata.length - 4\n      JUMPDEST \t\t\tdata.length - 4\n      PUSH FFFFFFFFFFFFFFFF\t\t\tnew bytes(data.length - 4)\n      DUP2 \t\t\tnew bytes(data.length - 4)\n      GT \t\t\tnew bytes(data.length - 4)\n      ISZERO \t\t\tnew bytes(data.length - 4)\n      PUSH [tag] 169\t\t\tnew bytes(data.length - 4)\n      JUMPI \t\t\tnew bytes(data.length - 4)\n      PUSH [tag] 170\t\t\tnew bytes(data.length - 4)\n      PUSH [tag] 47\t\t\tnew bytes(data.length - 4)\n      JUMP \t\t\tnew bytes(data.length - 4)\n    tag 170\t\t\tnew bytes(data.length - 4)\n      JUMPDEST \t\t\tnew bytes(data.length - 4)\n    tag 169\t\t\tnew bytes(data.length - 4)\n      JUMPDEST \t\t\tnew bytes(data.length - 4)\n      PUSH 40\t\t\tnew bytes(data.length - 4)\n      MLOAD \t\t\tnew bytes(data.length - 4)\n      SWAP1 \t\t\tnew bytes(data.length - 4)\n      DUP1 \t\t\tnew bytes(data.length - 4)\n      DUP3 \t\t\tnew bytes(data.length - 4)\n      MSTORE \t\t\tnew bytes(data.length - 4)\n      DUP1 \t\t\tnew bytes(data.length - 4)\n      PUSH 1F\t\t\tnew bytes(data.length - 4)\n      ADD \t\t\tnew bytes(data.length - 4)\n      PUSH 1F\t\t\tnew bytes(data.length - 4)\n      NOT \t\t\tnew bytes(data.length - 4)\n      AND \t\t\tnew bytes(data.length - 4)\n      PUSH 20\t\t\tnew bytes(data.length - 4)\n      ADD \t\t\tnew bytes(data.length - 4)\n      DUP3 \t\t\tnew bytes(data.length - 4)\n      ADD \t\t\tnew bytes(data.length - 4)\n      PUSH 40\t\t\tnew bytes(data.length - 4)\n      MSTORE \t\t\tnew bytes(data.length - 4)\n      DUP1 \t\t\tnew bytes(data.length - 4)\n      ISZERO \t\t\tnew bytes(data.length - 4)\n      PUSH [tag] 171\t\t\tnew bytes(data.length - 4)\n      JUMPI \t\t\tnew bytes(data.length - 4)\n      DUP2 \t\t\tnew bytes(data.length - 4)\n      PUSH 20\t\t\tnew bytes(data.length - 4)\n      ADD \t\t\tnew bytes(data.length - 4)\n      PUSH 1\t\t\tnew bytes(data.length - 4)\n      DUP3 \t\t\tnew bytes(data.length - 4)\n      MUL \t\t\tnew bytes(data.length - 4)\n      DUP1 \t\t\tnew bytes(data.length - 4)\n      CALLDATASIZE \t\t\tnew bytes(data.length - 4)\n      DUP4 \t\t\tnew bytes(data.length - 4)\n      CALLDATACOPY \t\t\tnew bytes(data.length - 4)\n      DUP1 \t\t\tnew bytes(data.length - 4)\n      DUP3 \t\t\tnew bytes(data.length - 4)\n      ADD \t\t\tnew bytes(data.length - 4)\n      SWAP2 \t\t\tnew bytes(data.length - 4)\n      POP \t\t\tnew bytes(data.length - 4)\n      POP \t\t\tnew bytes(data.length - 4)\n      SWAP1 \t\t\tnew bytes(data.length - 4)\n      POP \t\t\tnew bytes(data.length - 4)\n    tag 171\t\t\tnew bytes(data.length - 4)\n      JUMPDEST \t\t\tnew bytes(data.length - 4)\n      POP \t\t\tnew bytes(data.length - 4)\n      SWAP1 \t\t\tbytes memory res = new bytes(d...\n      POP \t\t\tbytes memory res = new bytes(d...\n      PUSH 0\t\t\tuint256 i\n      PUSH 4\t\t\t4\n      SWAP1 \t\t\tuint256 i = 4\n      POP \t\t\tuint256 i = 4\n    tag 172\t\t\tfor(uint256 i = 4; i<data.leng...\n      JUMPDEST \t\t\tfor(uint256 i = 4; i<data.leng...\n      DUP4 \t\t\tdata\n      MLOAD \t\t\tdata.length\n      DUP2 \t\t\ti\n      LT \t\t\ti<data.length\n      ISZERO \t\t\tfor(uint256 i = 4; i<data.leng...\n      PUSH [tag] 173\t\t\tfor(uint256 i = 4; i<data.leng...\n      JUMPI \t\t\tfor(uint256 i = 4; i<data.leng...\n      DUP4 \t\t\tdata\n      DUP2 \t\t\ti\n      DUP2 \t\t\tdata[i]\n      MLOAD \t\t\tdata[i]\n      DUP2 \t\t\tdata[i]\n      LT \t\t\tdata[i]\n      PUSH [tag] 175\t\t\tdata[i]\n      JUMPI \t\t\tdata[i]\n      PUSH [tag] 176\t\t\tdata[i]\n      PUSH [tag] 52\t\t\tdata[i]\n      JUMP \t\t\tdata[i]\n    tag 176\t\t\tdata[i]\n      JUMPDEST \t\t\tdata[i]\n    tag 175\t\t\tdata[i]\n      JUMPDEST \t\t\tdata[i]\n      PUSH 20\t\t\tdata[i]\n      ADD \t\t\tdata[i]\n      ADD \t\t\tdata[i]\n      MLOAD \t\t\tdata[i]\n      PUSH F8\t\t\tdata[i]\n      SHR \t\t\tdata[i]\n      PUSH F8\t\t\tdata[i]\n      SHL \t\t\tdata[i]\n      DUP3 \t\t\tres\n      PUSH 4\t\t\t4\n      DUP4 \t\t\ti\n      PUSH [tag] 177\t\t\ti-4\n      SWAP2 \t\t\ti-4\n      SWAP1 \t\t\ti-4\n      PUSH [tag] 168\t\t\ti-4\n      JUMP \t\t\ti-4\n    tag 177\t\t\ti-4\n      JUMPDEST \t\t\ti-4\n      DUP2 \t\t\tres[i-4]\n      MLOAD \t\t\tres[i-4]\n      DUP2 \t\t\tres[i-4]\n      LT \t\t\tres[i-4]\n      PUSH [tag] 178\t\t\tres[i-4]\n      JUMPI \t\t\tres[i-4]\n      PUSH [tag] 179\t\t\tres[i-4]\n      PUSH [tag] 52\t\t\tres[i-4]\n      JUMP \t\t\tres[i-4]\n    tag 179\t\t\tres[i-4]\n      JUMPDEST \t\t\tres[i-4]\n    tag 178\t\t\tres[i-4]\n      JUMPDEST \t\t\tres[i-4]\n      PUSH 20\t\t\tres[i-4]\n      ADD \t\t\tres[i-4]\n      ADD \t\t\tres[i-4]\n      SWAP1 \t\t\tres[i-4] = data[i]\n      PUSH FFFFFFFFFFFFFFFFFFFFFFFFFFFFFFFFFFFFFFFFFFFFFFFFFFFFFFFFFFFFFF\t\t\tres[i-4] = data[i]\n      NOT \t\t\tres[i-4] = data[i]\n      AND \t\t\tres[i-4] = data[i]\n      SWAP1 \t\t\tres[i-4] = data[i]\n      DUP2 \t\t\tres[i-4] = data[i]\n      PUSH 0\t\t\tres[i-4] = data[i]\n      BYTE \t\t\tres[i-4] = data[i]\n      SWAP1 \t\t\tres[i-4] = data[i]\n      MSTORE8 \t\t\tres[i-4] = data[i]\n      POP \t\t\tres[i-4] = data[i]\n      DUP1 \t\t\ti++\n      DUP1 \t\t\ti++\n      PUSH 1\t\t\ti++\n      ADD \t\t\ti++\n      SWAP2 \t\t\ti++\n      POP \t\t\ti++\n      POP \t\t\ti++\n      PUSH [tag] 172\t\t\tfor(uint256 i = 4; i<data.leng...\n      JUMP \t\t\tfor(uint256 i = 4; i<data.leng...\n    tag 173\t\t\tfor(uint256 i = 4; i<data.leng...\n      JUMPDEST \t\t\tfor(uint256 i = 4; i<data.leng...\n      POP \t\t\tfor(uint256 i = 4; i<data.leng...\n      DUP1 \t\t\tres\n      SWAP2 \t\t\treturn string(res)\n      POP \t\t\treturn string(res)\n      POP \t\t\treturn string(res)\n      SWAP2 \t\t\tfunction parseSvmResponse(byte...\n      SWAP1 \t\t\tfunction parseSvmResponse(byte...\n      POP \t\t\tfunction parseSvmResponse(byte...\n      JUMP \t\t\tfunction parseSvmResponse(byte...\n    tag 44\t\t\t\n      JUMPDEST \t\t\t\n      PUSH 40\t\t\t\n      MLOAD \t\t\t\n      DUP1 \t\t\t\n      PUSH 80\t\t\t\n      ADD \t\t\t\n      PUSH 40\t\t\t\n      MSTORE \t\t\t\n      DUP1 \t\t\t\n      PUSH 60\t\t\t\n      DUP2 \t\t\t\n      MSTORE \t\t\t\n      PUSH 20\t\t\t\n      ADD \t\t\t\n      PUSH 60\t\t\t\n      DUP2 \t\t\t\n      MSTORE \t\t\t\n      PUSH 20\t\t\t\n      ADD \t\t\t\n      PUSH 60\t\t\t\n      DUP2 \t\t\t\n      MSTORE \t\t\t\n      PUSH 20\t\t\t\n      ADD \t\t\t\n      PUSH 0\t\t\t\n      PUSH FFFFFFFFFFFFFFFF\t\t\t\n      AND \t\t\t\n      DUP2 \t\t\t\n      MSTORE \t\t\t\n      POP \t\t\t\n      SWAP1 \t\t\t\n      JUMP \t\t\t\n    tag 60\t\t\t\n      JUMPDEST \t\t\t\n      PUSH 40\t\t\t\n      MLOAD \t\t\t\n      DUP1 \t\t\t\n      PUSH 60\t\t\t\n      ADD \t\t\t\n      PUSH 40\t\t\t\n      MSTORE \t\t\t\n      DUP1 \t\t\t\n      PUSH 60\t\t\t\n      DUP2 \t\t\t\n      MSTORE \t\t\t\n      PUSH 20\t\t\t\n      ADD \t\t\t\n      PUSH 60\t\t\t\n      DUP2 \t\t\t\n      MSTORE \t\t\t\n      PUSH 20\t\t\t\n      ADD \t\t\t\n      PUSH 60\t\t\t\n      DUP2 \t\t\t\n      MSTORE \t\t\t\n      POP \t\t\t\n      SWAP1 \t\t\t\n      JUMP \t\t\t\n    tag 71\t\t\t\n      JUMPDEST \t\t\t\n      PUSH 40\t\t\t\n      MLOAD \t\t\t\n      DUP1 \t\t\t\n      PUSH A0\t\t\t\n      ADD \t\t\t\n      PUSH 40\t\t\t\n      MSTORE \t\t\t\n      DUP1 \t\t\t\n      PUSH 0\t\t\t\n      PUSH FFFFFFFF\t\t\t\n      AND \t\t\t\n      DUP2 \t\t\t\n      MSTORE \t\t\t\n      PUSH 20\t\t\t\n      ADD \t\t\t\n      PUSH 0\t\t\t\n      PUSH FFFFFFFF\t\t\t\n      AND \t\t\t\n      DUP2 \t\t\t\n      MSTORE \t\t\t\n      PUSH 20\t\t\t\n      ADD \t\t\t\n      PUSH 0\t\t\t\n      PUSH FFFFFFFF\t\t\t\n      AND \t\t\t\n      DUP2 \t\t\t\n      MSTORE \t\t\t\n      PUSH 20\t\t\t\n      ADD \t\t\t\n      PUSH 0\t\t\t\n      ISZERO \t\t\t\n      ISZERO \t\t\t\n      DUP2 \t\t\t\n      MSTORE \t\t\t\n      PUSH 20\t\t\t\n      ADD \t\t\t\n      PUSH 0\t\t\t\n      ISZERO \t\t\t\n      ISZERO \t\t\t\n      DUP2 \t\t\t\n      MSTORE \t\t\t\n      POP \t\t\t\n      SWAP1 \t\t\t\n      JUMP \t\t\t\n    tag 180\t\t\t-License-Identifier: GPL-3.0\\n...\n      JUMPDEST \t\t\t-License-Identifier: GPL-3.0\\n...\n      PUSH 0\t\t\tgma so\n      PUSH 40\t\t\ttr\n      MLOAD \t\t\t;\\n\\ncontra\n      SWAP1 \t\t\t7.0 <0.9.0;\\n\\ncontra\n      POP \t\t\t7.0 <0.9.0;\\n\\ncontra\n      SWAP1 \t\t\t-License-Identifier: GPL-3.0\\n...\n      JUMP \t\t\t-License-Identifier: GPL-3.0\\n...\n    tag 181\t\t\t {\\n    struct InstructionAcco...\n      JUMPDEST \t\t\t {\\n    struct InstructionAcco...\n      PUSH 0\t\t\t/\n      DUP1 \t\t\t \n      REVERT \t\t\t_index;   //\n    tag 182\t\t\tx\\n        uint32 callee_index...\n      JUMPDEST \t\t\tx\\n        uint32 callee_index...\n      PUSH 0\t\t\tw\n      DUP1 \t\t\ti\n      REVERT \t\t\t  bool is_wr\n    tag 183\t\t\t // is_writable\\n    }\\n\\n    ...\n      JUMPDEST \t\t\t // is_writable\\n    }\\n\\n    ...\n      PUSH 0\t\t\t \n      DUP1 \t\t\te\n      REVERT \t\t\tram_index;  \n    tag 184\t\t\t  InstructionAccount[] account...\n      JUMPDEST \t\t\t  InstructionAccount[] account...\n      PUSH 0\t\t\ta\n      DUP1 \t\t\tg\n      REVERT \t\t\truct MsgTran\n    tag 185\t\t\t      string[] signers;       ...\n      JUMPDEST \t\t\t      string[] signers;       ...\n      PUSH 0\t\t\trs (re\n      PUSH 1F\t\t\t  \n      NOT \t\t\t       \n      PUSH 1F\t\t\tun\n      DUP4 \t\t\t[] ac\n      ADD \t\t\tring[] account\n      AND \t\t\t  string[] accounts;        \n      SWAP1 \t\t\tng)\\n        string[] accounts...\n      POP \t\t\tng)\\n        string[] accounts...\n      SWAP2 \t\t\t      string[] signers;       ...\n      SWAP1 \t\t\t      string[] signers;       ...\n      POP \t\t\t      string[] signers;       ...\n      JUMP \t\t\t      string[] signers;       ...\n    tag 47\t\t\t (repeated string)\\n        In...\n      JUMPDEST \t\t\t (repeated string)\\n        In...\n      PUSH 4E487B7100000000000000000000000000000000000000000000000000000000\t\t\ttions; // instructions (repeat...\n      PUSH 0\t\t\tr\n      MSTORE \t\t\t[] instructions; // instructio...\n      PUSH 41\t\t\tet (\n      PUSH 4\t\t\tu\n      MSTORE \t\t\tmpute_budget (u\n      PUSH 24\t\t\ttrin\n      PUSH 0\t\t\t \n      REVERT \t\t\t  }\\n\\n    string\n    tag 186\t\t\ttring;\\n\\n    function set(str...\n      JUMPDEST \t\t\ttring;\\n\\n    function set(str...\n      PUSH [tag] 275\t\t\tmString;\\n    }\\n\\n    // TODO\n      DUP3 \t\t\t TOD\n      PUSH [tag] 185\t\t\tmString;\\n    }\\n\\n    // TODO\n      JUMP \t\t\tmString;\\n    }\\n\\n    // TODO\n    tag 275\t\t\tmString;\\n    }\\n\\n    // TODO\n      JUMPDEST \t\t\tmString;\\n    }\\n\\n    // TODO\n      DUP2 \t\t\tng = _\n      ADD \t\t\tString = _evmString;\\n    }\\n\\...\n      DUP2 \t\t\ttring \n      DUP2 \t\t\tion setSvm\n      LT \t\t\tnction setSvm(string m\n      PUSH FFFFFFFFFFFFFFFF\t\t\tbe a fee payer\\n   \n      DUP3 \t\t\tet contrac\n      GT \t\t\td let contract be a fee payer\\...\n      OR \t\t\tould let contract be a fee pay...\n      ISZERO \t\t\t should let contract be a fee ...\n      PUSH [tag] 276\t\t\t should let contract be a fee ...\n      JUMPI \t\t\t should let contract be a fee ...\n      PUSH [tag] 277\t\t\ty svmFeePayer, str\n      PUSH [tag] 47\t\t\ty svmFeePayer, str\n      JUMP \t\t\ty svmFeePayer, str\n    tag 277\t\t\ty svmFeePayer, str\n      JUMPDEST \t\t\ty svmFeePayer, str\n    tag 276\t\t\t should let contract be a fee ...\n      JUMPDEST \t\t\t should let contract be a fee ...\n      DUP1 \t\t\t public re\n      PUSH 40\t\t\tin\n      MSTORE \t\t\t_svmString) public ret\n      POP \t\t\tString) public {\\n        evmS...\n      POP \t\t\ttring;\\n\\n    function set(str...\n      POP \t\t\ttring;\\n\\n    function set(str...\n      JUMP \t\t\ttring;\\n\\n    function set(str...\n    tag 187\t\t\tmemory result) {\\n        addr...\n      JUMPDEST \t\t\tmemory result) {\\n        addr...\n      PUSH 0\t\t\tvmProx\n      PUSH [tag] 279\t\t\t64C968eCa87F775d2493\n      PUSH [tag] 180\t\t\t64C968eCa87F775d2493\n      JUMP \t\t\t64C968eCa87F775d2493\n    tag 279\t\t\t64C968eCa87F775d2493\n      JUMPDEST \t\t\t64C968eCa87F775d2493\n      SWAP1 \t\t\t(0xaB6B4d064C968eCa87F775d2493\n      POP \t\t\t(0xaB6B4d064C968eCa87F775d2493\n      PUSH [tag] 280\t\t\t2BC0);\\n        MsgTransaction...\n      DUP3 \t\t\tn me\n      DUP3 \t\t\tansact\n      PUSH [tag] 186\t\t\t2BC0);\\n        MsgTransaction...\n      JUMP \t\t\t2BC0);\\n        MsgTransaction...\n    tag 280\t\t\t2BC0);\\n        MsgTransaction...\n      JUMPDEST \t\t\t2BC0);\\n        MsgTransaction...\n      SWAP2 \t\t\tmemory result) {\\n        addr...\n      SWAP1 \t\t\tmemory result) {\\n        addr...\n      POP \t\t\tmemory result) {\\n        addr...\n      JUMP \t\t\tmemory result) {\\n        addr...\n    tag 188\t\t\tion;\\n        transaction.acco...\n      JUMPDEST \t\t\tion;\\n        transaction.acco...\n      PUSH 0\t\t\trans\n      PUSH FFFFFFFFFFFFFFFF\t\t\ton.accounts[1] = \"\n      DUP3 \t\t\transac\n      GT \t\t\t  transaction.accounts[1] = \"2\n      ISZERO \t\t\t     transaction.accounts[1] =...\n      PUSH [tag] 282\t\t\t     transaction.accounts[1] =...\n      JUMPI \t\t\t     transaction.accounts[1] =...\n      PUSH [tag] 283\t\t\tH6DeW4ULByQKLERtHj\n      PUSH [tag] 47\t\t\tH6DeW4ULByQKLERtHj\n      JUMP \t\t\tH6DeW4ULByQKLERtHj\n    tag 283\t\t\tH6DeW4ULByQKLERtHj\n      JUMPDEST \t\t\tH6DeW4ULByQKLERtHj\n    tag 282\t\t\t     transaction.accounts[1] =...\n      JUMPDEST \t\t\t     transaction.accounts[1] =...\n      PUSH [tag] 284\t\t\tdb\";\\n        transaction.acco\n      DUP3 \t\t\ton.acc\n      PUSH [tag] 185\t\t\tdb\";\\n        transaction.acco\n      JUMP \t\t\tdb\";\\n        transaction.acco\n    tag 284\t\t\tdb\";\\n        transaction.acco\n      JUMPDEST \t\t\tdb\";\\n        transaction.acco\n      SWAP1 \t\t\t3NuLSAf2db\";\\n        transact...\n      POP \t\t\t3NuLSAf2db\";\\n        transact...\n      PUSH 20\t\t\t= \"1\n      DUP2 \t\t\tts[3\n      ADD \t\t\tcounts[3] = \"11\n      SWAP1 \t\t\tction.accounts[3] = \"11\n      POP \t\t\tction.accounts[3] = \"11\n      SWAP2 \t\t\tion;\\n        transaction.acco...\n      SWAP1 \t\t\tion;\\n        transaction.acco...\n      POP \t\t\tion;\\n        transaction.acco...\n      JUMP \t\t\tion;\\n        transaction.acco...\n    tag 189\t\t\t11111111111111111\";\\n        t...\n      JUMPDEST \t\t\t11111111111111111\";\\n        t...\n      DUP3 \t\t\t      \n      DUP2 \t\t\ton\\n\n      DUP4 \t\t\truc\n      CALLDATACOPY \t\t\t// build instruction\\n        ...\n      PUSH 0\t\t\t \n      DUP4 \t\t\ttion;\\n\n      DUP4 \t\t\tstr\n      ADD \t\t\ty instruction;\\n \n      MSTORE \t\t\tn memory instruction;\\n     \n      POP \t\t\t11111111111111111\";\\n        t...\n      POP \t\t\t11111111111111111\";\\n        t...\n      POP \t\t\t11111111111111111\";\\n        t...\n      JUMP \t\t\t11111111111111111\";\\n        t...\n    tag 190\t\t\tn.program_index = new uint32[]...\n      JUMPDEST \t\t\tn.program_index = new uint32[]...\n      PUSH 0\t\t\t     \n      PUSH [tag] 287\t\t\tts = new InstructionAccount[](...\n      PUSH [tag] 288\t\t\ttionAccount[](3);\\n        ins...\n      DUP5 \t\t\tunts[0\n      PUSH [tag] 188\t\t\ttionAccount[](3);\\n        ins...\n      JUMP \t\t\ttionAccount[](3);\\n        ins...\n    tag 288\t\t\ttionAccount[](3);\\n        ins...\n      JUMPDEST \t\t\ttionAccount[](3);\\n        ins...\n      PUSH [tag] 187\t\t\tts = new InstructionAccount[](...\n      JUMP \t\t\tts = new InstructionAccount[](...\n    tag 287\t\t\tts = new InstructionAccount[](...\n      JUMPDEST \t\t\tts = new InstructionAccount[](...\n      SWAP1 \t\t\ton.accounts = new InstructionA...\n      POP \t\t\ton.accounts = new InstructionA...\n      DUP3 \t\t\t      \n      DUP2 \t\t\tount(\n      MSTORE \t\t\ttionAccount({\\n       \n      PUSH 20\t\t\talle\n      DUP2 \t\t\t     \n      ADD \t\t\t          caller\n      DUP5 \t\t\tex:\n      DUP5 \t\t\tallee_\n      DUP5 \t\t\t   \n      ADD \t\t\t        callee_i\n      GT \t\t\t           callee_index: \n      ISZERO \t\t\t,\\n            callee_index: 0...\n      PUSH [tag] 289\t\t\t,\\n            callee_index: 0...\n      JUMPI \t\t\t,\\n            callee_index: 0...\n      PUSH [tag] 290\t\t\t            is_signer: false,\\...\n      PUSH [tag] 184\t\t\t            is_signer: false,\\...\n      JUMP \t\t\t            is_signer: false,\\...\n    tag 290\t\t\t            is_signer: false,\\...\n      JUMPDEST \t\t\t            is_signer: false,\\...\n    tag 289\t\t\t,\\n            callee_index: 0...\n      JUMPDEST \t\t\t,\\n            callee_index: 0...\n      PUSH [tag] 291\t\t\tn.accounts[1] = InstructionAcc...\n      DUP5 \t\t\t  id_i\n      DUP3 \t\t\t   \n      DUP6 \t\t\t   \n      PUSH [tag] 189\t\t\tn.accounts[1] = InstructionAcc...\n      JUMP \t\t\tn.accounts[1] = InstructionAcc...\n    tag 291\t\t\tn.accounts[1] = InstructionAcc...\n      JUMPDEST \t\t\tn.accounts[1] = InstructionAcc...\n      POP \t\t\t instruction.accounts = new In...\n      SWAP4 \t\t\tn.program_index = new uint32[]...\n      SWAP3 \t\t\tn.program_index = new uint32[]...\n      POP \t\t\tn.program_index = new uint32[]...\n      POP \t\t\tn.program_index = new uint32[]...\n      POP \t\t\tn.program_index = new uint32[]...\n      JUMP \t\t\tn.program_index = new uint32[]...\n    tag 191\t\t\t_index: 2,\\n            callee...\n      JUMPDEST \t\t\t_index: 2,\\n            callee...\n      PUSH 0\t\t\tigner\n      DUP3 \t\t\t  }\n      PUSH 1F\t\t\t\\n   \n      DUP4 \t\t\tle: tr\n      ADD \t\t\titable: true\\n    \n      SLT \t\t\ts_writable: true\\n        })\n      PUSH [tag] 293\t\t\t         is_writable: true\\n  ...\n      JUMPI \t\t\t         is_writable: true\\n  ...\n      PUSH [tag] 294\t\t\t      instruction.accounts[2] ...\n      PUSH [tag] 183\t\t\t      instruction.accounts[2] ...\n      JUMP \t\t\t      instruction.accounts[2] ...\n    tag 294\t\t\t      instruction.accounts[2] ...\n      JUMPDEST \t\t\t      instruction.accounts[2] ...\n    tag 293\t\t\t         is_writable: true\\n  ...\n      JUMPDEST \t\t\t         is_writable: true\\n  ...\n      DUP2 \t\t\t  call\n      CALLDATALOAD \t\t\t3,\\n            calle\n      PUSH [tag] 295\t\t\t      is_signer: false,\\n     ...\n      DUP5 \t\t\tbyt\n      DUP3 \t\t\t      \n      PUSH 20\t\t\t   }\n      DUP7 \t\t\tse\\n   \n      ADD \t\t\t false\\n        })\n      PUSH [tag] 190\t\t\t      is_signer: false,\\n     ...\n      JUMP \t\t\t      is_signer: false,\\n     ...\n    tag 295\t\t\t      is_signer: false,\\n     ...\n      JUMPDEST \t\t\t      is_signer: false,\\n     ...\n      SWAP2 \t\t\t2,\\n            is_signer: fal...\n      POP \t\t\t2,\\n            is_signer: fal...\n      POP \t\t\t true,\\n            is_writabl...\n      SWAP3 \t\t\t_index: 2,\\n            callee...\n      SWAP2 \t\t\t_index: 2,\\n            callee...\n      POP \t\t\t_index: 2,\\n            callee...\n      POP \t\t\t_index: 2,\\n            callee...\n      JUMP \t\t\t_index: 2,\\n            callee...\n    tag 13\t\t\tcriminator = hex\"df725b88c54e9...\n      JUMPDEST \t\t\tcriminator = hex\"df725b88c54e9...\n      PUSH 0\t\t\tvmStri\n      DUP1 \t\t\t);\\n   \n      PUSH 40\t\t\tmi\n      DUP4 \t\t\toncat(dis\n      DUP6 \t\t\t= bytes\n      SUB \t\t\tata = bytes.concat(disc\n      SLT \t\t\ton.data = bytes.concat(discrim...\n      ISZERO \t\t\tction.data = bytes.concat(disc...\n      PUSH [tag] 297\t\t\tction.data = bytes.concat(disc...\n      JUMPI \t\t\tction.data = bytes.concat(disc...\n      PUSH [tag] 298\t\t\tr, stringLen, bytes(_svmString...\n      PUSH [tag] 181\t\t\tr, stringLen, bytes(_svmString...\n      JUMP \t\t\tr, stringLen, bytes(_svmString...\n    tag 298\t\t\tr, stringLen, bytes(_svmString...\n      JUMPDEST \t\t\tr, stringLen, bytes(_svmString...\n    tag 297\t\t\tction.data = bytes.concat(disc...\n      JUMPDEST \t\t\tction.data = bytes.concat(disc...\n      PUSH 0\t\t\t \n      DUP4 \t\t\tion;\\n\\n   \n      ADD \t\t\truction;\\n\\n       \n      CALLDATALOAD \t\t\tons[0] = instruction;\\n\\n     ...\n      PUSH FFFFFFFFFFFFFFFF\t\t\t svmProxy.call(abi\n      DUP2 \t\t\tory r)\n      GT \t\t\tmemory r) = svmProxy.call(abi.\n      ISZERO \t\t\tes memory r) = svmProxy.call(a...\n      PUSH [tag] 299\t\t\tes memory r) = svmProxy.call(a...\n      JUMPI \t\t\tes memory r) = svmProxy.call(a...\n      PUSH [tag] 300\t\t\tode(transaction));\\n        re...\n      PUSH [tag] 182\t\t\tode(transaction));\\n        re...\n      JUMP \t\t\tode(transaction));\\n        re...\n    tag 300\t\t\tode(transaction));\\n        re...\n      JUMPDEST \t\t\tode(transaction));\\n        re...\n    tag 299\t\t\tes memory r) = svmProxy.call(a...\n      JUMPDEST \t\t\tes memory r) = svmProxy.call(a...\n      PUSH [tag] 301\t\t\tionalSetSvm(string memory svmF...\n      DUP6 \t\t\tbytes m\n      DUP3 \t\t\treturn\n      DUP7 \t\t\ter) publi\n      ADD \t\t\tePayer) public returns\n      PUSH [tag] 191\t\t\tionalSetSvm(string memory svmF...\n      JUMP \t\t\tionalSetSvm(string memory svmF...\n    tag 301\t\t\tionalSetSvm(string memory svmF...\n      JUMPDEST \t\t\tionalSetSvm(string memory svmF...\n      SWAP3 \t\t\tion conditionalSetSvm(string m...\n      POP \t\t\tion conditionalSetSvm(string m...\n      POP \t\t\t        transaction.instructio...\n      PUSH 20\t\t\t  \n      DUP4 \t\t\t(\"svm\")) \n      ADD \t\t\tk256(\"svm\")) {\\n   \n      CALLDATALOAD \t\t\t())) == keccak256(\"svm\")) {\\n ...\n      PUSH FFFFFFFFFFFFFFFF\t\t\tePayer, \"evm\");\\n  \n      DUP2 \t\t\tvm(svm\n      GT \t\t\tetSvm(svmFeePayer, \"evm\");\\n  ...\n      ISZERO \t\t\tn setSvm(svmFeePayer, \"evm\");\\...\n      PUSH [tag] 302\t\t\tn setSvm(svmFeePayer, \"evm\");\\...\n      JUMPI \t\t\tn setSvm(svmFeePayer, \"evm\");\\...\n      PUSH [tag] 303\t\t\t  } \\n        return setSvm(sv...\n      PUSH [tag] 182\t\t\t  } \\n        return setSvm(sv...\n      JUMP \t\t\t  } \\n        return setSvm(sv...\n    tag 303\t\t\t  } \\n        return setSvm(sv...\n      JUMPDEST \t\t\t  } \\n        return setSvm(sv...\n    tag 302\t\t\tn setSvm(svmFeePayer, \"evm\");\\...\n      JUMPDEST \t\t\tn setSvm(svmFeePayer, \"evm\");\\...\n      PUSH [tag] 304\t\t\tpported by solidity, use for l...\n      DUP6 \t\t\tnction \n      DUP3 \t\t\tow\\n   \n      DUP7 \t\t\ts example\n      ADD \t\t\top as example now\\n    \n      PUSH [tag] 191\t\t\tpported by solidity, use for l...\n      JUMP \t\t\tpported by solidity, use for l...\n    tag 304\t\t\tpported by solidity, use for l...\n      JUMPDEST \t\t\tpported by solidity, use for l...\n      SWAP2 \t\t\tatively supported by solidity,...\n      POP \t\t\tatively supported by solidity,...\n      POP \t\t\t   if (keccak256(bytes(getSvm(...\n      SWAP3 \t\t\tcriminator = hex\"df725b88c54e9...\n      POP \t\t\tcriminator = hex\"df725b88c54e9...\n      SWAP3 \t\t\tcriminator = hex\"df725b88c54e9...\n      SWAP1 \t\t\tcriminator = hex\"df725b88c54e9...\n      POP \t\t\tcriminator = hex\"df725b88c54e9...\n      JUMP \t\t\tcriminator = hex\"df725b88c54e9...\n    tag 192\t\t\temory data) internal pure retu...\n      JUMPDEST \t\t\temory data) internal pure retu...\n      PUSH 0\t\t\t\\n     \n      DUP2 \t\t\ttes(d\n      MLOAD \t\t\tnew bytes(da\n      SWAP1 \t\t\tory res = new bytes(da\n      POP \t\t\tory res = new bytes(da\n      SWAP2 \t\t\temory data) internal pure retu...\n      SWAP1 \t\t\temory data) internal pure retu...\n      POP \t\t\temory data) internal pure retu...\n      JUMP \t\t\temory data) internal pure retu...\n    tag 193\t\t\t);\\n        for(uint256 i = 4;...\n      JUMPDEST \t\t\t);\\n        for(uint256 i = 4;...\n      PUSH 0\t\t\t\\n        }\\n\n      DUP3 \t\t\tres);\\n\n      DUP3 \t\t\trin\n      MSTORE \t\t\tturn string(res);\\n \n      PUSH 20\t\t\tc vi\n      DUP3 \t\t\tpub\n      ADD \t\t\tm() public vie\n      SWAP1 \t\t\t function getSvm() public vie\n      POP \t\t\t function getSvm() public vie\n      SWAP3 \t\t\t);\\n        for(uint256 i = 4;...\n      SWAP2 \t\t\t);\\n        for(uint256 i = 4;...\n      POP \t\t\t);\\n        for(uint256 i = 4;...\n      POP \t\t\t);\\n        for(uint256 i = 4;...\n      JUMP \t\t\t);\\n        for(uint256 i = 4;...\n    tag 194\t\t\ttring memory) {\\n        addre...\n      JUMPDEST \t\t\ttring memory) {\\n        addre...\n      DUP3 \t\t\t2BC0);\n      DUP2 \t\t\t987\n      DUP4 \t\t\t3a2\n      MCOPY \t\t\t75d2493a222987052BC0);\\n\n      PUSH 0\t\t\ts\n      DUP4 \t\t\tmory t\n      DUP4 \t\t\ton \n      ADD \t\t\taction memory tr\n      MSTORE \t\t\tsgTransaction memory transa\n      POP \t\t\ttring memory) {\\n        addre...\n      POP \t\t\ttring memory) {\\n        addre...\n      POP \t\t\ttring memory) {\\n        addre...\n      JUMP \t\t\ttring memory) {\\n        addre...\n    tag 195\t\t\t  transaction.accounts = new s...\n      JUMPDEST \t\t\t  transaction.accounts = new s...\n      PUSH 0\t\t\trGq\n      PUSH [tag] 309\t\t\tvqtSJ32\";\\n        transaction...\n      DUP3 \t\t\tcount\n      PUSH [tag] 192\t\t\tvqtSJ32\";\\n        transaction...\n      JUMP \t\t\tvqtSJ32\";\\n        transaction...\n    tag 309\t\t\tvqtSJ32\";\\n        transaction...\n      JUMPDEST \t\t\tvqtSJ32\";\\n        transaction...\n      PUSH [tag] 310\t\t\t4ULByQKLERtHjSoDeFiuCii8v3NuLS...\n      DUP2 \t\t\tte_bud\n      DUP6 \t\t\tcom\n      PUSH [tag] 193\t\t\t4ULByQKLERtHjSoDeFiuCii8v3NuLS...\n      JUMP \t\t\t4ULByQKLERtHjSoDeFiuCii8v3NuLS...\n    tag 310\t\t\t4ULByQKLERtHjSoDeFiuCii8v3NuLS...\n      JUMPDEST \t\t\t4ULByQKLERtHjSoDeFiuCii8v3NuLS...\n      SWAP4 \t\t\tz6H6DeW4ULByQKLERtHjSoDeFiuCii...\n      POP \t\t\tz6H6DeW4ULByQKLERtHjSoDeFiuCii...\n      PUSH [tag] 311\t\t\t000;\\n         Instruction mem...\n      DUP2 \t\t\tructio\n      DUP6 \t\t\t in\n      PUSH 20\t\t\t    \n      DUP7 \t\t\tction\n      ADD \t\t\tstruction;\\n     \n      PUSH [tag] 194\t\t\t000;\\n         Instruction mem...\n      JUMP \t\t\t000;\\n         Instruction mem...\n    tag 311\t\t\t000;\\n         Instruction mem...\n      JUMPDEST \t\t\t000;\\n         Instruction mem...\n      PUSH [tag] 312\t\t\t32[](1);\\n        instruction.\n      DUP2 \t\t\tuction\n      PUSH [tag] 185\t\t\t32[](1);\\n        instruction.\n      JUMP \t\t\t32[](1);\\n        instruction.\n    tag 312\t\t\t32[](1);\\n        instruction.\n      JUMPDEST \t\t\t32[](1);\\n        instruction.\n      DUP5 \t\t\t ui\n      ADD \t\t\t new uint32[](1);\\n        ins...\n      SWAP2 \t\t\tindex = new uint32[](1);\\n    ...\n      POP \t\t\tindex = new uint32[](1);\\n    ...\n      POP \t\t\teBnnp6EQPxapcpjpxdjAKpLavqtSJ3...\n      SWAP3 \t\t\t  transaction.accounts = new s...\n      SWAP2 \t\t\t  transaction.accounts = new s...\n      POP \t\t\t  transaction.accounts = new s...\n      POP \t\t\t  transaction.accounts = new s...\n      JUMP \t\t\t  transaction.accounts = new s...\n    tag 16\t\t\t[0] = 0;\\n        instruction....\n      JUMPDEST \t\t\t[0] = 0;\\n        instruction....\n      PUSH 0\t\t\tionA\n      PUSH 20\t\t\t  \n      DUP3 \t\t\t_index: 1\n      ADD \t\t\t  id_index: 1,\\n   \n      SWAP1 \t\t\t          id_index: 1,\\n   \n      POP \t\t\t          id_index: 1,\\n   \n      DUP2 \t\t\tndex: 0,\\n\n      DUP2 \t\t\tllee\n      SUB \t\t\t  callee_index: 0,\\n \n      PUSH 0\t\t\t \n      DUP4 \t\t\t: 1,\\n    \n      ADD \t\t\tndex: 1,\\n        \n      MSTORE \t\t\taller_index: 1,\\n            c...\n      PUSH [tag] 314\t\t\ter: false,\\n            is_wri...\n      DUP2 \t\t\tory \n      DUP5 \t\t\tbytes \n      PUSH [tag] 195\t\t\ter: false,\\n            is_wri...\n      JUMP \t\t\ter: false,\\n            is_wri...\n    tag 314\t\t\ter: false,\\n            is_wri...\n      JUMPDEST \t\t\ter: false,\\n            is_wri...\n      SWAP1 \t\t\t is_signer: false,\\n          ...\n      POP \t\t\t is_signer: false,\\n          ...\n      SWAP3 \t\t\t[0] = 0;\\n        instruction....\n      SWAP2 \t\t\t[0] = 0;\\n        instruction....\n      POP \t\t\t[0] = 0;\\n        instruction....\n      POP \t\t\t[0] = 0;\\n        instruction....\n      JUMP \t\t\t[0] = 0;\\n        instruction....\n    tag 196\t\t\t= hex\"dc8bfd5f8098939f\";\\n    ...\n      JUMPDEST \t\t\t= hex\"dc8bfd5f8098939f\";\\n    ...\n      PUSH 0\t\t\tdiscri\n      DUP2 \t\t\t.inst\n      MLOAD \t\t\taction.instr\n      SWAP1 \t\t\t     transaction.instr\n      POP \t\t\t     transaction.instr\n      SWAP2 \t\t\t= hex\"dc8bfd5f8098939f\";\\n    ...\n      SWAP1 \t\t\t= hex\"dc8bfd5f8098939f\";\\n    ...\n      POP \t\t\t= hex\"dc8bfd5f8098939f\";\\n    ...\n      JUMP \t\t\t= hex\"dc8bfd5f8098939f\";\\n    ...\n    tag 197\t\t\t Instruction[](1);\\n        tr...\n      JUMPDEST \t\t\t Instruction[](1);\\n        tr...\n      PUSH 0\t\t\tok, bytes m\n      DUP3 \t\t\tticcal\n      DUP3 \t\t\ty.s\n      MSTORE \t\t\tsvmProxy.staticcall\n      PUSH 20\t\t\t  re\n      DUP3 \t\t\t   \n      ADD \t\t\t);\\n        req\n      SWAP1 \t\t\tde(transaction));\\n        req\n      POP \t\t\tde(transaction));\\n        req\n      SWAP3 \t\t\t Instruction[](1);\\n        tr...\n      SWAP2 \t\t\t Instruction[](1);\\n        tr...\n      POP \t\t\t Instruction[](1);\\n        tr...\n      POP \t\t\t Instruction[](1);\\n        tr...\n      JUMP \t\t\t Instruction[](1);\\n        tr...\n    tag 198\t\t\tll must succeed\");\\n\\n        ...\n      JUMPDEST \t\t\tll must succeed\");\\n\\n        ...\n      PUSH 0\t\t\tStr\n      PUSH [tag] 318\t\t\t str) public pure returns (byt...\n      DUP3 \t\t\t) {\\n \n      PUSH [tag] 196\t\t\t str) public pure returns (byt...\n      JUMP \t\t\t str) public pure returns (byt...\n    tag 318\t\t\t str) public pure returns (byt...\n      JUMPDEST \t\t\t str) public pure returns (byt...\n      PUSH [tag] 319\t\t\tn = bytes(str).length;\\n      ...\n      DUP2 \t\t\t\\n\\n    \n      DUP6 \t\t\t   \n      PUSH [tag] 197\t\t\tn = bytes(str).length;\\n      ...\n      JUMP \t\t\tn = bytes(str).length;\\n      ...\n    tag 319\t\t\tn = bytes(str).length;\\n      ...\n      JUMPDEST \t\t\tn = bytes(str).length;\\n      ...\n      SWAP4 \t\t\tt256 len = bytes(str).length;\\...\n      POP \t\t\tt256 len = bytes(str).length;\\...\n      PUSH [tag] 320\t\t\toLittleEndian(uint256 value) p...\n      DUP2 \t\t\tesult)\n      DUP6 \t\t\tes4\n      PUSH 20\t\t\tns (\n      DUP7 \t\t\te ret\n      ADD \t\t\t pure returns (b\n      PUSH [tag] 194\t\t\toLittleEndian(uint256 value) p...\n      JUMP \t\t\toLittleEndian(uint256 value) p...\n    tag 320\t\t\toLittleEndian(uint256 value) p...\n      JUMPDEST \t\t\toLittleEndian(uint256 value) p...\n      PUSH [tag] 321\t\t\t 4 bytes\\n        bytes32 last\n      DUP2 \t\t\t32 las\n      PUSH [tag] 185\t\t\t 4 bytes\\n        bytes32 last\n      JUMP \t\t\t 4 bytes\\n        bytes32 last\n    tag 321\t\t\t 4 bytes\\n        bytes32 last\n      JUMPDEST \t\t\t 4 bytes\\n        bytes32 last\n      DUP5 \t\t\t la\n      ADD \t\t\tract last 4 bytes\\n        byt...\n      SWAP2 \t\t\t // Extract last 4 bytes\\n    ...\n      POP \t\t\t // Extract last 4 bytes\\n    ...\n      POP \t\t\tngLengthLE(string memory str) ...\n      SWAP3 \t\t\tll must succeed\");\\n\\n        ...\n      SWAP2 \t\t\tll must succeed\");\\n\\n        ...\n      POP \t\t\tll must succeed\");\\n\\n        ...\n      POP \t\t\tll must succeed\");\\n\\n        ...\n      JUMP \t\t\tll must succeed\");\\n\\n        ...\n    tag 20\t\t\talue);\\n        // Reverse the...\n      JUMPDEST \t\t\talue);\\n        // Reverse the...\n      PUSH 0\t\t\t    \n      PUSH 20\t\t\t|\\n\n      DUP3 \t\t\t])) << 16\n      ADD \t\t\t4[30])) << 16) |\\n \n      SWAP1 \t\t\tnt8(last4[30])) << 16) |\\n \n      POP \t\t\tnt8(last4[30])) << 16) |\\n \n      DUP2 \t\t\t         \n      DUP2 \t\t\t8) |\n      SUB \t\t\t << 8) |\\n           \n      PUSH 0\t\t\t9\n      DUP4 \t\t\tnt8(last4\n      ADD \t\t\t2(uint8(last4[29]\n      MSTORE \t\t\t (uint32(uint8(last4[29])) << ...\n      PUSH [tag] 323\t\t\tt4[28])))\\n        );\\n    }\\n...\n      DUP2 \t\t\t\n      DUP5 \t\t\t\n      PUSH [tag] 198\t\t\tt4[28])))\\n        );\\n    }\\n...\n      JUMP \t\t\tt4[28])))\\n        );\\n    }\\n...\n    tag 323\t\t\tt4[28])))\\n        );\\n    }\\n...\n      JUMPDEST \t\t\tt4[28])))\\n        );\\n    }\\n...\n      SWAP1 \t\t\tint8(last4[28])))\\n        );\\...\n      POP \t\t\tint8(last4[28])))\\n        );\\...\n      SWAP3 \t\t\talue);\\n        // Reverse the...\n      SWAP2 \t\t\talue);\\n        // Reverse the...\n      POP \t\t\talue);\\n        // Reverse the...\n      POP \t\t\talue);\\n        // Reverse the...\n      JUMP \t\t\talue);\\n        // Reverse the...\n    tag 23\t\t\t\n      JUMPDEST \t\t\t\n      PUSH 0\t\t\t\n      PUSH 20\t\t\t\n      DUP3 \t\t\t\n      DUP5 \t\t\t\n      SUB \t\t\t\n      SLT \t\t\t\n      ISZERO \t\t\t\n      PUSH [tag] 325\t\t\t\n      JUMPI \t\t\t\n      PUSH [tag] 326\t\t\t\n      PUSH [tag] 181\t\t\t\n      JUMP \t\t\t\n    tag 326\t\t\t\n      JUMPDEST \t\t\t\n    tag 325\t\t\t\n      JUMPDEST \t\t\t\n      PUSH 0\t\t\t\n      DUP3 \t\t\t\n      ADD \t\t\t\n      CALLDATALOAD \t\t\t\n      PUSH FFFFFFFFFFFFFFFF\t\t\t\n      DUP2 \t\t\t\n      GT \t\t\t\n      ISZERO \t\t\t\n      PUSH [tag] 327\t\t\t\n      JUMPI \t\t\t\n      PUSH [tag] 328\t\t\t\n      PUSH [tag] 182\t\t\t\n      JUMP \t\t\t\n    tag 328\t\t\t\n      JUMPDEST \t\t\t\n    tag 327\t\t\t\n      JUMPDEST \t\t\t\n      PUSH [tag] 329\t\t\t\n      DUP5 \t\t\t\n      DUP3 \t\t\t\n      DUP6 \t\t\t\n      ADD \t\t\t\n      PUSH [tag] 191\t\t\t\n      JUMP \t\t\t\n    tag 329\t\t\t\n      JUMPDEST \t\t\t\n      SWAP2 \t\t\t\n      POP \t\t\t\n      POP \t\t\t\n      SWAP3 \t\t\t\n      SWAP2 \t\t\t\n      POP \t\t\t\n      POP \t\t\t\n      JUMP \t\t\t\n    tag 199\t\t\t\n      JUMPDEST \t\t\t\n      PUSH 0\t\t\t\n      PUSH FFFFFFFF00000000000000000000000000000000000000000000000000000000\t\t\t\n      DUP3 \t\t\t\n      AND \t\t\t\n      SWAP1 \t\t\t\n      POP \t\t\t\n      SWAP2 \t\t\t\n      SWAP1 \t\t\t\n      POP \t\t\t\n      JUMP \t\t\t\n    tag 200\t\t\t\n      JUMPDEST \t\t\t\n      PUSH [tag] 332\t\t\t\n      DUP2 \t\t\t\n      PUSH [tag] 199\t\t\t\n      JUMP \t\t\t\n    tag 332\t\t\t\n      JUMPDEST \t\t\t\n      DUP3 \t\t\t\n      MSTORE \t\t\t\n      POP \t\t\t\n      POP \t\t\t\n      JUMP \t\t\t\n    tag 32\t\t\t\n      JUMPDEST \t\t\t\n      PUSH 0\t\t\t\n      PUSH 20\t\t\t\n      DUP3 \t\t\t\n      ADD \t\t\t\n      SWAP1 \t\t\t\n      POP \t\t\t\n      PUSH [tag] 334\t\t\t\n      PUSH 0\t\t\t\n      DUP4 \t\t\t\n      ADD \t\t\t\n      DUP5 \t\t\t\n      PUSH [tag] 200\t\t\t\n      JUMP \t\t\t\n    tag 334\t\t\t\n      JUMPDEST \t\t\t\n      SWAP3 \t\t\t\n      SWAP2 \t\t\t\n      POP \t\t\t\n      POP \t\t\t\n      JUMP \t\t\t\n    tag 201\t\t\t\n      JUMPDEST \t\t\t\n      PUSH 0\t\t\t\n      DUP2 \t\t\t\n      SWAP1 \t\t\t\n      POP \t\t\t\n      SWAP2 \t\t\t\n      SWAP1 \t\t\t\n      POP \t\t\t\n      JUMP \t\t\t\n    tag 202\t\t\t\n      JUMPDEST \t\t\t\n      PUSH [tag] 337\t\t\t\n      DUP2 \t\t\t\n      PUSH [tag] 201\t\t\t\n      JUMP \t\t\t\n    tag 337\t\t\t\n      JUMPDEST \t\t\t\n      DUP2 \t\t\t\n      EQ \t\t\t\n      PUSH [tag] 338\t\t\t\n      JUMPI \t\t\t\n      PUSH 0\t\t\t\n      DUP1 \t\t\t\n      REVERT \t\t\t\n    tag 338\t\t\t\n      JUMPDEST \t\t\t\n      POP \t\t\t\n      JUMP \t\t\t\n    tag 203\t\t\t\n      JUMPDEST \t\t\t\n      PUSH 0\t\t\t\n      DUP2 \t\t\t\n      CALLDATALOAD \t\t\t\n      SWAP1 \t\t\t\n      POP \t\t\t\n      PUSH [tag] 340\t\t\t\n      DUP2 \t\t\t\n      PUSH [tag] 202\t\t\t\n      JUMP \t\t\t\n    tag 340\t\t\t\n      JUMPDEST \t\t\t\n      SWAP3 \t\t\t\n      SWAP2 \t\t\t\n      POP \t\t\t\n      POP \t\t\t\n      JUMP \t\t\t\n    tag 35\t\t\t\n      JUMPDEST \t\t\t\n      PUSH 0\t\t\t\n      PUSH 20\t\t\t\n      DUP3 \t\t\t\n      DUP5 \t\t\t\n      SUB \t\t\t\n      SLT \t\t\t\n      ISZERO \t\t\t\n      PUSH [tag] 342\t\t\t\n      JUMPI \t\t\t\n      PUSH [tag] 343\t\t\t\n      PUSH [tag] 181\t\t\t\n      JUMP \t\t\t\n    tag 343\t\t\t\n      JUMPDEST \t\t\t\n    tag 342\t\t\t\n      JUMPDEST \t\t\t\n      PUSH 0\t\t\t\n      PUSH [tag] 344\t\t\t\n      DUP5 \t\t\t\n      DUP3 \t\t\t\n      DUP6 \t\t\t\n      ADD \t\t\t\n      PUSH [tag] 203\t\t\t\n      JUMP \t\t\t\n    tag 344\t\t\t\n      JUMPDEST \t\t\t\n      SWAP2 \t\t\t\n      POP \t\t\t\n      POP \t\t\t\n      SWAP3 \t\t\t\n      SWAP2 \t\t\t\n      POP \t\t\t\n      POP \t\t\t\n      JUMP \t\t\t\n    tag 52\t\t\t\n      JUMPDEST \t\t\t\n      PUSH 4E487B7100000000000000000000000000000000000000000000000000000000\t\t\t\n      PUSH 0\t\t\t\n      MSTORE \t\t\t\n      PUSH 32\t\t\t\n      PUSH 4\t\t\t\n      MSTORE \t\t\t\n      PUSH 24\t\t\t\n      PUSH 0\t\t\t\n      REVERT \t\t\t\n    tag 204\t\t\t\n      JUMPDEST \t\t\t\n      PUSH [tag] 347\t\t\t\n      DUP2 \t\t\t\n      PUSH [tag] 199\t\t\t\n      JUMP \t\t\t\n    tag 347\t\t\t\n      JUMPDEST \t\t\t\n      DUP2 \t\t\t\n      EQ \t\t\t\n      PUSH [tag] 348\t\t\t\n      JUMPI \t\t\t\n      PUSH 0\t\t\t\n      DUP1 \t\t\t\n      REVERT \t\t\t\n    tag 348\t\t\t\n      JUMPDEST \t\t\t\n      POP \t\t\t\n      JUMP \t\t\t\n    tag 205\t\t\t\n      JUMPDEST \t\t\t\n      PUSH 0\t\t\t\n      DUP2 \t\t\t\n      MLOAD \t\t\t\n      SWAP1 \t\t\t\n      POP \t\t\t\n      PUSH [tag] 350\t\t\t\n      DUP2 \t\t\t\n      PUSH [tag] 204\t\t\t\n      JUMP \t\t\t\n    tag 350\t\t\t\n      JUMPDEST \t\t\t\n      SWAP3 \t\t\t\n      SWAP2 \t\t\t\n      POP \t\t\t\n      POP \t\t\t\n      JUMP \t\t\t\n    tag 82\t\t\t\n      JUMPDEST \t\t\t\n      PUSH 0\t\t\t\n      PUSH 20\t\t\t\n      DUP3 \t\t\t\n      DUP5 \t\t\t\n      SUB \t\t\t\n      SLT \t\t\t\n      ISZERO \t\t\t\n      PUSH [tag] 352\t\t\t\n      JUMPI \t\t\t\n      PUSH [tag] 353\t\t\t\n      PUSH [tag] 181\t\t\t\n      JUMP \t\t\t\n    tag 353\t\t\t\n      JUMPDEST \t\t\t\n    tag 352\t\t\t\n      JUMPDEST \t\t\t\n      PUSH 0\t\t\t\n      PUSH [tag] 354\t\t\t\n      DUP5 \t\t\t\n      DUP3 \t\t\t\n      DUP6 \t\t\t\n      ADD \t\t\t\n      PUSH [tag] 205\t\t\t\n      JUMP \t\t\t\n    tag 354\t\t\t\n      JUMPDEST \t\t\t\n      SWAP2 \t\t\t\n      POP \t\t\t\n      POP \t\t\t\n      SWAP3 \t\t\t\n      SWAP2 \t\t\t\n      POP \t\t\t\n      POP \t\t\t\n      JUMP \t\t\t\n    tag 206\t\t\t\n      JUMPDEST \t\t\t\n      PUSH 0\t\t\t\n      DUP2 \t\t\t\n      SWAP1 \t\t\t\n      POP \t\t\t\n      SWAP3 \t\t\t\n      SWAP2 \t\t\t\n      POP \t\t\t\n      POP \t\t\t\n      JUMP \t\t\t\n    tag 207\t\t\t\n      JUMPDEST \t\t\t\n      PUSH 0\t\t\t\n      PUSH [tag] 357\t\t\t\n      DUP3 \t\t\t\n      PUSH [tag] 192\t\t\t\n      JUMP \t\t\t\n    tag 357\t\t\t\n      JUMPDEST \t\t\t\n      PUSH [tag] 358\t\t\t\n      DUP2 \t\t\t\n      DUP6 \t\t\t\n      PUSH [tag] 206\t\t\t\n      JUMP \t\t\t\n    tag 358\t\t\t\n      JUMPDEST \t\t\t\n      SWAP4 \t\t\t\n      POP \t\t\t\n      PUSH [tag] 359\t\t\t\n      DUP2 \t\t\t\n      DUP6 \t\t\t\n      PUSH 20\t\t\t\n      DUP7 \t\t\t\n      ADD \t\t\t\n      PUSH [tag] 194\t\t\t\n      JUMP \t\t\t\n    tag 359\t\t\t\n      JUMPDEST \t\t\t\n      DUP1 \t\t\t\n      DUP5 \t\t\t\n      ADD \t\t\t\n      SWAP2 \t\t\t\n      POP \t\t\t\n      POP \t\t\t\n      SWAP3 \t\t\t\n      SWAP2 \t\t\t\n      POP \t\t\t\n      POP \t\t\t\n      JUMP \t\t\t\n    tag 208\t\t\t\n      JUMPDEST \t\t\t\n      PUSH 0\t\t\t\n      DUP2 \t\t\t\n      SWAP1 \t\t\t\n      POP \t\t\t\n      SWAP2 \t\t\t\n      SWAP1 \t\t\t\n      POP \t\t\t\n      JUMP \t\t\t\n    tag 209\t\t\t\n      JUMPDEST \t\t\t\n      PUSH [tag] 362\t\t\t\n      PUSH [tag] 363\t\t\t\n      DUP3 \t\t\t\n      PUSH [tag] 199\t\t\t\n      JUMP \t\t\t\n    tag 363\t\t\t\n      JUMPDEST \t\t\t\n      PUSH [tag] 208\t\t\t\n      JUMP \t\t\t\n    tag 362\t\t\t\n      JUMPDEST \t\t\t\n      DUP3 \t\t\t\n      MSTORE \t\t\t\n      POP \t\t\t\n      POP \t\t\t\n      JUMP \t\t\t\n    tag 84\t\t\t\n      JUMPDEST \t\t\t\n      PUSH 0\t\t\t\n      PUSH [tag] 365\t\t\t\n      DUP3 \t\t\t\n      DUP7 \t\t\t\n      PUSH [tag] 207\t\t\t\n      JUMP \t\t\t\n    tag 365\t\t\t\n      JUMPDEST \t\t\t\n      SWAP2 \t\t\t\n      POP \t\t\t\n      PUSH [tag] 366\t\t\t\n      DUP3 \t\t\t\n      DUP6 \t\t\t\n      PUSH [tag] 209\t\t\t\n      JUMP \t\t\t\n    tag 366\t\t\t\n      JUMPDEST \t\t\t\n      PUSH 4\t\t\t\n      DUP3 \t\t\t\n      ADD \t\t\t\n      SWAP2 \t\t\t\n      POP \t\t\t\n      PUSH [tag] 367\t\t\t\n      DUP3 \t\t\t\n      DUP5 \t\t\t\n      PUSH [tag] 207\t\t\t\n      JUMP \t\t\t\n    tag 367\t\t\t\n      JUMPDEST \t\t\t\n      SWAP2 \t\t\t\n      POP \t\t\t\n      DUP2 \t\t\t\n      SWAP1 \t\t\t\n      POP \t\t\t\n      SWAP5 \t\t\t\n      SWAP4 \t\t\t\n      POP \t\t\t\n      POP \t\t\t\n      POP \t\t\t\n      POP \t\t\t\n      JUMP \t\t\t\n    tag 210\t\t\t\n      JUMPDEST \t\t\t\n      PUSH 0\t\t\t\n      DUP2 \t\t\t\n      MLOAD \t\t\t\n      SWAP1 \t\t\t\n      POP \t\t\t\n      SWAP2 \t\t\t\n      SWAP1 \t\t\t\n      POP \t\t\t\n      JUMP \t\t\t\n    tag 211\t\t\t\n      JUMPDEST \t\t\t\n      PUSH 0\t\t\t\n      DUP3 \t\t\t\n      DUP3 \t\t\t\n      MSTORE \t\t\t\n      PUSH 20\t\t\t\n      DUP3 \t\t\t\n      ADD \t\t\t\n      SWAP1 \t\t\t\n      POP \t\t\t\n      SWAP3 \t\t\t\n      SWAP2 \t\t\t\n      POP \t\t\t\n      POP \t\t\t\n      JUMP \t\t\t\n    tag 212\t\t\t\n      JUMPDEST \t\t\t\n      PUSH 0\t\t\t\n      DUP2 \t\t\t\n      SWAP1 \t\t\t\n      POP \t\t\t\n      PUSH 20\t\t\t\n      DUP3 \t\t\t\n      ADD \t\t\t\n      SWAP1 \t\t\t\n      POP \t\t\t\n      SWAP2 \t\t\t\n      SWAP1 \t\t\t\n      POP \t\t\t\n      JUMP \t\t\t\n    tag 213\t\t\t\n      JUMPDEST \t\t\t\n      PUSH 0\t\t\t\n      DUP3 \t\t\t\n      DUP3 \t\t\t\n      MSTORE \t\t\t\n      PUSH 20\t\t\t\n      DUP3 \t\t\t\n      ADD \t\t\t\n      SWAP1 \t\t\t\n      POP \t\t\t\n      SWAP3 \t\t\t\n      SWAP2 \t\t\t\n      POP \t\t\t\n      POP \t\t\t\n      JUMP \t\t\t\n    tag 214\t\t\t\n      JUMPDEST \t\t\t\n      PUSH 0\t\t\t\n      PUSH [tag] 373\t\t\t\n      DUP3 \t\t\t\n      PUSH [tag] 196\t\t\t\n      JUMP \t\t\t\n    tag 373\t\t\t\n      JUMPDEST \t\t\t\n      PUSH [tag] 374\t\t\t\n      DUP2 \t\t\t\n      DUP6 \t\t\t\n      PUSH [tag] 213\t\t\t\n      JUMP \t\t\t\n    tag 374\t\t\t\n      JUMPDEST \t\t\t\n      SWAP4 \t\t\t\n      POP \t\t\t\n      PUSH [tag] 375\t\t\t\n      DUP2 \t\t\t\n      DUP6 \t\t\t\n      PUSH 20\t\t\t\n      DUP7 \t\t\t\n      ADD \t\t\t\n      PUSH [tag] 194\t\t\t\n      JUMP \t\t\t\n    tag 375\t\t\t\n      JUMPDEST \t\t\t\n      PUSH [tag] 376\t\t\t\n      DUP2 \t\t\t\n      PUSH [tag] 185\t\t\t\n      JUMP \t\t\t\n    tag 376\t\t\t\n      JUMPDEST \t\t\t\n      DUP5 \t\t\t\n      ADD \t\t\t\n      SWAP2 \t\t\t\n      POP \t\t\t\n      POP \t\t\t\n      SWAP3 \t\t\t\n      SWAP2 \t\t\t\n      POP \t\t\t\n      POP \t\t\t\n      JUMP \t\t\t\n    tag 215\t\t\t\n      JUMPDEST \t\t\t\n      PUSH 0\t\t\t\n      PUSH [tag] 378\t\t\t\n      DUP4 \t\t\t\n      DUP4 \t\t\t\n      PUSH [tag] 214\t\t\t\n      JUMP \t\t\t\n    tag 378\t\t\t\n      JUMPDEST \t\t\t\n      SWAP1 \t\t\t\n      POP \t\t\t\n      SWAP3 \t\t\t\n      SWAP2 \t\t\t\n      POP \t\t\t\n      POP \t\t\t\n      JUMP \t\t\t\n    tag 216\t\t\t\n      JUMPDEST \t\t\t\n      PUSH 0\t\t\t\n      PUSH 20\t\t\t\n      DUP3 \t\t\t\n      ADD \t\t\t\n      SWAP1 \t\t\t\n      POP \t\t\t\n      SWAP2 \t\t\t\n      SWAP1 \t\t\t\n      POP \t\t\t\n      JUMP \t\t\t\n    tag 217\t\t\t\n      JUMPDEST \t\t\t\n      PUSH 0\t\t\t\n      PUSH [tag] 381\t\t\t\n      DUP3 \t\t\t\n      PUSH [tag] 210\t\t\t\n      JUMP \t\t\t\n    tag 381\t\t\t\n      JUMPDEST \t\t\t\n      PUSH [tag] 382\t\t\t\n      DUP2 \t\t\t\n      DUP6 \t\t\t\n      PUSH [tag] 211\t\t\t\n      JUMP \t\t\t\n    tag 382\t\t\t\n      JUMPDEST \t\t\t\n      SWAP4 \t\t\t\n      POP \t\t\t\n      DUP4 \t\t\t\n      PUSH 20\t\t\t\n      DUP3 \t\t\t\n      MUL \t\t\t\n      DUP6 \t\t\t\n      ADD \t\t\t\n      PUSH [tag] 383\t\t\t\n      DUP6 \t\t\t\n      PUSH [tag] 212\t\t\t\n      JUMP \t\t\t\n    tag 383\t\t\t\n      JUMPDEST \t\t\t\n      DUP1 \t\t\t\n      PUSH 0\t\t\t\n    tag 384\t\t\t\n      JUMPDEST \t\t\t\n      DUP6 \t\t\t\n      DUP2 \t\t\t\n      LT \t\t\t\n      ISZERO \t\t\t\n      PUSH [tag] 386\t\t\t\n      JUMPI \t\t\t\n      DUP5 \t\t\t\n      DUP5 \t\t\t\n      SUB \t\t\t\n      DUP10 \t\t\t\n      MSTORE \t\t\t\n      DUP2 \t\t\t\n      MLOAD \t\t\t\n      PUSH [tag] 387\t\t\t\n      DUP6 \t\t\t\n      DUP3 \t\t\t\n      PUSH [tag] 215\t\t\t\n      JUMP \t\t\t\n    tag 387\t\t\t\n      JUMPDEST \t\t\t\n      SWAP5 \t\t\t\n      POP \t\t\t\n      PUSH [tag] 388\t\t\t\n      DUP4 \t\t\t\n      PUSH [tag] 216\t\t\t\n      JUMP \t\t\t\n    tag 388\t\t\t\n      JUMPDEST \t\t\t\n      SWAP3 \t\t\t\n      POP \t\t\t\n      PUSH 20\t\t\t\n      DUP11 \t\t\t\n      ADD \t\t\t\n      SWAP10 \t\t\t\n      POP \t\t\t\n      POP \t\t\t\n      PUSH 1\t\t\t\n      DUP2 \t\t\t\n      ADD \t\t\t\n      SWAP1 \t\t\t\n      POP \t\t\t\n      PUSH [tag] 384\t\t\t\n      JUMP \t\t\t\n    tag 386\t\t\t\n      JUMPDEST \t\t\t\n      POP \t\t\t\n      DUP3 \t\t\t\n      SWAP8 \t\t\t\n      POP \t\t\t\n      DUP8 \t\t\t\n      SWAP6 \t\t\t\n      POP \t\t\t\n      POP \t\t\t\n      POP \t\t\t\n      POP \t\t\t\n      POP \t\t\t\n      POP \t\t\t\n      SWAP3 \t\t\t\n      SWAP2 \t\t\t\n      POP \t\t\t\n      POP \t\t\t\n      JUMP \t\t\t\n    tag 218\t\t\t\n      JUMPDEST \t\t\t\n      PUSH 0\t\t\t\n      DUP2 \t\t\t\n      MLOAD \t\t\t\n      SWAP1 \t\t\t\n      POP \t\t\t\n      SWAP2 \t\t\t\n      SWAP1 \t\t\t\n      POP \t\t\t\n      JUMP \t\t\t\n    tag 219\t\t\t\n      JUMPDEST \t\t\t\n      PUSH 0\t\t\t\n      DUP3 \t\t\t\n      DUP3 \t\t\t\n      MSTORE \t\t\t\n      PUSH 20\t\t\t\n      DUP3 \t\t\t\n      ADD \t\t\t\n      SWAP1 \t\t\t\n      POP \t\t\t\n      SWAP3 \t\t\t\n      SWAP2 \t\t\t\n      POP \t\t\t\n      POP \t\t\t\n      JUMP \t\t\t\n    tag 220\t\t\t\n      JUMPDEST \t\t\t\n      PUSH 0\t\t\t\n      DUP2 \t\t\t\n      SWAP1 \t\t\t\n      POP \t\t\t\n      PUSH 20\t\t\t\n      DUP3 \t\t\t\n      ADD \t\t\t\n      SWAP1 \t\t\t\n      POP \t\t\t\n      SWAP2 \t\t\t\n      SWAP1 \t\t\t\n      POP \t\t\t\n      JUMP \t\t\t\n    tag 221\t\t\t\n      JUMPDEST \t\t\t\n      PUSH 0\t\t\t\n      DUP2 \t\t\t\n      MLOAD \t\t\t\n      SWAP1 \t\t\t\n      POP \t\t\t\n      SWAP2 \t\t\t\n      SWAP1 \t\t\t\n      POP \t\t\t\n      JUMP \t\t\t\n    tag 222\t\t\t\n      JUMPDEST \t\t\t\n      PUSH 0\t\t\t\n      DUP3 \t\t\t\n      DUP3 \t\t\t\n      MSTORE \t\t\t\n      PUSH 20\t\t\t\n      DUP3 \t\t\t\n      ADD \t\t\t\n      SWAP1 \t\t\t\n      POP \t\t\t\n      SWAP3 \t\t\t\n      SWAP2 \t\t\t\n      POP \t\t\t\n      POP \t\t\t\n      JUMP \t\t\t\n    tag 223\t\t\t\n      JUMPDEST \t\t\t\n      PUSH 0\t\t\t\n      DUP2 \t\t\t\n      SWAP1 \t\t\t\n      POP \t\t\t\n      PUSH 20\t\t\t\n      DUP3 \t\t\t\n      ADD \t\t\t\n      SWAP1 \t\t\t\n      POP \t\t\t\n      SWAP2 \t\t\t\n      SWAP1 \t\t\t\n      POP \t\t\t\n      JUMP \t\t\t\n    tag 224\t\t\t\n      JUMPDEST \t\t\t\n      PUSH 0\t\t\t\n      PUSH FFFFFFFF\t\t\t\n      DUP3 \t\t\t\n      AND \t\t\t\n      SWAP1 \t\t\t\n      POP \t\t\t\n      SWAP2 \t\t\t\n      SWAP1 \t\t\t\n      POP \t\t\t\n      JUMP \t\t\t\n    tag 225\t\t\t\n      JUMPDEST \t\t\t\n      PUSH [tag] 397\t\t\t\n      DUP2 \t\t\t\n      PUSH [tag] 224\t\t\t\n      JUMP \t\t\t\n    tag 397\t\t\t\n      JUMPDEST \t\t\t\n      DUP3 \t\t\t\n      MSTORE \t\t\t\n      POP \t\t\t\n      POP \t\t\t\n      JUMP \t\t\t\n    tag 226\t\t\t\n      JUMPDEST \t\t\t\n      PUSH 0\t\t\t\n      PUSH [tag] 399\t\t\t\n      DUP4 \t\t\t\n      DUP4 \t\t\t\n      PUSH [tag] 225\t\t\t\n      JUMP \t\t\t\n    tag 399\t\t\t\n      JUMPDEST \t\t\t\n      PUSH 20\t\t\t\n      DUP4 \t\t\t\n      ADD \t\t\t\n      SWAP1 \t\t\t\n      POP \t\t\t\n      SWAP3 \t\t\t\n      SWAP2 \t\t\t\n      POP \t\t\t\n      POP \t\t\t\n      JUMP \t\t\t\n    tag 227\t\t\t\n      JUMPDEST \t\t\t\n      PUSH 0\t\t\t\n      PUSH 20\t\t\t\n      DUP3 \t\t\t\n      ADD \t\t\t\n      SWAP1 \t\t\t\n      POP \t\t\t\n      SWAP2 \t\t\t\n      SWAP1 \t\t\t\n      POP \t\t\t\n      JUMP \t\t\t\n    tag 228\t\t\t\n      JUMPDEST \t\t\t\n      PUSH 0\t\t\t\n      PUSH [tag] 402\t\t\t\n      DUP3 \t\t\t\n      PUSH [tag] 221\t\t\t\n      JUMP \t\t\t\n    tag 402\t\t\t\n      JUMPDEST \t\t\t\n      PUSH [tag] 403\t\t\t\n      DUP2 \t\t\t\n      DUP6 \t\t\t\n      PUSH [tag] 222\t\t\t\n      JUMP \t\t\t\n    tag 403\t\t\t\n      JUMPDEST \t\t\t\n      SWAP4 \t\t\t\n      POP \t\t\t\n      PUSH [tag] 404\t\t\t\n      DUP4 \t\t\t\n      PUSH [tag] 223\t\t\t\n      JUMP \t\t\t\n    tag 404\t\t\t\n      JUMPDEST \t\t\t\n      DUP1 \t\t\t\n      PUSH 0\t\t\t\n    tag 405\t\t\t\n      JUMPDEST \t\t\t\n      DUP4 \t\t\t\n      DUP2 \t\t\t\n      LT \t\t\t\n      ISZERO \t\t\t\n      PUSH [tag] 407\t\t\t\n      JUMPI \t\t\t\n      DUP2 \t\t\t\n      MLOAD \t\t\t\n      PUSH [tag] 408\t\t\t\n      DUP9 \t\t\t\n      DUP3 \t\t\t\n      PUSH [tag] 226\t\t\t\n      JUMP \t\t\t\n    tag 408\t\t\t\n      JUMPDEST \t\t\t\n      SWAP8 \t\t\t\n      POP \t\t\t\n      PUSH [tag] 409\t\t\t\n      DUP4 \t\t\t\n      PUSH [tag] 227\t\t\t\n      JUMP \t\t\t\n    tag 409\t\t\t\n      JUMPDEST \t\t\t\n      SWAP3 \t\t\t\n      POP \t\t\t\n      POP \t\t\t\n      PUSH 1\t\t\t\n      DUP2 \t\t\t\n      ADD \t\t\t\n      SWAP1 \t\t\t\n      POP \t\t\t\n      PUSH [tag] 405\t\t\t\n      JUMP \t\t\t\n    tag 407\t\t\t\n      JUMPDEST \t\t\t\n      POP \t\t\t\n      DUP6 \t\t\t\n      SWAP4 \t\t\t\n      POP \t\t\t\n      POP \t\t\t\n      POP \t\t\t\n      POP \t\t\t\n      SWAP3 \t\t\t\n      SWAP2 \t\t\t\n      POP \t\t\t\n      POP \t\t\t\n      JUMP \t\t\t\n    tag 229\t\t\t\n      JUMPDEST \t\t\t\n      PUSH 0\t\t\t\n      DUP2 \t\t\t\n      MLOAD \t\t\t\n      SWAP1 \t\t\t\n      POP \t\t\t\n      SWAP2 \t\t\t\n      SWAP1 \t\t\t\n      POP \t\t\t\n      JUMP \t\t\t\n    tag 230\t\t\t\n      JUMPDEST \t\t\t\n      PUSH 0\t\t\t\n      DUP3 \t\t\t\n      DUP3 \t\t\t\n      MSTORE \t\t\t\n      PUSH 20\t\t\t\n      DUP3 \t\t\t\n      ADD \t\t\t\n      SWAP1 \t\t\t\n      POP \t\t\t\n      SWAP3 \t\t\t\n      SWAP2 \t\t\t\n      POP \t\t\t\n      POP \t\t\t\n      JUMP \t\t\t\n    tag 231\t\t\t\n      JUMPDEST \t\t\t\n      PUSH 0\t\t\t\n      DUP2 \t\t\t\n      SWAP1 \t\t\t\n      POP \t\t\t\n      PUSH 20\t\t\t\n      DUP3 \t\t\t\n      ADD \t\t\t\n      SWAP1 \t\t\t\n      POP \t\t\t\n      SWAP2 \t\t\t\n      SWAP1 \t\t\t\n      POP \t\t\t\n      JUMP \t\t\t\n    tag 232\t\t\t\n      JUMPDEST \t\t\t\n      PUSH 0\t\t\t\n      DUP2 \t\t\t\n      ISZERO \t\t\t\n      ISZERO \t\t\t\n      SWAP1 \t\t\t\n      POP \t\t\t\n      SWAP2 \t\t\t\n      SWAP1 \t\t\t\n      POP \t\t\t\n      JUMP \t\t\t\n    tag 233\t\t\t\n      JUMPDEST \t\t\t\n      PUSH [tag] 415\t\t\t\n      DUP2 \t\t\t\n      PUSH [tag] 232\t\t\t\n      JUMP \t\t\t\n    tag 415\t\t\t\n      JUMPDEST \t\t\t\n      DUP3 \t\t\t\n      MSTORE \t\t\t\n      POP \t\t\t\n      POP \t\t\t\n      JUMP \t\t\t\n    tag 234\t\t\t\n      JUMPDEST \t\t\t\n      PUSH A0\t\t\t\n      DUP3 \t\t\t\n      ADD \t\t\t\n      PUSH 0\t\t\t\n      DUP3 \t\t\t\n      ADD \t\t\t\n      MLOAD \t\t\t\n      PUSH [tag] 417\t\t\t\n      PUSH 0\t\t\t\n      DUP6 \t\t\t\n      ADD \t\t\t\n      DUP3 \t\t\t\n      PUSH [tag] 225\t\t\t\n      JUMP \t\t\t\n    tag 417\t\t\t\n      JUMPDEST \t\t\t\n      POP \t\t\t\n      PUSH 20\t\t\t\n      DUP3 \t\t\t\n      ADD \t\t\t\n      MLOAD \t\t\t\n      PUSH [tag] 418\t\t\t\n      PUSH 20\t\t\t\n      DUP6 \t\t\t\n      ADD \t\t\t\n      DUP3 \t\t\t\n      PUSH [tag] 225\t\t\t\n      JUMP \t\t\t\n    tag 418\t\t\t\n      JUMPDEST \t\t\t\n      POP \t\t\t\n      PUSH 40\t\t\t\n      DUP3 \t\t\t\n      ADD \t\t\t\n      MLOAD \t\t\t\n      PUSH [tag] 419\t\t\t\n      PUSH 40\t\t\t\n      DUP6 \t\t\t\n      ADD \t\t\t\n      DUP3 \t\t\t\n      PUSH [tag] 225\t\t\t\n      JUMP \t\t\t\n    tag 419\t\t\t\n      JUMPDEST \t\t\t\n      POP \t\t\t\n      PUSH 60\t\t\t\n      DUP3 \t\t\t\n      ADD \t\t\t\n      MLOAD \t\t\t\n      PUSH [tag] 420\t\t\t\n      PUSH 60\t\t\t\n      DUP6 \t\t\t\n      ADD \t\t\t\n      DUP3 \t\t\t\n      PUSH [tag] 233\t\t\t\n      JUMP \t\t\t\n    tag 420\t\t\t\n      JUMPDEST \t\t\t\n      POP \t\t\t\n      PUSH 80\t\t\t\n      DUP3 \t\t\t\n      ADD \t\t\t\n      MLOAD \t\t\t\n      PUSH [tag] 421\t\t\t\n      PUSH 80\t\t\t\n      DUP6 \t\t\t\n      ADD \t\t\t\n      DUP3 \t\t\t\n      PUSH [tag] 233\t\t\t\n      JUMP \t\t\t\n    tag 421\t\t\t\n      JUMPDEST \t\t\t\n      POP \t\t\t\n      POP \t\t\t\n      POP \t\t\t\n      POP \t\t\t\n      JUMP \t\t\t\n    tag 235\t\t\t\n      JUMPDEST \t\t\t\n      PUSH 0\t\t\t\n      PUSH [tag] 423\t\t\t\n      DUP4 \t\t\t\n      DUP4 \t\t\t\n      PUSH [tag] 234\t\t\t\n      JUMP \t\t\t\n    tag 423\t\t\t\n      JUMPDEST \t\t\t\n      PUSH A0\t\t\t\n      DUP4 \t\t\t\n      ADD \t\t\t\n      SWAP1 \t\t\t\n      POP \t\t\t\n      SWAP3 \t\t\t\n      SWAP2 \t\t\t\n      POP \t\t\t\n      POP \t\t\t\n      JUMP \t\t\t\n    tag 236\t\t\t\n      JUMPDEST \t\t\t\n      PUSH 0\t\t\t\n      PUSH 20\t\t\t\n      DUP3 \t\t\t\n      ADD \t\t\t\n      SWAP1 \t\t\t\n      POP \t\t\t\n      SWAP2 \t\t\t\n      SWAP1 \t\t\t\n      POP \t\t\t\n      JUMP \t\t\t\n    tag 237\t\t\t\n      JUMPDEST \t\t\t\n      PUSH 0\t\t\t\n      PUSH [tag] 426\t\t\t\n      DUP3 \t\t\t\n      PUSH [tag] 229\t\t\t\n      JUMP \t\t\t\n    tag 426\t\t\t\n      JUMPDEST \t\t\t\n      PUSH [tag] 427\t\t\t\n      DUP2 \t\t\t\n      DUP6 \t\t\t\n      PUSH [tag] 230\t\t\t\n      JUMP \t\t\t\n    tag 427\t\t\t\n      JUMPDEST \t\t\t\n      SWAP4 \t\t\t\n      POP \t\t\t\n      PUSH [tag] 428\t\t\t\n      DUP4 \t\t\t\n      PUSH [tag] 231\t\t\t\n      JUMP \t\t\t\n    tag 428\t\t\t\n      JUMPDEST \t\t\t\n      DUP1 \t\t\t\n      PUSH 0\t\t\t\n    tag 429\t\t\t\n      JUMPDEST \t\t\t\n      DUP4 \t\t\t\n      DUP2 \t\t\t\n      LT \t\t\t\n      ISZERO \t\t\t\n      PUSH [tag] 431\t\t\t\n      JUMPI \t\t\t\n      DUP2 \t\t\t\n      MLOAD \t\t\t\n      PUSH [tag] 432\t\t\t\n      DUP9 \t\t\t\n      DUP3 \t\t\t\n      PUSH [tag] 235\t\t\t\n      JUMP \t\t\t\n    tag 432\t\t\t\n      JUMPDEST \t\t\t\n      SWAP8 \t\t\t\n      POP \t\t\t\n      PUSH [tag] 433\t\t\t\n      DUP4 \t\t\t\n      PUSH [tag] 236\t\t\t\n      JUMP \t\t\t\n    tag 433\t\t\t\n      JUMPDEST \t\t\t\n      SWAP3 \t\t\t\n      POP \t\t\t\n      POP \t\t\t\n      PUSH 1\t\t\t\n      DUP2 \t\t\t\n      ADD \t\t\t\n      SWAP1 \t\t\t\n      POP \t\t\t\n      PUSH [tag] 429\t\t\t\n      JUMP \t\t\t\n    tag 431\t\t\t\n      JUMPDEST \t\t\t\n      POP \t\t\t\n      DUP6 \t\t\t\n      SWAP4 \t\t\t\n      POP \t\t\t\n      POP \t\t\t\n      POP \t\t\t\n      POP \t\t\t\n      SWAP3 \t\t\t\n      SWAP2 \t\t\t\n      POP \t\t\t\n      POP \t\t\t\n      JUMP \t\t\t\n    tag 238\t\t\t\n      JUMPDEST \t\t\t\n      PUSH 0\t\t\t\n      DUP3 \t\t\t\n      DUP3 \t\t\t\n      MSTORE \t\t\t\n      PUSH 20\t\t\t\n      DUP3 \t\t\t\n      ADD \t\t\t\n      SWAP1 \t\t\t\n      POP \t\t\t\n      SWAP3 \t\t\t\n      SWAP2 \t\t\t\n      POP \t\t\t\n      POP \t\t\t\n      JUMP \t\t\t\n    tag 239\t\t\t\n      JUMPDEST \t\t\t\n      PUSH 0\t\t\t\n      PUSH [tag] 436\t\t\t\n      DUP3 \t\t\t\n      PUSH [tag] 192\t\t\t\n      JUMP \t\t\t\n    tag 436\t\t\t\n      JUMPDEST \t\t\t\n      PUSH [tag] 437\t\t\t\n      DUP2 \t\t\t\n      DUP6 \t\t\t\n      PUSH [tag] 238\t\t\t\n      JUMP \t\t\t\n    tag 437\t\t\t\n      JUMPDEST \t\t\t\n      SWAP4 \t\t\t\n      POP \t\t\t\n      PUSH [tag] 438\t\t\t\n      DUP2 \t\t\t\n      DUP6 \t\t\t\n      PUSH 20\t\t\t\n      DUP7 \t\t\t\n      ADD \t\t\t\n      PUSH [tag] 194\t\t\t\n      JUMP \t\t\t\n    tag 438\t\t\t\n      JUMPDEST \t\t\t\n      PUSH [tag] 439\t\t\t\n      DUP2 \t\t\t\n      PUSH [tag] 185\t\t\t\n      JUMP \t\t\t\n    tag 439\t\t\t\n      JUMPDEST \t\t\t\n      DUP5 \t\t\t\n      ADD \t\t\t\n      SWAP2 \t\t\t\n      POP \t\t\t\n      POP \t\t\t\n      SWAP3 \t\t\t\n      SWAP2 \t\t\t\n      POP \t\t\t\n      POP \t\t\t\n      JUMP \t\t\t\n    tag 240\t\t\t\n      JUMPDEST \t\t\t\n      PUSH 0\t\t\t\n      PUSH 60\t\t\t\n      DUP4 \t\t\t\n      ADD \t\t\t\n      PUSH 0\t\t\t\n      DUP4 \t\t\t\n      ADD \t\t\t\n      MLOAD \t\t\t\n      DUP5 \t\t\t\n      DUP3 \t\t\t\n      SUB \t\t\t\n      PUSH 0\t\t\t\n      DUP7 \t\t\t\n      ADD \t\t\t\n      MSTORE \t\t\t\n      PUSH [tag] 441\t\t\t\n      DUP3 \t\t\t\n      DUP3 \t\t\t\n      PUSH [tag] 228\t\t\t\n      JUMP \t\t\t\n    tag 441\t\t\t\n      JUMPDEST \t\t\t\n      SWAP2 \t\t\t\n      POP \t\t\t\n      POP \t\t\t\n      PUSH 20\t\t\t\n      DUP4 \t\t\t\n      ADD \t\t\t\n      MLOAD \t\t\t\n      DUP5 \t\t\t\n      DUP3 \t\t\t\n      SUB \t\t\t\n      PUSH 20\t\t\t\n      DUP7 \t\t\t\n      ADD \t\t\t\n      MSTORE \t\t\t\n      PUSH [tag] 442\t\t\t\n      DUP3 \t\t\t\n      DUP3 \t\t\t\n      PUSH [tag] 237\t\t\t\n      JUMP \t\t\t\n    tag 442\t\t\t\n      JUMPDEST \t\t\t\n      SWAP2 \t\t\t\n      POP \t\t\t\n      POP \t\t\t\n      PUSH 40\t\t\t\n      DUP4 \t\t\t\n      ADD \t\t\t\n      MLOAD \t\t\t\n      DUP5 \t\t\t\n      DUP3 \t\t\t\n      SUB \t\t\t\n      PUSH 40\t\t\t\n      DUP7 \t\t\t\n      ADD \t\t\t\n      MSTORE \t\t\t\n      PUSH [tag] 443\t\t\t\n      DUP3 \t\t\t\n      DUP3 \t\t\t\n      PUSH [tag] 239\t\t\t\n      JUMP \t\t\t\n    tag 443\t\t\t\n      JUMPDEST \t\t\t\n      SWAP2 \t\t\t\n      POP \t\t\t\n      POP \t\t\t\n      DUP1 \t\t\t\n      SWAP2 \t\t\t\n      POP \t\t\t\n      POP \t\t\t\n      SWAP3 \t\t\t\n      SWAP2 \t\t\t\n      POP \t\t\t\n      POP \t\t\t\n      JUMP \t\t\t\n    tag 241\t\t\t\n      JUMPDEST \t\t\t\n      PUSH 0\t\t\t\n      PUSH [tag] 445\t\t\t\n      DUP4 \t\t\t\n      DUP4 \t\t\t\n      PUSH [tag] 240\t\t\t\n      JUMP \t\t\t\n    tag 445\t\t\t\n      JUMPDEST \t\t\t\n      SWAP1 \t\t\t\n      POP \t\t\t\n      SWAP3 \t\t\t\n      SWAP2 \t\t\t\n      POP \t\t\t\n      POP \t\t\t\n      JUMP \t\t\t\n    tag 242\t\t\t\n      JUMPDEST \t\t\t\n      PUSH 0\t\t\t\n      PUSH 20\t\t\t\n      DUP3 \t\t\t\n      ADD \t\t\t\n      SWAP1 \t\t\t\n      POP \t\t\t\n      SWAP2 \t\t\t\n      SWAP1 \t\t\t\n      POP \t\t\t\n      JUMP \t\t\t\n    tag 243\t\t\t\n      JUMPDEST \t\t\t\n      PUSH 0\t\t\t\n      PUSH [tag] 448\t\t\t\n      DUP3 \t\t\t\n      PUSH [tag] 218\t\t\t\n      JUMP \t\t\t\n    tag 448\t\t\t\n      JUMPDEST \t\t\t\n      PUSH [tag] 449\t\t\t\n      DUP2 \t\t\t\n      DUP6 \t\t\t\n      PUSH [tag] 219\t\t\t\n      JUMP \t\t\t\n    tag 449\t\t\t\n      JUMPDEST \t\t\t\n      SWAP4 \t\t\t\n      POP \t\t\t\n      DUP4 \t\t\t\n      PUSH 20\t\t\t\n      DUP3 \t\t\t\n      MUL \t\t\t\n      DUP6 \t\t\t\n      ADD \t\t\t\n      PUSH [tag] 450\t\t\t\n      DUP6 \t\t\t\n      PUSH [tag] 220\t\t\t\n      JUMP \t\t\t\n    tag 450\t\t\t\n      JUMPDEST \t\t\t\n      DUP1 \t\t\t\n      PUSH 0\t\t\t\n    tag 451\t\t\t\n      JUMPDEST \t\t\t\n      DUP6 \t\t\t\n      DUP2 \t\t\t\n      LT \t\t\t\n      ISZERO \t\t\t\n      PUSH [tag] 453\t\t\t\n      JUMPI \t\t\t\n      DUP5 \t\t\t\n      DUP5 \t\t\t\n      SUB \t\t\t\n      DUP10 \t\t\t\n      MSTORE \t\t\t\n      DUP2 \t\t\t\n      MLOAD \t\t\t\n      PUSH [tag] 454\t\t\t\n      DUP6 \t\t\t\n      DUP3 \t\t\t\n      PUSH [tag] 241\t\t\t\n      JUMP \t\t\t\n    tag 454\t\t\t\n      JUMPDEST \t\t\t\n      SWAP5 \t\t\t\n      POP \t\t\t\n      PUSH [tag] 455\t\t\t\n      DUP4 \t\t\t\n      PUSH [tag] 242\t\t\t\n      JUMP \t\t\t\n    tag 455\t\t\t\n      JUMPDEST \t\t\t\n      SWAP3 \t\t\t\n      POP \t\t\t\n      PUSH 20\t\t\t\n      DUP11 \t\t\t\n      ADD \t\t\t\n      SWAP10 \t\t\t\n      POP \t\t\t\n      POP \t\t\t\n      PUSH 1\t\t\t\n      DUP2 \t\t\t\n      ADD \t\t\t\n      SWAP1 \t\t\t\n      POP \t\t\t\n      PUSH [tag] 451\t\t\t\n      JUMP \t\t\t\n    tag 453\t\t\t\n      JUMPDEST \t\t\t\n      POP \t\t\t\n      DUP3 \t\t\t\n      SWAP8 \t\t\t\n      POP \t\t\t\n      DUP8 \t\t\t\n      SWAP6 \t\t\t\n      POP \t\t\t\n      POP \t\t\t\n      POP \t\t\t\n      POP \t\t\t\n      POP \t\t\t\n      POP \t\t\t\n      SWAP3 \t\t\t\n      SWAP2 \t\t\t\n      POP \t\t\t\n      POP \t\t\t\n      JUMP \t\t\t\n    tag 244\t\t\t\n      JUMPDEST \t\t\t\n      PUSH 0\t\t\t\n      PUSH FFFFFFFFFFFFFFFF\t\t\t\n      DUP3 \t\t\t\n      AND \t\t\t\n      SWAP1 \t\t\t\n      POP \t\t\t\n      SWAP2 \t\t\t\n      SWAP1 \t\t\t\n      POP \t\t\t\n      JUMP \t\t\t\n    tag 245\t\t\t\n      JUMPDEST \t\t\t\n      PUSH [tag] 458\t\t\t\n      DUP2 \t\t\t\n      PUSH [tag] 244\t\t\t\n      JUMP \t\t\t\n    tag 458\t\t\t\n      JUMPDEST \t\t\t\n      DUP3 \t\t\t\n      MSTORE \t\t\t\n      POP \t\t\t\n      POP \t\t\t\n      JUMP \t\t\t\n    tag 246\t\t\t\n      JUMPDEST \t\t\t\n      PUSH 0\t\t\t\n      PUSH 80\t\t\t\n      DUP4 \t\t\t\n      ADD \t\t\t\n      PUSH 0\t\t\t\n      DUP4 \t\t\t\n      ADD \t\t\t\n      MLOAD \t\t\t\n      DUP5 \t\t\t\n      DUP3 \t\t\t\n      SUB \t\t\t\n      PUSH 0\t\t\t\n      DUP7 \t\t\t\n      ADD \t\t\t\n      MSTORE \t\t\t\n      PUSH [tag] 460\t\t\t\n      DUP3 \t\t\t\n      DUP3 \t\t\t\n      PUSH [tag] 217\t\t\t\n      JUMP \t\t\t\n    tag 460\t\t\t\n      JUMPDEST \t\t\t\n      SWAP2 \t\t\t\n      POP \t\t\t\n      POP \t\t\t\n      PUSH 20\t\t\t\n      DUP4 \t\t\t\n      ADD \t\t\t\n      MLOAD \t\t\t\n      DUP5 \t\t\t\n      DUP3 \t\t\t\n      SUB \t\t\t\n      PUSH 20\t\t\t\n      DUP7 \t\t\t\n      ADD \t\t\t\n      MSTORE \t\t\t\n      PUSH [tag] 461\t\t\t\n      DUP3 \t\t\t\n      DUP3 \t\t\t\n      PUSH [tag] 217\t\t\t\n      JUMP \t\t\t\n    tag 461\t\t\t\n      JUMPDEST \t\t\t\n      SWAP2 \t\t\t\n      POP \t\t\t\n      POP \t\t\t\n      PUSH 40\t\t\t\n      DUP4 \t\t\t\n      ADD \t\t\t\n      MLOAD \t\t\t\n      DUP5 \t\t\t\n      DUP3 \t\t\t\n      SUB \t\t\t\n      PUSH 40\t\t\t\n      DUP7 \t\t\t\n      ADD \t\t\t\n      MSTORE \t\t\t\n      PUSH [tag] 462\t\t\t\n      DUP3 \t\t\t\n      DUP3 \t\t\t\n      PUSH [tag] 243\t\t\t\n      JUMP \t\t\t\n    tag 462\t\t\t\n      JUMPDEST \t\t\t\n      SWAP2 \t\t\t\n      POP \t\t\t\n      POP \t\t\t\n      PUSH 60\t\t\t\n      DUP4 \t\t\t\n      ADD \t\t\t\n      MLOAD \t\t\t\n      PUSH [tag] 463\t\t\t\n      PUSH 60\t\t\t\n      DUP7 \t\t\t\n      ADD \t\t\t\n      DUP3 \t\t\t\n      PUSH [tag] 245\t\t\t\n      JUMP \t\t\t\n    tag 463\t\t\t\n      JUMPDEST \t\t\t\n      POP \t\t\t\n      DUP1 \t\t\t\n      SWAP2 \t\t\t\n      POP \t\t\t\n      POP \t\t\t\n      SWAP3 \t\t\t\n      SWAP2 \t\t\t\n      POP \t\t\t\n      POP \t\t\t\n      JUMP \t\t\t\n    tag 93\t\t\t\n      JUMPDEST \t\t\t\n      PUSH 0\t\t\t\n      PUSH 20\t\t\t\n      DUP3 \t\t\t\n      ADD \t\t\t\n      SWAP1 \t\t\t\n      POP \t\t\t\n      DUP2 \t\t\t\n      DUP2 \t\t\t\n      SUB \t\t\t\n      PUSH 0\t\t\t\n      DUP4 \t\t\t\n      ADD \t\t\t\n      MSTORE \t\t\t\n      PUSH [tag] 465\t\t\t\n      DUP2 \t\t\t\n      DUP5 \t\t\t\n      PUSH [tag] 246\t\t\t\n      JUMP \t\t\t\n    tag 465\t\t\t\n      JUMPDEST \t\t\t\n      SWAP1 \t\t\t\n      POP \t\t\t\n      SWAP3 \t\t\t\n      SWAP2 \t\t\t\n      POP \t\t\t\n      POP \t\t\t\n      JUMP \t\t\t\n    tag 95\t\t\t\n      JUMPDEST \t\t\t\n      PUSH 0\t\t\t\n      PUSH [tag] 467\t\t\t\n      DUP3 \t\t\t\n      DUP5 \t\t\t\n      PUSH [tag] 207\t\t\t\n      JUMP \t\t\t\n    tag 467\t\t\t\n      JUMPDEST \t\t\t\n      SWAP2 \t\t\t\n      POP \t\t\t\n      DUP2 \t\t\t\n      SWAP1 \t\t\t\n      POP \t\t\t\n      SWAP3 \t\t\t\n      SWAP2 \t\t\t\n      POP \t\t\t\n      POP \t\t\t\n      JUMP \t\t\t\n    tag 247\t\t\t\n      JUMPDEST \t\t\t\n      PUSH 63616C6C206D7573742073756363656564000000000000000000000000000000\t\t\t\n      PUSH 0\t\t\t\n      DUP3 \t\t\t\n      ADD \t\t\t\n      MSTORE \t\t\t\n      POP \t\t\t\n      JUMP \t\t\t\n    tag 248\t\t\t\n      JUMPDEST \t\t\t\n      PUSH 0\t\t\t\n      PUSH [tag] 470\t\t\t\n      PUSH 11\t\t\t\n      DUP4 \t\t\t\n      PUSH [tag] 197\t\t\t\n      JUMP \t\t\t\n    tag 470\t\t\t\n      JUMPDEST \t\t\t\n      SWAP2 \t\t\t\n      POP \t\t\t\n      PUSH [tag] 471\t\t\t\n      DUP3 \t\t\t\n      PUSH [tag] 247\t\t\t\n      JUMP \t\t\t\n    tag 471\t\t\t\n      JUMPDEST \t\t\t\n      PUSH 20\t\t\t\n      DUP3 \t\t\t\n      ADD \t\t\t\n      SWAP1 \t\t\t\n      POP \t\t\t\n      SWAP2 \t\t\t\n      SWAP1 \t\t\t\n      POP \t\t\t\n      JUMP \t\t\t\n    tag 101\t\t\t\n      JUMPDEST \t\t\t\n      PUSH 0\t\t\t\n      PUSH 20\t\t\t\n      DUP3 \t\t\t\n      ADD \t\t\t\n      SWAP1 \t\t\t\n      POP \t\t\t\n      DUP2 \t\t\t\n      DUP2 \t\t\t\n      SUB \t\t\t\n      PUSH 0\t\t\t\n      DUP4 \t\t\t\n      ADD \t\t\t\n      MSTORE \t\t\t\n      PUSH [tag] 473\t\t\t\n      DUP2 \t\t\t\n      PUSH [tag] 248\t\t\t\n      JUMP \t\t\t\n    tag 473\t\t\t\n      JUMPDEST \t\t\t\n      SWAP1 \t\t\t\n      POP \t\t\t\n      SWAP2 \t\t\t\n      SWAP1 \t\t\t\n      POP \t\t\t\n      JUMP \t\t\t\n    tag 249\t\t\t\n      JUMPDEST \t\t\t\n      PUSH 4E487B7100000000000000000000000000000000000000000000000000000000\t\t\t\n      PUSH 0\t\t\t\n      MSTORE \t\t\t\n      PUSH 22\t\t\t\n      PUSH 4\t\t\t\n      MSTORE \t\t\t\n      PUSH 24\t\t\t\n      PUSH 0\t\t\t\n      REVERT \t\t\t\n    tag 103\t\t\t\n      JUMPDEST \t\t\t\n      PUSH 0\t\t\t\n      PUSH 2\t\t\t\n      DUP3 \t\t\t\n      DIV \t\t\t\n      SWAP1 \t\t\t\n      POP \t\t\t\n      PUSH 1\t\t\t\n      DUP3 \t\t\t\n      AND \t\t\t\n      DUP1 \t\t\t\n      PUSH [tag] 476\t\t\t\n      JUMPI \t\t\t\n      PUSH 7F\t\t\t\n      DUP3 \t\t\t\n      AND \t\t\t\n      SWAP2 \t\t\t\n      POP \t\t\t\n    tag 476\t\t\t\n      JUMPDEST \t\t\t\n      PUSH 20\t\t\t\n      DUP3 \t\t\t\n      LT \t\t\t\n      DUP2 \t\t\t\n      SUB \t\t\t\n      PUSH [tag] 477\t\t\t\n      JUMPI \t\t\t\n      PUSH [tag] 478\t\t\t\n      PUSH [tag] 249\t\t\t\n      JUMP \t\t\t\n    tag 478\t\t\t\n      JUMPDEST \t\t\t\n    tag 477\t\t\t\n      JUMPDEST \t\t\t\n      POP \t\t\t\n      SWAP2 \t\t\t\n      SWAP1 \t\t\t\n      POP \t\t\t\n      JUMP \t\t\t\n    tag 250\t\t\t\n      JUMPDEST \t\t\t\n      PUSH 0\t\t\t\n      DUP2 \t\t\t\n      SWAP1 \t\t\t\n      POP \t\t\t\n      DUP2 \t\t\t\n      PUSH 0\t\t\t\n      MSTORE \t\t\t\n      PUSH 20\t\t\t\n      PUSH 0\t\t\t\n      KECCAK256 \t\t\t\n      SWAP1 \t\t\t\n      POP \t\t\t\n      SWAP2 \t\t\t\n      SWAP1 \t\t\t\n      POP \t\t\t\n      JUMP \t\t\t\n    tag 251\t\t\t\n      JUMPDEST \t\t\t\n      PUSH 0\t\t\t\n      PUSH 20\t\t\t\n      PUSH 1F\t\t\t\n      DUP4 \t\t\t\n      ADD \t\t\t\n      DIV \t\t\t\n      SWAP1 \t\t\t\n      POP \t\t\t\n      SWAP2 \t\t\t\n      SWAP1 \t\t\t\n      POP \t\t\t\n      JUMP \t\t\t\n    tag 252\t\t\t\n      JUMPDEST \t\t\t\n      PUSH 0\t\t\t\n      DUP3 \t\t\t\n      DUP3 \t\t\t\n      SHL \t\t\t\n      SWAP1 \t\t\t\n      POP \t\t\t\n      SWAP3 \t\t\t\n      SWAP2 \t\t\t\n      POP \t\t\t\n      POP \t\t\t\n      JUMP \t\t\t\n    tag 253\t\t\t\n      JUMPDEST \t\t\t\n      PUSH 0\t\t\t\n      PUSH 8\t\t\t\n      DUP4 \t\t\t\n      MUL \t\t\t\n      PUSH [tag] 483\t\t\t\n      PUSH FFFFFFFFFFFFFFFFFFFFFFFFFFFFFFFFFFFFFFFFFFFFFFFFFFFFFFFFFFFFFFFF\t\t\t\n      DUP3 \t\t\t\n      PUSH [tag] 252\t\t\t\n      JUMP \t\t\t\n    tag 483\t\t\t\n      JUMPDEST \t\t\t\n      PUSH [tag] 484\t\t\t\n      DUP7 \t\t\t\n      DUP4 \t\t\t\n      PUSH [tag] 252\t\t\t\n      JUMP \t\t\t\n    tag 484\t\t\t\n      JUMPDEST \t\t\t\n      SWAP6 \t\t\t\n      POP \t\t\t\n      DUP1 \t\t\t\n      NOT \t\t\t\n      DUP5 \t\t\t\n      AND \t\t\t\n      SWAP4 \t\t\t\n      POP \t\t\t\n      DUP1 \t\t\t\n      DUP7 \t\t\t\n      AND \t\t\t\n      DUP5 \t\t\t\n      OR \t\t\t\n      SWAP3 \t\t\t\n      POP \t\t\t\n      POP \t\t\t\n      POP \t\t\t\n      SWAP4 \t\t\t\n      SWAP3 \t\t\t\n      POP \t\t\t\n      POP \t\t\t\n      POP \t\t\t\n      JUMP \t\t\t\n    tag 254\t\t\t\n      JUMPDEST \t\t\t\n      PUSH 0\t\t\t\n      DUP2 \t\t\t\n      SWAP1 \t\t\t\n      POP \t\t\t\n      SWAP2 \t\t\t\n      SWAP1 \t\t\t\n      POP \t\t\t\n      JUMP \t\t\t\n    tag 255\t\t\t\n      JUMPDEST \t\t\t\n      PUSH 0\t\t\t\n      PUSH [tag] 487\t\t\t\n      PUSH [tag] 488\t\t\t\n      PUSH [tag] 489\t\t\t\n      DUP5 \t\t\t\n      PUSH [tag] 201\t\t\t\n      JUMP \t\t\t\n    tag 489\t\t\t\n      JUMPDEST \t\t\t\n      PUSH [tag] 254\t\t\t\n      JUMP \t\t\t\n    tag 488\t\t\t\n      JUMPDEST \t\t\t\n      PUSH [tag] 201\t\t\t\n      JUMP \t\t\t\n    tag 487\t\t\t\n      JUMPDEST \t\t\t\n      SWAP1 \t\t\t\n      POP \t\t\t\n      SWAP2 \t\t\t\n      SWAP1 \t\t\t\n      POP \t\t\t\n      JUMP \t\t\t\n    tag 256\t\t\t\n      JUMPDEST \t\t\t\n      PUSH 0\t\t\t\n      DUP2 \t\t\t\n      SWAP1 \t\t\t\n      POP \t\t\t\n      SWAP2 \t\t\t\n      SWAP1 \t\t\t\n      POP \t\t\t\n      JUMP \t\t\t\n    tag 257\t\t\t\n      JUMPDEST \t\t\t\n      PUSH [tag] 492\t\t\t\n      DUP4 \t\t\t\n      PUSH [tag] 255\t\t\t\n      JUMP \t\t\t\n    tag 492\t\t\t\n      JUMPDEST \t\t\t\n      PUSH [tag] 493\t\t\t\n      PUSH [tag] 494\t\t\t\n      DUP3 \t\t\t\n      PUSH [tag] 256\t\t\t\n      JUMP \t\t\t\n    tag 494\t\t\t\n      JUMPDEST \t\t\t\n      DUP5 \t\t\t\n      DUP5 \t\t\t\n      SLOAD \t\t\t\n      PUSH [tag] 253\t\t\t\n      JUMP \t\t\t\n    tag 493\t\t\t\n      JUMPDEST \t\t\t\n      DUP3 \t\t\t\n      SSTORE \t\t\t\n      POP \t\t\t\n      POP \t\t\t\n      POP \t\t\t\n      POP \t\t\t\n      JUMP \t\t\t\n    tag 258\t\t\t\n      JUMPDEST \t\t\t\n      PUSH 0\t\t\t\n      SWAP1 \t\t\t\n      JUMP \t\t\t\n    tag 259\t\t\t\n      JUMPDEST \t\t\t\n      PUSH [tag] 497\t\t\t\n      PUSH [tag] 258\t\t\t\n      JUMP \t\t\t\n    tag 497\t\t\t\n      JUMPDEST \t\t\t\n      PUSH [tag] 498\t\t\t\n      DUP2 \t\t\t\n      DUP5 \t\t\t\n      DUP5 \t\t\t\n      PUSH [tag] 257\t\t\t\n      JUMP \t\t\t\n    tag 498\t\t\t\n      JUMPDEST \t\t\t\n      POP \t\t\t\n      POP \t\t\t\n      POP \t\t\t\n      JUMP \t\t\t\n    tag 260\t\t\t\n      JUMPDEST \t\t\t\n    tag 500\t\t\t\n      JUMPDEST \t\t\t\n      DUP2 \t\t\t\n      DUP2 \t\t\t\n      LT \t\t\t\n      ISZERO \t\t\t\n      PUSH [tag] 502\t\t\t\n      JUMPI \t\t\t\n      PUSH [tag] 503\t\t\t\n      PUSH 0\t\t\t\n      DUP3 \t\t\t\n      PUSH [tag] 259\t\t\t\n      JUMP \t\t\t\n    tag 503\t\t\t\n      JUMPDEST \t\t\t\n      PUSH 1\t\t\t\n      DUP2 \t\t\t\n      ADD \t\t\t\n      SWAP1 \t\t\t\n      POP \t\t\t\n      PUSH [tag] 500\t\t\t\n      JUMP \t\t\t\n    tag 502\t\t\t\n      JUMPDEST \t\t\t\n      POP \t\t\t\n      POP \t\t\t\n      JUMP \t\t\t\n    tag 261\t\t\t\n      JUMPDEST \t\t\t\n      PUSH 1F\t\t\t\n      DUP3 \t\t\t\n      GT \t\t\t\n      ISZERO \t\t\t\n      PUSH [tag] 505\t\t\t\n      JUMPI \t\t\t\n      PUSH [tag] 506\t\t\t\n      DUP2 \t\t\t\n      PUSH [tag] 250\t\t\t\n      JUMP \t\t\t\n    tag 506\t\t\t\n      JUMPDEST \t\t\t\n      PUSH [tag] 507\t\t\t\n      DUP5 \t\t\t\n      PUSH [tag] 251\t\t\t\n      JUMP \t\t\t\n    tag 507\t\t\t\n      JUMPDEST \t\t\t\n      DUP2 \t\t\t\n      ADD \t\t\t\n      PUSH 20\t\t\t\n      DUP6 \t\t\t\n      LT \t\t\t\n      ISZERO \t\t\t\n      PUSH [tag] 508\t\t\t\n      JUMPI \t\t\t\n      DUP2 \t\t\t\n      SWAP1 \t\t\t\n      POP \t\t\t\n    tag 508\t\t\t\n      JUMPDEST \t\t\t\n      PUSH [tag] 509\t\t\t\n      PUSH [tag] 510\t\t\t\n      DUP6 \t\t\t\n      PUSH [tag] 251\t\t\t\n      JUMP \t\t\t\n    tag 510\t\t\t\n      JUMPDEST \t\t\t\n      DUP4 \t\t\t\n      ADD \t\t\t\n      DUP3 \t\t\t\n      PUSH [tag] 260\t\t\t\n      JUMP \t\t\t\n    tag 509\t\t\t\n      JUMPDEST \t\t\t\n      POP \t\t\t\n      POP \t\t\t\n    tag 505\t\t\t\n      JUMPDEST \t\t\t\n      POP \t\t\t\n      POP \t\t\t\n      POP \t\t\t\n      JUMP \t\t\t\n    tag 262\t\t\t\n      JUMPDEST \t\t\t\n      PUSH 0\t\t\t\n      DUP3 \t\t\t\n      DUP3 \t\t\t\n      SHR \t\t\t\n      SWAP1 \t\t\t\n      POP \t\t\t\n      SWAP3 \t\t\t\n      SWAP2 \t\t\t\n      POP \t\t\t\n      POP \t\t\t\n      JUMP \t\t\t\n    tag 263\t\t\t\n      JUMPDEST \t\t\t\n      PUSH 0\t\t\t\n      PUSH [tag] 513\t\t\t\n      PUSH 0\t\t\t\n      NOT \t\t\t\n      DUP5 \t\t\t\n      PUSH 8\t\t\t\n      MUL \t\t\t\n      PUSH [tag] 262\t\t\t\n      JUMP \t\t\t\n    tag 513\t\t\t\n      JUMPDEST \t\t\t\n      NOT \t\t\t\n      DUP1 \t\t\t\n      DUP4 \t\t\t\n      AND \t\t\t\n      SWAP2 \t\t\t\n      POP \t\t\t\n      POP \t\t\t\n      SWAP3 \t\t\t\n      SWAP2 \t\t\t\n      POP \t\t\t\n      POP \t\t\t\n      JUMP \t\t\t\n    tag 264\t\t\t\n      JUMPDEST \t\t\t\n      PUSH 0\t\t\t\n      PUSH [tag] 515\t\t\t\n      DUP4 \t\t\t\n      DUP4 \t\t\t\n      PUSH [tag] 263\t\t\t\n      JUMP \t\t\t\n    tag 515\t\t\t\n      JUMPDEST \t\t\t\n      SWAP2 \t\t\t\n      POP \t\t\t\n      DUP3 \t\t\t\n      PUSH 2\t\t\t\n      MUL \t\t\t\n      DUP3 \t\t\t\n      OR \t\t\t\n      SWAP1 \t\t\t\n      POP \t\t\t\n      SWAP3 \t\t\t\n      SWAP2 \t\t\t\n      POP \t\t\t\n      POP \t\t\t\n      JUMP \t\t\t\n    tag 110\t\t\t\n      JUMPDEST \t\t\t\n      PUSH [tag] 517\t\t\t\n      DUP3 \t\t\t\n      PUSH [tag] 196\t\t\t\n      JUMP \t\t\t\n    tag 517\t\t\t\n      JUMPDEST \t\t\t\n      PUSH FFFFFFFFFFFFFFFF\t\t\t\n      DUP2 \t\t\t\n      GT \t\t\t\n      ISZERO \t\t\t\n      PUSH [tag] 518\t\t\t\n      JUMPI \t\t\t\n      PUSH [tag] 519\t\t\t\n      PUSH [tag] 47\t\t\t\n      JUMP \t\t\t\n    tag 519\t\t\t\n      JUMPDEST \t\t\t\n    tag 518\t\t\t\n      JUMPDEST \t\t\t\n      PUSH [tag] 520\t\t\t\n      DUP3 \t\t\t\n      SLOAD \t\t\t\n      PUSH [tag] 103\t\t\t\n      JUMP \t\t\t\n    tag 520\t\t\t\n      JUMPDEST \t\t\t\n      PUSH [tag] 521\t\t\t\n      DUP3 \t\t\t\n      DUP3 \t\t\t\n      DUP6 \t\t\t\n      PUSH [tag] 261\t\t\t\n      JUMP \t\t\t\n    tag 521\t\t\t\n      JUMPDEST \t\t\t\n      PUSH 0\t\t\t\n      PUSH 20\t\t\t\n      SWAP1 \t\t\t\n      POP \t\t\t\n      PUSH 1F\t\t\t\n      DUP4 \t\t\t\n      GT \t\t\t\n      PUSH 1\t\t\t\n      DUP2 \t\t\t\n      EQ \t\t\t\n      PUSH [tag] 523\t\t\t\n      JUMPI \t\t\t\n      PUSH 0\t\t\t\n      DUP5 \t\t\t\n      ISZERO \t\t\t\n      PUSH [tag] 524\t\t\t\n      JUMPI \t\t\t\n      DUP3 \t\t\t\n      DUP8 \t\t\t\n      ADD \t\t\t\n      MLOAD \t\t\t\n      SWAP1 \t\t\t\n      POP \t\t\t\n    tag 524\t\t\t\n      JUMPDEST \t\t\t\n      PUSH [tag] 525\t\t\t\n      DUP6 \t\t\t\n      DUP3 \t\t\t\n      PUSH [tag] 264\t\t\t\n      JUMP \t\t\t\n    tag 525\t\t\t\n      JUMPDEST \t\t\t\n      DUP7 \t\t\t\n      SSTORE \t\t\t\n      POP \t\t\t\n      PUSH [tag] 522\t\t\t\n      JUMP \t\t\t\n    tag 523\t\t\t\n      JUMPDEST \t\t\t\n      PUSH 1F\t\t\t\n      NOT \t\t\t\n      DUP5 \t\t\t\n      AND \t\t\t\n      PUSH [tag] 526\t\t\t\n      DUP7 \t\t\t\n      PUSH [tag] 250\t\t\t\n      JUMP \t\t\t\n    tag 526\t\t\t\n      JUMPDEST \t\t\t\n      PUSH 0\t\t\t\n    tag 527\t\t\t\n      JUMPDEST \t\t\t\n      DUP3 \t\t\t\n      DUP2 \t\t\t\n      LT \t\t\t\n      ISZERO \t\t\t\n      PUSH [tag] 529\t\t\t\n      JUMPI \t\t\t\n      DUP5 \t\t\t\n      DUP10 \t\t\t\n      ADD \t\t\t\n      MLOAD \t\t\t\n      DUP3 \t\t\t\n      SSTORE \t\t\t\n      PUSH 1\t\t\t\n      DUP3 \t\t\t\n      ADD \t\t\t\n      SWAP2 \t\t\t\n      POP \t\t\t\n      PUSH 20\t\t\t\n      DUP6 \t\t\t\n      ADD \t\t\t\n      SWAP5 \t\t\t\n      POP \t\t\t\n      PUSH 20\t\t\t\n      DUP2 \t\t\t\n      ADD \t\t\t\n      SWAP1 \t\t\t\n      POP \t\t\t\n      PUSH [tag] 527\t\t\t\n      JUMP \t\t\t\n    tag 529\t\t\t\n      JUMPDEST \t\t\t\n      DUP7 \t\t\t\n      DUP4 \t\t\t\n      LT \t\t\t\n      ISZERO \t\t\t\n      PUSH [tag] 530\t\t\t\n      JUMPI \t\t\t\n      DUP5 \t\t\t\n      DUP10 \t\t\t\n      ADD \t\t\t\n      MLOAD \t\t\t\n      PUSH [tag] 531\t\t\t\n      PUSH 1F\t\t\t\n      DUP10 \t\t\t\n      AND \t\t\t\n      DUP3 \t\t\t\n      PUSH [tag] 263\t\t\t\n      JUMP \t\t\t\n    tag 531\t\t\t\n      JUMPDEST \t\t\t\n      DUP4 \t\t\t\n      SSTORE \t\t\t\n      POP \t\t\t\n    tag 530\t\t\t\n      JUMPDEST \t\t\t\n      PUSH 1\t\t\t\n      PUSH 2\t\t\t\n      DUP9 \t\t\t\n      MUL \t\t\t\n      ADD \t\t\t\n      DUP9 \t\t\t\n      SSTORE \t\t\t\n      POP \t\t\t\n      POP \t\t\t\n      POP \t\t\t\n    tag 522\t\t\t\n      JUMPDEST \t\t\t\n      POP \t\t\t\n      POP \t\t\t\n      POP \t\t\t\n      POP \t\t\t\n      POP \t\t\t\n      POP \t\t\t\n      JUMP \t\t\t\n    tag 265\t\t\t\n      JUMPDEST \t\t\t\n      PUSH 4E487B7100000000000000000000000000000000000000000000000000000000\t\t\t\n      PUSH 0\t\t\t\n      MSTORE \t\t\t\n      PUSH 11\t\t\t\n      PUSH 4\t\t\t\n      MSTORE \t\t\t\n      PUSH 24\t\t\t\n      PUSH 0\t\t\t\n      REVERT \t\t\t\n    tag 168\t\t\t\n      JUMPDEST \t\t\t\n      PUSH 0\t\t\t\n      PUSH [tag] 534\t\t\t\n      DUP3 \t\t\t\n      PUSH [tag] 201\t\t\t\n      JUMP \t\t\t\n    tag 534\t\t\t\n      JUMPDEST \t\t\t\n      SWAP2 \t\t\t\n      POP \t\t\t\n      PUSH [tag] 535\t\t\t\n      DUP4 \t\t\t\n      PUSH [tag] 201\t\t\t\n      JUMP \t\t\t\n    tag 535\t\t\t\n      JUMPDEST \t\t\t\n      SWAP3 \t\t\t\n      POP \t\t\t\n      DUP3 \t\t\t\n      DUP3 \t\t\t\n      SUB \t\t\t\n      SWAP1 \t\t\t\n      POP \t\t\t\n      DUP2 \t\t\t\n      DUP2 \t\t\t\n      GT \t\t\t\n      ISZERO \t\t\t\n      PUSH [tag] 536\t\t\t\n      JUMPI \t\t\t\n      PUSH [tag] 537\t\t\t\n      PUSH [tag] 265\t\t\t\n      JUMP \t\t\t\n    tag 537\t\t\t\n      JUMPDEST \t\t\t\n    tag 536\t\t\t\n      JUMPDEST \t\t\t\n      SWAP3 \t\t\t\n      SWAP2 \t\t\t\n      POP \t\t\t\n      POP \t\t\t\n      JUMP \t\t\t\n    .data\n      5AD1B34C28D0DE49F8303D7C1424471BC7D1A6CFFDF5E570B681B7A033938E0F:\n        38337a665a596163467247713565426e6e703645515078617063706a7078646a414b704c61767174534a3332\n      DB7DC5A227104A7DC4106459D89C7370461570F3D01CED1AE79589AA9212598F:\n        32327a36483644655734554c4279514b4c455274486a536f44654669754369693876334e754c534166326462\n"
}