{
	"compilerInput": "{\"language\":\"Solidity\",\"sources\":{\"contracts/4_Storage.sol\":{\"content\":\"// SPDX-License-Identifier: GPL-3.0\\n\\npragma solidity >=0.7.0 <0.9.0;\\n\\ncontract SvmSetter {\\n    struct InstructionAccount {\\n        uint32 id_index;       // id_index\\n        uint32 caller_index;   // caller_index\\n        uint32 callee_index;   // callee_index\\n        bool is_signer;        // is_signer\\n        bool is_writable;      // is_writable\\n    }\\n\\n    // Struct for Instruction\\n    struct Instruction {\\n        uint32[] program_index;       \\n        InstructionAccount[] accounts;\\n        bytes data;\\n    }\\n\\n    // Struct for MsgTransaction\\n    struct MsgTransaction {\\n        string[] signers;          // signers (repeated string)\\n        string[] accounts;         // accounts (repeated string)\\n        Instruction[] instructions; // instructions (repeated Instruction)\\n        uint64 compute_budget;      // compute_budget (uint64)\\n    }\\n\\n    string public evmString;\\n\\n    function setData(string memory _evmString) public {\\n        evmString = _evmString;\\n    }\\n\\n    function getData() public view returns (string memory) {\\n        return evmString;\\n    }\\n\\n    // TODO: Temporarily leave the svm fee payer here, we should let contract be a fee payer\\n    function doSetSvm(string memory svmFeePayer, string memory _svmString) internal returns (bytes memory result) {\\n        address crossVmContract = address(0x75a96B46758F367b9A40Dac909589603BE123057);\\n\\n        MsgTransaction memory transaction;\\n        transaction.accounts = new string[](4);\\n        transaction.accounts[0] = \\\"83zfZYacFrGq5eBnnp6EQPxapcpjpxdjAKpLavqtSJ32\\\";\\n        transaction.accounts[1] = \\\"22z6H6DeW4ULByQKLERtHjSoDeFiuCii8v3NuLSAf2db\\\";\\n        transaction.accounts[2] = svmFeePayer;\\n        transaction.accounts[3] = \\\"11111111111111111111111111111111\\\";\\n        transaction.compute_budget = 1000000;\\n\\n        // build instruction\\n        Instruction memory instruction;\\n        instruction.program_index = new uint32[](1);\\n        instruction.program_index[0] = 0;\\n        instruction.accounts = new InstructionAccount[](3);\\n        instruction.accounts[0] = InstructionAccount({\\n            id_index: 1,\\n            caller_index: 1,\\n            callee_index: 0,\\n            is_signer: false,\\n            is_writable: true\\n        });\\n        instruction.accounts[1] = InstructionAccount({\\n            id_index: 2,\\n            caller_index: 2,\\n            callee_index: 1,\\n            is_signer: true,\\n            is_writable: true\\n        });\\n        instruction.accounts[2] = InstructionAccount({\\n            id_index: 3,\\n            caller_index: 3,\\n            callee_index: 2,\\n            is_signer: false,\\n            is_writable: false\\n        });\\n        bytes memory discriminator = hex\\\"df725b88c54e9999\\\";\\n        bytes4 stringLen = getStringLengthLE(_svmString);\\n        instruction.data = bytes.concat(discriminator, stringLen, bytes(_svmString));\\n        transaction.instructions = new Instruction[](1);\\n        transaction.instructions[0] = instruction;\\n\\n        (bool ok, bytes memory r) = crossVmContract.call(abi.encode(transaction));\\n        require(ok, \\\"call must succeed\\\");\\n        return r;\\n    }\\n\\n    function setSvm(string memory svmFeePayer) public returns (bytes memory result) {\\n        if (keccak256(bytes(getSvm())) == keccak256(\\\"svm\\\")) {\\n            return doSetSvm(svmFeePayer, \\\"evm\\\");\\n        } \\n        return doSetSvm(svmFeePayer, \\\"svm\\\");\\n    }\\n\\n    // substring for `memory` does not natively supported by solidity, use for loop as example now\\n    function parseSvmResponse(bytes memory data) internal pure returns (string memory) {\\n        bytes memory res = new bytes(data.length - 4);\\n        for(uint256 i = 4; i<data.length; i++) {\\n            res[i-4] = data[i];\\n        }\\n\\n        return string(res);\\n    }\\n\\n    function getSvm() internal view returns (string memory) {\\n        address crossVmContract = address(0x75a96B46758F367b9A40Dac909589603BE123057);\\n        MsgTransaction memory transaction;\\n        transaction.accounts = new string[](2);\\n        transaction.accounts[0] = \\\"83zfZYacFrGq5eBnnp6EQPxapcpjpxdjAKpLavqtSJ32\\\";\\n        transaction.accounts[1] = \\\"22z6H6DeW4ULByQKLERtHjSoDeFiuCii8v3NuLSAf2db\\\";\\n        transaction.compute_budget = 1000000;\\n         Instruction memory instruction;\\n        instruction.program_index = new uint32[](1);\\n        instruction.program_index[0] = 0;\\n        instruction.accounts = new InstructionAccount[](1);\\n        instruction.accounts[0] = InstructionAccount({\\n            id_index: 1,\\n            caller_index: 1,\\n            callee_index: 0,\\n            is_signer: false,\\n            is_writable: false\\n        });\\n        bytes memory discriminator = hex\\\"dc8bfd5f8098939f\\\";\\n        instruction.data = discriminator;\\n        transaction.instructions = new Instruction[](1);\\n        transaction.instructions[0] = instruction;\\n        (bool ok, bytes memory r) = crossVmContract.staticcall(abi.encode(transaction));\\n        require(ok, \\\"call must succeed\\\");\\n        \\n        return parseSvmResponse(r);\\n    }\\n\\n    function getStringLengthLE(string memory str) internal pure returns (bytes4) {\\n        uint256 len = bytes(str).length;\\n        return toLittleEndian(len);\\n    }\\n\\n    function toLittleEndian(uint256 value) internal pure returns (bytes4 result) {\\n        // Extract last 4 bytes\\n        bytes32 last4 = bytes32(value);\\n        // Reverse the bytes\\n        return bytes4(\\n            (uint32(uint8(last4[31])) << 24) |\\n            (uint32(uint8(last4[30])) << 16) |\\n            (uint32(uint8(last4[29])) << 8) |\\n            (uint32(uint8(last4[28])))\\n        );\\n    }\\n}\\n\"}},\"settings\":{\"optimizer\":{\"enabled\":false,\"runs\":200},\"outputSelection\":{\"*\":{\"\":[\"ast\"],\"*\":[\"abi\",\"metadata\",\"devdoc\",\"userdoc\",\"storageLayout\",\"evm.legacyAssembly\",\"evm.bytecode\",\"evm.deployedBytecode\",\"evm.methodIdentifiers\",\"evm.gasEstimates\",\"evm.assembly\"]}},\"remappings\":[]}}",
	"name": "SvmSetter",
	"bytecode": {
		"linkReferences": {},
		"object": "6080604052348015600e575f80fd5b50611b178061001c5f395ff3fe608060405234801561000f575f80fd5b506004361061004a575f3560e01c80632962eb6a1461004e5780633163d2651461007e5780633bc5de301461009c57806347064d6a146100ba575b5f80fd5b61006860048036038101906100639190610fbb565b6100d6565b6040516100759190611062565b60405180910390f35b61008661019a565b60405161009391906110d4565b60405180910390f35b6100a4610225565b6040516100b191906110d4565b60405180910390f35b6100d460048036038101906100cf9190610fbb565b6102b4565b005b60607ff8251662139e6d88d3b6f2a5aa0f6fa9f87ec5bbe2e7f41da6c2ee0f71e0ebbc6101016102c6565b80519060200120036101535761014c826040518060400160405280600381526020017f65766d00000000000000000000000000000000000000000000000000000000008152506106bf565b9050610195565b610192826040518060400160405280600381526020017f73766d00000000000000000000000000000000000000000000000000000000008152506106bf565b90505b919050565b5f80546101a690611121565b80601f01602080910402602001604051908101604052809291908181526020018280546101d290611121565b801561021d5780601f106101f45761010080835404028352916020019161021d565b820191905f5260205f20905b81548152906001019060200180831161020057829003601f168201915b505050505081565b60605f805461023390611121565b80601f016020809104026020016040519081016040528092919081815260200182805461025f90611121565b80156102aa5780601f10610281576101008083540402835291602001916102aa565b820191905f5260205f20905b81548152906001019060200180831161028d57829003601f168201915b5050505050905090565b805f90816102c291906112f7565b5050565b60605f7375a96b46758f367b9a40dac909589603be12305790506102e8610ddc565b600267ffffffffffffffff81111561030357610302610e97565b5b60405190808252806020026020018201604052801561033657816020015b60608152602001906001900390816103215790505b5081602001819052506040518060600160405280602c8152602001611a8a602c913981602001515f8151811061036f5761036e6113c6565b5b60200260200101819052506040518060600160405280602c8152602001611ab6602c913981602001516001815181106103ab576103aa6113c6565b5b6020026020010181905250620f4240816060019067ffffffffffffffff16908167ffffffffffffffff16815250506103e1610e0d565b600167ffffffffffffffff8111156103fc576103fb610e97565b5b60405190808252806020026020018201604052801561042a5781602001602082028036833780820191505090505b50815f01819052505f815f01515f81518110610449576104486113c6565b5b602002602001019063ffffffff16908163ffffffff1681525050600167ffffffffffffffff81111561047e5761047d610e97565b5b6040519080825280602002602001820160405280156104b757816020015b6104a4610e2e565b81526020019060019003908161049c5790505b5081602001819052506040518060a00160405280600163ffffffff168152602001600163ffffffff1681526020015f63ffffffff1681526020015f151581526020015f151581525081602001515f81518110610516576105156113c6565b5b60200260200101819052505f6040518060400160405280600881526020017fdc8bfd5f8098939f0000000000000000000000000000000000000000000000008152509050808260400181905250600167ffffffffffffffff81111561057e5761057d610e97565b5b6040519080825280602002602001820160405280156105b757816020015b6105a4610e0d565b81526020019060019003908161059c5790505b5083604001819052508183604001515f815181106105d8576105d76113c6565b5b60200260200101819052505f808573ffffffffffffffffffffffffffffffffffffffff168560405160200161060d91906118d2565b604051602081830303815290604052604051610629919061192c565b5f60405180830381855afa9150503d805f8114610661576040519150601f19603f3d011682016040523d82523d5f602084013e610666565b606091505b5091509150816106ab576040517f08c379a00000000000000000000000000000000000000000000000000000000081526004016106a29061198c565b60405180910390fd5b6106b481610c2a565b965050505050505090565b60605f7375a96b46758f367b9a40dac909589603be12305790506106e1610ddc565b600467ffffffffffffffff8111156106fc576106fb610e97565b5b60405190808252806020026020018201604052801561072f57816020015b606081526020019060019003908161071a5790505b5081602001819052506040518060600160405280602c8152602001611a8a602c913981602001515f81518110610768576107676113c6565b5b60200260200101819052506040518060600160405280602c8152602001611ab6602c913981602001516001815181106107a4576107a36113c6565b5b60200260200101819052508481602001516002815181106107c8576107c76113c6565b5b60200260200101819052506040518060400160405280602081526020017f31313131313131313131313131313131313131313131313131313131313131318152508160200151600381518110610821576108206113c6565b5b6020026020010181905250620f4240816060019067ffffffffffffffff16908167ffffffffffffffff1681525050610857610e0d565b600167ffffffffffffffff81111561087257610871610e97565b5b6040519080825280602002602001820160405280156108a05781602001602082028036833780820191505090505b50815f01819052505f815f01515f815181106108bf576108be6113c6565b5b602002602001019063ffffffff16908163ffffffff1681525050600367ffffffffffffffff8111156108f4576108f3610e97565b5b60405190808252806020026020018201604052801561092d57816020015b61091a610e2e565b8152602001906001900390816109125790505b5081602001819052506040518060a00160405280600163ffffffff168152602001600163ffffffff1681526020015f63ffffffff1681526020015f151581526020016001151581525081602001515f8151811061098d5761098c6113c6565b5b60200260200101819052506040518060a00160405280600263ffffffff168152602001600263ffffffff168152602001600163ffffffff1681526020016001151581526020016001151581525081602001516001815181106109f2576109f16113c6565b5b60200260200101819052506040518060a00160405280600363ffffffff168152602001600363ffffffff168152602001600263ffffffff1681526020015f151581526020015f15158152508160200151600281518110610a5557610a546113c6565b5b60200260200101819052505f6040518060400160405280600881526020017fdf725b88c54e999900000000000000000000000000000000000000000000000081525090505f610aa387610d1a565b9050818188604051602001610aba939291906119f5565b6040516020818303038152906040528360400181905250600167ffffffffffffffff811115610aec57610aeb610e97565b5b604051908082528060200260200182016040528015610b2557816020015b610b12610e0d565b815260200190600190039081610b0a5790505b5084604001819052508284604001515f81518110610b4657610b456113c6565b5b60200260200101819052505f808673ffffffffffffffffffffffffffffffffffffffff1686604051602001610b7b91906118d2565b604051602081830303815290604052604051610b97919061192c565b5f604051808303815f865af19150503d805f8114610bd0576040519150601f19603f3d011682016040523d82523d5f602084013e610bd5565b606091505b509150915081610c1a576040517f08c379a0000000000000000000000000000000000000000000000000000000008152600401610c119061198c565b60405180910390fd5b8097505050505050505092915050565b60605f60048351610c3b9190611a56565b67ffffffffffffffff811115610c5457610c53610e97565b5b6040519080825280601f01601f191660200182016040528015610c865781602001600182028036833780820191505090505b5090505f600490505b8351811015610d1057838181518110610cab57610caa6113c6565b5b602001015160f81c60f81b82600483610cc49190611a56565b81518110610cd557610cd46113c6565b5b60200101907effffffffffffffffffffffffffffffffffffffffffffffffffffffffffffff191690815f1a9053508080600101915050610c8f565b5080915050919050565b5f8082519050610d2981610d31565b915050919050565b5f80825f1b905080601c60208110610d4c57610d4b6113c6565b5b1a60f81b60f81c60ff16600882601d60208110610d6c57610d6b6113c6565b5b1a60f81b60f81c60ff1663ffffffff16901b601083601e60208110610d9457610d936113c6565b5b1a60f81b60f81c60ff1663ffffffff16901b601884601f60208110610dbc57610dbb6113c6565b5b1a60f81b60f81c60ff1663ffffffff16901b17171760e01b915050919050565b60405180608001604052806060815260200160608152602001606081526020015f67ffffffffffffffff1681525090565b60405180606001604052806060815260200160608152602001606081525090565b6040518060a001604052805f63ffffffff1681526020015f63ffffffff1681526020015f63ffffffff1681526020015f151581526020015f151581525090565b5f604051905090565b5f80fd5b5f80fd5b5f80fd5b5f80fd5b5f601f19601f8301169050919050565b7f4e487b71000000000000000000000000000000000000000000000000000000005f52604160045260245ffd5b610ecd82610e87565b810181811067ffffffffffffffff82111715610eec57610eeb610e97565b5b80604052505050565b5f610efe610e6e565b9050610f0a8282610ec4565b919050565b5f67ffffffffffffffff821115610f2957610f28610e97565b5b610f3282610e87565b9050602081019050919050565b828183375f83830152505050565b5f610f5f610f5a84610f0f565b610ef5565b905082815260208101848484011115610f7b57610f7a610e83565b5b610f86848285610f3f565b509392505050565b5f82601f830112610fa257610fa1610e7f565b5b8135610fb2848260208601610f4d565b91505092915050565b5f60208284031215610fd057610fcf610e77565b5b5f82013567ffffffffffffffff811115610fed57610fec610e7b565b5b610ff984828501610f8e565b91505092915050565b5f81519050919050565b5f82825260208201905092915050565b8281835e5f83830152505050565b5f61103482611002565b61103e818561100c565b935061104e81856020860161101c565b61105781610e87565b840191505092915050565b5f6020820190508181035f83015261107a818461102a565b905092915050565b5f81519050919050565b5f82825260208201905092915050565b5f6110a682611082565b6110b0818561108c565b93506110c081856020860161101c565b6110c981610e87565b840191505092915050565b5f6020820190508181035f8301526110ec818461109c565b905092915050565b7f4e487b71000000000000000000000000000000000000000000000000000000005f52602260045260245ffd5b5f600282049050600182168061113857607f821691505b60208210810361114b5761114a6110f4565b5b50919050565b5f819050815f5260205f209050919050565b5f6020601f8301049050919050565b5f82821b905092915050565b5f600883026111ad7fffffffffffffffffffffffffffffffffffffffffffffffffffffffffffffffff82611172565b6111b78683611172565b95508019841693508086168417925050509392505050565b5f819050919050565b5f819050919050565b5f6111fb6111f66111f1846111cf565b6111d8565b6111cf565b9050919050565b5f819050919050565b611214836111e1565b61122861122082611202565b84845461117e565b825550505050565b5f90565b61123c611230565b61124781848461120b565b505050565b5b8181101561126a5761125f5f82611234565b60018101905061124d565b5050565b601f8211156112af5761128081611151565b61128984611163565b81016020851015611298578190505b6112ac6112a485611163565b83018261124c565b50505b505050565b5f82821c905092915050565b5f6112cf5f19846008026112b4565b1980831691505092915050565b5f6112e783836112c0565b9150826002028217905092915050565b61130082611082565b67ffffffffffffffff81111561131957611318610e97565b5b6113238254611121565b61132e82828561126e565b5f60209050601f83116001811461135f575f841561134d578287015190505b61135785826112dc565b8655506113be565b601f19841661136d86611151565b5f5b828110156113945784890151825560018201915060208501945060208101905061136f565b868310156113b157848901516113ad601f8916826112c0565b8355505b6001600288020188555050505b505050505050565b7f4e487b71000000000000000000000000000000000000000000000000000000005f52603260045260245ffd5b5f81519050919050565b5f82825260208201905092915050565b5f819050602082019050919050565b5f82825260208201905092915050565b5f61143682611082565b611440818561141c565b935061145081856020860161101c565b61145981610e87565b840191505092915050565b5f61146f838361142c565b905092915050565b5f602082019050919050565b5f61148d826113f3565b61149781856113fd565b9350836020820285016114a98561140d565b805f5b858110156114e457848403895281516114c58582611464565b94506114d083611477565b925060208a019950506001810190506114ac565b50829750879550505050505092915050565b5f81519050919050565b5f82825260208201905092915050565b5f819050602082019050919050565b5f81519050919050565b5f82825260208201905092915050565b5f819050602082019050919050565b5f63ffffffff82169050919050565b61156081611548565b82525050565b5f6115718383611557565b60208301905092915050565b5f602082019050919050565b5f6115938261151f565b61159d8185611529565b93506115a883611539565b805f5b838110156115d85781516115bf8882611566565b97506115ca8361157d565b9250506001810190506115ab565b5085935050505092915050565b5f81519050919050565b5f82825260208201905092915050565b5f819050602082019050919050565b5f8115159050919050565b6116228161160e565b82525050565b60a082015f82015161163c5f850182611557565b50602082015161164f6020850182611557565b5060408201516116626040850182611557565b5060608201516116756060850182611619565b5060808201516116886080850182611619565b50505050565b5f6116998383611628565b60a08301905092915050565b5f602082019050919050565b5f6116bb826115e5565b6116c581856115ef565b93506116d0836115ff565b805f5b838110156117005781516116e7888261168e565b97506116f2836116a5565b9250506001810190506116d3565b5085935050505092915050565b5f82825260208201905092915050565b5f61172782611002565b611731818561170d565b935061174181856020860161101c565b61174a81610e87565b840191505092915050565b5f606083015f8301518482035f86015261176f8282611589565b9150506020830151848203602086015261178982826116b1565b915050604083015184820360408601526117a3828261171d565b9150508091505092915050565b5f6117bb8383611755565b905092915050565b5f602082019050919050565b5f6117d9826114f6565b6117e38185611500565b9350836020820285016117f585611510565b805f5b85811015611830578484038952815161181185826117b0565b945061181c836117c3565b925060208a019950506001810190506117f8565b50829750879550505050505092915050565b5f67ffffffffffffffff82169050919050565b61185e81611842565b82525050565b5f608083015f8301518482035f86015261187e8282611483565b915050602083015184820360208601526118988282611483565b915050604083015184820360408601526118b282826117cf565b91505060608301516118c76060860182611855565b508091505092915050565b5f6020820190508181035f8301526118ea8184611864565b905092915050565b5f81905092915050565b5f61190682611002565b61191081856118f2565b935061192081856020860161101c565b80840191505092915050565b5f61193782846118fc565b915081905092915050565b7f63616c6c206d75737420737563636565640000000000000000000000000000005f82015250565b5f61197660118361108c565b915061198182611942565b602082019050919050565b5f6020820190508181035f8301526119a38161196a565b9050919050565b5f7fffffffff0000000000000000000000000000000000000000000000000000000082169050919050565b5f819050919050565b6119ef6119ea826119aa565b6119d5565b82525050565b5f611a0082866118fc565b9150611a0c82856119de565b600482019150611a1c82846118fc565b9150819050949350505050565b7f4e487b71000000000000000000000000000000000000000000000000000000005f52601160045260245ffd5b5f611a60826111cf565b9150611a6b836111cf565b9250828203905081811115611a8357611a82611a29565b5b9291505056fe38337a665a596163467247713565426e6e703645515078617063706a7078646a414b704c61767174534a333232327a36483644655734554c4279514b4c455274486a536f44654669754369693876334e754c534166326462a264697066735822122029b7fa9a1f3aad7a17cf1a478f8795b24c0064c3ba2b9a37a85e862ea359232a64736f6c634300081a0033",
		"opcodes": "PUSH1 0x80 PUSH1 0x40 MSTORE CALLVALUE DUP1 ISZERO PUSH1 0xE JUMPI PUSH0 DUP1 REVERT JUMPDEST POP PUSH2 0x1B17 DUP1 PUSH2 0x1C PUSH0 CODECOPY PUSH0 RETURN INVALID PUSH1 0x80 PUSH1 0x40 MSTORE CALLVALUE DUP1 ISZERO PUSH2 0xF JUMPI PUSH0 DUP1 REVERT JUMPDEST POP PUSH1 0x4 CALLDATASIZE LT PUSH2 0x4A JUMPI PUSH0 CALLDATALOAD PUSH1 0xE0 SHR DUP1 PUSH4 0x2962EB6A EQ PUSH2 0x4E JUMPI DUP1 PUSH4 0x3163D265 EQ PUSH2 0x7E JUMPI DUP1 PUSH4 0x3BC5DE30 EQ PUSH2 0x9C JUMPI DUP1 PUSH4 0x47064D6A EQ PUSH2 0xBA JUMPI JUMPDEST PUSH0 DUP1 REVERT JUMPDEST PUSH2 0x68 PUSH1 0x4 DUP1 CALLDATASIZE SUB DUP2 ADD SWAP1 PUSH2 0x63 SWAP2 SWAP1 PUSH2 0xFBB JUMP JUMPDEST PUSH2 0xD6 JUMP JUMPDEST PUSH1 0x40 MLOAD PUSH2 0x75 SWAP2 SWAP1 PUSH2 0x1062 JUMP JUMPDEST PUSH1 0x40 MLOAD DUP1 SWAP2 SUB SWAP1 RETURN JUMPDEST PUSH2 0x86 PUSH2 0x19A JUMP JUMPDEST PUSH1 0x40 MLOAD PUSH2 0x93 SWAP2 SWAP1 PUSH2 0x10D4 JUMP JUMPDEST PUSH1 0x40 MLOAD DUP1 SWAP2 SUB SWAP1 RETURN JUMPDEST PUSH2 0xA4 PUSH2 0x225 JUMP JUMPDEST PUSH1 0x40 MLOAD PUSH2 0xB1 SWAP2 SWAP1 PUSH2 0x10D4 JUMP JUMPDEST PUSH1 0x40 MLOAD DUP1 SWAP2 SUB SWAP1 RETURN JUMPDEST PUSH2 0xD4 PUSH1 0x4 DUP1 CALLDATASIZE SUB DUP2 ADD SWAP1 PUSH2 0xCF SWAP2 SWAP1 PUSH2 0xFBB JUMP JUMPDEST PUSH2 0x2B4 JUMP JUMPDEST STOP JUMPDEST PUSH1 0x60 PUSH32 0xF8251662139E6D88D3B6F2A5AA0F6FA9F87EC5BBE2E7F41DA6C2EE0F71E0EBBC PUSH2 0x101 PUSH2 0x2C6 JUMP JUMPDEST DUP1 MLOAD SWAP1 PUSH1 0x20 ADD KECCAK256 SUB PUSH2 0x153 JUMPI PUSH2 0x14C DUP3 PUSH1 0x40 MLOAD DUP1 PUSH1 0x40 ADD PUSH1 0x40 MSTORE DUP1 PUSH1 0x3 DUP2 MSTORE PUSH1 0x20 ADD PUSH32 0x65766D0000000000000000000000000000000000000000000000000000000000 DUP2 MSTORE POP PUSH2 0x6BF JUMP JUMPDEST SWAP1 POP PUSH2 0x195 JUMP JUMPDEST PUSH2 0x192 DUP3 PUSH1 0x40 MLOAD DUP1 PUSH1 0x40 ADD PUSH1 0x40 MSTORE DUP1 PUSH1 0x3 DUP2 MSTORE PUSH1 0x20 ADD PUSH32 0x73766D0000000000000000000000000000000000000000000000000000000000 DUP2 MSTORE POP PUSH2 0x6BF JUMP JUMPDEST SWAP1 POP JUMPDEST SWAP2 SWAP1 POP JUMP JUMPDEST PUSH0 DUP1 SLOAD PUSH2 0x1A6 SWAP1 PUSH2 0x1121 JUMP JUMPDEST DUP1 PUSH1 0x1F ADD PUSH1 0x20 DUP1 SWAP2 DIV MUL PUSH1 0x20 ADD PUSH1 0x40 MLOAD SWAP1 DUP2 ADD PUSH1 0x40 MSTORE DUP1 SWAP3 SWAP2 SWAP1 DUP2 DUP2 MSTORE PUSH1 0x20 ADD DUP3 DUP1 SLOAD PUSH2 0x1D2 SWAP1 PUSH2 0x1121 JUMP JUMPDEST DUP1 ISZERO PUSH2 0x21D JUMPI DUP1 PUSH1 0x1F LT PUSH2 0x1F4 JUMPI PUSH2 0x100 DUP1 DUP4 SLOAD DIV MUL DUP4 MSTORE SWAP2 PUSH1 0x20 ADD SWAP2 PUSH2 0x21D JUMP JUMPDEST DUP3 ADD SWAP2 SWAP1 PUSH0 MSTORE PUSH1 0x20 PUSH0 KECCAK256 SWAP1 JUMPDEST DUP2 SLOAD DUP2 MSTORE SWAP1 PUSH1 0x1 ADD SWAP1 PUSH1 0x20 ADD DUP1 DUP4 GT PUSH2 0x200 JUMPI DUP3 SWAP1 SUB PUSH1 0x1F AND DUP3 ADD SWAP2 JUMPDEST POP POP POP POP POP DUP2 JUMP JUMPDEST PUSH1 0x60 PUSH0 DUP1 SLOAD PUSH2 0x233 SWAP1 PUSH2 0x1121 JUMP JUMPDEST DUP1 PUSH1 0x1F ADD PUSH1 0x20 DUP1 SWAP2 DIV MUL PUSH1 0x20 ADD PUSH1 0x40 MLOAD SWAP1 DUP2 ADD PUSH1 0x40 MSTORE DUP1 SWAP3 SWAP2 SWAP1 DUP2 DUP2 MSTORE PUSH1 0x20 ADD DUP3 DUP1 SLOAD PUSH2 0x25F SWAP1 PUSH2 0x1121 JUMP JUMPDEST DUP1 ISZERO PUSH2 0x2AA JUMPI DUP1 PUSH1 0x1F LT PUSH2 0x281 JUMPI PUSH2 0x100 DUP1 DUP4 SLOAD DIV MUL DUP4 MSTORE SWAP2 PUSH1 0x20 ADD SWAP2 PUSH2 0x2AA JUMP JUMPDEST DUP3 ADD SWAP2 SWAP1 PUSH0 MSTORE PUSH1 0x20 PUSH0 KECCAK256 SWAP1 JUMPDEST DUP2 SLOAD DUP2 MSTORE SWAP1 PUSH1 0x1 ADD SWAP1 PUSH1 0x20 ADD DUP1 DUP4 GT PUSH2 0x28D JUMPI DUP3 SWAP1 SUB PUSH1 0x1F AND DUP3 ADD SWAP2 JUMPDEST POP POP POP POP POP SWAP1 POP SWAP1 JUMP JUMPDEST DUP1 PUSH0 SWAP1 DUP2 PUSH2 0x2C2 SWAP2 SWAP1 PUSH2 0x12F7 JUMP JUMPDEST POP POP JUMP JUMPDEST PUSH1 0x60 PUSH0 PUSH20 0x75A96B46758F367B9A40DAC909589603BE123057 SWAP1 POP PUSH2 0x2E8 PUSH2 0xDDC JUMP JUMPDEST PUSH1 0x2 PUSH8 0xFFFFFFFFFFFFFFFF DUP2 GT ISZERO PUSH2 0x303 JUMPI PUSH2 0x302 PUSH2 0xE97 JUMP JUMPDEST JUMPDEST PUSH1 0x40 MLOAD SWAP1 DUP1 DUP3 MSTORE DUP1 PUSH1 0x20 MUL PUSH1 0x20 ADD DUP3 ADD PUSH1 0x40 MSTORE DUP1 ISZERO PUSH2 0x336 JUMPI DUP2 PUSH1 0x20 ADD JUMPDEST PUSH1 0x60 DUP2 MSTORE PUSH1 0x20 ADD SWAP1 PUSH1 0x1 SWAP1 SUB SWAP1 DUP2 PUSH2 0x321 JUMPI SWAP1 POP JUMPDEST POP DUP2 PUSH1 0x20 ADD DUP2 SWAP1 MSTORE POP PUSH1 0x40 MLOAD DUP1 PUSH1 0x60 ADD PUSH1 0x40 MSTORE DUP1 PUSH1 0x2C DUP2 MSTORE PUSH1 0x20 ADD PUSH2 0x1A8A PUSH1 0x2C SWAP2 CODECOPY DUP2 PUSH1 0x20 ADD MLOAD PUSH0 DUP2 MLOAD DUP2 LT PUSH2 0x36F JUMPI PUSH2 0x36E PUSH2 0x13C6 JUMP JUMPDEST JUMPDEST PUSH1 0x20 MUL PUSH1 0x20 ADD ADD DUP2 SWAP1 MSTORE POP PUSH1 0x40 MLOAD DUP1 PUSH1 0x60 ADD PUSH1 0x40 MSTORE DUP1 PUSH1 0x2C DUP2 MSTORE PUSH1 0x20 ADD PUSH2 0x1AB6 PUSH1 0x2C SWAP2 CODECOPY DUP2 PUSH1 0x20 ADD MLOAD PUSH1 0x1 DUP2 MLOAD DUP2 LT PUSH2 0x3AB JUMPI PUSH2 0x3AA PUSH2 0x13C6 JUMP JUMPDEST JUMPDEST PUSH1 0x20 MUL PUSH1 0x20 ADD ADD DUP2 SWAP1 MSTORE POP PUSH3 0xF4240 DUP2 PUSH1 0x60 ADD SWAP1 PUSH8 0xFFFFFFFFFFFFFFFF AND SWAP1 DUP2 PUSH8 0xFFFFFFFFFFFFFFFF AND DUP2 MSTORE POP POP PUSH2 0x3E1 PUSH2 0xE0D JUMP JUMPDEST PUSH1 0x1 PUSH8 0xFFFFFFFFFFFFFFFF DUP2 GT ISZERO PUSH2 0x3FC JUMPI PUSH2 0x3FB PUSH2 0xE97 JUMP JUMPDEST JUMPDEST PUSH1 0x40 MLOAD SWAP1 DUP1 DUP3 MSTORE DUP1 PUSH1 0x20 MUL PUSH1 0x20 ADD DUP3 ADD PUSH1 0x40 MSTORE DUP1 ISZERO PUSH2 0x42A JUMPI DUP2 PUSH1 0x20 ADD PUSH1 0x20 DUP3 MUL DUP1 CALLDATASIZE DUP4 CALLDATACOPY DUP1 DUP3 ADD SWAP2 POP POP SWAP1 POP JUMPDEST POP DUP2 PUSH0 ADD DUP2 SWAP1 MSTORE POP PUSH0 DUP2 PUSH0 ADD MLOAD PUSH0 DUP2 MLOAD DUP2 LT PUSH2 0x449 JUMPI PUSH2 0x448 PUSH2 0x13C6 JUMP JUMPDEST JUMPDEST PUSH1 0x20 MUL PUSH1 0x20 ADD ADD SWAP1 PUSH4 0xFFFFFFFF AND SWAP1 DUP2 PUSH4 0xFFFFFFFF AND DUP2 MSTORE POP POP PUSH1 0x1 PUSH8 0xFFFFFFFFFFFFFFFF DUP2 GT ISZERO PUSH2 0x47E JUMPI PUSH2 0x47D PUSH2 0xE97 JUMP JUMPDEST JUMPDEST PUSH1 0x40 MLOAD SWAP1 DUP1 DUP3 MSTORE DUP1 PUSH1 0x20 MUL PUSH1 0x20 ADD DUP3 ADD PUSH1 0x40 MSTORE DUP1 ISZERO PUSH2 0x4B7 JUMPI DUP2 PUSH1 0x20 ADD JUMPDEST PUSH2 0x4A4 PUSH2 0xE2E JUMP JUMPDEST DUP2 MSTORE PUSH1 0x20 ADD SWAP1 PUSH1 0x1 SWAP1 SUB SWAP1 DUP2 PUSH2 0x49C JUMPI SWAP1 POP JUMPDEST POP DUP2 PUSH1 0x20 ADD DUP2 SWAP1 MSTORE POP PUSH1 0x40 MLOAD DUP1 PUSH1 0xA0 ADD PUSH1 0x40 MSTORE DUP1 PUSH1 0x1 PUSH4 0xFFFFFFFF AND DUP2 MSTORE PUSH1 0x20 ADD PUSH1 0x1 PUSH4 0xFFFFFFFF AND DUP2 MSTORE PUSH1 0x20 ADD PUSH0 PUSH4 0xFFFFFFFF AND DUP2 MSTORE PUSH1 0x20 ADD PUSH0 ISZERO ISZERO DUP2 MSTORE PUSH1 0x20 ADD PUSH0 ISZERO ISZERO DUP2 MSTORE POP DUP2 PUSH1 0x20 ADD MLOAD PUSH0 DUP2 MLOAD DUP2 LT PUSH2 0x516 JUMPI PUSH2 0x515 PUSH2 0x13C6 JUMP JUMPDEST JUMPDEST PUSH1 0x20 MUL PUSH1 0x20 ADD ADD DUP2 SWAP1 MSTORE POP PUSH0 PUSH1 0x40 MLOAD DUP1 PUSH1 0x40 ADD PUSH1 0x40 MSTORE DUP1 PUSH1 0x8 DUP2 MSTORE PUSH1 0x20 ADD PUSH32 0xDC8BFD5F8098939F000000000000000000000000000000000000000000000000 DUP2 MSTORE POP SWAP1 POP DUP1 DUP3 PUSH1 0x40 ADD DUP2 SWAP1 MSTORE POP PUSH1 0x1 PUSH8 0xFFFFFFFFFFFFFFFF DUP2 GT ISZERO PUSH2 0x57E JUMPI PUSH2 0x57D PUSH2 0xE97 JUMP JUMPDEST JUMPDEST PUSH1 0x40 MLOAD SWAP1 DUP1 DUP3 MSTORE DUP1 PUSH1 0x20 MUL PUSH1 0x20 ADD DUP3 ADD PUSH1 0x40 MSTORE DUP1 ISZERO PUSH2 0x5B7 JUMPI DUP2 PUSH1 0x20 ADD JUMPDEST PUSH2 0x5A4 PUSH2 0xE0D JUMP JUMPDEST DUP2 MSTORE PUSH1 0x20 ADD SWAP1 PUSH1 0x1 SWAP1 SUB SWAP1 DUP2 PUSH2 0x59C JUMPI SWAP1 POP JUMPDEST POP DUP4 PUSH1 0x40 ADD DUP2 SWAP1 MSTORE POP DUP2 DUP4 PUSH1 0x40 ADD MLOAD PUSH0 DUP2 MLOAD DUP2 LT PUSH2 0x5D8 JUMPI PUSH2 0x5D7 PUSH2 0x13C6 JUMP JUMPDEST JUMPDEST PUSH1 0x20 MUL PUSH1 0x20 ADD ADD DUP2 SWAP1 MSTORE POP PUSH0 DUP1 DUP6 PUSH20 0xFFFFFFFFFFFFFFFFFFFFFFFFFFFFFFFFFFFFFFFF AND DUP6 PUSH1 0x40 MLOAD PUSH1 0x20 ADD PUSH2 0x60D SWAP2 SWAP1 PUSH2 0x18D2 JUMP JUMPDEST PUSH1 0x40 MLOAD PUSH1 0x20 DUP2 DUP4 SUB SUB DUP2 MSTORE SWAP1 PUSH1 0x40 MSTORE PUSH1 0x40 MLOAD PUSH2 0x629 SWAP2 SWAP1 PUSH2 0x192C JUMP JUMPDEST PUSH0 PUSH1 0x40 MLOAD DUP1 DUP4 SUB DUP2 DUP6 GAS STATICCALL SWAP2 POP POP RETURNDATASIZE DUP1 PUSH0 DUP2 EQ PUSH2 0x661 JUMPI PUSH1 0x40 MLOAD SWAP2 POP PUSH1 0x1F NOT PUSH1 0x3F RETURNDATASIZE ADD AND DUP3 ADD PUSH1 0x40 MSTORE RETURNDATASIZE DUP3 MSTORE RETURNDATASIZE PUSH0 PUSH1 0x20 DUP5 ADD RETURNDATACOPY PUSH2 0x666 JUMP JUMPDEST PUSH1 0x60 SWAP2 POP JUMPDEST POP SWAP2 POP SWAP2 POP DUP2 PUSH2 0x6AB JUMPI PUSH1 0x40 MLOAD PUSH32 0x8C379A000000000000000000000000000000000000000000000000000000000 DUP2 MSTORE PUSH1 0x4 ADD PUSH2 0x6A2 SWAP1 PUSH2 0x198C JUMP JUMPDEST PUSH1 0x40 MLOAD DUP1 SWAP2 SUB SWAP1 REVERT JUMPDEST PUSH2 0x6B4 DUP2 PUSH2 0xC2A JUMP JUMPDEST SWAP7 POP POP POP POP POP POP POP SWAP1 JUMP JUMPDEST PUSH1 0x60 PUSH0 PUSH20 0x75A96B46758F367B9A40DAC909589603BE123057 SWAP1 POP PUSH2 0x6E1 PUSH2 0xDDC JUMP JUMPDEST PUSH1 0x4 PUSH8 0xFFFFFFFFFFFFFFFF DUP2 GT ISZERO PUSH2 0x6FC JUMPI PUSH2 0x6FB PUSH2 0xE97 JUMP JUMPDEST JUMPDEST PUSH1 0x40 MLOAD SWAP1 DUP1 DUP3 MSTORE DUP1 PUSH1 0x20 MUL PUSH1 0x20 ADD DUP3 ADD PUSH1 0x40 MSTORE DUP1 ISZERO PUSH2 0x72F JUMPI DUP2 PUSH1 0x20 ADD JUMPDEST PUSH1 0x60 DUP2 MSTORE PUSH1 0x20 ADD SWAP1 PUSH1 0x1 SWAP1 SUB SWAP1 DUP2 PUSH2 0x71A JUMPI SWAP1 POP JUMPDEST POP DUP2 PUSH1 0x20 ADD DUP2 SWAP1 MSTORE POP PUSH1 0x40 MLOAD DUP1 PUSH1 0x60 ADD PUSH1 0x40 MSTORE DUP1 PUSH1 0x2C DUP2 MSTORE PUSH1 0x20 ADD PUSH2 0x1A8A PUSH1 0x2C SWAP2 CODECOPY DUP2 PUSH1 0x20 ADD MLOAD PUSH0 DUP2 MLOAD DUP2 LT PUSH2 0x768 JUMPI PUSH2 0x767 PUSH2 0x13C6 JUMP JUMPDEST JUMPDEST PUSH1 0x20 MUL PUSH1 0x20 ADD ADD DUP2 SWAP1 MSTORE POP PUSH1 0x40 MLOAD DUP1 PUSH1 0x60 ADD PUSH1 0x40 MSTORE DUP1 PUSH1 0x2C DUP2 MSTORE PUSH1 0x20 ADD PUSH2 0x1AB6 PUSH1 0x2C SWAP2 CODECOPY DUP2 PUSH1 0x20 ADD MLOAD PUSH1 0x1 DUP2 MLOAD DUP2 LT PUSH2 0x7A4 JUMPI PUSH2 0x7A3 PUSH2 0x13C6 JUMP JUMPDEST JUMPDEST PUSH1 0x20 MUL PUSH1 0x20 ADD ADD DUP2 SWAP1 MSTORE POP DUP5 DUP2 PUSH1 0x20 ADD MLOAD PUSH1 0x2 DUP2 MLOAD DUP2 LT PUSH2 0x7C8 JUMPI PUSH2 0x7C7 PUSH2 0x13C6 JUMP JUMPDEST JUMPDEST PUSH1 0x20 MUL PUSH1 0x20 ADD ADD DUP2 SWAP1 MSTORE POP PUSH1 0x40 MLOAD DUP1 PUSH1 0x40 ADD PUSH1 0x40 MSTORE DUP1 PUSH1 0x20 DUP2 MSTORE PUSH1 0x20 ADD PUSH32 0x3131313131313131313131313131313131313131313131313131313131313131 DUP2 MSTORE POP DUP2 PUSH1 0x20 ADD MLOAD PUSH1 0x3 DUP2 MLOAD DUP2 LT PUSH2 0x821 JUMPI PUSH2 0x820 PUSH2 0x13C6 JUMP JUMPDEST JUMPDEST PUSH1 0x20 MUL PUSH1 0x20 ADD ADD DUP2 SWAP1 MSTORE POP PUSH3 0xF4240 DUP2 PUSH1 0x60 ADD SWAP1 PUSH8 0xFFFFFFFFFFFFFFFF AND SWAP1 DUP2 PUSH8 0xFFFFFFFFFFFFFFFF AND DUP2 MSTORE POP POP PUSH2 0x857 PUSH2 0xE0D JUMP JUMPDEST PUSH1 0x1 PUSH8 0xFFFFFFFFFFFFFFFF DUP2 GT ISZERO PUSH2 0x872 JUMPI PUSH2 0x871 PUSH2 0xE97 JUMP JUMPDEST JUMPDEST PUSH1 0x40 MLOAD SWAP1 DUP1 DUP3 MSTORE DUP1 PUSH1 0x20 MUL PUSH1 0x20 ADD DUP3 ADD PUSH1 0x40 MSTORE DUP1 ISZERO PUSH2 0x8A0 JUMPI DUP2 PUSH1 0x20 ADD PUSH1 0x20 DUP3 MUL DUP1 CALLDATASIZE DUP4 CALLDATACOPY DUP1 DUP3 ADD SWAP2 POP POP SWAP1 POP JUMPDEST POP DUP2 PUSH0 ADD DUP2 SWAP1 MSTORE POP PUSH0 DUP2 PUSH0 ADD MLOAD PUSH0 DUP2 MLOAD DUP2 LT PUSH2 0x8BF JUMPI PUSH2 0x8BE PUSH2 0x13C6 JUMP JUMPDEST JUMPDEST PUSH1 0x20 MUL PUSH1 0x20 ADD ADD SWAP1 PUSH4 0xFFFFFFFF AND SWAP1 DUP2 PUSH4 0xFFFFFFFF AND DUP2 MSTORE POP POP PUSH1 0x3 PUSH8 0xFFFFFFFFFFFFFFFF DUP2 GT ISZERO PUSH2 0x8F4 JUMPI PUSH2 0x8F3 PUSH2 0xE97 JUMP JUMPDEST JUMPDEST PUSH1 0x40 MLOAD SWAP1 DUP1 DUP3 MSTORE DUP1 PUSH1 0x20 MUL PUSH1 0x20 ADD DUP3 ADD PUSH1 0x40 MSTORE DUP1 ISZERO PUSH2 0x92D JUMPI DUP2 PUSH1 0x20 ADD JUMPDEST PUSH2 0x91A PUSH2 0xE2E JUMP JUMPDEST DUP2 MSTORE PUSH1 0x20 ADD SWAP1 PUSH1 0x1 SWAP1 SUB SWAP1 DUP2 PUSH2 0x912 JUMPI SWAP1 POP JUMPDEST POP DUP2 PUSH1 0x20 ADD DUP2 SWAP1 MSTORE POP PUSH1 0x40 MLOAD DUP1 PUSH1 0xA0 ADD PUSH1 0x40 MSTORE DUP1 PUSH1 0x1 PUSH4 0xFFFFFFFF AND DUP2 MSTORE PUSH1 0x20 ADD PUSH1 0x1 PUSH4 0xFFFFFFFF AND DUP2 MSTORE PUSH1 0x20 ADD PUSH0 PUSH4 0xFFFFFFFF AND DUP2 MSTORE PUSH1 0x20 ADD PUSH0 ISZERO ISZERO DUP2 MSTORE PUSH1 0x20 ADD PUSH1 0x1 ISZERO ISZERO DUP2 MSTORE POP DUP2 PUSH1 0x20 ADD MLOAD PUSH0 DUP2 MLOAD DUP2 LT PUSH2 0x98D JUMPI PUSH2 0x98C PUSH2 0x13C6 JUMP JUMPDEST JUMPDEST PUSH1 0x20 MUL PUSH1 0x20 ADD ADD DUP2 SWAP1 MSTORE POP PUSH1 0x40 MLOAD DUP1 PUSH1 0xA0 ADD PUSH1 0x40 MSTORE DUP1 PUSH1 0x2 PUSH4 0xFFFFFFFF AND DUP2 MSTORE PUSH1 0x20 ADD PUSH1 0x2 PUSH4 0xFFFFFFFF AND DUP2 MSTORE PUSH1 0x20 ADD PUSH1 0x1 PUSH4 0xFFFFFFFF AND DUP2 MSTORE PUSH1 0x20 ADD PUSH1 0x1 ISZERO ISZERO DUP2 MSTORE PUSH1 0x20 ADD PUSH1 0x1 ISZERO ISZERO DUP2 MSTORE POP DUP2 PUSH1 0x20 ADD MLOAD PUSH1 0x1 DUP2 MLOAD DUP2 LT PUSH2 0x9F2 JUMPI PUSH2 0x9F1 PUSH2 0x13C6 JUMP JUMPDEST JUMPDEST PUSH1 0x20 MUL PUSH1 0x20 ADD ADD DUP2 SWAP1 MSTORE POP PUSH1 0x40 MLOAD DUP1 PUSH1 0xA0 ADD PUSH1 0x40 MSTORE DUP1 PUSH1 0x3 PUSH4 0xFFFFFFFF AND DUP2 MSTORE PUSH1 0x20 ADD PUSH1 0x3 PUSH4 0xFFFFFFFF AND DUP2 MSTORE PUSH1 0x20 ADD PUSH1 0x2 PUSH4 0xFFFFFFFF AND DUP2 MSTORE PUSH1 0x20 ADD PUSH0 ISZERO ISZERO DUP2 MSTORE PUSH1 0x20 ADD PUSH0 ISZERO ISZERO DUP2 MSTORE POP DUP2 PUSH1 0x20 ADD MLOAD PUSH1 0x2 DUP2 MLOAD DUP2 LT PUSH2 0xA55 JUMPI PUSH2 0xA54 PUSH2 0x13C6 JUMP JUMPDEST JUMPDEST PUSH1 0x20 MUL PUSH1 0x20 ADD ADD DUP2 SWAP1 MSTORE POP PUSH0 PUSH1 0x40 MLOAD DUP1 PUSH1 0x40 ADD PUSH1 0x40 MSTORE DUP1 PUSH1 0x8 DUP2 MSTORE PUSH1 0x20 ADD PUSH32 0xDF725B88C54E9999000000000000000000000000000000000000000000000000 DUP2 MSTORE POP SWAP1 POP PUSH0 PUSH2 0xAA3 DUP8 PUSH2 0xD1A JUMP JUMPDEST SWAP1 POP DUP2 DUP2 DUP9 PUSH1 0x40 MLOAD PUSH1 0x20 ADD PUSH2 0xABA SWAP4 SWAP3 SWAP2 SWAP1 PUSH2 0x19F5 JUMP JUMPDEST PUSH1 0x40 MLOAD PUSH1 0x20 DUP2 DUP4 SUB SUB DUP2 MSTORE SWAP1 PUSH1 0x40 MSTORE DUP4 PUSH1 0x40 ADD DUP2 SWAP1 MSTORE POP PUSH1 0x1 PUSH8 0xFFFFFFFFFFFFFFFF DUP2 GT ISZERO PUSH2 0xAEC JUMPI PUSH2 0xAEB PUSH2 0xE97 JUMP JUMPDEST JUMPDEST PUSH1 0x40 MLOAD SWAP1 DUP1 DUP3 MSTORE DUP1 PUSH1 0x20 MUL PUSH1 0x20 ADD DUP3 ADD PUSH1 0x40 MSTORE DUP1 ISZERO PUSH2 0xB25 JUMPI DUP2 PUSH1 0x20 ADD JUMPDEST PUSH2 0xB12 PUSH2 0xE0D JUMP JUMPDEST DUP2 MSTORE PUSH1 0x20 ADD SWAP1 PUSH1 0x1 SWAP1 SUB SWAP1 DUP2 PUSH2 0xB0A JUMPI SWAP1 POP JUMPDEST POP DUP5 PUSH1 0x40 ADD DUP2 SWAP1 MSTORE POP DUP3 DUP5 PUSH1 0x40 ADD MLOAD PUSH0 DUP2 MLOAD DUP2 LT PUSH2 0xB46 JUMPI PUSH2 0xB45 PUSH2 0x13C6 JUMP JUMPDEST JUMPDEST PUSH1 0x20 MUL PUSH1 0x20 ADD ADD DUP2 SWAP1 MSTORE POP PUSH0 DUP1 DUP7 PUSH20 0xFFFFFFFFFFFFFFFFFFFFFFFFFFFFFFFFFFFFFFFF AND DUP7 PUSH1 0x40 MLOAD PUSH1 0x20 ADD PUSH2 0xB7B SWAP2 SWAP1 PUSH2 0x18D2 JUMP JUMPDEST PUSH1 0x40 MLOAD PUSH1 0x20 DUP2 DUP4 SUB SUB DUP2 MSTORE SWAP1 PUSH1 0x40 MSTORE PUSH1 0x40 MLOAD PUSH2 0xB97 SWAP2 SWAP1 PUSH2 0x192C JUMP JUMPDEST PUSH0 PUSH1 0x40 MLOAD DUP1 DUP4 SUB DUP2 PUSH0 DUP7 GAS CALL SWAP2 POP POP RETURNDATASIZE DUP1 PUSH0 DUP2 EQ PUSH2 0xBD0 JUMPI PUSH1 0x40 MLOAD SWAP2 POP PUSH1 0x1F NOT PUSH1 0x3F RETURNDATASIZE ADD AND DUP3 ADD PUSH1 0x40 MSTORE RETURNDATASIZE DUP3 MSTORE RETURNDATASIZE PUSH0 PUSH1 0x20 DUP5 ADD RETURNDATACOPY PUSH2 0xBD5 JUMP JUMPDEST PUSH1 0x60 SWAP2 POP JUMPDEST POP SWAP2 POP SWAP2 POP DUP2 PUSH2 0xC1A JUMPI PUSH1 0x40 MLOAD PUSH32 0x8C379A000000000000000000000000000000000000000000000000000000000 DUP2 MSTORE PUSH1 0x4 ADD PUSH2 0xC11 SWAP1 PUSH2 0x198C JUMP JUMPDEST PUSH1 0x40 MLOAD DUP1 SWAP2 SUB SWAP1 REVERT JUMPDEST DUP1 SWAP8 POP POP POP POP POP POP POP POP SWAP3 SWAP2 POP POP JUMP JUMPDEST PUSH1 0x60 PUSH0 PUSH1 0x4 DUP4 MLOAD PUSH2 0xC3B SWAP2 SWAP1 PUSH2 0x1A56 JUMP JUMPDEST PUSH8 0xFFFFFFFFFFFFFFFF DUP2 GT ISZERO PUSH2 0xC54 JUMPI PUSH2 0xC53 PUSH2 0xE97 JUMP JUMPDEST JUMPDEST PUSH1 0x40 MLOAD SWAP1 DUP1 DUP3 MSTORE DUP1 PUSH1 0x1F ADD PUSH1 0x1F NOT AND PUSH1 0x20 ADD DUP3 ADD PUSH1 0x40 MSTORE DUP1 ISZERO PUSH2 0xC86 JUMPI DUP2 PUSH1 0x20 ADD PUSH1 0x1 DUP3 MUL DUP1 CALLDATASIZE DUP4 CALLDATACOPY DUP1 DUP3 ADD SWAP2 POP POP SWAP1 POP JUMPDEST POP SWAP1 POP PUSH0 PUSH1 0x4 SWAP1 POP JUMPDEST DUP4 MLOAD DUP2 LT ISZERO PUSH2 0xD10 JUMPI DUP4 DUP2 DUP2 MLOAD DUP2 LT PUSH2 0xCAB JUMPI PUSH2 0xCAA PUSH2 0x13C6 JUMP JUMPDEST JUMPDEST PUSH1 0x20 ADD ADD MLOAD PUSH1 0xF8 SHR PUSH1 0xF8 SHL DUP3 PUSH1 0x4 DUP4 PUSH2 0xCC4 SWAP2 SWAP1 PUSH2 0x1A56 JUMP JUMPDEST DUP2 MLOAD DUP2 LT PUSH2 0xCD5 JUMPI PUSH2 0xCD4 PUSH2 0x13C6 JUMP JUMPDEST JUMPDEST PUSH1 0x20 ADD ADD SWAP1 PUSH31 0xFFFFFFFFFFFFFFFFFFFFFFFFFFFFFFFFFFFFFFFFFFFFFFFFFFFFFFFFFFFFFF NOT AND SWAP1 DUP2 PUSH0 BYTE SWAP1 MSTORE8 POP DUP1 DUP1 PUSH1 0x1 ADD SWAP2 POP POP PUSH2 0xC8F JUMP JUMPDEST POP DUP1 SWAP2 POP POP SWAP2 SWAP1 POP JUMP JUMPDEST PUSH0 DUP1 DUP3 MLOAD SWAP1 POP PUSH2 0xD29 DUP2 PUSH2 0xD31 JUMP JUMPDEST SWAP2 POP POP SWAP2 SWAP1 POP JUMP JUMPDEST PUSH0 DUP1 DUP3 PUSH0 SHL SWAP1 POP DUP1 PUSH1 0x1C PUSH1 0x20 DUP2 LT PUSH2 0xD4C JUMPI PUSH2 0xD4B PUSH2 0x13C6 JUMP JUMPDEST JUMPDEST BYTE PUSH1 0xF8 SHL PUSH1 0xF8 SHR PUSH1 0xFF AND PUSH1 0x8 DUP3 PUSH1 0x1D PUSH1 0x20 DUP2 LT PUSH2 0xD6C JUMPI PUSH2 0xD6B PUSH2 0x13C6 JUMP JUMPDEST JUMPDEST BYTE PUSH1 0xF8 SHL PUSH1 0xF8 SHR PUSH1 0xFF AND PUSH4 0xFFFFFFFF AND SWAP1 SHL PUSH1 0x10 DUP4 PUSH1 0x1E PUSH1 0x20 DUP2 LT PUSH2 0xD94 JUMPI PUSH2 0xD93 PUSH2 0x13C6 JUMP JUMPDEST JUMPDEST BYTE PUSH1 0xF8 SHL PUSH1 0xF8 SHR PUSH1 0xFF AND PUSH4 0xFFFFFFFF AND SWAP1 SHL PUSH1 0x18 DUP5 PUSH1 0x1F PUSH1 0x20 DUP2 LT PUSH2 0xDBC JUMPI PUSH2 0xDBB PUSH2 0x13C6 JUMP JUMPDEST JUMPDEST BYTE PUSH1 0xF8 SHL PUSH1 0xF8 SHR PUSH1 0xFF AND PUSH4 0xFFFFFFFF AND SWAP1 SHL OR OR OR PUSH1 0xE0 SHL SWAP2 POP POP SWAP2 SWAP1 POP JUMP JUMPDEST PUSH1 0x40 MLOAD DUP1 PUSH1 0x80 ADD PUSH1 0x40 MSTORE DUP1 PUSH1 0x60 DUP2 MSTORE PUSH1 0x20 ADD PUSH1 0x60 DUP2 MSTORE PUSH1 0x20 ADD PUSH1 0x60 DUP2 MSTORE PUSH1 0x20 ADD PUSH0 PUSH8 0xFFFFFFFFFFFFFFFF AND DUP2 MSTORE POP SWAP1 JUMP JUMPDEST PUSH1 0x40 MLOAD DUP1 PUSH1 0x60 ADD PUSH1 0x40 MSTORE DUP1 PUSH1 0x60 DUP2 MSTORE PUSH1 0x20 ADD PUSH1 0x60 DUP2 MSTORE PUSH1 0x20 ADD PUSH1 0x60 DUP2 MSTORE POP SWAP1 JUMP JUMPDEST PUSH1 0x40 MLOAD DUP1 PUSH1 0xA0 ADD PUSH1 0x40 MSTORE DUP1 PUSH0 PUSH4 0xFFFFFFFF AND DUP2 MSTORE PUSH1 0x20 ADD PUSH0 PUSH4 0xFFFFFFFF AND DUP2 MSTORE PUSH1 0x20 ADD PUSH0 PUSH4 0xFFFFFFFF AND DUP2 MSTORE PUSH1 0x20 ADD PUSH0 ISZERO ISZERO DUP2 MSTORE PUSH1 0x20 ADD PUSH0 ISZERO ISZERO DUP2 MSTORE POP SWAP1 JUMP JUMPDEST PUSH0 PUSH1 0x40 MLOAD SWAP1 POP SWAP1 JUMP JUMPDEST PUSH0 DUP1 REVERT JUMPDEST PUSH0 DUP1 REVERT JUMPDEST PUSH0 DUP1 REVERT JUMPDEST PUSH0 DUP1 REVERT JUMPDEST PUSH0 PUSH1 0x1F NOT PUSH1 0x1F DUP4 ADD AND SWAP1 POP SWAP2 SWAP1 POP JUMP JUMPDEST PUSH32 0x4E487B7100000000000000000000000000000000000000000000000000000000 PUSH0 MSTORE PUSH1 0x41 PUSH1 0x4 MSTORE PUSH1 0x24 PUSH0 REVERT JUMPDEST PUSH2 0xECD DUP3 PUSH2 0xE87 JUMP JUMPDEST DUP2 ADD DUP2 DUP2 LT PUSH8 0xFFFFFFFFFFFFFFFF DUP3 GT OR ISZERO PUSH2 0xEEC JUMPI PUSH2 0xEEB PUSH2 0xE97 JUMP JUMPDEST JUMPDEST DUP1 PUSH1 0x40 MSTORE POP POP POP JUMP JUMPDEST PUSH0 PUSH2 0xEFE PUSH2 0xE6E JUMP JUMPDEST SWAP1 POP PUSH2 0xF0A DUP3 DUP3 PUSH2 0xEC4 JUMP JUMPDEST SWAP2 SWAP1 POP JUMP JUMPDEST PUSH0 PUSH8 0xFFFFFFFFFFFFFFFF DUP3 GT ISZERO PUSH2 0xF29 JUMPI PUSH2 0xF28 PUSH2 0xE97 JUMP JUMPDEST JUMPDEST PUSH2 0xF32 DUP3 PUSH2 0xE87 JUMP JUMPDEST SWAP1 POP PUSH1 0x20 DUP2 ADD SWAP1 POP SWAP2 SWAP1 POP JUMP JUMPDEST DUP3 DUP2 DUP4 CALLDATACOPY PUSH0 DUP4 DUP4 ADD MSTORE POP POP POP JUMP JUMPDEST PUSH0 PUSH2 0xF5F PUSH2 0xF5A DUP5 PUSH2 0xF0F JUMP JUMPDEST PUSH2 0xEF5 JUMP JUMPDEST SWAP1 POP DUP3 DUP2 MSTORE PUSH1 0x20 DUP2 ADD DUP5 DUP5 DUP5 ADD GT ISZERO PUSH2 0xF7B JUMPI PUSH2 0xF7A PUSH2 0xE83 JUMP JUMPDEST JUMPDEST PUSH2 0xF86 DUP5 DUP3 DUP6 PUSH2 0xF3F JUMP JUMPDEST POP SWAP4 SWAP3 POP POP POP JUMP JUMPDEST PUSH0 DUP3 PUSH1 0x1F DUP4 ADD SLT PUSH2 0xFA2 JUMPI PUSH2 0xFA1 PUSH2 0xE7F JUMP JUMPDEST JUMPDEST DUP2 CALLDATALOAD PUSH2 0xFB2 DUP5 DUP3 PUSH1 0x20 DUP7 ADD PUSH2 0xF4D JUMP JUMPDEST SWAP2 POP POP SWAP3 SWAP2 POP POP JUMP JUMPDEST PUSH0 PUSH1 0x20 DUP3 DUP5 SUB SLT ISZERO PUSH2 0xFD0 JUMPI PUSH2 0xFCF PUSH2 0xE77 JUMP JUMPDEST JUMPDEST PUSH0 DUP3 ADD CALLDATALOAD PUSH8 0xFFFFFFFFFFFFFFFF DUP2 GT ISZERO PUSH2 0xFED JUMPI PUSH2 0xFEC PUSH2 0xE7B JUMP JUMPDEST JUMPDEST PUSH2 0xFF9 DUP5 DUP3 DUP6 ADD PUSH2 0xF8E JUMP JUMPDEST SWAP2 POP POP SWAP3 SWAP2 POP POP JUMP JUMPDEST PUSH0 DUP2 MLOAD SWAP1 POP SWAP2 SWAP1 POP JUMP JUMPDEST PUSH0 DUP3 DUP3 MSTORE PUSH1 0x20 DUP3 ADD SWAP1 POP SWAP3 SWAP2 POP POP JUMP JUMPDEST DUP3 DUP2 DUP4 MCOPY PUSH0 DUP4 DUP4 ADD MSTORE POP POP POP JUMP JUMPDEST PUSH0 PUSH2 0x1034 DUP3 PUSH2 0x1002 JUMP JUMPDEST PUSH2 0x103E DUP2 DUP6 PUSH2 0x100C JUMP JUMPDEST SWAP4 POP PUSH2 0x104E DUP2 DUP6 PUSH1 0x20 DUP7 ADD PUSH2 0x101C JUMP JUMPDEST PUSH2 0x1057 DUP2 PUSH2 0xE87 JUMP JUMPDEST DUP5 ADD SWAP2 POP POP SWAP3 SWAP2 POP POP JUMP JUMPDEST PUSH0 PUSH1 0x20 DUP3 ADD SWAP1 POP DUP2 DUP2 SUB PUSH0 DUP4 ADD MSTORE PUSH2 0x107A DUP2 DUP5 PUSH2 0x102A JUMP JUMPDEST SWAP1 POP SWAP3 SWAP2 POP POP JUMP JUMPDEST PUSH0 DUP2 MLOAD SWAP1 POP SWAP2 SWAP1 POP JUMP JUMPDEST PUSH0 DUP3 DUP3 MSTORE PUSH1 0x20 DUP3 ADD SWAP1 POP SWAP3 SWAP2 POP POP JUMP JUMPDEST PUSH0 PUSH2 0x10A6 DUP3 PUSH2 0x1082 JUMP JUMPDEST PUSH2 0x10B0 DUP2 DUP6 PUSH2 0x108C JUMP JUMPDEST SWAP4 POP PUSH2 0x10C0 DUP2 DUP6 PUSH1 0x20 DUP7 ADD PUSH2 0x101C JUMP JUMPDEST PUSH2 0x10C9 DUP2 PUSH2 0xE87 JUMP JUMPDEST DUP5 ADD SWAP2 POP POP SWAP3 SWAP2 POP POP JUMP JUMPDEST PUSH0 PUSH1 0x20 DUP3 ADD SWAP1 POP DUP2 DUP2 SUB PUSH0 DUP4 ADD MSTORE PUSH2 0x10EC DUP2 DUP5 PUSH2 0x109C JUMP JUMPDEST SWAP1 POP SWAP3 SWAP2 POP POP JUMP JUMPDEST PUSH32 0x4E487B7100000000000000000000000000000000000000000000000000000000 PUSH0 MSTORE PUSH1 0x22 PUSH1 0x4 MSTORE PUSH1 0x24 PUSH0 REVERT JUMPDEST PUSH0 PUSH1 0x2 DUP3 DIV SWAP1 POP PUSH1 0x1 DUP3 AND DUP1 PUSH2 0x1138 JUMPI PUSH1 0x7F DUP3 AND SWAP2 POP JUMPDEST PUSH1 0x20 DUP3 LT DUP2 SUB PUSH2 0x114B JUMPI PUSH2 0x114A PUSH2 0x10F4 JUMP JUMPDEST JUMPDEST POP SWAP2 SWAP1 POP JUMP JUMPDEST PUSH0 DUP2 SWAP1 POP DUP2 PUSH0 MSTORE PUSH1 0x20 PUSH0 KECCAK256 SWAP1 POP SWAP2 SWAP1 POP JUMP JUMPDEST PUSH0 PUSH1 0x20 PUSH1 0x1F DUP4 ADD DIV SWAP1 POP SWAP2 SWAP1 POP JUMP JUMPDEST PUSH0 DUP3 DUP3 SHL SWAP1 POP SWAP3 SWAP2 POP POP JUMP JUMPDEST PUSH0 PUSH1 0x8 DUP4 MUL PUSH2 0x11AD PUSH32 0xFFFFFFFFFFFFFFFFFFFFFFFFFFFFFFFFFFFFFFFFFFFFFFFFFFFFFFFFFFFFFFFF DUP3 PUSH2 0x1172 JUMP JUMPDEST PUSH2 0x11B7 DUP7 DUP4 PUSH2 0x1172 JUMP JUMPDEST SWAP6 POP DUP1 NOT DUP5 AND SWAP4 POP DUP1 DUP7 AND DUP5 OR SWAP3 POP POP POP SWAP4 SWAP3 POP POP POP JUMP JUMPDEST PUSH0 DUP2 SWAP1 POP SWAP2 SWAP1 POP JUMP JUMPDEST PUSH0 DUP2 SWAP1 POP SWAP2 SWAP1 POP JUMP JUMPDEST PUSH0 PUSH2 0x11FB PUSH2 0x11F6 PUSH2 0x11F1 DUP5 PUSH2 0x11CF JUMP JUMPDEST PUSH2 0x11D8 JUMP JUMPDEST PUSH2 0x11CF JUMP JUMPDEST SWAP1 POP SWAP2 SWAP1 POP JUMP JUMPDEST PUSH0 DUP2 SWAP1 POP SWAP2 SWAP1 POP JUMP JUMPDEST PUSH2 0x1214 DUP4 PUSH2 0x11E1 JUMP JUMPDEST PUSH2 0x1228 PUSH2 0x1220 DUP3 PUSH2 0x1202 JUMP JUMPDEST DUP5 DUP5 SLOAD PUSH2 0x117E JUMP JUMPDEST DUP3 SSTORE POP POP POP POP JUMP JUMPDEST PUSH0 SWAP1 JUMP JUMPDEST PUSH2 0x123C PUSH2 0x1230 JUMP JUMPDEST PUSH2 0x1247 DUP2 DUP5 DUP5 PUSH2 0x120B JUMP JUMPDEST POP POP POP JUMP JUMPDEST JUMPDEST DUP2 DUP2 LT ISZERO PUSH2 0x126A JUMPI PUSH2 0x125F PUSH0 DUP3 PUSH2 0x1234 JUMP JUMPDEST PUSH1 0x1 DUP2 ADD SWAP1 POP PUSH2 0x124D JUMP JUMPDEST POP POP JUMP JUMPDEST PUSH1 0x1F DUP3 GT ISZERO PUSH2 0x12AF JUMPI PUSH2 0x1280 DUP2 PUSH2 0x1151 JUMP JUMPDEST PUSH2 0x1289 DUP5 PUSH2 0x1163 JUMP JUMPDEST DUP2 ADD PUSH1 0x20 DUP6 LT ISZERO PUSH2 0x1298 JUMPI DUP2 SWAP1 POP JUMPDEST PUSH2 0x12AC PUSH2 0x12A4 DUP6 PUSH2 0x1163 JUMP JUMPDEST DUP4 ADD DUP3 PUSH2 0x124C JUMP JUMPDEST POP POP JUMPDEST POP POP POP JUMP JUMPDEST PUSH0 DUP3 DUP3 SHR SWAP1 POP SWAP3 SWAP2 POP POP JUMP JUMPDEST PUSH0 PUSH2 0x12CF PUSH0 NOT DUP5 PUSH1 0x8 MUL PUSH2 0x12B4 JUMP JUMPDEST NOT DUP1 DUP4 AND SWAP2 POP POP SWAP3 SWAP2 POP POP JUMP JUMPDEST PUSH0 PUSH2 0x12E7 DUP4 DUP4 PUSH2 0x12C0 JUMP JUMPDEST SWAP2 POP DUP3 PUSH1 0x2 MUL DUP3 OR SWAP1 POP SWAP3 SWAP2 POP POP JUMP JUMPDEST PUSH2 0x1300 DUP3 PUSH2 0x1082 JUMP JUMPDEST PUSH8 0xFFFFFFFFFFFFFFFF DUP2 GT ISZERO PUSH2 0x1319 JUMPI PUSH2 0x1318 PUSH2 0xE97 JUMP JUMPDEST JUMPDEST PUSH2 0x1323 DUP3 SLOAD PUSH2 0x1121 JUMP JUMPDEST PUSH2 0x132E DUP3 DUP3 DUP6 PUSH2 0x126E JUMP JUMPDEST PUSH0 PUSH1 0x20 SWAP1 POP PUSH1 0x1F DUP4 GT PUSH1 0x1 DUP2 EQ PUSH2 0x135F JUMPI PUSH0 DUP5 ISZERO PUSH2 0x134D JUMPI DUP3 DUP8 ADD MLOAD SWAP1 POP JUMPDEST PUSH2 0x1357 DUP6 DUP3 PUSH2 0x12DC JUMP JUMPDEST DUP7 SSTORE POP PUSH2 0x13BE JUMP JUMPDEST PUSH1 0x1F NOT DUP5 AND PUSH2 0x136D DUP7 PUSH2 0x1151 JUMP JUMPDEST PUSH0 JUMPDEST DUP3 DUP2 LT ISZERO PUSH2 0x1394 JUMPI DUP5 DUP10 ADD MLOAD DUP3 SSTORE PUSH1 0x1 DUP3 ADD SWAP2 POP PUSH1 0x20 DUP6 ADD SWAP5 POP PUSH1 0x20 DUP2 ADD SWAP1 POP PUSH2 0x136F JUMP JUMPDEST DUP7 DUP4 LT ISZERO PUSH2 0x13B1 JUMPI DUP5 DUP10 ADD MLOAD PUSH2 0x13AD PUSH1 0x1F DUP10 AND DUP3 PUSH2 0x12C0 JUMP JUMPDEST DUP4 SSTORE POP JUMPDEST PUSH1 0x1 PUSH1 0x2 DUP9 MUL ADD DUP9 SSTORE POP POP POP JUMPDEST POP POP POP POP POP POP JUMP JUMPDEST PUSH32 0x4E487B7100000000000000000000000000000000000000000000000000000000 PUSH0 MSTORE PUSH1 0x32 PUSH1 0x4 MSTORE PUSH1 0x24 PUSH0 REVERT JUMPDEST PUSH0 DUP2 MLOAD SWAP1 POP SWAP2 SWAP1 POP JUMP JUMPDEST PUSH0 DUP3 DUP3 MSTORE PUSH1 0x20 DUP3 ADD SWAP1 POP SWAP3 SWAP2 POP POP JUMP JUMPDEST PUSH0 DUP2 SWAP1 POP PUSH1 0x20 DUP3 ADD SWAP1 POP SWAP2 SWAP1 POP JUMP JUMPDEST PUSH0 DUP3 DUP3 MSTORE PUSH1 0x20 DUP3 ADD SWAP1 POP SWAP3 SWAP2 POP POP JUMP JUMPDEST PUSH0 PUSH2 0x1436 DUP3 PUSH2 0x1082 JUMP JUMPDEST PUSH2 0x1440 DUP2 DUP6 PUSH2 0x141C JUMP JUMPDEST SWAP4 POP PUSH2 0x1450 DUP2 DUP6 PUSH1 0x20 DUP7 ADD PUSH2 0x101C JUMP JUMPDEST PUSH2 0x1459 DUP2 PUSH2 0xE87 JUMP JUMPDEST DUP5 ADD SWAP2 POP POP SWAP3 SWAP2 POP POP JUMP JUMPDEST PUSH0 PUSH2 0x146F DUP4 DUP4 PUSH2 0x142C JUMP JUMPDEST SWAP1 POP SWAP3 SWAP2 POP POP JUMP JUMPDEST PUSH0 PUSH1 0x20 DUP3 ADD SWAP1 POP SWAP2 SWAP1 POP JUMP JUMPDEST PUSH0 PUSH2 0x148D DUP3 PUSH2 0x13F3 JUMP JUMPDEST PUSH2 0x1497 DUP2 DUP6 PUSH2 0x13FD JUMP JUMPDEST SWAP4 POP DUP4 PUSH1 0x20 DUP3 MUL DUP6 ADD PUSH2 0x14A9 DUP6 PUSH2 0x140D JUMP JUMPDEST DUP1 PUSH0 JUMPDEST DUP6 DUP2 LT ISZERO PUSH2 0x14E4 JUMPI DUP5 DUP5 SUB DUP10 MSTORE DUP2 MLOAD PUSH2 0x14C5 DUP6 DUP3 PUSH2 0x1464 JUMP JUMPDEST SWAP5 POP PUSH2 0x14D0 DUP4 PUSH2 0x1477 JUMP JUMPDEST SWAP3 POP PUSH1 0x20 DUP11 ADD SWAP10 POP POP PUSH1 0x1 DUP2 ADD SWAP1 POP PUSH2 0x14AC JUMP JUMPDEST POP DUP3 SWAP8 POP DUP8 SWAP6 POP POP POP POP POP POP SWAP3 SWAP2 POP POP JUMP JUMPDEST PUSH0 DUP2 MLOAD SWAP1 POP SWAP2 SWAP1 POP JUMP JUMPDEST PUSH0 DUP3 DUP3 MSTORE PUSH1 0x20 DUP3 ADD SWAP1 POP SWAP3 SWAP2 POP POP JUMP JUMPDEST PUSH0 DUP2 SWAP1 POP PUSH1 0x20 DUP3 ADD SWAP1 POP SWAP2 SWAP1 POP JUMP JUMPDEST PUSH0 DUP2 MLOAD SWAP1 POP SWAP2 SWAP1 POP JUMP JUMPDEST PUSH0 DUP3 DUP3 MSTORE PUSH1 0x20 DUP3 ADD SWAP1 POP SWAP3 SWAP2 POP POP JUMP JUMPDEST PUSH0 DUP2 SWAP1 POP PUSH1 0x20 DUP3 ADD SWAP1 POP SWAP2 SWAP1 POP JUMP JUMPDEST PUSH0 PUSH4 0xFFFFFFFF DUP3 AND SWAP1 POP SWAP2 SWAP1 POP JUMP JUMPDEST PUSH2 0x1560 DUP2 PUSH2 0x1548 JUMP JUMPDEST DUP3 MSTORE POP POP JUMP JUMPDEST PUSH0 PUSH2 0x1571 DUP4 DUP4 PUSH2 0x1557 JUMP JUMPDEST PUSH1 0x20 DUP4 ADD SWAP1 POP SWAP3 SWAP2 POP POP JUMP JUMPDEST PUSH0 PUSH1 0x20 DUP3 ADD SWAP1 POP SWAP2 SWAP1 POP JUMP JUMPDEST PUSH0 PUSH2 0x1593 DUP3 PUSH2 0x151F JUMP JUMPDEST PUSH2 0x159D DUP2 DUP6 PUSH2 0x1529 JUMP JUMPDEST SWAP4 POP PUSH2 0x15A8 DUP4 PUSH2 0x1539 JUMP JUMPDEST DUP1 PUSH0 JUMPDEST DUP4 DUP2 LT ISZERO PUSH2 0x15D8 JUMPI DUP2 MLOAD PUSH2 0x15BF DUP9 DUP3 PUSH2 0x1566 JUMP JUMPDEST SWAP8 POP PUSH2 0x15CA DUP4 PUSH2 0x157D JUMP JUMPDEST SWAP3 POP POP PUSH1 0x1 DUP2 ADD SWAP1 POP PUSH2 0x15AB JUMP JUMPDEST POP DUP6 SWAP4 POP POP POP POP SWAP3 SWAP2 POP POP JUMP JUMPDEST PUSH0 DUP2 MLOAD SWAP1 POP SWAP2 SWAP1 POP JUMP JUMPDEST PUSH0 DUP3 DUP3 MSTORE PUSH1 0x20 DUP3 ADD SWAP1 POP SWAP3 SWAP2 POP POP JUMP JUMPDEST PUSH0 DUP2 SWAP1 POP PUSH1 0x20 DUP3 ADD SWAP1 POP SWAP2 SWAP1 POP JUMP JUMPDEST PUSH0 DUP2 ISZERO ISZERO SWAP1 POP SWAP2 SWAP1 POP JUMP JUMPDEST PUSH2 0x1622 DUP2 PUSH2 0x160E JUMP JUMPDEST DUP3 MSTORE POP POP JUMP JUMPDEST PUSH1 0xA0 DUP3 ADD PUSH0 DUP3 ADD MLOAD PUSH2 0x163C PUSH0 DUP6 ADD DUP3 PUSH2 0x1557 JUMP JUMPDEST POP PUSH1 0x20 DUP3 ADD MLOAD PUSH2 0x164F PUSH1 0x20 DUP6 ADD DUP3 PUSH2 0x1557 JUMP JUMPDEST POP PUSH1 0x40 DUP3 ADD MLOAD PUSH2 0x1662 PUSH1 0x40 DUP6 ADD DUP3 PUSH2 0x1557 JUMP JUMPDEST POP PUSH1 0x60 DUP3 ADD MLOAD PUSH2 0x1675 PUSH1 0x60 DUP6 ADD DUP3 PUSH2 0x1619 JUMP JUMPDEST POP PUSH1 0x80 DUP3 ADD MLOAD PUSH2 0x1688 PUSH1 0x80 DUP6 ADD DUP3 PUSH2 0x1619 JUMP JUMPDEST POP POP POP POP JUMP JUMPDEST PUSH0 PUSH2 0x1699 DUP4 DUP4 PUSH2 0x1628 JUMP JUMPDEST PUSH1 0xA0 DUP4 ADD SWAP1 POP SWAP3 SWAP2 POP POP JUMP JUMPDEST PUSH0 PUSH1 0x20 DUP3 ADD SWAP1 POP SWAP2 SWAP1 POP JUMP JUMPDEST PUSH0 PUSH2 0x16BB DUP3 PUSH2 0x15E5 JUMP JUMPDEST PUSH2 0x16C5 DUP2 DUP6 PUSH2 0x15EF JUMP JUMPDEST SWAP4 POP PUSH2 0x16D0 DUP4 PUSH2 0x15FF JUMP JUMPDEST DUP1 PUSH0 JUMPDEST DUP4 DUP2 LT ISZERO PUSH2 0x1700 JUMPI DUP2 MLOAD PUSH2 0x16E7 DUP9 DUP3 PUSH2 0x168E JUMP JUMPDEST SWAP8 POP PUSH2 0x16F2 DUP4 PUSH2 0x16A5 JUMP JUMPDEST SWAP3 POP POP PUSH1 0x1 DUP2 ADD SWAP1 POP PUSH2 0x16D3 JUMP JUMPDEST POP DUP6 SWAP4 POP POP POP POP SWAP3 SWAP2 POP POP JUMP JUMPDEST PUSH0 DUP3 DUP3 MSTORE PUSH1 0x20 DUP3 ADD SWAP1 POP SWAP3 SWAP2 POP POP JUMP JUMPDEST PUSH0 PUSH2 0x1727 DUP3 PUSH2 0x1002 JUMP JUMPDEST PUSH2 0x1731 DUP2 DUP6 PUSH2 0x170D JUMP JUMPDEST SWAP4 POP PUSH2 0x1741 DUP2 DUP6 PUSH1 0x20 DUP7 ADD PUSH2 0x101C JUMP JUMPDEST PUSH2 0x174A DUP2 PUSH2 0xE87 JUMP JUMPDEST DUP5 ADD SWAP2 POP POP SWAP3 SWAP2 POP POP JUMP JUMPDEST PUSH0 PUSH1 0x60 DUP4 ADD PUSH0 DUP4 ADD MLOAD DUP5 DUP3 SUB PUSH0 DUP7 ADD MSTORE PUSH2 0x176F DUP3 DUP3 PUSH2 0x1589 JUMP JUMPDEST SWAP2 POP POP PUSH1 0x20 DUP4 ADD MLOAD DUP5 DUP3 SUB PUSH1 0x20 DUP7 ADD MSTORE PUSH2 0x1789 DUP3 DUP3 PUSH2 0x16B1 JUMP JUMPDEST SWAP2 POP POP PUSH1 0x40 DUP4 ADD MLOAD DUP5 DUP3 SUB PUSH1 0x40 DUP7 ADD MSTORE PUSH2 0x17A3 DUP3 DUP3 PUSH2 0x171D JUMP JUMPDEST SWAP2 POP POP DUP1 SWAP2 POP POP SWAP3 SWAP2 POP POP JUMP JUMPDEST PUSH0 PUSH2 0x17BB DUP4 DUP4 PUSH2 0x1755 JUMP JUMPDEST SWAP1 POP SWAP3 SWAP2 POP POP JUMP JUMPDEST PUSH0 PUSH1 0x20 DUP3 ADD SWAP1 POP SWAP2 SWAP1 POP JUMP JUMPDEST PUSH0 PUSH2 0x17D9 DUP3 PUSH2 0x14F6 JUMP JUMPDEST PUSH2 0x17E3 DUP2 DUP6 PUSH2 0x1500 JUMP JUMPDEST SWAP4 POP DUP4 PUSH1 0x20 DUP3 MUL DUP6 ADD PUSH2 0x17F5 DUP6 PUSH2 0x1510 JUMP JUMPDEST DUP1 PUSH0 JUMPDEST DUP6 DUP2 LT ISZERO PUSH2 0x1830 JUMPI DUP5 DUP5 SUB DUP10 MSTORE DUP2 MLOAD PUSH2 0x1811 DUP6 DUP3 PUSH2 0x17B0 JUMP JUMPDEST SWAP5 POP PUSH2 0x181C DUP4 PUSH2 0x17C3 JUMP JUMPDEST SWAP3 POP PUSH1 0x20 DUP11 ADD SWAP10 POP POP PUSH1 0x1 DUP2 ADD SWAP1 POP PUSH2 0x17F8 JUMP JUMPDEST POP DUP3 SWAP8 POP DUP8 SWAP6 POP POP POP POP POP POP SWAP3 SWAP2 POP POP JUMP JUMPDEST PUSH0 PUSH8 0xFFFFFFFFFFFFFFFF DUP3 AND SWAP1 POP SWAP2 SWAP1 POP JUMP JUMPDEST PUSH2 0x185E DUP2 PUSH2 0x1842 JUMP JUMPDEST DUP3 MSTORE POP POP JUMP JUMPDEST PUSH0 PUSH1 0x80 DUP4 ADD PUSH0 DUP4 ADD MLOAD DUP5 DUP3 SUB PUSH0 DUP7 ADD MSTORE PUSH2 0x187E DUP3 DUP3 PUSH2 0x1483 JUMP JUMPDEST SWAP2 POP POP PUSH1 0x20 DUP4 ADD MLOAD DUP5 DUP3 SUB PUSH1 0x20 DUP7 ADD MSTORE PUSH2 0x1898 DUP3 DUP3 PUSH2 0x1483 JUMP JUMPDEST SWAP2 POP POP PUSH1 0x40 DUP4 ADD MLOAD DUP5 DUP3 SUB PUSH1 0x40 DUP7 ADD MSTORE PUSH2 0x18B2 DUP3 DUP3 PUSH2 0x17CF JUMP JUMPDEST SWAP2 POP POP PUSH1 0x60 DUP4 ADD MLOAD PUSH2 0x18C7 PUSH1 0x60 DUP7 ADD DUP3 PUSH2 0x1855 JUMP JUMPDEST POP DUP1 SWAP2 POP POP SWAP3 SWAP2 POP POP JUMP JUMPDEST PUSH0 PUSH1 0x20 DUP3 ADD SWAP1 POP DUP2 DUP2 SUB PUSH0 DUP4 ADD MSTORE PUSH2 0x18EA DUP2 DUP5 PUSH2 0x1864 JUMP JUMPDEST SWAP1 POP SWAP3 SWAP2 POP POP JUMP JUMPDEST PUSH0 DUP2 SWAP1 POP SWAP3 SWAP2 POP POP JUMP JUMPDEST PUSH0 PUSH2 0x1906 DUP3 PUSH2 0x1002 JUMP JUMPDEST PUSH2 0x1910 DUP2 DUP6 PUSH2 0x18F2 JUMP JUMPDEST SWAP4 POP PUSH2 0x1920 DUP2 DUP6 PUSH1 0x20 DUP7 ADD PUSH2 0x101C JUMP JUMPDEST DUP1 DUP5 ADD SWAP2 POP POP SWAP3 SWAP2 POP POP JUMP JUMPDEST PUSH0 PUSH2 0x1937 DUP3 DUP5 PUSH2 0x18FC JUMP JUMPDEST SWAP2 POP DUP2 SWAP1 POP SWAP3 SWAP2 POP POP JUMP JUMPDEST PUSH32 0x63616C6C206D7573742073756363656564000000000000000000000000000000 PUSH0 DUP3 ADD MSTORE POP JUMP JUMPDEST PUSH0 PUSH2 0x1976 PUSH1 0x11 DUP4 PUSH2 0x108C JUMP JUMPDEST SWAP2 POP PUSH2 0x1981 DUP3 PUSH2 0x1942 JUMP JUMPDEST PUSH1 0x20 DUP3 ADD SWAP1 POP SWAP2 SWAP1 POP JUMP JUMPDEST PUSH0 PUSH1 0x20 DUP3 ADD SWAP1 POP DUP2 DUP2 SUB PUSH0 DUP4 ADD MSTORE PUSH2 0x19A3 DUP2 PUSH2 0x196A JUMP JUMPDEST SWAP1 POP SWAP2 SWAP1 POP JUMP JUMPDEST PUSH0 PUSH32 0xFFFFFFFF00000000000000000000000000000000000000000000000000000000 DUP3 AND SWAP1 POP SWAP2 SWAP1 POP JUMP JUMPDEST PUSH0 DUP2 SWAP1 POP SWAP2 SWAP1 POP JUMP JUMPDEST PUSH2 0x19EF PUSH2 0x19EA DUP3 PUSH2 0x19AA JUMP JUMPDEST PUSH2 0x19D5 JUMP JUMPDEST DUP3 MSTORE POP POP JUMP JUMPDEST PUSH0 PUSH2 0x1A00 DUP3 DUP7 PUSH2 0x18FC JUMP JUMPDEST SWAP2 POP PUSH2 0x1A0C DUP3 DUP6 PUSH2 0x19DE JUMP JUMPDEST PUSH1 0x4 DUP3 ADD SWAP2 POP PUSH2 0x1A1C DUP3 DUP5 PUSH2 0x18FC JUMP JUMPDEST SWAP2 POP DUP2 SWAP1 POP SWAP5 SWAP4 POP POP POP POP JUMP JUMPDEST PUSH32 0x4E487B7100000000000000000000000000000000000000000000000000000000 PUSH0 MSTORE PUSH1 0x11 PUSH1 0x4 MSTORE PUSH1 0x24 PUSH0 REVERT JUMPDEST PUSH0 PUSH2 0x1A60 DUP3 PUSH2 0x11CF JUMP JUMPDEST SWAP2 POP PUSH2 0x1A6B DUP4 PUSH2 0x11CF JUMP JUMPDEST SWAP3 POP DUP3 DUP3 SUB SWAP1 POP DUP2 DUP2 GT ISZERO PUSH2 0x1A83 JUMPI PUSH2 0x1A82 PUSH2 0x1A29 JUMP JUMPDEST JUMPDEST SWAP3 SWAP2 POP POP JUMP INVALID CODESIZE CALLER PUSH27 0x665A596163467247713565426E6E703645515078617063706A7078 PUSH5 0x6A414B704C PUSH2 0x7671 PUSH21 0x534A333232327A36483644655734554C4279514B4C GASLIMIT MSTORE PUSH21 0x486A536F44654669754369693876334E754C534166 ORIGIN PUSH5 0x62A2646970 PUSH7 0x735822122029B7 STATICCALL SWAP11 0x1F GASPRICE 0xAD PUSH27 0x17CF1A478F8795B24C0064C3BA2B9A37A85E862EA359232A64736F PUSH13 0x634300081A0033000000000000 "
	},
	"abi": [
		{
			"inputs": [],
			"name": "evmString",
			"outputs": [
				{
					"internalType": "string",
					"name": "",
					"type": "string"
				}
			],
			"stateMutability": "view",
			"type": "function"
		},
		{
			"inputs": [],
			"name": "getData",
			"outputs": [
				{
					"internalType": "string",
					"name": "",
					"type": "string"
				}
			],
			"stateMutability": "view",
			"type": "function"
		},
		{
			"inputs": [
				{
					"internalType": "string",
					"name": "_evmString",
					"type": "string"
				}
			],
			"name": "setData",
			"outputs": [],
			"stateMutability": "nonpayable",
			"type": "function"
		},
		{
			"inputs": [
				{
					"internalType": "string",
					"name": "svmFeePayer",
					"type": "string"
				}
			],
			"name": "setSvm",
			"outputs": [
				{
					"internalType": "bytes",
					"name": "result",
					"type": "bytes"
				}
			],
			"stateMutability": "nonpayable",
			"type": "function"
		}
	],
	"storageLayout": {
		"storage": [
			{
				"astId": 37,
				"contract": "contracts/4_Storage.sol:SvmSetter",
				"label": "evmString",
				"offset": 0,
				"slot": "0",
				"type": "t_string_storage"
			}
		],
		"types": {
			"t_string_storage": {
				"encoding": "bytes",
				"label": "string",
				"numberOfBytes": "32"
			}
		}
	},
	"web3Deploy": "var svmsetterContract = new web3.eth.Contract([{\"inputs\":[],\"name\":\"evmString\",\"outputs\":[{\"internalType\":\"string\",\"name\":\"\",\"type\":\"string\"}],\"stateMutability\":\"view\",\"type\":\"function\"},{\"inputs\":[],\"name\":\"getData\",\"outputs\":[{\"internalType\":\"string\",\"name\":\"\",\"type\":\"string\"}],\"stateMutability\":\"view\",\"type\":\"function\"},{\"inputs\":[{\"internalType\":\"string\",\"name\":\"_evmString\",\"type\":\"string\"}],\"name\":\"setData\",\"outputs\":[],\"stateMutability\":\"nonpayable\",\"type\":\"function\"},{\"inputs\":[{\"internalType\":\"string\",\"name\":\"svmFeePayer\",\"type\":\"string\"}],\"name\":\"setSvm\",\"outputs\":[{\"internalType\":\"bytes\",\"name\":\"result\",\"type\":\"bytes\"}],\"stateMutability\":\"nonpayable\",\"type\":\"function\"}]);\nvar svmsetter = svmsetterContract.deploy({\n     data: '0x6080604052348015600e575f80fd5b50611b178061001c5f395ff3fe608060405234801561000f575f80fd5b506004361061004a575f3560e01c80632962eb6a1461004e5780633163d2651461007e5780633bc5de301461009c57806347064d6a146100ba575b5f80fd5b61006860048036038101906100639190610fbb565b6100d6565b6040516100759190611062565b60405180910390f35b61008661019a565b60405161009391906110d4565b60405180910390f35b6100a4610225565b6040516100b191906110d4565b60405180910390f35b6100d460048036038101906100cf9190610fbb565b6102b4565b005b60607ff8251662139e6d88d3b6f2a5aa0f6fa9f87ec5bbe2e7f41da6c2ee0f71e0ebbc6101016102c6565b80519060200120036101535761014c826040518060400160405280600381526020017f65766d00000000000000000000000000000000000000000000000000000000008152506106bf565b9050610195565b610192826040518060400160405280600381526020017f73766d00000000000000000000000000000000000000000000000000000000008152506106bf565b90505b919050565b5f80546101a690611121565b80601f01602080910402602001604051908101604052809291908181526020018280546101d290611121565b801561021d5780601f106101f45761010080835404028352916020019161021d565b820191905f5260205f20905b81548152906001019060200180831161020057829003601f168201915b505050505081565b60605f805461023390611121565b80601f016020809104026020016040519081016040528092919081815260200182805461025f90611121565b80156102aa5780601f10610281576101008083540402835291602001916102aa565b820191905f5260205f20905b81548152906001019060200180831161028d57829003601f168201915b5050505050905090565b805f90816102c291906112f7565b5050565b60605f7375a96b46758f367b9a40dac909589603be12305790506102e8610ddc565b600267ffffffffffffffff81111561030357610302610e97565b5b60405190808252806020026020018201604052801561033657816020015b60608152602001906001900390816103215790505b5081602001819052506040518060600160405280602c8152602001611a8a602c913981602001515f8151811061036f5761036e6113c6565b5b60200260200101819052506040518060600160405280602c8152602001611ab6602c913981602001516001815181106103ab576103aa6113c6565b5b6020026020010181905250620f4240816060019067ffffffffffffffff16908167ffffffffffffffff16815250506103e1610e0d565b600167ffffffffffffffff8111156103fc576103fb610e97565b5b60405190808252806020026020018201604052801561042a5781602001602082028036833780820191505090505b50815f01819052505f815f01515f81518110610449576104486113c6565b5b602002602001019063ffffffff16908163ffffffff1681525050600167ffffffffffffffff81111561047e5761047d610e97565b5b6040519080825280602002602001820160405280156104b757816020015b6104a4610e2e565b81526020019060019003908161049c5790505b5081602001819052506040518060a00160405280600163ffffffff168152602001600163ffffffff1681526020015f63ffffffff1681526020015f151581526020015f151581525081602001515f81518110610516576105156113c6565b5b60200260200101819052505f6040518060400160405280600881526020017fdc8bfd5f8098939f0000000000000000000000000000000000000000000000008152509050808260400181905250600167ffffffffffffffff81111561057e5761057d610e97565b5b6040519080825280602002602001820160405280156105b757816020015b6105a4610e0d565b81526020019060019003908161059c5790505b5083604001819052508183604001515f815181106105d8576105d76113c6565b5b60200260200101819052505f808573ffffffffffffffffffffffffffffffffffffffff168560405160200161060d91906118d2565b604051602081830303815290604052604051610629919061192c565b5f60405180830381855afa9150503d805f8114610661576040519150601f19603f3d011682016040523d82523d5f602084013e610666565b606091505b5091509150816106ab576040517f08c379a00000000000000000000000000000000000000000000000000000000081526004016106a29061198c565b60405180910390fd5b6106b481610c2a565b965050505050505090565b60605f7375a96b46758f367b9a40dac909589603be12305790506106e1610ddc565b600467ffffffffffffffff8111156106fc576106fb610e97565b5b60405190808252806020026020018201604052801561072f57816020015b606081526020019060019003908161071a5790505b5081602001819052506040518060600160405280602c8152602001611a8a602c913981602001515f81518110610768576107676113c6565b5b60200260200101819052506040518060600160405280602c8152602001611ab6602c913981602001516001815181106107a4576107a36113c6565b5b60200260200101819052508481602001516002815181106107c8576107c76113c6565b5b60200260200101819052506040518060400160405280602081526020017f31313131313131313131313131313131313131313131313131313131313131318152508160200151600381518110610821576108206113c6565b5b6020026020010181905250620f4240816060019067ffffffffffffffff16908167ffffffffffffffff1681525050610857610e0d565b600167ffffffffffffffff81111561087257610871610e97565b5b6040519080825280602002602001820160405280156108a05781602001602082028036833780820191505090505b50815f01819052505f815f01515f815181106108bf576108be6113c6565b5b602002602001019063ffffffff16908163ffffffff1681525050600367ffffffffffffffff8111156108f4576108f3610e97565b5b60405190808252806020026020018201604052801561092d57816020015b61091a610e2e565b8152602001906001900390816109125790505b5081602001819052506040518060a00160405280600163ffffffff168152602001600163ffffffff1681526020015f63ffffffff1681526020015f151581526020016001151581525081602001515f8151811061098d5761098c6113c6565b5b60200260200101819052506040518060a00160405280600263ffffffff168152602001600263ffffffff168152602001600163ffffffff1681526020016001151581526020016001151581525081602001516001815181106109f2576109f16113c6565b5b60200260200101819052506040518060a00160405280600363ffffffff168152602001600363ffffffff168152602001600263ffffffff1681526020015f151581526020015f15158152508160200151600281518110610a5557610a546113c6565b5b60200260200101819052505f6040518060400160405280600881526020017fdf725b88c54e999900000000000000000000000000000000000000000000000081525090505f610aa387610d1a565b9050818188604051602001610aba939291906119f5565b6040516020818303038152906040528360400181905250600167ffffffffffffffff811115610aec57610aeb610e97565b5b604051908082528060200260200182016040528015610b2557816020015b610b12610e0d565b815260200190600190039081610b0a5790505b5084604001819052508284604001515f81518110610b4657610b456113c6565b5b60200260200101819052505f808673ffffffffffffffffffffffffffffffffffffffff1686604051602001610b7b91906118d2565b604051602081830303815290604052604051610b97919061192c565b5f604051808303815f865af19150503d805f8114610bd0576040519150601f19603f3d011682016040523d82523d5f602084013e610bd5565b606091505b509150915081610c1a576040517f08c379a0000000000000000000000000000000000000000000000000000000008152600401610c119061198c565b60405180910390fd5b8097505050505050505092915050565b60605f60048351610c3b9190611a56565b67ffffffffffffffff811115610c5457610c53610e97565b5b6040519080825280601f01601f191660200182016040528015610c865781602001600182028036833780820191505090505b5090505f600490505b8351811015610d1057838181518110610cab57610caa6113c6565b5b602001015160f81c60f81b82600483610cc49190611a56565b81518110610cd557610cd46113c6565b5b60200101907effffffffffffffffffffffffffffffffffffffffffffffffffffffffffffff191690815f1a9053508080600101915050610c8f565b5080915050919050565b5f8082519050610d2981610d31565b915050919050565b5f80825f1b905080601c60208110610d4c57610d4b6113c6565b5b1a60f81b60f81c60ff16600882601d60208110610d6c57610d6b6113c6565b5b1a60f81b60f81c60ff1663ffffffff16901b601083601e60208110610d9457610d936113c6565b5b1a60f81b60f81c60ff1663ffffffff16901b601884601f60208110610dbc57610dbb6113c6565b5b1a60f81b60f81c60ff1663ffffffff16901b17171760e01b915050919050565b60405180608001604052806060815260200160608152602001606081526020015f67ffffffffffffffff1681525090565b60405180606001604052806060815260200160608152602001606081525090565b6040518060a001604052805f63ffffffff1681526020015f63ffffffff1681526020015f63ffffffff1681526020015f151581526020015f151581525090565b5f604051905090565b5f80fd5b5f80fd5b5f80fd5b5f80fd5b5f601f19601f8301169050919050565b7f4e487b71000000000000000000000000000000000000000000000000000000005f52604160045260245ffd5b610ecd82610e87565b810181811067ffffffffffffffff82111715610eec57610eeb610e97565b5b80604052505050565b5f610efe610e6e565b9050610f0a8282610ec4565b919050565b5f67ffffffffffffffff821115610f2957610f28610e97565b5b610f3282610e87565b9050602081019050919050565b828183375f83830152505050565b5f610f5f610f5a84610f0f565b610ef5565b905082815260208101848484011115610f7b57610f7a610e83565b5b610f86848285610f3f565b509392505050565b5f82601f830112610fa257610fa1610e7f565b5b8135610fb2848260208601610f4d565b91505092915050565b5f60208284031215610fd057610fcf610e77565b5b5f82013567ffffffffffffffff811115610fed57610fec610e7b565b5b610ff984828501610f8e565b91505092915050565b5f81519050919050565b5f82825260208201905092915050565b8281835e5f83830152505050565b5f61103482611002565b61103e818561100c565b935061104e81856020860161101c565b61105781610e87565b840191505092915050565b5f6020820190508181035f83015261107a818461102a565b905092915050565b5f81519050919050565b5f82825260208201905092915050565b5f6110a682611082565b6110b0818561108c565b93506110c081856020860161101c565b6110c981610e87565b840191505092915050565b5f6020820190508181035f8301526110ec818461109c565b905092915050565b7f4e487b71000000000000000000000000000000000000000000000000000000005f52602260045260245ffd5b5f600282049050600182168061113857607f821691505b60208210810361114b5761114a6110f4565b5b50919050565b5f819050815f5260205f209050919050565b5f6020601f8301049050919050565b5f82821b905092915050565b5f600883026111ad7fffffffffffffffffffffffffffffffffffffffffffffffffffffffffffffffff82611172565b6111b78683611172565b95508019841693508086168417925050509392505050565b5f819050919050565b5f819050919050565b5f6111fb6111f66111f1846111cf565b6111d8565b6111cf565b9050919050565b5f819050919050565b611214836111e1565b61122861122082611202565b84845461117e565b825550505050565b5f90565b61123c611230565b61124781848461120b565b505050565b5b8181101561126a5761125f5f82611234565b60018101905061124d565b5050565b601f8211156112af5761128081611151565b61128984611163565b81016020851015611298578190505b6112ac6112a485611163565b83018261124c565b50505b505050565b5f82821c905092915050565b5f6112cf5f19846008026112b4565b1980831691505092915050565b5f6112e783836112c0565b9150826002028217905092915050565b61130082611082565b67ffffffffffffffff81111561131957611318610e97565b5b6113238254611121565b61132e82828561126e565b5f60209050601f83116001811461135f575f841561134d578287015190505b61135785826112dc565b8655506113be565b601f19841661136d86611151565b5f5b828110156113945784890151825560018201915060208501945060208101905061136f565b868310156113b157848901516113ad601f8916826112c0565b8355505b6001600288020188555050505b505050505050565b7f4e487b71000000000000000000000000000000000000000000000000000000005f52603260045260245ffd5b5f81519050919050565b5f82825260208201905092915050565b5f819050602082019050919050565b5f82825260208201905092915050565b5f61143682611082565b611440818561141c565b935061145081856020860161101c565b61145981610e87565b840191505092915050565b5f61146f838361142c565b905092915050565b5f602082019050919050565b5f61148d826113f3565b61149781856113fd565b9350836020820285016114a98561140d565b805f5b858110156114e457848403895281516114c58582611464565b94506114d083611477565b925060208a019950506001810190506114ac565b50829750879550505050505092915050565b5f81519050919050565b5f82825260208201905092915050565b5f819050602082019050919050565b5f81519050919050565b5f82825260208201905092915050565b5f819050602082019050919050565b5f63ffffffff82169050919050565b61156081611548565b82525050565b5f6115718383611557565b60208301905092915050565b5f602082019050919050565b5f6115938261151f565b61159d8185611529565b93506115a883611539565b805f5b838110156115d85781516115bf8882611566565b97506115ca8361157d565b9250506001810190506115ab565b5085935050505092915050565b5f81519050919050565b5f82825260208201905092915050565b5f819050602082019050919050565b5f8115159050919050565b6116228161160e565b82525050565b60a082015f82015161163c5f850182611557565b50602082015161164f6020850182611557565b5060408201516116626040850182611557565b5060608201516116756060850182611619565b5060808201516116886080850182611619565b50505050565b5f6116998383611628565b60a08301905092915050565b5f602082019050919050565b5f6116bb826115e5565b6116c581856115ef565b93506116d0836115ff565b805f5b838110156117005781516116e7888261168e565b97506116f2836116a5565b9250506001810190506116d3565b5085935050505092915050565b5f82825260208201905092915050565b5f61172782611002565b611731818561170d565b935061174181856020860161101c565b61174a81610e87565b840191505092915050565b5f606083015f8301518482035f86015261176f8282611589565b9150506020830151848203602086015261178982826116b1565b915050604083015184820360408601526117a3828261171d565b9150508091505092915050565b5f6117bb8383611755565b905092915050565b5f602082019050919050565b5f6117d9826114f6565b6117e38185611500565b9350836020820285016117f585611510565b805f5b85811015611830578484038952815161181185826117b0565b945061181c836117c3565b925060208a019950506001810190506117f8565b50829750879550505050505092915050565b5f67ffffffffffffffff82169050919050565b61185e81611842565b82525050565b5f608083015f8301518482035f86015261187e8282611483565b915050602083015184820360208601526118988282611483565b915050604083015184820360408601526118b282826117cf565b91505060608301516118c76060860182611855565b508091505092915050565b5f6020820190508181035f8301526118ea8184611864565b905092915050565b5f81905092915050565b5f61190682611002565b61191081856118f2565b935061192081856020860161101c565b80840191505092915050565b5f61193782846118fc565b915081905092915050565b7f63616c6c206d75737420737563636565640000000000000000000000000000005f82015250565b5f61197660118361108c565b915061198182611942565b602082019050919050565b5f6020820190508181035f8301526119a38161196a565b9050919050565b5f7fffffffff0000000000000000000000000000000000000000000000000000000082169050919050565b5f819050919050565b6119ef6119ea826119aa565b6119d5565b82525050565b5f611a0082866118fc565b9150611a0c82856119de565b600482019150611a1c82846118fc565b9150819050949350505050565b7f4e487b71000000000000000000000000000000000000000000000000000000005f52601160045260245ffd5b5f611a60826111cf565b9150611a6b836111cf565b9250828203905081811115611a8357611a82611a29565b5b9291505056fe38337a665a596163467247713565426e6e703645515078617063706a7078646a414b704c61767174534a333232327a36483644655734554c4279514b4c455274486a536f44654669754369693876334e754c534166326462a264697066735822122029b7fa9a1f3aad7a17cf1a478f8795b24c0064c3ba2b9a37a85e862ea359232a64736f6c634300081a0033', \n     arguments: [\n     ]\n}).send({\n     from: web3.eth.accounts[0], \n     gas: '4700000'\n   }, function (e, contract){\n    console.log(e, contract);\n    if (typeof contract.address !== 'undefined') {\n         console.log('Contract mined! address: ' + contract.address + ' transactionHash: ' + contract.transactionHash);\n    }\n })",
	"functionHashes": {
		"3163d265": "evmString()",
		"3bc5de30": "getData()",
		"47064d6a": "setData(string)",
		"2962eb6a": "setSvm(string)"
	},
	"gasEstimates": {
		"Creation": {
			"codeDepositCost": "1387000",
			"executionCost": "1442",
			"totalCost": "1388442"
		},
		"External": {
			"evmString()": "infinite",
			"getData()": "infinite",
			"setData(string)": "infinite",
			"setSvm(string)": "infinite"
		},
		"Internal": {
			"doSetSvm(string memory,string memory)": "infinite",
			"getStringLengthLE(string memory)": "infinite",
			"getSvm()": "infinite",
			"parseSvmResponse(bytes memory)": "infinite",
			"toLittleEndian(uint256)": "302"
		}
	},
	"devdoc": {
		"kind": "dev",
		"methods": {},
		"version": 1
	},
	"userdoc": {
		"kind": "user",
		"methods": {},
		"version": 1
	},
	"Runtime Bytecode": {
		"immutableReferences": {},
		"linkReferences": {},
		"object": "608060405234801561000f575f80fd5b506004361061004a575f3560e01c80632962eb6a1461004e5780633163d2651461007e5780633bc5de301461009c57806347064d6a146100ba575b5f80fd5b61006860048036038101906100639190610fbb565b6100d6565b6040516100759190611062565b60405180910390f35b61008661019a565b60405161009391906110d4565b60405180910390f35b6100a4610225565b6040516100b191906110d4565b60405180910390f35b6100d460048036038101906100cf9190610fbb565b6102b4565b005b60607ff8251662139e6d88d3b6f2a5aa0f6fa9f87ec5bbe2e7f41da6c2ee0f71e0ebbc6101016102c6565b80519060200120036101535761014c826040518060400160405280600381526020017f65766d00000000000000000000000000000000000000000000000000000000008152506106bf565b9050610195565b610192826040518060400160405280600381526020017f73766d00000000000000000000000000000000000000000000000000000000008152506106bf565b90505b919050565b5f80546101a690611121565b80601f01602080910402602001604051908101604052809291908181526020018280546101d290611121565b801561021d5780601f106101f45761010080835404028352916020019161021d565b820191905f5260205f20905b81548152906001019060200180831161020057829003601f168201915b505050505081565b60605f805461023390611121565b80601f016020809104026020016040519081016040528092919081815260200182805461025f90611121565b80156102aa5780601f10610281576101008083540402835291602001916102aa565b820191905f5260205f20905b81548152906001019060200180831161028d57829003601f168201915b5050505050905090565b805f90816102c291906112f7565b5050565b60605f7375a96b46758f367b9a40dac909589603be12305790506102e8610ddc565b600267ffffffffffffffff81111561030357610302610e97565b5b60405190808252806020026020018201604052801561033657816020015b60608152602001906001900390816103215790505b5081602001819052506040518060600160405280602c8152602001611a8a602c913981602001515f8151811061036f5761036e6113c6565b5b60200260200101819052506040518060600160405280602c8152602001611ab6602c913981602001516001815181106103ab576103aa6113c6565b5b6020026020010181905250620f4240816060019067ffffffffffffffff16908167ffffffffffffffff16815250506103e1610e0d565b600167ffffffffffffffff8111156103fc576103fb610e97565b5b60405190808252806020026020018201604052801561042a5781602001602082028036833780820191505090505b50815f01819052505f815f01515f81518110610449576104486113c6565b5b602002602001019063ffffffff16908163ffffffff1681525050600167ffffffffffffffff81111561047e5761047d610e97565b5b6040519080825280602002602001820160405280156104b757816020015b6104a4610e2e565b81526020019060019003908161049c5790505b5081602001819052506040518060a00160405280600163ffffffff168152602001600163ffffffff1681526020015f63ffffffff1681526020015f151581526020015f151581525081602001515f81518110610516576105156113c6565b5b60200260200101819052505f6040518060400160405280600881526020017fdc8bfd5f8098939f0000000000000000000000000000000000000000000000008152509050808260400181905250600167ffffffffffffffff81111561057e5761057d610e97565b5b6040519080825280602002602001820160405280156105b757816020015b6105a4610e0d565b81526020019060019003908161059c5790505b5083604001819052508183604001515f815181106105d8576105d76113c6565b5b60200260200101819052505f808573ffffffffffffffffffffffffffffffffffffffff168560405160200161060d91906118d2565b604051602081830303815290604052604051610629919061192c565b5f60405180830381855afa9150503d805f8114610661576040519150601f19603f3d011682016040523d82523d5f602084013e610666565b606091505b5091509150816106ab576040517f08c379a00000000000000000000000000000000000000000000000000000000081526004016106a29061198c565b60405180910390fd5b6106b481610c2a565b965050505050505090565b60605f7375a96b46758f367b9a40dac909589603be12305790506106e1610ddc565b600467ffffffffffffffff8111156106fc576106fb610e97565b5b60405190808252806020026020018201604052801561072f57816020015b606081526020019060019003908161071a5790505b5081602001819052506040518060600160405280602c8152602001611a8a602c913981602001515f81518110610768576107676113c6565b5b60200260200101819052506040518060600160405280602c8152602001611ab6602c913981602001516001815181106107a4576107a36113c6565b5b60200260200101819052508481602001516002815181106107c8576107c76113c6565b5b60200260200101819052506040518060400160405280602081526020017f31313131313131313131313131313131313131313131313131313131313131318152508160200151600381518110610821576108206113c6565b5b6020026020010181905250620f4240816060019067ffffffffffffffff16908167ffffffffffffffff1681525050610857610e0d565b600167ffffffffffffffff81111561087257610871610e97565b5b6040519080825280602002602001820160405280156108a05781602001602082028036833780820191505090505b50815f01819052505f815f01515f815181106108bf576108be6113c6565b5b602002602001019063ffffffff16908163ffffffff1681525050600367ffffffffffffffff8111156108f4576108f3610e97565b5b60405190808252806020026020018201604052801561092d57816020015b61091a610e2e565b8152602001906001900390816109125790505b5081602001819052506040518060a00160405280600163ffffffff168152602001600163ffffffff1681526020015f63ffffffff1681526020015f151581526020016001151581525081602001515f8151811061098d5761098c6113c6565b5b60200260200101819052506040518060a00160405280600263ffffffff168152602001600263ffffffff168152602001600163ffffffff1681526020016001151581526020016001151581525081602001516001815181106109f2576109f16113c6565b5b60200260200101819052506040518060a00160405280600363ffffffff168152602001600363ffffffff168152602001600263ffffffff1681526020015f151581526020015f15158152508160200151600281518110610a5557610a546113c6565b5b60200260200101819052505f6040518060400160405280600881526020017fdf725b88c54e999900000000000000000000000000000000000000000000000081525090505f610aa387610d1a565b9050818188604051602001610aba939291906119f5565b6040516020818303038152906040528360400181905250600167ffffffffffffffff811115610aec57610aeb610e97565b5b604051908082528060200260200182016040528015610b2557816020015b610b12610e0d565b815260200190600190039081610b0a5790505b5084604001819052508284604001515f81518110610b4657610b456113c6565b5b60200260200101819052505f808673ffffffffffffffffffffffffffffffffffffffff1686604051602001610b7b91906118d2565b604051602081830303815290604052604051610b97919061192c565b5f604051808303815f865af19150503d805f8114610bd0576040519150601f19603f3d011682016040523d82523d5f602084013e610bd5565b606091505b509150915081610c1a576040517f08c379a0000000000000000000000000000000000000000000000000000000008152600401610c119061198c565b60405180910390fd5b8097505050505050505092915050565b60605f60048351610c3b9190611a56565b67ffffffffffffffff811115610c5457610c53610e97565b5b6040519080825280601f01601f191660200182016040528015610c865781602001600182028036833780820191505090505b5090505f600490505b8351811015610d1057838181518110610cab57610caa6113c6565b5b602001015160f81c60f81b82600483610cc49190611a56565b81518110610cd557610cd46113c6565b5b60200101907effffffffffffffffffffffffffffffffffffffffffffffffffffffffffffff191690815f1a9053508080600101915050610c8f565b5080915050919050565b5f8082519050610d2981610d31565b915050919050565b5f80825f1b905080601c60208110610d4c57610d4b6113c6565b5b1a60f81b60f81c60ff16600882601d60208110610d6c57610d6b6113c6565b5b1a60f81b60f81c60ff1663ffffffff16901b601083601e60208110610d9457610d936113c6565b5b1a60f81b60f81c60ff1663ffffffff16901b601884601f60208110610dbc57610dbb6113c6565b5b1a60f81b60f81c60ff1663ffffffff16901b17171760e01b915050919050565b60405180608001604052806060815260200160608152602001606081526020015f67ffffffffffffffff1681525090565b60405180606001604052806060815260200160608152602001606081525090565b6040518060a001604052805f63ffffffff1681526020015f63ffffffff1681526020015f63ffffffff1681526020015f151581526020015f151581525090565b5f604051905090565b5f80fd5b5f80fd5b5f80fd5b5f80fd5b5f601f19601f8301169050919050565b7f4e487b71000000000000000000000000000000000000000000000000000000005f52604160045260245ffd5b610ecd82610e87565b810181811067ffffffffffffffff82111715610eec57610eeb610e97565b5b80604052505050565b5f610efe610e6e565b9050610f0a8282610ec4565b919050565b5f67ffffffffffffffff821115610f2957610f28610e97565b5b610f3282610e87565b9050602081019050919050565b828183375f83830152505050565b5f610f5f610f5a84610f0f565b610ef5565b905082815260208101848484011115610f7b57610f7a610e83565b5b610f86848285610f3f565b509392505050565b5f82601f830112610fa257610fa1610e7f565b5b8135610fb2848260208601610f4d565b91505092915050565b5f60208284031215610fd057610fcf610e77565b5b5f82013567ffffffffffffffff811115610fed57610fec610e7b565b5b610ff984828501610f8e565b91505092915050565b5f81519050919050565b5f82825260208201905092915050565b8281835e5f83830152505050565b5f61103482611002565b61103e818561100c565b935061104e81856020860161101c565b61105781610e87565b840191505092915050565b5f6020820190508181035f83015261107a818461102a565b905092915050565b5f81519050919050565b5f82825260208201905092915050565b5f6110a682611082565b6110b0818561108c565b93506110c081856020860161101c565b6110c981610e87565b840191505092915050565b5f6020820190508181035f8301526110ec818461109c565b905092915050565b7f4e487b71000000000000000000000000000000000000000000000000000000005f52602260045260245ffd5b5f600282049050600182168061113857607f821691505b60208210810361114b5761114a6110f4565b5b50919050565b5f819050815f5260205f209050919050565b5f6020601f8301049050919050565b5f82821b905092915050565b5f600883026111ad7fffffffffffffffffffffffffffffffffffffffffffffffffffffffffffffffff82611172565b6111b78683611172565b95508019841693508086168417925050509392505050565b5f819050919050565b5f819050919050565b5f6111fb6111f66111f1846111cf565b6111d8565b6111cf565b9050919050565b5f819050919050565b611214836111e1565b61122861122082611202565b84845461117e565b825550505050565b5f90565b61123c611230565b61124781848461120b565b505050565b5b8181101561126a5761125f5f82611234565b60018101905061124d565b5050565b601f8211156112af5761128081611151565b61128984611163565b81016020851015611298578190505b6112ac6112a485611163565b83018261124c565b50505b505050565b5f82821c905092915050565b5f6112cf5f19846008026112b4565b1980831691505092915050565b5f6112e783836112c0565b9150826002028217905092915050565b61130082611082565b67ffffffffffffffff81111561131957611318610e97565b5b6113238254611121565b61132e82828561126e565b5f60209050601f83116001811461135f575f841561134d578287015190505b61135785826112dc565b8655506113be565b601f19841661136d86611151565b5f5b828110156113945784890151825560018201915060208501945060208101905061136f565b868310156113b157848901516113ad601f8916826112c0565b8355505b6001600288020188555050505b505050505050565b7f4e487b71000000000000000000000000000000000000000000000000000000005f52603260045260245ffd5b5f81519050919050565b5f82825260208201905092915050565b5f819050602082019050919050565b5f82825260208201905092915050565b5f61143682611082565b611440818561141c565b935061145081856020860161101c565b61145981610e87565b840191505092915050565b5f61146f838361142c565b905092915050565b5f602082019050919050565b5f61148d826113f3565b61149781856113fd565b9350836020820285016114a98561140d565b805f5b858110156114e457848403895281516114c58582611464565b94506114d083611477565b925060208a019950506001810190506114ac565b50829750879550505050505092915050565b5f81519050919050565b5f82825260208201905092915050565b5f819050602082019050919050565b5f81519050919050565b5f82825260208201905092915050565b5f819050602082019050919050565b5f63ffffffff82169050919050565b61156081611548565b82525050565b5f6115718383611557565b60208301905092915050565b5f602082019050919050565b5f6115938261151f565b61159d8185611529565b93506115a883611539565b805f5b838110156115d85781516115bf8882611566565b97506115ca8361157d565b9250506001810190506115ab565b5085935050505092915050565b5f81519050919050565b5f82825260208201905092915050565b5f819050602082019050919050565b5f8115159050919050565b6116228161160e565b82525050565b60a082015f82015161163c5f850182611557565b50602082015161164f6020850182611557565b5060408201516116626040850182611557565b5060608201516116756060850182611619565b5060808201516116886080850182611619565b50505050565b5f6116998383611628565b60a08301905092915050565b5f602082019050919050565b5f6116bb826115e5565b6116c581856115ef565b93506116d0836115ff565b805f5b838110156117005781516116e7888261168e565b97506116f2836116a5565b9250506001810190506116d3565b5085935050505092915050565b5f82825260208201905092915050565b5f61172782611002565b611731818561170d565b935061174181856020860161101c565b61174a81610e87565b840191505092915050565b5f606083015f8301518482035f86015261176f8282611589565b9150506020830151848203602086015261178982826116b1565b915050604083015184820360408601526117a3828261171d565b9150508091505092915050565b5f6117bb8383611755565b905092915050565b5f602082019050919050565b5f6117d9826114f6565b6117e38185611500565b9350836020820285016117f585611510565b805f5b85811015611830578484038952815161181185826117b0565b945061181c836117c3565b925060208a019950506001810190506117f8565b50829750879550505050505092915050565b5f67ffffffffffffffff82169050919050565b61185e81611842565b82525050565b5f608083015f8301518482035f86015261187e8282611483565b915050602083015184820360208601526118988282611483565b915050604083015184820360408601526118b282826117cf565b91505060608301516118c76060860182611855565b508091505092915050565b5f6020820190508181035f8301526118ea8184611864565b905092915050565b5f81905092915050565b5f61190682611002565b61191081856118f2565b935061192081856020860161101c565b80840191505092915050565b5f61193782846118fc565b915081905092915050565b7f63616c6c206d75737420737563636565640000000000000000000000000000005f82015250565b5f61197660118361108c565b915061198182611942565b602082019050919050565b5f6020820190508181035f8301526119a38161196a565b9050919050565b5f7fffffffff0000000000000000000000000000000000000000000000000000000082169050919050565b5f819050919050565b6119ef6119ea826119aa565b6119d5565b82525050565b5f611a0082866118fc565b9150611a0c82856119de565b600482019150611a1c82846118fc565b9150819050949350505050565b7f4e487b71000000000000000000000000000000000000000000000000000000005f52601160045260245ffd5b5f611a60826111cf565b9150611a6b836111cf565b9250828203905081811115611a8357611a82611a29565b5b9291505056fe38337a665a596163467247713565426e6e703645515078617063706a7078646a414b704c61767174534a333232327a36483644655734554c4279514b4c455274486a536f44654669754369693876334e754c534166326462a264697066735822122029b7fa9a1f3aad7a17cf1a478f8795b24c0064c3ba2b9a37a85e862ea359232a64736f6c634300081a0033",
		"opcodes": "PUSH1 0x80 PUSH1 0x40 MSTORE CALLVALUE DUP1 ISZERO PUSH2 0xF JUMPI PUSH0 DUP1 REVERT JUMPDEST POP PUSH1 0x4 CALLDATASIZE LT PUSH2 0x4A JUMPI PUSH0 CALLDATALOAD PUSH1 0xE0 SHR DUP1 PUSH4 0x2962EB6A EQ PUSH2 0x4E JUMPI DUP1 PUSH4 0x3163D265 EQ PUSH2 0x7E JUMPI DUP1 PUSH4 0x3BC5DE30 EQ PUSH2 0x9C JUMPI DUP1 PUSH4 0x47064D6A EQ PUSH2 0xBA JUMPI JUMPDEST PUSH0 DUP1 REVERT JUMPDEST PUSH2 0x68 PUSH1 0x4 DUP1 CALLDATASIZE SUB DUP2 ADD SWAP1 PUSH2 0x63 SWAP2 SWAP1 PUSH2 0xFBB JUMP JUMPDEST PUSH2 0xD6 JUMP JUMPDEST PUSH1 0x40 MLOAD PUSH2 0x75 SWAP2 SWAP1 PUSH2 0x1062 JUMP JUMPDEST PUSH1 0x40 MLOAD DUP1 SWAP2 SUB SWAP1 RETURN JUMPDEST PUSH2 0x86 PUSH2 0x19A JUMP JUMPDEST PUSH1 0x40 MLOAD PUSH2 0x93 SWAP2 SWAP1 PUSH2 0x10D4 JUMP JUMPDEST PUSH1 0x40 MLOAD DUP1 SWAP2 SUB SWAP1 RETURN JUMPDEST PUSH2 0xA4 PUSH2 0x225 JUMP JUMPDEST PUSH1 0x40 MLOAD PUSH2 0xB1 SWAP2 SWAP1 PUSH2 0x10D4 JUMP JUMPDEST PUSH1 0x40 MLOAD DUP1 SWAP2 SUB SWAP1 RETURN JUMPDEST PUSH2 0xD4 PUSH1 0x4 DUP1 CALLDATASIZE SUB DUP2 ADD SWAP1 PUSH2 0xCF SWAP2 SWAP1 PUSH2 0xFBB JUMP JUMPDEST PUSH2 0x2B4 JUMP JUMPDEST STOP JUMPDEST PUSH1 0x60 PUSH32 0xF8251662139E6D88D3B6F2A5AA0F6FA9F87EC5BBE2E7F41DA6C2EE0F71E0EBBC PUSH2 0x101 PUSH2 0x2C6 JUMP JUMPDEST DUP1 MLOAD SWAP1 PUSH1 0x20 ADD KECCAK256 SUB PUSH2 0x153 JUMPI PUSH2 0x14C DUP3 PUSH1 0x40 MLOAD DUP1 PUSH1 0x40 ADD PUSH1 0x40 MSTORE DUP1 PUSH1 0x3 DUP2 MSTORE PUSH1 0x20 ADD PUSH32 0x65766D0000000000000000000000000000000000000000000000000000000000 DUP2 MSTORE POP PUSH2 0x6BF JUMP JUMPDEST SWAP1 POP PUSH2 0x195 JUMP JUMPDEST PUSH2 0x192 DUP3 PUSH1 0x40 MLOAD DUP1 PUSH1 0x40 ADD PUSH1 0x40 MSTORE DUP1 PUSH1 0x3 DUP2 MSTORE PUSH1 0x20 ADD PUSH32 0x73766D0000000000000000000000000000000000000000000000000000000000 DUP2 MSTORE POP PUSH2 0x6BF JUMP JUMPDEST SWAP1 POP JUMPDEST SWAP2 SWAP1 POP JUMP JUMPDEST PUSH0 DUP1 SLOAD PUSH2 0x1A6 SWAP1 PUSH2 0x1121 JUMP JUMPDEST DUP1 PUSH1 0x1F ADD PUSH1 0x20 DUP1 SWAP2 DIV MUL PUSH1 0x20 ADD PUSH1 0x40 MLOAD SWAP1 DUP2 ADD PUSH1 0x40 MSTORE DUP1 SWAP3 SWAP2 SWAP1 DUP2 DUP2 MSTORE PUSH1 0x20 ADD DUP3 DUP1 SLOAD PUSH2 0x1D2 SWAP1 PUSH2 0x1121 JUMP JUMPDEST DUP1 ISZERO PUSH2 0x21D JUMPI DUP1 PUSH1 0x1F LT PUSH2 0x1F4 JUMPI PUSH2 0x100 DUP1 DUP4 SLOAD DIV MUL DUP4 MSTORE SWAP2 PUSH1 0x20 ADD SWAP2 PUSH2 0x21D JUMP JUMPDEST DUP3 ADD SWAP2 SWAP1 PUSH0 MSTORE PUSH1 0x20 PUSH0 KECCAK256 SWAP1 JUMPDEST DUP2 SLOAD DUP2 MSTORE SWAP1 PUSH1 0x1 ADD SWAP1 PUSH1 0x20 ADD DUP1 DUP4 GT PUSH2 0x200 JUMPI DUP3 SWAP1 SUB PUSH1 0x1F AND DUP3 ADD SWAP2 JUMPDEST POP POP POP POP POP DUP2 JUMP JUMPDEST PUSH1 0x60 PUSH0 DUP1 SLOAD PUSH2 0x233 SWAP1 PUSH2 0x1121 JUMP JUMPDEST DUP1 PUSH1 0x1F ADD PUSH1 0x20 DUP1 SWAP2 DIV MUL PUSH1 0x20 ADD PUSH1 0x40 MLOAD SWAP1 DUP2 ADD PUSH1 0x40 MSTORE DUP1 SWAP3 SWAP2 SWAP1 DUP2 DUP2 MSTORE PUSH1 0x20 ADD DUP3 DUP1 SLOAD PUSH2 0x25F SWAP1 PUSH2 0x1121 JUMP JUMPDEST DUP1 ISZERO PUSH2 0x2AA JUMPI DUP1 PUSH1 0x1F LT PUSH2 0x281 JUMPI PUSH2 0x100 DUP1 DUP4 SLOAD DIV MUL DUP4 MSTORE SWAP2 PUSH1 0x20 ADD SWAP2 PUSH2 0x2AA JUMP JUMPDEST DUP3 ADD SWAP2 SWAP1 PUSH0 MSTORE PUSH1 0x20 PUSH0 KECCAK256 SWAP1 JUMPDEST DUP2 SLOAD DUP2 MSTORE SWAP1 PUSH1 0x1 ADD SWAP1 PUSH1 0x20 ADD DUP1 DUP4 GT PUSH2 0x28D JUMPI DUP3 SWAP1 SUB PUSH1 0x1F AND DUP3 ADD SWAP2 JUMPDEST POP POP POP POP POP SWAP1 POP SWAP1 JUMP JUMPDEST DUP1 PUSH0 SWAP1 DUP2 PUSH2 0x2C2 SWAP2 SWAP1 PUSH2 0x12F7 JUMP JUMPDEST POP POP JUMP JUMPDEST PUSH1 0x60 PUSH0 PUSH20 0x75A96B46758F367B9A40DAC909589603BE123057 SWAP1 POP PUSH2 0x2E8 PUSH2 0xDDC JUMP JUMPDEST PUSH1 0x2 PUSH8 0xFFFFFFFFFFFFFFFF DUP2 GT ISZERO PUSH2 0x303 JUMPI PUSH2 0x302 PUSH2 0xE97 JUMP JUMPDEST JUMPDEST PUSH1 0x40 MLOAD SWAP1 DUP1 DUP3 MSTORE DUP1 PUSH1 0x20 MUL PUSH1 0x20 ADD DUP3 ADD PUSH1 0x40 MSTORE DUP1 ISZERO PUSH2 0x336 JUMPI DUP2 PUSH1 0x20 ADD JUMPDEST PUSH1 0x60 DUP2 MSTORE PUSH1 0x20 ADD SWAP1 PUSH1 0x1 SWAP1 SUB SWAP1 DUP2 PUSH2 0x321 JUMPI SWAP1 POP JUMPDEST POP DUP2 PUSH1 0x20 ADD DUP2 SWAP1 MSTORE POP PUSH1 0x40 MLOAD DUP1 PUSH1 0x60 ADD PUSH1 0x40 MSTORE DUP1 PUSH1 0x2C DUP2 MSTORE PUSH1 0x20 ADD PUSH2 0x1A8A PUSH1 0x2C SWAP2 CODECOPY DUP2 PUSH1 0x20 ADD MLOAD PUSH0 DUP2 MLOAD DUP2 LT PUSH2 0x36F JUMPI PUSH2 0x36E PUSH2 0x13C6 JUMP JUMPDEST JUMPDEST PUSH1 0x20 MUL PUSH1 0x20 ADD ADD DUP2 SWAP1 MSTORE POP PUSH1 0x40 MLOAD DUP1 PUSH1 0x60 ADD PUSH1 0x40 MSTORE DUP1 PUSH1 0x2C DUP2 MSTORE PUSH1 0x20 ADD PUSH2 0x1AB6 PUSH1 0x2C SWAP2 CODECOPY DUP2 PUSH1 0x20 ADD MLOAD PUSH1 0x1 DUP2 MLOAD DUP2 LT PUSH2 0x3AB JUMPI PUSH2 0x3AA PUSH2 0x13C6 JUMP JUMPDEST JUMPDEST PUSH1 0x20 MUL PUSH1 0x20 ADD ADD DUP2 SWAP1 MSTORE POP PUSH3 0xF4240 DUP2 PUSH1 0x60 ADD SWAP1 PUSH8 0xFFFFFFFFFFFFFFFF AND SWAP1 DUP2 PUSH8 0xFFFFFFFFFFFFFFFF AND DUP2 MSTORE POP POP PUSH2 0x3E1 PUSH2 0xE0D JUMP JUMPDEST PUSH1 0x1 PUSH8 0xFFFFFFFFFFFFFFFF DUP2 GT ISZERO PUSH2 0x3FC JUMPI PUSH2 0x3FB PUSH2 0xE97 JUMP JUMPDEST JUMPDEST PUSH1 0x40 MLOAD SWAP1 DUP1 DUP3 MSTORE DUP1 PUSH1 0x20 MUL PUSH1 0x20 ADD DUP3 ADD PUSH1 0x40 MSTORE DUP1 ISZERO PUSH2 0x42A JUMPI DUP2 PUSH1 0x20 ADD PUSH1 0x20 DUP3 MUL DUP1 CALLDATASIZE DUP4 CALLDATACOPY DUP1 DUP3 ADD SWAP2 POP POP SWAP1 POP JUMPDEST POP DUP2 PUSH0 ADD DUP2 SWAP1 MSTORE POP PUSH0 DUP2 PUSH0 ADD MLOAD PUSH0 DUP2 MLOAD DUP2 LT PUSH2 0x449 JUMPI PUSH2 0x448 PUSH2 0x13C6 JUMP JUMPDEST JUMPDEST PUSH1 0x20 MUL PUSH1 0x20 ADD ADD SWAP1 PUSH4 0xFFFFFFFF AND SWAP1 DUP2 PUSH4 0xFFFFFFFF AND DUP2 MSTORE POP POP PUSH1 0x1 PUSH8 0xFFFFFFFFFFFFFFFF DUP2 GT ISZERO PUSH2 0x47E JUMPI PUSH2 0x47D PUSH2 0xE97 JUMP JUMPDEST JUMPDEST PUSH1 0x40 MLOAD SWAP1 DUP1 DUP3 MSTORE DUP1 PUSH1 0x20 MUL PUSH1 0x20 ADD DUP3 ADD PUSH1 0x40 MSTORE DUP1 ISZERO PUSH2 0x4B7 JUMPI DUP2 PUSH1 0x20 ADD JUMPDEST PUSH2 0x4A4 PUSH2 0xE2E JUMP JUMPDEST DUP2 MSTORE PUSH1 0x20 ADD SWAP1 PUSH1 0x1 SWAP1 SUB SWAP1 DUP2 PUSH2 0x49C JUMPI SWAP1 POP JUMPDEST POP DUP2 PUSH1 0x20 ADD DUP2 SWAP1 MSTORE POP PUSH1 0x40 MLOAD DUP1 PUSH1 0xA0 ADD PUSH1 0x40 MSTORE DUP1 PUSH1 0x1 PUSH4 0xFFFFFFFF AND DUP2 MSTORE PUSH1 0x20 ADD PUSH1 0x1 PUSH4 0xFFFFFFFF AND DUP2 MSTORE PUSH1 0x20 ADD PUSH0 PUSH4 0xFFFFFFFF AND DUP2 MSTORE PUSH1 0x20 ADD PUSH0 ISZERO ISZERO DUP2 MSTORE PUSH1 0x20 ADD PUSH0 ISZERO ISZERO DUP2 MSTORE POP DUP2 PUSH1 0x20 ADD MLOAD PUSH0 DUP2 MLOAD DUP2 LT PUSH2 0x516 JUMPI PUSH2 0x515 PUSH2 0x13C6 JUMP JUMPDEST JUMPDEST PUSH1 0x20 MUL PUSH1 0x20 ADD ADD DUP2 SWAP1 MSTORE POP PUSH0 PUSH1 0x40 MLOAD DUP1 PUSH1 0x40 ADD PUSH1 0x40 MSTORE DUP1 PUSH1 0x8 DUP2 MSTORE PUSH1 0x20 ADD PUSH32 0xDC8BFD5F8098939F000000000000000000000000000000000000000000000000 DUP2 MSTORE POP SWAP1 POP DUP1 DUP3 PUSH1 0x40 ADD DUP2 SWAP1 MSTORE POP PUSH1 0x1 PUSH8 0xFFFFFFFFFFFFFFFF DUP2 GT ISZERO PUSH2 0x57E JUMPI PUSH2 0x57D PUSH2 0xE97 JUMP JUMPDEST JUMPDEST PUSH1 0x40 MLOAD SWAP1 DUP1 DUP3 MSTORE DUP1 PUSH1 0x20 MUL PUSH1 0x20 ADD DUP3 ADD PUSH1 0x40 MSTORE DUP1 ISZERO PUSH2 0x5B7 JUMPI DUP2 PUSH1 0x20 ADD JUMPDEST PUSH2 0x5A4 PUSH2 0xE0D JUMP JUMPDEST DUP2 MSTORE PUSH1 0x20 ADD SWAP1 PUSH1 0x1 SWAP1 SUB SWAP1 DUP2 PUSH2 0x59C JUMPI SWAP1 POP JUMPDEST POP DUP4 PUSH1 0x40 ADD DUP2 SWAP1 MSTORE POP DUP2 DUP4 PUSH1 0x40 ADD MLOAD PUSH0 DUP2 MLOAD DUP2 LT PUSH2 0x5D8 JUMPI PUSH2 0x5D7 PUSH2 0x13C6 JUMP JUMPDEST JUMPDEST PUSH1 0x20 MUL PUSH1 0x20 ADD ADD DUP2 SWAP1 MSTORE POP PUSH0 DUP1 DUP6 PUSH20 0xFFFFFFFFFFFFFFFFFFFFFFFFFFFFFFFFFFFFFFFF AND DUP6 PUSH1 0x40 MLOAD PUSH1 0x20 ADD PUSH2 0x60D SWAP2 SWAP1 PUSH2 0x18D2 JUMP JUMPDEST PUSH1 0x40 MLOAD PUSH1 0x20 DUP2 DUP4 SUB SUB DUP2 MSTORE SWAP1 PUSH1 0x40 MSTORE PUSH1 0x40 MLOAD PUSH2 0x629 SWAP2 SWAP1 PUSH2 0x192C JUMP JUMPDEST PUSH0 PUSH1 0x40 MLOAD DUP1 DUP4 SUB DUP2 DUP6 GAS STATICCALL SWAP2 POP POP RETURNDATASIZE DUP1 PUSH0 DUP2 EQ PUSH2 0x661 JUMPI PUSH1 0x40 MLOAD SWAP2 POP PUSH1 0x1F NOT PUSH1 0x3F RETURNDATASIZE ADD AND DUP3 ADD PUSH1 0x40 MSTORE RETURNDATASIZE DUP3 MSTORE RETURNDATASIZE PUSH0 PUSH1 0x20 DUP5 ADD RETURNDATACOPY PUSH2 0x666 JUMP JUMPDEST PUSH1 0x60 SWAP2 POP JUMPDEST POP SWAP2 POP SWAP2 POP DUP2 PUSH2 0x6AB JUMPI PUSH1 0x40 MLOAD PUSH32 0x8C379A000000000000000000000000000000000000000000000000000000000 DUP2 MSTORE PUSH1 0x4 ADD PUSH2 0x6A2 SWAP1 PUSH2 0x198C JUMP JUMPDEST PUSH1 0x40 MLOAD DUP1 SWAP2 SUB SWAP1 REVERT JUMPDEST PUSH2 0x6B4 DUP2 PUSH2 0xC2A JUMP JUMPDEST SWAP7 POP POP POP POP POP POP POP SWAP1 JUMP JUMPDEST PUSH1 0x60 PUSH0 PUSH20 0x75A96B46758F367B9A40DAC909589603BE123057 SWAP1 POP PUSH2 0x6E1 PUSH2 0xDDC JUMP JUMPDEST PUSH1 0x4 PUSH8 0xFFFFFFFFFFFFFFFF DUP2 GT ISZERO PUSH2 0x6FC JUMPI PUSH2 0x6FB PUSH2 0xE97 JUMP JUMPDEST JUMPDEST PUSH1 0x40 MLOAD SWAP1 DUP1 DUP3 MSTORE DUP1 PUSH1 0x20 MUL PUSH1 0x20 ADD DUP3 ADD PUSH1 0x40 MSTORE DUP1 ISZERO PUSH2 0x72F JUMPI DUP2 PUSH1 0x20 ADD JUMPDEST PUSH1 0x60 DUP2 MSTORE PUSH1 0x20 ADD SWAP1 PUSH1 0x1 SWAP1 SUB SWAP1 DUP2 PUSH2 0x71A JUMPI SWAP1 POP JUMPDEST POP DUP2 PUSH1 0x20 ADD DUP2 SWAP1 MSTORE POP PUSH1 0x40 MLOAD DUP1 PUSH1 0x60 ADD PUSH1 0x40 MSTORE DUP1 PUSH1 0x2C DUP2 MSTORE PUSH1 0x20 ADD PUSH2 0x1A8A PUSH1 0x2C SWAP2 CODECOPY DUP2 PUSH1 0x20 ADD MLOAD PUSH0 DUP2 MLOAD DUP2 LT PUSH2 0x768 JUMPI PUSH2 0x767 PUSH2 0x13C6 JUMP JUMPDEST JUMPDEST PUSH1 0x20 MUL PUSH1 0x20 ADD ADD DUP2 SWAP1 MSTORE POP PUSH1 0x40 MLOAD DUP1 PUSH1 0x60 ADD PUSH1 0x40 MSTORE DUP1 PUSH1 0x2C DUP2 MSTORE PUSH1 0x20 ADD PUSH2 0x1AB6 PUSH1 0x2C SWAP2 CODECOPY DUP2 PUSH1 0x20 ADD MLOAD PUSH1 0x1 DUP2 MLOAD DUP2 LT PUSH2 0x7A4 JUMPI PUSH2 0x7A3 PUSH2 0x13C6 JUMP JUMPDEST JUMPDEST PUSH1 0x20 MUL PUSH1 0x20 ADD ADD DUP2 SWAP1 MSTORE POP DUP5 DUP2 PUSH1 0x20 ADD MLOAD PUSH1 0x2 DUP2 MLOAD DUP2 LT PUSH2 0x7C8 JUMPI PUSH2 0x7C7 PUSH2 0x13C6 JUMP JUMPDEST JUMPDEST PUSH1 0x20 MUL PUSH1 0x20 ADD ADD DUP2 SWAP1 MSTORE POP PUSH1 0x40 MLOAD DUP1 PUSH1 0x40 ADD PUSH1 0x40 MSTORE DUP1 PUSH1 0x20 DUP2 MSTORE PUSH1 0x20 ADD PUSH32 0x3131313131313131313131313131313131313131313131313131313131313131 DUP2 MSTORE POP DUP2 PUSH1 0x20 ADD MLOAD PUSH1 0x3 DUP2 MLOAD DUP2 LT PUSH2 0x821 JUMPI PUSH2 0x820 PUSH2 0x13C6 JUMP JUMPDEST JUMPDEST PUSH1 0x20 MUL PUSH1 0x20 ADD ADD DUP2 SWAP1 MSTORE POP PUSH3 0xF4240 DUP2 PUSH1 0x60 ADD SWAP1 PUSH8 0xFFFFFFFFFFFFFFFF AND SWAP1 DUP2 PUSH8 0xFFFFFFFFFFFFFFFF AND DUP2 MSTORE POP POP PUSH2 0x857 PUSH2 0xE0D JUMP JUMPDEST PUSH1 0x1 PUSH8 0xFFFFFFFFFFFFFFFF DUP2 GT ISZERO PUSH2 0x872 JUMPI PUSH2 0x871 PUSH2 0xE97 JUMP JUMPDEST JUMPDEST PUSH1 0x40 MLOAD SWAP1 DUP1 DUP3 MSTORE DUP1 PUSH1 0x20 MUL PUSH1 0x20 ADD DUP3 ADD PUSH1 0x40 MSTORE DUP1 ISZERO PUSH2 0x8A0 JUMPI DUP2 PUSH1 0x20 ADD PUSH1 0x20 DUP3 MUL DUP1 CALLDATASIZE DUP4 CALLDATACOPY DUP1 DUP3 ADD SWAP2 POP POP SWAP1 POP JUMPDEST POP DUP2 PUSH0 ADD DUP2 SWAP1 MSTORE POP PUSH0 DUP2 PUSH0 ADD MLOAD PUSH0 DUP2 MLOAD DUP2 LT PUSH2 0x8BF JUMPI PUSH2 0x8BE PUSH2 0x13C6 JUMP JUMPDEST JUMPDEST PUSH1 0x20 MUL PUSH1 0x20 ADD ADD SWAP1 PUSH4 0xFFFFFFFF AND SWAP1 DUP2 PUSH4 0xFFFFFFFF AND DUP2 MSTORE POP POP PUSH1 0x3 PUSH8 0xFFFFFFFFFFFFFFFF DUP2 GT ISZERO PUSH2 0x8F4 JUMPI PUSH2 0x8F3 PUSH2 0xE97 JUMP JUMPDEST JUMPDEST PUSH1 0x40 MLOAD SWAP1 DUP1 DUP3 MSTORE DUP1 PUSH1 0x20 MUL PUSH1 0x20 ADD DUP3 ADD PUSH1 0x40 MSTORE DUP1 ISZERO PUSH2 0x92D JUMPI DUP2 PUSH1 0x20 ADD JUMPDEST PUSH2 0x91A PUSH2 0xE2E JUMP JUMPDEST DUP2 MSTORE PUSH1 0x20 ADD SWAP1 PUSH1 0x1 SWAP1 SUB SWAP1 DUP2 PUSH2 0x912 JUMPI SWAP1 POP JUMPDEST POP DUP2 PUSH1 0x20 ADD DUP2 SWAP1 MSTORE POP PUSH1 0x40 MLOAD DUP1 PUSH1 0xA0 ADD PUSH1 0x40 MSTORE DUP1 PUSH1 0x1 PUSH4 0xFFFFFFFF AND DUP2 MSTORE PUSH1 0x20 ADD PUSH1 0x1 PUSH4 0xFFFFFFFF AND DUP2 MSTORE PUSH1 0x20 ADD PUSH0 PUSH4 0xFFFFFFFF AND DUP2 MSTORE PUSH1 0x20 ADD PUSH0 ISZERO ISZERO DUP2 MSTORE PUSH1 0x20 ADD PUSH1 0x1 ISZERO ISZERO DUP2 MSTORE POP DUP2 PUSH1 0x20 ADD MLOAD PUSH0 DUP2 MLOAD DUP2 LT PUSH2 0x98D JUMPI PUSH2 0x98C PUSH2 0x13C6 JUMP JUMPDEST JUMPDEST PUSH1 0x20 MUL PUSH1 0x20 ADD ADD DUP2 SWAP1 MSTORE POP PUSH1 0x40 MLOAD DUP1 PUSH1 0xA0 ADD PUSH1 0x40 MSTORE DUP1 PUSH1 0x2 PUSH4 0xFFFFFFFF AND DUP2 MSTORE PUSH1 0x20 ADD PUSH1 0x2 PUSH4 0xFFFFFFFF AND DUP2 MSTORE PUSH1 0x20 ADD PUSH1 0x1 PUSH4 0xFFFFFFFF AND DUP2 MSTORE PUSH1 0x20 ADD PUSH1 0x1 ISZERO ISZERO DUP2 MSTORE PUSH1 0x20 ADD PUSH1 0x1 ISZERO ISZERO DUP2 MSTORE POP DUP2 PUSH1 0x20 ADD MLOAD PUSH1 0x1 DUP2 MLOAD DUP2 LT PUSH2 0x9F2 JUMPI PUSH2 0x9F1 PUSH2 0x13C6 JUMP JUMPDEST JUMPDEST PUSH1 0x20 MUL PUSH1 0x20 ADD ADD DUP2 SWAP1 MSTORE POP PUSH1 0x40 MLOAD DUP1 PUSH1 0xA0 ADD PUSH1 0x40 MSTORE DUP1 PUSH1 0x3 PUSH4 0xFFFFFFFF AND DUP2 MSTORE PUSH1 0x20 ADD PUSH1 0x3 PUSH4 0xFFFFFFFF AND DUP2 MSTORE PUSH1 0x20 ADD PUSH1 0x2 PUSH4 0xFFFFFFFF AND DUP2 MSTORE PUSH1 0x20 ADD PUSH0 ISZERO ISZERO DUP2 MSTORE PUSH1 0x20 ADD PUSH0 ISZERO ISZERO DUP2 MSTORE POP DUP2 PUSH1 0x20 ADD MLOAD PUSH1 0x2 DUP2 MLOAD DUP2 LT PUSH2 0xA55 JUMPI PUSH2 0xA54 PUSH2 0x13C6 JUMP JUMPDEST JUMPDEST PUSH1 0x20 MUL PUSH1 0x20 ADD ADD DUP2 SWAP1 MSTORE POP PUSH0 PUSH1 0x40 MLOAD DUP1 PUSH1 0x40 ADD PUSH1 0x40 MSTORE DUP1 PUSH1 0x8 DUP2 MSTORE PUSH1 0x20 ADD PUSH32 0xDF725B88C54E9999000000000000000000000000000000000000000000000000 DUP2 MSTORE POP SWAP1 POP PUSH0 PUSH2 0xAA3 DUP8 PUSH2 0xD1A JUMP JUMPDEST SWAP1 POP DUP2 DUP2 DUP9 PUSH1 0x40 MLOAD PUSH1 0x20 ADD PUSH2 0xABA SWAP4 SWAP3 SWAP2 SWAP1 PUSH2 0x19F5 JUMP JUMPDEST PUSH1 0x40 MLOAD PUSH1 0x20 DUP2 DUP4 SUB SUB DUP2 MSTORE SWAP1 PUSH1 0x40 MSTORE DUP4 PUSH1 0x40 ADD DUP2 SWAP1 MSTORE POP PUSH1 0x1 PUSH8 0xFFFFFFFFFFFFFFFF DUP2 GT ISZERO PUSH2 0xAEC JUMPI PUSH2 0xAEB PUSH2 0xE97 JUMP JUMPDEST JUMPDEST PUSH1 0x40 MLOAD SWAP1 DUP1 DUP3 MSTORE DUP1 PUSH1 0x20 MUL PUSH1 0x20 ADD DUP3 ADD PUSH1 0x40 MSTORE DUP1 ISZERO PUSH2 0xB25 JUMPI DUP2 PUSH1 0x20 ADD JUMPDEST PUSH2 0xB12 PUSH2 0xE0D JUMP JUMPDEST DUP2 MSTORE PUSH1 0x20 ADD SWAP1 PUSH1 0x1 SWAP1 SUB SWAP1 DUP2 PUSH2 0xB0A JUMPI SWAP1 POP JUMPDEST POP DUP5 PUSH1 0x40 ADD DUP2 SWAP1 MSTORE POP DUP3 DUP5 PUSH1 0x40 ADD MLOAD PUSH0 DUP2 MLOAD DUP2 LT PUSH2 0xB46 JUMPI PUSH2 0xB45 PUSH2 0x13C6 JUMP JUMPDEST JUMPDEST PUSH1 0x20 MUL PUSH1 0x20 ADD ADD DUP2 SWAP1 MSTORE POP PUSH0 DUP1 DUP7 PUSH20 0xFFFFFFFFFFFFFFFFFFFFFFFFFFFFFFFFFFFFFFFF AND DUP7 PUSH1 0x40 MLOAD PUSH1 0x20 ADD PUSH2 0xB7B SWAP2 SWAP1 PUSH2 0x18D2 JUMP JUMPDEST PUSH1 0x40 MLOAD PUSH1 0x20 DUP2 DUP4 SUB SUB DUP2 MSTORE SWAP1 PUSH1 0x40 MSTORE PUSH1 0x40 MLOAD PUSH2 0xB97 SWAP2 SWAP1 PUSH2 0x192C JUMP JUMPDEST PUSH0 PUSH1 0x40 MLOAD DUP1 DUP4 SUB DUP2 PUSH0 DUP7 GAS CALL SWAP2 POP POP RETURNDATASIZE DUP1 PUSH0 DUP2 EQ PUSH2 0xBD0 JUMPI PUSH1 0x40 MLOAD SWAP2 POP PUSH1 0x1F NOT PUSH1 0x3F RETURNDATASIZE ADD AND DUP3 ADD PUSH1 0x40 MSTORE RETURNDATASIZE DUP3 MSTORE RETURNDATASIZE PUSH0 PUSH1 0x20 DUP5 ADD RETURNDATACOPY PUSH2 0xBD5 JUMP JUMPDEST PUSH1 0x60 SWAP2 POP JUMPDEST POP SWAP2 POP SWAP2 POP DUP2 PUSH2 0xC1A JUMPI PUSH1 0x40 MLOAD PUSH32 0x8C379A000000000000000000000000000000000000000000000000000000000 DUP2 MSTORE PUSH1 0x4 ADD PUSH2 0xC11 SWAP1 PUSH2 0x198C JUMP JUMPDEST PUSH1 0x40 MLOAD DUP1 SWAP2 SUB SWAP1 REVERT JUMPDEST DUP1 SWAP8 POP POP POP POP POP POP POP POP SWAP3 SWAP2 POP POP JUMP JUMPDEST PUSH1 0x60 PUSH0 PUSH1 0x4 DUP4 MLOAD PUSH2 0xC3B SWAP2 SWAP1 PUSH2 0x1A56 JUMP JUMPDEST PUSH8 0xFFFFFFFFFFFFFFFF DUP2 GT ISZERO PUSH2 0xC54 JUMPI PUSH2 0xC53 PUSH2 0xE97 JUMP JUMPDEST JUMPDEST PUSH1 0x40 MLOAD SWAP1 DUP1 DUP3 MSTORE DUP1 PUSH1 0x1F ADD PUSH1 0x1F NOT AND PUSH1 0x20 ADD DUP3 ADD PUSH1 0x40 MSTORE DUP1 ISZERO PUSH2 0xC86 JUMPI DUP2 PUSH1 0x20 ADD PUSH1 0x1 DUP3 MUL DUP1 CALLDATASIZE DUP4 CALLDATACOPY DUP1 DUP3 ADD SWAP2 POP POP SWAP1 POP JUMPDEST POP SWAP1 POP PUSH0 PUSH1 0x4 SWAP1 POP JUMPDEST DUP4 MLOAD DUP2 LT ISZERO PUSH2 0xD10 JUMPI DUP4 DUP2 DUP2 MLOAD DUP2 LT PUSH2 0xCAB JUMPI PUSH2 0xCAA PUSH2 0x13C6 JUMP JUMPDEST JUMPDEST PUSH1 0x20 ADD ADD MLOAD PUSH1 0xF8 SHR PUSH1 0xF8 SHL DUP3 PUSH1 0x4 DUP4 PUSH2 0xCC4 SWAP2 SWAP1 PUSH2 0x1A56 JUMP JUMPDEST DUP2 MLOAD DUP2 LT PUSH2 0xCD5 JUMPI PUSH2 0xCD4 PUSH2 0x13C6 JUMP JUMPDEST JUMPDEST PUSH1 0x20 ADD ADD SWAP1 PUSH31 0xFFFFFFFFFFFFFFFFFFFFFFFFFFFFFFFFFFFFFFFFFFFFFFFFFFFFFFFFFFFFFF NOT AND SWAP1 DUP2 PUSH0 BYTE SWAP1 MSTORE8 POP DUP1 DUP1 PUSH1 0x1 ADD SWAP2 POP POP PUSH2 0xC8F JUMP JUMPDEST POP DUP1 SWAP2 POP POP SWAP2 SWAP1 POP JUMP JUMPDEST PUSH0 DUP1 DUP3 MLOAD SWAP1 POP PUSH2 0xD29 DUP2 PUSH2 0xD31 JUMP JUMPDEST SWAP2 POP POP SWAP2 SWAP1 POP JUMP JUMPDEST PUSH0 DUP1 DUP3 PUSH0 SHL SWAP1 POP DUP1 PUSH1 0x1C PUSH1 0x20 DUP2 LT PUSH2 0xD4C JUMPI PUSH2 0xD4B PUSH2 0x13C6 JUMP JUMPDEST JUMPDEST BYTE PUSH1 0xF8 SHL PUSH1 0xF8 SHR PUSH1 0xFF AND PUSH1 0x8 DUP3 PUSH1 0x1D PUSH1 0x20 DUP2 LT PUSH2 0xD6C JUMPI PUSH2 0xD6B PUSH2 0x13C6 JUMP JUMPDEST JUMPDEST BYTE PUSH1 0xF8 SHL PUSH1 0xF8 SHR PUSH1 0xFF AND PUSH4 0xFFFFFFFF AND SWAP1 SHL PUSH1 0x10 DUP4 PUSH1 0x1E PUSH1 0x20 DUP2 LT PUSH2 0xD94 JUMPI PUSH2 0xD93 PUSH2 0x13C6 JUMP JUMPDEST JUMPDEST BYTE PUSH1 0xF8 SHL PUSH1 0xF8 SHR PUSH1 0xFF AND PUSH4 0xFFFFFFFF AND SWAP1 SHL PUSH1 0x18 DUP5 PUSH1 0x1F PUSH1 0x20 DUP2 LT PUSH2 0xDBC JUMPI PUSH2 0xDBB PUSH2 0x13C6 JUMP JUMPDEST JUMPDEST BYTE PUSH1 0xF8 SHL PUSH1 0xF8 SHR PUSH1 0xFF AND PUSH4 0xFFFFFFFF AND SWAP1 SHL OR OR OR PUSH1 0xE0 SHL SWAP2 POP POP SWAP2 SWAP1 POP JUMP JUMPDEST PUSH1 0x40 MLOAD DUP1 PUSH1 0x80 ADD PUSH1 0x40 MSTORE DUP1 PUSH1 0x60 DUP2 MSTORE PUSH1 0x20 ADD PUSH1 0x60 DUP2 MSTORE PUSH1 0x20 ADD PUSH1 0x60 DUP2 MSTORE PUSH1 0x20 ADD PUSH0 PUSH8 0xFFFFFFFFFFFFFFFF AND DUP2 MSTORE POP SWAP1 JUMP JUMPDEST PUSH1 0x40 MLOAD DUP1 PUSH1 0x60 ADD PUSH1 0x40 MSTORE DUP1 PUSH1 0x60 DUP2 MSTORE PUSH1 0x20 ADD PUSH1 0x60 DUP2 MSTORE PUSH1 0x20 ADD PUSH1 0x60 DUP2 MSTORE POP SWAP1 JUMP JUMPDEST PUSH1 0x40 MLOAD DUP1 PUSH1 0xA0 ADD PUSH1 0x40 MSTORE DUP1 PUSH0 PUSH4 0xFFFFFFFF AND DUP2 MSTORE PUSH1 0x20 ADD PUSH0 PUSH4 0xFFFFFFFF AND DUP2 MSTORE PUSH1 0x20 ADD PUSH0 PUSH4 0xFFFFFFFF AND DUP2 MSTORE PUSH1 0x20 ADD PUSH0 ISZERO ISZERO DUP2 MSTORE PUSH1 0x20 ADD PUSH0 ISZERO ISZERO DUP2 MSTORE POP SWAP1 JUMP JUMPDEST PUSH0 PUSH1 0x40 MLOAD SWAP1 POP SWAP1 JUMP JUMPDEST PUSH0 DUP1 REVERT JUMPDEST PUSH0 DUP1 REVERT JUMPDEST PUSH0 DUP1 REVERT JUMPDEST PUSH0 DUP1 REVERT JUMPDEST PUSH0 PUSH1 0x1F NOT PUSH1 0x1F DUP4 ADD AND SWAP1 POP SWAP2 SWAP1 POP JUMP JUMPDEST PUSH32 0x4E487B7100000000000000000000000000000000000000000000000000000000 PUSH0 MSTORE PUSH1 0x41 PUSH1 0x4 MSTORE PUSH1 0x24 PUSH0 REVERT JUMPDEST PUSH2 0xECD DUP3 PUSH2 0xE87 JUMP JUMPDEST DUP2 ADD DUP2 DUP2 LT PUSH8 0xFFFFFFFFFFFFFFFF DUP3 GT OR ISZERO PUSH2 0xEEC JUMPI PUSH2 0xEEB PUSH2 0xE97 JUMP JUMPDEST JUMPDEST DUP1 PUSH1 0x40 MSTORE POP POP POP JUMP JUMPDEST PUSH0 PUSH2 0xEFE PUSH2 0xE6E JUMP JUMPDEST SWAP1 POP PUSH2 0xF0A DUP3 DUP3 PUSH2 0xEC4 JUMP JUMPDEST SWAP2 SWAP1 POP JUMP JUMPDEST PUSH0 PUSH8 0xFFFFFFFFFFFFFFFF DUP3 GT ISZERO PUSH2 0xF29 JUMPI PUSH2 0xF28 PUSH2 0xE97 JUMP JUMPDEST JUMPDEST PUSH2 0xF32 DUP3 PUSH2 0xE87 JUMP JUMPDEST SWAP1 POP PUSH1 0x20 DUP2 ADD SWAP1 POP SWAP2 SWAP1 POP JUMP JUMPDEST DUP3 DUP2 DUP4 CALLDATACOPY PUSH0 DUP4 DUP4 ADD MSTORE POP POP POP JUMP JUMPDEST PUSH0 PUSH2 0xF5F PUSH2 0xF5A DUP5 PUSH2 0xF0F JUMP JUMPDEST PUSH2 0xEF5 JUMP JUMPDEST SWAP1 POP DUP3 DUP2 MSTORE PUSH1 0x20 DUP2 ADD DUP5 DUP5 DUP5 ADD GT ISZERO PUSH2 0xF7B JUMPI PUSH2 0xF7A PUSH2 0xE83 JUMP JUMPDEST JUMPDEST PUSH2 0xF86 DUP5 DUP3 DUP6 PUSH2 0xF3F JUMP JUMPDEST POP SWAP4 SWAP3 POP POP POP JUMP JUMPDEST PUSH0 DUP3 PUSH1 0x1F DUP4 ADD SLT PUSH2 0xFA2 JUMPI PUSH2 0xFA1 PUSH2 0xE7F JUMP JUMPDEST JUMPDEST DUP2 CALLDATALOAD PUSH2 0xFB2 DUP5 DUP3 PUSH1 0x20 DUP7 ADD PUSH2 0xF4D JUMP JUMPDEST SWAP2 POP POP SWAP3 SWAP2 POP POP JUMP JUMPDEST PUSH0 PUSH1 0x20 DUP3 DUP5 SUB SLT ISZERO PUSH2 0xFD0 JUMPI PUSH2 0xFCF PUSH2 0xE77 JUMP JUMPDEST JUMPDEST PUSH0 DUP3 ADD CALLDATALOAD PUSH8 0xFFFFFFFFFFFFFFFF DUP2 GT ISZERO PUSH2 0xFED JUMPI PUSH2 0xFEC PUSH2 0xE7B JUMP JUMPDEST JUMPDEST PUSH2 0xFF9 DUP5 DUP3 DUP6 ADD PUSH2 0xF8E JUMP JUMPDEST SWAP2 POP POP SWAP3 SWAP2 POP POP JUMP JUMPDEST PUSH0 DUP2 MLOAD SWAP1 POP SWAP2 SWAP1 POP JUMP JUMPDEST PUSH0 DUP3 DUP3 MSTORE PUSH1 0x20 DUP3 ADD SWAP1 POP SWAP3 SWAP2 POP POP JUMP JUMPDEST DUP3 DUP2 DUP4 MCOPY PUSH0 DUP4 DUP4 ADD MSTORE POP POP POP JUMP JUMPDEST PUSH0 PUSH2 0x1034 DUP3 PUSH2 0x1002 JUMP JUMPDEST PUSH2 0x103E DUP2 DUP6 PUSH2 0x100C JUMP JUMPDEST SWAP4 POP PUSH2 0x104E DUP2 DUP6 PUSH1 0x20 DUP7 ADD PUSH2 0x101C JUMP JUMPDEST PUSH2 0x1057 DUP2 PUSH2 0xE87 JUMP JUMPDEST DUP5 ADD SWAP2 POP POP SWAP3 SWAP2 POP POP JUMP JUMPDEST PUSH0 PUSH1 0x20 DUP3 ADD SWAP1 POP DUP2 DUP2 SUB PUSH0 DUP4 ADD MSTORE PUSH2 0x107A DUP2 DUP5 PUSH2 0x102A JUMP JUMPDEST SWAP1 POP SWAP3 SWAP2 POP POP JUMP JUMPDEST PUSH0 DUP2 MLOAD SWAP1 POP SWAP2 SWAP1 POP JUMP JUMPDEST PUSH0 DUP3 DUP3 MSTORE PUSH1 0x20 DUP3 ADD SWAP1 POP SWAP3 SWAP2 POP POP JUMP JUMPDEST PUSH0 PUSH2 0x10A6 DUP3 PUSH2 0x1082 JUMP JUMPDEST PUSH2 0x10B0 DUP2 DUP6 PUSH2 0x108C JUMP JUMPDEST SWAP4 POP PUSH2 0x10C0 DUP2 DUP6 PUSH1 0x20 DUP7 ADD PUSH2 0x101C JUMP JUMPDEST PUSH2 0x10C9 DUP2 PUSH2 0xE87 JUMP JUMPDEST DUP5 ADD SWAP2 POP POP SWAP3 SWAP2 POP POP JUMP JUMPDEST PUSH0 PUSH1 0x20 DUP3 ADD SWAP1 POP DUP2 DUP2 SUB PUSH0 DUP4 ADD MSTORE PUSH2 0x10EC DUP2 DUP5 PUSH2 0x109C JUMP JUMPDEST SWAP1 POP SWAP3 SWAP2 POP POP JUMP JUMPDEST PUSH32 0x4E487B7100000000000000000000000000000000000000000000000000000000 PUSH0 MSTORE PUSH1 0x22 PUSH1 0x4 MSTORE PUSH1 0x24 PUSH0 REVERT JUMPDEST PUSH0 PUSH1 0x2 DUP3 DIV SWAP1 POP PUSH1 0x1 DUP3 AND DUP1 PUSH2 0x1138 JUMPI PUSH1 0x7F DUP3 AND SWAP2 POP JUMPDEST PUSH1 0x20 DUP3 LT DUP2 SUB PUSH2 0x114B JUMPI PUSH2 0x114A PUSH2 0x10F4 JUMP JUMPDEST JUMPDEST POP SWAP2 SWAP1 POP JUMP JUMPDEST PUSH0 DUP2 SWAP1 POP DUP2 PUSH0 MSTORE PUSH1 0x20 PUSH0 KECCAK256 SWAP1 POP SWAP2 SWAP1 POP JUMP JUMPDEST PUSH0 PUSH1 0x20 PUSH1 0x1F DUP4 ADD DIV SWAP1 POP SWAP2 SWAP1 POP JUMP JUMPDEST PUSH0 DUP3 DUP3 SHL SWAP1 POP SWAP3 SWAP2 POP POP JUMP JUMPDEST PUSH0 PUSH1 0x8 DUP4 MUL PUSH2 0x11AD PUSH32 0xFFFFFFFFFFFFFFFFFFFFFFFFFFFFFFFFFFFFFFFFFFFFFFFFFFFFFFFFFFFFFFFF DUP3 PUSH2 0x1172 JUMP JUMPDEST PUSH2 0x11B7 DUP7 DUP4 PUSH2 0x1172 JUMP JUMPDEST SWAP6 POP DUP1 NOT DUP5 AND SWAP4 POP DUP1 DUP7 AND DUP5 OR SWAP3 POP POP POP SWAP4 SWAP3 POP POP POP JUMP JUMPDEST PUSH0 DUP2 SWAP1 POP SWAP2 SWAP1 POP JUMP JUMPDEST PUSH0 DUP2 SWAP1 POP SWAP2 SWAP1 POP JUMP JUMPDEST PUSH0 PUSH2 0x11FB PUSH2 0x11F6 PUSH2 0x11F1 DUP5 PUSH2 0x11CF JUMP JUMPDEST PUSH2 0x11D8 JUMP JUMPDEST PUSH2 0x11CF JUMP JUMPDEST SWAP1 POP SWAP2 SWAP1 POP JUMP JUMPDEST PUSH0 DUP2 SWAP1 POP SWAP2 SWAP1 POP JUMP JUMPDEST PUSH2 0x1214 DUP4 PUSH2 0x11E1 JUMP JUMPDEST PUSH2 0x1228 PUSH2 0x1220 DUP3 PUSH2 0x1202 JUMP JUMPDEST DUP5 DUP5 SLOAD PUSH2 0x117E JUMP JUMPDEST DUP3 SSTORE POP POP POP POP JUMP JUMPDEST PUSH0 SWAP1 JUMP JUMPDEST PUSH2 0x123C PUSH2 0x1230 JUMP JUMPDEST PUSH2 0x1247 DUP2 DUP5 DUP5 PUSH2 0x120B JUMP JUMPDEST POP POP POP JUMP JUMPDEST JUMPDEST DUP2 DUP2 LT ISZERO PUSH2 0x126A JUMPI PUSH2 0x125F PUSH0 DUP3 PUSH2 0x1234 JUMP JUMPDEST PUSH1 0x1 DUP2 ADD SWAP1 POP PUSH2 0x124D JUMP JUMPDEST POP POP JUMP JUMPDEST PUSH1 0x1F DUP3 GT ISZERO PUSH2 0x12AF JUMPI PUSH2 0x1280 DUP2 PUSH2 0x1151 JUMP JUMPDEST PUSH2 0x1289 DUP5 PUSH2 0x1163 JUMP JUMPDEST DUP2 ADD PUSH1 0x20 DUP6 LT ISZERO PUSH2 0x1298 JUMPI DUP2 SWAP1 POP JUMPDEST PUSH2 0x12AC PUSH2 0x12A4 DUP6 PUSH2 0x1163 JUMP JUMPDEST DUP4 ADD DUP3 PUSH2 0x124C JUMP JUMPDEST POP POP JUMPDEST POP POP POP JUMP JUMPDEST PUSH0 DUP3 DUP3 SHR SWAP1 POP SWAP3 SWAP2 POP POP JUMP JUMPDEST PUSH0 PUSH2 0x12CF PUSH0 NOT DUP5 PUSH1 0x8 MUL PUSH2 0x12B4 JUMP JUMPDEST NOT DUP1 DUP4 AND SWAP2 POP POP SWAP3 SWAP2 POP POP JUMP JUMPDEST PUSH0 PUSH2 0x12E7 DUP4 DUP4 PUSH2 0x12C0 JUMP JUMPDEST SWAP2 POP DUP3 PUSH1 0x2 MUL DUP3 OR SWAP1 POP SWAP3 SWAP2 POP POP JUMP JUMPDEST PUSH2 0x1300 DUP3 PUSH2 0x1082 JUMP JUMPDEST PUSH8 0xFFFFFFFFFFFFFFFF DUP2 GT ISZERO PUSH2 0x1319 JUMPI PUSH2 0x1318 PUSH2 0xE97 JUMP JUMPDEST JUMPDEST PUSH2 0x1323 DUP3 SLOAD PUSH2 0x1121 JUMP JUMPDEST PUSH2 0x132E DUP3 DUP3 DUP6 PUSH2 0x126E JUMP JUMPDEST PUSH0 PUSH1 0x20 SWAP1 POP PUSH1 0x1F DUP4 GT PUSH1 0x1 DUP2 EQ PUSH2 0x135F JUMPI PUSH0 DUP5 ISZERO PUSH2 0x134D JUMPI DUP3 DUP8 ADD MLOAD SWAP1 POP JUMPDEST PUSH2 0x1357 DUP6 DUP3 PUSH2 0x12DC JUMP JUMPDEST DUP7 SSTORE POP PUSH2 0x13BE JUMP JUMPDEST PUSH1 0x1F NOT DUP5 AND PUSH2 0x136D DUP7 PUSH2 0x1151 JUMP JUMPDEST PUSH0 JUMPDEST DUP3 DUP2 LT ISZERO PUSH2 0x1394 JUMPI DUP5 DUP10 ADD MLOAD DUP3 SSTORE PUSH1 0x1 DUP3 ADD SWAP2 POP PUSH1 0x20 DUP6 ADD SWAP5 POP PUSH1 0x20 DUP2 ADD SWAP1 POP PUSH2 0x136F JUMP JUMPDEST DUP7 DUP4 LT ISZERO PUSH2 0x13B1 JUMPI DUP5 DUP10 ADD MLOAD PUSH2 0x13AD PUSH1 0x1F DUP10 AND DUP3 PUSH2 0x12C0 JUMP JUMPDEST DUP4 SSTORE POP JUMPDEST PUSH1 0x1 PUSH1 0x2 DUP9 MUL ADD DUP9 SSTORE POP POP POP JUMPDEST POP POP POP POP POP POP JUMP JUMPDEST PUSH32 0x4E487B7100000000000000000000000000000000000000000000000000000000 PUSH0 MSTORE PUSH1 0x32 PUSH1 0x4 MSTORE PUSH1 0x24 PUSH0 REVERT JUMPDEST PUSH0 DUP2 MLOAD SWAP1 POP SWAP2 SWAP1 POP JUMP JUMPDEST PUSH0 DUP3 DUP3 MSTORE PUSH1 0x20 DUP3 ADD SWAP1 POP SWAP3 SWAP2 POP POP JUMP JUMPDEST PUSH0 DUP2 SWAP1 POP PUSH1 0x20 DUP3 ADD SWAP1 POP SWAP2 SWAP1 POP JUMP JUMPDEST PUSH0 DUP3 DUP3 MSTORE PUSH1 0x20 DUP3 ADD SWAP1 POP SWAP3 SWAP2 POP POP JUMP JUMPDEST PUSH0 PUSH2 0x1436 DUP3 PUSH2 0x1082 JUMP JUMPDEST PUSH2 0x1440 DUP2 DUP6 PUSH2 0x141C JUMP JUMPDEST SWAP4 POP PUSH2 0x1450 DUP2 DUP6 PUSH1 0x20 DUP7 ADD PUSH2 0x101C JUMP JUMPDEST PUSH2 0x1459 DUP2 PUSH2 0xE87 JUMP JUMPDEST DUP5 ADD SWAP2 POP POP SWAP3 SWAP2 POP POP JUMP JUMPDEST PUSH0 PUSH2 0x146F DUP4 DUP4 PUSH2 0x142C JUMP JUMPDEST SWAP1 POP SWAP3 SWAP2 POP POP JUMP JUMPDEST PUSH0 PUSH1 0x20 DUP3 ADD SWAP1 POP SWAP2 SWAP1 POP JUMP JUMPDEST PUSH0 PUSH2 0x148D DUP3 PUSH2 0x13F3 JUMP JUMPDEST PUSH2 0x1497 DUP2 DUP6 PUSH2 0x13FD JUMP JUMPDEST SWAP4 POP DUP4 PUSH1 0x20 DUP3 MUL DUP6 ADD PUSH2 0x14A9 DUP6 PUSH2 0x140D JUMP JUMPDEST DUP1 PUSH0 JUMPDEST DUP6 DUP2 LT ISZERO PUSH2 0x14E4 JUMPI DUP5 DUP5 SUB DUP10 MSTORE DUP2 MLOAD PUSH2 0x14C5 DUP6 DUP3 PUSH2 0x1464 JUMP JUMPDEST SWAP5 POP PUSH2 0x14D0 DUP4 PUSH2 0x1477 JUMP JUMPDEST SWAP3 POP PUSH1 0x20 DUP11 ADD SWAP10 POP POP PUSH1 0x1 DUP2 ADD SWAP1 POP PUSH2 0x14AC JUMP JUMPDEST POP DUP3 SWAP8 POP DUP8 SWAP6 POP POP POP POP POP POP SWAP3 SWAP2 POP POP JUMP JUMPDEST PUSH0 DUP2 MLOAD SWAP1 POP SWAP2 SWAP1 POP JUMP JUMPDEST PUSH0 DUP3 DUP3 MSTORE PUSH1 0x20 DUP3 ADD SWAP1 POP SWAP3 SWAP2 POP POP JUMP JUMPDEST PUSH0 DUP2 SWAP1 POP PUSH1 0x20 DUP3 ADD SWAP1 POP SWAP2 SWAP1 POP JUMP JUMPDEST PUSH0 DUP2 MLOAD SWAP1 POP SWAP2 SWAP1 POP JUMP JUMPDEST PUSH0 DUP3 DUP3 MSTORE PUSH1 0x20 DUP3 ADD SWAP1 POP SWAP3 SWAP2 POP POP JUMP JUMPDEST PUSH0 DUP2 SWAP1 POP PUSH1 0x20 DUP3 ADD SWAP1 POP SWAP2 SWAP1 POP JUMP JUMPDEST PUSH0 PUSH4 0xFFFFFFFF DUP3 AND SWAP1 POP SWAP2 SWAP1 POP JUMP JUMPDEST PUSH2 0x1560 DUP2 PUSH2 0x1548 JUMP JUMPDEST DUP3 MSTORE POP POP JUMP JUMPDEST PUSH0 PUSH2 0x1571 DUP4 DUP4 PUSH2 0x1557 JUMP JUMPDEST PUSH1 0x20 DUP4 ADD SWAP1 POP SWAP3 SWAP2 POP POP JUMP JUMPDEST PUSH0 PUSH1 0x20 DUP3 ADD SWAP1 POP SWAP2 SWAP1 POP JUMP JUMPDEST PUSH0 PUSH2 0x1593 DUP3 PUSH2 0x151F JUMP JUMPDEST PUSH2 0x159D DUP2 DUP6 PUSH2 0x1529 JUMP JUMPDEST SWAP4 POP PUSH2 0x15A8 DUP4 PUSH2 0x1539 JUMP JUMPDEST DUP1 PUSH0 JUMPDEST DUP4 DUP2 LT ISZERO PUSH2 0x15D8 JUMPI DUP2 MLOAD PUSH2 0x15BF DUP9 DUP3 PUSH2 0x1566 JUMP JUMPDEST SWAP8 POP PUSH2 0x15CA DUP4 PUSH2 0x157D JUMP JUMPDEST SWAP3 POP POP PUSH1 0x1 DUP2 ADD SWAP1 POP PUSH2 0x15AB JUMP JUMPDEST POP DUP6 SWAP4 POP POP POP POP SWAP3 SWAP2 POP POP JUMP JUMPDEST PUSH0 DUP2 MLOAD SWAP1 POP SWAP2 SWAP1 POP JUMP JUMPDEST PUSH0 DUP3 DUP3 MSTORE PUSH1 0x20 DUP3 ADD SWAP1 POP SWAP3 SWAP2 POP POP JUMP JUMPDEST PUSH0 DUP2 SWAP1 POP PUSH1 0x20 DUP3 ADD SWAP1 POP SWAP2 SWAP1 POP JUMP JUMPDEST PUSH0 DUP2 ISZERO ISZERO SWAP1 POP SWAP2 SWAP1 POP JUMP JUMPDEST PUSH2 0x1622 DUP2 PUSH2 0x160E JUMP JUMPDEST DUP3 MSTORE POP POP JUMP JUMPDEST PUSH1 0xA0 DUP3 ADD PUSH0 DUP3 ADD MLOAD PUSH2 0x163C PUSH0 DUP6 ADD DUP3 PUSH2 0x1557 JUMP JUMPDEST POP PUSH1 0x20 DUP3 ADD MLOAD PUSH2 0x164F PUSH1 0x20 DUP6 ADD DUP3 PUSH2 0x1557 JUMP JUMPDEST POP PUSH1 0x40 DUP3 ADD MLOAD PUSH2 0x1662 PUSH1 0x40 DUP6 ADD DUP3 PUSH2 0x1557 JUMP JUMPDEST POP PUSH1 0x60 DUP3 ADD MLOAD PUSH2 0x1675 PUSH1 0x60 DUP6 ADD DUP3 PUSH2 0x1619 JUMP JUMPDEST POP PUSH1 0x80 DUP3 ADD MLOAD PUSH2 0x1688 PUSH1 0x80 DUP6 ADD DUP3 PUSH2 0x1619 JUMP JUMPDEST POP POP POP POP JUMP JUMPDEST PUSH0 PUSH2 0x1699 DUP4 DUP4 PUSH2 0x1628 JUMP JUMPDEST PUSH1 0xA0 DUP4 ADD SWAP1 POP SWAP3 SWAP2 POP POP JUMP JUMPDEST PUSH0 PUSH1 0x20 DUP3 ADD SWAP1 POP SWAP2 SWAP1 POP JUMP JUMPDEST PUSH0 PUSH2 0x16BB DUP3 PUSH2 0x15E5 JUMP JUMPDEST PUSH2 0x16C5 DUP2 DUP6 PUSH2 0x15EF JUMP JUMPDEST SWAP4 POP PUSH2 0x16D0 DUP4 PUSH2 0x15FF JUMP JUMPDEST DUP1 PUSH0 JUMPDEST DUP4 DUP2 LT ISZERO PUSH2 0x1700 JUMPI DUP2 MLOAD PUSH2 0x16E7 DUP9 DUP3 PUSH2 0x168E JUMP JUMPDEST SWAP8 POP PUSH2 0x16F2 DUP4 PUSH2 0x16A5 JUMP JUMPDEST SWAP3 POP POP PUSH1 0x1 DUP2 ADD SWAP1 POP PUSH2 0x16D3 JUMP JUMPDEST POP DUP6 SWAP4 POP POP POP POP SWAP3 SWAP2 POP POP JUMP JUMPDEST PUSH0 DUP3 DUP3 MSTORE PUSH1 0x20 DUP3 ADD SWAP1 POP SWAP3 SWAP2 POP POP JUMP JUMPDEST PUSH0 PUSH2 0x1727 DUP3 PUSH2 0x1002 JUMP JUMPDEST PUSH2 0x1731 DUP2 DUP6 PUSH2 0x170D JUMP JUMPDEST SWAP4 POP PUSH2 0x1741 DUP2 DUP6 PUSH1 0x20 DUP7 ADD PUSH2 0x101C JUMP JUMPDEST PUSH2 0x174A DUP2 PUSH2 0xE87 JUMP JUMPDEST DUP5 ADD SWAP2 POP POP SWAP3 SWAP2 POP POP JUMP JUMPDEST PUSH0 PUSH1 0x60 DUP4 ADD PUSH0 DUP4 ADD MLOAD DUP5 DUP3 SUB PUSH0 DUP7 ADD MSTORE PUSH2 0x176F DUP3 DUP3 PUSH2 0x1589 JUMP JUMPDEST SWAP2 POP POP PUSH1 0x20 DUP4 ADD MLOAD DUP5 DUP3 SUB PUSH1 0x20 DUP7 ADD MSTORE PUSH2 0x1789 DUP3 DUP3 PUSH2 0x16B1 JUMP JUMPDEST SWAP2 POP POP PUSH1 0x40 DUP4 ADD MLOAD DUP5 DUP3 SUB PUSH1 0x40 DUP7 ADD MSTORE PUSH2 0x17A3 DUP3 DUP3 PUSH2 0x171D JUMP JUMPDEST SWAP2 POP POP DUP1 SWAP2 POP POP SWAP3 SWAP2 POP POP JUMP JUMPDEST PUSH0 PUSH2 0x17BB DUP4 DUP4 PUSH2 0x1755 JUMP JUMPDEST SWAP1 POP SWAP3 SWAP2 POP POP JUMP JUMPDEST PUSH0 PUSH1 0x20 DUP3 ADD SWAP1 POP SWAP2 SWAP1 POP JUMP JUMPDEST PUSH0 PUSH2 0x17D9 DUP3 PUSH2 0x14F6 JUMP JUMPDEST PUSH2 0x17E3 DUP2 DUP6 PUSH2 0x1500 JUMP JUMPDEST SWAP4 POP DUP4 PUSH1 0x20 DUP3 MUL DUP6 ADD PUSH2 0x17F5 DUP6 PUSH2 0x1510 JUMP JUMPDEST DUP1 PUSH0 JUMPDEST DUP6 DUP2 LT ISZERO PUSH2 0x1830 JUMPI DUP5 DUP5 SUB DUP10 MSTORE DUP2 MLOAD PUSH2 0x1811 DUP6 DUP3 PUSH2 0x17B0 JUMP JUMPDEST SWAP5 POP PUSH2 0x181C DUP4 PUSH2 0x17C3 JUMP JUMPDEST SWAP3 POP PUSH1 0x20 DUP11 ADD SWAP10 POP POP PUSH1 0x1 DUP2 ADD SWAP1 POP PUSH2 0x17F8 JUMP JUMPDEST POP DUP3 SWAP8 POP DUP8 SWAP6 POP POP POP POP POP POP SWAP3 SWAP2 POP POP JUMP JUMPDEST PUSH0 PUSH8 0xFFFFFFFFFFFFFFFF DUP3 AND SWAP1 POP SWAP2 SWAP1 POP JUMP JUMPDEST PUSH2 0x185E DUP2 PUSH2 0x1842 JUMP JUMPDEST DUP3 MSTORE POP POP JUMP JUMPDEST PUSH0 PUSH1 0x80 DUP4 ADD PUSH0 DUP4 ADD MLOAD DUP5 DUP3 SUB PUSH0 DUP7 ADD MSTORE PUSH2 0x187E DUP3 DUP3 PUSH2 0x1483 JUMP JUMPDEST SWAP2 POP POP PUSH1 0x20 DUP4 ADD MLOAD DUP5 DUP3 SUB PUSH1 0x20 DUP7 ADD MSTORE PUSH2 0x1898 DUP3 DUP3 PUSH2 0x1483 JUMP JUMPDEST SWAP2 POP POP PUSH1 0x40 DUP4 ADD MLOAD DUP5 DUP3 SUB PUSH1 0x40 DUP7 ADD MSTORE PUSH2 0x18B2 DUP3 DUP3 PUSH2 0x17CF JUMP JUMPDEST SWAP2 POP POP PUSH1 0x60 DUP4 ADD MLOAD PUSH2 0x18C7 PUSH1 0x60 DUP7 ADD DUP3 PUSH2 0x1855 JUMP JUMPDEST POP DUP1 SWAP2 POP POP SWAP3 SWAP2 POP POP JUMP JUMPDEST PUSH0 PUSH1 0x20 DUP3 ADD SWAP1 POP DUP2 DUP2 SUB PUSH0 DUP4 ADD MSTORE PUSH2 0x18EA DUP2 DUP5 PUSH2 0x1864 JUMP JUMPDEST SWAP1 POP SWAP3 SWAP2 POP POP JUMP JUMPDEST PUSH0 DUP2 SWAP1 POP SWAP3 SWAP2 POP POP JUMP JUMPDEST PUSH0 PUSH2 0x1906 DUP3 PUSH2 0x1002 JUMP JUMPDEST PUSH2 0x1910 DUP2 DUP6 PUSH2 0x18F2 JUMP JUMPDEST SWAP4 POP PUSH2 0x1920 DUP2 DUP6 PUSH1 0x20 DUP7 ADD PUSH2 0x101C JUMP JUMPDEST DUP1 DUP5 ADD SWAP2 POP POP SWAP3 SWAP2 POP POP JUMP JUMPDEST PUSH0 PUSH2 0x1937 DUP3 DUP5 PUSH2 0x18FC JUMP JUMPDEST SWAP2 POP DUP2 SWAP1 POP SWAP3 SWAP2 POP POP JUMP JUMPDEST PUSH32 0x63616C6C206D7573742073756363656564000000000000000000000000000000 PUSH0 DUP3 ADD MSTORE POP JUMP JUMPDEST PUSH0 PUSH2 0x1976 PUSH1 0x11 DUP4 PUSH2 0x108C JUMP JUMPDEST SWAP2 POP PUSH2 0x1981 DUP3 PUSH2 0x1942 JUMP JUMPDEST PUSH1 0x20 DUP3 ADD SWAP1 POP SWAP2 SWAP1 POP JUMP JUMPDEST PUSH0 PUSH1 0x20 DUP3 ADD SWAP1 POP DUP2 DUP2 SUB PUSH0 DUP4 ADD MSTORE PUSH2 0x19A3 DUP2 PUSH2 0x196A JUMP JUMPDEST SWAP1 POP SWAP2 SWAP1 POP JUMP JUMPDEST PUSH0 PUSH32 0xFFFFFFFF00000000000000000000000000000000000000000000000000000000 DUP3 AND SWAP1 POP SWAP2 SWAP1 POP JUMP JUMPDEST PUSH0 DUP2 SWAP1 POP SWAP2 SWAP1 POP JUMP JUMPDEST PUSH2 0x19EF PUSH2 0x19EA DUP3 PUSH2 0x19AA JUMP JUMPDEST PUSH2 0x19D5 JUMP JUMPDEST DUP3 MSTORE POP POP JUMP JUMPDEST PUSH0 PUSH2 0x1A00 DUP3 DUP7 PUSH2 0x18FC JUMP JUMPDEST SWAP2 POP PUSH2 0x1A0C DUP3 DUP6 PUSH2 0x19DE JUMP JUMPDEST PUSH1 0x4 DUP3 ADD SWAP2 POP PUSH2 0x1A1C DUP3 DUP5 PUSH2 0x18FC JUMP JUMPDEST SWAP2 POP DUP2 SWAP1 POP SWAP5 SWAP4 POP POP POP POP JUMP JUMPDEST PUSH32 0x4E487B7100000000000000000000000000000000000000000000000000000000 PUSH0 MSTORE PUSH1 0x11 PUSH1 0x4 MSTORE PUSH1 0x24 PUSH0 REVERT JUMPDEST PUSH0 PUSH2 0x1A60 DUP3 PUSH2 0x11CF JUMP JUMPDEST SWAP2 POP PUSH2 0x1A6B DUP4 PUSH2 0x11CF JUMP JUMPDEST SWAP3 POP DUP3 DUP3 SUB SWAP1 POP DUP2 DUP2 GT ISZERO PUSH2 0x1A83 JUMPI PUSH2 0x1A82 PUSH2 0x1A29 JUMP JUMPDEST JUMPDEST SWAP3 SWAP2 POP POP JUMP INVALID CODESIZE CALLER PUSH27 0x665A596163467247713565426E6E703645515078617063706A7078 PUSH5 0x6A414B704C PUSH2 0x7671 PUSH21 0x534A333232327A36483644655734554C4279514B4C GASLIMIT MSTORE PUSH21 0x486A536F44654669754369693876334E754C534166 ORIGIN PUSH5 0x62A2646970 PUSH7 0x735822122029B7 STATICCALL SWAP11 0x1F GASPRICE 0xAD PUSH27 0x17CF1A478F8795B24C0064C3BA2B9A37A85E862EA359232A64736F PUSH13 0x634300081A0033000000000000 "
	},
	"Assembly": ".code\n  PUSH 80\t\t\tcontract SvmSetter {\\n    stru...\n  PUSH 40\t\t\tcontract SvmSetter {\\n    stru...\n  MSTORE \t\t\tcontract SvmSetter {\\n    stru...\n  CALLVALUE \t\t\tcontract SvmSetter {\\n    stru...\n  DUP1 \t\t\tcontract SvmSetter {\\n    stru...\n  ISZERO \t\t\tcontract SvmSetter {\\n    stru...\n  PUSH [tag] 1\t\t\tcontract SvmSetter {\\n    stru...\n  JUMPI \t\t\tcontract SvmSetter {\\n    stru...\n  PUSH 0\t\t\tcontract SvmSetter {\\n    stru...\n  DUP1 \t\t\tcontract SvmSetter {\\n    stru...\n  REVERT \t\t\tcontract SvmSetter {\\n    stru...\ntag 1\t\t\tcontract SvmSetter {\\n    stru...\n  JUMPDEST \t\t\tcontract SvmSetter {\\n    stru...\n  POP \t\t\tcontract SvmSetter {\\n    stru...\n  PUSH #[$] 0000000000000000000000000000000000000000000000000000000000000000\t\t\tcontract SvmSetter {\\n    stru...\n  DUP1 \t\t\tcontract SvmSetter {\\n    stru...\n  PUSH [$] 0000000000000000000000000000000000000000000000000000000000000000\t\t\tcontract SvmSetter {\\n    stru...\n  PUSH 0\t\t\tcontract SvmSetter {\\n    stru...\n  CODECOPY \t\t\tcontract SvmSetter {\\n    stru...\n  PUSH 0\t\t\tcontract SvmSetter {\\n    stru...\n  RETURN \t\t\tcontract SvmSetter {\\n    stru...\n.data\n  0:\n    .code\n      PUSH 80\t\t\tcontract SvmSetter {\\n    stru...\n      PUSH 40\t\t\tcontract SvmSetter {\\n    stru...\n      MSTORE \t\t\tcontract SvmSetter {\\n    stru...\n      CALLVALUE \t\t\tcontract SvmSetter {\\n    stru...\n      DUP1 \t\t\tcontract SvmSetter {\\n    stru...\n      ISZERO \t\t\tcontract SvmSetter {\\n    stru...\n      PUSH [tag] 1\t\t\tcontract SvmSetter {\\n    stru...\n      JUMPI \t\t\tcontract SvmSetter {\\n    stru...\n      PUSH 0\t\t\tcontract SvmSetter {\\n    stru...\n      DUP1 \t\t\tcontract SvmSetter {\\n    stru...\n      REVERT \t\t\tcontract SvmSetter {\\n    stru...\n    tag 1\t\t\tcontract SvmSetter {\\n    stru...\n      JUMPDEST \t\t\tcontract SvmSetter {\\n    stru...\n      POP \t\t\tcontract SvmSetter {\\n    stru...\n      PUSH 4\t\t\tcontract SvmSetter {\\n    stru...\n      CALLDATASIZE \t\t\tcontract SvmSetter {\\n    stru...\n      LT \t\t\tcontract SvmSetter {\\n    stru...\n      PUSH [tag] 2\t\t\tcontract SvmSetter {\\n    stru...\n      JUMPI \t\t\tcontract SvmSetter {\\n    stru...\n      PUSH 0\t\t\tcontract SvmSetter {\\n    stru...\n      CALLDATALOAD \t\t\tcontract SvmSetter {\\n    stru...\n      PUSH E0\t\t\tcontract SvmSetter {\\n    stru...\n      SHR \t\t\tcontract SvmSetter {\\n    stru...\n      DUP1 \t\t\tcontract SvmSetter {\\n    stru...\n      PUSH 2962EB6A\t\t\tcontract SvmSetter {\\n    stru...\n      EQ \t\t\tcontract SvmSetter {\\n    stru...\n      PUSH [tag] 3\t\t\tcontract SvmSetter {\\n    stru...\n      JUMPI \t\t\tcontract SvmSetter {\\n    stru...\n      DUP1 \t\t\tcontract SvmSetter {\\n    stru...\n      PUSH 3163D265\t\t\tcontract SvmSetter {\\n    stru...\n      EQ \t\t\tcontract SvmSetter {\\n    stru...\n      PUSH [tag] 4\t\t\tcontract SvmSetter {\\n    stru...\n      JUMPI \t\t\tcontract SvmSetter {\\n    stru...\n      DUP1 \t\t\tcontract SvmSetter {\\n    stru...\n      PUSH 3BC5DE30\t\t\tcontract SvmSetter {\\n    stru...\n      EQ \t\t\tcontract SvmSetter {\\n    stru...\n      PUSH [tag] 5\t\t\tcontract SvmSetter {\\n    stru...\n      JUMPI \t\t\tcontract SvmSetter {\\n    stru...\n      DUP1 \t\t\tcontract SvmSetter {\\n    stru...\n      PUSH 47064D6A\t\t\tcontract SvmSetter {\\n    stru...\n      EQ \t\t\tcontract SvmSetter {\\n    stru...\n      PUSH [tag] 6\t\t\tcontract SvmSetter {\\n    stru...\n      JUMPI \t\t\tcontract SvmSetter {\\n    stru...\n    tag 2\t\t\tcontract SvmSetter {\\n    stru...\n      JUMPDEST \t\t\tcontract SvmSetter {\\n    stru...\n      PUSH 0\t\t\tcontract SvmSetter {\\n    stru...\n      DUP1 \t\t\tcontract SvmSetter {\\n    stru...\n      REVERT \t\t\tcontract SvmSetter {\\n    stru...\n    tag 3\t\t\tfunction setSvm(string memory ...\n      JUMPDEST \t\t\tfunction setSvm(string memory ...\n      PUSH [tag] 7\t\t\tfunction setSvm(string memory ...\n      PUSH 4\t\t\tfunction setSvm(string memory ...\n      DUP1 \t\t\tfunction setSvm(string memory ...\n      CALLDATASIZE \t\t\tfunction setSvm(string memory ...\n      SUB \t\t\tfunction setSvm(string memory ...\n      DUP2 \t\t\tfunction setSvm(string memory ...\n      ADD \t\t\tfunction setSvm(string memory ...\n      SWAP1 \t\t\tfunction setSvm(string memory ...\n      PUSH [tag] 8\t\t\tfunction setSvm(string memory ...\n      SWAP2 \t\t\tfunction setSvm(string memory ...\n      SWAP1 \t\t\tfunction setSvm(string memory ...\n      PUSH [tag] 9\t\t\tfunction setSvm(string memory ...\n      JUMP \t\t\tfunction setSvm(string memory ...\n    tag 8\t\t\tfunction setSvm(string memory ...\n      JUMPDEST \t\t\tfunction setSvm(string memory ...\n      PUSH [tag] 10\t\t\tfunction setSvm(string memory ...\n      JUMP \t\t\tfunction setSvm(string memory ...\n    tag 7\t\t\tfunction setSvm(string memory ...\n      JUMPDEST \t\t\tfunction setSvm(string memory ...\n      PUSH 40\t\t\tfunction setSvm(string memory ...\n      MLOAD \t\t\tfunction setSvm(string memory ...\n      PUSH [tag] 11\t\t\tfunction setSvm(string memory ...\n      SWAP2 \t\t\tfunction setSvm(string memory ...\n      SWAP1 \t\t\tfunction setSvm(string memory ...\n      PUSH [tag] 12\t\t\tfunction setSvm(string memory ...\n      JUMP \t\t\tfunction setSvm(string memory ...\n    tag 11\t\t\tfunction setSvm(string memory ...\n      JUMPDEST \t\t\tfunction setSvm(string memory ...\n      PUSH 40\t\t\tfunction setSvm(string memory ...\n      MLOAD \t\t\tfunction setSvm(string memory ...\n      DUP1 \t\t\tfunction setSvm(string memory ...\n      SWAP2 \t\t\tfunction setSvm(string memory ...\n      SUB \t\t\tfunction setSvm(string memory ...\n      SWAP1 \t\t\tfunction setSvm(string memory ...\n      RETURN \t\t\tfunction setSvm(string memory ...\n    tag 4\t\t\tstring public evmString\n      JUMPDEST \t\t\tstring public evmString\n      PUSH [tag] 13\t\t\tstring public evmString\n      PUSH [tag] 14\t\t\tstring public evmString\n      JUMP \t\t\tstring public evmString\n    tag 13\t\t\tstring public evmString\n      JUMPDEST \t\t\tstring public evmString\n      PUSH 40\t\t\tstring public evmString\n      MLOAD \t\t\tstring public evmString\n      PUSH [tag] 15\t\t\tstring public evmString\n      SWAP2 \t\t\tstring public evmString\n      SWAP1 \t\t\tstring public evmString\n      PUSH [tag] 16\t\t\tstring public evmString\n      JUMP \t\t\tstring public evmString\n    tag 15\t\t\tstring public evmString\n      JUMPDEST \t\t\tstring public evmString\n      PUSH 40\t\t\tstring public evmString\n      MLOAD \t\t\tstring public evmString\n      DUP1 \t\t\tstring public evmString\n      SWAP2 \t\t\tstring public evmString\n      SUB \t\t\tstring public evmString\n      SWAP1 \t\t\tstring public evmString\n      RETURN \t\t\tstring public evmString\n    tag 5\t\t\tfunction getData() public view...\n      JUMPDEST \t\t\tfunction getData() public view...\n      PUSH [tag] 17\t\t\tfunction getData() public view...\n      PUSH [tag] 18\t\t\tfunction getData() public view...\n      JUMP \t\t\tfunction getData() public view...\n    tag 17\t\t\tfunction getData() public view...\n      JUMPDEST \t\t\tfunction getData() public view...\n      PUSH 40\t\t\tfunction getData() public view...\n      MLOAD \t\t\tfunction getData() public view...\n      PUSH [tag] 19\t\t\tfunction getData() public view...\n      SWAP2 \t\t\tfunction getData() public view...\n      SWAP1 \t\t\tfunction getData() public view...\n      PUSH [tag] 16\t\t\tfunction getData() public view...\n      JUMP \t\t\tfunction getData() public view...\n    tag 19\t\t\tfunction getData() public view...\n      JUMPDEST \t\t\tfunction getData() public view...\n      PUSH 40\t\t\tfunction getData() public view...\n      MLOAD \t\t\tfunction getData() public view...\n      DUP1 \t\t\tfunction getData() public view...\n      SWAP2 \t\t\tfunction getData() public view...\n      SUB \t\t\tfunction getData() public view...\n      SWAP1 \t\t\tfunction getData() public view...\n      RETURN \t\t\tfunction getData() public view...\n    tag 6\t\t\tfunction setData(string memory...\n      JUMPDEST \t\t\tfunction setData(string memory...\n      PUSH [tag] 20\t\t\tfunction setData(string memory...\n      PUSH 4\t\t\tfunction setData(string memory...\n      DUP1 \t\t\tfunction setData(string memory...\n      CALLDATASIZE \t\t\tfunction setData(string memory...\n      SUB \t\t\tfunction setData(string memory...\n      DUP2 \t\t\tfunction setData(string memory...\n      ADD \t\t\tfunction setData(string memory...\n      SWAP1 \t\t\tfunction setData(string memory...\n      PUSH [tag] 21\t\t\tfunction setData(string memory...\n      SWAP2 \t\t\tfunction setData(string memory...\n      SWAP1 \t\t\tfunction setData(string memory...\n      PUSH [tag] 9\t\t\tfunction setData(string memory...\n      JUMP \t\t\tfunction setData(string memory...\n    tag 21\t\t\tfunction setData(string memory...\n      JUMPDEST \t\t\tfunction setData(string memory...\n      PUSH [tag] 22\t\t\tfunction setData(string memory...\n      JUMP \t\t\tfunction setData(string memory...\n    tag 20\t\t\tfunction setData(string memory...\n      JUMPDEST \t\t\tfunction setData(string memory...\n      STOP \t\t\tfunction setData(string memory...\n    tag 10\t\t\tfunction setSvm(string memory ...\n      JUMPDEST \t\t\tfunction setSvm(string memory ...\n      PUSH 60\t\t\tbytes memory result\n      PUSH F8251662139E6D88D3B6F2A5AA0F6FA9F87EC5BBE2E7F41DA6C2EE0F71E0EBBC\t\t\tkeccak256(\"svm\")\n      PUSH [tag] 24\t\t\tgetSvm()\n      PUSH [tag] 25\t\t\tgetSvm\n      JUMP \t\t\tgetSvm()\n    tag 24\t\t\tgetSvm()\n      JUMPDEST \t\t\tgetSvm()\n      DUP1 \t\t\tkeccak256(bytes(getSvm()))\n      MLOAD \t\t\tkeccak256(bytes(getSvm()))\n      SWAP1 \t\t\tkeccak256(bytes(getSvm()))\n      PUSH 20\t\t\tkeccak256(bytes(getSvm()))\n      ADD \t\t\tkeccak256(bytes(getSvm()))\n      KECCAK256 \t\t\tkeccak256(bytes(getSvm()))\n      SUB \t\t\tkeccak256(bytes(getSvm())) == ...\n      PUSH [tag] 26\t\t\tif (keccak256(bytes(getSvm()))...\n      JUMPI \t\t\tif (keccak256(bytes(getSvm()))...\n      PUSH [tag] 27\t\t\tdoSetSvm(svmFeePayer, \"evm\")\n      DUP3 \t\t\tsvmFeePayer\n      PUSH 40\t\t\tdoSetSvm(svmFeePayer, \"evm\")\n      MLOAD \t\t\tdoSetSvm(svmFeePayer, \"evm\")\n      DUP1 \t\t\tdoSetSvm(svmFeePayer, \"evm\")\n      PUSH 40\t\t\tdoSetSvm(svmFeePayer, \"evm\")\n      ADD \t\t\tdoSetSvm(svmFeePayer, \"evm\")\n      PUSH 40\t\t\tdoSetSvm(svmFeePayer, \"evm\")\n      MSTORE \t\t\tdoSetSvm(svmFeePayer, \"evm\")\n      DUP1 \t\t\tdoSetSvm(svmFeePayer, \"evm\")\n      PUSH 3\t\t\tdoSetSvm(svmFeePayer, \"evm\")\n      DUP2 \t\t\tdoSetSvm(svmFeePayer, \"evm\")\n      MSTORE \t\t\tdoSetSvm(svmFeePayer, \"evm\")\n      PUSH 20\t\t\tdoSetSvm(svmFeePayer, \"evm\")\n      ADD \t\t\tdoSetSvm(svmFeePayer, \"evm\")\n      PUSH 65766D0000000000000000000000000000000000000000000000000000000000\t\t\tdoSetSvm(svmFeePayer, \"evm\")\n      DUP2 \t\t\tdoSetSvm(svmFeePayer, \"evm\")\n      MSTORE \t\t\tdoSetSvm(svmFeePayer, \"evm\")\n      POP \t\t\tdoSetSvm(svmFeePayer, \"evm\")\n      PUSH [tag] 28\t\t\tdoSetSvm\n      JUMP \t\t\tdoSetSvm(svmFeePayer, \"evm\")\n    tag 27\t\t\tdoSetSvm(svmFeePayer, \"evm\")\n      JUMPDEST \t\t\tdoSetSvm(svmFeePayer, \"evm\")\n      SWAP1 \t\t\treturn doSetSvm(svmFeePayer, \"...\n      POP \t\t\treturn doSetSvm(svmFeePayer, \"...\n      PUSH [tag] 23\t\t\treturn doSetSvm(svmFeePayer, \"...\n      JUMP \t\t\treturn doSetSvm(svmFeePayer, \"...\n    tag 26\t\t\tif (keccak256(bytes(getSvm()))...\n      JUMPDEST \t\t\tif (keccak256(bytes(getSvm()))...\n      PUSH [tag] 29\t\t\tdoSetSvm(svmFeePayer, \"svm\")\n      DUP3 \t\t\tsvmFeePayer\n      PUSH 40\t\t\tdoSetSvm(svmFeePayer, \"svm\")\n      MLOAD \t\t\tdoSetSvm(svmFeePayer, \"svm\")\n      DUP1 \t\t\tdoSetSvm(svmFeePayer, \"svm\")\n      PUSH 40\t\t\tdoSetSvm(svmFeePayer, \"svm\")\n      ADD \t\t\tdoSetSvm(svmFeePayer, \"svm\")\n      PUSH 40\t\t\tdoSetSvm(svmFeePayer, \"svm\")\n      MSTORE \t\t\tdoSetSvm(svmFeePayer, \"svm\")\n      DUP1 \t\t\tdoSetSvm(svmFeePayer, \"svm\")\n      PUSH 3\t\t\tdoSetSvm(svmFeePayer, \"svm\")\n      DUP2 \t\t\tdoSetSvm(svmFeePayer, \"svm\")\n      MSTORE \t\t\tdoSetSvm(svmFeePayer, \"svm\")\n      PUSH 20\t\t\tdoSetSvm(svmFeePayer, \"svm\")\n      ADD \t\t\tdoSetSvm(svmFeePayer, \"svm\")\n      PUSH 73766D0000000000000000000000000000000000000000000000000000000000\t\t\tdoSetSvm(svmFeePayer, \"svm\")\n      DUP2 \t\t\tdoSetSvm(svmFeePayer, \"svm\")\n      MSTORE \t\t\tdoSetSvm(svmFeePayer, \"svm\")\n      POP \t\t\tdoSetSvm(svmFeePayer, \"svm\")\n      PUSH [tag] 28\t\t\tdoSetSvm\n      JUMP \t\t\tdoSetSvm(svmFeePayer, \"svm\")\n    tag 29\t\t\tdoSetSvm(svmFeePayer, \"svm\")\n      JUMPDEST \t\t\tdoSetSvm(svmFeePayer, \"svm\")\n      SWAP1 \t\t\treturn doSetSvm(svmFeePayer, \"...\n      POP \t\t\treturn doSetSvm(svmFeePayer, \"...\n    tag 23\t\t\tfunction setSvm(string memory ...\n      JUMPDEST \t\t\tfunction setSvm(string memory ...\n      SWAP2 \t\t\tfunction setSvm(string memory ...\n      SWAP1 \t\t\tfunction setSvm(string memory ...\n      POP \t\t\tfunction setSvm(string memory ...\n      JUMP \t\t\tfunction setSvm(string memory ...\n    tag 14\t\t\tstring public evmString\n      JUMPDEST \t\t\tstring public evmString\n      PUSH 0\t\t\tstring public evmString\n      DUP1 \t\t\tstring public evmString\n      SLOAD \t\t\tstring public evmString\n      PUSH [tag] 30\t\t\tstring public evmString\n      SWAP1 \t\t\tstring public evmString\n      PUSH [tag] 31\t\t\tstring public evmString\n      JUMP \t\t\tstring public evmString\n    tag 30\t\t\tstring public evmString\n      JUMPDEST \t\t\tstring public evmString\n      DUP1 \t\t\tstring public evmString\n      PUSH 1F\t\t\tstring public evmString\n      ADD \t\t\tstring public evmString\n      PUSH 20\t\t\tstring public evmString\n      DUP1 \t\t\tstring public evmString\n      SWAP2 \t\t\tstring public evmString\n      DIV \t\t\tstring public evmString\n      MUL \t\t\tstring public evmString\n      PUSH 20\t\t\tstring public evmString\n      ADD \t\t\tstring public evmString\n      PUSH 40\t\t\tstring public evmString\n      MLOAD \t\t\tstring public evmString\n      SWAP1 \t\t\tstring public evmString\n      DUP2 \t\t\tstring public evmString\n      ADD \t\t\tstring public evmString\n      PUSH 40\t\t\tstring public evmString\n      MSTORE \t\t\tstring public evmString\n      DUP1 \t\t\tstring public evmString\n      SWAP3 \t\t\tstring public evmString\n      SWAP2 \t\t\tstring public evmString\n      SWAP1 \t\t\tstring public evmString\n      DUP2 \t\t\tstring public evmString\n      DUP2 \t\t\tstring public evmString\n      MSTORE \t\t\tstring public evmString\n      PUSH 20\t\t\tstring public evmString\n      ADD \t\t\tstring public evmString\n      DUP3 \t\t\tstring public evmString\n      DUP1 \t\t\tstring public evmString\n      SLOAD \t\t\tstring public evmString\n      PUSH [tag] 32\t\t\tstring public evmString\n      SWAP1 \t\t\tstring public evmString\n      PUSH [tag] 31\t\t\tstring public evmString\n      JUMP \t\t\tstring public evmString\n    tag 32\t\t\tstring public evmString\n      JUMPDEST \t\t\tstring public evmString\n      DUP1 \t\t\tstring public evmString\n      ISZERO \t\t\tstring public evmString\n      PUSH [tag] 33\t\t\tstring public evmString\n      JUMPI \t\t\tstring public evmString\n      DUP1 \t\t\tstring public evmString\n      PUSH 1F\t\t\tstring public evmString\n      LT \t\t\tstring public evmString\n      PUSH [tag] 34\t\t\tstring public evmString\n      JUMPI \t\t\tstring public evmString\n      PUSH 100\t\t\tstring public evmString\n      DUP1 \t\t\tstring public evmString\n      DUP4 \t\t\tstring public evmString\n      SLOAD \t\t\tstring public evmString\n      DIV \t\t\tstring public evmString\n      MUL \t\t\tstring public evmString\n      DUP4 \t\t\tstring public evmString\n      MSTORE \t\t\tstring public evmString\n      SWAP2 \t\t\tstring public evmString\n      PUSH 20\t\t\tstring public evmString\n      ADD \t\t\tstring public evmString\n      SWAP2 \t\t\tstring public evmString\n      PUSH [tag] 33\t\t\tstring public evmString\n      JUMP \t\t\tstring public evmString\n    tag 34\t\t\tstring public evmString\n      JUMPDEST \t\t\tstring public evmString\n      DUP3 \t\t\tstring public evmString\n      ADD \t\t\tstring public evmString\n      SWAP2 \t\t\tstring public evmString\n      SWAP1 \t\t\tstring public evmString\n      PUSH 0\t\t\tstring public evmString\n      MSTORE \t\t\tstring public evmString\n      PUSH 20\t\t\tstring public evmString\n      PUSH 0\t\t\tstring public evmString\n      KECCAK256 \t\t\tstring public evmString\n      SWAP1 \t\t\tstring public evmString\n    tag 35\t\t\tstring public evmString\n      JUMPDEST \t\t\tstring public evmString\n      DUP2 \t\t\tstring public evmString\n      SLOAD \t\t\tstring public evmString\n      DUP2 \t\t\tstring public evmString\n      MSTORE \t\t\tstring public evmString\n      SWAP1 \t\t\tstring public evmString\n      PUSH 1\t\t\tstring public evmString\n      ADD \t\t\tstring public evmString\n      SWAP1 \t\t\tstring public evmString\n      PUSH 20\t\t\tstring public evmString\n      ADD \t\t\tstring public evmString\n      DUP1 \t\t\tstring public evmString\n      DUP4 \t\t\tstring public evmString\n      GT \t\t\tstring public evmString\n      PUSH [tag] 35\t\t\tstring public evmString\n      JUMPI \t\t\tstring public evmString\n      DUP3 \t\t\tstring public evmString\n      SWAP1 \t\t\tstring public evmString\n      SUB \t\t\tstring public evmString\n      PUSH 1F\t\t\tstring public evmString\n      AND \t\t\tstring public evmString\n      DUP3 \t\t\tstring public evmString\n      ADD \t\t\tstring public evmString\n      SWAP2 \t\t\tstring public evmString\n    tag 33\t\t\tstring public evmString\n      JUMPDEST \t\t\tstring public evmString\n      POP \t\t\tstring public evmString\n      POP \t\t\tstring public evmString\n      POP \t\t\tstring public evmString\n      POP \t\t\tstring public evmString\n      POP \t\t\tstring public evmString\n      DUP2 \t\t\tstring public evmString\n      JUMP \t\t\tstring public evmString\n    tag 18\t\t\tfunction getData() public view...\n      JUMPDEST \t\t\tfunction getData() public view...\n      PUSH 60\t\t\tstring memory\n      PUSH 0\t\t\tevmString\n      DUP1 \t\t\treturn evmString\n      SLOAD \t\t\treturn evmString\n      PUSH [tag] 37\t\t\treturn evmString\n      SWAP1 \t\t\treturn evmString\n      PUSH [tag] 31\t\t\treturn evmString\n      JUMP \t\t\treturn evmString\n    tag 37\t\t\treturn evmString\n      JUMPDEST \t\t\treturn evmString\n      DUP1 \t\t\treturn evmString\n      PUSH 1F\t\t\treturn evmString\n      ADD \t\t\treturn evmString\n      PUSH 20\t\t\treturn evmString\n      DUP1 \t\t\treturn evmString\n      SWAP2 \t\t\treturn evmString\n      DIV \t\t\treturn evmString\n      MUL \t\t\treturn evmString\n      PUSH 20\t\t\treturn evmString\n      ADD \t\t\treturn evmString\n      PUSH 40\t\t\treturn evmString\n      MLOAD \t\t\treturn evmString\n      SWAP1 \t\t\treturn evmString\n      DUP2 \t\t\treturn evmString\n      ADD \t\t\treturn evmString\n      PUSH 40\t\t\treturn evmString\n      MSTORE \t\t\treturn evmString\n      DUP1 \t\t\treturn evmString\n      SWAP3 \t\t\treturn evmString\n      SWAP2 \t\t\treturn evmString\n      SWAP1 \t\t\treturn evmString\n      DUP2 \t\t\treturn evmString\n      DUP2 \t\t\treturn evmString\n      MSTORE \t\t\treturn evmString\n      PUSH 20\t\t\treturn evmString\n      ADD \t\t\treturn evmString\n      DUP3 \t\t\treturn evmString\n      DUP1 \t\t\treturn evmString\n      SLOAD \t\t\treturn evmString\n      PUSH [tag] 38\t\t\treturn evmString\n      SWAP1 \t\t\treturn evmString\n      PUSH [tag] 31\t\t\treturn evmString\n      JUMP \t\t\treturn evmString\n    tag 38\t\t\treturn evmString\n      JUMPDEST \t\t\treturn evmString\n      DUP1 \t\t\treturn evmString\n      ISZERO \t\t\treturn evmString\n      PUSH [tag] 39\t\t\treturn evmString\n      JUMPI \t\t\treturn evmString\n      DUP1 \t\t\treturn evmString\n      PUSH 1F\t\t\treturn evmString\n      LT \t\t\treturn evmString\n      PUSH [tag] 40\t\t\treturn evmString\n      JUMPI \t\t\treturn evmString\n      PUSH 100\t\t\treturn evmString\n      DUP1 \t\t\treturn evmString\n      DUP4 \t\t\treturn evmString\n      SLOAD \t\t\treturn evmString\n      DIV \t\t\treturn evmString\n      MUL \t\t\treturn evmString\n      DUP4 \t\t\treturn evmString\n      MSTORE \t\t\treturn evmString\n      SWAP2 \t\t\treturn evmString\n      PUSH 20\t\t\treturn evmString\n      ADD \t\t\treturn evmString\n      SWAP2 \t\t\treturn evmString\n      PUSH [tag] 39\t\t\treturn evmString\n      JUMP \t\t\treturn evmString\n    tag 40\t\t\treturn evmString\n      JUMPDEST \t\t\treturn evmString\n      DUP3 \t\t\treturn evmString\n      ADD \t\t\treturn evmString\n      SWAP2 \t\t\treturn evmString\n      SWAP1 \t\t\treturn evmString\n      PUSH 0\t\t\treturn evmString\n      MSTORE \t\t\treturn evmString\n      PUSH 20\t\t\treturn evmString\n      PUSH 0\t\t\treturn evmString\n      KECCAK256 \t\t\treturn evmString\n      SWAP1 \t\t\treturn evmString\n    tag 41\t\t\treturn evmString\n      JUMPDEST \t\t\treturn evmString\n      DUP2 \t\t\treturn evmString\n      SLOAD \t\t\treturn evmString\n      DUP2 \t\t\treturn evmString\n      MSTORE \t\t\treturn evmString\n      SWAP1 \t\t\treturn evmString\n      PUSH 1\t\t\treturn evmString\n      ADD \t\t\treturn evmString\n      SWAP1 \t\t\treturn evmString\n      PUSH 20\t\t\treturn evmString\n      ADD \t\t\treturn evmString\n      DUP1 \t\t\treturn evmString\n      DUP4 \t\t\treturn evmString\n      GT \t\t\treturn evmString\n      PUSH [tag] 41\t\t\treturn evmString\n      JUMPI \t\t\treturn evmString\n      DUP3 \t\t\treturn evmString\n      SWAP1 \t\t\treturn evmString\n      SUB \t\t\treturn evmString\n      PUSH 1F\t\t\treturn evmString\n      AND \t\t\treturn evmString\n      DUP3 \t\t\treturn evmString\n      ADD \t\t\treturn evmString\n      SWAP2 \t\t\treturn evmString\n    tag 39\t\t\treturn evmString\n      JUMPDEST \t\t\treturn evmString\n      POP \t\t\treturn evmString\n      POP \t\t\treturn evmString\n      POP \t\t\treturn evmString\n      POP \t\t\treturn evmString\n      POP \t\t\treturn evmString\n      SWAP1 \t\t\treturn evmString\n      POP \t\t\treturn evmString\n      SWAP1 \t\t\tfunction getData() public view...\n      JUMP \t\t\tfunction getData() public view...\n    tag 22\t\t\tfunction setData(string memory...\n      JUMPDEST \t\t\tfunction setData(string memory...\n      DUP1 \t\t\t_evmString\n      PUSH 0\t\t\tevmString\n      SWAP1 \t\t\tevmString = _evmString\n      DUP2 \t\t\tevmString = _evmString\n      PUSH [tag] 43\t\t\tevmString = _evmString\n      SWAP2 \t\t\tevmString = _evmString\n      SWAP1 \t\t\tevmString = _evmString\n      PUSH [tag] 44\t\t\tevmString = _evmString\n      JUMP \t\t\tevmString = _evmString\n    tag 43\t\t\tevmString = _evmString\n      JUMPDEST \t\t\tevmString = _evmString\n      POP \t\t\tevmString = _evmString\n      POP \t\t\tfunction setData(string memory...\n      JUMP \t\t\tfunction setData(string memory...\n    tag 25\t\t\tfunction getSvm() internal vie...\n      JUMPDEST \t\t\tfunction getSvm() internal vie...\n      PUSH 60\t\t\tstring memory\n      PUSH 0\t\t\taddress crossVmContract\n      PUSH 75A96B46758F367B9A40DAC909589603BE123057\t\t\t0x75a96B46758F367b9A40Dac90958...\n      SWAP1 \t\t\taddress crossVmContract = addr...\n      POP \t\t\taddress crossVmContract = addr...\n      PUSH [tag] 46\t\t\tMsgTransaction memory transact...\n      PUSH [tag] 47\t\t\tMsgTransaction memory transact...\n      JUMP \t\t\tMsgTransaction memory transact...\n    tag 46\t\t\tMsgTransaction memory transact...\n      JUMPDEST \t\t\tMsgTransaction memory transact...\n      PUSH 2\t\t\t2\n      PUSH FFFFFFFFFFFFFFFF\t\t\tnew string[](2)\n      DUP2 \t\t\tnew string[](2)\n      GT \t\t\tnew string[](2)\n      ISZERO \t\t\tnew string[](2)\n      PUSH [tag] 48\t\t\tnew string[](2)\n      JUMPI \t\t\tnew string[](2)\n      PUSH [tag] 49\t\t\tnew string[](2)\n      PUSH [tag] 50\t\t\tnew string[](2)\n      JUMP \t\t\tnew string[](2)\n    tag 49\t\t\tnew string[](2)\n      JUMPDEST \t\t\tnew string[](2)\n    tag 48\t\t\tnew string[](2)\n      JUMPDEST \t\t\tnew string[](2)\n      PUSH 40\t\t\tnew string[](2)\n      MLOAD \t\t\tnew string[](2)\n      SWAP1 \t\t\tnew string[](2)\n      DUP1 \t\t\tnew string[](2)\n      DUP3 \t\t\tnew string[](2)\n      MSTORE \t\t\tnew string[](2)\n      DUP1 \t\t\tnew string[](2)\n      PUSH 20\t\t\tnew string[](2)\n      MUL \t\t\tnew string[](2)\n      PUSH 20\t\t\tnew string[](2)\n      ADD \t\t\tnew string[](2)\n      DUP3 \t\t\tnew string[](2)\n      ADD \t\t\tnew string[](2)\n      PUSH 40\t\t\tnew string[](2)\n      MSTORE \t\t\tnew string[](2)\n      DUP1 \t\t\tnew string[](2)\n      ISZERO \t\t\tnew string[](2)\n      PUSH [tag] 51\t\t\tnew string[](2)\n      JUMPI \t\t\tnew string[](2)\n      DUP2 \t\t\tnew string[](2)\n      PUSH 20\t\t\tnew string[](2)\n      ADD \t\t\tnew string[](2)\n    tag 52\t\t\tnew string[](2)\n      JUMPDEST \t\t\tnew string[](2)\n      PUSH 60\t\t\tnew string[](2)\n      DUP2 \t\t\tnew string[](2)\n      MSTORE \t\t\tnew string[](2)\n      PUSH 20\t\t\tnew string[](2)\n      ADD \t\t\tnew string[](2)\n      SWAP1 \t\t\tnew string[](2)\n      PUSH 1\t\t\tnew string[](2)\n      SWAP1 \t\t\tnew string[](2)\n      SUB \t\t\tnew string[](2)\n      SWAP1 \t\t\tnew string[](2)\n      DUP2 \t\t\tnew string[](2)\n      PUSH [tag] 52\t\t\tnew string[](2)\n      JUMPI \t\t\tnew string[](2)\n      SWAP1 \t\t\tnew string[](2)\n      POP \t\t\tnew string[](2)\n    tag 51\t\t\tnew string[](2)\n      JUMPDEST \t\t\tnew string[](2)\n      POP \t\t\tnew string[](2)\n      DUP2 \t\t\ttransaction\n      PUSH 20\t\t\ttransaction.accounts\n      ADD \t\t\ttransaction.accounts\n      DUP2 \t\t\ttransaction.accounts = new str...\n      SWAP1 \t\t\ttransaction.accounts = new str...\n      MSTORE \t\t\ttransaction.accounts = new str...\n      POP \t\t\ttransaction.accounts = new str...\n      PUSH 40\t\t\ttransaction.accounts[0] = \"83z...\n      MLOAD \t\t\ttransaction.accounts[0] = \"83z...\n      DUP1 \t\t\ttransaction.accounts[0] = \"83z...\n      PUSH 60\t\t\ttransaction.accounts[0] = \"83z...\n      ADD \t\t\ttransaction.accounts[0] = \"83z...\n      PUSH 40\t\t\ttransaction.accounts[0] = \"83z...\n      MSTORE \t\t\ttransaction.accounts[0] = \"83z...\n      DUP1 \t\t\ttransaction.accounts[0] = \"83z...\n      PUSH 2C\t\t\ttransaction.accounts[0] = \"83z...\n      DUP2 \t\t\ttransaction.accounts[0] = \"83z...\n      MSTORE \t\t\ttransaction.accounts[0] = \"83z...\n      PUSH 20\t\t\ttransaction.accounts[0] = \"83z...\n      ADD \t\t\ttransaction.accounts[0] = \"83z...\n      PUSH data 5AD1B34C28D0DE49F8303D7C1424471BC7D1A6CFFDF5E570B681B7A033938E0F\t\t\ttransaction.accounts[0] = \"83z...\n      PUSH 2C\t\t\ttransaction.accounts[0] = \"83z...\n      SWAP2 \t\t\ttransaction.accounts[0] = \"83z...\n      CODECOPY \t\t\ttransaction.accounts[0] = \"83z...\n      DUP2 \t\t\ttransaction\n      PUSH 20\t\t\ttransaction.accounts\n      ADD \t\t\ttransaction.accounts\n      MLOAD \t\t\ttransaction.accounts\n      PUSH 0\t\t\t0\n      DUP2 \t\t\ttransaction.accounts[0]\n      MLOAD \t\t\ttransaction.accounts[0]\n      DUP2 \t\t\ttransaction.accounts[0]\n      LT \t\t\ttransaction.accounts[0]\n      PUSH [tag] 53\t\t\ttransaction.accounts[0]\n      JUMPI \t\t\ttransaction.accounts[0]\n      PUSH [tag] 54\t\t\ttransaction.accounts[0]\n      PUSH [tag] 55\t\t\ttransaction.accounts[0]\n      JUMP \t\t\ttransaction.accounts[0]\n    tag 54\t\t\ttransaction.accounts[0]\n      JUMPDEST \t\t\ttransaction.accounts[0]\n    tag 53\t\t\ttransaction.accounts[0]\n      JUMPDEST \t\t\ttransaction.accounts[0]\n      PUSH 20\t\t\ttransaction.accounts[0]\n      MUL \t\t\ttransaction.accounts[0]\n      PUSH 20\t\t\ttransaction.accounts[0]\n      ADD \t\t\ttransaction.accounts[0]\n      ADD \t\t\ttransaction.accounts[0]\n      DUP2 \t\t\ttransaction.accounts[0] = \"83z...\n      SWAP1 \t\t\ttransaction.accounts[0] = \"83z...\n      MSTORE \t\t\ttransaction.accounts[0] = \"83z...\n      POP \t\t\ttransaction.accounts[0] = \"83z...\n      PUSH 40\t\t\ttransaction.accounts[1] = \"22z...\n      MLOAD \t\t\ttransaction.accounts[1] = \"22z...\n      DUP1 \t\t\ttransaction.accounts[1] = \"22z...\n      PUSH 60\t\t\ttransaction.accounts[1] = \"22z...\n      ADD \t\t\ttransaction.accounts[1] = \"22z...\n      PUSH 40\t\t\ttransaction.accounts[1] = \"22z...\n      MSTORE \t\t\ttransaction.accounts[1] = \"22z...\n      DUP1 \t\t\ttransaction.accounts[1] = \"22z...\n      PUSH 2C\t\t\ttransaction.accounts[1] = \"22z...\n      DUP2 \t\t\ttransaction.accounts[1] = \"22z...\n      MSTORE \t\t\ttransaction.accounts[1] = \"22z...\n      PUSH 20\t\t\ttransaction.accounts[1] = \"22z...\n      ADD \t\t\ttransaction.accounts[1] = \"22z...\n      PUSH data DB7DC5A227104A7DC4106459D89C7370461570F3D01CED1AE79589AA9212598F\t\t\ttransaction.accounts[1] = \"22z...\n      PUSH 2C\t\t\ttransaction.accounts[1] = \"22z...\n      SWAP2 \t\t\ttransaction.accounts[1] = \"22z...\n      CODECOPY \t\t\ttransaction.accounts[1] = \"22z...\n      DUP2 \t\t\ttransaction\n      PUSH 20\t\t\ttransaction.accounts\n      ADD \t\t\ttransaction.accounts\n      MLOAD \t\t\ttransaction.accounts\n      PUSH 1\t\t\t1\n      DUP2 \t\t\ttransaction.accounts[1]\n      MLOAD \t\t\ttransaction.accounts[1]\n      DUP2 \t\t\ttransaction.accounts[1]\n      LT \t\t\ttransaction.accounts[1]\n      PUSH [tag] 56\t\t\ttransaction.accounts[1]\n      JUMPI \t\t\ttransaction.accounts[1]\n      PUSH [tag] 57\t\t\ttransaction.accounts[1]\n      PUSH [tag] 55\t\t\ttransaction.accounts[1]\n      JUMP \t\t\ttransaction.accounts[1]\n    tag 57\t\t\ttransaction.accounts[1]\n      JUMPDEST \t\t\ttransaction.accounts[1]\n    tag 56\t\t\ttransaction.accounts[1]\n      JUMPDEST \t\t\ttransaction.accounts[1]\n      PUSH 20\t\t\ttransaction.accounts[1]\n      MUL \t\t\ttransaction.accounts[1]\n      PUSH 20\t\t\ttransaction.accounts[1]\n      ADD \t\t\ttransaction.accounts[1]\n      ADD \t\t\ttransaction.accounts[1]\n      DUP2 \t\t\ttransaction.accounts[1] = \"22z...\n      SWAP1 \t\t\ttransaction.accounts[1] = \"22z...\n      MSTORE \t\t\ttransaction.accounts[1] = \"22z...\n      POP \t\t\ttransaction.accounts[1] = \"22z...\n      PUSH F4240\t\t\t1000000\n      DUP2 \t\t\ttransaction\n      PUSH 60\t\t\ttransaction.compute_budget\n      ADD \t\t\ttransaction.compute_budget\n      SWAP1 \t\t\ttransaction.compute_budget = 1...\n      PUSH FFFFFFFFFFFFFFFF\t\t\ttransaction.compute_budget = 1...\n      AND \t\t\ttransaction.compute_budget = 1...\n      SWAP1 \t\t\ttransaction.compute_budget = 1...\n      DUP2 \t\t\ttransaction.compute_budget = 1...\n      PUSH FFFFFFFFFFFFFFFF\t\t\ttransaction.compute_budget = 1...\n      AND \t\t\ttransaction.compute_budget = 1...\n      DUP2 \t\t\ttransaction.compute_budget = 1...\n      MSTORE \t\t\ttransaction.compute_budget = 1...\n      POP \t\t\ttransaction.compute_budget = 1...\n      POP \t\t\ttransaction.compute_budget = 1...\n      PUSH [tag] 58\t\t\tInstruction memory instruction\n      PUSH [tag] 59\t\t\tInstruction memory instruction\n      JUMP \t\t\tInstruction memory instruction\n    tag 58\t\t\tInstruction memory instruction\n      JUMPDEST \t\t\tInstruction memory instruction\n      PUSH 1\t\t\t1\n      PUSH FFFFFFFFFFFFFFFF\t\t\tnew uint32[](1)\n      DUP2 \t\t\tnew uint32[](1)\n      GT \t\t\tnew uint32[](1)\n      ISZERO \t\t\tnew uint32[](1)\n      PUSH [tag] 60\t\t\tnew uint32[](1)\n      JUMPI \t\t\tnew uint32[](1)\n      PUSH [tag] 61\t\t\tnew uint32[](1)\n      PUSH [tag] 50\t\t\tnew uint32[](1)\n      JUMP \t\t\tnew uint32[](1)\n    tag 61\t\t\tnew uint32[](1)\n      JUMPDEST \t\t\tnew uint32[](1)\n    tag 60\t\t\tnew uint32[](1)\n      JUMPDEST \t\t\tnew uint32[](1)\n      PUSH 40\t\t\tnew uint32[](1)\n      MLOAD \t\t\tnew uint32[](1)\n      SWAP1 \t\t\tnew uint32[](1)\n      DUP1 \t\t\tnew uint32[](1)\n      DUP3 \t\t\tnew uint32[](1)\n      MSTORE \t\t\tnew uint32[](1)\n      DUP1 \t\t\tnew uint32[](1)\n      PUSH 20\t\t\tnew uint32[](1)\n      MUL \t\t\tnew uint32[](1)\n      PUSH 20\t\t\tnew uint32[](1)\n      ADD \t\t\tnew uint32[](1)\n      DUP3 \t\t\tnew uint32[](1)\n      ADD \t\t\tnew uint32[](1)\n      PUSH 40\t\t\tnew uint32[](1)\n      MSTORE \t\t\tnew uint32[](1)\n      DUP1 \t\t\tnew uint32[](1)\n      ISZERO \t\t\tnew uint32[](1)\n      PUSH [tag] 62\t\t\tnew uint32[](1)\n      JUMPI \t\t\tnew uint32[](1)\n      DUP2 \t\t\tnew uint32[](1)\n      PUSH 20\t\t\tnew uint32[](1)\n      ADD \t\t\tnew uint32[](1)\n      PUSH 20\t\t\tnew uint32[](1)\n      DUP3 \t\t\tnew uint32[](1)\n      MUL \t\t\tnew uint32[](1)\n      DUP1 \t\t\tnew uint32[](1)\n      CALLDATASIZE \t\t\tnew uint32[](1)\n      DUP4 \t\t\tnew uint32[](1)\n      CALLDATACOPY \t\t\tnew uint32[](1)\n      DUP1 \t\t\tnew uint32[](1)\n      DUP3 \t\t\tnew uint32[](1)\n      ADD \t\t\tnew uint32[](1)\n      SWAP2 \t\t\tnew uint32[](1)\n      POP \t\t\tnew uint32[](1)\n      POP \t\t\tnew uint32[](1)\n      SWAP1 \t\t\tnew uint32[](1)\n      POP \t\t\tnew uint32[](1)\n    tag 62\t\t\tnew uint32[](1)\n      JUMPDEST \t\t\tnew uint32[](1)\n      POP \t\t\tnew uint32[](1)\n      DUP2 \t\t\tinstruction\n      PUSH 0\t\t\tinstruction.program_index\n      ADD \t\t\tinstruction.program_index\n      DUP2 \t\t\tinstruction.program_index = ne...\n      SWAP1 \t\t\tinstruction.program_index = ne...\n      MSTORE \t\t\tinstruction.program_index = ne...\n      POP \t\t\tinstruction.program_index = ne...\n      PUSH 0\t\t\t0\n      DUP2 \t\t\tinstruction\n      PUSH 0\t\t\tinstruction.program_index\n      ADD \t\t\tinstruction.program_index\n      MLOAD \t\t\tinstruction.program_index\n      PUSH 0\t\t\t0\n      DUP2 \t\t\tinstruction.program_index[0]\n      MLOAD \t\t\tinstruction.program_index[0]\n      DUP2 \t\t\tinstruction.program_index[0]\n      LT \t\t\tinstruction.program_index[0]\n      PUSH [tag] 63\t\t\tinstruction.program_index[0]\n      JUMPI \t\t\tinstruction.program_index[0]\n      PUSH [tag] 64\t\t\tinstruction.program_index[0]\n      PUSH [tag] 55\t\t\tinstruction.program_index[0]\n      JUMP \t\t\tinstruction.program_index[0]\n    tag 64\t\t\tinstruction.program_index[0]\n      JUMPDEST \t\t\tinstruction.program_index[0]\n    tag 63\t\t\tinstruction.program_index[0]\n      JUMPDEST \t\t\tinstruction.program_index[0]\n      PUSH 20\t\t\tinstruction.program_index[0]\n      MUL \t\t\tinstruction.program_index[0]\n      PUSH 20\t\t\tinstruction.program_index[0]\n      ADD \t\t\tinstruction.program_index[0]\n      ADD \t\t\tinstruction.program_index[0]\n      SWAP1 \t\t\tinstruction.program_index[0] =...\n      PUSH FFFFFFFF\t\t\tinstruction.program_index[0] =...\n      AND \t\t\tinstruction.program_index[0] =...\n      SWAP1 \t\t\tinstruction.program_index[0] =...\n      DUP2 \t\t\tinstruction.program_index[0] =...\n      PUSH FFFFFFFF\t\t\tinstruction.program_index[0] =...\n      AND \t\t\tinstruction.program_index[0] =...\n      DUP2 \t\t\tinstruction.program_index[0] =...\n      MSTORE \t\t\tinstruction.program_index[0] =...\n      POP \t\t\tinstruction.program_index[0] =...\n      POP \t\t\tinstruction.program_index[0] =...\n      PUSH 1\t\t\t1\n      PUSH FFFFFFFFFFFFFFFF\t\t\tnew InstructionAccount[](1)\n      DUP2 \t\t\tnew InstructionAccount[](1)\n      GT \t\t\tnew InstructionAccount[](1)\n      ISZERO \t\t\tnew InstructionAccount[](1)\n      PUSH [tag] 65\t\t\tnew InstructionAccount[](1)\n      JUMPI \t\t\tnew InstructionAccount[](1)\n      PUSH [tag] 66\t\t\tnew InstructionAccount[](1)\n      PUSH [tag] 50\t\t\tnew InstructionAccount[](1)\n      JUMP \t\t\tnew InstructionAccount[](1)\n    tag 66\t\t\tnew InstructionAccount[](1)\n      JUMPDEST \t\t\tnew InstructionAccount[](1)\n    tag 65\t\t\tnew InstructionAccount[](1)\n      JUMPDEST \t\t\tnew InstructionAccount[](1)\n      PUSH 40\t\t\tnew InstructionAccount[](1)\n      MLOAD \t\t\tnew InstructionAccount[](1)\n      SWAP1 \t\t\tnew InstructionAccount[](1)\n      DUP1 \t\t\tnew InstructionAccount[](1)\n      DUP3 \t\t\tnew InstructionAccount[](1)\n      MSTORE \t\t\tnew InstructionAccount[](1)\n      DUP1 \t\t\tnew InstructionAccount[](1)\n      PUSH 20\t\t\tnew InstructionAccount[](1)\n      MUL \t\t\tnew InstructionAccount[](1)\n      PUSH 20\t\t\tnew InstructionAccount[](1)\n      ADD \t\t\tnew InstructionAccount[](1)\n      DUP3 \t\t\tnew InstructionAccount[](1)\n      ADD \t\t\tnew InstructionAccount[](1)\n      PUSH 40\t\t\tnew InstructionAccount[](1)\n      MSTORE \t\t\tnew InstructionAccount[](1)\n      DUP1 \t\t\tnew InstructionAccount[](1)\n      ISZERO \t\t\tnew InstructionAccount[](1)\n      PUSH [tag] 67\t\t\tnew InstructionAccount[](1)\n      JUMPI \t\t\tnew InstructionAccount[](1)\n      DUP2 \t\t\tnew InstructionAccount[](1)\n      PUSH 20\t\t\tnew InstructionAccount[](1)\n      ADD \t\t\tnew InstructionAccount[](1)\n    tag 68\t\t\tnew InstructionAccount[](1)\n      JUMPDEST \t\t\tnew InstructionAccount[](1)\n      PUSH [tag] 69\t\t\tnew InstructionAccount[](1)\n      PUSH [tag] 70\t\t\tnew InstructionAccount[](1)\n      JUMP \t\t\tnew InstructionAccount[](1)\n    tag 69\t\t\tnew InstructionAccount[](1)\n      JUMPDEST \t\t\tnew InstructionAccount[](1)\n      DUP2 \t\t\tnew InstructionAccount[](1)\n      MSTORE \t\t\tnew InstructionAccount[](1)\n      PUSH 20\t\t\tnew InstructionAccount[](1)\n      ADD \t\t\tnew InstructionAccount[](1)\n      SWAP1 \t\t\tnew InstructionAccount[](1)\n      PUSH 1\t\t\tnew InstructionAccount[](1)\n      SWAP1 \t\t\tnew InstructionAccount[](1)\n      SUB \t\t\tnew InstructionAccount[](1)\n      SWAP1 \t\t\tnew InstructionAccount[](1)\n      DUP2 \t\t\tnew InstructionAccount[](1)\n      PUSH [tag] 68\t\t\tnew InstructionAccount[](1)\n      JUMPI \t\t\tnew InstructionAccount[](1)\n      SWAP1 \t\t\tnew InstructionAccount[](1)\n      POP \t\t\tnew InstructionAccount[](1)\n    tag 67\t\t\tnew InstructionAccount[](1)\n      JUMPDEST \t\t\tnew InstructionAccount[](1)\n      POP \t\t\tnew InstructionAccount[](1)\n      DUP2 \t\t\tinstruction\n      PUSH 20\t\t\tinstruction.accounts\n      ADD \t\t\tinstruction.accounts\n      DUP2 \t\t\tinstruction.accounts = new Ins...\n      SWAP1 \t\t\tinstruction.accounts = new Ins...\n      MSTORE \t\t\tinstruction.accounts = new Ins...\n      POP \t\t\tinstruction.accounts = new Ins...\n      PUSH 40\t\t\tInstructionAccount({\\n        ...\n      MLOAD \t\t\tInstructionAccount({\\n        ...\n      DUP1 \t\t\tInstructionAccount({\\n        ...\n      PUSH A0\t\t\tInstructionAccount({\\n        ...\n      ADD \t\t\tInstructionAccount({\\n        ...\n      PUSH 40\t\t\tInstructionAccount({\\n        ...\n      MSTORE \t\t\tInstructionAccount({\\n        ...\n      DUP1 \t\t\tInstructionAccount({\\n        ...\n      PUSH 1\t\t\t1\n      PUSH FFFFFFFF\t\t\tInstructionAccount({\\n        ...\n      AND \t\t\tInstructionAccount({\\n        ...\n      DUP2 \t\t\tInstructionAccount({\\n        ...\n      MSTORE \t\t\tInstructionAccount({\\n        ...\n      PUSH 20\t\t\tInstructionAccount({\\n        ...\n      ADD \t\t\tInstructionAccount({\\n        ...\n      PUSH 1\t\t\t1\n      PUSH FFFFFFFF\t\t\tInstructionAccount({\\n        ...\n      AND \t\t\tInstructionAccount({\\n        ...\n      DUP2 \t\t\tInstructionAccount({\\n        ...\n      MSTORE \t\t\tInstructionAccount({\\n        ...\n      PUSH 20\t\t\tInstructionAccount({\\n        ...\n      ADD \t\t\tInstructionAccount({\\n        ...\n      PUSH 0\t\t\t0\n      PUSH FFFFFFFF\t\t\tInstructionAccount({\\n        ...\n      AND \t\t\tInstructionAccount({\\n        ...\n      DUP2 \t\t\tInstructionAccount({\\n        ...\n      MSTORE \t\t\tInstructionAccount({\\n        ...\n      PUSH 20\t\t\tInstructionAccount({\\n        ...\n      ADD \t\t\tInstructionAccount({\\n        ...\n      PUSH 0\t\t\tfalse\n      ISZERO \t\t\tInstructionAccount({\\n        ...\n      ISZERO \t\t\tInstructionAccount({\\n        ...\n      DUP2 \t\t\tInstructionAccount({\\n        ...\n      MSTORE \t\t\tInstructionAccount({\\n        ...\n      PUSH 20\t\t\tInstructionAccount({\\n        ...\n      ADD \t\t\tInstructionAccount({\\n        ...\n      PUSH 0\t\t\tfalse\n      ISZERO \t\t\tInstructionAccount({\\n        ...\n      ISZERO \t\t\tInstructionAccount({\\n        ...\n      DUP2 \t\t\tInstructionAccount({\\n        ...\n      MSTORE \t\t\tInstructionAccount({\\n        ...\n      POP \t\t\tInstructionAccount({\\n        ...\n      DUP2 \t\t\tinstruction\n      PUSH 20\t\t\tinstruction.accounts\n      ADD \t\t\tinstruction.accounts\n      MLOAD \t\t\tinstruction.accounts\n      PUSH 0\t\t\t0\n      DUP2 \t\t\tinstruction.accounts[0]\n      MLOAD \t\t\tinstruction.accounts[0]\n      DUP2 \t\t\tinstruction.accounts[0]\n      LT \t\t\tinstruction.accounts[0]\n      PUSH [tag] 71\t\t\tinstruction.accounts[0]\n      JUMPI \t\t\tinstruction.accounts[0]\n      PUSH [tag] 72\t\t\tinstruction.accounts[0]\n      PUSH [tag] 55\t\t\tinstruction.accounts[0]\n      JUMP \t\t\tinstruction.accounts[0]\n    tag 72\t\t\tinstruction.accounts[0]\n      JUMPDEST \t\t\tinstruction.accounts[0]\n    tag 71\t\t\tinstruction.accounts[0]\n      JUMPDEST \t\t\tinstruction.accounts[0]\n      PUSH 20\t\t\tinstruction.accounts[0]\n      MUL \t\t\tinstruction.accounts[0]\n      PUSH 20\t\t\tinstruction.accounts[0]\n      ADD \t\t\tinstruction.accounts[0]\n      ADD \t\t\tinstruction.accounts[0]\n      DUP2 \t\t\tinstruction.accounts[0] = Inst...\n      SWAP1 \t\t\tinstruction.accounts[0] = Inst...\n      MSTORE \t\t\tinstruction.accounts[0] = Inst...\n      POP \t\t\tinstruction.accounts[0] = Inst...\n      PUSH 0\t\t\tbytes memory discriminator\n      PUSH 40\t\t\tbytes memory discriminator = h...\n      MLOAD \t\t\tbytes memory discriminator = h...\n      DUP1 \t\t\tbytes memory discriminator = h...\n      PUSH 40\t\t\tbytes memory discriminator = h...\n      ADD \t\t\tbytes memory discriminator = h...\n      PUSH 40\t\t\tbytes memory discriminator = h...\n      MSTORE \t\t\tbytes memory discriminator = h...\n      DUP1 \t\t\tbytes memory discriminator = h...\n      PUSH 8\t\t\tbytes memory discriminator = h...\n      DUP2 \t\t\tbytes memory discriminator = h...\n      MSTORE \t\t\tbytes memory discriminator = h...\n      PUSH 20\t\t\tbytes memory discriminator = h...\n      ADD \t\t\tbytes memory discriminator = h...\n      PUSH DC8BFD5F8098939F000000000000000000000000000000000000000000000000\t\t\tbytes memory discriminator = h...\n      DUP2 \t\t\tbytes memory discriminator = h...\n      MSTORE \t\t\tbytes memory discriminator = h...\n      POP \t\t\tbytes memory discriminator = h...\n      SWAP1 \t\t\tbytes memory discriminator = h...\n      POP \t\t\tbytes memory discriminator = h...\n      DUP1 \t\t\tdiscriminator\n      DUP3 \t\t\tinstruction\n      PUSH 40\t\t\tinstruction.data\n      ADD \t\t\tinstruction.data\n      DUP2 \t\t\tinstruction.data = discriminat...\n      SWAP1 \t\t\tinstruction.data = discriminat...\n      MSTORE \t\t\tinstruction.data = discriminat...\n      POP \t\t\tinstruction.data = discriminat...\n      PUSH 1\t\t\t1\n      PUSH FFFFFFFFFFFFFFFF\t\t\tnew Instruction[](1)\n      DUP2 \t\t\tnew Instruction[](1)\n      GT \t\t\tnew Instruction[](1)\n      ISZERO \t\t\tnew Instruction[](1)\n      PUSH [tag] 73\t\t\tnew Instruction[](1)\n      JUMPI \t\t\tnew Instruction[](1)\n      PUSH [tag] 74\t\t\tnew Instruction[](1)\n      PUSH [tag] 50\t\t\tnew Instruction[](1)\n      JUMP \t\t\tnew Instruction[](1)\n    tag 74\t\t\tnew Instruction[](1)\n      JUMPDEST \t\t\tnew Instruction[](1)\n    tag 73\t\t\tnew Instruction[](1)\n      JUMPDEST \t\t\tnew Instruction[](1)\n      PUSH 40\t\t\tnew Instruction[](1)\n      MLOAD \t\t\tnew Instruction[](1)\n      SWAP1 \t\t\tnew Instruction[](1)\n      DUP1 \t\t\tnew Instruction[](1)\n      DUP3 \t\t\tnew Instruction[](1)\n      MSTORE \t\t\tnew Instruction[](1)\n      DUP1 \t\t\tnew Instruction[](1)\n      PUSH 20\t\t\tnew Instruction[](1)\n      MUL \t\t\tnew Instruction[](1)\n      PUSH 20\t\t\tnew Instruction[](1)\n      ADD \t\t\tnew Instruction[](1)\n      DUP3 \t\t\tnew Instruction[](1)\n      ADD \t\t\tnew Instruction[](1)\n      PUSH 40\t\t\tnew Instruction[](1)\n      MSTORE \t\t\tnew Instruction[](1)\n      DUP1 \t\t\tnew Instruction[](1)\n      ISZERO \t\t\tnew Instruction[](1)\n      PUSH [tag] 75\t\t\tnew Instruction[](1)\n      JUMPI \t\t\tnew Instruction[](1)\n      DUP2 \t\t\tnew Instruction[](1)\n      PUSH 20\t\t\tnew Instruction[](1)\n      ADD \t\t\tnew Instruction[](1)\n    tag 76\t\t\tnew Instruction[](1)\n      JUMPDEST \t\t\tnew Instruction[](1)\n      PUSH [tag] 77\t\t\tnew Instruction[](1)\n      PUSH [tag] 59\t\t\tnew Instruction[](1)\n      JUMP \t\t\tnew Instruction[](1)\n    tag 77\t\t\tnew Instruction[](1)\n      JUMPDEST \t\t\tnew Instruction[](1)\n      DUP2 \t\t\tnew Instruction[](1)\n      MSTORE \t\t\tnew Instruction[](1)\n      PUSH 20\t\t\tnew Instruction[](1)\n      ADD \t\t\tnew Instruction[](1)\n      SWAP1 \t\t\tnew Instruction[](1)\n      PUSH 1\t\t\tnew Instruction[](1)\n      SWAP1 \t\t\tnew Instruction[](1)\n      SUB \t\t\tnew Instruction[](1)\n      SWAP1 \t\t\tnew Instruction[](1)\n      DUP2 \t\t\tnew Instruction[](1)\n      PUSH [tag] 76\t\t\tnew Instruction[](1)\n      JUMPI \t\t\tnew Instruction[](1)\n      SWAP1 \t\t\tnew Instruction[](1)\n      POP \t\t\tnew Instruction[](1)\n    tag 75\t\t\tnew Instruction[](1)\n      JUMPDEST \t\t\tnew Instruction[](1)\n      POP \t\t\tnew Instruction[](1)\n      DUP4 \t\t\ttransaction\n      PUSH 40\t\t\ttransaction.instructions\n      ADD \t\t\ttransaction.instructions\n      DUP2 \t\t\ttransaction.instructions = new...\n      SWAP1 \t\t\ttransaction.instructions = new...\n      MSTORE \t\t\ttransaction.instructions = new...\n      POP \t\t\ttransaction.instructions = new...\n      DUP2 \t\t\tinstruction\n      DUP4 \t\t\ttransaction\n      PUSH 40\t\t\ttransaction.instructions\n      ADD \t\t\ttransaction.instructions\n      MLOAD \t\t\ttransaction.instructions\n      PUSH 0\t\t\t0\n      DUP2 \t\t\ttransaction.instructions[0]\n      MLOAD \t\t\ttransaction.instructions[0]\n      DUP2 \t\t\ttransaction.instructions[0]\n      LT \t\t\ttransaction.instructions[0]\n      PUSH [tag] 78\t\t\ttransaction.instructions[0]\n      JUMPI \t\t\ttransaction.instructions[0]\n      PUSH [tag] 79\t\t\ttransaction.instructions[0]\n      PUSH [tag] 55\t\t\ttransaction.instructions[0]\n      JUMP \t\t\ttransaction.instructions[0]\n    tag 79\t\t\ttransaction.instructions[0]\n      JUMPDEST \t\t\ttransaction.instructions[0]\n    tag 78\t\t\ttransaction.instructions[0]\n      JUMPDEST \t\t\ttransaction.instructions[0]\n      PUSH 20\t\t\ttransaction.instructions[0]\n      MUL \t\t\ttransaction.instructions[0]\n      PUSH 20\t\t\ttransaction.instructions[0]\n      ADD \t\t\ttransaction.instructions[0]\n      ADD \t\t\ttransaction.instructions[0]\n      DUP2 \t\t\ttransaction.instructions[0] = ...\n      SWAP1 \t\t\ttransaction.instructions[0] = ...\n      MSTORE \t\t\ttransaction.instructions[0] = ...\n      POP \t\t\ttransaction.instructions[0] = ...\n      PUSH 0\t\t\tbool ok\n      DUP1 \t\t\tbytes memory r\n      DUP6 \t\t\tcrossVmContract\n      PUSH FFFFFFFFFFFFFFFFFFFFFFFFFFFFFFFFFFFFFFFF\t\t\tcrossVmContract.staticcall\n      AND \t\t\tcrossVmContract.staticcall\n      DUP6 \t\t\ttransaction\n      PUSH 40\t\t\tabi.encode(transaction)\n      MLOAD \t\t\tabi.encode(transaction)\n      PUSH 20\t\t\tabi.encode(transaction)\n      ADD \t\t\tabi.encode(transaction)\n      PUSH [tag] 80\t\t\tabi.encode(transaction)\n      SWAP2 \t\t\tabi.encode(transaction)\n      SWAP1 \t\t\tabi.encode(transaction)\n      PUSH [tag] 81\t\t\tabi.encode(transaction)\n      JUMP \t\t\tabi.encode(transaction)\n    tag 80\t\t\tabi.encode(transaction)\n      JUMPDEST \t\t\tabi.encode(transaction)\n      PUSH 40\t\t\tabi.encode(transaction)\n      MLOAD \t\t\tabi.encode(transaction)\n      PUSH 20\t\t\tabi.encode(transaction)\n      DUP2 \t\t\tabi.encode(transaction)\n      DUP4 \t\t\tabi.encode(transaction)\n      SUB \t\t\tabi.encode(transaction)\n      SUB \t\t\tabi.encode(transaction)\n      DUP2 \t\t\tabi.encode(transaction)\n      MSTORE \t\t\tabi.encode(transaction)\n      SWAP1 \t\t\tabi.encode(transaction)\n      PUSH 40\t\t\tabi.encode(transaction)\n      MSTORE \t\t\tabi.encode(transaction)\n      PUSH 40\t\t\tcrossVmContract.staticcall(abi...\n      MLOAD \t\t\tcrossVmContract.staticcall(abi...\n      PUSH [tag] 82\t\t\tcrossVmContract.staticcall(abi...\n      SWAP2 \t\t\tcrossVmContract.staticcall(abi...\n      SWAP1 \t\t\tcrossVmContract.staticcall(abi...\n      PUSH [tag] 83\t\t\tcrossVmContract.staticcall(abi...\n      JUMP \t\t\tcrossVmContract.staticcall(abi...\n    tag 82\t\t\tcrossVmContract.staticcall(abi...\n      JUMPDEST \t\t\tcrossVmContract.staticcall(abi...\n      PUSH 0\t\t\tcrossVmContract.staticcall(abi...\n      PUSH 40\t\t\tcrossVmContract.staticcall(abi...\n      MLOAD \t\t\tcrossVmContract.staticcall(abi...\n      DUP1 \t\t\tcrossVmContract.staticcall(abi...\n      DUP4 \t\t\tcrossVmContract.staticcall(abi...\n      SUB \t\t\tcrossVmContract.staticcall(abi...\n      DUP2 \t\t\tcrossVmContract.staticcall(abi...\n      DUP6 \t\t\tcrossVmContract.staticcall(abi...\n      GAS \t\t\tcrossVmContract.staticcall(abi...\n      STATICCALL \t\t\tcrossVmContract.staticcall(abi...\n      SWAP2 \t\t\tcrossVmContract.staticcall(abi...\n      POP \t\t\tcrossVmContract.staticcall(abi...\n      POP \t\t\tcrossVmContract.staticcall(abi...\n      RETURNDATASIZE \t\t\tcrossVmContract.staticcall(abi...\n      DUP1 \t\t\tcrossVmContract.staticcall(abi...\n      PUSH 0\t\t\tcrossVmContract.staticcall(abi...\n      DUP2 \t\t\tcrossVmContract.staticcall(abi...\n      EQ \t\t\tcrossVmContract.staticcall(abi...\n      PUSH [tag] 86\t\t\tcrossVmContract.staticcall(abi...\n      JUMPI \t\t\tcrossVmContract.staticcall(abi...\n      PUSH 40\t\t\tcrossVmContract.staticcall(abi...\n      MLOAD \t\t\tcrossVmContract.staticcall(abi...\n      SWAP2 \t\t\tcrossVmContract.staticcall(abi...\n      POP \t\t\tcrossVmContract.staticcall(abi...\n      PUSH 1F\t\t\tcrossVmContract.staticcall(abi...\n      NOT \t\t\tcrossVmContract.staticcall(abi...\n      PUSH 3F\t\t\tcrossVmContract.staticcall(abi...\n      RETURNDATASIZE \t\t\tcrossVmContract.staticcall(abi...\n      ADD \t\t\tcrossVmContract.staticcall(abi...\n      AND \t\t\tcrossVmContract.staticcall(abi...\n      DUP3 \t\t\tcrossVmContract.staticcall(abi...\n      ADD \t\t\tcrossVmContract.staticcall(abi...\n      PUSH 40\t\t\tcrossVmContract.staticcall(abi...\n      MSTORE \t\t\tcrossVmContract.staticcall(abi...\n      RETURNDATASIZE \t\t\tcrossVmContract.staticcall(abi...\n      DUP3 \t\t\tcrossVmContract.staticcall(abi...\n      MSTORE \t\t\tcrossVmContract.staticcall(abi...\n      RETURNDATASIZE \t\t\tcrossVmContract.staticcall(abi...\n      PUSH 0\t\t\tcrossVmContract.staticcall(abi...\n      PUSH 20\t\t\tcrossVmContract.staticcall(abi...\n      DUP5 \t\t\tcrossVmContract.staticcall(abi...\n      ADD \t\t\tcrossVmContract.staticcall(abi...\n      RETURNDATACOPY \t\t\tcrossVmContract.staticcall(abi...\n      PUSH [tag] 85\t\t\tcrossVmContract.staticcall(abi...\n      JUMP \t\t\tcrossVmContract.staticcall(abi...\n    tag 86\t\t\tcrossVmContract.staticcall(abi...\n      JUMPDEST \t\t\tcrossVmContract.staticcall(abi...\n      PUSH 60\t\t\tcrossVmContract.staticcall(abi...\n      SWAP2 \t\t\tcrossVmContract.staticcall(abi...\n      POP \t\t\tcrossVmContract.staticcall(abi...\n    tag 85\t\t\tcrossVmContract.staticcall(abi...\n      JUMPDEST \t\t\tcrossVmContract.staticcall(abi...\n      POP \t\t\tcrossVmContract.staticcall(abi...\n      SWAP2 \t\t\t(bool ok, bytes memory r) = cr...\n      POP \t\t\t(bool ok, bytes memory r) = cr...\n      SWAP2 \t\t\t(bool ok, bytes memory r) = cr...\n      POP \t\t\t(bool ok, bytes memory r) = cr...\n      DUP2 \t\t\tok\n      PUSH [tag] 87\t\t\trequire(ok, \"call must succeed...\n      JUMPI \t\t\trequire(ok, \"call must succeed...\n      PUSH 40\t\t\trequire(ok, \"call must succeed...\n      MLOAD \t\t\trequire(ok, \"call must succeed...\n      PUSH 8C379A000000000000000000000000000000000000000000000000000000000\t\t\trequire(ok, \"call must succeed...\n      DUP2 \t\t\trequire(ok, \"call must succeed...\n      MSTORE \t\t\trequire(ok, \"call must succeed...\n      PUSH 4\t\t\trequire(ok, \"call must succeed...\n      ADD \t\t\trequire(ok, \"call must succeed...\n      PUSH [tag] 88\t\t\trequire(ok, \"call must succeed...\n      SWAP1 \t\t\trequire(ok, \"call must succeed...\n      PUSH [tag] 89\t\t\trequire(ok, \"call must succeed...\n      JUMP \t\t\trequire(ok, \"call must succeed...\n    tag 88\t\t\trequire(ok, \"call must succeed...\n      JUMPDEST \t\t\trequire(ok, \"call must succeed...\n      PUSH 40\t\t\trequire(ok, \"call must succeed...\n      MLOAD \t\t\trequire(ok, \"call must succeed...\n      DUP1 \t\t\trequire(ok, \"call must succeed...\n      SWAP2 \t\t\trequire(ok, \"call must succeed...\n      SUB \t\t\trequire(ok, \"call must succeed...\n      SWAP1 \t\t\trequire(ok, \"call must succeed...\n      REVERT \t\t\trequire(ok, \"call must succeed...\n    tag 87\t\t\trequire(ok, \"call must succeed...\n      JUMPDEST \t\t\trequire(ok, \"call must succeed...\n      PUSH [tag] 90\t\t\tparseSvmResponse(r)\n      DUP2 \t\t\tr\n      PUSH [tag] 91\t\t\tparseSvmResponse\n      JUMP \t\t\tparseSvmResponse(r)\n    tag 90\t\t\tparseSvmResponse(r)\n      JUMPDEST \t\t\tparseSvmResponse(r)\n      SWAP7 \t\t\treturn parseSvmResponse(r)\n      POP \t\t\treturn parseSvmResponse(r)\n      POP \t\t\treturn parseSvmResponse(r)\n      POP \t\t\treturn parseSvmResponse(r)\n      POP \t\t\treturn parseSvmResponse(r)\n      POP \t\t\treturn parseSvmResponse(r)\n      POP \t\t\treturn parseSvmResponse(r)\n      POP \t\t\treturn parseSvmResponse(r)\n      SWAP1 \t\t\tfunction getSvm() internal vie...\n      JUMP \t\t\tfunction getSvm() internal vie...\n    tag 28\t\t\tfunction doSetSvm(string memor...\n      JUMPDEST \t\t\tfunction doSetSvm(string memor...\n      PUSH 60\t\t\tbytes memory result\n      PUSH 0\t\t\taddress crossVmContract\n      PUSH 75A96B46758F367B9A40DAC909589603BE123057\t\t\t0x75a96B46758F367b9A40Dac90958...\n      SWAP1 \t\t\taddress crossVmContract = addr...\n      POP \t\t\taddress crossVmContract = addr...\n      PUSH [tag] 93\t\t\tMsgTransaction memory transact...\n      PUSH [tag] 47\t\t\tMsgTransaction memory transact...\n      JUMP \t\t\tMsgTransaction memory transact...\n    tag 93\t\t\tMsgTransaction memory transact...\n      JUMPDEST \t\t\tMsgTransaction memory transact...\n      PUSH 4\t\t\t4\n      PUSH FFFFFFFFFFFFFFFF\t\t\tnew string[](4)\n      DUP2 \t\t\tnew string[](4)\n      GT \t\t\tnew string[](4)\n      ISZERO \t\t\tnew string[](4)\n      PUSH [tag] 94\t\t\tnew string[](4)\n      JUMPI \t\t\tnew string[](4)\n      PUSH [tag] 95\t\t\tnew string[](4)\n      PUSH [tag] 50\t\t\tnew string[](4)\n      JUMP \t\t\tnew string[](4)\n    tag 95\t\t\tnew string[](4)\n      JUMPDEST \t\t\tnew string[](4)\n    tag 94\t\t\tnew string[](4)\n      JUMPDEST \t\t\tnew string[](4)\n      PUSH 40\t\t\tnew string[](4)\n      MLOAD \t\t\tnew string[](4)\n      SWAP1 \t\t\tnew string[](4)\n      DUP1 \t\t\tnew string[](4)\n      DUP3 \t\t\tnew string[](4)\n      MSTORE \t\t\tnew string[](4)\n      DUP1 \t\t\tnew string[](4)\n      PUSH 20\t\t\tnew string[](4)\n      MUL \t\t\tnew string[](4)\n      PUSH 20\t\t\tnew string[](4)\n      ADD \t\t\tnew string[](4)\n      DUP3 \t\t\tnew string[](4)\n      ADD \t\t\tnew string[](4)\n      PUSH 40\t\t\tnew string[](4)\n      MSTORE \t\t\tnew string[](4)\n      DUP1 \t\t\tnew string[](4)\n      ISZERO \t\t\tnew string[](4)\n      PUSH [tag] 96\t\t\tnew string[](4)\n      JUMPI \t\t\tnew string[](4)\n      DUP2 \t\t\tnew string[](4)\n      PUSH 20\t\t\tnew string[](4)\n      ADD \t\t\tnew string[](4)\n    tag 97\t\t\tnew string[](4)\n      JUMPDEST \t\t\tnew string[](4)\n      PUSH 60\t\t\tnew string[](4)\n      DUP2 \t\t\tnew string[](4)\n      MSTORE \t\t\tnew string[](4)\n      PUSH 20\t\t\tnew string[](4)\n      ADD \t\t\tnew string[](4)\n      SWAP1 \t\t\tnew string[](4)\n      PUSH 1\t\t\tnew string[](4)\n      SWAP1 \t\t\tnew string[](4)\n      SUB \t\t\tnew string[](4)\n      SWAP1 \t\t\tnew string[](4)\n      DUP2 \t\t\tnew string[](4)\n      PUSH [tag] 97\t\t\tnew string[](4)\n      JUMPI \t\t\tnew string[](4)\n      SWAP1 \t\t\tnew string[](4)\n      POP \t\t\tnew string[](4)\n    tag 96\t\t\tnew string[](4)\n      JUMPDEST \t\t\tnew string[](4)\n      POP \t\t\tnew string[](4)\n      DUP2 \t\t\ttransaction\n      PUSH 20\t\t\ttransaction.accounts\n      ADD \t\t\ttransaction.accounts\n      DUP2 \t\t\ttransaction.accounts = new str...\n      SWAP1 \t\t\ttransaction.accounts = new str...\n      MSTORE \t\t\ttransaction.accounts = new str...\n      POP \t\t\ttransaction.accounts = new str...\n      PUSH 40\t\t\ttransaction.accounts[0] = \"83z...\n      MLOAD \t\t\ttransaction.accounts[0] = \"83z...\n      DUP1 \t\t\ttransaction.accounts[0] = \"83z...\n      PUSH 60\t\t\ttransaction.accounts[0] = \"83z...\n      ADD \t\t\ttransaction.accounts[0] = \"83z...\n      PUSH 40\t\t\ttransaction.accounts[0] = \"83z...\n      MSTORE \t\t\ttransaction.accounts[0] = \"83z...\n      DUP1 \t\t\ttransaction.accounts[0] = \"83z...\n      PUSH 2C\t\t\ttransaction.accounts[0] = \"83z...\n      DUP2 \t\t\ttransaction.accounts[0] = \"83z...\n      MSTORE \t\t\ttransaction.accounts[0] = \"83z...\n      PUSH 20\t\t\ttransaction.accounts[0] = \"83z...\n      ADD \t\t\ttransaction.accounts[0] = \"83z...\n      PUSH data 5AD1B34C28D0DE49F8303D7C1424471BC7D1A6CFFDF5E570B681B7A033938E0F\t\t\ttransaction.accounts[0] = \"83z...\n      PUSH 2C\t\t\ttransaction.accounts[0] = \"83z...\n      SWAP2 \t\t\ttransaction.accounts[0] = \"83z...\n      CODECOPY \t\t\ttransaction.accounts[0] = \"83z...\n      DUP2 \t\t\ttransaction\n      PUSH 20\t\t\ttransaction.accounts\n      ADD \t\t\ttransaction.accounts\n      MLOAD \t\t\ttransaction.accounts\n      PUSH 0\t\t\t0\n      DUP2 \t\t\ttransaction.accounts[0]\n      MLOAD \t\t\ttransaction.accounts[0]\n      DUP2 \t\t\ttransaction.accounts[0]\n      LT \t\t\ttransaction.accounts[0]\n      PUSH [tag] 98\t\t\ttransaction.accounts[0]\n      JUMPI \t\t\ttransaction.accounts[0]\n      PUSH [tag] 99\t\t\ttransaction.accounts[0]\n      PUSH [tag] 55\t\t\ttransaction.accounts[0]\n      JUMP \t\t\ttransaction.accounts[0]\n    tag 99\t\t\ttransaction.accounts[0]\n      JUMPDEST \t\t\ttransaction.accounts[0]\n    tag 98\t\t\ttransaction.accounts[0]\n      JUMPDEST \t\t\ttransaction.accounts[0]\n      PUSH 20\t\t\ttransaction.accounts[0]\n      MUL \t\t\ttransaction.accounts[0]\n      PUSH 20\t\t\ttransaction.accounts[0]\n      ADD \t\t\ttransaction.accounts[0]\n      ADD \t\t\ttransaction.accounts[0]\n      DUP2 \t\t\ttransaction.accounts[0] = \"83z...\n      SWAP1 \t\t\ttransaction.accounts[0] = \"83z...\n      MSTORE \t\t\ttransaction.accounts[0] = \"83z...\n      POP \t\t\ttransaction.accounts[0] = \"83z...\n      PUSH 40\t\t\ttransaction.accounts[1] = \"22z...\n      MLOAD \t\t\ttransaction.accounts[1] = \"22z...\n      DUP1 \t\t\ttransaction.accounts[1] = \"22z...\n      PUSH 60\t\t\ttransaction.accounts[1] = \"22z...\n      ADD \t\t\ttransaction.accounts[1] = \"22z...\n      PUSH 40\t\t\ttransaction.accounts[1] = \"22z...\n      MSTORE \t\t\ttransaction.accounts[1] = \"22z...\n      DUP1 \t\t\ttransaction.accounts[1] = \"22z...\n      PUSH 2C\t\t\ttransaction.accounts[1] = \"22z...\n      DUP2 \t\t\ttransaction.accounts[1] = \"22z...\n      MSTORE \t\t\ttransaction.accounts[1] = \"22z...\n      PUSH 20\t\t\ttransaction.accounts[1] = \"22z...\n      ADD \t\t\ttransaction.accounts[1] = \"22z...\n      PUSH data DB7DC5A227104A7DC4106459D89C7370461570F3D01CED1AE79589AA9212598F\t\t\ttransaction.accounts[1] = \"22z...\n      PUSH 2C\t\t\ttransaction.accounts[1] = \"22z...\n      SWAP2 \t\t\ttransaction.accounts[1] = \"22z...\n      CODECOPY \t\t\ttransaction.accounts[1] = \"22z...\n      DUP2 \t\t\ttransaction\n      PUSH 20\t\t\ttransaction.accounts\n      ADD \t\t\ttransaction.accounts\n      MLOAD \t\t\ttransaction.accounts\n      PUSH 1\t\t\t1\n      DUP2 \t\t\ttransaction.accounts[1]\n      MLOAD \t\t\ttransaction.accounts[1]\n      DUP2 \t\t\ttransaction.accounts[1]\n      LT \t\t\ttransaction.accounts[1]\n      PUSH [tag] 100\t\t\ttransaction.accounts[1]\n      JUMPI \t\t\ttransaction.accounts[1]\n      PUSH [tag] 101\t\t\ttransaction.accounts[1]\n      PUSH [tag] 55\t\t\ttransaction.accounts[1]\n      JUMP \t\t\ttransaction.accounts[1]\n    tag 101\t\t\ttransaction.accounts[1]\n      JUMPDEST \t\t\ttransaction.accounts[1]\n    tag 100\t\t\ttransaction.accounts[1]\n      JUMPDEST \t\t\ttransaction.accounts[1]\n      PUSH 20\t\t\ttransaction.accounts[1]\n      MUL \t\t\ttransaction.accounts[1]\n      PUSH 20\t\t\ttransaction.accounts[1]\n      ADD \t\t\ttransaction.accounts[1]\n      ADD \t\t\ttransaction.accounts[1]\n      DUP2 \t\t\ttransaction.accounts[1] = \"22z...\n      SWAP1 \t\t\ttransaction.accounts[1] = \"22z...\n      MSTORE \t\t\ttransaction.accounts[1] = \"22z...\n      POP \t\t\ttransaction.accounts[1] = \"22z...\n      DUP5 \t\t\tsvmFeePayer\n      DUP2 \t\t\ttransaction\n      PUSH 20\t\t\ttransaction.accounts\n      ADD \t\t\ttransaction.accounts\n      MLOAD \t\t\ttransaction.accounts\n      PUSH 2\t\t\t2\n      DUP2 \t\t\ttransaction.accounts[2]\n      MLOAD \t\t\ttransaction.accounts[2]\n      DUP2 \t\t\ttransaction.accounts[2]\n      LT \t\t\ttransaction.accounts[2]\n      PUSH [tag] 102\t\t\ttransaction.accounts[2]\n      JUMPI \t\t\ttransaction.accounts[2]\n      PUSH [tag] 103\t\t\ttransaction.accounts[2]\n      PUSH [tag] 55\t\t\ttransaction.accounts[2]\n      JUMP \t\t\ttransaction.accounts[2]\n    tag 103\t\t\ttransaction.accounts[2]\n      JUMPDEST \t\t\ttransaction.accounts[2]\n    tag 102\t\t\ttransaction.accounts[2]\n      JUMPDEST \t\t\ttransaction.accounts[2]\n      PUSH 20\t\t\ttransaction.accounts[2]\n      MUL \t\t\ttransaction.accounts[2]\n      PUSH 20\t\t\ttransaction.accounts[2]\n      ADD \t\t\ttransaction.accounts[2]\n      ADD \t\t\ttransaction.accounts[2]\n      DUP2 \t\t\ttransaction.accounts[2] = svmF...\n      SWAP1 \t\t\ttransaction.accounts[2] = svmF...\n      MSTORE \t\t\ttransaction.accounts[2] = svmF...\n      POP \t\t\ttransaction.accounts[2] = svmF...\n      PUSH 40\t\t\ttransaction.accounts[3] = \"111...\n      MLOAD \t\t\ttransaction.accounts[3] = \"111...\n      DUP1 \t\t\ttransaction.accounts[3] = \"111...\n      PUSH 40\t\t\ttransaction.accounts[3] = \"111...\n      ADD \t\t\ttransaction.accounts[3] = \"111...\n      PUSH 40\t\t\ttransaction.accounts[3] = \"111...\n      MSTORE \t\t\ttransaction.accounts[3] = \"111...\n      DUP1 \t\t\ttransaction.accounts[3] = \"111...\n      PUSH 20\t\t\ttransaction.accounts[3] = \"111...\n      DUP2 \t\t\ttransaction.accounts[3] = \"111...\n      MSTORE \t\t\ttransaction.accounts[3] = \"111...\n      PUSH 20\t\t\ttransaction.accounts[3] = \"111...\n      ADD \t\t\ttransaction.accounts[3] = \"111...\n      PUSH 3131313131313131313131313131313131313131313131313131313131313131\t\t\ttransaction.accounts[3] = \"111...\n      DUP2 \t\t\ttransaction.accounts[3] = \"111...\n      MSTORE \t\t\ttransaction.accounts[3] = \"111...\n      POP \t\t\ttransaction.accounts[3] = \"111...\n      DUP2 \t\t\ttransaction\n      PUSH 20\t\t\ttransaction.accounts\n      ADD \t\t\ttransaction.accounts\n      MLOAD \t\t\ttransaction.accounts\n      PUSH 3\t\t\t3\n      DUP2 \t\t\ttransaction.accounts[3]\n      MLOAD \t\t\ttransaction.accounts[3]\n      DUP2 \t\t\ttransaction.accounts[3]\n      LT \t\t\ttransaction.accounts[3]\n      PUSH [tag] 104\t\t\ttransaction.accounts[3]\n      JUMPI \t\t\ttransaction.accounts[3]\n      PUSH [tag] 105\t\t\ttransaction.accounts[3]\n      PUSH [tag] 55\t\t\ttransaction.accounts[3]\n      JUMP \t\t\ttransaction.accounts[3]\n    tag 105\t\t\ttransaction.accounts[3]\n      JUMPDEST \t\t\ttransaction.accounts[3]\n    tag 104\t\t\ttransaction.accounts[3]\n      JUMPDEST \t\t\ttransaction.accounts[3]\n      PUSH 20\t\t\ttransaction.accounts[3]\n      MUL \t\t\ttransaction.accounts[3]\n      PUSH 20\t\t\ttransaction.accounts[3]\n      ADD \t\t\ttransaction.accounts[3]\n      ADD \t\t\ttransaction.accounts[3]\n      DUP2 \t\t\ttransaction.accounts[3] = \"111...\n      SWAP1 \t\t\ttransaction.accounts[3] = \"111...\n      MSTORE \t\t\ttransaction.accounts[3] = \"111...\n      POP \t\t\ttransaction.accounts[3] = \"111...\n      PUSH F4240\t\t\t1000000\n      DUP2 \t\t\ttransaction\n      PUSH 60\t\t\ttransaction.compute_budget\n      ADD \t\t\ttransaction.compute_budget\n      SWAP1 \t\t\ttransaction.compute_budget = 1...\n      PUSH FFFFFFFFFFFFFFFF\t\t\ttransaction.compute_budget = 1...\n      AND \t\t\ttransaction.compute_budget = 1...\n      SWAP1 \t\t\ttransaction.compute_budget = 1...\n      DUP2 \t\t\ttransaction.compute_budget = 1...\n      PUSH FFFFFFFFFFFFFFFF\t\t\ttransaction.compute_budget = 1...\n      AND \t\t\ttransaction.compute_budget = 1...\n      DUP2 \t\t\ttransaction.compute_budget = 1...\n      MSTORE \t\t\ttransaction.compute_budget = 1...\n      POP \t\t\ttransaction.compute_budget = 1...\n      POP \t\t\ttransaction.compute_budget = 1...\n      PUSH [tag] 106\t\t\tInstruction memory instruction\n      PUSH [tag] 59\t\t\tInstruction memory instruction\n      JUMP \t\t\tInstruction memory instruction\n    tag 106\t\t\tInstruction memory instruction\n      JUMPDEST \t\t\tInstruction memory instruction\n      PUSH 1\t\t\t1\n      PUSH FFFFFFFFFFFFFFFF\t\t\tnew uint32[](1)\n      DUP2 \t\t\tnew uint32[](1)\n      GT \t\t\tnew uint32[](1)\n      ISZERO \t\t\tnew uint32[](1)\n      PUSH [tag] 107\t\t\tnew uint32[](1)\n      JUMPI \t\t\tnew uint32[](1)\n      PUSH [tag] 108\t\t\tnew uint32[](1)\n      PUSH [tag] 50\t\t\tnew uint32[](1)\n      JUMP \t\t\tnew uint32[](1)\n    tag 108\t\t\tnew uint32[](1)\n      JUMPDEST \t\t\tnew uint32[](1)\n    tag 107\t\t\tnew uint32[](1)\n      JUMPDEST \t\t\tnew uint32[](1)\n      PUSH 40\t\t\tnew uint32[](1)\n      MLOAD \t\t\tnew uint32[](1)\n      SWAP1 \t\t\tnew uint32[](1)\n      DUP1 \t\t\tnew uint32[](1)\n      DUP3 \t\t\tnew uint32[](1)\n      MSTORE \t\t\tnew uint32[](1)\n      DUP1 \t\t\tnew uint32[](1)\n      PUSH 20\t\t\tnew uint32[](1)\n      MUL \t\t\tnew uint32[](1)\n      PUSH 20\t\t\tnew uint32[](1)\n      ADD \t\t\tnew uint32[](1)\n      DUP3 \t\t\tnew uint32[](1)\n      ADD \t\t\tnew uint32[](1)\n      PUSH 40\t\t\tnew uint32[](1)\n      MSTORE \t\t\tnew uint32[](1)\n      DUP1 \t\t\tnew uint32[](1)\n      ISZERO \t\t\tnew uint32[](1)\n      PUSH [tag] 109\t\t\tnew uint32[](1)\n      JUMPI \t\t\tnew uint32[](1)\n      DUP2 \t\t\tnew uint32[](1)\n      PUSH 20\t\t\tnew uint32[](1)\n      ADD \t\t\tnew uint32[](1)\n      PUSH 20\t\t\tnew uint32[](1)\n      DUP3 \t\t\tnew uint32[](1)\n      MUL \t\t\tnew uint32[](1)\n      DUP1 \t\t\tnew uint32[](1)\n      CALLDATASIZE \t\t\tnew uint32[](1)\n      DUP4 \t\t\tnew uint32[](1)\n      CALLDATACOPY \t\t\tnew uint32[](1)\n      DUP1 \t\t\tnew uint32[](1)\n      DUP3 \t\t\tnew uint32[](1)\n      ADD \t\t\tnew uint32[](1)\n      SWAP2 \t\t\tnew uint32[](1)\n      POP \t\t\tnew uint32[](1)\n      POP \t\t\tnew uint32[](1)\n      SWAP1 \t\t\tnew uint32[](1)\n      POP \t\t\tnew uint32[](1)\n    tag 109\t\t\tnew uint32[](1)\n      JUMPDEST \t\t\tnew uint32[](1)\n      POP \t\t\tnew uint32[](1)\n      DUP2 \t\t\tinstruction\n      PUSH 0\t\t\tinstruction.program_index\n      ADD \t\t\tinstruction.program_index\n      DUP2 \t\t\tinstruction.program_index = ne...\n      SWAP1 \t\t\tinstruction.program_index = ne...\n      MSTORE \t\t\tinstruction.program_index = ne...\n      POP \t\t\tinstruction.program_index = ne...\n      PUSH 0\t\t\t0\n      DUP2 \t\t\tinstruction\n      PUSH 0\t\t\tinstruction.program_index\n      ADD \t\t\tinstruction.program_index\n      MLOAD \t\t\tinstruction.program_index\n      PUSH 0\t\t\t0\n      DUP2 \t\t\tinstruction.program_index[0]\n      MLOAD \t\t\tinstruction.program_index[0]\n      DUP2 \t\t\tinstruction.program_index[0]\n      LT \t\t\tinstruction.program_index[0]\n      PUSH [tag] 110\t\t\tinstruction.program_index[0]\n      JUMPI \t\t\tinstruction.program_index[0]\n      PUSH [tag] 111\t\t\tinstruction.program_index[0]\n      PUSH [tag] 55\t\t\tinstruction.program_index[0]\n      JUMP \t\t\tinstruction.program_index[0]\n    tag 111\t\t\tinstruction.program_index[0]\n      JUMPDEST \t\t\tinstruction.program_index[0]\n    tag 110\t\t\tinstruction.program_index[0]\n      JUMPDEST \t\t\tinstruction.program_index[0]\n      PUSH 20\t\t\tinstruction.program_index[0]\n      MUL \t\t\tinstruction.program_index[0]\n      PUSH 20\t\t\tinstruction.program_index[0]\n      ADD \t\t\tinstruction.program_index[0]\n      ADD \t\t\tinstruction.program_index[0]\n      SWAP1 \t\t\tinstruction.program_index[0] =...\n      PUSH FFFFFFFF\t\t\tinstruction.program_index[0] =...\n      AND \t\t\tinstruction.program_index[0] =...\n      SWAP1 \t\t\tinstruction.program_index[0] =...\n      DUP2 \t\t\tinstruction.program_index[0] =...\n      PUSH FFFFFFFF\t\t\tinstruction.program_index[0] =...\n      AND \t\t\tinstruction.program_index[0] =...\n      DUP2 \t\t\tinstruction.program_index[0] =...\n      MSTORE \t\t\tinstruction.program_index[0] =...\n      POP \t\t\tinstruction.program_index[0] =...\n      POP \t\t\tinstruction.program_index[0] =...\n      PUSH 3\t\t\t3\n      PUSH FFFFFFFFFFFFFFFF\t\t\tnew InstructionAccount[](3)\n      DUP2 \t\t\tnew InstructionAccount[](3)\n      GT \t\t\tnew InstructionAccount[](3)\n      ISZERO \t\t\tnew InstructionAccount[](3)\n      PUSH [tag] 112\t\t\tnew InstructionAccount[](3)\n      JUMPI \t\t\tnew InstructionAccount[](3)\n      PUSH [tag] 113\t\t\tnew InstructionAccount[](3)\n      PUSH [tag] 50\t\t\tnew InstructionAccount[](3)\n      JUMP \t\t\tnew InstructionAccount[](3)\n    tag 113\t\t\tnew InstructionAccount[](3)\n      JUMPDEST \t\t\tnew InstructionAccount[](3)\n    tag 112\t\t\tnew InstructionAccount[](3)\n      JUMPDEST \t\t\tnew InstructionAccount[](3)\n      PUSH 40\t\t\tnew InstructionAccount[](3)\n      MLOAD \t\t\tnew InstructionAccount[](3)\n      SWAP1 \t\t\tnew InstructionAccount[](3)\n      DUP1 \t\t\tnew InstructionAccount[](3)\n      DUP3 \t\t\tnew InstructionAccount[](3)\n      MSTORE \t\t\tnew InstructionAccount[](3)\n      DUP1 \t\t\tnew InstructionAccount[](3)\n      PUSH 20\t\t\tnew InstructionAccount[](3)\n      MUL \t\t\tnew InstructionAccount[](3)\n      PUSH 20\t\t\tnew InstructionAccount[](3)\n      ADD \t\t\tnew InstructionAccount[](3)\n      DUP3 \t\t\tnew InstructionAccount[](3)\n      ADD \t\t\tnew InstructionAccount[](3)\n      PUSH 40\t\t\tnew InstructionAccount[](3)\n      MSTORE \t\t\tnew InstructionAccount[](3)\n      DUP1 \t\t\tnew InstructionAccount[](3)\n      ISZERO \t\t\tnew InstructionAccount[](3)\n      PUSH [tag] 114\t\t\tnew InstructionAccount[](3)\n      JUMPI \t\t\tnew InstructionAccount[](3)\n      DUP2 \t\t\tnew InstructionAccount[](3)\n      PUSH 20\t\t\tnew InstructionAccount[](3)\n      ADD \t\t\tnew InstructionAccount[](3)\n    tag 115\t\t\tnew InstructionAccount[](3)\n      JUMPDEST \t\t\tnew InstructionAccount[](3)\n      PUSH [tag] 116\t\t\tnew InstructionAccount[](3)\n      PUSH [tag] 70\t\t\tnew InstructionAccount[](3)\n      JUMP \t\t\tnew InstructionAccount[](3)\n    tag 116\t\t\tnew InstructionAccount[](3)\n      JUMPDEST \t\t\tnew InstructionAccount[](3)\n      DUP2 \t\t\tnew InstructionAccount[](3)\n      MSTORE \t\t\tnew InstructionAccount[](3)\n      PUSH 20\t\t\tnew InstructionAccount[](3)\n      ADD \t\t\tnew InstructionAccount[](3)\n      SWAP1 \t\t\tnew InstructionAccount[](3)\n      PUSH 1\t\t\tnew InstructionAccount[](3)\n      SWAP1 \t\t\tnew InstructionAccount[](3)\n      SUB \t\t\tnew InstructionAccount[](3)\n      SWAP1 \t\t\tnew InstructionAccount[](3)\n      DUP2 \t\t\tnew InstructionAccount[](3)\n      PUSH [tag] 115\t\t\tnew InstructionAccount[](3)\n      JUMPI \t\t\tnew InstructionAccount[](3)\n      SWAP1 \t\t\tnew InstructionAccount[](3)\n      POP \t\t\tnew InstructionAccount[](3)\n    tag 114\t\t\tnew InstructionAccount[](3)\n      JUMPDEST \t\t\tnew InstructionAccount[](3)\n      POP \t\t\tnew InstructionAccount[](3)\n      DUP2 \t\t\tinstruction\n      PUSH 20\t\t\tinstruction.accounts\n      ADD \t\t\tinstruction.accounts\n      DUP2 \t\t\tinstruction.accounts = new Ins...\n      SWAP1 \t\t\tinstruction.accounts = new Ins...\n      MSTORE \t\t\tinstruction.accounts = new Ins...\n      POP \t\t\tinstruction.accounts = new Ins...\n      PUSH 40\t\t\tInstructionAccount({\\n        ...\n      MLOAD \t\t\tInstructionAccount({\\n        ...\n      DUP1 \t\t\tInstructionAccount({\\n        ...\n      PUSH A0\t\t\tInstructionAccount({\\n        ...\n      ADD \t\t\tInstructionAccount({\\n        ...\n      PUSH 40\t\t\tInstructionAccount({\\n        ...\n      MSTORE \t\t\tInstructionAccount({\\n        ...\n      DUP1 \t\t\tInstructionAccount({\\n        ...\n      PUSH 1\t\t\t1\n      PUSH FFFFFFFF\t\t\tInstructionAccount({\\n        ...\n      AND \t\t\tInstructionAccount({\\n        ...\n      DUP2 \t\t\tInstructionAccount({\\n        ...\n      MSTORE \t\t\tInstructionAccount({\\n        ...\n      PUSH 20\t\t\tInstructionAccount({\\n        ...\n      ADD \t\t\tInstructionAccount({\\n        ...\n      PUSH 1\t\t\t1\n      PUSH FFFFFFFF\t\t\tInstructionAccount({\\n        ...\n      AND \t\t\tInstructionAccount({\\n        ...\n      DUP2 \t\t\tInstructionAccount({\\n        ...\n      MSTORE \t\t\tInstructionAccount({\\n        ...\n      PUSH 20\t\t\tInstructionAccount({\\n        ...\n      ADD \t\t\tInstructionAccount({\\n        ...\n      PUSH 0\t\t\t0\n      PUSH FFFFFFFF\t\t\tInstructionAccount({\\n        ...\n      AND \t\t\tInstructionAccount({\\n        ...\n      DUP2 \t\t\tInstructionAccount({\\n        ...\n      MSTORE \t\t\tInstructionAccount({\\n        ...\n      PUSH 20\t\t\tInstructionAccount({\\n        ...\n      ADD \t\t\tInstructionAccount({\\n        ...\n      PUSH 0\t\t\tfalse\n      ISZERO \t\t\tInstructionAccount({\\n        ...\n      ISZERO \t\t\tInstructionAccount({\\n        ...\n      DUP2 \t\t\tInstructionAccount({\\n        ...\n      MSTORE \t\t\tInstructionAccount({\\n        ...\n      PUSH 20\t\t\tInstructionAccount({\\n        ...\n      ADD \t\t\tInstructionAccount({\\n        ...\n      PUSH 1\t\t\ttrue\n      ISZERO \t\t\tInstructionAccount({\\n        ...\n      ISZERO \t\t\tInstructionAccount({\\n        ...\n      DUP2 \t\t\tInstructionAccount({\\n        ...\n      MSTORE \t\t\tInstructionAccount({\\n        ...\n      POP \t\t\tInstructionAccount({\\n        ...\n      DUP2 \t\t\tinstruction\n      PUSH 20\t\t\tinstruction.accounts\n      ADD \t\t\tinstruction.accounts\n      MLOAD \t\t\tinstruction.accounts\n      PUSH 0\t\t\t0\n      DUP2 \t\t\tinstruction.accounts[0]\n      MLOAD \t\t\tinstruction.accounts[0]\n      DUP2 \t\t\tinstruction.accounts[0]\n      LT \t\t\tinstruction.accounts[0]\n      PUSH [tag] 117\t\t\tinstruction.accounts[0]\n      JUMPI \t\t\tinstruction.accounts[0]\n      PUSH [tag] 118\t\t\tinstruction.accounts[0]\n      PUSH [tag] 55\t\t\tinstruction.accounts[0]\n      JUMP \t\t\tinstruction.accounts[0]\n    tag 118\t\t\tinstruction.accounts[0]\n      JUMPDEST \t\t\tinstruction.accounts[0]\n    tag 117\t\t\tinstruction.accounts[0]\n      JUMPDEST \t\t\tinstruction.accounts[0]\n      PUSH 20\t\t\tinstruction.accounts[0]\n      MUL \t\t\tinstruction.accounts[0]\n      PUSH 20\t\t\tinstruction.accounts[0]\n      ADD \t\t\tinstruction.accounts[0]\n      ADD \t\t\tinstruction.accounts[0]\n      DUP2 \t\t\tinstruction.accounts[0] = Inst...\n      SWAP1 \t\t\tinstruction.accounts[0] = Inst...\n      MSTORE \t\t\tinstruction.accounts[0] = Inst...\n      POP \t\t\tinstruction.accounts[0] = Inst...\n      PUSH 40\t\t\tInstructionAccount({\\n        ...\n      MLOAD \t\t\tInstructionAccount({\\n        ...\n      DUP1 \t\t\tInstructionAccount({\\n        ...\n      PUSH A0\t\t\tInstructionAccount({\\n        ...\n      ADD \t\t\tInstructionAccount({\\n        ...\n      PUSH 40\t\t\tInstructionAccount({\\n        ...\n      MSTORE \t\t\tInstructionAccount({\\n        ...\n      DUP1 \t\t\tInstructionAccount({\\n        ...\n      PUSH 2\t\t\t2\n      PUSH FFFFFFFF\t\t\tInstructionAccount({\\n        ...\n      AND \t\t\tInstructionAccount({\\n        ...\n      DUP2 \t\t\tInstructionAccount({\\n        ...\n      MSTORE \t\t\tInstructionAccount({\\n        ...\n      PUSH 20\t\t\tInstructionAccount({\\n        ...\n      ADD \t\t\tInstructionAccount({\\n        ...\n      PUSH 2\t\t\t2\n      PUSH FFFFFFFF\t\t\tInstructionAccount({\\n        ...\n      AND \t\t\tInstructionAccount({\\n        ...\n      DUP2 \t\t\tInstructionAccount({\\n        ...\n      MSTORE \t\t\tInstructionAccount({\\n        ...\n      PUSH 20\t\t\tInstructionAccount({\\n        ...\n      ADD \t\t\tInstructionAccount({\\n        ...\n      PUSH 1\t\t\t1\n      PUSH FFFFFFFF\t\t\tInstructionAccount({\\n        ...\n      AND \t\t\tInstructionAccount({\\n        ...\n      DUP2 \t\t\tInstructionAccount({\\n        ...\n      MSTORE \t\t\tInstructionAccount({\\n        ...\n      PUSH 20\t\t\tInstructionAccount({\\n        ...\n      ADD \t\t\tInstructionAccount({\\n        ...\n      PUSH 1\t\t\ttrue\n      ISZERO \t\t\tInstructionAccount({\\n        ...\n      ISZERO \t\t\tInstructionAccount({\\n        ...\n      DUP2 \t\t\tInstructionAccount({\\n        ...\n      MSTORE \t\t\tInstructionAccount({\\n        ...\n      PUSH 20\t\t\tInstructionAccount({\\n        ...\n      ADD \t\t\tInstructionAccount({\\n        ...\n      PUSH 1\t\t\ttrue\n      ISZERO \t\t\tInstructionAccount({\\n        ...\n      ISZERO \t\t\tInstructionAccount({\\n        ...\n      DUP2 \t\t\tInstructionAccount({\\n        ...\n      MSTORE \t\t\tInstructionAccount({\\n        ...\n      POP \t\t\tInstructionAccount({\\n        ...\n      DUP2 \t\t\tinstruction\n      PUSH 20\t\t\tinstruction.accounts\n      ADD \t\t\tinstruction.accounts\n      MLOAD \t\t\tinstruction.accounts\n      PUSH 1\t\t\t1\n      DUP2 \t\t\tinstruction.accounts[1]\n      MLOAD \t\t\tinstruction.accounts[1]\n      DUP2 \t\t\tinstruction.accounts[1]\n      LT \t\t\tinstruction.accounts[1]\n      PUSH [tag] 119\t\t\tinstruction.accounts[1]\n      JUMPI \t\t\tinstruction.accounts[1]\n      PUSH [tag] 120\t\t\tinstruction.accounts[1]\n      PUSH [tag] 55\t\t\tinstruction.accounts[1]\n      JUMP \t\t\tinstruction.accounts[1]\n    tag 120\t\t\tinstruction.accounts[1]\n      JUMPDEST \t\t\tinstruction.accounts[1]\n    tag 119\t\t\tinstruction.accounts[1]\n      JUMPDEST \t\t\tinstruction.accounts[1]\n      PUSH 20\t\t\tinstruction.accounts[1]\n      MUL \t\t\tinstruction.accounts[1]\n      PUSH 20\t\t\tinstruction.accounts[1]\n      ADD \t\t\tinstruction.accounts[1]\n      ADD \t\t\tinstruction.accounts[1]\n      DUP2 \t\t\tinstruction.accounts[1] = Inst...\n      SWAP1 \t\t\tinstruction.accounts[1] = Inst...\n      MSTORE \t\t\tinstruction.accounts[1] = Inst...\n      POP \t\t\tinstruction.accounts[1] = Inst...\n      PUSH 40\t\t\tInstructionAccount({\\n        ...\n      MLOAD \t\t\tInstructionAccount({\\n        ...\n      DUP1 \t\t\tInstructionAccount({\\n        ...\n      PUSH A0\t\t\tInstructionAccount({\\n        ...\n      ADD \t\t\tInstructionAccount({\\n        ...\n      PUSH 40\t\t\tInstructionAccount({\\n        ...\n      MSTORE \t\t\tInstructionAccount({\\n        ...\n      DUP1 \t\t\tInstructionAccount({\\n        ...\n      PUSH 3\t\t\t3\n      PUSH FFFFFFFF\t\t\tInstructionAccount({\\n        ...\n      AND \t\t\tInstructionAccount({\\n        ...\n      DUP2 \t\t\tInstructionAccount({\\n        ...\n      MSTORE \t\t\tInstructionAccount({\\n        ...\n      PUSH 20\t\t\tInstructionAccount({\\n        ...\n      ADD \t\t\tInstructionAccount({\\n        ...\n      PUSH 3\t\t\t3\n      PUSH FFFFFFFF\t\t\tInstructionAccount({\\n        ...\n      AND \t\t\tInstructionAccount({\\n        ...\n      DUP2 \t\t\tInstructionAccount({\\n        ...\n      MSTORE \t\t\tInstructionAccount({\\n        ...\n      PUSH 20\t\t\tInstructionAccount({\\n        ...\n      ADD \t\t\tInstructionAccount({\\n        ...\n      PUSH 2\t\t\t2\n      PUSH FFFFFFFF\t\t\tInstructionAccount({\\n        ...\n      AND \t\t\tInstructionAccount({\\n        ...\n      DUP2 \t\t\tInstructionAccount({\\n        ...\n      MSTORE \t\t\tInstructionAccount({\\n        ...\n      PUSH 20\t\t\tInstructionAccount({\\n        ...\n      ADD \t\t\tInstructionAccount({\\n        ...\n      PUSH 0\t\t\tfalse\n      ISZERO \t\t\tInstructionAccount({\\n        ...\n      ISZERO \t\t\tInstructionAccount({\\n        ...\n      DUP2 \t\t\tInstructionAccount({\\n        ...\n      MSTORE \t\t\tInstructionAccount({\\n        ...\n      PUSH 20\t\t\tInstructionAccount({\\n        ...\n      ADD \t\t\tInstructionAccount({\\n        ...\n      PUSH 0\t\t\tfalse\n      ISZERO \t\t\tInstructionAccount({\\n        ...\n      ISZERO \t\t\tInstructionAccount({\\n        ...\n      DUP2 \t\t\tInstructionAccount({\\n        ...\n      MSTORE \t\t\tInstructionAccount({\\n        ...\n      POP \t\t\tInstructionAccount({\\n        ...\n      DUP2 \t\t\tinstruction\n      PUSH 20\t\t\tinstruction.accounts\n      ADD \t\t\tinstruction.accounts\n      MLOAD \t\t\tinstruction.accounts\n      PUSH 2\t\t\t2\n      DUP2 \t\t\tinstruction.accounts[2]\n      MLOAD \t\t\tinstruction.accounts[2]\n      DUP2 \t\t\tinstruction.accounts[2]\n      LT \t\t\tinstruction.accounts[2]\n      PUSH [tag] 121\t\t\tinstruction.accounts[2]\n      JUMPI \t\t\tinstruction.accounts[2]\n      PUSH [tag] 122\t\t\tinstruction.accounts[2]\n      PUSH [tag] 55\t\t\tinstruction.accounts[2]\n      JUMP \t\t\tinstruction.accounts[2]\n    tag 122\t\t\tinstruction.accounts[2]\n      JUMPDEST \t\t\tinstruction.accounts[2]\n    tag 121\t\t\tinstruction.accounts[2]\n      JUMPDEST \t\t\tinstruction.accounts[2]\n      PUSH 20\t\t\tinstruction.accounts[2]\n      MUL \t\t\tinstruction.accounts[2]\n      PUSH 20\t\t\tinstruction.accounts[2]\n      ADD \t\t\tinstruction.accounts[2]\n      ADD \t\t\tinstruction.accounts[2]\n      DUP2 \t\t\tinstruction.accounts[2] = Inst...\n      SWAP1 \t\t\tinstruction.accounts[2] = Inst...\n      MSTORE \t\t\tinstruction.accounts[2] = Inst...\n      POP \t\t\tinstruction.accounts[2] = Inst...\n      PUSH 0\t\t\tbytes memory discriminator\n      PUSH 40\t\t\tbytes memory discriminator = h...\n      MLOAD \t\t\tbytes memory discriminator = h...\n      DUP1 \t\t\tbytes memory discriminator = h...\n      PUSH 40\t\t\tbytes memory discriminator = h...\n      ADD \t\t\tbytes memory discriminator = h...\n      PUSH 40\t\t\tbytes memory discriminator = h...\n      MSTORE \t\t\tbytes memory discriminator = h...\n      DUP1 \t\t\tbytes memory discriminator = h...\n      PUSH 8\t\t\tbytes memory discriminator = h...\n      DUP2 \t\t\tbytes memory discriminator = h...\n      MSTORE \t\t\tbytes memory discriminator = h...\n      PUSH 20\t\t\tbytes memory discriminator = h...\n      ADD \t\t\tbytes memory discriminator = h...\n      PUSH DF725B88C54E9999000000000000000000000000000000000000000000000000\t\t\tbytes memory discriminator = h...\n      DUP2 \t\t\tbytes memory discriminator = h...\n      MSTORE \t\t\tbytes memory discriminator = h...\n      POP \t\t\tbytes memory discriminator = h...\n      SWAP1 \t\t\tbytes memory discriminator = h...\n      POP \t\t\tbytes memory discriminator = h...\n      PUSH 0\t\t\tbytes4 stringLen\n      PUSH [tag] 123\t\t\tgetStringLengthLE(_svmString)\n      DUP8 \t\t\t_svmString\n      PUSH [tag] 124\t\t\tgetStringLengthLE\n      JUMP \t\t\tgetStringLengthLE(_svmString)\n    tag 123\t\t\tgetStringLengthLE(_svmString)\n      JUMPDEST \t\t\tgetStringLengthLE(_svmString)\n      SWAP1 \t\t\tbytes4 stringLen = getStringLe...\n      POP \t\t\tbytes4 stringLen = getStringLe...\n      DUP2 \t\t\tdiscriminator\n      DUP2 \t\t\tstringLen\n      DUP9 \t\t\t_svmString\n      PUSH 40\t\t\tbytes.concat(discriminator, st...\n      MLOAD \t\t\tbytes.concat(discriminator, st...\n      PUSH 20\t\t\tbytes.concat(discriminator, st...\n      ADD \t\t\tbytes.concat(discriminator, st...\n      PUSH [tag] 125\t\t\tbytes.concat(discriminator, st...\n      SWAP4 \t\t\tbytes.concat(discriminator, st...\n      SWAP3 \t\t\tbytes.concat(discriminator, st...\n      SWAP2 \t\t\tbytes.concat(discriminator, st...\n      SWAP1 \t\t\tbytes.concat(discriminator, st...\n      PUSH [tag] 126\t\t\tbytes.concat(discriminator, st...\n      JUMP \t\t\tbytes.concat(discriminator, st...\n    tag 125\t\t\tbytes.concat(discriminator, st...\n      JUMPDEST \t\t\tbytes.concat(discriminator, st...\n      PUSH 40\t\t\tbytes.concat(discriminator, st...\n      MLOAD \t\t\tbytes.concat(discriminator, st...\n      PUSH 20\t\t\tbytes.concat(discriminator, st...\n      DUP2 \t\t\tbytes.concat(discriminator, st...\n      DUP4 \t\t\tbytes.concat(discriminator, st...\n      SUB \t\t\tbytes.concat(discriminator, st...\n      SUB \t\t\tbytes.concat(discriminator, st...\n      DUP2 \t\t\tbytes.concat(discriminator, st...\n      MSTORE \t\t\tbytes.concat(discriminator, st...\n      SWAP1 \t\t\tbytes.concat(discriminator, st...\n      PUSH 40\t\t\tbytes.concat(discriminator, st...\n      MSTORE \t\t\tbytes.concat(discriminator, st...\n      DUP4 \t\t\tinstruction\n      PUSH 40\t\t\tinstruction.data\n      ADD \t\t\tinstruction.data\n      DUP2 \t\t\tinstruction.data = bytes.conca...\n      SWAP1 \t\t\tinstruction.data = bytes.conca...\n      MSTORE \t\t\tinstruction.data = bytes.conca...\n      POP \t\t\tinstruction.data = bytes.conca...\n      PUSH 1\t\t\t1\n      PUSH FFFFFFFFFFFFFFFF\t\t\tnew Instruction[](1)\n      DUP2 \t\t\tnew Instruction[](1)\n      GT \t\t\tnew Instruction[](1)\n      ISZERO \t\t\tnew Instruction[](1)\n      PUSH [tag] 127\t\t\tnew Instruction[](1)\n      JUMPI \t\t\tnew Instruction[](1)\n      PUSH [tag] 128\t\t\tnew Instruction[](1)\n      PUSH [tag] 50\t\t\tnew Instruction[](1)\n      JUMP \t\t\tnew Instruction[](1)\n    tag 128\t\t\tnew Instruction[](1)\n      JUMPDEST \t\t\tnew Instruction[](1)\n    tag 127\t\t\tnew Instruction[](1)\n      JUMPDEST \t\t\tnew Instruction[](1)\n      PUSH 40\t\t\tnew Instruction[](1)\n      MLOAD \t\t\tnew Instruction[](1)\n      SWAP1 \t\t\tnew Instruction[](1)\n      DUP1 \t\t\tnew Instruction[](1)\n      DUP3 \t\t\tnew Instruction[](1)\n      MSTORE \t\t\tnew Instruction[](1)\n      DUP1 \t\t\tnew Instruction[](1)\n      PUSH 20\t\t\tnew Instruction[](1)\n      MUL \t\t\tnew Instruction[](1)\n      PUSH 20\t\t\tnew Instruction[](1)\n      ADD \t\t\tnew Instruction[](1)\n      DUP3 \t\t\tnew Instruction[](1)\n      ADD \t\t\tnew Instruction[](1)\n      PUSH 40\t\t\tnew Instruction[](1)\n      MSTORE \t\t\tnew Instruction[](1)\n      DUP1 \t\t\tnew Instruction[](1)\n      ISZERO \t\t\tnew Instruction[](1)\n      PUSH [tag] 129\t\t\tnew Instruction[](1)\n      JUMPI \t\t\tnew Instruction[](1)\n      DUP2 \t\t\tnew Instruction[](1)\n      PUSH 20\t\t\tnew Instruction[](1)\n      ADD \t\t\tnew Instruction[](1)\n    tag 130\t\t\tnew Instruction[](1)\n      JUMPDEST \t\t\tnew Instruction[](1)\n      PUSH [tag] 131\t\t\tnew Instruction[](1)\n      PUSH [tag] 59\t\t\tnew Instruction[](1)\n      JUMP \t\t\tnew Instruction[](1)\n    tag 131\t\t\tnew Instruction[](1)\n      JUMPDEST \t\t\tnew Instruction[](1)\n      DUP2 \t\t\tnew Instruction[](1)\n      MSTORE \t\t\tnew Instruction[](1)\n      PUSH 20\t\t\tnew Instruction[](1)\n      ADD \t\t\tnew Instruction[](1)\n      SWAP1 \t\t\tnew Instruction[](1)\n      PUSH 1\t\t\tnew Instruction[](1)\n      SWAP1 \t\t\tnew Instruction[](1)\n      SUB \t\t\tnew Instruction[](1)\n      SWAP1 \t\t\tnew Instruction[](1)\n      DUP2 \t\t\tnew Instruction[](1)\n      PUSH [tag] 130\t\t\tnew Instruction[](1)\n      JUMPI \t\t\tnew Instruction[](1)\n      SWAP1 \t\t\tnew Instruction[](1)\n      POP \t\t\tnew Instruction[](1)\n    tag 129\t\t\tnew Instruction[](1)\n      JUMPDEST \t\t\tnew Instruction[](1)\n      POP \t\t\tnew Instruction[](1)\n      DUP5 \t\t\ttransaction\n      PUSH 40\t\t\ttransaction.instructions\n      ADD \t\t\ttransaction.instructions\n      DUP2 \t\t\ttransaction.instructions = new...\n      SWAP1 \t\t\ttransaction.instructions = new...\n      MSTORE \t\t\ttransaction.instructions = new...\n      POP \t\t\ttransaction.instructions = new...\n      DUP3 \t\t\tinstruction\n      DUP5 \t\t\ttransaction\n      PUSH 40\t\t\ttransaction.instructions\n      ADD \t\t\ttransaction.instructions\n      MLOAD \t\t\ttransaction.instructions\n      PUSH 0\t\t\t0\n      DUP2 \t\t\ttransaction.instructions[0]\n      MLOAD \t\t\ttransaction.instructions[0]\n      DUP2 \t\t\ttransaction.instructions[0]\n      LT \t\t\ttransaction.instructions[0]\n      PUSH [tag] 132\t\t\ttransaction.instructions[0]\n      JUMPI \t\t\ttransaction.instructions[0]\n      PUSH [tag] 133\t\t\ttransaction.instructions[0]\n      PUSH [tag] 55\t\t\ttransaction.instructions[0]\n      JUMP \t\t\ttransaction.instructions[0]\n    tag 133\t\t\ttransaction.instructions[0]\n      JUMPDEST \t\t\ttransaction.instructions[0]\n    tag 132\t\t\ttransaction.instructions[0]\n      JUMPDEST \t\t\ttransaction.instructions[0]\n      PUSH 20\t\t\ttransaction.instructions[0]\n      MUL \t\t\ttransaction.instructions[0]\n      PUSH 20\t\t\ttransaction.instructions[0]\n      ADD \t\t\ttransaction.instructions[0]\n      ADD \t\t\ttransaction.instructions[0]\n      DUP2 \t\t\ttransaction.instructions[0] = ...\n      SWAP1 \t\t\ttransaction.instructions[0] = ...\n      MSTORE \t\t\ttransaction.instructions[0] = ...\n      POP \t\t\ttransaction.instructions[0] = ...\n      PUSH 0\t\t\tbool ok\n      DUP1 \t\t\tbytes memory r\n      DUP7 \t\t\tcrossVmContract\n      PUSH FFFFFFFFFFFFFFFFFFFFFFFFFFFFFFFFFFFFFFFF\t\t\tcrossVmContract.call\n      AND \t\t\tcrossVmContract.call\n      DUP7 \t\t\ttransaction\n      PUSH 40\t\t\tabi.encode(transaction)\n      MLOAD \t\t\tabi.encode(transaction)\n      PUSH 20\t\t\tabi.encode(transaction)\n      ADD \t\t\tabi.encode(transaction)\n      PUSH [tag] 134\t\t\tabi.encode(transaction)\n      SWAP2 \t\t\tabi.encode(transaction)\n      SWAP1 \t\t\tabi.encode(transaction)\n      PUSH [tag] 81\t\t\tabi.encode(transaction)\n      JUMP \t\t\tabi.encode(transaction)\n    tag 134\t\t\tabi.encode(transaction)\n      JUMPDEST \t\t\tabi.encode(transaction)\n      PUSH 40\t\t\tabi.encode(transaction)\n      MLOAD \t\t\tabi.encode(transaction)\n      PUSH 20\t\t\tabi.encode(transaction)\n      DUP2 \t\t\tabi.encode(transaction)\n      DUP4 \t\t\tabi.encode(transaction)\n      SUB \t\t\tabi.encode(transaction)\n      SUB \t\t\tabi.encode(transaction)\n      DUP2 \t\t\tabi.encode(transaction)\n      MSTORE \t\t\tabi.encode(transaction)\n      SWAP1 \t\t\tabi.encode(transaction)\n      PUSH 40\t\t\tabi.encode(transaction)\n      MSTORE \t\t\tabi.encode(transaction)\n      PUSH 40\t\t\tcrossVmContract.call(abi.encod...\n      MLOAD \t\t\tcrossVmContract.call(abi.encod...\n      PUSH [tag] 135\t\t\tcrossVmContract.call(abi.encod...\n      SWAP2 \t\t\tcrossVmContract.call(abi.encod...\n      SWAP1 \t\t\tcrossVmContract.call(abi.encod...\n      PUSH [tag] 83\t\t\tcrossVmContract.call(abi.encod...\n      JUMP \t\t\tcrossVmContract.call(abi.encod...\n    tag 135\t\t\tcrossVmContract.call(abi.encod...\n      JUMPDEST \t\t\tcrossVmContract.call(abi.encod...\n      PUSH 0\t\t\tcrossVmContract.call(abi.encod...\n      PUSH 40\t\t\tcrossVmContract.call(abi.encod...\n      MLOAD \t\t\tcrossVmContract.call(abi.encod...\n      DUP1 \t\t\tcrossVmContract.call(abi.encod...\n      DUP4 \t\t\tcrossVmContract.call(abi.encod...\n      SUB \t\t\tcrossVmContract.call(abi.encod...\n      DUP2 \t\t\tcrossVmContract.call(abi.encod...\n      PUSH 0\t\t\tcrossVmContract.call(abi.encod...\n      DUP7 \t\t\tcrossVmContract.call(abi.encod...\n      GAS \t\t\tcrossVmContract.call(abi.encod...\n      CALL \t\t\tcrossVmContract.call(abi.encod...\n      SWAP2 \t\t\tcrossVmContract.call(abi.encod...\n      POP \t\t\tcrossVmContract.call(abi.encod...\n      POP \t\t\tcrossVmContract.call(abi.encod...\n      RETURNDATASIZE \t\t\tcrossVmContract.call(abi.encod...\n      DUP1 \t\t\tcrossVmContract.call(abi.encod...\n      PUSH 0\t\t\tcrossVmContract.call(abi.encod...\n      DUP2 \t\t\tcrossVmContract.call(abi.encod...\n      EQ \t\t\tcrossVmContract.call(abi.encod...\n      PUSH [tag] 138\t\t\tcrossVmContract.call(abi.encod...\n      JUMPI \t\t\tcrossVmContract.call(abi.encod...\n      PUSH 40\t\t\tcrossVmContract.call(abi.encod...\n      MLOAD \t\t\tcrossVmContract.call(abi.encod...\n      SWAP2 \t\t\tcrossVmContract.call(abi.encod...\n      POP \t\t\tcrossVmContract.call(abi.encod...\n      PUSH 1F\t\t\tcrossVmContract.call(abi.encod...\n      NOT \t\t\tcrossVmContract.call(abi.encod...\n      PUSH 3F\t\t\tcrossVmContract.call(abi.encod...\n      RETURNDATASIZE \t\t\tcrossVmContract.call(abi.encod...\n      ADD \t\t\tcrossVmContract.call(abi.encod...\n      AND \t\t\tcrossVmContract.call(abi.encod...\n      DUP3 \t\t\tcrossVmContract.call(abi.encod...\n      ADD \t\t\tcrossVmContract.call(abi.encod...\n      PUSH 40\t\t\tcrossVmContract.call(abi.encod...\n      MSTORE \t\t\tcrossVmContract.call(abi.encod...\n      RETURNDATASIZE \t\t\tcrossVmContract.call(abi.encod...\n      DUP3 \t\t\tcrossVmContract.call(abi.encod...\n      MSTORE \t\t\tcrossVmContract.call(abi.encod...\n      RETURNDATASIZE \t\t\tcrossVmContract.call(abi.encod...\n      PUSH 0\t\t\tcrossVmContract.call(abi.encod...\n      PUSH 20\t\t\tcrossVmContract.call(abi.encod...\n      DUP5 \t\t\tcrossVmContract.call(abi.encod...\n      ADD \t\t\tcrossVmContract.call(abi.encod...\n      RETURNDATACOPY \t\t\tcrossVmContract.call(abi.encod...\n      PUSH [tag] 137\t\t\tcrossVmContract.call(abi.encod...\n      JUMP \t\t\tcrossVmContract.call(abi.encod...\n    tag 138\t\t\tcrossVmContract.call(abi.encod...\n      JUMPDEST \t\t\tcrossVmContract.call(abi.encod...\n      PUSH 60\t\t\tcrossVmContract.call(abi.encod...\n      SWAP2 \t\t\tcrossVmContract.call(abi.encod...\n      POP \t\t\tcrossVmContract.call(abi.encod...\n    tag 137\t\t\tcrossVmContract.call(abi.encod...\n      JUMPDEST \t\t\tcrossVmContract.call(abi.encod...\n      POP \t\t\tcrossVmContract.call(abi.encod...\n      SWAP2 \t\t\t(bool ok, bytes memory r) = cr...\n      POP \t\t\t(bool ok, bytes memory r) = cr...\n      SWAP2 \t\t\t(bool ok, bytes memory r) = cr...\n      POP \t\t\t(bool ok, bytes memory r) = cr...\n      DUP2 \t\t\tok\n      PUSH [tag] 139\t\t\trequire(ok, \"call must succeed...\n      JUMPI \t\t\trequire(ok, \"call must succeed...\n      PUSH 40\t\t\trequire(ok, \"call must succeed...\n      MLOAD \t\t\trequire(ok, \"call must succeed...\n      PUSH 8C379A000000000000000000000000000000000000000000000000000000000\t\t\trequire(ok, \"call must succeed...\n      DUP2 \t\t\trequire(ok, \"call must succeed...\n      MSTORE \t\t\trequire(ok, \"call must succeed...\n      PUSH 4\t\t\trequire(ok, \"call must succeed...\n      ADD \t\t\trequire(ok, \"call must succeed...\n      PUSH [tag] 140\t\t\trequire(ok, \"call must succeed...\n      SWAP1 \t\t\trequire(ok, \"call must succeed...\n      PUSH [tag] 89\t\t\trequire(ok, \"call must succeed...\n      JUMP \t\t\trequire(ok, \"call must succeed...\n    tag 140\t\t\trequire(ok, \"call must succeed...\n      JUMPDEST \t\t\trequire(ok, \"call must succeed...\n      PUSH 40\t\t\trequire(ok, \"call must succeed...\n      MLOAD \t\t\trequire(ok, \"call must succeed...\n      DUP1 \t\t\trequire(ok, \"call must succeed...\n      SWAP2 \t\t\trequire(ok, \"call must succeed...\n      SUB \t\t\trequire(ok, \"call must succeed...\n      SWAP1 \t\t\trequire(ok, \"call must succeed...\n      REVERT \t\t\trequire(ok, \"call must succeed...\n    tag 139\t\t\trequire(ok, \"call must succeed...\n      JUMPDEST \t\t\trequire(ok, \"call must succeed...\n      DUP1 \t\t\tr\n      SWAP8 \t\t\treturn r\n      POP \t\t\treturn r\n      POP \t\t\treturn r\n      POP \t\t\treturn r\n      POP \t\t\treturn r\n      POP \t\t\treturn r\n      POP \t\t\treturn r\n      POP \t\t\treturn r\n      POP \t\t\treturn r\n      SWAP3 \t\t\tfunction doSetSvm(string memor...\n      SWAP2 \t\t\tfunction doSetSvm(string memor...\n      POP \t\t\tfunction doSetSvm(string memor...\n      POP \t\t\tfunction doSetSvm(string memor...\n      JUMP \t\t\tfunction doSetSvm(string memor...\n    tag 91\t\t\tfunction parseSvmResponse(byte...\n      JUMPDEST \t\t\tfunction parseSvmResponse(byte...\n      PUSH 60\t\t\tstring memory\n      PUSH 0\t\t\tbytes memory res\n      PUSH 4\t\t\t4\n      DUP4 \t\t\tdata\n      MLOAD \t\t\tdata.length\n      PUSH [tag] 142\t\t\tdata.length - 4\n      SWAP2 \t\t\tdata.length - 4\n      SWAP1 \t\t\tdata.length - 4\n      PUSH [tag] 143\t\t\tdata.length - 4\n      JUMP \t\t\tdata.length - 4\n    tag 142\t\t\tdata.length - 4\n      JUMPDEST \t\t\tdata.length - 4\n      PUSH FFFFFFFFFFFFFFFF\t\t\tnew bytes(data.length - 4)\n      DUP2 \t\t\tnew bytes(data.length - 4)\n      GT \t\t\tnew bytes(data.length - 4)\n      ISZERO \t\t\tnew bytes(data.length - 4)\n      PUSH [tag] 144\t\t\tnew bytes(data.length - 4)\n      JUMPI \t\t\tnew bytes(data.length - 4)\n      PUSH [tag] 145\t\t\tnew bytes(data.length - 4)\n      PUSH [tag] 50\t\t\tnew bytes(data.length - 4)\n      JUMP \t\t\tnew bytes(data.length - 4)\n    tag 145\t\t\tnew bytes(data.length - 4)\n      JUMPDEST \t\t\tnew bytes(data.length - 4)\n    tag 144\t\t\tnew bytes(data.length - 4)\n      JUMPDEST \t\t\tnew bytes(data.length - 4)\n      PUSH 40\t\t\tnew bytes(data.length - 4)\n      MLOAD \t\t\tnew bytes(data.length - 4)\n      SWAP1 \t\t\tnew bytes(data.length - 4)\n      DUP1 \t\t\tnew bytes(data.length - 4)\n      DUP3 \t\t\tnew bytes(data.length - 4)\n      MSTORE \t\t\tnew bytes(data.length - 4)\n      DUP1 \t\t\tnew bytes(data.length - 4)\n      PUSH 1F\t\t\tnew bytes(data.length - 4)\n      ADD \t\t\tnew bytes(data.length - 4)\n      PUSH 1F\t\t\tnew bytes(data.length - 4)\n      NOT \t\t\tnew bytes(data.length - 4)\n      AND \t\t\tnew bytes(data.length - 4)\n      PUSH 20\t\t\tnew bytes(data.length - 4)\n      ADD \t\t\tnew bytes(data.length - 4)\n      DUP3 \t\t\tnew bytes(data.length - 4)\n      ADD \t\t\tnew bytes(data.length - 4)\n      PUSH 40\t\t\tnew bytes(data.length - 4)\n      MSTORE \t\t\tnew bytes(data.length - 4)\n      DUP1 \t\t\tnew bytes(data.length - 4)\n      ISZERO \t\t\tnew bytes(data.length - 4)\n      PUSH [tag] 146\t\t\tnew bytes(data.length - 4)\n      JUMPI \t\t\tnew bytes(data.length - 4)\n      DUP2 \t\t\tnew bytes(data.length - 4)\n      PUSH 20\t\t\tnew bytes(data.length - 4)\n      ADD \t\t\tnew bytes(data.length - 4)\n      PUSH 1\t\t\tnew bytes(data.length - 4)\n      DUP3 \t\t\tnew bytes(data.length - 4)\n      MUL \t\t\tnew bytes(data.length - 4)\n      DUP1 \t\t\tnew bytes(data.length - 4)\n      CALLDATASIZE \t\t\tnew bytes(data.length - 4)\n      DUP4 \t\t\tnew bytes(data.length - 4)\n      CALLDATACOPY \t\t\tnew bytes(data.length - 4)\n      DUP1 \t\t\tnew bytes(data.length - 4)\n      DUP3 \t\t\tnew bytes(data.length - 4)\n      ADD \t\t\tnew bytes(data.length - 4)\n      SWAP2 \t\t\tnew bytes(data.length - 4)\n      POP \t\t\tnew bytes(data.length - 4)\n      POP \t\t\tnew bytes(data.length - 4)\n      SWAP1 \t\t\tnew bytes(data.length - 4)\n      POP \t\t\tnew bytes(data.length - 4)\n    tag 146\t\t\tnew bytes(data.length - 4)\n      JUMPDEST \t\t\tnew bytes(data.length - 4)\n      POP \t\t\tnew bytes(data.length - 4)\n      SWAP1 \t\t\tbytes memory res = new bytes(d...\n      POP \t\t\tbytes memory res = new bytes(d...\n      PUSH 0\t\t\tuint256 i\n      PUSH 4\t\t\t4\n      SWAP1 \t\t\tuint256 i = 4\n      POP \t\t\tuint256 i = 4\n    tag 147\t\t\tfor(uint256 i = 4; i<data.leng...\n      JUMPDEST \t\t\tfor(uint256 i = 4; i<data.leng...\n      DUP4 \t\t\tdata\n      MLOAD \t\t\tdata.length\n      DUP2 \t\t\ti\n      LT \t\t\ti<data.length\n      ISZERO \t\t\tfor(uint256 i = 4; i<data.leng...\n      PUSH [tag] 148\t\t\tfor(uint256 i = 4; i<data.leng...\n      JUMPI \t\t\tfor(uint256 i = 4; i<data.leng...\n      DUP4 \t\t\tdata\n      DUP2 \t\t\ti\n      DUP2 \t\t\tdata[i]\n      MLOAD \t\t\tdata[i]\n      DUP2 \t\t\tdata[i]\n      LT \t\t\tdata[i]\n      PUSH [tag] 150\t\t\tdata[i]\n      JUMPI \t\t\tdata[i]\n      PUSH [tag] 151\t\t\tdata[i]\n      PUSH [tag] 55\t\t\tdata[i]\n      JUMP \t\t\tdata[i]\n    tag 151\t\t\tdata[i]\n      JUMPDEST \t\t\tdata[i]\n    tag 150\t\t\tdata[i]\n      JUMPDEST \t\t\tdata[i]\n      PUSH 20\t\t\tdata[i]\n      ADD \t\t\tdata[i]\n      ADD \t\t\tdata[i]\n      MLOAD \t\t\tdata[i]\n      PUSH F8\t\t\tdata[i]\n      SHR \t\t\tdata[i]\n      PUSH F8\t\t\tdata[i]\n      SHL \t\t\tdata[i]\n      DUP3 \t\t\tres\n      PUSH 4\t\t\t4\n      DUP4 \t\t\ti\n      PUSH [tag] 152\t\t\ti-4\n      SWAP2 \t\t\ti-4\n      SWAP1 \t\t\ti-4\n      PUSH [tag] 143\t\t\ti-4\n      JUMP \t\t\ti-4\n    tag 152\t\t\ti-4\n      JUMPDEST \t\t\ti-4\n      DUP2 \t\t\tres[i-4]\n      MLOAD \t\t\tres[i-4]\n      DUP2 \t\t\tres[i-4]\n      LT \t\t\tres[i-4]\n      PUSH [tag] 153\t\t\tres[i-4]\n      JUMPI \t\t\tres[i-4]\n      PUSH [tag] 154\t\t\tres[i-4]\n      PUSH [tag] 55\t\t\tres[i-4]\n      JUMP \t\t\tres[i-4]\n    tag 154\t\t\tres[i-4]\n      JUMPDEST \t\t\tres[i-4]\n    tag 153\t\t\tres[i-4]\n      JUMPDEST \t\t\tres[i-4]\n      PUSH 20\t\t\tres[i-4]\n      ADD \t\t\tres[i-4]\n      ADD \t\t\tres[i-4]\n      SWAP1 \t\t\tres[i-4] = data[i]\n      PUSH FFFFFFFFFFFFFFFFFFFFFFFFFFFFFFFFFFFFFFFFFFFFFFFFFFFFFFFFFFFFFF\t\t\tres[i-4] = data[i]\n      NOT \t\t\tres[i-4] = data[i]\n      AND \t\t\tres[i-4] = data[i]\n      SWAP1 \t\t\tres[i-4] = data[i]\n      DUP2 \t\t\tres[i-4] = data[i]\n      PUSH 0\t\t\tres[i-4] = data[i]\n      BYTE \t\t\tres[i-4] = data[i]\n      SWAP1 \t\t\tres[i-4] = data[i]\n      MSTORE8 \t\t\tres[i-4] = data[i]\n      POP \t\t\tres[i-4] = data[i]\n      DUP1 \t\t\ti++\n      DUP1 \t\t\ti++\n      PUSH 1\t\t\ti++\n      ADD \t\t\ti++\n      SWAP2 \t\t\ti++\n      POP \t\t\ti++\n      POP \t\t\ti++\n      PUSH [tag] 147\t\t\tfor(uint256 i = 4; i<data.leng...\n      JUMP \t\t\tfor(uint256 i = 4; i<data.leng...\n    tag 148\t\t\tfor(uint256 i = 4; i<data.leng...\n      JUMPDEST \t\t\tfor(uint256 i = 4; i<data.leng...\n      POP \t\t\tfor(uint256 i = 4; i<data.leng...\n      DUP1 \t\t\tres\n      SWAP2 \t\t\treturn string(res)\n      POP \t\t\treturn string(res)\n      POP \t\t\treturn string(res)\n      SWAP2 \t\t\tfunction parseSvmResponse(byte...\n      SWAP1 \t\t\tfunction parseSvmResponse(byte...\n      POP \t\t\tfunction parseSvmResponse(byte...\n      JUMP \t\t\tfunction parseSvmResponse(byte...\n    tag 124\t\t\tfunction getStringLengthLE(str...\n      JUMPDEST \t\t\tfunction getStringLengthLE(str...\n      PUSH 0\t\t\tbytes4\n      DUP1 \t\t\tuint256 len\n      DUP3 \t\t\tstr\n      MLOAD \t\t\tbytes(str).length\n      SWAP1 \t\t\tuint256 len = bytes(str).lengt...\n      POP \t\t\tuint256 len = bytes(str).lengt...\n      PUSH [tag] 156\t\t\ttoLittleEndian(len)\n      DUP2 \t\t\tlen\n      PUSH [tag] 157\t\t\ttoLittleEndian\n      JUMP \t\t\ttoLittleEndian(len)\n    tag 156\t\t\ttoLittleEndian(len)\n      JUMPDEST \t\t\ttoLittleEndian(len)\n      SWAP2 \t\t\treturn toLittleEndian(len)\n      POP \t\t\treturn toLittleEndian(len)\n      POP \t\t\treturn toLittleEndian(len)\n      SWAP2 \t\t\tfunction getStringLengthLE(str...\n      SWAP1 \t\t\tfunction getStringLengthLE(str...\n      POP \t\t\tfunction getStringLengthLE(str...\n      JUMP \t\t\tfunction getStringLengthLE(str...\n    tag 157\t\t\tfunction toLittleEndian(uint25...\n      JUMPDEST \t\t\tfunction toLittleEndian(uint25...\n      PUSH 0\t\t\tbytes4 result\n      DUP1 \t\t\tbytes32 last4\n      DUP3 \t\t\tvalue\n      PUSH 0\t\t\tbytes32(value)\n      SHL \t\t\tbytes32(value)\n      SWAP1 \t\t\tbytes32 last4 = bytes32(value)\n      POP \t\t\tbytes32 last4 = bytes32(value)\n      DUP1 \t\t\tlast4\n      PUSH 1C\t\t\t28\n      PUSH 20\t\t\tlast4[28]\n      DUP2 \t\t\tlast4[28]\n      LT \t\t\tlast4[28]\n      PUSH [tag] 159\t\t\tlast4[28]\n      JUMPI \t\t\tlast4[28]\n      PUSH [tag] 160\t\t\tlast4[28]\n      PUSH [tag] 55\t\t\tlast4[28]\n      JUMP \t\t\tlast4[28]\n    tag 160\t\t\tlast4[28]\n      JUMPDEST \t\t\tlast4[28]\n    tag 159\t\t\tlast4[28]\n      JUMPDEST \t\t\tlast4[28]\n      BYTE \t\t\tlast4[28]\n      PUSH F8\t\t\tlast4[28]\n      SHL \t\t\tlast4[28]\n      PUSH F8\t\t\tuint8(last4[28])\n      SHR \t\t\tuint8(last4[28])\n      PUSH FF\t\t\tuint32(uint8(last4[28]))\n      AND \t\t\tuint32(uint8(last4[28]))\n      PUSH 8\t\t\t8\n      DUP3 \t\t\tlast4\n      PUSH 1D\t\t\t29\n      PUSH 20\t\t\tlast4[29]\n      DUP2 \t\t\tlast4[29]\n      LT \t\t\tlast4[29]\n      PUSH [tag] 161\t\t\tlast4[29]\n      JUMPI \t\t\tlast4[29]\n      PUSH [tag] 162\t\t\tlast4[29]\n      PUSH [tag] 55\t\t\tlast4[29]\n      JUMP \t\t\tlast4[29]\n    tag 162\t\t\tlast4[29]\n      JUMPDEST \t\t\tlast4[29]\n    tag 161\t\t\tlast4[29]\n      JUMPDEST \t\t\tlast4[29]\n      BYTE \t\t\tlast4[29]\n      PUSH F8\t\t\tlast4[29]\n      SHL \t\t\tlast4[29]\n      PUSH F8\t\t\tuint8(last4[29])\n      SHR \t\t\tuint8(last4[29])\n      PUSH FF\t\t\tuint32(uint8(last4[29]))\n      AND \t\t\tuint32(uint8(last4[29]))\n      PUSH FFFFFFFF\t\t\tuint32(uint8(last4[29])) << 8\n      AND \t\t\tuint32(uint8(last4[29])) << 8\n      SWAP1 \t\t\tuint32(uint8(last4[29])) << 8\n      SHL \t\t\tuint32(uint8(last4[29])) << 8\n      PUSH 10\t\t\t16\n      DUP4 \t\t\tlast4\n      PUSH 1E\t\t\t30\n      PUSH 20\t\t\tlast4[30]\n      DUP2 \t\t\tlast4[30]\n      LT \t\t\tlast4[30]\n      PUSH [tag] 163\t\t\tlast4[30]\n      JUMPI \t\t\tlast4[30]\n      PUSH [tag] 164\t\t\tlast4[30]\n      PUSH [tag] 55\t\t\tlast4[30]\n      JUMP \t\t\tlast4[30]\n    tag 164\t\t\tlast4[30]\n      JUMPDEST \t\t\tlast4[30]\n    tag 163\t\t\tlast4[30]\n      JUMPDEST \t\t\tlast4[30]\n      BYTE \t\t\tlast4[30]\n      PUSH F8\t\t\tlast4[30]\n      SHL \t\t\tlast4[30]\n      PUSH F8\t\t\tuint8(last4[30])\n      SHR \t\t\tuint8(last4[30])\n      PUSH FF\t\t\tuint32(uint8(last4[30]))\n      AND \t\t\tuint32(uint8(last4[30]))\n      PUSH FFFFFFFF\t\t\tuint32(uint8(last4[30])) << 16\n      AND \t\t\tuint32(uint8(last4[30])) << 16\n      SWAP1 \t\t\tuint32(uint8(last4[30])) << 16\n      SHL \t\t\tuint32(uint8(last4[30])) << 16\n      PUSH 18\t\t\t24\n      DUP5 \t\t\tlast4\n      PUSH 1F\t\t\t31\n      PUSH 20\t\t\tlast4[31]\n      DUP2 \t\t\tlast4[31]\n      LT \t\t\tlast4[31]\n      PUSH [tag] 165\t\t\tlast4[31]\n      JUMPI \t\t\tlast4[31]\n      PUSH [tag] 166\t\t\tlast4[31]\n      PUSH [tag] 55\t\t\tlast4[31]\n      JUMP \t\t\tlast4[31]\n    tag 166\t\t\tlast4[31]\n      JUMPDEST \t\t\tlast4[31]\n    tag 165\t\t\tlast4[31]\n      JUMPDEST \t\t\tlast4[31]\n      BYTE \t\t\tlast4[31]\n      PUSH F8\t\t\tlast4[31]\n      SHL \t\t\tlast4[31]\n      PUSH F8\t\t\tuint8(last4[31])\n      SHR \t\t\tuint8(last4[31])\n      PUSH FF\t\t\tuint32(uint8(last4[31]))\n      AND \t\t\tuint32(uint8(last4[31]))\n      PUSH FFFFFFFF\t\t\tuint32(uint8(last4[31])) << 24\n      AND \t\t\tuint32(uint8(last4[31])) << 24\n      SWAP1 \t\t\tuint32(uint8(last4[31])) << 24\n      SHL \t\t\tuint32(uint8(last4[31])) << 24\n      OR \t\t\t(uint32(uint8(last4[31])) << 2...\n      OR \t\t\t(uint32(uint8(last4[31])) << 2...\n      OR \t\t\t(uint32(uint8(last4[31])) << 2...\n      PUSH E0\t\t\tbytes4(\\n            (uint32(u...\n      SHL \t\t\tbytes4(\\n            (uint32(u...\n      SWAP2 \t\t\treturn bytes4(\\n            (u...\n      POP \t\t\treturn bytes4(\\n            (u...\n      POP \t\t\treturn bytes4(\\n            (u...\n      SWAP2 \t\t\tfunction toLittleEndian(uint25...\n      SWAP1 \t\t\tfunction toLittleEndian(uint25...\n      POP \t\t\tfunction toLittleEndian(uint25...\n      JUMP \t\t\tfunction toLittleEndian(uint25...\n    tag 47\t\t\t\n      JUMPDEST \t\t\t\n      PUSH 40\t\t\t\n      MLOAD \t\t\t\n      DUP1 \t\t\t\n      PUSH 80\t\t\t\n      ADD \t\t\t\n      PUSH 40\t\t\t\n      MSTORE \t\t\t\n      DUP1 \t\t\t\n      PUSH 60\t\t\t\n      DUP2 \t\t\t\n      MSTORE \t\t\t\n      PUSH 20\t\t\t\n      ADD \t\t\t\n      PUSH 60\t\t\t\n      DUP2 \t\t\t\n      MSTORE \t\t\t\n      PUSH 20\t\t\t\n      ADD \t\t\t\n      PUSH 60\t\t\t\n      DUP2 \t\t\t\n      MSTORE \t\t\t\n      PUSH 20\t\t\t\n      ADD \t\t\t\n      PUSH 0\t\t\t\n      PUSH FFFFFFFFFFFFFFFF\t\t\t\n      AND \t\t\t\n      DUP2 \t\t\t\n      MSTORE \t\t\t\n      POP \t\t\t\n      SWAP1 \t\t\t\n      JUMP \t\t\t\n    tag 59\t\t\t\n      JUMPDEST \t\t\t\n      PUSH 40\t\t\t\n      MLOAD \t\t\t\n      DUP1 \t\t\t\n      PUSH 60\t\t\t\n      ADD \t\t\t\n      PUSH 40\t\t\t\n      MSTORE \t\t\t\n      DUP1 \t\t\t\n      PUSH 60\t\t\t\n      DUP2 \t\t\t\n      MSTORE \t\t\t\n      PUSH 20\t\t\t\n      ADD \t\t\t\n      PUSH 60\t\t\t\n      DUP2 \t\t\t\n      MSTORE \t\t\t\n      PUSH 20\t\t\t\n      ADD \t\t\t\n      PUSH 60\t\t\t\n      DUP2 \t\t\t\n      MSTORE \t\t\t\n      POP \t\t\t\n      SWAP1 \t\t\t\n      JUMP \t\t\t\n    tag 70\t\t\t\n      JUMPDEST \t\t\t\n      PUSH 40\t\t\t\n      MLOAD \t\t\t\n      DUP1 \t\t\t\n      PUSH A0\t\t\t\n      ADD \t\t\t\n      PUSH 40\t\t\t\n      MSTORE \t\t\t\n      DUP1 \t\t\t\n      PUSH 0\t\t\t\n      PUSH FFFFFFFF\t\t\t\n      AND \t\t\t\n      DUP2 \t\t\t\n      MSTORE \t\t\t\n      PUSH 20\t\t\t\n      ADD \t\t\t\n      PUSH 0\t\t\t\n      PUSH FFFFFFFF\t\t\t\n      AND \t\t\t\n      DUP2 \t\t\t\n      MSTORE \t\t\t\n      PUSH 20\t\t\t\n      ADD \t\t\t\n      PUSH 0\t\t\t\n      PUSH FFFFFFFF\t\t\t\n      AND \t\t\t\n      DUP2 \t\t\t\n      MSTORE \t\t\t\n      PUSH 20\t\t\t\n      ADD \t\t\t\n      PUSH 0\t\t\t\n      ISZERO \t\t\t\n      ISZERO \t\t\t\n      DUP2 \t\t\t\n      MSTORE \t\t\t\n      PUSH 20\t\t\t\n      ADD \t\t\t\n      PUSH 0\t\t\t\n      ISZERO \t\t\t\n      ISZERO \t\t\t\n      DUP2 \t\t\t\n      MSTORE \t\t\t\n      POP \t\t\t\n      SWAP1 \t\t\t\n      JUMP \t\t\t\n    tag 167\t\t\t-License-Identifier: GPL-3.0\\n...\n      JUMPDEST \t\t\t-License-Identifier: GPL-3.0\\n...\n      PUSH 0\t\t\tgma so\n      PUSH 40\t\t\ttr\n      MLOAD \t\t\t;\\n\\ncontra\n      SWAP1 \t\t\t7.0 <0.9.0;\\n\\ncontra\n      POP \t\t\t7.0 <0.9.0;\\n\\ncontra\n      SWAP1 \t\t\t-License-Identifier: GPL-3.0\\n...\n      JUMP \t\t\t-License-Identifier: GPL-3.0\\n...\n    tag 168\t\t\t {\\n    struct InstructionAcco...\n      JUMPDEST \t\t\t {\\n    struct InstructionAcco...\n      PUSH 0\t\t\t/\n      DUP1 \t\t\t \n      REVERT \t\t\t_index;   //\n    tag 169\t\t\tx\\n        uint32 callee_index...\n      JUMPDEST \t\t\tx\\n        uint32 callee_index...\n      PUSH 0\t\t\tw\n      DUP1 \t\t\ti\n      REVERT \t\t\t  bool is_wr\n    tag 170\t\t\t // is_writable\\n    }\\n\\n    ...\n      JUMPDEST \t\t\t // is_writable\\n    }\\n\\n    ...\n      PUSH 0\t\t\t \n      DUP1 \t\t\te\n      REVERT \t\t\tram_index;  \n    tag 171\t\t\t  InstructionAccount[] account...\n      JUMPDEST \t\t\t  InstructionAccount[] account...\n      PUSH 0\t\t\ta\n      DUP1 \t\t\tg\n      REVERT \t\t\truct MsgTran\n    tag 172\t\t\t      string[] signers;       ...\n      JUMPDEST \t\t\t      string[] signers;       ...\n      PUSH 0\t\t\trs (re\n      PUSH 1F\t\t\t  \n      NOT \t\t\t       \n      PUSH 1F\t\t\tun\n      DUP4 \t\t\t[] ac\n      ADD \t\t\tring[] account\n      AND \t\t\t  string[] accounts;        \n      SWAP1 \t\t\tng)\\n        string[] accounts...\n      POP \t\t\tng)\\n        string[] accounts...\n      SWAP2 \t\t\t      string[] signers;       ...\n      SWAP1 \t\t\t      string[] signers;       ...\n      POP \t\t\t      string[] signers;       ...\n      JUMP \t\t\t      string[] signers;       ...\n    tag 50\t\t\t (repeated string)\\n        In...\n      JUMPDEST \t\t\t (repeated string)\\n        In...\n      PUSH 4E487B7100000000000000000000000000000000000000000000000000000000\t\t\ttions; // instructions (repeat...\n      PUSH 0\t\t\tr\n      MSTORE \t\t\t[] instructions; // instructio...\n      PUSH 41\t\t\tet (\n      PUSH 4\t\t\tu\n      MSTORE \t\t\tmpute_budget (u\n      PUSH 24\t\t\ttrin\n      PUSH 0\t\t\t \n      REVERT \t\t\t  }\\n\\n    string\n    tag 173\t\t\ttring;\\n\\n    function setData...\n      JUMPDEST \t\t\ttring;\\n\\n    function setData...\n      PUSH [tag] 257\t\t\t _evmString;\\n    }\\n\\n    fun\n      DUP3 \t\t\t  fu\n      PUSH [tag] 172\t\t\t _evmString;\\n    }\\n\\n    fun\n      JUMP \t\t\t _evmString;\\n    }\\n\\n    fun\n    tag 257\t\t\t _evmString;\\n    }\\n\\n    fun\n      JUMPDEST \t\t\t _evmString;\\n    }\\n\\n    fun\n      DUP2 \t\t\tString\n      ADD \t\t\t evmString = _evmString;\\n    ...\n      DUP2 \t\t\tporari\n      DUP2 \t\t\t// TODO: T\n      LT \t\t\t   // TODO: Temporaril\n      PUSH FFFFFFFFFFFFFFFF\t\t\tn evmString;\\n    }\n      DUP3 \t\t\t       ret\n      GT \t\t\t{\\n        return evmString;\\n...\n      OR \t\t\ty) {\\n        return evmString...\n      ISZERO \t\t\tmory) {\\n        return evmStr...\n      PUSH [tag] 258\t\t\tmory) {\\n        return evmStr...\n      JUMPI \t\t\tmory) {\\n        return evmStr...\n      PUSH [tag] 259\t\t\tave the svm fee pa\n      PUSH [tag] 50\t\t\tave the svm fee pa\n      JUMP \t\t\tave the svm fee pa\n    tag 259\t\t\tave the svm fee pa\n      JUMPDEST \t\t\tave the svm fee pa\n    tag 258\t\t\tmory) {\\n        return evmStr...\n      JUMPDEST \t\t\tmory) {\\n        return evmStr...\n      DUP1 \t\t\tt contract\n      PUSH 40\t\t\td \n      MSTORE \t\t\te should let contract \n      POP \t\t\t_evmString) public {\\n        ...\n      POP \t\t\ttring;\\n\\n    function setData...\n      POP \t\t\ttring;\\n\\n    function setData...\n      JUMP \t\t\ttring;\\n\\n    function setData...\n    tag 174\t\t\ter\\n    function doSetSvm(stri...\n      JUMPDEST \t\t\ter\\n    function doSetSvm(stri...\n      PUSH 0\t\t\tmory s\n      PUSH [tag] 261\t\t\tmory _svmString) int\n      PUSH [tag] 167\t\t\tmory _svmString) int\n      JUMP \t\t\tmory _svmString) int\n    tag 261\t\t\tmory _svmString) int\n      JUMPDEST \t\t\tmory _svmString) int\n      SWAP1 \t\t\t string memory _svmString) int\n      POP \t\t\t string memory _svmString) int\n      PUSH [tag] 262\t\t\turns (bytes memory result) {\\n...\n      DUP3 \t\t\t\\n   \n      DUP3 \t\t\tesult)\n      PUSH [tag] 173\t\t\turns (bytes memory result) {\\n...\n      JUMP \t\t\turns (bytes memory result) {\\n...\n    tag 262\t\t\turns (bytes memory result) {\\n...\n      JUMPDEST \t\t\turns (bytes memory result) {\\n...\n      SWAP2 \t\t\ter\\n    function doSetSvm(stri...\n      SWAP1 \t\t\ter\\n    function doSetSvm(stri...\n      POP \t\t\ter\\n    function doSetSvm(stri...\n      JUMP \t\t\ter\\n    function doSetSvm(stri...\n    tag 175\t\t\tcrossVmContract = address(0x75...\n      JUMPDEST \t\t\tcrossVmContract = address(0x75...\n      PUSH 0\t\t\t1230\n      PUSH FFFFFFFFFFFFFFFF\t\t\tring[](4);\\n       \n      DUP3 \t\t\t= new \n      GT \t\t\tts = new string[](4);\\n       ...\n      ISZERO \t\t\tounts = new string[](4);\\n    ...\n      PUSH [tag] 264\t\t\tounts = new string[](4);\\n    ...\n      JUMPI \t\t\tounts = new string[](4);\\n    ...\n      PUSH [tag] 265\t\t\tnsaction.accounts[\n      PUSH [tag] 50\t\t\tnsaction.accounts[\n      JUMP \t\t\tnsaction.accounts[\n    tag 265\t\t\tnsaction.accounts[\n      JUMPDEST \t\t\tnsaction.accounts[\n    tag 264\t\t\tounts = new string[](4);\\n    ...\n      JUMPDEST \t\t\tounts = new string[](4);\\n    ...\n      PUSH [tag] 266\t\t\tBnnp6EQPxapcpjpxdjAKpLavqtSJ3\n      DUP3 \t\t\tavqtSJ\n      PUSH [tag] 172\t\t\tBnnp6EQPxapcpjpxdjAKpLavqtSJ3\n      JUMP \t\t\tBnnp6EQPxapcpjpxdjAKpLavqtSJ3\n    tag 266\t\t\tBnnp6EQPxapcpjpxdjAKpLavqtSJ3\n      JUMPDEST \t\t\tBnnp6EQPxapcpjpxdjAKpLavqtSJ3\n      SWAP1 \t\t\tacFrGq5eBnnp6EQPxapcpjpxdjAKpL...\n      POP \t\t\tacFrGq5eBnnp6EQPxapcpjpxdjAKpL...\n      PUSH 20\t\t\tLERt\n      DUP2 \t\t\tULBy\n      ADD \t\t\tDeW4ULByQKLERtH\n      SWAP1 \t\t\t \"22z6H6DeW4ULByQKLERtH\n      POP \t\t\t \"22z6H6DeW4ULByQKLERtH\n      SWAP2 \t\t\tcrossVmContract = address(0x75...\n      SWAP1 \t\t\tcrossVmContract = address(0x75...\n      POP \t\t\tcrossVmContract = address(0x75...\n      JUMP \t\t\tcrossVmContract = address(0x75...\n    tag 176\t\t\t3NuLSAf2db\";\\n        transact...\n      JUMPDEST \t\t\t3NuLSAf2db\";\\n        transact...\n      DUP3 \t\t\t111111\n      DUP2 \t\t\t \"1\n      DUP4 \t\t\t[3]\n      CALLDATACOPY \t\t\ttion.accounts[3] = \"1111111111\n      PUSH 0\t\t\tr\n      DUP4 \t\t\t      \n      DUP4 \t\t\t11\"\n      ADD \t\t\t111111\";\\n       \n      MSTORE \t\t\t1111111111111\";\\n        tra\n      POP \t\t\t3NuLSAf2db\";\\n        transact...\n      POP \t\t\t3NuLSAf2db\";\\n        transact...\n      POP \t\t\t3NuLSAf2db\";\\n        transact...\n      JUMP \t\t\t3NuLSAf2db\";\\n        transact...\n    tag 177\t\t\tute_budget = 1000000;\\n\\n     ...\n      JUMPDEST \t\t\tute_budget = 1000000;\\n\\n     ...\n      PUSH 0\t\t\t inst\n      PUSH [tag] 269\t\t\ttruction.program_index = new u...\n      PUSH [tag] 270\t\t\t_index = new uint32[](1);\\n   ...\n      DUP5 \t\t\tion.pr\n      PUSH [tag] 175\t\t\t_index = new uint32[](1);\\n   ...\n      JUMP \t\t\t_index = new uint32[](1);\\n   ...\n    tag 270\t\t\t_index = new uint32[](1);\\n   ...\n      JUMPDEST \t\t\t_index = new uint32[](1);\\n   ...\n      PUSH [tag] 174\t\t\ttruction.program_index = new u...\n      JUMP \t\t\ttruction.program_index = new u...\n    tag 269\t\t\ttruction.program_index = new u...\n      JUMPDEST \t\t\ttruction.program_index = new u...\n      SWAP1 \t\t\t      instruction.program_inde...\n      POP \t\t\t      instruction.program_inde...\n      DUP3 \t\t\t   ins\n      DUP2 \t\t\t;\\n   \n      MSTORE \t\t\t[0] = 0;\\n        inst\n      PUSH 20\t\t\tionA\n      DUP2 \t\t\tnstru\n      ADD \t\t\tew InstructionAc\n      DUP5 \t\t\tcco\n      DUP5 \t\t\tructio\n      DUP5 \t\t\t in\n      ADD \t\t\t     instruction\n      GT \t\t\t        instruction.accou\n      ISZERO \t\t\t);\\n        instruction.accoun...\n      PUSH [tag] 271\t\t\t);\\n        instruction.accoun...\n      JUMPI \t\t\t);\\n        instruction.accoun...\n      PUSH [tag] 272\t\t\t[0] = InstructionAccount({\\n  ...\n      PUSH [tag] 171\t\t\t[0] = InstructionAccount({\\n  ...\n      JUMP \t\t\t[0] = InstructionAccount({\\n  ...\n    tag 272\t\t\t[0] = InstructionAccount({\\n  ...\n      JUMPDEST \t\t\t[0] = InstructionAccount({\\n  ...\n    tag 271\t\t\t);\\n        instruction.accoun...\n      JUMPDEST \t\t\t);\\n        instruction.accoun...\n      PUSH [tag] 273\t\t\t   callee_index: 0,\\n         ...\n      DUP5 \t\t\te,\\n   \n      DUP3 \t\t\t fa\n      DUP6 \t\t\tgne\n      PUSH [tag] 176\t\t\t   callee_index: 0,\\n         ...\n      JUMP \t\t\t   callee_index: 0,\\n         ...\n    tag 273\t\t\t   callee_index: 0,\\n         ...\n      JUMPDEST \t\t\t   callee_index: 0,\\n         ...\n      POP \t\t\tuction;\\n        instruction.p...\n      SWAP4 \t\t\tute_budget = 1000000;\\n\\n     ...\n      SWAP3 \t\t\tute_budget = 1000000;\\n\\n     ...\n      POP \t\t\tute_budget = 1000000;\\n\\n     ...\n      POP \t\t\tute_budget = 1000000;\\n\\n     ...\n      POP \t\t\tute_budget = 1000000;\\n\\n     ...\n      JUMP \t\t\tute_budget = 1000000;\\n\\n     ...\n    tag 178\t\t\t        });\\n        instructi...\n      JUMPDEST \t\t\t        });\\n        instructi...\n      PUSH 0\t\t\tnAcco\n      DUP3 \t\t\tall\n      PUSH 1F\t\t\t    \n      DUP4 \t\t\t,\\n    \n      ADD \t\t\tx: 2,\\n           \n      SLT \t\t\tindex: 2,\\n            calle\n      PUSH [tag] 275\t\t\t       id_index: 2,\\n         ...\n      JUMPI \t\t\t       id_index: 2,\\n         ...\n      PUSH [tag] 276\t\t\tdex: 2,\\n            callee_in...\n      PUSH [tag] 170\t\t\tdex: 2,\\n            callee_in...\n      JUMP \t\t\tdex: 2,\\n            callee_in...\n    tag 276\t\t\tdex: 2,\\n            callee_in...\n      JUMPDEST \t\t\tdex: 2,\\n            callee_in...\n    tag 275\t\t\t       id_index: 2,\\n         ...\n      JUMPDEST \t\t\t       id_index: 2,\\n         ...\n      DUP2 \t\t\tnstruc\n      CALLDATALOAD \t\t\t});\\n        instruct\n      PUSH [tag] 277\t\t\tInstructionAccount({\\n        ...\n      DUP5 \t\t\t   \n      DUP3 \t\t\tdex: 3\n      PUSH 20\t\t\tller\n      DUP7 \t\t\t      \n      ADD \t\t\t          caller_\n      PUSH [tag] 177\t\t\tInstructionAccount({\\n        ...\n      JUMP \t\t\tInstructionAccount({\\n        ...\n    tag 277\t\t\tInstructionAccount({\\n        ...\n      JUMPDEST \t\t\tInstructionAccount({\\n        ...\n      SWAP2 \t\t\tnts[2] = InstructionAccount({\\...\n      POP \t\t\tnts[2] = InstructionAccount({\\...\n      POP \t\t\tnt({\\n            id_index: 2,...\n      SWAP3 \t\t\t        });\\n        instructi...\n      SWAP2 \t\t\t        });\\n        instructi...\n      POP \t\t\t        });\\n        instructi...\n      POP \t\t\t        });\\n        instructi...\n      JUMP \t\t\t        });\\n        instructi...\n    tag 9\t\t\tee_index: 2,\\n            is_s...\n      JUMPDEST \t\t\tee_index: 2,\\n            is_s...\n      PUSH 0\t\t\talse\\n \n      PUSH 20\t\t\tor\n      DUP3 \t\t\t discrimi\n      DUP5 \t\t\tes memo\n      SUB \t\t\t bytes memory discrimin\n      SLT \t\t\t     bytes memory discriminato...\n      ISZERO \t\t\t        bytes memory discrimin...\n      PUSH [tag] 279\t\t\t        bytes memory discrimin...\n      JUMPI \t\t\t        bytes memory discrimin...\n      PUSH [tag] 280\t\t\tex\"df725b88c54e9999\";\\n       ...\n      PUSH [tag] 168\t\t\tex\"df725b88c54e9999\";\\n       ...\n      JUMP \t\t\tex\"df725b88c54e9999\";\\n       ...\n    tag 280\t\t\tex\"df725b88c54e9999\";\\n       ...\n      JUMPDEST \t\t\tex\"df725b88c54e9999\";\\n       ...\n    tag 279\t\t\t        bytes memory discrimin...\n      JUMPDEST \t\t\t        bytes memory discrimin...\n      PUSH 0\t\t\tt\n      DUP3 \t\t\tringLen, \n      ADD \t\t\t, stringLen, byte\n      CALLDATALOAD \t\t\tdiscriminator, stringLen, byte...\n      PUSH FFFFFFFFFFFFFFFF\t\t\tsaction.instructio\n      DUP2 \t\t\t    tr\n      GT \t\t\t       transaction.instruction\n      ISZERO \t\t\t;\\n        transaction.instruc...\n      PUSH [tag] 281\t\t\t;\\n        transaction.instruc...\n      JUMPI \t\t\t;\\n        transaction.instruc...\n      PUSH [tag] 282\t\t\t new Instruction[](1);\\n      ...\n      PUSH [tag] 169\t\t\t new Instruction[](1);\\n      ...\n      JUMP \t\t\t new Instruction[](1);\\n      ...\n    tag 282\t\t\t new Instruction[](1);\\n      ...\n      JUMPDEST \t\t\t new Instruction[](1);\\n      ...\n    tag 281\t\t\t;\\n        transaction.instruc...\n      JUMPDEST \t\t\t;\\n        transaction.instruc...\n      PUSH [tag] 283\t\t\t r) = crossVmContract.call(abi...\n      DUP5 \t\t\t      r\n      DUP3 \t\t\tion));\n      DUP6 \t\t\tde(transa\n      ADD \t\t\tencode(transaction));\\n\n      PUSH [tag] 178\t\t\t r) = crossVmContract.call(abi...\n      JUMP \t\t\t r) = crossVmContract.call(abi...\n    tag 283\t\t\t r) = crossVmContract.call(abi...\n      JUMPDEST \t\t\t r) = crossVmContract.call(abi...\n      SWAP2 \t\t\ttes memory r) = crossVmContrac...\n      POP \t\t\ttes memory r) = crossVmContrac...\n      POP \t\t\ttruction.data = bytes.concat(d...\n      SWAP3 \t\t\tee_index: 2,\\n            is_s...\n      SWAP2 \t\t\tee_index: 2,\\n            is_s...\n      POP \t\t\tee_index: 2,\\n            is_s...\n      POP \t\t\tee_index: 2,\\n            is_s...\n      JUMP \t\t\tee_index: 2,\\n            is_s...\n    tag 179\t\t\tcceed\");\\n        return r;\\n ...\n      JUMPDEST \t\t\tcceed\");\\n        return r;\\n ...\n      PUSH 0\t\t\tvm(str\n      DUP2 \t\t\tic re\n      MLOAD \t\t\t) public ret\n      SWAP1 \t\t\tvmFeePayer) public ret\n      POP \t\t\tvmFeePayer) public ret\n      SWAP2 \t\t\tcceed\");\\n        return r;\\n ...\n      SWAP1 \t\t\tcceed\");\\n        return r;\\n ...\n      POP \t\t\tcceed\");\\n        return r;\\n ...\n      JUMP \t\t\tcceed\");\\n        return r;\\n ...\n    tag 180\t\t\temory result) {\\n        if (k...\n      JUMPDEST \t\t\temory result) {\\n        if (k...\n      PUSH 0\t\t\t       retu\n      DUP3 \t\t\t, \"evm\n      DUP3 \t\t\tPay\n      MSTORE \t\t\t(svmFeePayer, \"evm\"\n      PUSH 20\t\t\ttSvm\n      DUP3 \t\t\t do\n      ADD \t\t\tturn doSetSvm(\n      SWAP1 \t\t\t  } \\n        return doSetSvm(\n      POP \t\t\t  } \\n        return doSetSvm(\n      SWAP3 \t\t\temory result) {\\n        if (k...\n      SWAP2 \t\t\temory result) {\\n        if (k...\n      POP \t\t\temory result) {\\n        if (k...\n      POP \t\t\temory result) {\\n        if (k...\n      JUMP \t\t\temory result) {\\n        if (k...\n    tag 181\t\t\t \"svm\");\\n    }\\n\\n    // subs...\n      JUMPDEST \t\t\t \"svm\");\\n    }\\n\\n    // subs...\n      DUP3 \t\t\te for \n      DUP2 \t\t\ty, \n      DUP4 \t\t\tlid\n      MCOPY \t\t\t by solidity, use for l\n      PUSH 0\t\t\tr\n      DUP4 \t\t\tnction\n      DUP4 \t\t\t   \n      ADD \t\t\tow\\n    function \n      MSTORE \t\t\tample now\\n    function pars\n      POP \t\t\t \"svm\");\\n    }\\n\\n    // subs...\n      POP \t\t\t \"svm\");\\n    }\\n\\n    // subs...\n      POP \t\t\t \"svm\");\\n    }\\n\\n    // subs...\n      JUMP \t\t\t \"svm\");\\n    }\\n\\n    // subs...\n    tag 182\t\t\tbytes memory data) internal pu...\n      JUMPDEST \t\t\tbytes memory data) internal pu...\n      PUSH 0\t\t\tnew\n      PUSH [tag] 288\t\t\t        for(uint256 i = 4; i<d...\n      DUP3 \t\t\ta.len\n      PUSH [tag] 179\t\t\t        for(uint256 i = 4; i<d...\n      JUMP \t\t\t        for(uint256 i = 4; i<d...\n    tag 288\t\t\t        for(uint256 i = 4; i<d...\n      JUMPDEST \t\t\t        for(uint256 i = 4; i<d...\n      PUSH [tag] 289\t\t\t       res[i-4] = data[i];\\n  ...\n      DUP2 \t\t\t);\\n   \n      DUP6 \t\t\tg(r\n      PUSH [tag] 180\t\t\t       res[i-4] = data[i];\\n  ...\n      JUMP \t\t\t       res[i-4] = data[i];\\n  ...\n    tag 289\t\t\t       res[i-4] = data[i];\\n  ...\n      JUMPDEST \t\t\t       res[i-4] = data[i];\\n  ...\n      SWAP4 \t\t\t{\\n            res[i-4] = data...\n      POP \t\t\t{\\n            res[i-4] = data...\n      PUSH [tag] 290\t\t\tnction getSvm() internal view ...\n      DUP2 \t\t\t      \n      DUP6 \t\t\t {\\n\n      PUSH 20\t\t\tmemo\n      DUP7 \t\t\tstrin\n      ADD \t\t\tns (string memor\n      PUSH [tag] 181\t\t\tnction getSvm() internal view ...\n      JUMP \t\t\tnction getSvm() internal view ...\n    tag 290\t\t\tnction getSvm() internal view ...\n      JUMPDEST \t\t\tnction getSvm() internal view ...\n      PUSH [tag] 291\t\t\taddress(0x75a96B46758F367b9A4\n      DUP2 \t\t\t367b9A\n      PUSH [tag] 172\t\t\taddress(0x75a96B46758F367b9A4\n      JUMP \t\t\taddress(0x75a96B46758F367b9A4\n    tag 291\t\t\taddress(0x75a96B46758F367b9A4\n      JUMPDEST \t\t\taddress(0x75a96B46758F367b9A4\n      DUP5 \t\t\tct \n      ADD \t\t\tntract = address(0x75a96B46758...\n      SWAP2 \t\t\tossVmContract = address(0x75a9...\n      POP \t\t\tossVmContract = address(0x75a9...\n      POP \t\t\tbytes(data.length - 4);\\n     ...\n      SWAP3 \t\t\tbytes memory data) internal pu...\n      SWAP2 \t\t\tbytes memory data) internal pu...\n      POP \t\t\tbytes memory data) internal pu...\n      POP \t\t\tbytes memory data) internal pu...\n      JUMP \t\t\tbytes memory data) internal pu...\n    tag 12\t\t\tBE123057);\\n        MsgTransac...\n      JUMPDEST \t\t\tBE123057);\\n        MsgTransac...\n      PUSH 0\t\t\trans\n      PUSH 20\t\t\t5e\n      DUP3 \t\t\t3zfZYacFr\n      ADD \t\t\t= \"83zfZYacFrGq5eB\n      SWAP1 \t\t\tunts[0] = \"83zfZYacFrGq5eB\n      POP \t\t\tunts[0] = \"83zfZYacFrGq5eB\n      DUP2 \t\t\tction.acc\n      DUP2 \t\t\ttran\n      SUB \t\t\t    transaction.acco\n      PUSH 0\t\t\t \n      DUP4 \t\t\tavqtSJ32\"\n      ADD \t\t\tAKpLavqtSJ32\";\\n  \n      MSTORE \t\t\tcpjpxdjAKpLavqtSJ32\";\\n       ...\n      PUSH [tag] 293\t\t\teW4ULByQKLERtHjSoDeFiuCii8v3Nu...\n      DUP2 \t\t\tget \n      DUP5 \t\t\tmpute_\n      PUSH [tag] 182\t\t\teW4ULByQKLERtHjSoDeFiuCii8v3Nu...\n      JUMP \t\t\teW4ULByQKLERtHjSoDeFiuCii8v3Nu...\n    tag 293\t\t\teW4ULByQKLERtHjSoDeFiuCii8v3Nu...\n      JUMPDEST \t\t\teW4ULByQKLERtHjSoDeFiuCii8v3Nu...\n      SWAP1 \t\t\t\"22z6H6DeW4ULByQKLERtHjSoDeFiu...\n      POP \t\t\t\"22z6H6DeW4ULByQKLERtHjSoDeFiu...\n      SWAP3 \t\t\tBE123057);\\n        MsgTransac...\n      SWAP2 \t\t\tBE123057);\\n        MsgTransac...\n      POP \t\t\tBE123057);\\n        MsgTransac...\n      POP \t\t\tBE123057);\\n        MsgTransac...\n      JUMP \t\t\tBE123057);\\n        MsgTransac...\n    tag 183\t\t\t      Instruction memory instr...\n      JUMPDEST \t\t\t      Instruction memory instr...\n      PUSH 0\t\t\tction.\n      DUP2 \t\t\t(1);\\n\n      MLOAD \t\t\tnt32[](1);\\n \n      SWAP1 \t\t\tx = new uint32[](1);\\n \n      POP \t\t\tx = new uint32[](1);\\n \n      SWAP2 \t\t\t      Instruction memory instr...\n      SWAP1 \t\t\t      Instruction memory instr...\n      POP \t\t\t      Instruction memory instr...\n      JUMP \t\t\t      Instruction memory instr...\n    tag 184\t\t\tction.program_index[0] = 0;\\n ...\n      JUMPDEST \t\t\tction.program_index[0] = 0;\\n ...\n      PUSH 0\t\t\t1);\\n       \n      DUP3 \t\t\t] = In\n      DUP3 \t\t\tnts\n      MSTORE \t\t\tn.accounts[0] = Ins\n      PUSH 20\t\t\tinde\n      DUP3 \t\t\t  i\n      ADD \t\t\t      id_index\n      SWAP1 \t\t\tccount({\\n            id_index\n      POP \t\t\tccount({\\n            id_index\n      SWAP3 \t\t\tction.program_index[0] = 0;\\n ...\n      SWAP2 \t\t\tction.program_index[0] = 0;\\n ...\n      POP \t\t\tction.program_index[0] = 0;\\n ...\n      POP \t\t\tction.program_index[0] = 0;\\n ...\n      JUMP \t\t\tction.program_index[0] = 0;\\n ...\n    tag 185\t\t\t     caller_index: 1,\\n       ...\n      JUMPDEST \t\t\t     caller_index: 1,\\n       ...\n      PUSH 0\t\t\t   \n      PUSH [tag] 297\t\t\t    });\\n        bytes memory ...\n      DUP3 \t\t\trimin\n      PUSH [tag] 183\t\t\t    });\\n        bytes memory ...\n      JUMP \t\t\t    });\\n        bytes memory ...\n    tag 297\t\t\t    });\\n        bytes memory ...\n      JUMPDEST \t\t\t    });\\n        bytes memory ...\n      PUSH [tag] 298\t\t\t5f8098939f\";\\n        instruct...\n      DUP2 \t\t\transac\n      DUP6 \t\t\t   \n      PUSH [tag] 184\t\t\t5f8098939f\";\\n        instruct...\n      JUMP \t\t\t5f8098939f\";\\n        instruct...\n    tag 298\t\t\t5f8098939f\";\\n        instruct...\n      JUMPDEST \t\t\t5f8098939f\";\\n        instruct...\n      SWAP4 \t\t\t\"dc8bfd5f8098939f\";\\n        i...\n      POP \t\t\t\"dc8bfd5f8098939f\";\\n        i...\n      PUSH [tag] 299\t\t\tuctions = new Instruction[](1)...\n      DUP2 \t\t\tctions\n      DUP6 \t\t\tnst\n      PUSH 20\t\t\tctio\n      DUP7 \t\t\t tran\n      ADD \t\t\t     transaction\n      PUSH [tag] 181\t\t\tuctions = new Instruction[](1)...\n      JUMP \t\t\tuctions = new Instruction[](1)...\n    tag 299\t\t\tuctions = new Instruction[](1)...\n      JUMPDEST \t\t\tuctions = new Instruction[](1)...\n      PUSH [tag] 300\t\t\t (bool ok, bytes memory r) = \n      DUP2 \t\t\ty r) =\n      PUSH [tag] 172\t\t\t (bool ok, bytes memory r) = \n      JUMP \t\t\t (bool ok, bytes memory r) = \n    tag 300\t\t\t (bool ok, bytes memory r) = \n      JUMPDEST \t\t\t (bool ok, bytes memory r) = \n      DUP5 \t\t\t   \n      ADD \t\t\t;\\n        (bool ok, bytes mem...\n      SWAP2 \t\t\truction;\\n        (bool ok, by...\n      POP \t\t\truction;\\n        (bool ok, by...\n      POP \t\t\t is_writable: false\\n        }...\n      SWAP3 \t\t\t     caller_index: 1,\\n       ...\n      SWAP2 \t\t\t     caller_index: 1,\\n       ...\n      POP \t\t\t     caller_index: 1,\\n       ...\n      POP \t\t\t     caller_index: 1,\\n       ...\n      JUMP \t\t\t     caller_index: 1,\\n       ...\n    tag 16\t\t\tct.staticcall(abi.encode(trans...\n      JUMPDEST \t\t\tct.staticcall(abi.encode(trans...\n      PUSH 0\t\t\tmRes\n      PUSH 20\t\t\ttr\n      DUP3 \t\t\tnction ge\n      ADD \t\t\t  function getStri\n      SWAP1 \t\t\t   }\\n\\n    function getStri\n      POP \t\t\t   }\\n\\n    function getStri\n      DUP2 \t\t\tturns (by\n      DUP2 \t\t\ture \n      SUB \t\t\tal pure returns (byt\n      PUSH 0\t\t\tt\n      DUP4 \t\t\tory str) \n      ADD \t\t\t memory str) inte\n      MSTORE \t\t\t(string memory str) internal p...\n      PUSH [tag] 302\t\t\tt256 len = bytes(str).length;\\...\n      DUP2 \t\t\t    \n      DUP5 \t\t\t;\\n    \n      PUSH [tag] 185\t\t\tt256 len = bytes(str).length;\\...\n      JUMP \t\t\tt256 len = bytes(str).length;\\...\n    tag 302\t\t\tt256 len = bytes(str).length;\\...\n      JUMPDEST \t\t\tt256 len = bytes(str).length;\\...\n      SWAP1 \t\t\t     uint256 len = bytes(str)....\n      POP \t\t\t     uint256 len = bytes(str)....\n      SWAP3 \t\t\tct.staticcall(abi.encode(trans...\n      SWAP2 \t\t\tct.staticcall(abi.encode(trans...\n      POP \t\t\tct.staticcall(abi.encode(trans...\n      POP \t\t\tct.staticcall(abi.encode(trans...\n      JUMP \t\t\tct.staticcall(abi.encode(trans...\n    tag 186\t\t\ttleEndian(uint256 value) inter...\n      JUMPDEST \t\t\ttleEndian(uint256 value) inter...\n      PUSH 4E487B7100000000000000000000000000000000000000000000000000000000\t\t\tbytes4 result) {\\n        // E...\n      PUSH 0\t\t\ts\n      MSTORE \t\t\t returns (bytes4 result) {\\n  ...\n      PUSH 22\t\t\t// R\n      PUSH 4\t\t\t \n      MSTORE \t\t\t;\\n        // Re\n      PUSH 24\t\t\t    \n      PUSH 0\t\t\t \n      REVERT \t\t\t bytes\\n        \n    tag 31\t\t\t4(\\n            (uint32(uint8(...\n      JUMPDEST \t\t\t4(\\n            (uint32(uint8(...\n      PUSH 0\t\t\t24) |\\n\n      PUSH 2\t\t\t[\n      DUP3 \t\t\t(las\n      DIV \t\t\tint8(last4[3\n      SWAP1 \t\t\t (uint32(uint8(last4[3\n      POP \t\t\t (uint32(uint8(last4[3\n      PUSH 1\t\t\t[\n      DUP3 \t\t\t(las\n      AND \t\t\tint8(last4[2\n      DUP1 \t\t\t      (uint32(uint\n      PUSH [tag] 305\t\t\t) |\\n            (uint32(uint8...\n      JUMPI \t\t\t) |\\n            (uint32(uint8...\n      PUSH 7F\t\t\t\n      DUP3 \t\t\t}\\n}\\n\n      AND \t\t\t    }\\n}\\n\n      SWAP2 \t\t\t       );\\n    }\\n}\\n\n      POP \t\t\t       );\\n    }\\n}\\n\n    tag 305\t\t\t) |\\n            (uint32(uint8...\n      JUMPDEST \t\t\t) |\\n            (uint32(uint8...\n      PUSH 20\t\t\t\n      DUP3 \t\t\t\n      LT \t\t\t\n      DUP2 \t\t\t\n      SUB \t\t\t\n      PUSH [tag] 306\t\t\t\n      JUMPI \t\t\t\n      PUSH [tag] 307\t\t\t\n      PUSH [tag] 186\t\t\t\n      JUMP \t\t\t\n    tag 307\t\t\t\n      JUMPDEST \t\t\t\n    tag 306\t\t\t\n      JUMPDEST \t\t\t\n      POP \t\t\t           (uint32(uint8(last4...\n      SWAP2 \t\t\t4(\\n            (uint32(uint8(...\n      SWAP1 \t\t\t4(\\n            (uint32(uint8(...\n      POP \t\t\t4(\\n            (uint32(uint8(...\n      JUMP \t\t\t4(\\n            (uint32(uint8(...\n    tag 187\t\t\t\n      JUMPDEST \t\t\t\n      PUSH 0\t\t\t\n      DUP2 \t\t\t\n      SWAP1 \t\t\t\n      POP \t\t\t\n      DUP2 \t\t\t\n      PUSH 0\t\t\t\n      MSTORE \t\t\t\n      PUSH 20\t\t\t\n      PUSH 0\t\t\t\n      KECCAK256 \t\t\t\n      SWAP1 \t\t\t\n      POP \t\t\t\n      SWAP2 \t\t\t\n      SWAP1 \t\t\t\n      POP \t\t\t\n      JUMP \t\t\t\n    tag 188\t\t\t\n      JUMPDEST \t\t\t\n      PUSH 0\t\t\t\n      PUSH 20\t\t\t\n      PUSH 1F\t\t\t\n      DUP4 \t\t\t\n      ADD \t\t\t\n      DIV \t\t\t\n      SWAP1 \t\t\t\n      POP \t\t\t\n      SWAP2 \t\t\t\n      SWAP1 \t\t\t\n      POP \t\t\t\n      JUMP \t\t\t\n    tag 189\t\t\t\n      JUMPDEST \t\t\t\n      PUSH 0\t\t\t\n      DUP3 \t\t\t\n      DUP3 \t\t\t\n      SHL \t\t\t\n      SWAP1 \t\t\t\n      POP \t\t\t\n      SWAP3 \t\t\t\n      SWAP2 \t\t\t\n      POP \t\t\t\n      POP \t\t\t\n      JUMP \t\t\t\n    tag 190\t\t\t\n      JUMPDEST \t\t\t\n      PUSH 0\t\t\t\n      PUSH 8\t\t\t\n      DUP4 \t\t\t\n      MUL \t\t\t\n      PUSH [tag] 312\t\t\t\n      PUSH FFFFFFFFFFFFFFFFFFFFFFFFFFFFFFFFFFFFFFFFFFFFFFFFFFFFFFFFFFFFFFFF\t\t\t\n      DUP3 \t\t\t\n      PUSH [tag] 189\t\t\t\n      JUMP \t\t\t\n    tag 312\t\t\t\n      JUMPDEST \t\t\t\n      PUSH [tag] 313\t\t\t\n      DUP7 \t\t\t\n      DUP4 \t\t\t\n      PUSH [tag] 189\t\t\t\n      JUMP \t\t\t\n    tag 313\t\t\t\n      JUMPDEST \t\t\t\n      SWAP6 \t\t\t\n      POP \t\t\t\n      DUP1 \t\t\t\n      NOT \t\t\t\n      DUP5 \t\t\t\n      AND \t\t\t\n      SWAP4 \t\t\t\n      POP \t\t\t\n      DUP1 \t\t\t\n      DUP7 \t\t\t\n      AND \t\t\t\n      DUP5 \t\t\t\n      OR \t\t\t\n      SWAP3 \t\t\t\n      POP \t\t\t\n      POP \t\t\t\n      POP \t\t\t\n      SWAP4 \t\t\t\n      SWAP3 \t\t\t\n      POP \t\t\t\n      POP \t\t\t\n      POP \t\t\t\n      JUMP \t\t\t\n    tag 191\t\t\t\n      JUMPDEST \t\t\t\n      PUSH 0\t\t\t\n      DUP2 \t\t\t\n      SWAP1 \t\t\t\n      POP \t\t\t\n      SWAP2 \t\t\t\n      SWAP1 \t\t\t\n      POP \t\t\t\n      JUMP \t\t\t\n    tag 192\t\t\t\n      JUMPDEST \t\t\t\n      PUSH 0\t\t\t\n      DUP2 \t\t\t\n      SWAP1 \t\t\t\n      POP \t\t\t\n      SWAP2 \t\t\t\n      SWAP1 \t\t\t\n      POP \t\t\t\n      JUMP \t\t\t\n    tag 193\t\t\t\n      JUMPDEST \t\t\t\n      PUSH 0\t\t\t\n      PUSH [tag] 317\t\t\t\n      PUSH [tag] 318\t\t\t\n      PUSH [tag] 319\t\t\t\n      DUP5 \t\t\t\n      PUSH [tag] 191\t\t\t\n      JUMP \t\t\t\n    tag 319\t\t\t\n      JUMPDEST \t\t\t\n      PUSH [tag] 192\t\t\t\n      JUMP \t\t\t\n    tag 318\t\t\t\n      JUMPDEST \t\t\t\n      PUSH [tag] 191\t\t\t\n      JUMP \t\t\t\n    tag 317\t\t\t\n      JUMPDEST \t\t\t\n      SWAP1 \t\t\t\n      POP \t\t\t\n      SWAP2 \t\t\t\n      SWAP1 \t\t\t\n      POP \t\t\t\n      JUMP \t\t\t\n    tag 194\t\t\t\n      JUMPDEST \t\t\t\n      PUSH 0\t\t\t\n      DUP2 \t\t\t\n      SWAP1 \t\t\t\n      POP \t\t\t\n      SWAP2 \t\t\t\n      SWAP1 \t\t\t\n      POP \t\t\t\n      JUMP \t\t\t\n    tag 195\t\t\t\n      JUMPDEST \t\t\t\n      PUSH [tag] 322\t\t\t\n      DUP4 \t\t\t\n      PUSH [tag] 193\t\t\t\n      JUMP \t\t\t\n    tag 322\t\t\t\n      JUMPDEST \t\t\t\n      PUSH [tag] 323\t\t\t\n      PUSH [tag] 324\t\t\t\n      DUP3 \t\t\t\n      PUSH [tag] 194\t\t\t\n      JUMP \t\t\t\n    tag 324\t\t\t\n      JUMPDEST \t\t\t\n      DUP5 \t\t\t\n      DUP5 \t\t\t\n      SLOAD \t\t\t\n      PUSH [tag] 190\t\t\t\n      JUMP \t\t\t\n    tag 323\t\t\t\n      JUMPDEST \t\t\t\n      DUP3 \t\t\t\n      SSTORE \t\t\t\n      POP \t\t\t\n      POP \t\t\t\n      POP \t\t\t\n      POP \t\t\t\n      JUMP \t\t\t\n    tag 196\t\t\t\n      JUMPDEST \t\t\t\n      PUSH 0\t\t\t\n      SWAP1 \t\t\t\n      JUMP \t\t\t\n    tag 197\t\t\t\n      JUMPDEST \t\t\t\n      PUSH [tag] 327\t\t\t\n      PUSH [tag] 196\t\t\t\n      JUMP \t\t\t\n    tag 327\t\t\t\n      JUMPDEST \t\t\t\n      PUSH [tag] 328\t\t\t\n      DUP2 \t\t\t\n      DUP5 \t\t\t\n      DUP5 \t\t\t\n      PUSH [tag] 195\t\t\t\n      JUMP \t\t\t\n    tag 328\t\t\t\n      JUMPDEST \t\t\t\n      POP \t\t\t\n      POP \t\t\t\n      POP \t\t\t\n      JUMP \t\t\t\n    tag 198\t\t\t\n      JUMPDEST \t\t\t\n    tag 330\t\t\t\n      JUMPDEST \t\t\t\n      DUP2 \t\t\t\n      DUP2 \t\t\t\n      LT \t\t\t\n      ISZERO \t\t\t\n      PUSH [tag] 332\t\t\t\n      JUMPI \t\t\t\n      PUSH [tag] 333\t\t\t\n      PUSH 0\t\t\t\n      DUP3 \t\t\t\n      PUSH [tag] 197\t\t\t\n      JUMP \t\t\t\n    tag 333\t\t\t\n      JUMPDEST \t\t\t\n      PUSH 1\t\t\t\n      DUP2 \t\t\t\n      ADD \t\t\t\n      SWAP1 \t\t\t\n      POP \t\t\t\n      PUSH [tag] 330\t\t\t\n      JUMP \t\t\t\n    tag 332\t\t\t\n      JUMPDEST \t\t\t\n      POP \t\t\t\n      POP \t\t\t\n      JUMP \t\t\t\n    tag 199\t\t\t\n      JUMPDEST \t\t\t\n      PUSH 1F\t\t\t\n      DUP3 \t\t\t\n      GT \t\t\t\n      ISZERO \t\t\t\n      PUSH [tag] 335\t\t\t\n      JUMPI \t\t\t\n      PUSH [tag] 336\t\t\t\n      DUP2 \t\t\t\n      PUSH [tag] 187\t\t\t\n      JUMP \t\t\t\n    tag 336\t\t\t\n      JUMPDEST \t\t\t\n      PUSH [tag] 337\t\t\t\n      DUP5 \t\t\t\n      PUSH [tag] 188\t\t\t\n      JUMP \t\t\t\n    tag 337\t\t\t\n      JUMPDEST \t\t\t\n      DUP2 \t\t\t\n      ADD \t\t\t\n      PUSH 20\t\t\t\n      DUP6 \t\t\t\n      LT \t\t\t\n      ISZERO \t\t\t\n      PUSH [tag] 338\t\t\t\n      JUMPI \t\t\t\n      DUP2 \t\t\t\n      SWAP1 \t\t\t\n      POP \t\t\t\n    tag 338\t\t\t\n      JUMPDEST \t\t\t\n      PUSH [tag] 339\t\t\t\n      PUSH [tag] 340\t\t\t\n      DUP6 \t\t\t\n      PUSH [tag] 188\t\t\t\n      JUMP \t\t\t\n    tag 340\t\t\t\n      JUMPDEST \t\t\t\n      DUP4 \t\t\t\n      ADD \t\t\t\n      DUP3 \t\t\t\n      PUSH [tag] 198\t\t\t\n      JUMP \t\t\t\n    tag 339\t\t\t\n      JUMPDEST \t\t\t\n      POP \t\t\t\n      POP \t\t\t\n    tag 335\t\t\t\n      JUMPDEST \t\t\t\n      POP \t\t\t\n      POP \t\t\t\n      POP \t\t\t\n      JUMP \t\t\t\n    tag 200\t\t\t\n      JUMPDEST \t\t\t\n      PUSH 0\t\t\t\n      DUP3 \t\t\t\n      DUP3 \t\t\t\n      SHR \t\t\t\n      SWAP1 \t\t\t\n      POP \t\t\t\n      SWAP3 \t\t\t\n      SWAP2 \t\t\t\n      POP \t\t\t\n      POP \t\t\t\n      JUMP \t\t\t\n    tag 201\t\t\t\n      JUMPDEST \t\t\t\n      PUSH 0\t\t\t\n      PUSH [tag] 343\t\t\t\n      PUSH 0\t\t\t\n      NOT \t\t\t\n      DUP5 \t\t\t\n      PUSH 8\t\t\t\n      MUL \t\t\t\n      PUSH [tag] 200\t\t\t\n      JUMP \t\t\t\n    tag 343\t\t\t\n      JUMPDEST \t\t\t\n      NOT \t\t\t\n      DUP1 \t\t\t\n      DUP4 \t\t\t\n      AND \t\t\t\n      SWAP2 \t\t\t\n      POP \t\t\t\n      POP \t\t\t\n      SWAP3 \t\t\t\n      SWAP2 \t\t\t\n      POP \t\t\t\n      POP \t\t\t\n      JUMP \t\t\t\n    tag 202\t\t\t\n      JUMPDEST \t\t\t\n      PUSH 0\t\t\t\n      PUSH [tag] 345\t\t\t\n      DUP4 \t\t\t\n      DUP4 \t\t\t\n      PUSH [tag] 201\t\t\t\n      JUMP \t\t\t\n    tag 345\t\t\t\n      JUMPDEST \t\t\t\n      SWAP2 \t\t\t\n      POP \t\t\t\n      DUP3 \t\t\t\n      PUSH 2\t\t\t\n      MUL \t\t\t\n      DUP3 \t\t\t\n      OR \t\t\t\n      SWAP1 \t\t\t\n      POP \t\t\t\n      SWAP3 \t\t\t\n      SWAP2 \t\t\t\n      POP \t\t\t\n      POP \t\t\t\n      JUMP \t\t\t\n    tag 44\t\t\t\n      JUMPDEST \t\t\t\n      PUSH [tag] 347\t\t\t\n      DUP3 \t\t\t\n      PUSH [tag] 183\t\t\t\n      JUMP \t\t\t\n    tag 347\t\t\t\n      JUMPDEST \t\t\t\n      PUSH FFFFFFFFFFFFFFFF\t\t\t\n      DUP2 \t\t\t\n      GT \t\t\t\n      ISZERO \t\t\t\n      PUSH [tag] 348\t\t\t\n      JUMPI \t\t\t\n      PUSH [tag] 349\t\t\t\n      PUSH [tag] 50\t\t\t\n      JUMP \t\t\t\n    tag 349\t\t\t\n      JUMPDEST \t\t\t\n    tag 348\t\t\t\n      JUMPDEST \t\t\t\n      PUSH [tag] 350\t\t\t\n      DUP3 \t\t\t\n      SLOAD \t\t\t\n      PUSH [tag] 31\t\t\t\n      JUMP \t\t\t\n    tag 350\t\t\t\n      JUMPDEST \t\t\t\n      PUSH [tag] 351\t\t\t\n      DUP3 \t\t\t\n      DUP3 \t\t\t\n      DUP6 \t\t\t\n      PUSH [tag] 199\t\t\t\n      JUMP \t\t\t\n    tag 351\t\t\t\n      JUMPDEST \t\t\t\n      PUSH 0\t\t\t\n      PUSH 20\t\t\t\n      SWAP1 \t\t\t\n      POP \t\t\t\n      PUSH 1F\t\t\t\n      DUP4 \t\t\t\n      GT \t\t\t\n      PUSH 1\t\t\t\n      DUP2 \t\t\t\n      EQ \t\t\t\n      PUSH [tag] 353\t\t\t\n      JUMPI \t\t\t\n      PUSH 0\t\t\t\n      DUP5 \t\t\t\n      ISZERO \t\t\t\n      PUSH [tag] 354\t\t\t\n      JUMPI \t\t\t\n      DUP3 \t\t\t\n      DUP8 \t\t\t\n      ADD \t\t\t\n      MLOAD \t\t\t\n      SWAP1 \t\t\t\n      POP \t\t\t\n    tag 354\t\t\t\n      JUMPDEST \t\t\t\n      PUSH [tag] 355\t\t\t\n      DUP6 \t\t\t\n      DUP3 \t\t\t\n      PUSH [tag] 202\t\t\t\n      JUMP \t\t\t\n    tag 355\t\t\t\n      JUMPDEST \t\t\t\n      DUP7 \t\t\t\n      SSTORE \t\t\t\n      POP \t\t\t\n      PUSH [tag] 352\t\t\t\n      JUMP \t\t\t\n    tag 353\t\t\t\n      JUMPDEST \t\t\t\n      PUSH 1F\t\t\t\n      NOT \t\t\t\n      DUP5 \t\t\t\n      AND \t\t\t\n      PUSH [tag] 356\t\t\t\n      DUP7 \t\t\t\n      PUSH [tag] 187\t\t\t\n      JUMP \t\t\t\n    tag 356\t\t\t\n      JUMPDEST \t\t\t\n      PUSH 0\t\t\t\n    tag 357\t\t\t\n      JUMPDEST \t\t\t\n      DUP3 \t\t\t\n      DUP2 \t\t\t\n      LT \t\t\t\n      ISZERO \t\t\t\n      PUSH [tag] 359\t\t\t\n      JUMPI \t\t\t\n      DUP5 \t\t\t\n      DUP10 \t\t\t\n      ADD \t\t\t\n      MLOAD \t\t\t\n      DUP3 \t\t\t\n      SSTORE \t\t\t\n      PUSH 1\t\t\t\n      DUP3 \t\t\t\n      ADD \t\t\t\n      SWAP2 \t\t\t\n      POP \t\t\t\n      PUSH 20\t\t\t\n      DUP6 \t\t\t\n      ADD \t\t\t\n      SWAP5 \t\t\t\n      POP \t\t\t\n      PUSH 20\t\t\t\n      DUP2 \t\t\t\n      ADD \t\t\t\n      SWAP1 \t\t\t\n      POP \t\t\t\n      PUSH [tag] 357\t\t\t\n      JUMP \t\t\t\n    tag 359\t\t\t\n      JUMPDEST \t\t\t\n      DUP7 \t\t\t\n      DUP4 \t\t\t\n      LT \t\t\t\n      ISZERO \t\t\t\n      PUSH [tag] 360\t\t\t\n      JUMPI \t\t\t\n      DUP5 \t\t\t\n      DUP10 \t\t\t\n      ADD \t\t\t\n      MLOAD \t\t\t\n      PUSH [tag] 361\t\t\t\n      PUSH 1F\t\t\t\n      DUP10 \t\t\t\n      AND \t\t\t\n      DUP3 \t\t\t\n      PUSH [tag] 201\t\t\t\n      JUMP \t\t\t\n    tag 361\t\t\t\n      JUMPDEST \t\t\t\n      DUP4 \t\t\t\n      SSTORE \t\t\t\n      POP \t\t\t\n    tag 360\t\t\t\n      JUMPDEST \t\t\t\n      PUSH 1\t\t\t\n      PUSH 2\t\t\t\n      DUP9 \t\t\t\n      MUL \t\t\t\n      ADD \t\t\t\n      DUP9 \t\t\t\n      SSTORE \t\t\t\n      POP \t\t\t\n      POP \t\t\t\n      POP \t\t\t\n    tag 352\t\t\t\n      JUMPDEST \t\t\t\n      POP \t\t\t\n      POP \t\t\t\n      POP \t\t\t\n      POP \t\t\t\n      POP \t\t\t\n      POP \t\t\t\n      JUMP \t\t\t\n    tag 55\t\t\t\n      JUMPDEST \t\t\t\n      PUSH 4E487B7100000000000000000000000000000000000000000000000000000000\t\t\t\n      PUSH 0\t\t\t\n      MSTORE \t\t\t\n      PUSH 32\t\t\t\n      PUSH 4\t\t\t\n      MSTORE \t\t\t\n      PUSH 24\t\t\t\n      PUSH 0\t\t\t\n      REVERT \t\t\t\n    tag 203\t\t\t\n      JUMPDEST \t\t\t\n      PUSH 0\t\t\t\n      DUP2 \t\t\t\n      MLOAD \t\t\t\n      SWAP1 \t\t\t\n      POP \t\t\t\n      SWAP2 \t\t\t\n      SWAP1 \t\t\t\n      POP \t\t\t\n      JUMP \t\t\t\n    tag 204\t\t\t\n      JUMPDEST \t\t\t\n      PUSH 0\t\t\t\n      DUP3 \t\t\t\n      DUP3 \t\t\t\n      MSTORE \t\t\t\n      PUSH 20\t\t\t\n      DUP3 \t\t\t\n      ADD \t\t\t\n      SWAP1 \t\t\t\n      POP \t\t\t\n      SWAP3 \t\t\t\n      SWAP2 \t\t\t\n      POP \t\t\t\n      POP \t\t\t\n      JUMP \t\t\t\n    tag 205\t\t\t\n      JUMPDEST \t\t\t\n      PUSH 0\t\t\t\n      DUP2 \t\t\t\n      SWAP1 \t\t\t\n      POP \t\t\t\n      PUSH 20\t\t\t\n      DUP3 \t\t\t\n      ADD \t\t\t\n      SWAP1 \t\t\t\n      POP \t\t\t\n      SWAP2 \t\t\t\n      SWAP1 \t\t\t\n      POP \t\t\t\n      JUMP \t\t\t\n    tag 206\t\t\t\n      JUMPDEST \t\t\t\n      PUSH 0\t\t\t\n      DUP3 \t\t\t\n      DUP3 \t\t\t\n      MSTORE \t\t\t\n      PUSH 20\t\t\t\n      DUP3 \t\t\t\n      ADD \t\t\t\n      SWAP1 \t\t\t\n      POP \t\t\t\n      SWAP3 \t\t\t\n      SWAP2 \t\t\t\n      POP \t\t\t\n      POP \t\t\t\n      JUMP \t\t\t\n    tag 207\t\t\t\n      JUMPDEST \t\t\t\n      PUSH 0\t\t\t\n      PUSH [tag] 368\t\t\t\n      DUP3 \t\t\t\n      PUSH [tag] 183\t\t\t\n      JUMP \t\t\t\n    tag 368\t\t\t\n      JUMPDEST \t\t\t\n      PUSH [tag] 369\t\t\t\n      DUP2 \t\t\t\n      DUP6 \t\t\t\n      PUSH [tag] 206\t\t\t\n      JUMP \t\t\t\n    tag 369\t\t\t\n      JUMPDEST \t\t\t\n      SWAP4 \t\t\t\n      POP \t\t\t\n      PUSH [tag] 370\t\t\t\n      DUP2 \t\t\t\n      DUP6 \t\t\t\n      PUSH 20\t\t\t\n      DUP7 \t\t\t\n      ADD \t\t\t\n      PUSH [tag] 181\t\t\t\n      JUMP \t\t\t\n    tag 370\t\t\t\n      JUMPDEST \t\t\t\n      PUSH [tag] 371\t\t\t\n      DUP2 \t\t\t\n      PUSH [tag] 172\t\t\t\n      JUMP \t\t\t\n    tag 371\t\t\t\n      JUMPDEST \t\t\t\n      DUP5 \t\t\t\n      ADD \t\t\t\n      SWAP2 \t\t\t\n      POP \t\t\t\n      POP \t\t\t\n      SWAP3 \t\t\t\n      SWAP2 \t\t\t\n      POP \t\t\t\n      POP \t\t\t\n      JUMP \t\t\t\n    tag 208\t\t\t\n      JUMPDEST \t\t\t\n      PUSH 0\t\t\t\n      PUSH [tag] 373\t\t\t\n      DUP4 \t\t\t\n      DUP4 \t\t\t\n      PUSH [tag] 207\t\t\t\n      JUMP \t\t\t\n    tag 373\t\t\t\n      JUMPDEST \t\t\t\n      SWAP1 \t\t\t\n      POP \t\t\t\n      SWAP3 \t\t\t\n      SWAP2 \t\t\t\n      POP \t\t\t\n      POP \t\t\t\n      JUMP \t\t\t\n    tag 209\t\t\t\n      JUMPDEST \t\t\t\n      PUSH 0\t\t\t\n      PUSH 20\t\t\t\n      DUP3 \t\t\t\n      ADD \t\t\t\n      SWAP1 \t\t\t\n      POP \t\t\t\n      SWAP2 \t\t\t\n      SWAP1 \t\t\t\n      POP \t\t\t\n      JUMP \t\t\t\n    tag 210\t\t\t\n      JUMPDEST \t\t\t\n      PUSH 0\t\t\t\n      PUSH [tag] 376\t\t\t\n      DUP3 \t\t\t\n      PUSH [tag] 203\t\t\t\n      JUMP \t\t\t\n    tag 376\t\t\t\n      JUMPDEST \t\t\t\n      PUSH [tag] 377\t\t\t\n      DUP2 \t\t\t\n      DUP6 \t\t\t\n      PUSH [tag] 204\t\t\t\n      JUMP \t\t\t\n    tag 377\t\t\t\n      JUMPDEST \t\t\t\n      SWAP4 \t\t\t\n      POP \t\t\t\n      DUP4 \t\t\t\n      PUSH 20\t\t\t\n      DUP3 \t\t\t\n      MUL \t\t\t\n      DUP6 \t\t\t\n      ADD \t\t\t\n      PUSH [tag] 378\t\t\t\n      DUP6 \t\t\t\n      PUSH [tag] 205\t\t\t\n      JUMP \t\t\t\n    tag 378\t\t\t\n      JUMPDEST \t\t\t\n      DUP1 \t\t\t\n      PUSH 0\t\t\t\n    tag 379\t\t\t\n      JUMPDEST \t\t\t\n      DUP6 \t\t\t\n      DUP2 \t\t\t\n      LT \t\t\t\n      ISZERO \t\t\t\n      PUSH [tag] 381\t\t\t\n      JUMPI \t\t\t\n      DUP5 \t\t\t\n      DUP5 \t\t\t\n      SUB \t\t\t\n      DUP10 \t\t\t\n      MSTORE \t\t\t\n      DUP2 \t\t\t\n      MLOAD \t\t\t\n      PUSH [tag] 382\t\t\t\n      DUP6 \t\t\t\n      DUP3 \t\t\t\n      PUSH [tag] 208\t\t\t\n      JUMP \t\t\t\n    tag 382\t\t\t\n      JUMPDEST \t\t\t\n      SWAP5 \t\t\t\n      POP \t\t\t\n      PUSH [tag] 383\t\t\t\n      DUP4 \t\t\t\n      PUSH [tag] 209\t\t\t\n      JUMP \t\t\t\n    tag 383\t\t\t\n      JUMPDEST \t\t\t\n      SWAP3 \t\t\t\n      POP \t\t\t\n      PUSH 20\t\t\t\n      DUP11 \t\t\t\n      ADD \t\t\t\n      SWAP10 \t\t\t\n      POP \t\t\t\n      POP \t\t\t\n      PUSH 1\t\t\t\n      DUP2 \t\t\t\n      ADD \t\t\t\n      SWAP1 \t\t\t\n      POP \t\t\t\n      PUSH [tag] 379\t\t\t\n      JUMP \t\t\t\n    tag 381\t\t\t\n      JUMPDEST \t\t\t\n      POP \t\t\t\n      DUP3 \t\t\t\n      SWAP8 \t\t\t\n      POP \t\t\t\n      DUP8 \t\t\t\n      SWAP6 \t\t\t\n      POP \t\t\t\n      POP \t\t\t\n      POP \t\t\t\n      POP \t\t\t\n      POP \t\t\t\n      POP \t\t\t\n      SWAP3 \t\t\t\n      SWAP2 \t\t\t\n      POP \t\t\t\n      POP \t\t\t\n      JUMP \t\t\t\n    tag 211\t\t\t\n      JUMPDEST \t\t\t\n      PUSH 0\t\t\t\n      DUP2 \t\t\t\n      MLOAD \t\t\t\n      SWAP1 \t\t\t\n      POP \t\t\t\n      SWAP2 \t\t\t\n      SWAP1 \t\t\t\n      POP \t\t\t\n      JUMP \t\t\t\n    tag 212\t\t\t\n      JUMPDEST \t\t\t\n      PUSH 0\t\t\t\n      DUP3 \t\t\t\n      DUP3 \t\t\t\n      MSTORE \t\t\t\n      PUSH 20\t\t\t\n      DUP3 \t\t\t\n      ADD \t\t\t\n      SWAP1 \t\t\t\n      POP \t\t\t\n      SWAP3 \t\t\t\n      SWAP2 \t\t\t\n      POP \t\t\t\n      POP \t\t\t\n      JUMP \t\t\t\n    tag 213\t\t\t\n      JUMPDEST \t\t\t\n      PUSH 0\t\t\t\n      DUP2 \t\t\t\n      SWAP1 \t\t\t\n      POP \t\t\t\n      PUSH 20\t\t\t\n      DUP3 \t\t\t\n      ADD \t\t\t\n      SWAP1 \t\t\t\n      POP \t\t\t\n      SWAP2 \t\t\t\n      SWAP1 \t\t\t\n      POP \t\t\t\n      JUMP \t\t\t\n    tag 214\t\t\t\n      JUMPDEST \t\t\t\n      PUSH 0\t\t\t\n      DUP2 \t\t\t\n      MLOAD \t\t\t\n      SWAP1 \t\t\t\n      POP \t\t\t\n      SWAP2 \t\t\t\n      SWAP1 \t\t\t\n      POP \t\t\t\n      JUMP \t\t\t\n    tag 215\t\t\t\n      JUMPDEST \t\t\t\n      PUSH 0\t\t\t\n      DUP3 \t\t\t\n      DUP3 \t\t\t\n      MSTORE \t\t\t\n      PUSH 20\t\t\t\n      DUP3 \t\t\t\n      ADD \t\t\t\n      SWAP1 \t\t\t\n      POP \t\t\t\n      SWAP3 \t\t\t\n      SWAP2 \t\t\t\n      POP \t\t\t\n      POP \t\t\t\n      JUMP \t\t\t\n    tag 216\t\t\t\n      JUMPDEST \t\t\t\n      PUSH 0\t\t\t\n      DUP2 \t\t\t\n      SWAP1 \t\t\t\n      POP \t\t\t\n      PUSH 20\t\t\t\n      DUP3 \t\t\t\n      ADD \t\t\t\n      SWAP1 \t\t\t\n      POP \t\t\t\n      SWAP2 \t\t\t\n      SWAP1 \t\t\t\n      POP \t\t\t\n      JUMP \t\t\t\n    tag 217\t\t\t\n      JUMPDEST \t\t\t\n      PUSH 0\t\t\t\n      PUSH FFFFFFFF\t\t\t\n      DUP3 \t\t\t\n      AND \t\t\t\n      SWAP1 \t\t\t\n      POP \t\t\t\n      SWAP2 \t\t\t\n      SWAP1 \t\t\t\n      POP \t\t\t\n      JUMP \t\t\t\n    tag 218\t\t\t\n      JUMPDEST \t\t\t\n      PUSH [tag] 392\t\t\t\n      DUP2 \t\t\t\n      PUSH [tag] 217\t\t\t\n      JUMP \t\t\t\n    tag 392\t\t\t\n      JUMPDEST \t\t\t\n      DUP3 \t\t\t\n      MSTORE \t\t\t\n      POP \t\t\t\n      POP \t\t\t\n      JUMP \t\t\t\n    tag 219\t\t\t\n      JUMPDEST \t\t\t\n      PUSH 0\t\t\t\n      PUSH [tag] 394\t\t\t\n      DUP4 \t\t\t\n      DUP4 \t\t\t\n      PUSH [tag] 218\t\t\t\n      JUMP \t\t\t\n    tag 394\t\t\t\n      JUMPDEST \t\t\t\n      PUSH 20\t\t\t\n      DUP4 \t\t\t\n      ADD \t\t\t\n      SWAP1 \t\t\t\n      POP \t\t\t\n      SWAP3 \t\t\t\n      SWAP2 \t\t\t\n      POP \t\t\t\n      POP \t\t\t\n      JUMP \t\t\t\n    tag 220\t\t\t\n      JUMPDEST \t\t\t\n      PUSH 0\t\t\t\n      PUSH 20\t\t\t\n      DUP3 \t\t\t\n      ADD \t\t\t\n      SWAP1 \t\t\t\n      POP \t\t\t\n      SWAP2 \t\t\t\n      SWAP1 \t\t\t\n      POP \t\t\t\n      JUMP \t\t\t\n    tag 221\t\t\t\n      JUMPDEST \t\t\t\n      PUSH 0\t\t\t\n      PUSH [tag] 397\t\t\t\n      DUP3 \t\t\t\n      PUSH [tag] 214\t\t\t\n      JUMP \t\t\t\n    tag 397\t\t\t\n      JUMPDEST \t\t\t\n      PUSH [tag] 398\t\t\t\n      DUP2 \t\t\t\n      DUP6 \t\t\t\n      PUSH [tag] 215\t\t\t\n      JUMP \t\t\t\n    tag 398\t\t\t\n      JUMPDEST \t\t\t\n      SWAP4 \t\t\t\n      POP \t\t\t\n      PUSH [tag] 399\t\t\t\n      DUP4 \t\t\t\n      PUSH [tag] 216\t\t\t\n      JUMP \t\t\t\n    tag 399\t\t\t\n      JUMPDEST \t\t\t\n      DUP1 \t\t\t\n      PUSH 0\t\t\t\n    tag 400\t\t\t\n      JUMPDEST \t\t\t\n      DUP4 \t\t\t\n      DUP2 \t\t\t\n      LT \t\t\t\n      ISZERO \t\t\t\n      PUSH [tag] 402\t\t\t\n      JUMPI \t\t\t\n      DUP2 \t\t\t\n      MLOAD \t\t\t\n      PUSH [tag] 403\t\t\t\n      DUP9 \t\t\t\n      DUP3 \t\t\t\n      PUSH [tag] 219\t\t\t\n      JUMP \t\t\t\n    tag 403\t\t\t\n      JUMPDEST \t\t\t\n      SWAP8 \t\t\t\n      POP \t\t\t\n      PUSH [tag] 404\t\t\t\n      DUP4 \t\t\t\n      PUSH [tag] 220\t\t\t\n      JUMP \t\t\t\n    tag 404\t\t\t\n      JUMPDEST \t\t\t\n      SWAP3 \t\t\t\n      POP \t\t\t\n      POP \t\t\t\n      PUSH 1\t\t\t\n      DUP2 \t\t\t\n      ADD \t\t\t\n      SWAP1 \t\t\t\n      POP \t\t\t\n      PUSH [tag] 400\t\t\t\n      JUMP \t\t\t\n    tag 402\t\t\t\n      JUMPDEST \t\t\t\n      POP \t\t\t\n      DUP6 \t\t\t\n      SWAP4 \t\t\t\n      POP \t\t\t\n      POP \t\t\t\n      POP \t\t\t\n      POP \t\t\t\n      SWAP3 \t\t\t\n      SWAP2 \t\t\t\n      POP \t\t\t\n      POP \t\t\t\n      JUMP \t\t\t\n    tag 222\t\t\t\n      JUMPDEST \t\t\t\n      PUSH 0\t\t\t\n      DUP2 \t\t\t\n      MLOAD \t\t\t\n      SWAP1 \t\t\t\n      POP \t\t\t\n      SWAP2 \t\t\t\n      SWAP1 \t\t\t\n      POP \t\t\t\n      JUMP \t\t\t\n    tag 223\t\t\t\n      JUMPDEST \t\t\t\n      PUSH 0\t\t\t\n      DUP3 \t\t\t\n      DUP3 \t\t\t\n      MSTORE \t\t\t\n      PUSH 20\t\t\t\n      DUP3 \t\t\t\n      ADD \t\t\t\n      SWAP1 \t\t\t\n      POP \t\t\t\n      SWAP3 \t\t\t\n      SWAP2 \t\t\t\n      POP \t\t\t\n      POP \t\t\t\n      JUMP \t\t\t\n    tag 224\t\t\t\n      JUMPDEST \t\t\t\n      PUSH 0\t\t\t\n      DUP2 \t\t\t\n      SWAP1 \t\t\t\n      POP \t\t\t\n      PUSH 20\t\t\t\n      DUP3 \t\t\t\n      ADD \t\t\t\n      SWAP1 \t\t\t\n      POP \t\t\t\n      SWAP2 \t\t\t\n      SWAP1 \t\t\t\n      POP \t\t\t\n      JUMP \t\t\t\n    tag 225\t\t\t\n      JUMPDEST \t\t\t\n      PUSH 0\t\t\t\n      DUP2 \t\t\t\n      ISZERO \t\t\t\n      ISZERO \t\t\t\n      SWAP1 \t\t\t\n      POP \t\t\t\n      SWAP2 \t\t\t\n      SWAP1 \t\t\t\n      POP \t\t\t\n      JUMP \t\t\t\n    tag 226\t\t\t\n      JUMPDEST \t\t\t\n      PUSH [tag] 410\t\t\t\n      DUP2 \t\t\t\n      PUSH [tag] 225\t\t\t\n      JUMP \t\t\t\n    tag 410\t\t\t\n      JUMPDEST \t\t\t\n      DUP3 \t\t\t\n      MSTORE \t\t\t\n      POP \t\t\t\n      POP \t\t\t\n      JUMP \t\t\t\n    tag 227\t\t\t\n      JUMPDEST \t\t\t\n      PUSH A0\t\t\t\n      DUP3 \t\t\t\n      ADD \t\t\t\n      PUSH 0\t\t\t\n      DUP3 \t\t\t\n      ADD \t\t\t\n      MLOAD \t\t\t\n      PUSH [tag] 412\t\t\t\n      PUSH 0\t\t\t\n      DUP6 \t\t\t\n      ADD \t\t\t\n      DUP3 \t\t\t\n      PUSH [tag] 218\t\t\t\n      JUMP \t\t\t\n    tag 412\t\t\t\n      JUMPDEST \t\t\t\n      POP \t\t\t\n      PUSH 20\t\t\t\n      DUP3 \t\t\t\n      ADD \t\t\t\n      MLOAD \t\t\t\n      PUSH [tag] 413\t\t\t\n      PUSH 20\t\t\t\n      DUP6 \t\t\t\n      ADD \t\t\t\n      DUP3 \t\t\t\n      PUSH [tag] 218\t\t\t\n      JUMP \t\t\t\n    tag 413\t\t\t\n      JUMPDEST \t\t\t\n      POP \t\t\t\n      PUSH 40\t\t\t\n      DUP3 \t\t\t\n      ADD \t\t\t\n      MLOAD \t\t\t\n      PUSH [tag] 414\t\t\t\n      PUSH 40\t\t\t\n      DUP6 \t\t\t\n      ADD \t\t\t\n      DUP3 \t\t\t\n      PUSH [tag] 218\t\t\t\n      JUMP \t\t\t\n    tag 414\t\t\t\n      JUMPDEST \t\t\t\n      POP \t\t\t\n      PUSH 60\t\t\t\n      DUP3 \t\t\t\n      ADD \t\t\t\n      MLOAD \t\t\t\n      PUSH [tag] 415\t\t\t\n      PUSH 60\t\t\t\n      DUP6 \t\t\t\n      ADD \t\t\t\n      DUP3 \t\t\t\n      PUSH [tag] 226\t\t\t\n      JUMP \t\t\t\n    tag 415\t\t\t\n      JUMPDEST \t\t\t\n      POP \t\t\t\n      PUSH 80\t\t\t\n      DUP3 \t\t\t\n      ADD \t\t\t\n      MLOAD \t\t\t\n      PUSH [tag] 416\t\t\t\n      PUSH 80\t\t\t\n      DUP6 \t\t\t\n      ADD \t\t\t\n      DUP3 \t\t\t\n      PUSH [tag] 226\t\t\t\n      JUMP \t\t\t\n    tag 416\t\t\t\n      JUMPDEST \t\t\t\n      POP \t\t\t\n      POP \t\t\t\n      POP \t\t\t\n      POP \t\t\t\n      JUMP \t\t\t\n    tag 228\t\t\t\n      JUMPDEST \t\t\t\n      PUSH 0\t\t\t\n      PUSH [tag] 418\t\t\t\n      DUP4 \t\t\t\n      DUP4 \t\t\t\n      PUSH [tag] 227\t\t\t\n      JUMP \t\t\t\n    tag 418\t\t\t\n      JUMPDEST \t\t\t\n      PUSH A0\t\t\t\n      DUP4 \t\t\t\n      ADD \t\t\t\n      SWAP1 \t\t\t\n      POP \t\t\t\n      SWAP3 \t\t\t\n      SWAP2 \t\t\t\n      POP \t\t\t\n      POP \t\t\t\n      JUMP \t\t\t\n    tag 229\t\t\t\n      JUMPDEST \t\t\t\n      PUSH 0\t\t\t\n      PUSH 20\t\t\t\n      DUP3 \t\t\t\n      ADD \t\t\t\n      SWAP1 \t\t\t\n      POP \t\t\t\n      SWAP2 \t\t\t\n      SWAP1 \t\t\t\n      POP \t\t\t\n      JUMP \t\t\t\n    tag 230\t\t\t\n      JUMPDEST \t\t\t\n      PUSH 0\t\t\t\n      PUSH [tag] 421\t\t\t\n      DUP3 \t\t\t\n      PUSH [tag] 222\t\t\t\n      JUMP \t\t\t\n    tag 421\t\t\t\n      JUMPDEST \t\t\t\n      PUSH [tag] 422\t\t\t\n      DUP2 \t\t\t\n      DUP6 \t\t\t\n      PUSH [tag] 223\t\t\t\n      JUMP \t\t\t\n    tag 422\t\t\t\n      JUMPDEST \t\t\t\n      SWAP4 \t\t\t\n      POP \t\t\t\n      PUSH [tag] 423\t\t\t\n      DUP4 \t\t\t\n      PUSH [tag] 224\t\t\t\n      JUMP \t\t\t\n    tag 423\t\t\t\n      JUMPDEST \t\t\t\n      DUP1 \t\t\t\n      PUSH 0\t\t\t\n    tag 424\t\t\t\n      JUMPDEST \t\t\t\n      DUP4 \t\t\t\n      DUP2 \t\t\t\n      LT \t\t\t\n      ISZERO \t\t\t\n      PUSH [tag] 426\t\t\t\n      JUMPI \t\t\t\n      DUP2 \t\t\t\n      MLOAD \t\t\t\n      PUSH [tag] 427\t\t\t\n      DUP9 \t\t\t\n      DUP3 \t\t\t\n      PUSH [tag] 228\t\t\t\n      JUMP \t\t\t\n    tag 427\t\t\t\n      JUMPDEST \t\t\t\n      SWAP8 \t\t\t\n      POP \t\t\t\n      PUSH [tag] 428\t\t\t\n      DUP4 \t\t\t\n      PUSH [tag] 229\t\t\t\n      JUMP \t\t\t\n    tag 428\t\t\t\n      JUMPDEST \t\t\t\n      SWAP3 \t\t\t\n      POP \t\t\t\n      POP \t\t\t\n      PUSH 1\t\t\t\n      DUP2 \t\t\t\n      ADD \t\t\t\n      SWAP1 \t\t\t\n      POP \t\t\t\n      PUSH [tag] 424\t\t\t\n      JUMP \t\t\t\n    tag 426\t\t\t\n      JUMPDEST \t\t\t\n      POP \t\t\t\n      DUP6 \t\t\t\n      SWAP4 \t\t\t\n      POP \t\t\t\n      POP \t\t\t\n      POP \t\t\t\n      POP \t\t\t\n      SWAP3 \t\t\t\n      SWAP2 \t\t\t\n      POP \t\t\t\n      POP \t\t\t\n      JUMP \t\t\t\n    tag 231\t\t\t\n      JUMPDEST \t\t\t\n      PUSH 0\t\t\t\n      DUP3 \t\t\t\n      DUP3 \t\t\t\n      MSTORE \t\t\t\n      PUSH 20\t\t\t\n      DUP3 \t\t\t\n      ADD \t\t\t\n      SWAP1 \t\t\t\n      POP \t\t\t\n      SWAP3 \t\t\t\n      SWAP2 \t\t\t\n      POP \t\t\t\n      POP \t\t\t\n      JUMP \t\t\t\n    tag 232\t\t\t\n      JUMPDEST \t\t\t\n      PUSH 0\t\t\t\n      PUSH [tag] 431\t\t\t\n      DUP3 \t\t\t\n      PUSH [tag] 179\t\t\t\n      JUMP \t\t\t\n    tag 431\t\t\t\n      JUMPDEST \t\t\t\n      PUSH [tag] 432\t\t\t\n      DUP2 \t\t\t\n      DUP6 \t\t\t\n      PUSH [tag] 231\t\t\t\n      JUMP \t\t\t\n    tag 432\t\t\t\n      JUMPDEST \t\t\t\n      SWAP4 \t\t\t\n      POP \t\t\t\n      PUSH [tag] 433\t\t\t\n      DUP2 \t\t\t\n      DUP6 \t\t\t\n      PUSH 20\t\t\t\n      DUP7 \t\t\t\n      ADD \t\t\t\n      PUSH [tag] 181\t\t\t\n      JUMP \t\t\t\n    tag 433\t\t\t\n      JUMPDEST \t\t\t\n      PUSH [tag] 434\t\t\t\n      DUP2 \t\t\t\n      PUSH [tag] 172\t\t\t\n      JUMP \t\t\t\n    tag 434\t\t\t\n      JUMPDEST \t\t\t\n      DUP5 \t\t\t\n      ADD \t\t\t\n      SWAP2 \t\t\t\n      POP \t\t\t\n      POP \t\t\t\n      SWAP3 \t\t\t\n      SWAP2 \t\t\t\n      POP \t\t\t\n      POP \t\t\t\n      JUMP \t\t\t\n    tag 233\t\t\t\n      JUMPDEST \t\t\t\n      PUSH 0\t\t\t\n      PUSH 60\t\t\t\n      DUP4 \t\t\t\n      ADD \t\t\t\n      PUSH 0\t\t\t\n      DUP4 \t\t\t\n      ADD \t\t\t\n      MLOAD \t\t\t\n      DUP5 \t\t\t\n      DUP3 \t\t\t\n      SUB \t\t\t\n      PUSH 0\t\t\t\n      DUP7 \t\t\t\n      ADD \t\t\t\n      MSTORE \t\t\t\n      PUSH [tag] 436\t\t\t\n      DUP3 \t\t\t\n      DUP3 \t\t\t\n      PUSH [tag] 221\t\t\t\n      JUMP \t\t\t\n    tag 436\t\t\t\n      JUMPDEST \t\t\t\n      SWAP2 \t\t\t\n      POP \t\t\t\n      POP \t\t\t\n      PUSH 20\t\t\t\n      DUP4 \t\t\t\n      ADD \t\t\t\n      MLOAD \t\t\t\n      DUP5 \t\t\t\n      DUP3 \t\t\t\n      SUB \t\t\t\n      PUSH 20\t\t\t\n      DUP7 \t\t\t\n      ADD \t\t\t\n      MSTORE \t\t\t\n      PUSH [tag] 437\t\t\t\n      DUP3 \t\t\t\n      DUP3 \t\t\t\n      PUSH [tag] 230\t\t\t\n      JUMP \t\t\t\n    tag 437\t\t\t\n      JUMPDEST \t\t\t\n      SWAP2 \t\t\t\n      POP \t\t\t\n      POP \t\t\t\n      PUSH 40\t\t\t\n      DUP4 \t\t\t\n      ADD \t\t\t\n      MLOAD \t\t\t\n      DUP5 \t\t\t\n      DUP3 \t\t\t\n      SUB \t\t\t\n      PUSH 40\t\t\t\n      DUP7 \t\t\t\n      ADD \t\t\t\n      MSTORE \t\t\t\n      PUSH [tag] 438\t\t\t\n      DUP3 \t\t\t\n      DUP3 \t\t\t\n      PUSH [tag] 232\t\t\t\n      JUMP \t\t\t\n    tag 438\t\t\t\n      JUMPDEST \t\t\t\n      SWAP2 \t\t\t\n      POP \t\t\t\n      POP \t\t\t\n      DUP1 \t\t\t\n      SWAP2 \t\t\t\n      POP \t\t\t\n      POP \t\t\t\n      SWAP3 \t\t\t\n      SWAP2 \t\t\t\n      POP \t\t\t\n      POP \t\t\t\n      JUMP \t\t\t\n    tag 234\t\t\t\n      JUMPDEST \t\t\t\n      PUSH 0\t\t\t\n      PUSH [tag] 440\t\t\t\n      DUP4 \t\t\t\n      DUP4 \t\t\t\n      PUSH [tag] 233\t\t\t\n      JUMP \t\t\t\n    tag 440\t\t\t\n      JUMPDEST \t\t\t\n      SWAP1 \t\t\t\n      POP \t\t\t\n      SWAP3 \t\t\t\n      SWAP2 \t\t\t\n      POP \t\t\t\n      POP \t\t\t\n      JUMP \t\t\t\n    tag 235\t\t\t\n      JUMPDEST \t\t\t\n      PUSH 0\t\t\t\n      PUSH 20\t\t\t\n      DUP3 \t\t\t\n      ADD \t\t\t\n      SWAP1 \t\t\t\n      POP \t\t\t\n      SWAP2 \t\t\t\n      SWAP1 \t\t\t\n      POP \t\t\t\n      JUMP \t\t\t\n    tag 236\t\t\t\n      JUMPDEST \t\t\t\n      PUSH 0\t\t\t\n      PUSH [tag] 443\t\t\t\n      DUP3 \t\t\t\n      PUSH [tag] 211\t\t\t\n      JUMP \t\t\t\n    tag 443\t\t\t\n      JUMPDEST \t\t\t\n      PUSH [tag] 444\t\t\t\n      DUP2 \t\t\t\n      DUP6 \t\t\t\n      PUSH [tag] 212\t\t\t\n      JUMP \t\t\t\n    tag 444\t\t\t\n      JUMPDEST \t\t\t\n      SWAP4 \t\t\t\n      POP \t\t\t\n      DUP4 \t\t\t\n      PUSH 20\t\t\t\n      DUP3 \t\t\t\n      MUL \t\t\t\n      DUP6 \t\t\t\n      ADD \t\t\t\n      PUSH [tag] 445\t\t\t\n      DUP6 \t\t\t\n      PUSH [tag] 213\t\t\t\n      JUMP \t\t\t\n    tag 445\t\t\t\n      JUMPDEST \t\t\t\n      DUP1 \t\t\t\n      PUSH 0\t\t\t\n    tag 446\t\t\t\n      JUMPDEST \t\t\t\n      DUP6 \t\t\t\n      DUP2 \t\t\t\n      LT \t\t\t\n      ISZERO \t\t\t\n      PUSH [tag] 448\t\t\t\n      JUMPI \t\t\t\n      DUP5 \t\t\t\n      DUP5 \t\t\t\n      SUB \t\t\t\n      DUP10 \t\t\t\n      MSTORE \t\t\t\n      DUP2 \t\t\t\n      MLOAD \t\t\t\n      PUSH [tag] 449\t\t\t\n      DUP6 \t\t\t\n      DUP3 \t\t\t\n      PUSH [tag] 234\t\t\t\n      JUMP \t\t\t\n    tag 449\t\t\t\n      JUMPDEST \t\t\t\n      SWAP5 \t\t\t\n      POP \t\t\t\n      PUSH [tag] 450\t\t\t\n      DUP4 \t\t\t\n      PUSH [tag] 235\t\t\t\n      JUMP \t\t\t\n    tag 450\t\t\t\n      JUMPDEST \t\t\t\n      SWAP3 \t\t\t\n      POP \t\t\t\n      PUSH 20\t\t\t\n      DUP11 \t\t\t\n      ADD \t\t\t\n      SWAP10 \t\t\t\n      POP \t\t\t\n      POP \t\t\t\n      PUSH 1\t\t\t\n      DUP2 \t\t\t\n      ADD \t\t\t\n      SWAP1 \t\t\t\n      POP \t\t\t\n      PUSH [tag] 446\t\t\t\n      JUMP \t\t\t\n    tag 448\t\t\t\n      JUMPDEST \t\t\t\n      POP \t\t\t\n      DUP3 \t\t\t\n      SWAP8 \t\t\t\n      POP \t\t\t\n      DUP8 \t\t\t\n      SWAP6 \t\t\t\n      POP \t\t\t\n      POP \t\t\t\n      POP \t\t\t\n      POP \t\t\t\n      POP \t\t\t\n      POP \t\t\t\n      SWAP3 \t\t\t\n      SWAP2 \t\t\t\n      POP \t\t\t\n      POP \t\t\t\n      JUMP \t\t\t\n    tag 237\t\t\t\n      JUMPDEST \t\t\t\n      PUSH 0\t\t\t\n      PUSH FFFFFFFFFFFFFFFF\t\t\t\n      DUP3 \t\t\t\n      AND \t\t\t\n      SWAP1 \t\t\t\n      POP \t\t\t\n      SWAP2 \t\t\t\n      SWAP1 \t\t\t\n      POP \t\t\t\n      JUMP \t\t\t\n    tag 238\t\t\t\n      JUMPDEST \t\t\t\n      PUSH [tag] 453\t\t\t\n      DUP2 \t\t\t\n      PUSH [tag] 237\t\t\t\n      JUMP \t\t\t\n    tag 453\t\t\t\n      JUMPDEST \t\t\t\n      DUP3 \t\t\t\n      MSTORE \t\t\t\n      POP \t\t\t\n      POP \t\t\t\n      JUMP \t\t\t\n    tag 239\t\t\t\n      JUMPDEST \t\t\t\n      PUSH 0\t\t\t\n      PUSH 80\t\t\t\n      DUP4 \t\t\t\n      ADD \t\t\t\n      PUSH 0\t\t\t\n      DUP4 \t\t\t\n      ADD \t\t\t\n      MLOAD \t\t\t\n      DUP5 \t\t\t\n      DUP3 \t\t\t\n      SUB \t\t\t\n      PUSH 0\t\t\t\n      DUP7 \t\t\t\n      ADD \t\t\t\n      MSTORE \t\t\t\n      PUSH [tag] 455\t\t\t\n      DUP3 \t\t\t\n      DUP3 \t\t\t\n      PUSH [tag] 210\t\t\t\n      JUMP \t\t\t\n    tag 455\t\t\t\n      JUMPDEST \t\t\t\n      SWAP2 \t\t\t\n      POP \t\t\t\n      POP \t\t\t\n      PUSH 20\t\t\t\n      DUP4 \t\t\t\n      ADD \t\t\t\n      MLOAD \t\t\t\n      DUP5 \t\t\t\n      DUP3 \t\t\t\n      SUB \t\t\t\n      PUSH 20\t\t\t\n      DUP7 \t\t\t\n      ADD \t\t\t\n      MSTORE \t\t\t\n      PUSH [tag] 456\t\t\t\n      DUP3 \t\t\t\n      DUP3 \t\t\t\n      PUSH [tag] 210\t\t\t\n      JUMP \t\t\t\n    tag 456\t\t\t\n      JUMPDEST \t\t\t\n      SWAP2 \t\t\t\n      POP \t\t\t\n      POP \t\t\t\n      PUSH 40\t\t\t\n      DUP4 \t\t\t\n      ADD \t\t\t\n      MLOAD \t\t\t\n      DUP5 \t\t\t\n      DUP3 \t\t\t\n      SUB \t\t\t\n      PUSH 40\t\t\t\n      DUP7 \t\t\t\n      ADD \t\t\t\n      MSTORE \t\t\t\n      PUSH [tag] 457\t\t\t\n      DUP3 \t\t\t\n      DUP3 \t\t\t\n      PUSH [tag] 236\t\t\t\n      JUMP \t\t\t\n    tag 457\t\t\t\n      JUMPDEST \t\t\t\n      SWAP2 \t\t\t\n      POP \t\t\t\n      POP \t\t\t\n      PUSH 60\t\t\t\n      DUP4 \t\t\t\n      ADD \t\t\t\n      MLOAD \t\t\t\n      PUSH [tag] 458\t\t\t\n      PUSH 60\t\t\t\n      DUP7 \t\t\t\n      ADD \t\t\t\n      DUP3 \t\t\t\n      PUSH [tag] 238\t\t\t\n      JUMP \t\t\t\n    tag 458\t\t\t\n      JUMPDEST \t\t\t\n      POP \t\t\t\n      DUP1 \t\t\t\n      SWAP2 \t\t\t\n      POP \t\t\t\n      POP \t\t\t\n      SWAP3 \t\t\t\n      SWAP2 \t\t\t\n      POP \t\t\t\n      POP \t\t\t\n      JUMP \t\t\t\n    tag 81\t\t\t\n      JUMPDEST \t\t\t\n      PUSH 0\t\t\t\n      PUSH 20\t\t\t\n      DUP3 \t\t\t\n      ADD \t\t\t\n      SWAP1 \t\t\t\n      POP \t\t\t\n      DUP2 \t\t\t\n      DUP2 \t\t\t\n      SUB \t\t\t\n      PUSH 0\t\t\t\n      DUP4 \t\t\t\n      ADD \t\t\t\n      MSTORE \t\t\t\n      PUSH [tag] 460\t\t\t\n      DUP2 \t\t\t\n      DUP5 \t\t\t\n      PUSH [tag] 239\t\t\t\n      JUMP \t\t\t\n    tag 460\t\t\t\n      JUMPDEST \t\t\t\n      SWAP1 \t\t\t\n      POP \t\t\t\n      SWAP3 \t\t\t\n      SWAP2 \t\t\t\n      POP \t\t\t\n      POP \t\t\t\n      JUMP \t\t\t\n    tag 240\t\t\t\n      JUMPDEST \t\t\t\n      PUSH 0\t\t\t\n      DUP2 \t\t\t\n      SWAP1 \t\t\t\n      POP \t\t\t\n      SWAP3 \t\t\t\n      SWAP2 \t\t\t\n      POP \t\t\t\n      POP \t\t\t\n      JUMP \t\t\t\n    tag 241\t\t\t\n      JUMPDEST \t\t\t\n      PUSH 0\t\t\t\n      PUSH [tag] 463\t\t\t\n      DUP3 \t\t\t\n      PUSH [tag] 179\t\t\t\n      JUMP \t\t\t\n    tag 463\t\t\t\n      JUMPDEST \t\t\t\n      PUSH [tag] 464\t\t\t\n      DUP2 \t\t\t\n      DUP6 \t\t\t\n      PUSH [tag] 240\t\t\t\n      JUMP \t\t\t\n    tag 464\t\t\t\n      JUMPDEST \t\t\t\n      SWAP4 \t\t\t\n      POP \t\t\t\n      PUSH [tag] 465\t\t\t\n      DUP2 \t\t\t\n      DUP6 \t\t\t\n      PUSH 20\t\t\t\n      DUP7 \t\t\t\n      ADD \t\t\t\n      PUSH [tag] 181\t\t\t\n      JUMP \t\t\t\n    tag 465\t\t\t\n      JUMPDEST \t\t\t\n      DUP1 \t\t\t\n      DUP5 \t\t\t\n      ADD \t\t\t\n      SWAP2 \t\t\t\n      POP \t\t\t\n      POP \t\t\t\n      SWAP3 \t\t\t\n      SWAP2 \t\t\t\n      POP \t\t\t\n      POP \t\t\t\n      JUMP \t\t\t\n    tag 83\t\t\t\n      JUMPDEST \t\t\t\n      PUSH 0\t\t\t\n      PUSH [tag] 467\t\t\t\n      DUP3 \t\t\t\n      DUP5 \t\t\t\n      PUSH [tag] 241\t\t\t\n      JUMP \t\t\t\n    tag 467\t\t\t\n      JUMPDEST \t\t\t\n      SWAP2 \t\t\t\n      POP \t\t\t\n      DUP2 \t\t\t\n      SWAP1 \t\t\t\n      POP \t\t\t\n      SWAP3 \t\t\t\n      SWAP2 \t\t\t\n      POP \t\t\t\n      POP \t\t\t\n      JUMP \t\t\t\n    tag 242\t\t\t\n      JUMPDEST \t\t\t\n      PUSH 63616C6C206D7573742073756363656564000000000000000000000000000000\t\t\t\n      PUSH 0\t\t\t\n      DUP3 \t\t\t\n      ADD \t\t\t\n      MSTORE \t\t\t\n      POP \t\t\t\n      JUMP \t\t\t\n    tag 243\t\t\t\n      JUMPDEST \t\t\t\n      PUSH 0\t\t\t\n      PUSH [tag] 470\t\t\t\n      PUSH 11\t\t\t\n      DUP4 \t\t\t\n      PUSH [tag] 184\t\t\t\n      JUMP \t\t\t\n    tag 470\t\t\t\n      JUMPDEST \t\t\t\n      SWAP2 \t\t\t\n      POP \t\t\t\n      PUSH [tag] 471\t\t\t\n      DUP3 \t\t\t\n      PUSH [tag] 242\t\t\t\n      JUMP \t\t\t\n    tag 471\t\t\t\n      JUMPDEST \t\t\t\n      PUSH 20\t\t\t\n      DUP3 \t\t\t\n      ADD \t\t\t\n      SWAP1 \t\t\t\n      POP \t\t\t\n      SWAP2 \t\t\t\n      SWAP1 \t\t\t\n      POP \t\t\t\n      JUMP \t\t\t\n    tag 89\t\t\t\n      JUMPDEST \t\t\t\n      PUSH 0\t\t\t\n      PUSH 20\t\t\t\n      DUP3 \t\t\t\n      ADD \t\t\t\n      SWAP1 \t\t\t\n      POP \t\t\t\n      DUP2 \t\t\t\n      DUP2 \t\t\t\n      SUB \t\t\t\n      PUSH 0\t\t\t\n      DUP4 \t\t\t\n      ADD \t\t\t\n      MSTORE \t\t\t\n      PUSH [tag] 473\t\t\t\n      DUP2 \t\t\t\n      PUSH [tag] 243\t\t\t\n      JUMP \t\t\t\n    tag 473\t\t\t\n      JUMPDEST \t\t\t\n      SWAP1 \t\t\t\n      POP \t\t\t\n      SWAP2 \t\t\t\n      SWAP1 \t\t\t\n      POP \t\t\t\n      JUMP \t\t\t\n    tag 244\t\t\t\n      JUMPDEST \t\t\t\n      PUSH 0\t\t\t\n      PUSH FFFFFFFF00000000000000000000000000000000000000000000000000000000\t\t\t\n      DUP3 \t\t\t\n      AND \t\t\t\n      SWAP1 \t\t\t\n      POP \t\t\t\n      SWAP2 \t\t\t\n      SWAP1 \t\t\t\n      POP \t\t\t\n      JUMP \t\t\t\n    tag 245\t\t\t\n      JUMPDEST \t\t\t\n      PUSH 0\t\t\t\n      DUP2 \t\t\t\n      SWAP1 \t\t\t\n      POP \t\t\t\n      SWAP2 \t\t\t\n      SWAP1 \t\t\t\n      POP \t\t\t\n      JUMP \t\t\t\n    tag 246\t\t\t\n      JUMPDEST \t\t\t\n      PUSH [tag] 477\t\t\t\n      PUSH [tag] 478\t\t\t\n      DUP3 \t\t\t\n      PUSH [tag] 244\t\t\t\n      JUMP \t\t\t\n    tag 478\t\t\t\n      JUMPDEST \t\t\t\n      PUSH [tag] 245\t\t\t\n      JUMP \t\t\t\n    tag 477\t\t\t\n      JUMPDEST \t\t\t\n      DUP3 \t\t\t\n      MSTORE \t\t\t\n      POP \t\t\t\n      POP \t\t\t\n      JUMP \t\t\t\n    tag 126\t\t\t\n      JUMPDEST \t\t\t\n      PUSH 0\t\t\t\n      PUSH [tag] 480\t\t\t\n      DUP3 \t\t\t\n      DUP7 \t\t\t\n      PUSH [tag] 241\t\t\t\n      JUMP \t\t\t\n    tag 480\t\t\t\n      JUMPDEST \t\t\t\n      SWAP2 \t\t\t\n      POP \t\t\t\n      PUSH [tag] 481\t\t\t\n      DUP3 \t\t\t\n      DUP6 \t\t\t\n      PUSH [tag] 246\t\t\t\n      JUMP \t\t\t\n    tag 481\t\t\t\n      JUMPDEST \t\t\t\n      PUSH 4\t\t\t\n      DUP3 \t\t\t\n      ADD \t\t\t\n      SWAP2 \t\t\t\n      POP \t\t\t\n      PUSH [tag] 482\t\t\t\n      DUP3 \t\t\t\n      DUP5 \t\t\t\n      PUSH [tag] 241\t\t\t\n      JUMP \t\t\t\n    tag 482\t\t\t\n      JUMPDEST \t\t\t\n      SWAP2 \t\t\t\n      POP \t\t\t\n      DUP2 \t\t\t\n      SWAP1 \t\t\t\n      POP \t\t\t\n      SWAP5 \t\t\t\n      SWAP4 \t\t\t\n      POP \t\t\t\n      POP \t\t\t\n      POP \t\t\t\n      POP \t\t\t\n      JUMP \t\t\t\n    tag 247\t\t\t\n      JUMPDEST \t\t\t\n      PUSH 4E487B7100000000000000000000000000000000000000000000000000000000\t\t\t\n      PUSH 0\t\t\t\n      MSTORE \t\t\t\n      PUSH 11\t\t\t\n      PUSH 4\t\t\t\n      MSTORE \t\t\t\n      PUSH 24\t\t\t\n      PUSH 0\t\t\t\n      REVERT \t\t\t\n    tag 143\t\t\t\n      JUMPDEST \t\t\t\n      PUSH 0\t\t\t\n      PUSH [tag] 485\t\t\t\n      DUP3 \t\t\t\n      PUSH [tag] 191\t\t\t\n      JUMP \t\t\t\n    tag 485\t\t\t\n      JUMPDEST \t\t\t\n      SWAP2 \t\t\t\n      POP \t\t\t\n      PUSH [tag] 486\t\t\t\n      DUP4 \t\t\t\n      PUSH [tag] 191\t\t\t\n      JUMP \t\t\t\n    tag 486\t\t\t\n      JUMPDEST \t\t\t\n      SWAP3 \t\t\t\n      POP \t\t\t\n      DUP3 \t\t\t\n      DUP3 \t\t\t\n      SUB \t\t\t\n      SWAP1 \t\t\t\n      POP \t\t\t\n      DUP2 \t\t\t\n      DUP2 \t\t\t\n      GT \t\t\t\n      ISZERO \t\t\t\n      PUSH [tag] 487\t\t\t\n      JUMPI \t\t\t\n      PUSH [tag] 488\t\t\t\n      PUSH [tag] 247\t\t\t\n      JUMP \t\t\t\n    tag 488\t\t\t\n      JUMPDEST \t\t\t\n    tag 487\t\t\t\n      JUMPDEST \t\t\t\n      SWAP3 \t\t\t\n      SWAP2 \t\t\t\n      POP \t\t\t\n      POP \t\t\t\n      JUMP \t\t\t\n    .data\n      5AD1B34C28D0DE49F8303D7C1424471BC7D1A6CFFDF5E570B681B7A033938E0F:\n        38337a665a596163467247713565426e6e703645515078617063706a7078646a414b704c61767174534a3332\n      DB7DC5A227104A7DC4106459D89C7370461570F3D01CED1AE79589AA9212598F:\n        32327a36483644655734554c4279514b4c455274486a536f44654669754369693876334e754c534166326462\n"
}